{
  "address": "0x36cA8b4631082534115332886365E015C3028F9e",
  "abi": [
    {
      "anonymous": false,
      "inputs": [
        {
          "indexed": true,
          "internalType": "address",
          "name": "from",
          "type": "address"
        },
        {
          "indexed": false,
          "internalType": "uint256",
          "name": "amount",
          "type": "uint256"
        }
      ],
      "name": "Deposit",
      "type": "event"
    },
    {
      "anonymous": false,
      "inputs": [
        {
          "indexed": false,
          "internalType": "string",
          "name": "param",
          "type": "string"
        }
      ],
      "name": "GovernanceUpdate",
      "type": "event"
    },
    {
      "anonymous": false,
      "inputs": [
        {
          "indexed": false,
          "internalType": "uint256",
          "name": "amount",
          "type": "uint256"
        }
      ],
      "name": "LiquidityFeeCollected",
      "type": "event"
    },
    {
      "anonymous": false,
      "inputs": [
        {
          "indexed": false,
          "internalType": "uint256",
          "name": "amount",
          "type": "uint256"
        }
      ],
      "name": "ProtocolFeeCollected",
      "type": "event"
    },
    {
      "anonymous": false,
      "inputs": [
        {
          "indexed": false,
          "internalType": "int256",
          "name": "stakeDiff",
          "type": "int256"
        },
        {
          "indexed": false,
          "internalType": "uint256",
          "name": "currentPrincipal",
          "type": "uint256"
        },
        {
          "indexed": false,
          "internalType": "uint256",
          "name": "oldPrincipal",
          "type": "uint256"
        }
      ],
      "name": "RewardsClaimed",
      "type": "event"
    },
    {
      "anonymous": false,
      "inputs": [
        {
          "indexed": true,
          "internalType": "address",
          "name": "node",
          "type": "address"
        },
        {
          "indexed": false,
          "internalType": "uint256",
          "name": "amount",
          "type": "uint256"
        }
      ],
      "name": "Stake",
      "type": "event"
    },
    {
      "anonymous": false,
      "inputs": [
        {
          "indexed": true,
          "internalType": "address",
          "name": "from",
          "type": "address"
        },
        {
          "indexed": true,
          "internalType": "address",
          "name": "node",
          "type": "address"
        },
        {
          "indexed": false,
          "internalType": "uint256",
          "name": "amount",
          "type": "uint256"
        },
        {
          "indexed": false,
          "internalType": "uint256",
          "name": "unstakeLockID",
          "type": "uint256"
        }
      ],
      "name": "Unstake",
      "type": "event"
    },
    {
      "anonymous": false,
      "inputs": [
        {
          "indexed": true,
          "internalType": "address",
          "name": "from",
          "type": "address"
        },
        {
          "indexed": false,
          "internalType": "uint256",
          "name": "amount",
          "type": "uint256"
        },
        {
          "indexed": false,
          "internalType": "uint256",
          "name": "unstakeLockID",
          "type": "uint256"
        }
      ],
      "name": "Withdraw",
      "type": "event"
    },
    {
      "inputs": [
        {
          "internalType": "address[]",
          "name": "_targets",
          "type": "address[]"
        },
        {
          "internalType": "uint256[]",
          "name": "_values",
          "type": "uint256[]"
        },
        {
          "internalType": "bytes[]",
          "name": "_datas",
          "type": "bytes[]"
        }
      ],
      "name": "batchExecute",
      "outputs": [],
      "stateMutability": "nonpayable",
      "type": "function"
    },
    {
      "inputs": [
        {
          "internalType": "uint256",
          "name": "_amountIn",
          "type": "uint256"
        }
      ],
      "name": "calcDepositOut",
      "outputs": [
        {
          "internalType": "uint256",
          "name": "",
          "type": "uint256"
        }
      ],
      "stateMutability": "view",
      "type": "function"
    },
    {
      "inputs": [],
      "name": "claimRewards",
      "outputs": [],
      "stateMutability": "nonpayable",
      "type": "function"
    },
    {
      "inputs": [],
      "name": "collectFees",
      "outputs": [
        {
          "internalType": "uint256",
          "name": "",
          "type": "uint256"
        }
      ],
      "stateMutability": "nonpayable",
      "type": "function"
    },
    {
      "inputs": [],
      "name": "collectLiquidityFees",
      "outputs": [
        {
          "internalType": "uint256",
          "name": "amount",
          "type": "uint256"
        }
      ],
      "stateMutability": "nonpayable",
      "type": "function"
    },
    {
      "inputs": [],
      "name": "currentPrincipal",
      "outputs": [
        {
          "internalType": "uint256",
          "name": "",
          "type": "uint256"
        }
      ],
      "stateMutability": "view",
      "type": "function"
    },
    {
      "inputs": [
        {
          "internalType": "uint256",
          "name": "_amount",
          "type": "uint256"
        }
      ],
      "name": "deposit",
      "outputs": [],
      "stateMutability": "nonpayable",
      "type": "function"
    },
    {
      "inputs": [
        {
          "internalType": "uint256",
          "name": "_amount",
          "type": "uint256"
        },
        {
          "internalType": "uint256",
          "name": "_deadline",
          "type": "uint256"
        },
        {
          "internalType": "uint8",
          "name": "_v",
          "type": "uint8"
        },
        {
          "internalType": "bytes32",
          "name": "_r",
          "type": "bytes32"
        },
        {
          "internalType": "bytes32",
          "name": "_s",
          "type": "bytes32"
        }
      ],
      "name": "depositWithPermit",
      "outputs": [],
      "stateMutability": "nonpayable",
      "type": "function"
    },
    {
      "inputs": [
        {
          "internalType": "address",
          "name": "_target",
          "type": "address"
        },
        {
          "internalType": "uint256",
          "name": "_value",
          "type": "uint256"
        },
        {
          "internalType": "bytes",
          "name": "_data",
          "type": "bytes"
        }
      ],
      "name": "execute",
      "outputs": [],
      "stateMutability": "nonpayable",
      "type": "function"
    },
    {
      "inputs": [],
      "name": "gov",
      "outputs": [
        {
          "internalType": "address",
          "name": "",
          "type": "address"
        }
      ],
      "stateMutability": "view",
      "type": "function"
    },
    {
      "inputs": [
        {
          "internalType": "contract IERC20",
          "name": "_steak",
          "type": "address"
        },
        {
          "internalType": "string",
          "name": "_symbol",
          "type": "string"
        },
        {
          "internalType": "contract IAudius",
          "name": "_audius",
          "type": "address"
        },
        {
          "internalType": "address",
          "name": "_node",
          "type": "address"
        },
        {
          "internalType": "uint256",
          "name": "_protocolFee",
          "type": "uint256"
        },
        {
          "internalType": "uint256",
          "name": "_liquidityFee",
          "type": "uint256"
        },
        {
          "internalType": "contract ITenderToken",
          "name": "_tenderTokenTarget",
          "type": "address"
        },
        {
          "internalType": "contract TenderFarmFactory",
          "name": "_tenderFarmFactory",
          "type": "address"
        },
        {
          "internalType": "contract ITenderSwapFactory",
          "name": "_tenderSwapFactory",
          "type": "address"
        }
      ],
      "name": "initialize",
      "outputs": [],
      "stateMutability": "nonpayable",
      "type": "function"
    },
    {
      "inputs": [],
      "name": "liquidityFee",
      "outputs": [
        {
          "internalType": "uint256",
          "name": "",
          "type": "uint256"
        }
      ],
      "stateMutability": "view",
      "type": "function"
    },
    {
      "inputs": [],
      "name": "node",
      "outputs": [
        {
          "internalType": "address",
          "name": "",
          "type": "address"
        }
      ],
      "stateMutability": "view",
      "type": "function"
    },
    {
      "inputs": [],
      "name": "pendingFees",
      "outputs": [
        {
          "internalType": "uint256",
          "name": "",
          "type": "uint256"
        }
      ],
      "stateMutability": "view",
      "type": "function"
    },
    {
      "inputs": [],
      "name": "pendingLiquidityFees",
      "outputs": [
        {
          "internalType": "uint256",
          "name": "",
          "type": "uint256"
        }
      ],
      "stateMutability": "view",
      "type": "function"
    },
    {
      "inputs": [],
      "name": "protocolFee",
      "outputs": [
        {
          "internalType": "uint256",
          "name": "",
          "type": "uint256"
        }
      ],
      "stateMutability": "view",
      "type": "function"
    },
    {
      "inputs": [
        {
          "internalType": "address",
          "name": "_token",
          "type": "address"
        },
        {
          "internalType": "uint256",
          "name": "_value",
          "type": "uint256"
        },
        {
          "internalType": "uint256",
          "name": "_deadline",
          "type": "uint256"
        },
        {
          "internalType": "uint8",
          "name": "_v",
          "type": "uint8"
        },
        {
          "internalType": "bytes32",
          "name": "_r",
          "type": "bytes32"
        },
        {
          "internalType": "bytes32",
          "name": "_s",
          "type": "bytes32"
        }
      ],
      "name": "selfPermit",
      "outputs": [],
      "stateMutability": "payable",
      "type": "function"
    },
    {
      "inputs": [
        {
          "internalType": "address",
          "name": "_token",
          "type": "address"
        },
        {
          "internalType": "uint256",
          "name": "_value",
          "type": "uint256"
        },
        {
          "internalType": "uint256",
          "name": "_deadline",
          "type": "uint256"
        },
        {
          "internalType": "uint8",
          "name": "_v",
          "type": "uint8"
        },
        {
          "internalType": "bytes32",
          "name": "_r",
          "type": "bytes32"
        },
        {
          "internalType": "bytes32",
          "name": "_s",
          "type": "bytes32"
        }
      ],
      "name": "selfPermitIfNecessary",
      "outputs": [],
      "stateMutability": "payable",
      "type": "function"
    },
    {
      "inputs": [
        {
          "internalType": "address",
          "name": "_gov",
          "type": "address"
        }
      ],
      "name": "setGov",
      "outputs": [],
      "stateMutability": "nonpayable",
      "type": "function"
    },
    {
      "inputs": [
        {
          "internalType": "uint256",
          "name": "_liquidityFee",
          "type": "uint256"
        }
      ],
      "name": "setLiquidityFee",
      "outputs": [],
      "stateMutability": "nonpayable",
      "type": "function"
    },
    {
      "inputs": [
        {
          "internalType": "address",
          "name": "_node",
          "type": "address"
        }
      ],
      "name": "setNode",
      "outputs": [],
      "stateMutability": "nonpayable",
      "type": "function"
    },
    {
      "inputs": [
        {
          "internalType": "uint256",
          "name": "_protocolFee",
          "type": "uint256"
        }
      ],
      "name": "setProtocolFee",
      "outputs": [],
      "stateMutability": "nonpayable",
      "type": "function"
    },
    {
      "inputs": [
        {
          "internalType": "address",
          "name": "_stakingContract",
          "type": "address"
        }
      ],
      "name": "setStakingContract",
      "outputs": [],
      "stateMutability": "nonpayable",
      "type": "function"
    },
    {
      "inputs": [
        {
          "internalType": "contract IERC20",
          "name": "_steak",
          "type": "address"
        }
      ],
      "name": "setSteak",
      "outputs": [],
      "stateMutability": "nonpayable",
      "type": "function"
    },
    {
      "inputs": [
        {
          "internalType": "contract ITenderFarm",
          "name": "_tenderFarm",
          "type": "address"
        }
      ],
      "name": "setTenderFarm",
      "outputs": [],
      "stateMutability": "nonpayable",
      "type": "function"
    },
    {
      "inputs": [
        {
          "internalType": "address",
          "name": "_account",
          "type": "address"
        },
        {
          "internalType": "uint256",
          "name": "_amount",
          "type": "uint256"
        }
      ],
      "name": "stake",
      "outputs": [],
      "stateMutability": "nonpayable",
      "type": "function"
    },
    {
      "inputs": [],
      "name": "steak",
      "outputs": [
        {
          "internalType": "contract IERC20",
          "name": "",
          "type": "address"
        }
      ],
      "stateMutability": "view",
      "type": "function"
    },
    {
      "inputs": [],
      "name": "tenderFarm",
      "outputs": [
        {
          "internalType": "contract ITenderFarm",
          "name": "",
          "type": "address"
        }
      ],
      "stateMutability": "view",
      "type": "function"
    },
    {
      "inputs": [],
      "name": "tenderSwap",
      "outputs": [
        {
          "internalType": "contract ITenderSwap",
          "name": "",
          "type": "address"
        }
      ],
      "stateMutability": "view",
      "type": "function"
    },
    {
      "inputs": [],
      "name": "tenderToken",
      "outputs": [
        {
          "internalType": "contract ITenderToken",
          "name": "",
          "type": "address"
        }
      ],
      "stateMutability": "view",
      "type": "function"
    },
    {
      "inputs": [],
      "name": "totalStakedTokens",
      "outputs": [
        {
          "internalType": "uint256",
          "name": "",
          "type": "uint256"
        }
      ],
      "stateMutability": "view",
      "type": "function"
    },
    {
      "inputs": [
        {
          "internalType": "uint256",
          "name": "_amount",
          "type": "uint256"
        }
      ],
      "name": "unstake",
      "outputs": [
        {
          "internalType": "uint256",
          "name": "",
          "type": "uint256"
        }
      ],
      "stateMutability": "nonpayable",
      "type": "function"
    },
    {
      "inputs": [
        {
          "internalType": "uint256",
          "name": "",
          "type": "uint256"
        }
      ],
      "name": "unstakeLocks",
      "outputs": [
        {
          "internalType": "uint256",
          "name": "amount",
          "type": "uint256"
        },
        {
          "internalType": "address",
          "name": "account",
          "type": "address"
        }
      ],
      "stateMutability": "view",
      "type": "function"
    },
    {
      "inputs": [
        {
          "internalType": "uint256",
          "name": "_unstakeLockID",
          "type": "uint256"
        }
      ],
      "name": "withdraw",
      "outputs": [],
      "stateMutability": "nonpayable",
      "type": "function"
    }
  ],
  "transactionHash": "0xc3a60e75d74e90d39213138b9bb3644ebfefd612f2298224adb925c3f2951f86",
  "args": [],
  "solcInputHash": "4eff854763a48309ffc633b213a0120c",
  "bytecode": "0x608060405234801561001057600080fd5b50614e9c806100206000396000f3fe6080604052600436106101f95760003560e01c8063a26a546b1161010d578063c2e3140a116100a0578063ec6d80f61161006f578063ec6d80f6146106c6578063f3995c67146106ef578063f4d95a711461070b578063f5492b9514610736578063fbdfc96114610774576101f9565b8063c2e3140a1461062b578063c879657214610647578063cfad57a214610672578063d70754ec1461069b576101f9565b8063b0e21e8a116100dc578063b0e21e8a14610585578063b61d27f6146105b0578063b6b55f25146105d9578063c21d5ab714610602576101f9565b8063a26a546b146104dd578063adc9772e14610508578063afef75d214610531578063b089af311461055a576101f9565b8063372500ab116101905780636f1903151161015f5780636f190315146103f8578063787dce3d146104235780637cb0c2751461044c57806398118cb4146104895780639dd373b9146104b4576101f9565b8063372500ab146103625780633ae73259146103795780634a970be7146103a457806351c669c0146103cd576101f9565b80632d822160116101cc5780632d822160146102a85780632e17de78146102d35780632e1a7d4d14610310578063357bf15c14610339576101f9565b8063077d97d7146101fe57806312d43a5114610227578063224438d1146102525780632a777db21461027d575b600080fd5b34801561020a57600080fd5b5061022560048036038101906102209190613738565b61079d565b005b34801561023357600080fd5b5061023c61095b565b6040516102499190613ff2565b60405180910390f35b34801561025e57600080fd5b50610267610981565b6040516102749190614488565b60405180910390f35b34801561028957600080fd5b50610292610987565b60405161029f9190614488565b60405180910390f35b3480156102b457600080fd5b506102bd61098d565b6040516102ca919061418d565b60405180910390f35b3480156102df57600080fd5b506102fa60048036038101906102f591906139b5565b6109b3565b6040516103079190614488565b60405180910390f35b34801561031c57600080fd5b50610337600480360381019061033291906139b5565b610b2d565b005b34801561034557600080fd5b50610360600480360381019061035b91906139b5565b610b3a565b005b34801561036e57600080fd5b50610377610bd3565b005b34801561038557600080fd5b5061038e610cb3565b60405161039b9190614488565b60405180910390f35b3480156103b057600080fd5b506103cb60048036038101906103c69190613a07565b610cc2565b005b3480156103d957600080fd5b506103e2610d02565b6040516103ef9190614488565b60405180910390f35b34801561040457600080fd5b5061040d610d08565b60405161041a9190614105565b60405180910390f35b34801561042f57600080fd5b5061044a600480360381019061044591906139b5565b610d2e565b005b34801561045857600080fd5b50610473600480360381019061046e91906139b5565b610dc7565b6040516104809190614488565b60405180910390f35b34801561049557600080fd5b5061049e610dd9565b6040516104ab9190614488565b60405180910390f35b3480156104c057600080fd5b506104db60048036038101906104d691906135b5565b610ddf565b005b3480156104e957600080fd5b506104f2610e45565b6040516104ff9190614172565b60405180910390f35b34801561051457600080fd5b5061052f600480360381019061052a9190613607565b610e6b565b005b34801561053d57600080fd5b5061055860048036038101906105539190613805565b610ed3565b005b34801561056657600080fd5b5061056f610fa6565b60405161057c9190614488565b60405180910390f35b34801561059157600080fd5b5061059a6112d4565b6040516105a79190614488565b60405180910390f35b3480156105bc57600080fd5b506105d760048036038101906105d29190613643565b6112da565b005b3480156105e557600080fd5b5061060060048036038101906105fb91906139b5565b611346565b005b34801561060e57600080fd5b50610629600480360381019061062491906135b5565b611582565b005b610645600480360381019061064091906136af565b611655565b005b34801561065357600080fd5b5061065c61170f565b6040516106699190614488565b60405180910390f35b34801561067e57600080fd5b50610699600480360381019061069491906135b5565b61184c565b005b3480156106a757600080fd5b506106b061191f565b6040516106bd9190613ff2565b60405180910390f35b3480156106d257600080fd5b506106ed60048036038101906106e8919061382e565b611945565b005b610709600480360381019061070491906136af565b611ac6565b005b34801561071757600080fd5b50610720611adc565b60405161072d9190614157565b60405180910390f35b34801561074257600080fd5b5061075d600480360381019061075891906139b5565b611b02565b60405161076b9291906144a3565b60405180910390f35b34801561078057600080fd5b5061079b60048036038101906107969190613911565b611b46565b005b600c60009054906101000a900473ffffffffffffffffffffffffffffffffffffffff1673ffffffffffffffffffffffffffffffffffffffff163373ffffffffffffffffffffffffffffffffffffffff16146107f757600080fd5b838390508686905014801561081157508181905086869050145b610850576040517f08c379a000000000000000000000000000000000000000000000000000000000815260040161084790614306565b60405180910390fd5b60005b868690508110156109525761093f87878381811061089a577f4e487b7100000000000000000000000000000000000000000000000000000000600052603260045260246000fd5b90506020020160208101906108af91906135b5565b8686848181106108e8577f4e487b7100000000000000000000000000000000000000000000000000000000600052603260045260246000fd5b90506020020135858585818110610928577f4e487b7100000000000000000000000000000000000000000000000000000000600052603260045260246000fd5b905060200281019061093a91906144f5565b611c19565b808061094a906148b7565b915050610853565b50505050505050565b600c60009054906101000a900473ffffffffffffffffffffffffffffffffffffffff1681565b60075481565b60085481565b600160009054906101000a900473ffffffffffffffffffffffffffffffffffffffff1681565b6000600c60009054906101000a900473ffffffffffffffffffffffffffffffffffffffff1673ffffffffffffffffffffffffffffffffffffffff163373ffffffffffffffffffffffffffffffffffffffff1614610af957600160009054906101000a900473ffffffffffffffffffffffffffffffffffffffff1673ffffffffffffffffffffffffffffffffffffffff16639dc29fac33846040518363ffffffff1660e01b8152600401610a679291906140dc565b602060405180830381600087803b158015610a8157600080fd5b505af1158015610a95573d6000803e3d6000fd5b505050506040513d601f19601f82011682018060405250810190610ab991906137dc565b610af8576040517f08c379a0000000000000000000000000000000000000000000000000000000008152600401610aef90614246565b60405180910390fd5b5b610b2633600460009054906101000a900473ffffffffffffffffffffffffffffffffffffffff1684611cd7565b9050919050565b610b373382611fd1565b50565b600c60009054906101000a900473ffffffffffffffffffffffffffffffffffffffff1673ffffffffffffffffffffffffffffffffffffffff163373ffffffffffffffffffffffffffffffffffffffff1614610b9457600080fd5b806006819055507f6641a0d0a317e54d1b956ab0202883db13ef06b75584a6a017b1b3c796f990fa604051610bc890614426565b60405180910390a150565b610bdb612363565b610cb1600460009054906101000a900473ffffffffffffffffffffffffffffffffffffffff16600060029054906101000a900473ffffffffffffffffffffffffffffffffffffffff1673ffffffffffffffffffffffffffffffffffffffff166370a08231306040518263ffffffff1660e01b8152600401610c5c9190613ff2565b60206040518083038186803b158015610c7457600080fd5b505afa158015610c88573d6000803e3d6000fd5b505050506040513d601f19601f82011682018060405250810190610cac91906139de565b6124d0565b565b6000610cbd6126f5565b905090565b610cf2600060029054906101000a900473ffffffffffffffffffffffffffffffffffffffff1686868686866126ff565b610cfb85611346565b5050505050565b60095481565b600060029054906101000a900473ffffffffffffffffffffffffffffffffffffffff1681565b600c60009054906101000a900473ffffffffffffffffffffffffffffffffffffffff1673ffffffffffffffffffffffffffffffffffffffff163373ffffffffffffffffffffffffffffffffffffffff1614610d8857600080fd5b806005819055507f6641a0d0a317e54d1b956ab0202883db13ef06b75584a6a017b1b3c796f990fa604051610dbc906143a6565b60405180910390a150565b6000610dd28261277e565b9050919050565b60065481565b600c60009054906101000a900473ffffffffffffffffffffffffffffffffffffffff1673ffffffffffffffffffffffffffffffffffffffff163373ffffffffffffffffffffffffffffffffffffffff1614610e3957600080fd5b610e4281612788565b50565b600360009054906101000a900473ffffffffffffffffffffffffffffffffffffffff1681565b600c60009054906101000a900473ffffffffffffffffffffffffffffffffffffffff1673ffffffffffffffffffffffffffffffffffffffff163373ffffffffffffffffffffffffffffffffffffffff1614610ec557600080fd5b610ecf82826124d0565b5050565b600c60009054906101000a900473ffffffffffffffffffffffffffffffffffffffff1673ffffffffffffffffffffffffffffffffffffffff163373ffffffffffffffffffffffffffffffffffffffff1614610f2d57600080fd5b80600060026101000a81548173ffffffffffffffffffffffffffffffffffffffff021916908373ffffffffffffffffffffffffffffffffffffffff1602179055507f6641a0d0a317e54d1b956ab0202883db13ef06b75584a6a017b1b3c796f990fa604051610f9b90614346565b60405180910390a150565b6000600c60009054906101000a900473ffffffffffffffffffffffffffffffffffffffff1673ffffffffffffffffffffffffffffffffffffffff163373ffffffffffffffffffffffffffffffffffffffff161461100257600080fd5b6000600260009054906101000a900473ffffffffffffffffffffffffffffffffffffffff1673ffffffffffffffffffffffffffffffffffffffff166304d3b7c46040518163ffffffff1660e01b815260040160206040518083038186803b15801561106c57600080fd5b505afa158015611080573d6000803e3d6000fd5b505050506040513d601f19601f820116820180604052508101906110a491906139de565b14156110b357600090506112d1565b6008549050600160009054906101000a900473ffffffffffffffffffffffffffffffffffffffff1673ffffffffffffffffffffffffffffffffffffffff166340c10f1930836040518363ffffffff1660e01b81526004016111159291906140dc565b602060405180830381600087803b15801561112f57600080fd5b505af1158015611143573d6000803e3d6000fd5b505050506040513d601f19601f8201168201806040525081019061116791906137dc565b506111706128e1565b50600160009054906101000a900473ffffffffffffffffffffffffffffffffffffffff1673ffffffffffffffffffffffffffffffffffffffff1663095ea7b3600260009054906101000a900473ffffffffffffffffffffffffffffffffffffffff16836040518363ffffffff1660e01b81526004016111f09291906140dc565b602060405180830381600087803b15801561120a57600080fd5b505af115801561121e573d6000803e3d6000fd5b505050506040513d601f19601f8201168201806040525081019061124291906137dc565b50600260009054906101000a900473ffffffffffffffffffffffffffffffffffffffff1673ffffffffffffffffffffffffffffffffffffffff1663beceed39826040518263ffffffff1660e01b815260040161129e9190614488565b600060405180830381600087803b1580156112b857600080fd5b505af11580156112cc573d6000803e3d6000fd5b505050505b90565b60055481565b600c60009054906101000a900473ffffffffffffffffffffffffffffffffffffffff1673ffffffffffffffffffffffffffffffffffffffff163373ffffffffffffffffffffffffffffffffffffffff161461133457600080fd5b61134084848484611c19565b50505050565b60008111611389576040517f08c379a0000000000000000000000000000000000000000000000000000000008152600401611380906143c6565b60405180910390fd5b60006113948261277e565b9050600160009054906101000a900473ffffffffffffffffffffffffffffffffffffffff1673ffffffffffffffffffffffffffffffffffffffff166340c10f1933836040518363ffffffff1660e01b81526004016113f39291906140dc565b602060405180830381600087803b15801561140d57600080fd5b505af1158015611421573d6000803e3d6000fd5b505050506040513d601f19601f8201168201806040525081019061144591906137dc565b611484576040517f08c379a000000000000000000000000000000000000000000000000000000000815260040161147b906142a6565b60405180910390fd5b600060029054906101000a900473ffffffffffffffffffffffffffffffffffffffff1673ffffffffffffffffffffffffffffffffffffffff166323b872dd3330856040518463ffffffff1660e01b81526004016114e393929190614036565b602060405180830381600087803b1580156114fd57600080fd5b505af1158015611511573d6000803e3d6000fd5b505050506040513d601f19601f8201168201806040525081019061153591906137dc565b611574576040517f08c379a000000000000000000000000000000000000000000000000000000000815260040161156b90614266565b60405180910390fd5b61157e3383612948565b5050565b600c60009054906101000a900473ffffffffffffffffffffffffffffffffffffffff1673ffffffffffffffffffffffffffffffffffffffff163373ffffffffffffffffffffffffffffffffffffffff16146115dc57600080fd5b80600460006101000a81548173ffffffffffffffffffffffffffffffffffffffff021916908373ffffffffffffffffffffffffffffffffffffffff1602179055507f6641a0d0a317e54d1b956ab0202883db13ef06b75584a6a017b1b3c796f990fa60405161164a90614386565b60405180910390a150565b60008673ffffffffffffffffffffffffffffffffffffffff1663dd62ed3e33306040518363ffffffff1660e01b815260040161169292919061400d565b60206040518083038186803b1580156116aa57600080fd5b505afa1580156116be573d6000803e3d6000fd5b505050506040513d601f19601f820116820180604052508101906116e291906139de565b905085811015611706576117058782886116fc9190614670565b878787876126ff565b5b50505050505050565b6000600c60009054906101000a900473ffffffffffffffffffffffffffffffffffffffff1673ffffffffffffffffffffffffffffffffffffffff163373ffffffffffffffffffffffffffffffffffffffff161461176b57600080fd5b600160009054906101000a900473ffffffffffffffffffffffffffffffffffffffff1673ffffffffffffffffffffffffffffffffffffffff166340c10f19600c60009054906101000a900473ffffffffffffffffffffffffffffffffffffffff166007546040518363ffffffff1660e01b81526004016117ec9291906140dc565b602060405180830381600087803b15801561180657600080fd5b505af115801561181a573d6000803e3d6000fd5b505050506040513d601f19601f8201168201806040525081019061183e91906137dc565b506118476129b3565b905090565b600c60009054906101000a900473ffffffffffffffffffffffffffffffffffffffff1673ffffffffffffffffffffffffffffffffffffffff163373ffffffffffffffffffffffffffffffffffffffff16146118a657600080fd5b80600c60006101000a81548173ffffffffffffffffffffffffffffffffffffffff021916908373ffffffffffffffffffffffffffffffffffffffff1602179055507f6641a0d0a317e54d1b956ab0202883db13ef06b75584a6a017b1b3c796f990fa60405161191490614366565b60405180910390a150565b600460009054906101000a900473ffffffffffffffffffffffffffffffffffffffff1681565b6119998a8a8a8080601f016020809104026020016040519081016040528093929190818152602001838380828437600081840152601f19601f82011690508083019250505050505050888888888888612a1a565b86600d60006101000a81548173ffffffffffffffffffffffffffffffffffffffff021916908373ffffffffffffffffffffffffffffffffffffffff160217905550600d60009054906101000a900473ffffffffffffffffffffffffffffffffffffffff1673ffffffffffffffffffffffffffffffffffffffff16630e9ed68b6040518163ffffffff1660e01b815260040160206040518083038186803b158015611a4257600080fd5b505afa158015611a56573d6000803e3d6000fd5b505050506040513d601f19601f82011682018060405250810190611a7a91906135de565b600e60006101000a81548173ffffffffffffffffffffffffffffffffffffffff021916908373ffffffffffffffffffffffffffffffffffffffff16021790555050505050505050505050565b611ad48686868686866126ff565b505050505050565b600260009054906101000a900473ffffffffffffffffffffffffffffffffffffffff1681565b600a6020528060005260406000206000915090508060000154908060010160009054906101000a900473ffffffffffffffffffffffffffffffffffffffff16905082565b600c60009054906101000a900473ffffffffffffffffffffffffffffffffffffffff1673ffffffffffffffffffffffffffffffffffffffff163373ffffffffffffffffffffffffffffffffffffffff1614611ba057600080fd5b80600260006101000a81548173ffffffffffffffffffffffffffffffffffffffff021916908373ffffffffffffffffffffffffffffffffffffffff1602179055507f6641a0d0a317e54d1b956ab0202883db13ef06b75584a6a017b1b3c796f990fa604051611c0e90614406565b60405180910390a150565b6000808573ffffffffffffffffffffffffffffffffffffffff16858585604051611c44929190613f43565b60006040518083038185875af1925050503d8060008114611c81576040519150601f19603f3d011682016040523d82523d6000602084013e611c86565b606091505b5091509150818190611cce576040517f08c379a0000000000000000000000000000000000000000000000000000000008152600401611cc591906141df565b60405180910390fd5b50505050505050565b600080829050600b549150600c60009054906101000a900473ffffffffffffffffffffffffffffffffffffffff1673ffffffffffffffffffffffffffffffffffffffff168573ffffffffffffffffffffffffffffffffffffffff161415611e4757601054600f5414611d7e576040517f08c379a0000000000000000000000000000000000000000000000000000000008152600401611d75906143e6565b60405180910390fd5b6011549050600060118190555081600f81905550600d60009054906101000a900473ffffffffffffffffffffffffffffffffffffffff1673ffffffffffffffffffffffffffffffffffffffff1663a7bac48785836040518363ffffffff1660e01b8152600401611def9291906140dc565b602060405180830381600087803b158015611e0957600080fd5b505af1158015611e1d573d6000803e3d6000fd5b505050506040513d601f19601f82011682018060405250810190611e4191906139de565b50611ebd565b60008111611e8a576040517f08c379a0000000000000000000000000000000000000000000000000000000008152600401611e81906143c6565b60405180910390fd5b8060096000828254611e9c9190614670565b925050819055508060116000828254611eb5919061458f565b925050819055505b600182611eca919061458f565b600b8190555060405180604001604052808281526020018673ffffffffffffffffffffffffffffffffffffffff16815250600a60008481526020019081526020016000206000820151816000015560208201518160010160006101000a81548173ffffffffffffffffffffffffffffffffffffffff021916908373ffffffffffffffffffffffffffffffffffffffff1602179055509050508373ffffffffffffffffffffffffffffffffffffffff168573ffffffffffffffffffffffffffffffffffffffff167f18edd09e80386cd99df397e2e0d87d2bb259423eae08645e776321a36fe680ef8385604051611fc19291906144cc565b60405180910390a3509392505050565b6000600a6000838152602001908152602001600020905060008160010160009054906101000a900473ffffffffffffffffffffffffffffffffffffffff169050600082600001549050600a60008581526020019081526020016000206000808201600090556001820160006101000a81549073ffffffffffffffffffffffffffffffffffffffff021916905550508473ffffffffffffffffffffffffffffffffffffffff168273ffffffffffffffffffffffffffffffffffffffff16146120cd576040517f08c379a00000000000000000000000000000000000000000000000000000000081526004016120c4906142c6565b60405180910390fd5b60008111612110576040517f08c379a0000000000000000000000000000000000000000000000000000000008152600401612107906143c6565b60405180910390fd5b600c60009054906101000a900473ffffffffffffffffffffffffffffffffffffffff1673ffffffffffffffffffffffffffffffffffffffff168573ffffffffffffffffffffffffffffffffffffffff16141561221757600f54601081905550600d60009054906101000a900473ffffffffffffffffffffffffffffffffffffffff1673ffffffffffffffffffffffffffffffffffffffff1663feaf80486040518163ffffffff1660e01b8152600401602060405180830381600087803b1580156121d957600080fd5b505af11580156121ed573d6000803e3d6000fd5b505050506040513d601f19601f8201168201806040525081019061221191906139de565b5061230c565b601054841061225b576040517f08c379a0000000000000000000000000000000000000000000000000000000008152600401612252906143e6565b60405180910390fd5b600060029054906101000a900473ffffffffffffffffffffffffffffffffffffffff1673ffffffffffffffffffffffffffffffffffffffff1663a9059cbb86836040518363ffffffff1660e01b81526004016122b89291906140dc565b602060405180830381600087803b1580156122d257600080fd5b505af11580156122e6573d6000803e3d6000fd5b505050506040513d601f19601f8201168201806040525081019061230a91906137dc565b505b8173ffffffffffffffffffffffffffffffffffffffff167ff279e6a1f5e320cca91135676d9cb6e44ca8a08c0b88342bcdb1144f6511b56882866040516123549291906144cc565b60405180910390a25050505050565b600d60009054906101000a900473ffffffffffffffffffffffffffffffffffffffff1673ffffffffffffffffffffffffffffffffffffffff1663ef5cfb8c600460009054906101000a900473ffffffffffffffffffffffffffffffffffffffff166040518263ffffffff1660e01b81526004016123e09190613ff2565b600060405180830381600087803b1580156123fa57600080fd5b505af192505050801561240b575060015b61241457612415565b5b6000600d60009054906101000a900473ffffffffffffffffffffffffffffffffffffffff1673ffffffffffffffffffffffffffffffffffffffff1663b0303b75306040518263ffffffff1660e01b81526004016124729190613ff2565b60206040518083038186803b15801561248a57600080fd5b505afa15801561249e573d6000803e3d6000fd5b505050506040513d601f19601f820116820180604052508101906124c291906139de565b90506124cd81612fd5565b50565b600081905060008114156124e457506126f1565b600073ffffffffffffffffffffffffffffffffffffffff168373ffffffffffffffffffffffffffffffffffffffff16141561251f57506126f1565b600060029054906101000a900473ffffffffffffffffffffffffffffffffffffffff1673ffffffffffffffffffffffffffffffffffffffff1663095ea7b3600e60009054906101000a900473ffffffffffffffffffffffffffffffffffffffff16836040518363ffffffff1660e01b815260040161259e9291906140dc565b602060405180830381600087803b1580156125b857600080fd5b505af11580156125cc573d6000803e3d6000fd5b505050506040513d601f19601f820116820180604052508101906125f091906137dc565b50600d60009054906101000a900473ffffffffffffffffffffffffffffffffffffffff1673ffffffffffffffffffffffffffffffffffffffff16633c323a1b84836040518363ffffffff1660e01b815260040161264e9291906140dc565b602060405180830381600087803b15801561266857600080fd5b505af115801561267c573d6000803e3d6000fd5b505050506040513d601f19601f820116820180604052508101906126a091906139de565b508273ffffffffffffffffffffffffffffffffffffffff167febedb8b3c678666e7f36970bc8f57abf6d8fa2e828c0da91ea5b75bf68ed101a826040516126e79190614488565b60405180910390a2505b5050565b6000600954905090565b8573ffffffffffffffffffffffffffffffffffffffff1663d505accf333088888888886040518863ffffffff1660e01b8152600401612744979695949392919061406d565b600060405180830381600087803b15801561275e57600080fd5b505af1158015612772573d6000803e3d6000fd5b50505050505050505050565b6000819050919050565b80600d60006101000a81548173ffffffffffffffffffffffffffffffffffffffff021916908373ffffffffffffffffffffffffffffffffffffffff160217905550600d60009054906101000a900473ffffffffffffffffffffffffffffffffffffffff1673ffffffffffffffffffffffffffffffffffffffff16630e9ed68b6040518163ffffffff1660e01b815260040160206040518083038186803b15801561283157600080fd5b505afa158015612845573d6000803e3d6000fd5b505050506040513d601f19601f8201168201806040525081019061286991906135de565b600e60006101000a81548173ffffffffffffffffffffffffffffffffffffffff021916908373ffffffffffffffffffffffffffffffffffffffff1602179055507f6641a0d0a317e54d1b956ab0202883db13ef06b75584a6a017b1b3c796f990fa6040516128d690614286565b60405180910390a150565b600080600854905060006008819055508060096000828254612903919061458f565b925050819055507f1d8f4bab53e84801fc35b88b53df72a998fa29c92e6fc65d412c4677d0d88c62816040516129399190614488565b60405180910390a18091505090565b806009600082825461295a919061458f565b925050819055508173ffffffffffffffffffffffffffffffffffffffff167fe1fffcc4923d04b559f4d29a8bfc6cda04eb5b0d3c460751c2402c5c5cc9109c826040516129a79190614488565b60405180910390a25050565b6000806007549050600060078190555080600960008282546129d5919061458f565b925050819055507f414d7d8eae12f648156e75499fc0a5a10aa84f2745c6f791b0453cb17f1e17fa81604051612a0b9190614488565b60405180910390a18091505090565b600060019054906101000a900460ff1680612a40575060008054906101000a900460ff16155b612a7f576040517f08c379a0000000000000000000000000000000000000000000000000000000008152600401612a7690614326565b60405180910390fd5b60008060019054906101000a900460ff161590508015612acf576001600060016101000a81548160ff02191690831515021790555060016000806101000a81548160ff0219169083151502179055505b88600060026101000a81548173ffffffffffffffffffffffffffffffffffffffff021916908373ffffffffffffffffffffffffffffffffffffffff16021790555086600460006101000a81548173ffffffffffffffffffffffffffffffffffffffff021916908373ffffffffffffffffffffffffffffffffffffffff160217905550856005819055508460068190555033600c60006101000a81548173ffffffffffffffffffffffffffffffffffffffff021916908373ffffffffffffffffffffffffffffffffffffffff1602179055506000612bab856131f4565b9050600089604051602001612bc09190613fd0565b60405160208183030381529060405290508173ffffffffffffffffffffffffffffffffffffffff1663077f224a8b8c306040518463ffffffff1660e01b8152600401612c0e93929190614201565b602060405180830381600087803b158015612c2857600080fd5b505af1158015612c3c573d6000803e3d6000fd5b505050506040513d601f19601f82011682018060405250810190612c6091906137dc565b612c9f576040517f08c379a0000000000000000000000000000000000000000000000000000000008152600401612c9690614446565b60405180910390fd5b81600160006101000a81548173ffffffffffffffffffffffffffffffffffffffff021916908373ffffffffffffffffffffffffffffffffffffffff1602179055508373ffffffffffffffffffffffffffffffffffffffff1663a574175660405180608001604052808573ffffffffffffffffffffffffffffffffffffffff1681526020018e73ffffffffffffffffffffffffffffffffffffffff168152602001848e604051602001612d52929190613f5c565b6040516020818303038152906040528152602001848e604051602001612d79929190613f96565b6040516020818303038152906040528152506040518263ffffffff1660e01b8152600401612da79190614466565b602060405180830381600087803b158015612dc157600080fd5b505af1158015612dd5573d6000803e3d6000fd5b505050506040513d601f19601f82011682018060405250810190612df99190613963565b600360006101000a81548173ffffffffffffffffffffffffffffffffffffffff021916908373ffffffffffffffffffffffffffffffffffffffff1602179055508473ffffffffffffffffffffffffffffffffffffffff1663d9181cd3600360009054906101000a900473ffffffffffffffffffffffffffffffffffffffff1673ffffffffffffffffffffffffffffffffffffffff16635fcbd2856040518163ffffffff1660e01b815260040160206040518083038186803b158015612ebd57600080fd5b505afa158015612ed1573d6000803e3d6000fd5b505050506040513d601f19601f82011682018060405250810190612ef5919061398c565b84306040518463ffffffff1660e01b8152600401612f1593929190614120565b602060405180830381600087803b158015612f2f57600080fd5b505af1158015612f43573d6000803e3d6000fd5b505050506040513d601f19601f82011682018060405250810190612f67919061393a565b600260006101000a81548173ffffffffffffffffffffffffffffffffffffffff021916908373ffffffffffffffffffffffffffffffffffffffff16021790555050508015612fca5760008060016101000a81548160ff0219169083151502179055505b505050505050505050565b600060095490506000613091600060029054906101000a900473ffffffffffffffffffffffffffffffffffffffff1673ffffffffffffffffffffffffffffffffffffffff166370a08231306040518263ffffffff1660e01b815260040161303c9190613ff2565b60206040518083038186803b15801561305457600080fd5b505afa158015613068573d6000803e3d6000fd5b505050506040513d601f19601f8201168201806040525081019061308c91906139de565b61277e565b9050600060085460075483866130a7919061458f565b6130b19190614670565b6130bb9190614670565b905082811161312257806009819055507f78c13bf6a7fae25f1085d594e546d7a97cb66a55bc9733c7ea78236c452663ec81846130f89190614670565b61310190614900565b8285604051613112939291906141a8565b60405180910390a15050506131f1565b600083826131309190614670565b90506000613140826005546132c9565b90508060076000828254613154919061458f565b925050819055506000613169836006546132c9565b9050806008600082825461317d919061458f565b925050819055508082856131919190614670565b61319b9190614670565b9350836009819055507f78c13bf6a7fae25f1085d594e546d7a97cb66a55bc9733c7ea78236c452663ec86856131d19190614670565b85886040516131e2939291906141a8565b60405180910390a15050505050505b50565b60006040517f3d602d80600a3d3981f3363d3d373d3d3d363d7300000000000000000000000081528260601b60148201527f5af43d82803e903d91602b57fd5bf3000000000000000000000000000000000060288201526037816000f0915050600073ffffffffffffffffffffffffffffffffffffffff168173ffffffffffffffffffffffffffffffffffffffff1614156132c4576040517f08c379a00000000000000000000000000000000000000000000000000000000081526004016132bb906142e6565b60405180910390fd5b919050565b6000683635c9adc5dea0000082846132e19190614616565b6132eb91906145e5565b905092915050565b60008135905061330281614d3b565b92915050565b60008151905061331781614d3b565b92915050565b60008083601f84011261332f57600080fd5b8235905067ffffffffffffffff81111561334857600080fd5b60208301915083602082028301111561336057600080fd5b9250929050565b60008083601f84011261337957600080fd5b8235905067ffffffffffffffff81111561339257600080fd5b6020830191508360208202830111156133aa57600080fd5b9250929050565b60008083601f8401126133c357600080fd5b8235905067ffffffffffffffff8111156133dc57600080fd5b6020830191508360208202830111156133f457600080fd5b9250929050565b60008151905061340a81614d52565b92915050565b60008135905061341f81614d69565b92915050565b60008083601f84011261343757600080fd5b8235905067ffffffffffffffff81111561345057600080fd5b60208301915083600182028301111561346857600080fd5b9250929050565b60008135905061347e81614d80565b92915050565b60008135905061349381614d97565b92915050565b6000813590506134a881614dae565b92915050565b6000815190506134bd81614dae565b92915050565b6000813590506134d281614dc5565b92915050565b6000815190506134e781614ddc565b92915050565b6000813590506134fc81614df3565b92915050565b60008151905061351181614e0a565b92915050565b60008135905061352681614e21565b92915050565b60008083601f84011261353e57600080fd5b8235905067ffffffffffffffff81111561355757600080fd5b60208301915083600182028301111561356f57600080fd5b9250929050565b60008135905061358581614e38565b92915050565b60008151905061359a81614e38565b92915050565b6000813590506135af81614e4f565b92915050565b6000602082840312156135c757600080fd5b60006135d5848285016132f3565b91505092915050565b6000602082840312156135f057600080fd5b60006135fe84828501613308565b91505092915050565b6000806040838503121561361a57600080fd5b6000613628858286016132f3565b925050602061363985828601613576565b9150509250929050565b6000806000806060858703121561365957600080fd5b6000613667878288016132f3565b945050602061367887828801613576565b935050604085013567ffffffffffffffff81111561369557600080fd5b6136a187828801613425565b925092505092959194509250565b60008060008060008060c087890312156136c857600080fd5b60006136d689828a016132f3565b96505060206136e789828a01613576565b95505060406136f889828a01613576565b945050606061370989828a016135a0565b935050608061371a89828a01613410565b92505060a061372b89828a01613410565b9150509295509295509295565b6000806000806000806060878903121561375157600080fd5b600087013567ffffffffffffffff81111561376b57600080fd5b61377789828a0161331d565b9650965050602087013567ffffffffffffffff81111561379657600080fd5b6137a289828a016133b1565b9450945050604087013567ffffffffffffffff8111156137c157600080fd5b6137cd89828a01613367565b92509250509295509295509295565b6000602082840312156137ee57600080fd5b60006137fc848285016133fb565b91505092915050565b60006020828403121561381757600080fd5b600061382584828501613484565b91505092915050565b6000806000806000806000806000806101208b8d03121561384e57600080fd5b600061385c8d828e01613484565b9a505060208b013567ffffffffffffffff81111561387957600080fd5b6138858d828e0161352c565b995099505060406138988d828e0161346f565b97505060606138a98d828e016132f3565b96505060806138ba8d828e01613576565b95505060a06138cb8d828e01613576565b94505060c06138dc8d828e016134ed565b93505060e06138ed8d828e01613517565b9250506101006138ff8d828e016134c3565b9150509295989b9194979a5092959850565b60006020828403121561392357600080fd5b600061393184828501613499565b91505092915050565b60006020828403121561394c57600080fd5b600061395a848285016134ae565b91505092915050565b60006020828403121561397557600080fd5b6000613983848285016134d8565b91505092915050565b60006020828403121561399e57600080fd5b60006139ac84828501613502565b91505092915050565b6000602082840312156139c757600080fd5b60006139d584828501613576565b91505092915050565b6000602082840312156139f057600080fd5b60006139fe8482850161358b565b91505092915050565b600080600080600060a08688031215613a1f57600080fd5b6000613a2d88828901613576565b9550506020613a3e88828901613576565b9450506040613a4f888289016135a0565b9350506060613a6088828901613410565b9250506080613a7188828901613410565b9150509295509295909350565b613a87816146a4565b82525050565b613a96816146c2565b82525050565b6000613aa88385614557565b9350613ab5838584614875565b82840190509392505050565b613aca8161479d565b82525050565b613ad98161479d565b82525050565b613ae8816147c1565b82525050565b613af7816147e5565b82525050565b613b0681614809565b82525050565b613b158161482d565b82525050565b613b2481614851565b82525050565b613b338161475c565b82525050565b6000613b448261454c565b613b4e8185614562565b9350613b5e818560208601614884565b613b67816149a7565b840191505092915050565b6000613b7d8261454c565b613b878185614573565b9350613b97818560208601614884565b613ba0816149a7565b840191505092915050565b6000613bb68261454c565b613bc08185614584565b9350613bd0818560208601614884565b80840191505092915050565b6000613be9601283614573565b9150613bf4826149b8565b602082019050919050565b6000613c0c600b83614584565b9150613c17826149e1565b600b82019050919050565b6000613c2f601983614573565b9150613c3a82614a0a565b602082019050919050565b6000613c52601083614573565b9150613c5d82614a33565b602082019050919050565b6000613c75601283614573565b9150613c8082614a5c565b602082019050919050565b6000613c98601183614573565b9150613ca382614a85565b602082019050919050565b6000613cbb601683614573565b9150613cc682614aae565b602082019050919050565b6000613cde601183614573565b9150613ce982614ad7565b602082019050919050565b6000613d01602e83614573565b9150613d0c82614b00565b604082019050919050565b6000613d24600583614573565b9150613d2f82614b4f565b602082019050919050565b6000613d47600383614573565b9150613d5282614b78565b602082019050919050565b6000613d6a600483614573565b9150613d7582614ba1565b602082019050919050565b6000613d8d600c83614573565b9150613d9882614bca565b602082019050919050565b6000613db0600b83614573565b9150613dbb82614bf3565b602082019050919050565b6000613dd3600583614584565b9150613dde82614c1c565b600582019050919050565b6000613df6601483614573565b9150613e0182614c45565b602082019050919050565b6000613e19600183614584565b9150613e2482614c6e565b600182019050919050565b6000613e3c600183614584565b9150613e4782614c97565b600182019050919050565b6000613e5f600a83614573565b9150613e6a82614cc0565b602082019050919050565b6000613e82600d83614573565b9150613e8d82614ce9565b602082019050919050565b6000613ea5601583614573565b9150613eb082614d12565b602082019050919050565b6000608083016000830151613ed36000860182613ac1565b506020830151613ee66020860182613ac1565b5060408301518482036040860152613efe8282613b39565b91505060608301518482036060860152613f188282613b39565b9150508091505092915050565b613f2e81614786565b82525050565b613f3d81614790565b82525050565b6000613f50828486613a9c565b91508190509392505050565b6000613f688285613bab565b9150613f7382613e2f565b9150613f7f8284613bab565b9150613f8a82613bff565b91508190509392505050565b6000613fa28285613bab565b9150613fad82613e2f565b9150613fb98284613bab565b9150613fc482613dc6565b91508190509392505050565b6000613fdb82613e0c565b9150613fe78284613bab565b915081905092915050565b60006020820190506140076000830184613a7e565b92915050565b60006040820190506140226000830185613a7e565b61402f6020830184613a7e565b9392505050565b600060608201905061404b6000830186613a7e565b6140586020830185613a7e565b6140656040830184613f25565b949350505050565b600060e082019050614082600083018a613a7e565b61408f6020830189613a7e565b61409c6040830188613f25565b6140a96060830187613f25565b6140b66080830186613f34565b6140c360a0830185613a8d565b6140d060c0830184613a8d565b98975050505050505050565b60006040820190506140f16000830185613a7e565b6140fe6020830184613f25565b9392505050565b600060208201905061411a6000830184613ad0565b92915050565b60006060820190506141356000830186613ad0565b6141426020830185613afd565b61414f6040830184613b0c565b949350505050565b600060208201905061416c6000830184613adf565b92915050565b60006020820190506141876000830184613aee565b92915050565b60006020820190506141a26000830184613afd565b92915050565b60006060820190506141bd6000830186613b2a565b6141ca6020830185613f25565b6141d76040830184613f25565b949350505050565b600060208201905081810360008301526141f98184613b72565b905092915050565b6000606082019050818103600083015261421b8186613b72565b9050818103602083015261422f8185613b72565b905061423e6040830184613b1b565b949350505050565b6000602082019050818103600083015261425f81613bdc565b9050919050565b6000602082019050818103600083015261427f81613c22565b9050919050565b6000602082019050818103600083015261429f81613c45565b9050919050565b600060208201905081810360008301526142bf81613c68565b9050919050565b600060208201905081810360008301526142df81613c8b565b9050919050565b600060208201905081810360008301526142ff81613cae565b9050919050565b6000602082019050818103600083015261431f81613cd1565b9050919050565b6000602082019050818103600083015261433f81613cf4565b9050919050565b6000602082019050818103600083015261435f81613d17565b9050919050565b6000602082019050818103600083015261437f81613d3a565b9050919050565b6000602082019050818103600083015261439f81613d5d565b9050919050565b600060208201905081810360008301526143bf81613d80565b9050919050565b600060208201905081810360008301526143df81613da3565b9050919050565b600060208201905081810360008301526143ff81613de9565b9050919050565b6000602082019050818103600083015261441f81613e52565b9050919050565b6000602082019050818103600083015261443f81613e75565b9050919050565b6000602082019050818103600083015261445f81613e98565b9050919050565b600060208201905081810360008301526144808184613ebb565b905092915050565b600060208201905061449d6000830184613f25565b92915050565b60006040820190506144b86000830185613f25565b6144c56020830184613a7e565b9392505050565b60006040820190506144e16000830185613f25565b6144ee6020830184613f25565b9392505050565b6000808335600160200384360303811261450e57600080fd5b80840192508235915067ffffffffffffffff82111561452c57600080fd5b60208301925060018202360383131561454457600080fd5b509250929050565b600081519050919050565b600081905092915050565b600082825260208201905092915050565b600082825260208201905092915050565b600081905092915050565b600061459a82614786565b91506145a583614786565b9250827fffffffffffffffffffffffffffffffffffffffffffffffffffffffffffffffff038211156145da576145d9614949565b5b828201905092915050565b60006145f082614786565b91506145fb83614786565b92508261460b5761460a614978565b5b828204905092915050565b600061462182614786565b915061462c83614786565b9250817fffffffffffffffffffffffffffffffffffffffffffffffffffffffffffffffff048311821515161561466557614664614949565b5b828202905092915050565b600061467b82614786565b915061468683614786565b92508282101561469957614698614949565b5b828203905092915050565b60006146af82614766565b9050919050565b60008115159050919050565b6000819050919050565b60006146d7826146a4565b9050919050565b60006146e9826146a4565b9050919050565b60006146fb826146a4565b9050919050565b600061470d826146a4565b9050919050565b600061471f826146a4565b9050919050565b6000614731826146a4565b9050919050565b6000614743826146a4565b9050919050565b6000614755826146a4565b9050919050565b6000819050919050565b600073ffffffffffffffffffffffffffffffffffffffff82169050919050565b6000819050919050565b600060ff82169050919050565b60006147a8826147af565b9050919050565b60006147ba82614766565b9050919050565b60006147cc826147d3565b9050919050565b60006147de82614766565b9050919050565b60006147f0826147f7565b9050919050565b600061480282614766565b9050919050565b60006148148261481b565b9050919050565b600061482682614766565b9050919050565b60006148388261483f565b9050919050565b600061484a82614766565b9050919050565b600061485c82614863565b9050919050565b600061486e82614766565b9050919050565b82818337600083830152505050565b60005b838110156148a2578082015181840152602081019050614887565b838111156148b1576000848401525b50505050565b60006148c282614786565b91507fffffffffffffffffffffffffffffffffffffffffffffffffffffffffffffffff8214156148f5576148f4614949565b5b600182019050919050565b600061490b8261475c565b91507f800000000000000000000000000000000000000000000000000000000000000082141561493e5761493d614949565b5b816000039050919050565b7f4e487b7100000000000000000000000000000000000000000000000000000000600052601160045260246000fd5b7f4e487b7100000000000000000000000000000000000000000000000000000000600052601260045260246000fd5b6000601f19601f8301169050919050565b7f54454e4445525f4255524e5f4641494c45440000000000000000000000000000600082015250565b7f205377617020546f6b656e000000000000000000000000000000000000000000600082015250565b7f535445414b5f5452414e5346455246524f4d5f4641494c454400000000000000600082015250565b7f5354414b494e475f434f4e545241435400000000000000000000000000000000600082015250565b7f54454e4445525f4d494e545f4641494c45440000000000000000000000000000600082015250565b7f4143434f554e545f4d4953544d41544348000000000000000000000000000000600082015250565b7f455243313136373a20637265617465206661696c656400000000000000000000600082015250565b7f494e56414c49445f415247554d454e5453000000000000000000000000000000600082015250565b7f496e697469616c697a61626c653a20636f6e747261637420697320616c72656160008201527f647920696e697469616c697a6564000000000000000000000000000000000000602082015250565b7f535445414b000000000000000000000000000000000000000000000000000000600082015250565b7f474f560000000000000000000000000000000000000000000000000000000000600082015250565b7f4e4f444500000000000000000000000000000000000000000000000000000000600082015250565b7f50524f544f434f4c5f4645450000000000000000000000000000000000000000600082015250565b7f5a45524f5f414d4f554e54000000000000000000000000000000000000000000600082015250565b7f2d53574150000000000000000000000000000000000000000000000000000000600082015250565b7f474f565f57495448445241575f50454e44494e47000000000000000000000000600082015250565b7f7400000000000000000000000000000000000000000000000000000000000000600082015250565b7f2d00000000000000000000000000000000000000000000000000000000000000600082015250565b7f54454e4445524641524d00000000000000000000000000000000000000000000600082015250565b7f4c49515549444954595f46454500000000000000000000000000000000000000600082015250565b7f4641494c5f494e49545f54454e444552544f4b454e0000000000000000000000600082015250565b614d44816146a4565b8114614d4f57600080fd5b50565b614d5b816146b6565b8114614d6657600080fd5b50565b614d72816146c2565b8114614d7d57600080fd5b50565b614d89816146cc565b8114614d9457600080fd5b50565b614da0816146de565b8114614dab57600080fd5b50565b614db7816146f0565b8114614dc257600080fd5b50565b614dce81614702565b8114614dd957600080fd5b50565b614de581614714565b8114614df057600080fd5b50565b614dfc81614726565b8114614e0757600080fd5b50565b614e1381614738565b8114614e1e57600080fd5b50565b614e2a8161474a565b8114614e3557600080fd5b50565b614e4181614786565b8114614e4c57600080fd5b50565b614e5881614790565b8114614e6357600080fd5b5056fea26469706673582212207549c9758100fb0c42cf12a962b25f6fcbca90e6e0d48f39d7347804bfa64c6664736f6c63430008040033",
  "devdoc": {
    "kind": "dev",
    "methods": {
      "batchExecute(address[],uint256[],bytes[])": {
        "details": "Every target to its value, data via it's corresponding index.only callable by owner(gov).",
        "params": {
          "_datas": "array of call datas - check ethers.interface.encodeFunctionData()",
          "_targets": "array of target addresses for the contract call",
          "_values": "array of ether values to be transeffered with the transactions"
        }
      },
      "calcDepositOut(uint256)": {
        "details": "used by controller to calculate tokens to be minted before depositing.to be used when there a delegation tax is deducted, for eg. in Graph.",
        "returns": {
          "_0": "number of tokens staked for `amountIn`."
        }
      },
      "collectFees()": {
        "details": "Resets pendingFees.Fees claimed are added to total staked.",
        "returns": {
          "_0": "Amount of protocol fees collected"
        }
      },
      "collectLiquidityFees()": {
        "details": "Resets pendingFees.Fees claimed are added to total staked.",
        "returns": {
          "amount": "Amount of liquidity fees collected"
        }
      },
      "deposit(uint256)": {
        "details": "doesn't actually stakes the tokens but aggregates the balance in the tenderizer awaiting to be staked.requires '_amount' to be approved by '_from'.",
        "params": {
          "_amount": "amount deposited"
        }
      },
      "depositWithPermit(uint256,uint256,uint8,bytes32,bytes32)": {
        "details": "doesn't actually stakes the tokens but aggregates the balance in the tenderizer awaiting to be staked.requires '_amount' to be approved by '_from'.",
        "params": {
          "_amount": "amount deposited",
          "_deadline": "deadline for the permit",
          "_r": "from ECDSA signature",
          "_s": "from ECDSA signature",
          "_v": "from ECDSA signature"
        }
      },
      "execute(address,uint256,bytes)": {
        "details": "only callable by owner(gov).",
        "params": {
          "_data": "call data - check ethers.interface.encodeFunctionData()",
          "_target": "target address for the contract call",
          "_value": "ether value to be transeffered with the transaction"
        }
      },
      "selfPermit(address,uint256,uint256,uint8,bytes32,bytes32)": {
        "details": "The `owner` is always msg.sender and the `spender` is always address(this).",
        "params": {
          "_deadline": "A timestamp, the current blocktime must be less than or equal to this timestamp",
          "_r": "Must produce valid secp256k1 signature from the holder along with `v` and `s`",
          "_s": "Must produce valid secp256k1 signature from the holder along with `r` and `v`",
          "_token": "The address of the token spent",
          "_v": "Must produce valid secp256k1 signature from the holder along with `r` and `s`",
          "_value": "The amount that can be spent of token"
        }
      },
      "selfPermitIfNecessary(address,uint256,uint256,uint8,bytes32,bytes32)": {
        "details": "The `owner` is always msg.sender and the `spender` is always address(this). Can be used instead of #selfPermit to prevent calls from failing due to a frontrun of a call to #selfPermit",
        "params": {
          "_deadline": "A timestamp, the current blocktime must be less than or equal to this timestamp",
          "_r": "Must produce valid secp256k1 signature from the holder along with `v` and `s`",
          "_s": "Must produce valid secp256k1 signature from the holder along with `r` and `v`",
          "_token": "The address of the token spent",
          "_v": "Must produce valid secp256k1 signature from the holder along with `r` and `s`",
          "_value": "The amount that can be spent of token"
        }
      },
      "stake(address,uint256)": {
        "details": "If '_node' is not specified, stake towards the default address.If '_amount' is 0, stake the entire current token balance of the Tenderizer.Only callable by Gov.",
        "params": {
          "_amount": "amount to stake",
          "_node": "account to stake to in the underlying protocol"
        }
      },
      "totalStakedTokens()": {
        "returns": {
          "_0": "total amount staked by this Tenderizer"
        }
      },
      "unstake(uint256)": {
        "details": "unstake from the default address.If '_amount' is 0, unstake the entire amount staked towards _account.",
        "params": {
          "_amount": "amount to unstake"
        },
        "returns": {
          "_0": "unstake lockID generated for unstake"
        }
      },
      "withdraw(uint256)": {
        "details": "If '_amount' isn't specified all unstake tokens by '_account' will be withdrawn.Requires '_account' to have unstaked prior to calling withdraw.",
        "params": {
          "_unstakeLockID": "ID for the lock to request the withdraw for"
        }
      }
    },
    "version": 1
  },
  "userdoc": {
    "events": {
      "Deposit(address,uint256)": {
        "notice": "Deposit gets emitted when an accounts deposits underlying tokens."
      },
      "GovernanceUpdate(string)": {
        "notice": "GovernanceUpdate gets emitted when a parameter on the Tenderizer gets updated."
      },
      "LiquidityFeeCollected(uint256)": {
        "notice": "LiquidityFeeCollected gets emitted when liquidity provider fees are moved to the TenderFarm."
      },
      "ProtocolFeeCollected(uint256)": {
        "notice": "ProtocolFeeCollected gets emitted when the treasury claims its outstanding protocol fees."
      },
      "RewardsClaimed(int256,uint256,uint256)": {
        "notice": "RewardsClaimed gets emitted when the Tenderizer processes staking rewards (or slashing) from the underlying protocol."
      },
      "Stake(address,uint256)": {
        "notice": "Stake gets emitted when funds are staked/delegated from the Tenderizer contract into the underlying protocol."
      },
      "Unstake(address,address,uint256,uint256)": {
        "notice": "Unstake gets emitted when an account burns TenderTokens to unlock tokens staked through the Tenderizer"
      },
      "Withdraw(address,uint256,uint256)": {
        "notice": "Withdraw gets emitted when an account withdraws tokens that have been succesfully unstaked and thus unlocked for withdrawal."
      }
    },
    "kind": "user",
    "methods": {
      "batchExecute(address[],uint256[],bytes[])": {
        "notice": "Exectutes a batch of transaction on behalf of the controller."
      },
      "calcDepositOut(uint256)": {
        "notice": "Returns the number of tenderTokens to be minted for amountIn deposit."
      },
      "claimRewards()": {
        "notice": "Compound all the rewards and new deposits. Claim staking rewards and earned fees for the underlying protocol and stake any leftover token balance. Process Tender protocol fees if revenue is positive."
      },
      "collectFees()": {
        "notice": "Collect fees pulls any pending governance fees from the Tenderizer to the governance treasury."
      },
      "collectLiquidityFees()": {
        "notice": "Collect Liquidity fees pulls any pending LP fees from the Tenderizer to TenderFarm."
      },
      "deposit(uint256)": {
        "notice": "Deposit tokens in Tenderizer."
      },
      "depositWithPermit(uint256,uint256,uint8,bytes32,bytes32)": {
        "notice": "Deposit tokens in Tenderizer with permit."
      },
      "execute(address,uint256,bytes)": {
        "notice": "Exectutes a transaction on behalf of the controller."
      },
      "pendingFees()": {
        "notice": "Returns the amount of pending protocool fees since last claiming.."
      },
      "pendingLiquidityFees()": {
        "notice": "Returns the amount of pending liquidity provider fees since last claiming."
      },
      "selfPermit(address,uint256,uint256,uint8,bytes32,bytes32)": {
        "notice": "Permits this contract to spend a given token from `msg.sender`"
      },
      "selfPermitIfNecessary(address,uint256,uint256,uint8,bytes32,bytes32)": {
        "notice": "Permits this contract to spend a given token from `msg.sender`"
      },
      "stake(address,uint256)": {
        "notice": "Stake '_amount' of tokens to '_node'."
      },
      "totalStakedTokens()": {
        "notice": "Total Staked Tokens returns the total amount of underlying tokens staked by this Tenderizer."
      },
      "unstake(uint256)": {
        "notice": "Unstake '_amount' of tokens from '_account'."
      },
      "withdraw(uint256)": {
        "notice": "Withdraw '_amount' of tokens previously unstaked by '_account'."
      }
    },
    "version": 1
  },
  "storageLayout": {
    "storage": [
      {
        "astId": 1944,
        "contract": "contracts/tenderizer/integrations/audius/Audius.sol:Audius",
        "label": "_initialized",
        "offset": 0,
        "slot": "0",
        "type": "t_bool"
      },
      {
        "astId": 1947,
        "contract": "contracts/tenderizer/integrations/audius/Audius.sol:Audius",
        "label": "_initializing",
        "offset": 1,
        "slot": "0",
        "type": "t_bool"
      },
      {
        "astId": 4044,
        "contract": "contracts/tenderizer/integrations/audius/Audius.sol:Audius",
        "label": "steak",
        "offset": 2,
        "slot": "0",
        "type": "t_contract(IERC20)2062"
      },
      {
        "astId": 4047,
        "contract": "contracts/tenderizer/integrations/audius/Audius.sol:Audius",
        "label": "tenderToken",
        "offset": 0,
        "slot": "1",
        "type": "t_contract(ITenderToken)12670"
      },
      {
        "astId": 4050,
        "contract": "contracts/tenderizer/integrations/audius/Audius.sol:Audius",
        "label": "tenderFarm",
        "offset": 0,
        "slot": "2",
        "type": "t_contract(ITenderFarm)3244"
      },
      {
        "astId": 4053,
        "contract": "contracts/tenderizer/integrations/audius/Audius.sol:Audius",
        "label": "tenderSwap",
        "offset": 0,
        "slot": "3",
        "type": "t_contract(ITenderSwap)7311"
      },
      {
        "astId": 4055,
        "contract": "contracts/tenderizer/integrations/audius/Audius.sol:Audius",
        "label": "node",
        "offset": 0,
        "slot": "4",
        "type": "t_address"
      },
      {
        "astId": 4057,
        "contract": "contracts/tenderizer/integrations/audius/Audius.sol:Audius",
        "label": "protocolFee",
        "offset": 0,
        "slot": "5",
        "type": "t_uint256"
      },
      {
        "astId": 4059,
        "contract": "contracts/tenderizer/integrations/audius/Audius.sol:Audius",
        "label": "liquidityFee",
        "offset": 0,
        "slot": "6",
        "type": "t_uint256"
      },
      {
        "astId": 4062,
        "contract": "contracts/tenderizer/integrations/audius/Audius.sol:Audius",
        "label": "pendingFees",
        "offset": 0,
        "slot": "7",
        "type": "t_uint256"
      },
      {
        "astId": 4065,
        "contract": "contracts/tenderizer/integrations/audius/Audius.sol:Audius",
        "label": "pendingLiquidityFees",
        "offset": 0,
        "slot": "8",
        "type": "t_uint256"
      },
      {
        "astId": 4067,
        "contract": "contracts/tenderizer/integrations/audius/Audius.sol:Audius",
        "label": "currentPrincipal",
        "offset": 0,
        "slot": "9",
        "type": "t_uint256"
      },
      {
        "astId": 4072,
        "contract": "contracts/tenderizer/integrations/audius/Audius.sol:Audius",
        "label": "unstakeLocks",
        "offset": 0,
        "slot": "10",
        "type": "t_mapping(t_uint256,t_struct(UnstakeLock)4041_storage)"
      },
      {
        "astId": 4074,
        "contract": "contracts/tenderizer/integrations/audius/Audius.sol:Audius",
        "label": "nextUnstakeLockID",
        "offset": 0,
        "slot": "11",
        "type": "t_uint256"
      },
      {
        "astId": 4076,
        "contract": "contracts/tenderizer/integrations/audius/Audius.sol:Audius",
        "label": "gov",
        "offset": 0,
        "slot": "12",
        "type": "t_address"
      },
      {
        "astId": 4947,
        "contract": "contracts/tenderizer/integrations/audius/Audius.sol:Audius",
        "label": "audius",
        "offset": 0,
        "slot": "13",
        "type": "t_contract(IAudius)5347"
      },
      {
        "astId": 4949,
        "contract": "contracts/tenderizer/integrations/audius/Audius.sol:Audius",
        "label": "audiusStaking",
        "offset": 0,
        "slot": "14",
        "type": "t_address"
      },
      {
        "astId": 4951,
        "contract": "contracts/tenderizer/integrations/audius/Audius.sol:Audius",
        "label": "governancePendingUnstakeLockID",
        "offset": 0,
        "slot": "15",
        "type": "t_uint256"
      },
      {
        "astId": 4953,
        "contract": "contracts/tenderizer/integrations/audius/Audius.sol:Audius",
        "label": "governanceLastProcessedUnstakeLockID",
        "offset": 0,
        "slot": "16",
        "type": "t_uint256"
      },
      {
        "astId": 4955,
        "contract": "contracts/tenderizer/integrations/audius/Audius.sol:Audius",
        "label": "pendingUnstakes",
        "offset": 0,
        "slot": "17",
        "type": "t_uint256"
      }
    ],
    "types": {
      "t_address": {
        "encoding": "inplace",
        "label": "address",
        "numberOfBytes": "20"
      },
      "t_bool": {
        "encoding": "inplace",
        "label": "bool",
        "numberOfBytes": "1"
      },
      "t_contract(IAudius)5347": {
        "encoding": "inplace",
        "label": "contract IAudius",
        "numberOfBytes": "20"
      },
      "t_contract(IERC20)2062": {
        "encoding": "inplace",
        "label": "contract IERC20",
        "numberOfBytes": "20"
      },
      "t_contract(ITenderFarm)3244": {
        "encoding": "inplace",
        "label": "contract ITenderFarm",
        "numberOfBytes": "20"
      },
      "t_contract(ITenderSwap)7311": {
        "encoding": "inplace",
        "label": "contract ITenderSwap",
        "numberOfBytes": "20"
      },
      "t_contract(ITenderToken)12670": {
        "encoding": "inplace",
        "label": "contract ITenderToken",
        "numberOfBytes": "20"
      },
      "t_mapping(t_uint256,t_struct(UnstakeLock)4041_storage)": {
        "encoding": "mapping",
        "key": "t_uint256",
        "label": "mapping(uint256 => struct Tenderizer.UnstakeLock)",
        "numberOfBytes": "32",
        "value": "t_struct(UnstakeLock)4041_storage"
      },
      "t_struct(UnstakeLock)4041_storage": {
        "encoding": "inplace",
        "label": "struct Tenderizer.UnstakeLock",
        "members": [
          {
            "astId": 4038,
            "contract": "contracts/tenderizer/integrations/audius/Audius.sol:Audius",
            "label": "amount",
            "offset": 0,
            "slot": "0",
            "type": "t_uint256"
          },
          {
            "astId": 4040,
            "contract": "contracts/tenderizer/integrations/audius/Audius.sol:Audius",
            "label": "account",
            "offset": 0,
            "slot": "1",
            "type": "t_address"
          }
        ],
        "numberOfBytes": "64"
      },
      "t_uint256": {
        "encoding": "inplace",
        "label": "uint256",
        "numberOfBytes": "32"
      }
    }
  }
}