{
  "address": "0x70C1d137CF46296e206533fb737E6a4a67d7Fa7a",
  "abi": [
    {
      "inputs": [],
      "payable": false,
      "stateMutability": "nonpayable",
      "type": "constructor"
    },
    {
      "anonymous": false,
      "inputs": [
        {
          "indexed": true,
          "internalType": "address",
          "name": "caller",
          "type": "address"
        },
        {
          "indexed": true,
          "internalType": "address",
          "name": "blabs",
          "type": "address"
        }
      ],
      "name": "LOG_BLABS",
      "type": "event"
    },
    {
      "anonymous": false,
      "inputs": [
        {
          "indexed": true,
          "internalType": "address",
          "name": "caller",
          "type": "address"
        },
        {
          "indexed": true,
          "internalType": "address",
          "name": "pool",
          "type": "address"
        }
      ],
      "name": "LOG_NEW_POOL",
      "type": "event"
    },
    {
      "constant": false,
      "inputs": [
        {
          "internalType": "contract BPool",
          "name": "pool",
          "type": "address"
        }
      ],
      "name": "collect",
      "outputs": [],
      "payable": false,
      "stateMutability": "nonpayable",
      "type": "function"
    },
    {
      "constant": true,
      "inputs": [],
      "name": "getBLabs",
      "outputs": [
        {
          "internalType": "address",
          "name": "",
          "type": "address"
        }
      ],
      "payable": false,
      "stateMutability": "view",
      "type": "function"
    },
    {
      "constant": true,
      "inputs": [],
      "name": "getColor",
      "outputs": [
        {
          "internalType": "bytes32",
          "name": "",
          "type": "bytes32"
        }
      ],
      "payable": false,
      "stateMutability": "view",
      "type": "function"
    },
    {
      "constant": true,
      "inputs": [
        {
          "internalType": "address",
          "name": "b",
          "type": "address"
        }
      ],
      "name": "isBPool",
      "outputs": [
        {
          "internalType": "bool",
          "name": "",
          "type": "bool"
        }
      ],
      "payable": false,
      "stateMutability": "view",
      "type": "function"
    },
    {
      "constant": false,
      "inputs": [],
      "name": "newBPool",
      "outputs": [
        {
          "internalType": "contract BPool",
          "name": "",
          "type": "address"
        }
      ],
      "payable": false,
      "stateMutability": "nonpayable",
      "type": "function"
    },
    {
      "constant": false,
      "inputs": [
        {
          "internalType": "address",
          "name": "b",
          "type": "address"
        }
      ],
      "name": "setBLabs",
      "outputs": [],
      "payable": false,
      "stateMutability": "nonpayable",
      "type": "function"
    }
  ],
  "transactionHash": "0xf61b41e8417bf74ec9d133d9c44bd21bb5f0c23e98e1e265db924a94605356fc",
  "args": [],
  "solcInputHash": "0c02080c3cca68201f1eef2c7bc4fb2d",
  "bytecode": "0x608060405234801561001057600080fd5b50600180546001600160a01b03191633179055615bdf806100326000396000f3fe608060405234801561001057600080fd5b50600436106100625760003560e01c806306ec16f81461006757806336ffb1671461008f5780639a86139b146100b3578063c2bb6dc2146100cd578063c6ce34fb14610107578063d556c5dc1461012d575b600080fd5b61008d6004803603602081101561007d57600080fd5b50356001600160a01b0316610135565b005b6100976102cd565b604080516001600160a01b039092168252519081900360200190f35b6100bb6102dc565b60408051918252519081900360200190f35b6100f3600480360360208110156100e357600080fd5b50356001600160a01b03166102e9565b604080519115158252519081900360200190f35b61008d6004803603602081101561011d57600080fd5b50356001600160a01b0316610307565b6100976103ae565b6001546001600160a01b03163314610184576040805162461bcd60e51b815260206004820152600d60248201526c4552525f4e4f545f424c41425360981b604482015290519081900360640190fd5b604080516370a0823160e01b815230600482015290516000916001600160a01b038416916370a0823191602480820192602092909190829003018186803b1580156101ce57600080fd5b505afa1580156101e2573d6000803e3d6000fd5b505050506040513d60208110156101f857600080fd5b50516001546040805163a9059cbb60e01b81526001600160a01b0392831660048201526024810184905290519293506000929185169163a9059cbb9160448082019260209290919082900301818787803b15801561025557600080fd5b505af1158015610269573d6000803e3d6000fd5b505050506040513d602081101561027f57600080fd5b50519050806102c8576040805162461bcd60e51b815260206004820152601060248201526f11549497d15490cc8c17d1905253115160821b604482015290519081900360640190fd5b505050565b6001546001600160a01b031690565b6542524f4e5a4560d01b90565b6001600160a01b031660009081526020819052604090205460ff1690565b6001546001600160a01b03163314610356576040805162461bcd60e51b815260206004820152600d60248201526c4552525f4e4f545f424c41425360981b604482015290519081900360640190fd5b6040516001600160a01b0382169033907ff586fa6ee1fc42f5b727f3b214ccbd0b6d7e698c45d49ba32f224fbb8670155d90600090a3600180546001600160a01b0319166001600160a01b0392909216919091179055565b6000806040516103bd9061048e565b604051809103906000f0801580156103d9573d6000803e3d6000fd5b506001600160a01b038116600081815260208190526040808220805460ff1916600117905551929350909133917f8ccec77b0cb63ac2cafd0f5de8cdfadab91ce656d262240ba8a6343bccc5f94591a3604080516392eefe9b60e01b815233600482015290516001600160a01b038316916392eefe9b91602480830192600092919082900301818387803b15801561047057600080fd5b505af1158015610484573d6000803e3d6000fd5b5092935050505090565b61570f8061049c8339019056fe60c0604052601360808190527f42616c616e63657220506f6f6c20546f6b656e0000000000000000000000000060a0908152620000409160039190620000f4565b506040805180820190915260038082527f425054000000000000000000000000000000000000000000000000000000000060209092019182526200008791600491620000f4565b506005805460ff19166012179055348015620000a257600080fd5b50600680546005805462010000600160b01b031916336201000081029190911790915564e8d4a510006007556001600160a01b03199091161760ff60a01b191690556008805460ff1916905562000199565b828054600181600116156101000203166002900490600052602060002090601f016020900481019282601f106200013757805160ff191683800117855562000167565b8280016001018555821562000167579182015b82811115620001675782518255916020019190600101906200014a565b506200017592915062000179565b5090565b6200019691905b8082111562000175576000815560010162000180565b90565b61556680620001a96000396000f3fe608060405234801561001057600080fd5b50600436106103db5760003560e01c80638d4e40831161020a578063bc694ea211610125578063d73dd623116100b8578063ec09302111610087578063ec09302114610c6e578063f1b8a9b714610c76578063f8b2cb4f14610c9c578063f8d6aed414610cc2578063fde924f714610cfd576103db565b8063d73dd62314610be2578063dd62ed3e14610c0e578063e4a28a52146104e1578063e4e1e53814610c3c576103db565b8063cc77828d116100f4578063cc77828d14610ba4578063cd2ed8fb14610bac578063cf5e7bd314610bb4578063d4cadf6814610bda576103db565b8063bc694ea214610b3c578063be3bbd2e14610b44578063c36596a614610555578063c6580d1214610b9c576103db565b8063a221ee491161019d578063b7b800a41161016c578063b7b800a414610ae9578063ba019dab14610af1578063ba9530a614610af9578063bc063e1a14610b34576103db565b8063a221ee4914610a09578063a9059cbb14610a3e578063b02f0b7314610a6a578063b0e0d13614610ae1576103db565b8063948d8ce6116101d9578063948d8ce6146109cb57806395d89b41146109f1578063992e2a92146109f95780639a86139b14610a01576103db565b80638d4e40831461098d57806392eefe9b14610995578063936c3477146109bb5780639381cd2b146109c3576103db565b806349b59552116102fa57806376c7a3c71161028d5780638656b6531161025c5780638656b653146108e9578063867378c514610924578063892980121461092c5780638c28cbe814610967576103db565b806376c7a3c71461080d5780637c5e9ea4146108155780638201aa3f1461086e57806382f652ad146108ae576103db565b80635db34277116102c95780635db342771461075757806366188463146107895780636d06dfa0146107b557806370a08231146107e7576103db565b806349b595521461067e5780634bb278f31461069d5780634f69c0d4146106a55780635c1bbaf71461071c576103db565b8063218b538211610372578063313ce56711610341578063313ce567146105dd57806334e19907146105fb5780633fdddaa21461061a57806346ab38f11461064c576103db565b8063218b53821461055557806323b872dd1461055d5780632f37b624146105935780633018205f146105b9576103db565b80631446a7ff116103ae5780631446a7ff146104e957806315e84af91461051757806318160ddd14610545578063189d00ca1461054d576103db565b806302c96748146103e057806306fdde0314610424578063095ea7b3146104a157806309a3bbe4146104e1575b600080fd5b610412600480360360608110156103f657600080fd5b506001600160a01b038135169060208101359060400135610d05565b60408051918252519081900360200190f35b61042c611065565b6040805160208082528351818301528351919283929083019185019080838360005b8381101561046657818101518382015260200161044e565b50505050905090810190601f1680156104935780820380516001836020036101000a031916815260200191505b509250505060405180910390f35b6104cd600480360360408110156104b757600080fd5b506001600160a01b0381351690602001356110fb565b604080519115158252519081900360200190f35b610412611150565b610412600480360360408110156104ff57600080fd5b506001600160a01b038135811691602001351661115d565b6104126004803603604081101561052d57600080fd5b506001600160a01b03813581169160200135166112b2565b6104126113fe565b610412611404565b610412611418565b6104cd6004803603606081101561057357600080fd5b506001600160a01b03813581169160208101359091169060400135611424565b6104cd600480360360208110156105a957600080fd5b50356001600160a01b031661157e565b6105c161159c565b604080516001600160a01b039092168252519081900360200190f35b6105e56115fa565b6040805160ff9092168252519081900360200190f35b6106186004803603602081101561061157600080fd5b5035611603565b005b6106186004803603606081101561063057600080fd5b506001600160a01b038135169060208101359060400135611800565b6104126004803603606081101561066257600080fd5b506001600160a01b038135169060208101359060400135611c0d565b6106186004803603602081101561069457600080fd5b50351515611f0c565b61061861208f565b610618600480360360408110156106bb57600080fd5b813591908101906040810160208201356401000000008111156106dd57600080fd5b8201836020820111156106ef57600080fd5b8035906020019184602083028401116401000000008311171561071157600080fd5b509092509050612286565b610412600480360360c081101561073257600080fd5b5080359060208101359060408101359060608101359060808101359060a0013561257f565b6104126004803603606081101561076d57600080fd5b506001600160a01b038135169060208101359060400135612637565b6104cd6004803603604081101561079f57600080fd5b506001600160a01b03813516906020013561291a565b610412600480360360608110156107cb57600080fd5b506001600160a01b0381351690602081013590604001356129f2565b610412600480360360208110156107fd57600080fd5b50356001600160a01b0316612d03565b610412612d1e565b610855600480360360a081101561082b57600080fd5b506001600160a01b0381358116916020810135916040820135169060608101359060800135612d30565b6040805192835260208301919091528051918290030190f35b610855600480360360a081101561088457600080fd5b506001600160a01b03813581169160208101359160408201351690606081013590608001356131f3565b610412600480360360c08110156108c457600080fd5b5080359060208101359060408101359060608101359060808101359060a0013561369d565b610412600480360360c08110156108ff57600080fd5b5080359060208101359060408101359060608101359060808101359060a0013561375c565b6104126137fd565b610412600480360360c081101561094257600080fd5b5080359060208101359060408101359060608101359060808101359060a00135613811565b6106186004803603602081101561097d57600080fd5b50356001600160a01b03166138c1565b6104cd613a75565b610618600480360360208110156109ab57600080fd5b50356001600160a01b0316613a7e565b610412613bbc565b610412613c11565b610412600480360360208110156109e157600080fd5b50356001600160a01b0316613c1e565b61042c613ce8565b610412613d49565b610412613d55565b610412600480360360a0811015610a1f57600080fd5b5080359060208101359060408101359060608101359060800135613d62565b6104cd60048036036040811015610a5457600080fd5b506001600160a01b038135169060200135613dc7565b61061860048036036040811015610a8057600080fd5b81359190810190604081016020820135640100000000811115610aa257600080fd5b820183602082011115610ab457600080fd5b80359060200191846020830284011164010000000083111715610ad657600080fd5b509092509050613ddd565b610412614124565b610412614129565b61041261412e565b610412600480360360c0811015610b0f57600080fd5b5080359060208101359060408101359060608101359060808101359060a00135614133565b6104126141b4565b6104126141c4565b610b4c6141d0565b60408051602080825283518183015283519192839290830191858101910280838360005b83811015610b88578181015183820152602001610b70565b505050509050019250505060405180910390f35b6104126142c8565b610b4c6142cd565b61041261431b565b61061860048036036020811015610bca57600080fd5b50356001600160a01b0316614321565b6104126146a3565b6104cd60048036036040811015610bf857600080fd5b506001600160a01b0381351690602001356146f8565b61041260048036036040811015610c2457600080fd5b506001600160a01b0381358116916020013516614779565b61061860048036036060811015610c5257600080fd5b506001600160a01b0381351690602081013590604001356147a4565b6104126149fb565b61041260048036036020811015610c8c57600080fd5b50356001600160a01b0316614a0b565b61041260048036036020811015610cb257600080fd5b50356001600160a01b0316614ae7565b610412600480360360c0811015610cd857600080fd5b5080359060208101359060408101359060608101359060808101359060a00135614bb1565b6104cd614c34565b6000336001600160a01b03166000356001600160e01b0319166001600160e01b03191660003660405180806020018281038252848482818152602001925080828437600083820152604051601f909101601f19169092018290039550909350505050a2600554610100900460ff1615610db3576040805162461bcd60e51b815260206004820152600b60248201526a4552525f5245454e54525960a81b604482015290519081900360640190fd5b6005805461ff00191661010017905560085460ff16610e0d576040805162461bcd60e51b815260206004820152601160248201527011549497d393d517d19253905312569151607a1b604482015290519081900360640190fd5b6001600160a01b0384166000908152600a602052604090205460ff16610e6a576040805162461bcd60e51b815260206004820152600d60248201526c11549497d393d517d093d55391609a1b604482015290519081900360640190fd5b6001600160a01b0384166000908152600a60205260409020600390810154610e9f91670de0b6b3a76400005b04600101614c44565b831115610ee7576040805162461bcd60e51b81526020600482015260116024820152704552525f4d41585f4f55545f524154494f60781b604482015290519081900360640190fd5b6001600160a01b0384166000908152600a6020526040902060038101546002808301549054600b54600754610f219493929190899061369d565b915081610f67576040805162461bcd60e51b815260206004820152600f60248201526e08aa4a4be9a82a890be82a0a0a49eb608b1b604482015290519081900360640190fd5b82821115610fab576040805162461bcd60e51b815260206004820152600c60248201526b22a9292fa624a6a4aa2fa4a760a11b604482015290519081900360640190fd5b610fb9816003015485614d0d565b60038201556000610fca8382614c44565b6040805187815290519192506001600160a01b0388169133917fe74c91552b64c2e2e7bd255639e004e693bd3e1d01cc33e65610b86afcc1ffed919081900360200190a36110183384614d6f565b61102a6110258483614d0d565b614d7d565b600554611046906201000090046001600160a01b031682614d89565b611051863387614d93565b50506005805461ff00191690559392505050565b60038054604080516020601f60026000196101006001881615020190951694909404938401819004810282018101909252828152606093909290918301828280156110f15780601f106110c6576101008083540402835291602001916110f1565b820191906000526020600020905b8154815290600101906020018083116110d457829003601f168201915b5050505050905090565b3360008181526001602090815260408083206001600160a01b03871680855290835281842086905581518681529151939490939092600080516020615512833981519152928290030190a35060015b92915050565b6802b5e3af16b188000081565b600554600090610100900460ff16156111ab576040805162461bcd60e51b815260206004820152600b60248201526a4552525f5245454e54525960a81b604482015290519081900360640190fd5b6001600160a01b0383166000908152600a602052604090205460ff16611208576040805162461bcd60e51b815260206004820152600d60248201526c11549497d393d517d093d55391609a1b604482015290519081900360640190fd5b6001600160a01b0382166000908152600a602052604090205460ff16611265576040805162461bcd60e51b815260206004820152600d60248201526c11549497d393d517d093d55391609a1b604482015290519081900360640190fd5b6001600160a01b038084166000908152600a602052604080822092851682528120600380840154600280860154928401549084015493946112a99492939290613d62565b95945050505050565b600554600090610100900460ff1615611300576040805162461bcd60e51b815260206004820152600b60248201526a4552525f5245454e54525960a81b604482015290519081900360640190fd5b6001600160a01b0383166000908152600a602052604090205460ff1661135d576040805162461bcd60e51b815260206004820152600d60248201526c11549497d393d517d093d55391609a1b604482015290519081900360640190fd5b6001600160a01b0382166000908152600a602052604090205460ff166113ba576040805162461bcd60e51b815260206004820152600d60248201526c11549497d393d517d093d55391609a1b604482015290519081900360640190fd5b6001600160a01b038084166000908152600a60205260408082209285168252902060038083015460028085015492840154908401546007546112a994929190613d62565b60025490565b6402540be400670de0b6b3a76400005b0481565b670de0b6b3a764000081565b6000336001600160a01b038516148061146057506001600160a01b03841660009081526001602090815260408083203384529091529020548211155b6114a9576040805162461bcd60e51b815260206004820152601560248201527422a9292fa12a27a5a2a72fa120a22fa1a0a62622a960591b604482015290519081900360640190fd5b6114b4848484614e5e565b336001600160a01b038516148015906114f257506001600160a01b038416600090815260016020908152604080832033845290915290205460001914155b15611574576001600160a01b03841660009081526001602090815260408083203384529091529020546115259083614d0d565b6001600160a01b03858116600090815260016020908152604080832033808552908352928190208590558051948552519287169391926000805160206155128339815191529281900390910190a35b5060019392505050565b6001600160a01b03166000908152600a602052604090205460ff1690565b600554600090610100900460ff16156115ea576040805162461bcd60e51b815260206004820152600b60248201526a4552525f5245454e54525960a81b604482015290519081900360640190fd5b506006546001600160a01b031690565b60055460ff1690565b336001600160a01b03166000356001600160e01b0319166001600160e01b03191660003660405180806020018281038252848482818152602001925080828437600083820152604051601f909101601f19169092018290039550909350505050a2600554610100900460ff16156116af576040805162461bcd60e51b815260206004820152600b60248201526a4552525f5245454e54525960a81b604482015290519081900360640190fd5b6005805461ff00191661010017905560085460ff1615611709576040805162461bcd60e51b815260206004820152601060248201526f11549497d254d7d1925390531256915160821b604482015290519081900360640190fd5b6006546001600160a01b0316331461175d576040805162461bcd60e51b815260206004820152601260248201527122a9292fa727aa2fa1a7a72a2927a62622a960711b604482015290519081900360640190fd5b64e8d4a510008110156117a5576040805162461bcd60e51b815260206004820152600b60248201526a4552525f4d494e5f46454560a81b604482015290519081900360640190fd5b67016345785d8a00008111156117f0576040805162461bcd60e51b815260206004820152600b60248201526a4552525f4d41585f46454560a81b604482015290519081900360640190fd5b6007556005805461ff0019169055565b336001600160a01b03166000356001600160e01b0319166001600160e01b03191660003660405180806020018281038252848482818152602001925080828437600083820152604051601f909101601f19169092018290039550909350505050a2600554610100900460ff16156118ac576040805162461bcd60e51b815260206004820152600b60248201526a4552525f5245454e54525960a81b604482015290519081900360640190fd5b6005805461ff001916610100179055600654336001600160a01b0390911614611911576040805162461bcd60e51b815260206004820152601260248201527122a9292fa727aa2fa1a7a72a2927a62622a960711b604482015290519081900360640190fd5b6001600160a01b0383166000908152600a602052604090205460ff1661196e576040805162461bcd60e51b815260206004820152600d60248201526c11549497d393d517d093d55391609a1b604482015290519081900360640190fd5b60085460ff16156119b9576040805162461bcd60e51b815260206004820152601060248201526f11549497d254d7d1925390531256915160821b604482015290519081900360640190fd5b670de0b6b3a7640000811015611a07576040805162461bcd60e51b815260206004820152600e60248201526d11549497d3525397d5d15251d21560921b604482015290519081900360640190fd5b6802b5e3af16b1880000811115611a56576040805162461bcd60e51b815260206004820152600e60248201526d11549497d3505617d5d15251d21560921b604482015290519081900360640190fd5b620f4240821015611aa0576040805162461bcd60e51b815260206004820152600f60248201526e4552525f4d494e5f42414c414e434560881b604482015290519081900360640190fd5b6001600160a01b0383166000908152600a602052604090206002015480821115611b3757611ad9600b54611ad48484614d0d565b614f6e565b600b8190556802b5e3af16b18800001015611b32576040805162461bcd60e51b815260206004820152601460248201527311549497d3505617d513d5105317d5d15251d21560621b604482015290519081900360640190fd5b611b58565b80821015611b5857611b54600b54611b4f8385614d0d565b614d0d565b600b555b6001600160a01b0384166000908152600a602052604090206002810183905560030180549084905580841115611ba157611b9c8533611b978785614d0d565b614fbb565b611bfb565b80841015611bfb576000611bb58286614d0d565b90506000611bc4826000614c44565b9050611bda8733611bd58585614d0d565b614d93565b600554611bf89088906201000090046001600160a01b031683614d93565b50505b50506005805461ff0019169055505050565b6000336001600160a01b03166000356001600160e01b0319166001600160e01b03191660003660405180806020018281038252848482818152602001925080828437600083820152604051601f909101601f19169092018290039550909350505050a2600554610100900460ff1615611cbb576040805162461bcd60e51b815260206004820152600b60248201526a4552525f5245454e54525960a81b604482015290519081900360640190fd5b6005805461ff00191661010017905560085460ff16611d15576040805162461bcd60e51b815260206004820152601160248201527011549497d393d517d19253905312569151607a1b604482015290519081900360640190fd5b6001600160a01b0384166000908152600a602052604090205460ff16611d72576040805162461bcd60e51b815260206004820152600d60248201526c11549497d393d517d093d55391609a1b604482015290519081900360640190fd5b6001600160a01b0384166000908152600a6020526040902060038101546002808301549054600b54600754611dac94939291908990613811565b915082821015611df3576040805162461bcd60e51b815260206004820152600d60248201526c11549497d31253525517d3d555609a1b604482015290519081900360640190fd5b6001600160a01b0385166000908152600a60205260409020600390810154611e2391670de0b6b3a7640000610e96565b821115611e6b576040805162461bcd60e51b81526020600482015260116024820152704552525f4d41585f4f55545f524154494f60781b604482015290519081900360640190fd5b611e79816003015483614d0d565b60038201556000611e8a8582614c44565b6040805185815290519192506001600160a01b0388169133917fe74c91552b64c2e2e7bd255639e004e693bd3e1d01cc33e65610b86afcc1ffed919081900360200190a3611ed83386614d6f565b611ee56110258683614d0d565b600554611f01906201000090046001600160a01b031682614d89565b611051863385614d93565b336001600160a01b03166000356001600160e01b0319166001600160e01b03191660003660405180806020018281038252848482818152602001925080828437600083820152604051601f909101601f19169092018290039550909350505050a2600554610100900460ff1615611fb8576040805162461bcd60e51b815260206004820152600b60248201526a4552525f5245454e54525960a81b604482015290519081900360640190fd5b6005805461ff00191661010017905560085460ff1615612012576040805162461bcd60e51b815260206004820152601060248201526f11549497d254d7d1925390531256915160821b604482015290519081900360640190fd5b6006546001600160a01b03163314612066576040805162461bcd60e51b815260206004820152601260248201527122a9292fa727aa2fa1a7a72a2927a62622a960711b604482015290519081900360640190fd5b60068054911515600160a01b0260ff60a01b199092169190911790556005805461ff0019169055565b336001600160a01b03166000356001600160e01b0319166001600160e01b03191660003660405180806020018281038252848482818152602001925080828437600083820152604051601f909101601f19169092018290039550909350505050a2600554610100900460ff161561213b576040805162461bcd60e51b815260206004820152600b60248201526a4552525f5245454e54525960a81b604482015290519081900360640190fd5b6005805461ff001916610100179055600654336001600160a01b03909116146121a0576040805162461bcd60e51b815260206004820152601260248201527122a9292fa727aa2fa1a7a72a2927a62622a960711b604482015290519081900360640190fd5b60085460ff16156121eb576040805162461bcd60e51b815260206004820152601060248201526f11549497d254d7d1925390531256915160821b604482015290519081900360640190fd5b60095460021115612234576040805162461bcd60e51b815260206004820152600e60248201526d4552525f4d494e5f544f4b454e5360901b604482015290519081900360640190fd5b6008805460ff191660011790556006805460ff60a01b1916600160a01b17905561226668056bc75e2d63100000615014565b6122793368056bc75e2d63100000614d89565b6005805461ff0019169055565b336001600160a01b03166000356001600160e01b0319166001600160e01b03191660003660405180806020018281038252848482818152602001925080828437600083820152604051601f909101601f19169092018290039550909350505050a2600554610100900460ff1615612332576040805162461bcd60e51b815260206004820152600b60248201526a4552525f5245454e54525960a81b604482015290519081900360640190fd5b6005805461ff00191661010017905560085460ff1661238c576040805162461bcd60e51b815260206004820152601160248201527011549497d393d517d19253905312569151607a1b604482015290519081900360640190fd5b60006123966113fe565b905060006123a4858361501d565b9050806123ea576040805162461bcd60e51b815260206004820152600f60248201526e08aa4a4be9a82a890be82a0a0a49eb608b1b604482015290519081900360640190fd5b60005b60095481101561256b5760006009828154811061240657fe5b60009182526020808320909101546001600160a01b0316808352600a90915260408220600301549092509061243b8583614c44565b905080612481576040805162461bcd60e51b815260206004820152600f60248201526e08aa4a4be9a82a890be82a0a0a49eb608b1b604482015290519081900360640190fd5b87878581811061248d57fe5b905060200201358111156124d7576040805162461bcd60e51b815260206004820152600c60248201526b22a9292fa624a6a4aa2fa4a760a11b604482015290519081900360640190fd5b6001600160a01b0383166000908152600a60205260409020600301546124fd9082614f6e565b6001600160a01b0384166000818152600a60209081526040918290206003019390935580518481529051919233927f63982df10efd8dfaaaa0fcc7f50b2d93b7cba26ccc48adee2873220d485dc39a9281900390910190a3612560833383614fbb565b5050506001016123ed565b5061257585615014565b611bfb3386614d89565b60008061258c878661501d565b9050600061259a8786614f6e565b905060006125a8828961501d565b905060006125be670de0b6b3a76400008561501d565b905060006125cc8383615125565b905060006125da828e614c44565b905060006125e8828f614d0d565b90506000612607612601670de0b6b3a76400008a614d0d565b8b614c44565b90506126248261261f670de0b6b3a764000084614d0d565b61501d565b9f9e505050505050505050505050505050565b6000336001600160a01b03166000356001600160e01b0319166001600160e01b03191660003660405180806020018281038252848482818152602001925080828437600083820152604051601f909101601f19169092018290039550909350505050a2600554610100900460ff16156126e5576040805162461bcd60e51b815260206004820152600b60248201526a4552525f5245454e54525960a81b604482015290519081900360640190fd5b6005805461ff00191661010017905560085460ff1661273f576040805162461bcd60e51b815260206004820152601160248201527011549497d393d517d19253905312569151607a1b604482015290519081900360640190fd5b6001600160a01b0384166000908152600a602052604090205460ff1661279c576040805162461bcd60e51b815260206004820152600d60248201526c11549497d393d517d093d55391609a1b604482015290519081900360640190fd5b6001600160a01b0384166000908152600a60205260409020600301546127ce906002670de0b6b3a76400005b04614c44565b831115612815576040805162461bcd60e51b815260206004820152601060248201526f4552525f4d41585f494e5f524154494f60801b604482015290519081900360640190fd5b6001600160a01b0384166000908152600a6020526040902060038101546002808301549054600b5460075461284f9493929190899061375c565b915082821015612896576040805162461bcd60e51b815260206004820152600d60248201526c11549497d31253525517d3d555609a1b604482015290519081900360640190fd5b6128a4816003015485614f6e565b60038201556040805185815290516001600160a01b0387169133917f63982df10efd8dfaaaa0fcc7f50b2d93b7cba26ccc48adee2873220d485dc39a9181900360200190a36128f282615014565b6128fc3383614d89565b612907853386614fbb565b506005805461ff00191690559392505050565b3360009081526001602090815260408083206001600160a01b03861684529091528120548083111561296f573360009081526001602090815260408083206001600160a01b038816845290915281205561299e565b6129798184614d0d565b3360009081526001602090815260408083206001600160a01b03891684529091529020555b3360008181526001602090815260408083206001600160a01b038916808552908352928190205481519081529051929392600080516020615512833981519152929181900390910190a35060019392505050565b6000336001600160a01b03166000356001600160e01b0319166001600160e01b03191660003660405180806020018281038252848482818152602001925080828437600083820152604051601f909101601f19169092018290039550909350505050a2600554610100900460ff1615612aa0576040805162461bcd60e51b815260206004820152600b60248201526a4552525f5245454e54525960a81b604482015290519081900360640190fd5b6005805461ff00191661010017905560085460ff16612afa576040805162461bcd60e51b815260206004820152601160248201527011549497d393d517d19253905312569151607a1b604482015290519081900360640190fd5b6001600160a01b0384166000908152600a602052604090205460ff16612b57576040805162461bcd60e51b815260206004820152600d60248201526c11549497d393d517d093d55391609a1b604482015290519081900360640190fd5b6001600160a01b0384166000908152600a6020526040902060038101546002808301549054600b54600754612b919493929190899061257f565b915081612bd7576040805162461bcd60e51b815260206004820152600f60248201526e08aa4a4be9a82a890be82a0a0a49eb608b1b604482015290519081900360640190fd5b82821115612c1b576040805162461bcd60e51b815260206004820152600c60248201526b22a9292fa624a6a4aa2fa4a760a11b604482015290519081900360640190fd5b6001600160a01b0385166000908152600a6020526040902060030154612c4b906002670de0b6b3a76400006127c8565b821115612c92576040805162461bcd60e51b815260206004820152601060248201526f4552525f4d41585f494e5f524154494f60801b604482015290519081900360640190fd5b612ca0816003015483614f6e565b60038201556040805183815290516001600160a01b0387169133917f63982df10efd8dfaaaa0fcc7f50b2d93b7cba26ccc48adee2873220d485dc39a9181900360200190a3612cee84615014565b612cf83385614d89565b612907853384614fbb565b6001600160a01b031660009081526020819052604090205490565b620f4240670de0b6b3a7640000611414565b60408051602080825236908201819052600092839233926001600160e01b03198535169285929081908101848480828437600083820152604051601f909101601f19169092018290039550909350505050a2600554610100900460ff1615612dcd576040805162461bcd60e51b815260206004820152600b60248201526a4552525f5245454e54525960a81b604482015290519081900360640190fd5b6005805461ff0019166101001790556001600160a01b0387166000908152600a602052604090205460ff16612e39576040805162461bcd60e51b815260206004820152600d60248201526c11549497d393d517d093d55391609a1b604482015290519081900360640190fd5b6001600160a01b0385166000908152600a602052604090205460ff16612e96576040805162461bcd60e51b815260206004820152600d60248201526c11549497d393d517d093d55391609a1b604482015290519081900360640190fd5b600654600160a01b900460ff16612eea576040805162461bcd60e51b81526020600482015260136024820152724552525f535741505f4e4f545f5055424c494360681b604482015290519081900360640190fd5b6001600160a01b038088166000908152600a602052604080822092881682529020600380820154612f2391670de0b6b3a7640000610e96565b861115612f6b576040805162461bcd60e51b81526020600482015260116024820152704552525f4d41585f4f55545f524154494f60781b604482015290519081900360640190fd5b6000612f8c8360030154846002015484600301548560020154600754613d62565b905085811115612fd9576040805162461bcd60e51b81526020600482015260136024820152724552525f4241445f4c494d49545f505249434560681b604482015290519081900360640190fd5b612ff983600301548460020154846003015485600201548b600754614bb1565b94508885111561303f576040805162461bcd60e51b815260206004820152600c60248201526b22a9292fa624a6a4aa2fa4a760a11b604482015290519081900360640190fd5b61304d836003015486614f6e565b8360030181905550613063826003015488614d0d565b600380840182905584015460028086015490850154600754613086949190613d62565b9350808410156130cf576040805162461bcd60e51b815260206004820152600f60248201526e08aa4a4be9a82a890be82a0a0a49eb608b1b604482015290519081900360640190fd5b85841115613116576040805162461bcd60e51b815260206004820152600f60248201526e4552525f4c494d49545f505249434560881b604482015290519081900360640190fd5b613120858861501d565b811115613166576040805162461bcd60e51b815260206004820152600f60248201526e08aa4a4be9a82a890be82a0a0a49eb608b1b604482015290519081900360640190fd5b876001600160a01b03168a6001600160a01b0316336001600160a01b03167f908fb5ee8f16c6bc9bc3690973819f32a4d4b10188134543c88706e0e1d43378888b604051808381526020018281526020019250505060405180910390a46131ce8a3387614fbb565b6131d9883389614d93565b5050506005805461ff001916905590969095509350505050565b60408051602080825236908201819052600092839233926001600160e01b03198535169285929081908101848480828437600083820152604051601f909101601f19169092018290039550909350505050a2600554610100900460ff1615613290576040805162461bcd60e51b815260206004820152600b60248201526a4552525f5245454e54525960a81b604482015290519081900360640190fd5b6005805461ff0019166101001790556001600160a01b0387166000908152600a602052604090205460ff166132fc576040805162461bcd60e51b815260206004820152600d60248201526c11549497d393d517d093d55391609a1b604482015290519081900360640190fd5b6001600160a01b0385166000908152600a602052604090205460ff16613359576040805162461bcd60e51b815260206004820152600d60248201526c11549497d393d517d093d55391609a1b604482015290519081900360640190fd5b600654600160a01b900460ff166133ad576040805162461bcd60e51b81526020600482015260136024820152724552525f535741505f4e4f545f5055424c494360681b604482015290519081900360640190fd5b6001600160a01b038088166000908152600a60205260408082209288168252902060038201546133e7906002670de0b6b3a76400006127c8565b88111561342e576040805162461bcd60e51b815260206004820152601060248201526f4552525f4d41585f494e5f524154494f60801b604482015290519081900360640190fd5b600061344f8360030154846002015484600301548560020154600754613d62565b90508581111561349c576040805162461bcd60e51b81526020600482015260136024820152724552525f4241445f4c494d49545f505249434560681b604482015290519081900360640190fd5b6134bc83600301548460020154846003015485600201548d600754614133565b945086851015613503576040805162461bcd60e51b815260206004820152600d60248201526c11549497d31253525517d3d555609a1b604482015290519081900360640190fd5b61351183600301548a614f6e565b8360030181905550613527826003015486614d0d565b60038084018290558401546002808601549085015460075461354a949190613d62565b935080841015613593576040805162461bcd60e51b815260206004820152600f60248201526e08aa4a4be9a82a890be82a0a0a49eb608b1b604482015290519081900360640190fd5b858411156135da576040805162461bcd60e51b815260206004820152600f60248201526e4552525f4c494d49545f505249434560881b604482015290519081900360640190fd5b6135e4898661501d565b81111561362a576040805162461bcd60e51b815260206004820152600f60248201526e08aa4a4be9a82a890be82a0a0a49eb608b1b604482015290519081900360640190fd5b876001600160a01b03168a6001600160a01b0316336001600160a01b03167f908fb5ee8f16c6bc9bc3690973819f32a4d4b10188134543c88706e0e1d433788c89604051808381526020018281526020019250505060405180910390a46136928a338b614fbb565b6131d9883387614d93565b6000806136aa878661501d565b905060006136c0670de0b6b3a764000083614d0d565b905060006136ce8286614c44565b905060006136e88761261f670de0b6b3a764000085614d0d565b905060006136f68c83614d0d565b90506000613704828e61501d565b905060006137128288615125565b90506000613720828e614c44565b9050600061372e8e83614d0d565b90506137478161261f670de0b6b3a76400006000614d0d565b99505050505050505050509695505050505050565b600080613769878661501d565b90506000613788613782670de0b6b3a764000084614d0d565b85614c44565b905060006137a7866137a2670de0b6b3a764000085614d0d565b614c44565b905060006137b58b83614f6e565b905060006137c3828d61501d565b905060006137d18287615125565b905060006137df828d614c44565b90506137eb818d614d0d565b9e9d5050505050505050505050505050565b64e8d4a51000670de0b6b3a7640000611414565b60008061381e878661501d565b90506000613839856137a2670de0b6b3a76400006000614d0d565b905060006138478883614d0d565b90506000613855828a61501d565b905060006138748261386f670de0b6b3a76400008861501d565b615125565b90506000613882828e614c44565b905060006138908e83614d0d565b905060006138a9612601670de0b6b3a76400008a614d0d565b9050612624826137a2670de0b6b3a764000084614d0d565b336001600160a01b03166000356001600160e01b0319166001600160e01b03191660003660405180806020018281038252848482818152602001925080828437600083820152604051601f909101601f19169092018290039550909350505050a2600554610100900460ff161561396d576040805162461bcd60e51b815260206004820152600b60248201526a4552525f5245454e54525960a81b604482015290519081900360640190fd5b6005805461ff0019166101001790556001600160a01b0381166000908152600a602052604090205460ff166139d9576040805162461bcd60e51b815260206004820152600d60248201526c11549497d393d517d093d55391609a1b604482015290519081900360640190fd5b604080516370a0823160e01b815230600482015290516001600160a01b038316916370a08231916024808301926020929190829003018186803b158015613a1f57600080fd5b505afa158015613a33573d6000803e3d6000fd5b505050506040513d6020811015613a4957600080fd5b50516001600160a01b039091166000908152600a60205260409020600301556005805461ff0019169055565b60085460ff1690565b336001600160a01b03166000356001600160e01b0319166001600160e01b03191660003660405180806020018281038252848482818152602001925080828437600083820152604051601f909101601f19169092018290039550909350505050a2600554610100900460ff1615613b2a576040805162461bcd60e51b815260206004820152600b60248201526a4552525f5245454e54525960a81b604482015290519081900360640190fd5b6005805461ff001916610100179055600654336001600160a01b0390911614613b8f576040805162461bcd60e51b815260206004820152601260248201527122a9292fa727aa2fa1a7a72a2927a62622a960711b604482015290519081900360640190fd5b600680546001600160a01b0319166001600160a01b03929092169190911790556005805461ff0019169055565b600554600090610100900460ff1615613c0a576040805162461bcd60e51b815260206004820152600b60248201526a4552525f5245454e54525960a81b604482015290519081900360640190fd5b50600b5490565b68056bc75e2d6310000081565b600554600090610100900460ff1615613c6c576040805162461bcd60e51b815260206004820152600b60248201526a4552525f5245454e54525960a81b604482015290519081900360640190fd5b6001600160a01b0382166000908152600a602052604090205460ff16613cc9576040805162461bcd60e51b815260206004820152600d60248201526c11549497d393d517d093d55391609a1b604482015290519081900360640190fd5b506001600160a01b03166000908152600a602052604090206002015490565b60048054604080516020601f60026000196101006001881615020190951694909404938401819004810282018101909252828152606093909290918301828280156110f15780601f106110c6576101008083540402835291602001916110f1565b6704a03ce68d21555681565b6542524f4e5a4560d01b90565b600080613d6f878761501d565b90506000613d7d868661501d565b90506000613d8b838361501d565b90506000613dad670de0b6b3a764000061261f670de0b6b3a764000089614d0d565b9050613db98282614c44565b9a9950505050505050505050565b6000613dd4338484614e5e565b50600192915050565b336001600160a01b03166000356001600160e01b0319166001600160e01b03191660003660405180806020018281038252848482818152602001925080828437600083820152604051601f909101601f19169092018290039550909350505050a2600554610100900460ff1615613e89576040805162461bcd60e51b815260206004820152600b60248201526a4552525f5245454e54525960a81b604482015290519081900360640190fd5b6005805461ff00191661010017905560085460ff16613ee3576040805162461bcd60e51b815260206004820152601160248201527011549497d393d517d19253905312569151607a1b604482015290519081900360640190fd5b6000613eed6113fe565b90506000613efc856000614c44565b90506000613f0a8683614d0d565b90506000613f18828561501d565b905080613f5e576040805162461bcd60e51b815260206004820152600f60248201526e08aa4a4be9a82a890be82a0a0a49eb608b1b604482015290519081900360640190fd5b613f683388614d6f565b600554613f84906201000090046001600160a01b031684614d89565b613f8d82614d7d565b60005b60095481101561410f57600060098281548110613fa957fe5b60009182526020808320909101546001600160a01b0316808352600a909152604082206003015490925090613fde8583614c44565b905080614024576040805162461bcd60e51b815260206004820152600f60248201526e08aa4a4be9a82a890be82a0a0a49eb608b1b604482015290519081900360640190fd5b89898581811061403057fe5b9050602002013581101561407b576040805162461bcd60e51b815260206004820152600d60248201526c11549497d31253525517d3d555609a1b604482015290519081900360640190fd5b6001600160a01b0383166000908152600a60205260409020600301546140a19082614d0d565b6001600160a01b0384166000818152600a60209081526040918290206003019390935580518481529051919233927fe74c91552b64c2e2e7bd255639e004e693bd3e1d01cc33e65610b86afcc1ffed9281900390910190a3614104833383614d93565b505050600101613f90565b50506005805461ff0019169055505050505050565b600881565b600281565b600181565b600080614140878661501d565b90506000614156670de0b6b3a764000085614d0d565b90506141628582614c44565b905060006141748a61261f8c85614f6e565b905060006141828285615125565b90506000614198670de0b6b3a764000083614d0d565b90506141a48a82614c44565b9c9b505050505050505050505050565b600a670de0b6b3a7640000611414565b671bc16d674ec7ffff81565b600554606090610100900460ff161561421e576040805162461bcd60e51b815260206004820152600b60248201526a4552525f5245454e54525960a81b604482015290519081900360640190fd5b60085460ff16614269576040805162461bcd60e51b815260206004820152601160248201527011549497d393d517d19253905312569151607a1b604482015290519081900360640190fd5b60098054806020026020016040519081016040528092919081815260200182805480156110f157602002820191906000526020600020905b81546001600160a01b031681526001909101906020018083116142a1575050505050905090565b600081565b600554606090610100900460ff1615614269576040805162461bcd60e51b815260206004820152600b60248201526a4552525f5245454e54525960a81b604482015290519081900360640190fd5b60095490565b336001600160a01b03166000356001600160e01b0319166001600160e01b03191660003660405180806020018281038252848482818152602001925080828437600083820152604051601f909101601f19169092018290039550909350505050a2600554610100900460ff16156143cd576040805162461bcd60e51b815260206004820152600b60248201526a4552525f5245454e54525960a81b604482015290519081900360640190fd5b6005805461ff001916610100179055600654336001600160a01b0390911614614432576040805162461bcd60e51b815260206004820152601260248201527122a9292fa727aa2fa1a7a72a2927a62622a960711b604482015290519081900360640190fd5b6001600160a01b0381166000908152600a602052604090205460ff1661448f576040805162461bcd60e51b815260206004820152600d60248201526c11549497d393d517d093d55391609a1b604482015290519081900360640190fd5b60085460ff16156144da576040805162461bcd60e51b815260206004820152601060248201526f11549497d254d7d1925390531256915160821b604482015290519081900360640190fd5b6001600160a01b0381166000908152600a6020526040812060030154906145018282614c44565b600b546001600160a01b0385166000908152600a602052604090206002015491925061452c91614d0d565b600b556001600160a01b0383166000908152600a602052604090206001015460098054600019810191908290811061456057fe5b600091825260209091200154600980546001600160a01b03909216918490811061458657fe5b9060005260206000200160006101000a8154816001600160a01b0302191690836001600160a01b0316021790555081600a6000600985815481106145c657fe5b60009182526020808320909101546001600160a01b0316835282019290925260400190206001015560098054806145f957fe5b60008281526020808220600019908401810180546001600160a01b031916905590920190925560408051608081018252838152808301848152818301858152606083018681526001600160a01b038c168752600a909552929094209051815460ff191690151517815592516001840155516002830155516003909101556146858533611bd58787614d0d565b600554611bfb9086906201000090046001600160a01b031685614d93565b600554600090610100900460ff16156146f1576040805162461bcd60e51b815260206004820152600b60248201526a4552525f5245454e54525960a81b604482015290519081900360640190fd5b5060075490565b3360009081526001602090815260408083206001600160a01b03861684529091528120546147269083614f6e565b3360008181526001602090815260408083206001600160a01b038916808552908352928190208590558051948552519193600080516020615512833981519152929081900390910190a350600192915050565b6001600160a01b03918216600090815260016020908152604080832093909416825291909152205490565b336001600160a01b03166000356001600160e01b0319166001600160e01b03191660003660405180806020018281038252848482818152602001925080828437600083820152604051601f909101601f19169092018290039550909350505050a26006546001600160a01b03163314614859576040805162461bcd60e51b815260206004820152601260248201527122a9292fa727aa2fa1a7a72a2927a62622a960711b604482015290519081900360640190fd5b6001600160a01b0383166000908152600a602052604090205460ff16156148b6576040805162461bcd60e51b815260206004820152600c60248201526b11549497d254d7d093d5539160a21b604482015290519081900360640190fd5b60085460ff1615614901576040805162461bcd60e51b815260206004820152601060248201526f11549497d254d7d1925390531256915160821b604482015290519081900360640190fd5b600954600811614949576040805162461bcd60e51b815260206004820152600e60248201526d4552525f4d41585f544f4b454e5360901b604482015290519081900360640190fd5b6040805160808101825260018082526009805460208085019182526000858701818152606087018281526001600160a01b038c16808452600a9094529782209651875460ff1916901515178755925186860155915160028601559451600390940193909355805491820181559091527f6e1540171b6c0c960b71a7020d9f60077f6af931a8bbf590da0223dacf75c7af0180546001600160a01b03191690911790556149f6838383611800565b505050565b6002670de0b6b3a7640000611414565b600554600090610100900460ff1615614a59576040805162461bcd60e51b815260206004820152600b60248201526a4552525f5245454e54525960a81b604482015290519081900360640190fd5b6001600160a01b0382166000908152600a602052604090205460ff16614ab6576040805162461bcd60e51b815260206004820152600d60248201526c11549497d393d517d093d55391609a1b604482015290519081900360640190fd5b6001600160a01b0382166000908152600a6020526040902060020154600b54614ae090829061501d565b9392505050565b600554600090610100900460ff1615614b35576040805162461bcd60e51b815260206004820152600b60248201526a4552525f5245454e54525960a81b604482015290519081900360640190fd5b6001600160a01b0382166000908152600a602052604090205460ff16614b92576040805162461bcd60e51b815260206004820152600d60248201526c11549497d393d517d093d55391609a1b604482015290519081900360640190fd5b506001600160a01b03166000908152600a602052604090206003015490565b600080614bbe858861501d565b90506000614bcc8786614d0d565b90506000614bda888361501d565b90506000614be88285615125565b9050614bfc81670de0b6b3a7640000614d0d565b9050614c10670de0b6b3a764000087614d0d565b9450614c25614c1f8c83614c44565b8661501d565b9b9a5050505050505050505050565b600654600160a01b900460ff1690565b6000828202831580614c5e575082848281614c5b57fe5b04145b614ca2576040805162461bcd60e51b815260206004820152601060248201526f4552525f4d554c5f4f564552464c4f5760801b604482015290519081900360640190fd5b6706f05b59d3b20000810181811015614cf5576040805162461bcd60e51b815260206004820152601060248201526f4552525f4d554c5f4f564552464c4f5760801b604482015290519081900360640190fd5b6000670de0b6b3a7640000825b049695505050505050565b6000806000614d1c8585615233565b915091508015614d67576040805162461bcd60e51b81526020600482015260116024820152704552525f5355425f554e444552464c4f5760781b604482015290519081900360640190fd5b509392505050565b614d798282615258565b5050565b614d8681615263565b50565b614d798282615333565b6040805163a9059cbb60e01b81526001600160a01b03848116600483015260248201849052915160009286169163a9059cbb91604480830192602092919082900301818787803b158015614de657600080fd5b505af1158015614dfa573d6000803e3d6000fd5b505050506040513d6020811015614e1057600080fd5b5051905080614e58576040805162461bcd60e51b815260206004820152600f60248201526e4552525f45524332305f46414c534560881b604482015290519081900360640190fd5b50505050565b6001600160a01b038316600090815260208190526040902054811115614ec2576040805162461bcd60e51b815260206004820152601460248201527311549497d25394d551919250d251539517d0905360621b604482015290519081900360640190fd5b6001600160a01b038316600090815260208190526040902054614ee59082614d0d565b6001600160a01b038085166000908152602081905260408082209390935590841681522054614f149082614f6e565b6001600160a01b038084166000818152602081815260409182902094909455805185815290519193928716927fddf252ad1be2c89b69c2b068fc378daa952ba7f163c4a11628f55a4df523b3ef92918290030190a3505050565b600082820183811015614ae0576040805162461bcd60e51b815260206004820152601060248201526f4552525f4144445f4f564552464c4f5760801b604482015290519081900360640190fd5b604080516323b872dd60e01b81526001600160a01b0384811660048301523060248301526044820184905291516000928616916323b872dd91606480830192602092919082900301818787803b158015614de657600080fd5b614d868161533e565b600081615060576040805162461bcd60e51b815260206004820152600c60248201526b4552525f4449565f5a45524f60a01b604482015290519081900360640190fd5b670de0b6b3a764000083028315806150885750670de0b6b3a764000084828161508557fe5b04145b6150cc576040805162461bcd60e51b815260206004820152601060248201526f11549497d1125597d25395115493905360821b604482015290519081900360640190fd5b6002830481018181101561511a576040805162461bcd60e51b815260206004820152601060248201526f11549497d1125597d25395115493905360821b604482015290519081900360640190fd5b6000848281614d0257fe5b60006001831015615175576040805162461bcd60e51b81526020600482015260156024820152744552525f42504f575f424153455f544f4f5f4c4f5760581b604482015290519081900360640190fd5b671bc16d674ec7ffff8311156151cb576040805162461bcd60e51b815260206004820152601660248201527508aa4a4be84a09eaebe8482a68abea89e9ebe90928e960531b604482015290519081900360640190fd5b60006151d6836153b3565b905060006151e48483614d0d565b905060006151fa866151f5856153ce565b6153dc565b90508161520b57925061114a915050565b600061521c87846305f5e100615433565b90506152288282614c44565b979650505050505050565b6000808284106152495750508082036000615251565b505081810360015b9250929050565b614d79823083614e5e565b306000908152602081905260409020548111156152be576040805162461bcd60e51b815260206004820152601460248201527311549497d25394d551919250d251539517d0905360621b604482015290519081900360640190fd5b306000908152602081905260409020546152d89082614d0d565b306000908152602081905260409020556002546152f59082614d0d565b60025560408051828152905160009130917fddf252ad1be2c89b69c2b068fc378daa952ba7f163c4a11628f55a4df523b3ef9181900360200190a350565b614d79308383614e5e565b306000908152602081905260409020546153589082614f6e565b306000908152602081905260409020556002546153759082614f6e565b60025560408051828152905130916000917fddf252ad1be2c89b69c2b068fc378daa952ba7f163c4a11628f55a4df523b3ef9181900360200190a350565b6000670de0b6b3a76400006153c7836153ce565b0292915050565b670de0b6b3a7640000900490565b600080600283066153f557670de0b6b3a76400006153f7565b835b90506002830492505b8215614ae0576154108485614c44565b93506002830615615428576154258185614c44565b90505b600283049250615400565b600082818061544a87670de0b6b3a7640000615233565b9092509050670de0b6b3a764000080600060015b888410615502576000670de0b6b3a7640000820290506000806154928a61548d85670de0b6b3a7640000614d0d565b615233565b915091506154a4876137a2848c614c44565b96506154b0878461501d565b9650866154bf57505050615502565b87156154c9579315935b80156154d3579315935b84156154ea576154e38688614d0d565b95506154f7565b6154f48688614f6e565b95505b50505060010161545e565b5090999850505050505050505056fe8c5be1e5ebec7d5bd14f71427d1e84f3dd0314c0f7b2291e5b200ac8c7c3b925a265627a7a72315820c89da3495f95c1f6c54efc5df9d18f1ff150995fe03847d31b75190f1264eae164736f6c634300050c0032a265627a7a7231582079afb1ec6e182e996cde02cc81d0ddcb6d5a4d894f352d203048cbf163e40fc364736f6c634300050c0032",
  "devdoc": {
    "methods": {}
  },
  "userdoc": {
    "methods": {}
  }
}