{
  "address": "0xfb852b5F27B29394d2b51062BF677C6539279807",
  "abi": [
    {
      "inputs": [
        {
          "internalType": "address",
          "name": "factoryAddress",
          "type": "address"
        },
        {
          "components": [
            {
              "internalType": "string",
              "name": "poolTokenSymbol",
              "type": "string"
            },
            {
              "internalType": "string",
              "name": "poolTokenName",
              "type": "string"
            },
            {
              "internalType": "address[]",
              "name": "constituentTokens",
              "type": "address[]"
            },
            {
              "internalType": "uint256[]",
              "name": "tokenBalances",
              "type": "uint256[]"
            },
            {
              "internalType": "uint256[]",
              "name": "tokenWeights",
              "type": "uint256[]"
            },
            {
              "internalType": "uint256",
              "name": "swapFee",
              "type": "uint256"
            }
          ],
          "internalType": "struct ConfigurableRightsPool.PoolParams",
          "name": "poolParams",
          "type": "tuple"
        },
        {
          "components": [
            {
              "internalType": "bool",
              "name": "canPauseSwapping",
              "type": "bool"
            },
            {
              "internalType": "bool",
              "name": "canChangeSwapFee",
              "type": "bool"
            },
            {
              "internalType": "bool",
              "name": "canChangeWeights",
              "type": "bool"
            },
            {
              "internalType": "bool",
              "name": "canAddRemoveTokens",
              "type": "bool"
            },
            {
              "internalType": "bool",
              "name": "canWhitelistLPs",
              "type": "bool"
            },
            {
              "internalType": "bool",
              "name": "canChangeCap",
              "type": "bool"
            }
          ],
          "internalType": "struct RightsManager.Rights",
          "name": "rightsStruct",
          "type": "tuple"
        }
      ],
      "stateMutability": "nonpayable",
      "type": "constructor"
    },
    {
      "anonymous": false,
      "inputs": [
        {
          "indexed": true,
          "internalType": "address",
          "name": "owner",
          "type": "address"
        },
        {
          "indexed": true,
          "internalType": "address",
          "name": "spender",
          "type": "address"
        },
        {
          "indexed": false,
          "internalType": "uint256",
          "name": "value",
          "type": "uint256"
        }
      ],
      "name": "Approval",
      "type": "event"
    },
    {
      "anonymous": false,
      "inputs": [
        {
          "indexed": true,
          "internalType": "address",
          "name": "caller",
          "type": "address"
        },
        {
          "indexed": false,
          "internalType": "uint256",
          "name": "oldCap",
          "type": "uint256"
        },
        {
          "indexed": false,
          "internalType": "uint256",
          "name": "newCap",
          "type": "uint256"
        }
      ],
      "name": "CapChanged",
      "type": "event"
    },
    {
      "anonymous": true,
      "inputs": [
        {
          "indexed": true,
          "internalType": "bytes4",
          "name": "sig",
          "type": "bytes4"
        },
        {
          "indexed": true,
          "internalType": "address",
          "name": "caller",
          "type": "address"
        },
        {
          "indexed": false,
          "internalType": "bytes",
          "name": "data",
          "type": "bytes"
        }
      ],
      "name": "LogCall",
      "type": "event"
    },
    {
      "anonymous": false,
      "inputs": [
        {
          "indexed": true,
          "internalType": "address",
          "name": "caller",
          "type": "address"
        },
        {
          "indexed": true,
          "internalType": "address",
          "name": "tokenOut",
          "type": "address"
        },
        {
          "indexed": false,
          "internalType": "uint256",
          "name": "tokenAmountOut",
          "type": "uint256"
        }
      ],
      "name": "LogExit",
      "type": "event"
    },
    {
      "anonymous": false,
      "inputs": [
        {
          "indexed": true,
          "internalType": "address",
          "name": "caller",
          "type": "address"
        },
        {
          "indexed": true,
          "internalType": "address",
          "name": "tokenIn",
          "type": "address"
        },
        {
          "indexed": false,
          "internalType": "uint256",
          "name": "tokenAmountIn",
          "type": "uint256"
        }
      ],
      "name": "LogJoin",
      "type": "event"
    },
    {
      "anonymous": false,
      "inputs": [
        {
          "indexed": true,
          "internalType": "address",
          "name": "token",
          "type": "address"
        },
        {
          "indexed": true,
          "internalType": "address",
          "name": "pool",
          "type": "address"
        },
        {
          "indexed": true,
          "internalType": "address",
          "name": "caller",
          "type": "address"
        }
      ],
      "name": "NewTokenCommitted",
      "type": "event"
    },
    {
      "anonymous": false,
      "inputs": [
        {
          "indexed": true,
          "internalType": "address",
          "name": "previousOwner",
          "type": "address"
        },
        {
          "indexed": true,
          "internalType": "address",
          "name": "newOwner",
          "type": "address"
        }
      ],
      "name": "OwnershipTransferred",
      "type": "event"
    },
    {
      "anonymous": false,
      "inputs": [
        {
          "indexed": true,
          "internalType": "address",
          "name": "from",
          "type": "address"
        },
        {
          "indexed": true,
          "internalType": "address",
          "name": "to",
          "type": "address"
        },
        {
          "indexed": false,
          "internalType": "uint256",
          "name": "value",
          "type": "uint256"
        }
      ],
      "name": "Transfer",
      "type": "event"
    },
    {
      "inputs": [],
      "name": "DECIMALS",
      "outputs": [
        {
          "internalType": "uint8",
          "name": "",
          "type": "uint8"
        }
      ],
      "stateMutability": "view",
      "type": "function"
    },
    {
      "inputs": [],
      "name": "DEFAULT_ADD_TOKEN_TIME_LOCK_IN_BLOCKS",
      "outputs": [
        {
          "internalType": "uint256",
          "name": "",
          "type": "uint256"
        }
      ],
      "stateMutability": "view",
      "type": "function"
    },
    {
      "inputs": [],
      "name": "DEFAULT_MIN_WEIGHT_CHANGE_BLOCK_PERIOD",
      "outputs": [
        {
          "internalType": "uint256",
          "name": "",
          "type": "uint256"
        }
      ],
      "stateMutability": "view",
      "type": "function"
    },
    {
      "inputs": [],
      "name": "NAME",
      "outputs": [
        {
          "internalType": "string",
          "name": "",
          "type": "string"
        }
      ],
      "stateMutability": "view",
      "type": "function"
    },
    {
      "inputs": [],
      "name": "addTokenTimeLockInBlocks",
      "outputs": [
        {
          "internalType": "uint256",
          "name": "",
          "type": "uint256"
        }
      ],
      "stateMutability": "view",
      "type": "function"
    },
    {
      "inputs": [
        {
          "internalType": "address",
          "name": "owner",
          "type": "address"
        },
        {
          "internalType": "address",
          "name": "spender",
          "type": "address"
        }
      ],
      "name": "allowance",
      "outputs": [
        {
          "internalType": "uint256",
          "name": "",
          "type": "uint256"
        }
      ],
      "stateMutability": "view",
      "type": "function"
    },
    {
      "inputs": [],
      "name": "applyAddToken",
      "outputs": [],
      "stateMutability": "nonpayable",
      "type": "function"
    },
    {
      "inputs": [
        {
          "internalType": "address",
          "name": "spender",
          "type": "address"
        },
        {
          "internalType": "uint256",
          "name": "amount",
          "type": "uint256"
        }
      ],
      "name": "approve",
      "outputs": [
        {
          "internalType": "bool",
          "name": "",
          "type": "bool"
        }
      ],
      "stateMutability": "nonpayable",
      "type": "function"
    },
    {
      "inputs": [],
      "name": "bFactory",
      "outputs": [
        {
          "internalType": "contract IBFactory",
          "name": "",
          "type": "address"
        }
      ],
      "stateMutability": "view",
      "type": "function"
    },
    {
      "inputs": [],
      "name": "bPool",
      "outputs": [
        {
          "internalType": "contract IBPool",
          "name": "",
          "type": "address"
        }
      ],
      "stateMutability": "view",
      "type": "function"
    },
    {
      "inputs": [
        {
          "internalType": "address",
          "name": "account",
          "type": "address"
        }
      ],
      "name": "balanceOf",
      "outputs": [
        {
          "internalType": "uint256",
          "name": "",
          "type": "uint256"
        }
      ],
      "stateMutability": "view",
      "type": "function"
    },
    {
      "inputs": [],
      "name": "bspCap",
      "outputs": [
        {
          "internalType": "uint256",
          "name": "",
          "type": "uint256"
        }
      ],
      "stateMutability": "view",
      "type": "function"
    },
    {
      "inputs": [
        {
          "internalType": "uint256",
          "name": "amount",
          "type": "uint256"
        }
      ],
      "name": "burnPoolShareFromLib",
      "outputs": [],
      "stateMutability": "nonpayable",
      "type": "function"
    },
    {
      "inputs": [
        {
          "internalType": "address",
          "name": "provider",
          "type": "address"
        }
      ],
      "name": "canProvideLiquidity",
      "outputs": [
        {
          "internalType": "bool",
          "name": "",
          "type": "bool"
        }
      ],
      "stateMutability": "view",
      "type": "function"
    },
    {
      "inputs": [
        {
          "internalType": "address",
          "name": "token",
          "type": "address"
        },
        {
          "internalType": "uint256",
          "name": "balance",
          "type": "uint256"
        },
        {
          "internalType": "uint256",
          "name": "denormalizedWeight",
          "type": "uint256"
        }
      ],
      "name": "commitAddToken",
      "outputs": [],
      "stateMutability": "nonpayable",
      "type": "function"
    },
    {
      "inputs": [
        {
          "internalType": "uint256",
          "name": "initialSupply",
          "type": "uint256"
        },
        {
          "internalType": "uint256",
          "name": "minimumWeightChangeBlockPeriodParam",
          "type": "uint256"
        },
        {
          "internalType": "uint256",
          "name": "addTokenTimeLockInBlocksParam",
          "type": "uint256"
        }
      ],
      "name": "createPool",
      "outputs": [],
      "stateMutability": "nonpayable",
      "type": "function"
    },
    {
      "inputs": [],
      "name": "decimals",
      "outputs": [
        {
          "internalType": "uint8",
          "name": "",
          "type": "uint8"
        }
      ],
      "stateMutability": "pure",
      "type": "function"
    },
    {
      "inputs": [
        {
          "internalType": "address",
          "name": "spender",
          "type": "address"
        },
        {
          "internalType": "uint256",
          "name": "amount",
          "type": "uint256"
        }
      ],
      "name": "decreaseApproval",
      "outputs": [
        {
          "internalType": "bool",
          "name": "",
          "type": "bool"
        }
      ],
      "stateMutability": "nonpayable",
      "type": "function"
    },
    {
      "inputs": [
        {
          "internalType": "uint256",
          "name": "poolAmountIn",
          "type": "uint256"
        },
        {
          "internalType": "uint256[]",
          "name": "minAmountsOut",
          "type": "uint256[]"
        }
      ],
      "name": "exitPool",
      "outputs": [],
      "stateMutability": "nonpayable",
      "type": "function"
    },
    {
      "inputs": [
        {
          "internalType": "address",
          "name": "tokenOut",
          "type": "address"
        },
        {
          "internalType": "uint256",
          "name": "tokenAmountOut",
          "type": "uint256"
        },
        {
          "internalType": "uint256",
          "name": "maxPoolAmountIn",
          "type": "uint256"
        }
      ],
      "name": "exitswapExternAmountOut",
      "outputs": [
        {
          "internalType": "uint256",
          "name": "poolAmountIn",
          "type": "uint256"
        }
      ],
      "stateMutability": "nonpayable",
      "type": "function"
    },
    {
      "inputs": [
        {
          "internalType": "address",
          "name": "tokenOut",
          "type": "address"
        },
        {
          "internalType": "uint256",
          "name": "poolAmountIn",
          "type": "uint256"
        },
        {
          "internalType": "uint256",
          "name": "minAmountOut",
          "type": "uint256"
        }
      ],
      "name": "exitswapPoolAmountIn",
      "outputs": [
        {
          "internalType": "uint256",
          "name": "tokenAmountOut",
          "type": "uint256"
        }
      ],
      "stateMutability": "nonpayable",
      "type": "function"
    },
    {
      "inputs": [],
      "name": "getBalancerSafeMathVersion",
      "outputs": [
        {
          "internalType": "address",
          "name": "",
          "type": "address"
        }
      ],
      "stateMutability": "pure",
      "type": "function"
    },
    {
      "inputs": [],
      "name": "getController",
      "outputs": [
        {
          "internalType": "address",
          "name": "",
          "type": "address"
        }
      ],
      "stateMutability": "view",
      "type": "function"
    },
    {
      "inputs": [
        {
          "internalType": "address",
          "name": "token",
          "type": "address"
        }
      ],
      "name": "getDenormalizedWeight",
      "outputs": [
        {
          "internalType": "uint256",
          "name": "",
          "type": "uint256"
        }
      ],
      "stateMutability": "view",
      "type": "function"
    },
    {
      "inputs": [],
      "name": "getRightsManagerVersion",
      "outputs": [
        {
          "internalType": "address",
          "name": "",
          "type": "address"
        }
      ],
      "stateMutability": "pure",
      "type": "function"
    },
    {
      "inputs": [],
      "name": "getSmartPoolManagerVersion",
      "outputs": [
        {
          "internalType": "address",
          "name": "",
          "type": "address"
        }
      ],
      "stateMutability": "pure",
      "type": "function"
    },
    {
      "inputs": [],
      "name": "gradualUpdate",
      "outputs": [
        {
          "internalType": "uint256",
          "name": "startBlock",
          "type": "uint256"
        },
        {
          "internalType": "uint256",
          "name": "endBlock",
          "type": "uint256"
        }
      ],
      "stateMutability": "view",
      "type": "function"
    },
    {
      "inputs": [
        {
          "internalType": "enum RightsManager.Permissions",
          "name": "permission",
          "type": "uint8"
        }
      ],
      "name": "hasPermission",
      "outputs": [
        {
          "internalType": "bool",
          "name": "",
          "type": "bool"
        }
      ],
      "stateMutability": "view",
      "type": "function"
    },
    {
      "inputs": [
        {
          "internalType": "address",
          "name": "spender",
          "type": "address"
        },
        {
          "internalType": "uint256",
          "name": "amount",
          "type": "uint256"
        }
      ],
      "name": "increaseApproval",
      "outputs": [
        {
          "internalType": "bool",
          "name": "",
          "type": "bool"
        }
      ],
      "stateMutability": "nonpayable",
      "type": "function"
    },
    {
      "inputs": [],
      "name": "isPublicSwap",
      "outputs": [
        {
          "internalType": "bool",
          "name": "",
          "type": "bool"
        }
      ],
      "stateMutability": "view",
      "type": "function"
    },
    {
      "inputs": [
        {
          "internalType": "uint256",
          "name": "poolAmountOut",
          "type": "uint256"
        },
        {
          "internalType": "uint256[]",
          "name": "maxAmountsIn",
          "type": "uint256[]"
        }
      ],
      "name": "joinPool",
      "outputs": [],
      "stateMutability": "nonpayable",
      "type": "function"
    },
    {
      "inputs": [
        {
          "internalType": "address",
          "name": "tokenIn",
          "type": "address"
        },
        {
          "internalType": "uint256",
          "name": "tokenAmountIn",
          "type": "uint256"
        },
        {
          "internalType": "uint256",
          "name": "minPoolAmountOut",
          "type": "uint256"
        }
      ],
      "name": "joinswapExternAmountIn",
      "outputs": [
        {
          "internalType": "uint256",
          "name": "poolAmountOut",
          "type": "uint256"
        }
      ],
      "stateMutability": "nonpayable",
      "type": "function"
    },
    {
      "inputs": [
        {
          "internalType": "address",
          "name": "tokenIn",
          "type": "address"
        },
        {
          "internalType": "uint256",
          "name": "poolAmountOut",
          "type": "uint256"
        },
        {
          "internalType": "uint256",
          "name": "maxAmountIn",
          "type": "uint256"
        }
      ],
      "name": "joinswapPoolAmountOut",
      "outputs": [
        {
          "internalType": "uint256",
          "name": "tokenAmountIn",
          "type": "uint256"
        }
      ],
      "stateMutability": "nonpayable",
      "type": "function"
    },
    {
      "inputs": [],
      "name": "minimumWeightChangeBlockPeriod",
      "outputs": [
        {
          "internalType": "uint256",
          "name": "",
          "type": "uint256"
        }
      ],
      "stateMutability": "view",
      "type": "function"
    },
    {
      "inputs": [
        {
          "internalType": "uint256",
          "name": "amount",
          "type": "uint256"
        }
      ],
      "name": "mintPoolShareFromLib",
      "outputs": [],
      "stateMutability": "nonpayable",
      "type": "function"
    },
    {
      "inputs": [],
      "name": "name",
      "outputs": [
        {
          "internalType": "string",
          "name": "",
          "type": "string"
        }
      ],
      "stateMutability": "view",
      "type": "function"
    },
    {
      "inputs": [],
      "name": "newToken",
      "outputs": [
        {
          "internalType": "address",
          "name": "addr",
          "type": "address"
        },
        {
          "internalType": "bool",
          "name": "isCommitted",
          "type": "bool"
        },
        {
          "internalType": "uint256",
          "name": "commitBlock",
          "type": "uint256"
        },
        {
          "internalType": "uint256",
          "name": "denorm",
          "type": "uint256"
        },
        {
          "internalType": "uint256",
          "name": "balance",
          "type": "uint256"
        }
      ],
      "stateMutability": "view",
      "type": "function"
    },
    {
      "inputs": [],
      "name": "pokeWeights",
      "outputs": [],
      "stateMutability": "nonpayable",
      "type": "function"
    },
    {
      "inputs": [
        {
          "internalType": "address",
          "name": "from",
          "type": "address"
        },
        {
          "internalType": "uint256",
          "name": "amount",
          "type": "uint256"
        }
      ],
      "name": "pullPoolShareFromLib",
      "outputs": [],
      "stateMutability": "nonpayable",
      "type": "function"
    },
    {
      "inputs": [
        {
          "internalType": "address",
          "name": "to",
          "type": "address"
        },
        {
          "internalType": "uint256",
          "name": "amount",
          "type": "uint256"
        }
      ],
      "name": "pushPoolShareFromLib",
      "outputs": [],
      "stateMutability": "nonpayable",
      "type": "function"
    },
    {
      "inputs": [
        {
          "internalType": "address",
          "name": "token",
          "type": "address"
        }
      ],
      "name": "removeToken",
      "outputs": [],
      "stateMutability": "nonpayable",
      "type": "function"
    },
    {
      "inputs": [
        {
          "internalType": "address",
          "name": "provider",
          "type": "address"
        }
      ],
      "name": "removeWhitelistedLiquidityProvider",
      "outputs": [],
      "stateMutability": "nonpayable",
      "type": "function"
    },
    {
      "inputs": [
        {
          "internalType": "address",
          "name": "token",
          "type": "address"
        }
      ],
      "name": "resyncWeight",
      "outputs": [],
      "stateMutability": "nonpayable",
      "type": "function"
    },
    {
      "inputs": [],
      "name": "rights",
      "outputs": [
        {
          "internalType": "bool",
          "name": "canPauseSwapping",
          "type": "bool"
        },
        {
          "internalType": "bool",
          "name": "canChangeSwapFee",
          "type": "bool"
        },
        {
          "internalType": "bool",
          "name": "canChangeWeights",
          "type": "bool"
        },
        {
          "internalType": "bool",
          "name": "canAddRemoveTokens",
          "type": "bool"
        },
        {
          "internalType": "bool",
          "name": "canWhitelistLPs",
          "type": "bool"
        },
        {
          "internalType": "bool",
          "name": "canChangeCap",
          "type": "bool"
        }
      ],
      "stateMutability": "view",
      "type": "function"
    },
    {
      "inputs": [
        {
          "internalType": "uint256",
          "name": "newCap",
          "type": "uint256"
        }
      ],
      "name": "setCap",
      "outputs": [],
      "stateMutability": "nonpayable",
      "type": "function"
    },
    {
      "inputs": [
        {
          "internalType": "address",
          "name": "newOwner",
          "type": "address"
        }
      ],
      "name": "setController",
      "outputs": [],
      "stateMutability": "nonpayable",
      "type": "function"
    },
    {
      "inputs": [
        {
          "internalType": "bool",
          "name": "publicSwap",
          "type": "bool"
        }
      ],
      "name": "setPublicSwap",
      "outputs": [],
      "stateMutability": "nonpayable",
      "type": "function"
    },
    {
      "inputs": [
        {
          "internalType": "uint256",
          "name": "swapFee",
          "type": "uint256"
        }
      ],
      "name": "setSwapFee",
      "outputs": [],
      "stateMutability": "nonpayable",
      "type": "function"
    },
    {
      "inputs": [],
      "name": "symbol",
      "outputs": [
        {
          "internalType": "string",
          "name": "",
          "type": "string"
        }
      ],
      "stateMutability": "view",
      "type": "function"
    },
    {
      "inputs": [],
      "name": "totalSupply",
      "outputs": [
        {
          "internalType": "uint256",
          "name": "",
          "type": "uint256"
        }
      ],
      "stateMutability": "view",
      "type": "function"
    },
    {
      "inputs": [
        {
          "internalType": "address",
          "name": "recipient",
          "type": "address"
        },
        {
          "internalType": "uint256",
          "name": "amount",
          "type": "uint256"
        }
      ],
      "name": "transfer",
      "outputs": [
        {
          "internalType": "bool",
          "name": "",
          "type": "bool"
        }
      ],
      "stateMutability": "nonpayable",
      "type": "function"
    },
    {
      "inputs": [
        {
          "internalType": "address",
          "name": "sender",
          "type": "address"
        },
        {
          "internalType": "address",
          "name": "recipient",
          "type": "address"
        },
        {
          "internalType": "uint256",
          "name": "amount",
          "type": "uint256"
        }
      ],
      "name": "transferFrom",
      "outputs": [
        {
          "internalType": "bool",
          "name": "",
          "type": "bool"
        }
      ],
      "stateMutability": "nonpayable",
      "type": "function"
    },
    {
      "inputs": [
        {
          "internalType": "address",
          "name": "token",
          "type": "address"
        },
        {
          "internalType": "uint256",
          "name": "newWeight",
          "type": "uint256"
        }
      ],
      "name": "updateWeight",
      "outputs": [],
      "stateMutability": "nonpayable",
      "type": "function"
    },
    {
      "inputs": [
        {
          "internalType": "uint256[]",
          "name": "newWeights",
          "type": "uint256[]"
        },
        {
          "internalType": "uint256",
          "name": "startBlock",
          "type": "uint256"
        },
        {
          "internalType": "uint256",
          "name": "endBlock",
          "type": "uint256"
        }
      ],
      "name": "updateWeightsGradually",
      "outputs": [],
      "stateMutability": "nonpayable",
      "type": "function"
    },
    {
      "inputs": [
        {
          "internalType": "address",
          "name": "provider",
          "type": "address"
        }
      ],
      "name": "whitelistLiquidityProvider",
      "outputs": [],
      "stateMutability": "nonpayable",
      "type": "function"
    }
  ],
  "transactionHash": "0x0c3236af2d1f9c8900222be895e614289f9769f2e735928e3d4441d00deededa",
  "args": [
    "0xdB7057BCC60562Ea4971C8471640633Dd6B65319",
    {
      "poolTokenSymbol": "BAL-REBASING-SMART-V1-tLPT-LPT",
      "poolTokenName": "Balancer Rebasing Smart Pool Token V1 (tLPT-LPT)",
      "constituentTokens": [
        "0x6b903e6751e10d9F8AEa932891DED743F2F22616",
        "0xe80110C0a290c493C543148c5445a23D3403a096"
      ],
      "tokenBalances": [
        "50000000000000000000000",
        "50000000000000000000000"
      ],
      "tokenWeights": [
        "7071067811870000000",
        "7071067811870000000"
      ],
      "swapFee": "3000000000000000"
    },
    {
      "canPauseSwapping": true,
      "canChangeSwapFee": true,
      "canChangeWeights": true,
      "canAddRemoveTokens": false,
      "canWhitelistLPs": false,
      "canChangeCap": false
    }
  ],
  "solcInputHash": "1eb9c33d518bac0f324a602891a799da",
  "bytecode": "0x60806040523480156200001157600080fd5b506040516200585038038062005850833981016040819052620000349162000708565b828282816000015182602001518160039080519060200190620000599291906200036d565b5080516200006f9060049060208401906200036d565b5050600580546001600160a01b03191633179055506001600655620f4240670de0b6b3a7640000048260a001511015620000c65760405162461bcd60e51b8152600401620000bd9062000967565b60405180910390fd5b60a082015167016345785d8a00001015620000f55760405162461bcd60e51b8152600401620000bd9062000967565b81604001515182606001515114620001215760405162461bcd60e51b8152600401620000bd9062000904565b816040015151826080015151146200014d5760405162461bcd60e51b8152600401620000bd9062000896565b60028260400151511015620001765760405162461bcd60e51b8152600401620000bd906200093b565b600882604001515111156200019f5760405162461bcd60e51b8152600401620000bd906200099e565b60408083015190516377d4434960e01b815273446007a78FD82Ad71e55cCB5b02E0DE1C40Dfbf0916377d4434991620001dc919060040162000847565b60006040518083038186803b158015620001f557600080fd5b505af41580156200020a573d6000803e3d6000fd5b5050600780546001600160a01b0319166001600160a01b03871617905550508051600980546020808501516040808701516060880151608089015160a08a015160ff199097169815159890981761ff001916610100941515949094029390931762ff0000191662010000911515919091021763ff00000019166301000000921515929092029190911760ff60201b1916640100000000951515959095029490941760ff60281b1916650100000000009215159290920291909117909155908301518051620002dd926013920190620003f2565b5060608201518051620002f99160149160209091019062000458565b5060a082015160125562015f906015556101f4601655608082015180516200032a91600c9160209091019062000458565b50506000600a55505060001960185560095462010000900460ff16620003645760405162461bcd60e51b8152600401620000bd90620008cd565b50505062000a1c565b828054600181600116156101000203166002900490600052602060002090601f016020900481019282601f10620003b057805160ff1916838001178555620003e0565b82800160010185558215620003e0579182015b82811115620003e0578251825591602001919060010190620003c3565b50620003ee92915062000495565b5090565b8280548282559060005260206000209081019282156200044a579160200282015b828111156200044a57825182546001600160a01b0319166001600160a01b0390911617825560209092019160019091019062000413565b50620003ee929150620004ac565b828054828255906000526020600020908101928215620003e05791602002820182811115620003e0578251825591602001919060010190620003c3565b5b80821115620003ee576000815560010162000496565b5b80821115620003ee5780546001600160a01b0319168155600101620004ad565b80516001600160a01b0381168114620004e557600080fd5b92915050565b600082601f830112620004fc578081fd5b8151620005136200050d82620009fc565b620009d5565b8181529150602080830190848101818402860182018710156200053557600080fd5b60005b8481101562000560576200054d8883620004cd565b8452928201929082019060010162000538565b505050505092915050565b600082601f8301126200057c578081fd5b81516200058d6200050d82620009fc565b818152915060208083019084810181840286018201871015620005af57600080fd5b60005b848110156200056057815184529282019290820190600101620005b2565b80518015158114620004e557600080fd5b600082601f830112620005f2578081fd5b81516001600160401b0381111562000608578182fd5b60206200061e601f8301601f19168201620009d5565b925081835284818386010111156200063557600080fd5b60005b828110156200065557848101820151848201830152810162000638565b82811115620006675760008284860101525b50505092915050565b600060c0828403121562000682578081fd5b6200068e60c0620009d5565b90506200069c8383620005d0565b8152620006ad8360208401620005d0565b6020820152620006c18360408401620005d0565b6040820152620006d58360608401620005d0565b6060820152620006e98360808401620005d0565b6080820152620006fd8360a08401620005d0565b60a082015292915050565b600080600061010084860312156200071e578283fd5b6200072a8585620004cd565b60208501519093506001600160401b038082111562000747578384fd5b9085019060c082880312156200075b578384fd5b6200076760c0620009d5565b82518281111562000776578586fd5b6200078489828601620005e1565b82525060208301518281111562000799578586fd5b620007a789828601620005e1565b602083015250604083015182811115620007bf578586fd5b620007cd89828601620004eb565b604083015250606083015182811115620007e5578586fd5b620007f3898286016200056b565b6060830152506080830151828111156200080b578586fd5b62000819898286016200056b565b60808301525060a083015160a08201528094505050506200083e856040860162000670565b90509250925092565b6020808252825182820181905260009190848201906040850190845b818110156200088a5783516001600160a01b03168352928401929184019160010162000863565b50909695505050505050565b6020808252601a908201527f4552525f53544152545f574549474854535f4d49534d41544348000000000000604082015260600190565b6020808252601c908201527f4552525f4e4f545f434f4e464947555241424c455f5745494748545300000000604082015260600190565b6020808252601b908201527f4552525f53544152545f42414c414e4345535f4d49534d415443480000000000604082015260600190565b6020808252601290820152714552525f544f4f5f4645575f544f4b454e5360701b604082015260600190565b60208082526014908201527f4552525f494e56414c49445f535741505f464545000000000000000000000000604082015260600190565b60208082526013908201527f4552525f544f4f5f4d414e595f544f4b454e5300000000000000000000000000604082015260600190565b6040518181016001600160401b0381118282101715620009f457600080fd5b604052919050565b60006001600160401b0382111562000a12578081fd5b5060209081020190565b614e248062000a2c6000396000f3fe608060405234801561001057600080fd5b506004361061035d5760003560e01c80636d06dfa0116101d3578063b02f0b7311610104578063dd62ed3e116100a2578063e7f1a5541161007c578063e7f1a554146106d2578063e854f53d146106da578063f226b528146106e2578063fde924f7146106ea5761035d565b8063dd62ed3e146106a4578063e211b875146106b7578063e2762d4b146106bf5761035d565b8063c3391d27116100de578063c3391d2714610652578063c42bd05a14610665578063c83a1c2d1461067e578063d73dd623146106915761035d565b8063b02f0b731461062f578063b64ef17b14610642578063c275d81b1461064a5761035d565b80639776e94b116101715780639d829c2b1161014b5780639d829c2b14610604578063a3f4df7e1461060c578063a835a0de14610614578063a9059cbb1461061c5761035d565b80639776e94b146105d4578063980e8db6146105e25780639a82417e146105fc5761035d565b8063806c6f87116101ad578063806c6f871461059357806392eefe9b146105a6578063948d8ce6146105b957806395d89b41146105cc5761035d565b80636d06dfa01461056557806370a082311461057857806374983a0d1461058b5761035d565b8063313ce567116102ad5780634c20d2091161024b5780635a8342d8116102255780635a8342d8146105165780635db342771461052c5780635fa7b5841461053f57806366188463146105525761035d565b80634c20d209146104dd5780634f69c0d4146104f057806355c32a23146105035761035d565b806346ab38f11161028757806346ab38f11461049157806347786d37146104a457806349b59552146104b75780634ba57882146104ca5761035d565b8063313ce5671461046357806334e199071461046b57806337c6f4d91461047e5761035d565b80630f93ab471161031a57806323b872dd116102f457806323b872dd14610420578063246bc19b146104335780632e0f2625146104465780633018205f1461045b5761035d565b80630f93ab47146103f257806318160ddd14610405578063220eb7601461040d5761035d565b806302c967481461036257806306fdde031461038b578063095dcccc146103a0578063095ea7b3146103b55780630a165940146103d55780630ce27925146103ea575b600080fd5b6103756103703660046141f1565b6106f2565b6040516103829190614d34565b60405180910390f35b6103936108b9565b6040516103829190614708565b6103b36103ae3660046141c6565b61094f565b005b6103c86103c33660046141c6565b61097c565b6040516103829190614591565b6103dd6109d5565b60405161038291906144d7565b6103756109e4565b6103b3610400366004614132565b6109ea565b61037561105a565b6103b361041b3660046143bb565b611060565b6103c861042e366004614186565b61108b565b6103b36104413660046142be565b6111b9565b61044e61125d565b6040516103829190614d4b565b6103dd611262565b61044e611271565b6103b36104793660046143bb565b611276565b6103c861048c36600461439c565b6113bb565b61037561049f3660046141f1565b611450565b6103b36104b23660046143bb565b6115fe565b6103b36104c5366004614348565b61172c565b6103b36104d83660046143bb565b611832565b6103b36104eb3660046141f1565b61185a565b6103b36104fe3660046143eb565b611a7b565b6103b36105113660046141c6565b611e7c565b61051e611ea5565b604051610382929190614d3d565b61037561053a3660046141f1565b611eae565b6103b361054d366004614132565b612073565b6103c86105603660046141c6565b61220e565b6103756105733660046141f1565b6122e8565b610375610586366004614132565b6124ad565b6103dd6124c8565b6103c86105a1366004614132565b6124e0565b6103b36105b4366004614132565b612529565b6103756105c7366004614132565b6125d5565b6103936126a2565b6103b36104413660046141c6565b6105ea612703565b6040516103829695949392919061459c565b6103dd61273e565b6103dd612756565b61039361276e565b61037561279d565b6103c861062a3660046141c6565b6127a3565b6103b361063d3660046143eb565b6127df565b6103dd612b73565b6103b3612b82565b6103b36106603660046144a6565b612ce1565b61066d612daa565b604051610382959493929190614529565b6103b361068c366004614132565b612dd1565b6103c861069f3660046141c6565b612ec4565b6103756106b236600461414e565b612f38565b6103b3612f63565b6103b36106cd366004614132565b612fc5565b6103756130ec565b6103756130f2565b6103756130f8565b6103c86130ff565b60405160009033906001600160e01b03198335169061071490849036906145cc565b60405180910390a2600260065414156107485760405162461bcd60e51b815260040161073f906149be565b60405180910390fd5b60026006556008546001600160a01b03166107755760405162461bcd60e51b815260040161073f90614916565b60085460405163724a2d5360e01b8152600091829173446007a78FD82Ad71e55cCB5b02E0DE1C40Dfbf09163724a2d53916107c69130916001600160a01b03909116908b908b908b9060040161464f565b604080518083038186803b1580156107dd57600080fd5b505af41580156107f1573d6000803e3d6000fd5b505050506040513d601f19601f820116820180604052508101906108159190614435565b91509150809250600061082884846131d7565b9050866001600160a01b0316336001600160a01b03167fc62fc35ac75e3bff532648e2859a3e1694002cfa357614ae8e034df7f83db5e98860405161086d9190614d34565b60405180910390a361087f3385611e9b565b6108888161107f565b60075461089e906001600160a01b03168461096e565b6108a9873388613210565b5050505b60016006559392505050565b60048054604080516020601f60026000196101006001881615020190951694909404938401819004810282018101909252828152606093909290918301828280156109455780601f1061091a57610100808354040283529160200191610945565b820191906000526020600020905b81548152906001019060200180831161092857829003601f168201915b5050505050905090565b33301461096e5760405162461bcd60e51b815260040161073f9061475b565b6109788282613459565b5050565b3360008181526002602090815260408083206001600160a01b03871680855292528083208590555191929091600080516020614dcf833981519152906109c3908690614d34565b60405180910390a35060015b92915050565b6007546001600160a01b031681565b60185481565b336001600160a01b03166000356001600160e01b0319166001600160e01b031916600036604051610a1c9291906145cc565b60405180910390a260026006541415610a475760405162461bcd60e51b815260040161073f906149be565b60026006556008546001600160a01b0316610a745760405162461bcd60e51b815260040161073f90614916565b600854604051630bcded8960e21b81526001600160a01b0390911690632f37b62490610aa49084906004016144d7565b60206040518083038186803b158015610abc57600080fd5b505afa158015610ad0573d6000803e3d6000fd5b505050506040513d601f19601f82011682018060405250810190610af49190614364565b610b105760405162461bcd60e51b815260040161073f906149e3565b60085460405163f8b2cb4f60e01b81526000916001600160a01b03169063f8b2cb4f90610b419085906004016144d7565b60206040518083038186803b158015610b5957600080fd5b505afa158015610b6d573d6000803e3d6000fd5b505050506040513d601f19601f82011682018060405250810190610b9191906143d3565b600854604051631185197d60e31b81529192506001600160a01b031690638c28cbe890610bc29085906004016144d7565b600060405180830381600087803b158015610bdc57600080fd5b505af1158015610bf0573d6000803e3d6000fd5b505060085460405163f8b2cb4f60e01b8152600093506001600160a01b03909116915063f8b2cb4f90610c279086906004016144d7565b60206040518083038186803b158015610c3f57600080fd5b505afa158015610c53573d6000803e3d6000fd5b505050506040513d601f19601f82011682018060405250810190610c7791906143d3565b905080821415610c88575050611052565b600854604051634a46c67360e11b81526000916001600160a01b03169063948d8ce690610cb99087906004016144d7565b60206040518083038186803b158015610cd157600080fd5b505afa158015610ce5573d6000803e3d6000fd5b505050506040513d601f19601f82011682018060405250810190610d0991906143d3565b90506000610d20610d1a8385613464565b856134e1565b90506000610d40610d3b610d348585613464565b60016134e1565b613572565b90506060600860009054906101000a90046001600160a01b03166001600160a01b031663cc77828d6040518163ffffffff1660e01b815260040160006040518083038186803b158015610d9257600080fd5b505afa158015610da6573d6000803e3d6000fd5b505050506040513d6000823e601f3d908101601f19168201604052610dce9190810190614225565b905060005b815181101561104a57876001600160a01b0316828281518110610df257fe5b60200260200101516001600160a01b03161415610e7457600854604051631feeed5160e11b81526001600160a01b0390911690633fdddaa290610e3d908b908a908890600401614570565b600060405180830381600087803b158015610e5757600080fd5b505af1158015610e6b573d6000803e3d6000fd5b50505050611042565b60085482516000916001600160a01b03169063948d8ce690859085908110610e9857fe5b60200260200101516040518263ffffffff1660e01b8152600401610ebc91906144d7565b60206040518083038186803b158015610ed457600080fd5b505afa158015610ee8573d6000803e3d6000fd5b505050506040513d601f19601f82011682018060405250810190610f0c91906143d3565b60085484519192506000916001600160a01b039091169063f8b2cb4f90869086908110610f3557fe5b60200260200101516040518263ffffffff1660e01b8152600401610f5991906144d7565b60206040518083038186803b158015610f7157600080fd5b505afa158015610f85573d6000803e3d6000fd5b505050506040513d601f19601f82011682018060405250810190610fa991906143d3565b90506000610fc0610fba8785613464565b886134e1565b60085486519192506001600160a01b031690633fdddaa290879087908110610fe457fe5b602002602001015184846040518463ffffffff1660e01b815260040161100c93929190614570565b600060405180830381600087803b15801561102657600080fd5b505af115801561103a573d6000803e3d6000fd5b505050505050505b600101610dd3565b505050505050505b506001600655565b60005490565b33301461107f5760405162461bcd60e51b815260040161073f9061475b565b611088816135c3565b50565b60006001600160a01b0383166110b35760405162461bcd60e51b815260040161073f90614885565b336001600160a01b03851614806110ed57506001600160a01b03841660009081526002602090815260408083203384529091529020548211155b6111095760405162461bcd60e51b815260040161073f90614b3d565b61111484848461363d565b6001600160a01b038416600081815260026020908152604080832033808552925290912054911480159061114a57506000198114155b156111ac5761115981846131d7565b6001600160a01b038681166000908152600260209081526040808320338085529252918290208490559051918716929091600080516020614dcf833981519152916111a391614d34565b60405180910390a35b60019150505b9392505050565b336001600160a01b03166000356001600160e01b0319166001600160e01b0319166000366040516111eb9291906145cc565b60405180910390a26005546001600160a01b0316331461121d5760405162461bcd60e51b815260040161073f9061475b565b6008546001600160a01b03166112455760405162461bcd60e51b815260040161073f90614916565b60405162461bcd60e51b815260040161073f906147f3565b601281565b6005546001600160a01b031690565b601290565b336001600160a01b03166000356001600160e01b0319166001600160e01b0319166000366040516112a89291906145cc565b60405180910390a2600260065414156112d35760405162461bcd60e51b815260040161073f906149be565b60026006556005546001600160a01b031633146113025760405162461bcd60e51b815260040161073f9061475b565b6008546001600160a01b031661132a5760405162461bcd60e51b815260040161073f90614916565b600954610100900460ff166113515760405162461bcd60e51b815260040161073f90614c51565b6008546040516334e1990760e01b81526001600160a01b03909116906334e1990790611381908490600401614d34565b600060405180830381600087803b15801561139b57600080fd5b505af11580156113af573d6000803e3d6000fd5b50506001600655505050565b6040516322c1aa2560e11b815260009073cc24Ff776A41bf462909c4c4Af3E51c1ED7E517690634583544a906113f8906009908690600401614cbf565b60206040518083038186803b15801561141057600080fd5b505af4158015611424573d6000803e3d6000fd5b505050506040513d601f19601f820116820180604052508101906114489190614364565b90505b919050565b60405160009033906001600160e01b03198335169061147290849036906145cc565b60405180910390a26002600654141561149d5760405162461bcd60e51b815260040161073f906149be565b60026006556008546001600160a01b03166114ca5760405162461bcd60e51b815260040161073f90614916565b600854604051636a82d4a760e11b8152600091829173446007a78FD82Ad71e55cCB5b02E0DE1C40Dfbf09163d505a94e9161151b9130916001600160a01b03909116908b908b908b9060040161464f565b604080518083038186803b15801561153257600080fd5b505af4158015611546573d6000803e3d6000fd5b505050506040513d601f19601f8201168201806040525081019061156a9190614435565b91509150809250600061157d86846131d7565b9050866001600160a01b0316336001600160a01b03167fc62fc35ac75e3bff532648e2859a3e1694002cfa357614ae8e034df7f83db5e9866040516115c29190614d34565b60405180910390a36115d43387611e9b565b6115dd8161107f565b6007546115f3906001600160a01b03168461096e565b6108a9873386613210565b336001600160a01b03166000356001600160e01b0319166001600160e01b0319166000366040516116309291906145cc565b60405180910390a26002600654141561165b5760405162461bcd60e51b815260040161073f906149be565b60026006556008546001600160a01b03166116885760405162461bcd60e51b815260040161073f90614916565b6005546001600160a01b031633146116b25760405162461bcd60e51b815260040161073f9061475b565b60095465010000000000900460ff166116dd5760405162461bcd60e51b815260040161073f90614a8b565b336001600160a01b03167f6bc200110c7794738d401810b22ef824a2044a8ccb022d4ad8769840370331f56018548360405161171a929190614d3d565b60405180910390a26018556001600655565b336001600160a01b03166000356001600160e01b0319166001600160e01b03191660003660405161175e9291906145cc565b60405180910390a2600260065414156117895760405162461bcd60e51b815260040161073f906149be565b60026006556005546001600160a01b031633146117b85760405162461bcd60e51b815260040161073f9061475b565b6008546001600160a01b03166117e05760405162461bcd60e51b815260040161073f90614916565b60095460ff166118025760405162461bcd60e51b815260040161073f90614bcd565b6008546040516324dacaa960e11b81526001600160a01b03909116906349b5955290611381908490600401614591565b3330146118515760405162461bcd60e51b815260040161073f9061475b565b611088816136ee565b336001600160a01b03166000356001600160e01b0319166001600160e01b03191660003660405161188c9291906145cc565b60405180910390a2600260065414156118b75760405162461bcd60e51b815260040161073f906149be565b60026006556005546001600160a01b031633146118e65760405162461bcd60e51b815260040161073f9061475b565b6008546001600160a01b031661190e5760405162461bcd60e51b815260040161073f90614916565b6009546301000000900460ff166119375760405162461bcd60e51b815260040161073f90614787565b600a54156119575760405162461bcd60e51b815260040161073f90614c88565b604051630e0d789b60e11b815273446007a78FD82Ad71e55cCB5b02E0DE1C40Dfbf090631c1af1369061198e9086906004016144d7565b60006040518083038186803b1580156119a657600080fd5b505af41580156119ba573d6000803e3d6000fd5b50506040513392503091506001600160a01b038616907f33b043686b9408a355896fe90b2f8ecc86a41d87d1554ef65a739948b4f23e2790600090a460085460405163b489ec1960e01b815273446007a78FD82Ad71e55cCB5b02E0DE1C40Dfbf09163b489ec1991611a41916001600160a01b031690879087908790600e906004016145fb565b60006040518083038186803b158015611a5957600080fd5b505af4158015611a6d573d6000803e3d6000fd5b505060016006555050505050565b336001600160a01b03166000356001600160e01b0319166001600160e01b031916600036604051611aad9291906145cc565b60405180910390a260026006541415611ad85760405162461bcd60e51b815260040161073f906149be565b60026006556008546001600160a01b0316611b055760405162461bcd60e51b815260040161073f90614916565b6008546040805163fde924f760e01b815290516000926001600160a01b03169163fde924f7916004808301926020929190829003018186803b158015611b4a57600080fd5b505afa158015611b5e573d6000803e3d6000fd5b505050506040513d601f19601f82011682018060405250810190611b829190614364565b6008546040516324dacaa960e11b81529192506001600160a01b0316906349b5955290611bb490600090600401614591565b600060405180830381600087803b158015611bce57600080fd5b505af1158015611be2573d6000803e3d6000fd5b5050600954600160201b900460ff16159150819050611c1057503360009081526017602052604090205460ff165b611c2c5760405162461bcd60e51b815260040161073f9061482a565b60085460405163a1925f1d60e01b815260609173446007a78FD82Ad71e55cCB5b02E0DE1C40Dfbf09163a1925f1d91611c799130916001600160a01b0316908a908a908a90600401614683565b60006040518083038186803b158015611c9157600080fd5b505af4158015611ca5573d6000803e3d6000fd5b505050506040513d6000823e601f3d908101601f19168201604052611ccd919081019061430d565b90506060600860009054906101000a90046001600160a01b03166001600160a01b031663cc77828d6040518163ffffffff1660e01b815260040160006040518083038186803b158015611d1f57600080fd5b505afa158015611d33573d6000803e3d6000fd5b505050506040513d6000823e601f3d908101601f19168201604052611d5b9190810190614225565b905060005b8151811015611df9576000828281518110611d7757fe5b602002602001015190506000848381518110611d8f57fe5b60200260200101519050816001600160a01b0316336001600160a01b03167fea39e3b35c5cd8937999ed5f7fbab30acd562a931fc4a887fed2a47c3074aa7283604051611ddc9190614d34565b60405180910390a3611def82338361371b565b5050600101611d60565b50611e0386611851565b611e0d338761096e565b50506008546040516324dacaa960e11b81526001600160a01b03909116906349b5955290611e3f908490600401614591565b600060405180830381600087803b158015611e5957600080fd5b505af1158015611e6d573d6000803e3d6000fd5b50506001600655505050505050565b333014611e9b5760405162461bcd60e51b815260040161073f9061475b565b6109788282613964565b600a54600b5482565b60405160009033906001600160e01b031983351690611ed090849036906145cc565b60405180910390a260026006541415611efb5760405162461bcd60e51b815260040161073f906149be565b60026006556008546001600160a01b0316611f285760405162461bcd60e51b815260040161073f90614916565b600954600160201b900460ff161580611f5057503360009081526017602052604090205460ff165b611f6c5760405162461bcd60e51b815260040161073f9061482a565b60085460405163df90de0b60e01b815273446007a78FD82Ad71e55cCB5b02E0DE1C40Dfbf09163df90de0b91611fb89130916001600160a01b039091169089908990899060040161464f565b60206040518083038186803b158015611fd057600080fd5b505af4158015611fe4573d6000803e3d6000fd5b505050506040513d601f19601f8201168201806040525081019061200891906143d3565b9050836001600160a01b0316336001600160a01b03167fea39e3b35c5cd8937999ed5f7fbab30acd562a931fc4a887fed2a47c3074aa728560405161204d9190614d34565b60405180910390a361205e81611851565b612068338261096e565b6108ad84338561371b565b336001600160a01b03166000356001600160e01b0319166001600160e01b0319166000366040516120a59291906145cc565b60405180910390a2600260065414156120d05760405162461bcd60e51b815260040161073f906149be565b60026006556005546001600160a01b031633146120ff5760405162461bcd60e51b815260040161073f9061475b565b6008546001600160a01b03166121275760405162461bcd60e51b815260040161073f90614916565b6009546301000000900460ff166121505760405162461bcd60e51b815260040161073f90614787565b600e54600160a01b900460ff161561217a5760405162461bcd60e51b815260040161073f90614b6d565b600a541561219a5760405162461bcd60e51b815260040161073f90614c88565b600854604051630970e47f60e01b815273446007a78FD82Ad71e55cCB5b02E0DE1C40Dfbf091630970e47f916121e29130916001600160a01b0390911690869060040161462c565b60006040518083038186803b1580156121fa57600080fd5b505af41580156113af573d6000803e3d6000fd5b3360009081526002602090815260408083206001600160a01b0386168452909152812054808310612262573360009081526002602090815260408083206001600160a01b0388168452909152812055612291565b61226c81846131d7565b3360009081526002602090815260408083206001600160a01b03891684529091529020555b3360008181526002602090815260408083206001600160a01b038916808552925291829020549151909291600080516020614dcf833981519152916122d69190614d34565b60405180910390a35060019392505050565b60405160009033906001600160e01b03198335169061230a90849036906145cc565b60405180910390a2600260065414156123355760405162461bcd60e51b815260040161073f906149be565b60026006556008546001600160a01b03166123625760405162461bcd60e51b815260040161073f90614916565b600954600160201b900460ff16158061238a57503360009081526017602052604090205460ff165b6123a65760405162461bcd60e51b815260040161073f9061482a565b600854604051636a6dc6e760e01b815273446007a78FD82Ad71e55cCB5b02E0DE1C40Dfbf091636a6dc6e7916123f29130916001600160a01b039091169089908990899060040161464f565b60206040518083038186803b15801561240a57600080fd5b505af415801561241e573d6000803e3d6000fd5b505050506040513d601f19601f8201168201806040525081019061244291906143d3565b9050836001600160a01b0316336001600160a01b03167fea39e3b35c5cd8937999ed5f7fbab30acd562a931fc4a887fed2a47c3074aa72836040516124879190614d34565b60405180910390a361249883611851565b6124a2338461096e565b6108ad84338361371b565b6001600160a01b031660009081526001602052604090205490565b73cc24Ff776A41bf462909c4c4Af3E51c1ED7E517690565b600954600090600160201b900460ff161561251757506001600160a01b03811660009081526017602052604090205460ff1661144b565b506001600160a01b038116151561144b565b6005546001600160a01b031633146125535760405162461bcd60e51b815260040161073f9061475b565b6001600160a01b0381166125795760405162461bcd60e51b815260040161073f90614885565b6005546040516001600160a01b038084169216907f8be0079c531659141344cd1fd0a4f28419497f9722a3daafe3b4186f6b6457e090600090a3600580546001600160a01b0319166001600160a01b0392909216919091179055565b6000600260065414156125fa5760405162461bcd60e51b815260040161073f90614a0a565b6008546001600160a01b03166126225760405162461bcd60e51b815260040161073f90614916565b600854604051634a46c67360e11b81526001600160a01b039091169063948d8ce6906126529085906004016144d7565b60206040518083038186803b15801561266a57600080fd5b505afa15801561267e573d6000803e3d6000fd5b505050506040513d601f19601f8201168201806040525081019061144891906143d3565b60038054604080516020601f60026000196101006001881615020190951694909404938401819004810282018101909252828152606093909290918301828280156109455780601f1061091a57610100808354040283529160200191610945565b60095460ff80821691610100810482169162010000820481169163010000008104821691600160201b82048116916501000000000090041686565b7352F433faD5E4E7F9a7d51743974262EaDa27d6F490565b73446007a78FD82Ad71e55cCB5b02E0DE1C40Dfbf090565b6040518060400160405280601381526020017210985b185b98d95c8814db585c9d08141bdbdb606a1b81525081565b6101f481565b60006001600160a01b0383166127cb5760405162461bcd60e51b815260040161073f90614885565b6127d633848461363d565b50600192915050565b336001600160a01b03166000356001600160e01b0319166001600160e01b0319166000366040516128119291906145cc565b60405180910390a26002600654141561283c5760405162461bcd60e51b815260040161073f906149be565b60026006556008546001600160a01b03166128695760405162461bcd60e51b815260040161073f90614916565b6008546040805163fde924f760e01b815290516000926001600160a01b03169163fde924f7916004808301926020929190829003018186803b1580156128ae57600080fd5b505afa1580156128c2573d6000803e3d6000fd5b505050506040513d601f19601f820116820180604052508101906128e69190614364565b6008546040516324dacaa960e11b81529192506001600160a01b0316906349b595529061291890600090600401614591565b600060405180830381600087803b15801561293257600080fd5b505af1158015612946573d6000803e3d6000fd5b505060085460405163151c70f960e21b81526000935083925060609173446007a78FD82Ad71e55cCB5b02E0DE1C40Dfbf091635471c3e49161299c9130916001600160a01b0316908c908c908c90600401614683565b60006040518083038186803b1580156129b457600080fd5b505af41580156129c8573d6000803e3d6000fd5b505050506040513d6000823e601f3d908101601f191682016040526129f09190810190614458565b925092509250612a003388611e9b565b600754612a16906001600160a01b03168461096e565b612a1f8261107f565b6008546040805163cc77828d60e01b815290516060926001600160a01b03169163cc77828d916004808301926000929190829003018186803b158015612a6457600080fd5b505afa158015612a78573d6000803e3d6000fd5b505050506040513d6000823e601f3d908101601f19168201604052612aa09190810190614225565b905060005b8151811015612b3e576000828281518110612abc57fe5b602002602001015190506000848381518110612ad457fe5b60200260200101519050816001600160a01b0316336001600160a01b03167fc62fc35ac75e3bff532648e2859a3e1694002cfa357614ae8e034df7f83db5e983604051612b219190614d34565b60405180910390a3612b34823383613210565b5050600101612aa5565b50506008546040516324dacaa960e11b81526001600160a01b0390911693506349b595529250611e3f91508490600401614591565b6008546001600160a01b031681565b336001600160a01b03166000356001600160e01b0319166001600160e01b031916600036604051612bb49291906145cc565b60405180910390a260026006541415612bdf5760405162461bcd60e51b815260040161073f906149be565b60026006556005546001600160a01b03163314612c0e5760405162461bcd60e51b815260040161073f9061475b565b6008546001600160a01b0316612c365760405162461bcd60e51b815260040161073f90614916565b6009546301000000900460ff16612c5f5760405162461bcd60e51b815260040161073f90614787565b600854601654604051633be961dd60e21b815273446007a78FD82Ad71e55cCB5b02E0DE1C40Dfbf09263efa5877492612caa9230926001600160a01b03169190600e906004016146df565b60006040518083038186803b158015612cc257600080fd5b505af4158015612cd6573d6000803e3d6000fd5b505060016006555050565b6005546001600160a01b03163314612d0b5760405162461bcd60e51b815260040161073f9061475b565b336001600160a01b03166000356001600160e01b0319166001600160e01b031916600036604051612d3d9291906145cc565b60405180910390a260026006541415612d685760405162461bcd60e51b815260040161073f906149be565b600260065580821015612d8d5760405162461bcd60e51b815260040161073f906147be565b60158290556016819055612da08361396f565b5050600160065550565b600e54600f546010546011546001600160a01b03841693600160a01b900460ff1692919085565b6005546001600160a01b03163314612dfb5760405162461bcd60e51b815260040161073f9061475b565b60026006541415612e1e5760405162461bcd60e51b815260040161073f906149be565b60026006556040513390600080356001600160e01b03191691612e43919036906145cc565b60405180910390a2600954600160201b900460ff16612e745760405162461bcd60e51b815260040161073f906148af565b6001600160a01b038116612e9a5760405162461bcd60e51b815260040161073f90614a34565b6001600160a01b03166000908152601760205260409020805460ff19166001908117909155600655565b3360009081526002602090815260408083206001600160a01b0386168452909152812054612ef29083613e1b565b3360008181526002602090815260408083206001600160a01b03891680855292529182902084905590519092600080516020614dcf833981519152916109c39190614d34565b6001600160a01b03918216600090815260026020908152604080832093909416825291909152205490565b336001600160a01b03166000356001600160e01b0319166001600160e01b031916600036604051612f959291906145cc565b60405180910390a26008546001600160a01b03166112455760405162461bcd60e51b815260040161073f90614916565b6005546001600160a01b03163314612fef5760405162461bcd60e51b815260040161073f9061475b565b600260065414156130125760405162461bcd60e51b815260040161073f906149be565b60026006556040513390600080356001600160e01b03191691613037919036906145cc565b60405180910390a2600954600160201b900460ff166130685760405162461bcd60e51b815260040161073f906148af565b6001600160a01b03811660009081526017602052604090205460ff166130a05760405162461bcd60e51b815260040161073f906148e6565b6001600160a01b0381166130c65760405162461bcd60e51b815260040161073f90614a34565b6001600160a01b03166000908152601760205260409020805460ff191690556001600655565b60165481565b60155481565b62015f9081565b6000600260065414156131245760405162461bcd60e51b815260040161073f90614a0a565b6008546001600160a01b031661314c5760405162461bcd60e51b815260040161073f90614916565b600860009054906101000a90046001600160a01b03166001600160a01b031663fde924f76040518163ffffffff1660e01b815260040160206040518083038186803b15801561319a57600080fd5b505afa1580156131ae573d6000803e3d6000fd5b505050506040513d601f19601f820116820180604052508101906131d29190614364565b905090565b60008060006131e68585613e40565b9150915080156132085760405162461bcd60e51b815260040161073f90614bfc565b509392505050565b6008546001600160a01b03166132385760405162461bcd60e51b815260040161073f90614916565b60085460405163f8b2cb4f60e01b81526000916001600160a01b03169063f8b2cb4f906132699087906004016144d7565b60206040518083038186803b15801561328157600080fd5b505afa158015613295573d6000803e3d6000fd5b505050506040513d601f19601f820116820180604052508101906132b991906143d3565b600854604051634a46c67360e11b81529192506000916001600160a01b039091169063948d8ce6906132ef9088906004016144d7565b60206040518083038186803b15801561330757600080fd5b505afa15801561331b573d6000803e3d6000fd5b505050506040513d601f19601f8201168201806040525081019061333f91906143d3565b6008549091506001600160a01b0316633fdddaa28661335e85876131d7565b846040518463ffffffff1660e01b815260040161337d93929190614570565b600060405180830381600087803b15801561339757600080fd5b505af11580156133ab573d6000803e3d6000fd5b505060405163a9059cbb60e01b8152600092506001600160a01b038816915063a9059cbb906133e09088908890600401614557565b602060405180830381600087803b1580156133fa57600080fd5b505af115801561340e573d6000803e3d6000fd5b505050506040513d601f19601f820116820180604052508101906134329190614364565b9050806134515760405162461bcd60e51b815260040161073f90614ba4565b505050505050565b61097830838361363d565b600082613473575060006109cf565b8282028284828161348057fe5b041461349e5760405162461bcd60e51b815260040161073f90614a61565b6706f05b59d3b200008101818110156134c95760405162461bcd60e51b815260040161073f90614a61565b6000670de0b6b3a7640000825b049695505050505050565b6000816135005760405162461bcd60e51b815260040161073f90614aba565b8261350d575060006109cf565b670de0b6b3a76400008381029084828161352357fe5b04146135415760405162461bcd60e51b815260040161073f90614994565b600283048101818110156135675760405162461bcd60e51b815260040161073f90614994565b60008482816134d657fe5b600060038211156135b5575080600160028204015b818110156135af5780915060028182858161359e57fe5b0401816135a757fe5b049050613587565b5061144b565b811561144b57506001919050565b306000908152600160205260409020546135dd90826131d7565b30600090815260016020526040812091909155546135fb90826131d7565b600090815560405130907fddf252ad1be2c89b69c2b068fc378daa952ba7f163c4a11628f55a4df523b3ef90613632908590614d34565b60405180910390a350565b6001600160a01b03831660009081526001602052604090205461366090826131d7565b6001600160a01b03808516600090815260016020526040808220939093559084168152205461368f9082613e1b565b6001600160a01b0380841660008181526001602052604090819020939093559151908516907fddf252ad1be2c89b69c2b068fc378daa952ba7f163c4a11628f55a4df523b3ef906136e1908590614d34565b60405180910390a3505050565b6136f781613e65565b60185460005411156110885760405162461bcd60e51b815260040161073f90614b0e565b6008546001600160a01b03166137435760405162461bcd60e51b815260040161073f90614916565b60085460405163f8b2cb4f60e01b81526000916001600160a01b03169063f8b2cb4f906137749087906004016144d7565b60206040518083038186803b15801561378c57600080fd5b505afa1580156137a0573d6000803e3d6000fd5b505050506040513d601f19601f820116820180604052508101906137c491906143d3565b600854604051634a46c67360e11b81529192506000916001600160a01b039091169063948d8ce6906137fa9088906004016144d7565b60206040518083038186803b15801561381257600080fd5b505afa158015613826573d6000803e3d6000fd5b505050506040513d601f19601f8201168201806040525081019061384a91906143d3565b90506000856001600160a01b03166323b872dd8630876040518463ffffffff1660e01b815260040161387e939291906144eb565b602060405180830381600087803b15801561389857600080fd5b505af11580156138ac573d6000803e3d6000fd5b505050506040513d601f19601f820116820180604052508101906138d09190614364565b9050806138ef5760405162461bcd60e51b815260040161073f90614ba4565b6008546001600160a01b0316633fdddaa28761390b8688613e1b565b856040518463ffffffff1660e01b815260040161392a93929190614570565b600060405180830381600087803b15801561394457600080fd5b505af1158015613958573d6000803e3d6000fd5b50505050505050505050565b61097882308361363d565b6008546001600160a01b0316156139985760405162461bcd60e51b815260040161073f9061493f565b68056bc75e2d631000008110156139c15760405162461bcd60e51b815260040161073f90614967565b6b033b2e3c9fd0803ce80000008111156139ed5760405162461bcd60e51b815260040161073f90614858565b60095465010000000000900460ff1615613a075760188190555b613a1081611851565b613a1a338261096e565b600760009054906101000a90046001600160a01b03166001600160a01b031663d556c5dc6040518163ffffffff1660e01b8152600401602060405180830381600087803b158015613a6a57600080fd5b505af1158015613a7e573d6000803e3d6000fd5b505050506040513d601f19601f82011682018060405250810190613aa29190614380565b600880546001600160a01b0319166001600160a01b0392831617908190556040805163632c068960e11b81529051919092169163c6580d12916004808301926020929190829003018186803b158015613afa57600080fd5b505afa158015613b0e573d6000803e3d6000fd5b505050506040513d601f19601f82011682018060405250810190613b3291906143d3565b15613b4f5760405162461bcd60e51b815260040161073f90614ae0565b60005b601354811015613d1157600060138281548110613b6b57fe5b6000918252602082200154601480546001600160a01b0390921693509084908110613b9257fe5b906000526020600020015490506000600a6002018481548110613bb157fe5b60009182526020822001546040516323b872dd60e01b81529092506001600160a01b038516906323b872dd90613bef903390309088906004016144eb565b602060405180830381600087803b158015613c0957600080fd5b505af1158015613c1d573d6000803e3d6000fd5b505050506040513d601f19601f82011682018060405250810190613c419190614364565b905080613c605760405162461bcd60e51b815260040161073f90614ba4565b600854613c7c906001600160a01b038681169116600019613ed5565b905080613c9b5760405162461bcd60e51b815260040161073f90614ba4565b600854604051631c9c3ca760e31b81526001600160a01b039091169063e4e1e53890613ccf90879087908790600401614570565b600060405180830381600087803b158015613ce957600080fd5b505af1158015613cfd573d6000803e3d6000fd5b505060019096019550613b52945050505050565b505b60135415613d4d576013805480613d2657fe5b600082815260209020810160001990810180546001600160a01b0319169055019055613d13565b6008546012546040516334e1990760e01b81526001600160a01b03909216916334e1990791613d7e91600401614d34565b600060405180830381600087803b158015613d9857600080fd5b505af1158015613dac573d6000803e3d6000fd5b50506008546040516324dacaa960e11b81526001600160a01b0390911692506349b595529150613de190600190600401614591565b600060405180830381600087803b158015613dfb57600080fd5b505af1158015613e0f573d6000803e3d6000fd5b50506000601255505050565b6000828201838110156111b25760405162461bcd60e51b815260040161073f90614c27565b600080838311613e565750508082036000613e5e565b505081810360015b9250929050565b30600090815260016020526040902054613e7f9082613e1b565b3060009081526001602052604081209190915554613e9d9082613e1b565b60009081556040513091907fddf252ad1be2c89b69c2b068fc378daa952ba7f163c4a11628f55a4df523b3ef90613632908590614d34565b600080846001600160a01b031663dd62ed3e30866040518363ffffffff1660e01b8152600401613f0692919061450f565b60206040518083038186803b158015613f1e57600080fd5b505afa158015613f32573d6000803e3d6000fd5b505050506040513d601f19601f82011682018060405250810190613f5691906143d3565b905082811415613f6a5760019150506111b2565b8015613ff95760405163095ea7b360e01b81526001600160a01b0386169063095ea7b390613f9f908790600090600401614557565b602060405180830381600087803b158015613fb957600080fd5b505af1158015613fcd573d6000803e3d6000fd5b505050506040513d601f19601f82011682018060405250810190613ff19190614364565b9150506111b2565b60405163095ea7b360e01b81526001600160a01b0386169063095ea7b3906140279087908790600401614557565b602060405180830381600087803b15801561404157600080fd5b505af1158015614055573d6000803e3d6000fd5b505050506040513d601f19601f820116820180604052508101906140799190614364565b95945050505050565b60008083601f840112614093578081fd5b50813567ffffffffffffffff8111156140aa578182fd5b6020830191508360208083028501011115613e5e57600080fd5b600082601f8301126140d4578081fd5b81516140e76140e282614d80565b614d59565b81815291506020808301908481018184028601820187101561410857600080fd5b60005b848110156141275781518452928201929082019060010161410b565b505050505092915050565b600060208284031215614143578081fd5b81356111b281614dab565b60008060408385031215614160578081fd5b823561416b81614dab565b9150602083013561417b81614dab565b809150509250929050565b60008060006060848603121561419a578081fd5b83356141a581614dab565b925060208401356141b581614dab565b929592945050506040919091013590565b600080604083850312156141d8578182fd5b82356141e381614dab565b946020939093013593505050565b600080600060608486031215614205578283fd5b833561421081614dab565b95602085013595506040909401359392505050565b60006020808385031215614237578182fd5b825167ffffffffffffffff81111561424d578283fd5b8301601f8101851361425d578283fd5b805161426b6140e282614d80565b8181528381019083850185840285018601891015614287578687fd5b8694505b838510156142b257805161429e81614dab565b83526001949094019391850191850161428b565b50979650505050505050565b600080600080606085870312156142d3578081fd5b843567ffffffffffffffff8111156142e9578182fd5b6142f587828801614082565b90989097506020870135966040013595509350505050565b60006020828403121561431e578081fd5b815167ffffffffffffffff811115614334578182fd5b614340848285016140c4565b949350505050565b600060208284031215614359578081fd5b81356111b281614dc0565b600060208284031215614375578081fd5b81516111b281614dc0565b600060208284031215614391578081fd5b81516111b281614dab565b6000602082840312156143ad578081fd5b8135600681106111b2578182fd5b6000602082840312156143cc578081fd5b5035919050565b6000602082840312156143e4578081fd5b5051919050565b6000806000604084860312156143ff578081fd5b83359250602084013567ffffffffffffffff81111561441c578182fd5b61442886828701614082565b9497909650939450505050565b60008060408385031215614447578182fd5b505080516020909101519092909150565b60008060006060848603121561446c578081fd5b8351925060208401519150604084015167ffffffffffffffff811115614490578182fd5b61449c868287016140c4565b9150509250925092565b6000806000606084860312156144ba578081fd5b505081359360208301359350604090920135919050565b15159052565b6001600160a01b0391909116815260200190565b6001600160a01b039384168152919092166020820152604081019190915260600190565b6001600160a01b0392831681529116602082015260400190565b6001600160a01b03959095168552921515602085015260408401919091526060830152608082015260a00190565b6001600160a01b03929092168252602082015260400190565b6001600160a01b039390931683526020830191909152604082015260600190565b901515815260200190565b9515158652931515602086015291151560408501521515606084015215156080830152151560a082015260c00190565b60006020825282602083015282846040840137818301604090810191909152601f909201601f19160101919050565b6001600160a01b03958616815293909416602084015260408301919091526060820152608081019190915260a00190565b6001600160a01b0393841681529183166020830152909116604082015260600190565b6001600160a01b03958616815293851660208501529190931660408301526060820192909252608081019190915260a00190565b6001600160a01b0386811682528516602082015260408101849052608060608201819052810182905260006001600160fb1b038311156146c1578081fd5b60208302808560a08501379190910160a00190815295945050505050565b6001600160a01b0394851681529290931660208301526040820152606081019190915260800190565b6000602080835283518082850152825b8181101561473457858101830151858201604001528201614718565b818111156147455783604083870101525b50601f01601f1916929092016040019392505050565b60208082526012908201527122a9292fa727aa2fa1a7a72a2927a62622a960711b604082015260600190565b6020808252601c908201527f4552525f43414e4e4f545f4144445f52454d4f56455f544f4b454e5300000000604082015260600190565b6020808252818101527f4552525f494e434f4e53495354454e545f544f4b454e5f54494d455f4c4f434b604082015260600190565b60208082526019908201527f4552525f554e535550504f525445445f4f5045524154494f4e00000000000000604082015260600190565b60208082526014908201527311549497d393d517d3d397d5d2125511531254d560621b604082015260600190565b60208082526013908201527208aa4a4be929c92a8bea6aaa0a098b2be9a82b606b1b604082015260600190565b60208082526010908201526f4552525f5a45524f5f4144445245535360801b604082015260600190565b60208082526018908201527f4552525f43414e4e4f545f57484954454c4953545f4c50530000000000000000604082015260600190565b60208082526016908201527511549497d31417d393d517d5d2125511531254d5115160521b604082015260600190565b6020808252600f908201526e11549497d393d517d0d49150551151608a1b604082015260600190565b6020808252600e908201526d11549497d254d7d0d4915055115160921b604082015260600190565b60208082526013908201527222a9292fa4a724aa2fa9aaa828262cafa6a4a760691b604082015260600190565b60208082526010908201526f11549497d1125597d25395115493905360821b604082015260600190565b6020808252600b908201526a4552525f5245454e54525960a81b604082015260600190565b6020808252600d908201526c11549497d393d517d093d55391609a1b604082015260600190565b60208082526010908201526f4552525f5245454e5452595f5649455760801b604082015260600190565b6020808252601390820152724552525f494e56414c49445f4144445245535360681b604082015260600190565b60208082526010908201526f4552525f4d554c5f4f564552464c4f5760801b604082015260600190565b60208082526015908201527404552525f43414e4e4f545f4348414e47455f43415605c1b604082015260600190565b6020808252600c908201526b4552525f4449565f5a45524f60a01b604082015260600190565b6020808252601490820152734552525f4e4f4e5a45524f5f455849545f46454560601b604082015260600190565b60208082526015908201527411549497d0d05417d31253525517d4915050d21151605a1b604082015260600190565b60208082526016908201527522a9292fa821aa27a5a2a72fa120a22fa1a0a62622a960511b604082015260600190565b6020808252601b908201527f4552525f52454d4f56455f574954485f4144445f50454e44494e470000000000604082015260600190565b6020808252600f908201526e4552525f45524332305f46414c534560881b604082015260600190565b60208082526015908201527404552525f4e4f545f5041555341424c455f5357415605c1b604082015260600190565b6020808252601190820152704552525f5355425f554e444552464c4f5760781b604082015260600190565b60208082526010908201526f4552525f4144445f4f564552464c4f5760801b604082015260600190565b6020808252601d908201527f4552525f4e4f545f434f4e464947555241424c455f535741505f464545000000604082015260600190565b6020808252601c908201527f4552525f4e4f5f5550444154455f445552494e475f4752414455414c00000000604082015260600190565b600060e082019050835460ff80821615158452808260081c1615156020850152808260101c1615156040850152808260181c1615156060850152614d0b60808501828460201c166144d1565b614d1d60a08501828460281c166144d1565b5050614d2883614da0565b60c08301529392505050565b90815260200190565b918252602082015260400190565b60ff91909116815260200190565b60405181810167ffffffffffffffff81118282101715614d7857600080fd5b604052919050565b600067ffffffffffffffff821115614d96578081fd5b5060209081020190565b806006811061144b57fe5b6001600160a01b038116811461108857600080fd5b801515811461108857600080fdfe8c5be1e5ebec7d5bd14f71427d1e84f3dd0314c0f7b2291e5b200ac8c7c3b925a264697066735822122057ac1384ce722915e5e03bbc934b778b255e039b3840823327b308d856ef601f64736f6c634300060c0033",
  "deployedBytecode": "0x608060405234801561001057600080fd5b506004361061035d5760003560e01c80636d06dfa0116101d3578063b02f0b7311610104578063dd62ed3e116100a2578063e7f1a5541161007c578063e7f1a554146106d2578063e854f53d146106da578063f226b528146106e2578063fde924f7146106ea5761035d565b8063dd62ed3e146106a4578063e211b875146106b7578063e2762d4b146106bf5761035d565b8063c3391d27116100de578063c3391d2714610652578063c42bd05a14610665578063c83a1c2d1461067e578063d73dd623146106915761035d565b8063b02f0b731461062f578063b64ef17b14610642578063c275d81b1461064a5761035d565b80639776e94b116101715780639d829c2b1161014b5780639d829c2b14610604578063a3f4df7e1461060c578063a835a0de14610614578063a9059cbb1461061c5761035d565b80639776e94b146105d4578063980e8db6146105e25780639a82417e146105fc5761035d565b8063806c6f87116101ad578063806c6f871461059357806392eefe9b146105a6578063948d8ce6146105b957806395d89b41146105cc5761035d565b80636d06dfa01461056557806370a082311461057857806374983a0d1461058b5761035d565b8063313ce567116102ad5780634c20d2091161024b5780635a8342d8116102255780635a8342d8146105165780635db342771461052c5780635fa7b5841461053f57806366188463146105525761035d565b80634c20d209146104dd5780634f69c0d4146104f057806355c32a23146105035761035d565b806346ab38f11161028757806346ab38f11461049157806347786d37146104a457806349b59552146104b75780634ba57882146104ca5761035d565b8063313ce5671461046357806334e199071461046b57806337c6f4d91461047e5761035d565b80630f93ab471161031a57806323b872dd116102f457806323b872dd14610420578063246bc19b146104335780632e0f2625146104465780633018205f1461045b5761035d565b80630f93ab47146103f257806318160ddd14610405578063220eb7601461040d5761035d565b806302c967481461036257806306fdde031461038b578063095dcccc146103a0578063095ea7b3146103b55780630a165940146103d55780630ce27925146103ea575b600080fd5b6103756103703660046141f1565b6106f2565b6040516103829190614d34565b60405180910390f35b6103936108b9565b6040516103829190614708565b6103b36103ae3660046141c6565b61094f565b005b6103c86103c33660046141c6565b61097c565b6040516103829190614591565b6103dd6109d5565b60405161038291906144d7565b6103756109e4565b6103b3610400366004614132565b6109ea565b61037561105a565b6103b361041b3660046143bb565b611060565b6103c861042e366004614186565b61108b565b6103b36104413660046142be565b6111b9565b61044e61125d565b6040516103829190614d4b565b6103dd611262565b61044e611271565b6103b36104793660046143bb565b611276565b6103c861048c36600461439c565b6113bb565b61037561049f3660046141f1565b611450565b6103b36104b23660046143bb565b6115fe565b6103b36104c5366004614348565b61172c565b6103b36104d83660046143bb565b611832565b6103b36104eb3660046141f1565b61185a565b6103b36104fe3660046143eb565b611a7b565b6103b36105113660046141c6565b611e7c565b61051e611ea5565b604051610382929190614d3d565b61037561053a3660046141f1565b611eae565b6103b361054d366004614132565b612073565b6103c86105603660046141c6565b61220e565b6103756105733660046141f1565b6122e8565b610375610586366004614132565b6124ad565b6103dd6124c8565b6103c86105a1366004614132565b6124e0565b6103b36105b4366004614132565b612529565b6103756105c7366004614132565b6125d5565b6103936126a2565b6103b36104413660046141c6565b6105ea612703565b6040516103829695949392919061459c565b6103dd61273e565b6103dd612756565b61039361276e565b61037561279d565b6103c861062a3660046141c6565b6127a3565b6103b361063d3660046143eb565b6127df565b6103dd612b73565b6103b3612b82565b6103b36106603660046144a6565b612ce1565b61066d612daa565b604051610382959493929190614529565b6103b361068c366004614132565b612dd1565b6103c861069f3660046141c6565b612ec4565b6103756106b236600461414e565b612f38565b6103b3612f63565b6103b36106cd366004614132565b612fc5565b6103756130ec565b6103756130f2565b6103756130f8565b6103c86130ff565b60405160009033906001600160e01b03198335169061071490849036906145cc565b60405180910390a2600260065414156107485760405162461bcd60e51b815260040161073f906149be565b60405180910390fd5b60026006556008546001600160a01b03166107755760405162461bcd60e51b815260040161073f90614916565b60085460405163724a2d5360e01b8152600091829173__$fefb028005f68e7633c8c9bb2db5a02da7$__9163724a2d53916107c69130916001600160a01b03909116908b908b908b9060040161464f565b604080518083038186803b1580156107dd57600080fd5b505af41580156107f1573d6000803e3d6000fd5b505050506040513d601f19601f820116820180604052508101906108159190614435565b91509150809250600061082884846131d7565b9050866001600160a01b0316336001600160a01b03167fc62fc35ac75e3bff532648e2859a3e1694002cfa357614ae8e034df7f83db5e98860405161086d9190614d34565b60405180910390a361087f3385611e9b565b6108888161107f565b60075461089e906001600160a01b03168461096e565b6108a9873388613210565b5050505b60016006559392505050565b60048054604080516020601f60026000196101006001881615020190951694909404938401819004810282018101909252828152606093909290918301828280156109455780601f1061091a57610100808354040283529160200191610945565b820191906000526020600020905b81548152906001019060200180831161092857829003601f168201915b5050505050905090565b33301461096e5760405162461bcd60e51b815260040161073f9061475b565b6109788282613459565b5050565b3360008181526002602090815260408083206001600160a01b03871680855292528083208590555191929091600080516020614dcf833981519152906109c3908690614d34565b60405180910390a35060015b92915050565b6007546001600160a01b031681565b60185481565b336001600160a01b03166000356001600160e01b0319166001600160e01b031916600036604051610a1c9291906145cc565b60405180910390a260026006541415610a475760405162461bcd60e51b815260040161073f906149be565b60026006556008546001600160a01b0316610a745760405162461bcd60e51b815260040161073f90614916565b600854604051630bcded8960e21b81526001600160a01b0390911690632f37b62490610aa49084906004016144d7565b60206040518083038186803b158015610abc57600080fd5b505afa158015610ad0573d6000803e3d6000fd5b505050506040513d601f19601f82011682018060405250810190610af49190614364565b610b105760405162461bcd60e51b815260040161073f906149e3565b60085460405163f8b2cb4f60e01b81526000916001600160a01b03169063f8b2cb4f90610b419085906004016144d7565b60206040518083038186803b158015610b5957600080fd5b505afa158015610b6d573d6000803e3d6000fd5b505050506040513d601f19601f82011682018060405250810190610b9191906143d3565b600854604051631185197d60e31b81529192506001600160a01b031690638c28cbe890610bc29085906004016144d7565b600060405180830381600087803b158015610bdc57600080fd5b505af1158015610bf0573d6000803e3d6000fd5b505060085460405163f8b2cb4f60e01b8152600093506001600160a01b03909116915063f8b2cb4f90610c279086906004016144d7565b60206040518083038186803b158015610c3f57600080fd5b505afa158015610c53573d6000803e3d6000fd5b505050506040513d601f19601f82011682018060405250810190610c7791906143d3565b905080821415610c88575050611052565b600854604051634a46c67360e11b81526000916001600160a01b03169063948d8ce690610cb99087906004016144d7565b60206040518083038186803b158015610cd157600080fd5b505afa158015610ce5573d6000803e3d6000fd5b505050506040513d601f19601f82011682018060405250810190610d0991906143d3565b90506000610d20610d1a8385613464565b856134e1565b90506000610d40610d3b610d348585613464565b60016134e1565b613572565b90506060600860009054906101000a90046001600160a01b03166001600160a01b031663cc77828d6040518163ffffffff1660e01b815260040160006040518083038186803b158015610d9257600080fd5b505afa158015610da6573d6000803e3d6000fd5b505050506040513d6000823e601f3d908101601f19168201604052610dce9190810190614225565b905060005b815181101561104a57876001600160a01b0316828281518110610df257fe5b60200260200101516001600160a01b03161415610e7457600854604051631feeed5160e11b81526001600160a01b0390911690633fdddaa290610e3d908b908a908890600401614570565b600060405180830381600087803b158015610e5757600080fd5b505af1158015610e6b573d6000803e3d6000fd5b50505050611042565b60085482516000916001600160a01b03169063948d8ce690859085908110610e9857fe5b60200260200101516040518263ffffffff1660e01b8152600401610ebc91906144d7565b60206040518083038186803b158015610ed457600080fd5b505afa158015610ee8573d6000803e3d6000fd5b505050506040513d601f19601f82011682018060405250810190610f0c91906143d3565b60085484519192506000916001600160a01b039091169063f8b2cb4f90869086908110610f3557fe5b60200260200101516040518263ffffffff1660e01b8152600401610f5991906144d7565b60206040518083038186803b158015610f7157600080fd5b505afa158015610f85573d6000803e3d6000fd5b505050506040513d601f19601f82011682018060405250810190610fa991906143d3565b90506000610fc0610fba8785613464565b886134e1565b60085486519192506001600160a01b031690633fdddaa290879087908110610fe457fe5b602002602001015184846040518463ffffffff1660e01b815260040161100c93929190614570565b600060405180830381600087803b15801561102657600080fd5b505af115801561103a573d6000803e3d6000fd5b505050505050505b600101610dd3565b505050505050505b506001600655565b60005490565b33301461107f5760405162461bcd60e51b815260040161073f9061475b565b611088816135c3565b50565b60006001600160a01b0383166110b35760405162461bcd60e51b815260040161073f90614885565b336001600160a01b03851614806110ed57506001600160a01b03841660009081526002602090815260408083203384529091529020548211155b6111095760405162461bcd60e51b815260040161073f90614b3d565b61111484848461363d565b6001600160a01b038416600081815260026020908152604080832033808552925290912054911480159061114a57506000198114155b156111ac5761115981846131d7565b6001600160a01b038681166000908152600260209081526040808320338085529252918290208490559051918716929091600080516020614dcf833981519152916111a391614d34565b60405180910390a35b60019150505b9392505050565b336001600160a01b03166000356001600160e01b0319166001600160e01b0319166000366040516111eb9291906145cc565b60405180910390a26005546001600160a01b0316331461121d5760405162461bcd60e51b815260040161073f9061475b565b6008546001600160a01b03166112455760405162461bcd60e51b815260040161073f90614916565b60405162461bcd60e51b815260040161073f906147f3565b601281565b6005546001600160a01b031690565b601290565b336001600160a01b03166000356001600160e01b0319166001600160e01b0319166000366040516112a89291906145cc565b60405180910390a2600260065414156112d35760405162461bcd60e51b815260040161073f906149be565b60026006556005546001600160a01b031633146113025760405162461bcd60e51b815260040161073f9061475b565b6008546001600160a01b031661132a5760405162461bcd60e51b815260040161073f90614916565b600954610100900460ff166113515760405162461bcd60e51b815260040161073f90614c51565b6008546040516334e1990760e01b81526001600160a01b03909116906334e1990790611381908490600401614d34565b600060405180830381600087803b15801561139b57600080fd5b505af11580156113af573d6000803e3d6000fd5b50506001600655505050565b6040516322c1aa2560e11b815260009073__$4c39dc22c986e51e284e93a9c02f15a804$__90634583544a906113f8906009908690600401614cbf565b60206040518083038186803b15801561141057600080fd5b505af4158015611424573d6000803e3d6000fd5b505050506040513d601f19601f820116820180604052508101906114489190614364565b90505b919050565b60405160009033906001600160e01b03198335169061147290849036906145cc565b60405180910390a26002600654141561149d5760405162461bcd60e51b815260040161073f906149be565b60026006556008546001600160a01b03166114ca5760405162461bcd60e51b815260040161073f90614916565b600854604051636a82d4a760e11b8152600091829173__$fefb028005f68e7633c8c9bb2db5a02da7$__9163d505a94e9161151b9130916001600160a01b03909116908b908b908b9060040161464f565b604080518083038186803b15801561153257600080fd5b505af4158015611546573d6000803e3d6000fd5b505050506040513d601f19601f8201168201806040525081019061156a9190614435565b91509150809250600061157d86846131d7565b9050866001600160a01b0316336001600160a01b03167fc62fc35ac75e3bff532648e2859a3e1694002cfa357614ae8e034df7f83db5e9866040516115c29190614d34565b60405180910390a36115d43387611e9b565b6115dd8161107f565b6007546115f3906001600160a01b03168461096e565b6108a9873386613210565b336001600160a01b03166000356001600160e01b0319166001600160e01b0319166000366040516116309291906145cc565b60405180910390a26002600654141561165b5760405162461bcd60e51b815260040161073f906149be565b60026006556008546001600160a01b03166116885760405162461bcd60e51b815260040161073f90614916565b6005546001600160a01b031633146116b25760405162461bcd60e51b815260040161073f9061475b565b60095465010000000000900460ff166116dd5760405162461bcd60e51b815260040161073f90614a8b565b336001600160a01b03167f6bc200110c7794738d401810b22ef824a2044a8ccb022d4ad8769840370331f56018548360405161171a929190614d3d565b60405180910390a26018556001600655565b336001600160a01b03166000356001600160e01b0319166001600160e01b03191660003660405161175e9291906145cc565b60405180910390a2600260065414156117895760405162461bcd60e51b815260040161073f906149be565b60026006556005546001600160a01b031633146117b85760405162461bcd60e51b815260040161073f9061475b565b6008546001600160a01b03166117e05760405162461bcd60e51b815260040161073f90614916565b60095460ff166118025760405162461bcd60e51b815260040161073f90614bcd565b6008546040516324dacaa960e11b81526001600160a01b03909116906349b5955290611381908490600401614591565b3330146118515760405162461bcd60e51b815260040161073f9061475b565b611088816136ee565b336001600160a01b03166000356001600160e01b0319166001600160e01b03191660003660405161188c9291906145cc565b60405180910390a2600260065414156118b75760405162461bcd60e51b815260040161073f906149be565b60026006556005546001600160a01b031633146118e65760405162461bcd60e51b815260040161073f9061475b565b6008546001600160a01b031661190e5760405162461bcd60e51b815260040161073f90614916565b6009546301000000900460ff166119375760405162461bcd60e51b815260040161073f90614787565b600a54156119575760405162461bcd60e51b815260040161073f90614c88565b604051630e0d789b60e11b815273__$fefb028005f68e7633c8c9bb2db5a02da7$__90631c1af1369061198e9086906004016144d7565b60006040518083038186803b1580156119a657600080fd5b505af41580156119ba573d6000803e3d6000fd5b50506040513392503091506001600160a01b038616907f33b043686b9408a355896fe90b2f8ecc86a41d87d1554ef65a739948b4f23e2790600090a460085460405163b489ec1960e01b815273__$fefb028005f68e7633c8c9bb2db5a02da7$__9163b489ec1991611a41916001600160a01b031690879087908790600e906004016145fb565b60006040518083038186803b158015611a5957600080fd5b505af4158015611a6d573d6000803e3d6000fd5b505060016006555050505050565b336001600160a01b03166000356001600160e01b0319166001600160e01b031916600036604051611aad9291906145cc565b60405180910390a260026006541415611ad85760405162461bcd60e51b815260040161073f906149be565b60026006556008546001600160a01b0316611b055760405162461bcd60e51b815260040161073f90614916565b6008546040805163fde924f760e01b815290516000926001600160a01b03169163fde924f7916004808301926020929190829003018186803b158015611b4a57600080fd5b505afa158015611b5e573d6000803e3d6000fd5b505050506040513d601f19601f82011682018060405250810190611b829190614364565b6008546040516324dacaa960e11b81529192506001600160a01b0316906349b5955290611bb490600090600401614591565b600060405180830381600087803b158015611bce57600080fd5b505af1158015611be2573d6000803e3d6000fd5b5050600954600160201b900460ff16159150819050611c1057503360009081526017602052604090205460ff165b611c2c5760405162461bcd60e51b815260040161073f9061482a565b60085460405163a1925f1d60e01b815260609173__$fefb028005f68e7633c8c9bb2db5a02da7$__9163a1925f1d91611c799130916001600160a01b0316908a908a908a90600401614683565b60006040518083038186803b158015611c9157600080fd5b505af4158015611ca5573d6000803e3d6000fd5b505050506040513d6000823e601f3d908101601f19168201604052611ccd919081019061430d565b90506060600860009054906101000a90046001600160a01b03166001600160a01b031663cc77828d6040518163ffffffff1660e01b815260040160006040518083038186803b158015611d1f57600080fd5b505afa158015611d33573d6000803e3d6000fd5b505050506040513d6000823e601f3d908101601f19168201604052611d5b9190810190614225565b905060005b8151811015611df9576000828281518110611d7757fe5b602002602001015190506000848381518110611d8f57fe5b60200260200101519050816001600160a01b0316336001600160a01b03167fea39e3b35c5cd8937999ed5f7fbab30acd562a931fc4a887fed2a47c3074aa7283604051611ddc9190614d34565b60405180910390a3611def82338361371b565b5050600101611d60565b50611e0386611851565b611e0d338761096e565b50506008546040516324dacaa960e11b81526001600160a01b03909116906349b5955290611e3f908490600401614591565b600060405180830381600087803b158015611e5957600080fd5b505af1158015611e6d573d6000803e3d6000fd5b50506001600655505050505050565b333014611e9b5760405162461bcd60e51b815260040161073f9061475b565b6109788282613964565b600a54600b5482565b60405160009033906001600160e01b031983351690611ed090849036906145cc565b60405180910390a260026006541415611efb5760405162461bcd60e51b815260040161073f906149be565b60026006556008546001600160a01b0316611f285760405162461bcd60e51b815260040161073f90614916565b600954600160201b900460ff161580611f5057503360009081526017602052604090205460ff165b611f6c5760405162461bcd60e51b815260040161073f9061482a565b60085460405163df90de0b60e01b815273__$fefb028005f68e7633c8c9bb2db5a02da7$__9163df90de0b91611fb89130916001600160a01b039091169089908990899060040161464f565b60206040518083038186803b158015611fd057600080fd5b505af4158015611fe4573d6000803e3d6000fd5b505050506040513d601f19601f8201168201806040525081019061200891906143d3565b9050836001600160a01b0316336001600160a01b03167fea39e3b35c5cd8937999ed5f7fbab30acd562a931fc4a887fed2a47c3074aa728560405161204d9190614d34565b60405180910390a361205e81611851565b612068338261096e565b6108ad84338561371b565b336001600160a01b03166000356001600160e01b0319166001600160e01b0319166000366040516120a59291906145cc565b60405180910390a2600260065414156120d05760405162461bcd60e51b815260040161073f906149be565b60026006556005546001600160a01b031633146120ff5760405162461bcd60e51b815260040161073f9061475b565b6008546001600160a01b03166121275760405162461bcd60e51b815260040161073f90614916565b6009546301000000900460ff166121505760405162461bcd60e51b815260040161073f90614787565b600e54600160a01b900460ff161561217a5760405162461bcd60e51b815260040161073f90614b6d565b600a541561219a5760405162461bcd60e51b815260040161073f90614c88565b600854604051630970e47f60e01b815273__$fefb028005f68e7633c8c9bb2db5a02da7$__91630970e47f916121e29130916001600160a01b0390911690869060040161462c565b60006040518083038186803b1580156121fa57600080fd5b505af41580156113af573d6000803e3d6000fd5b3360009081526002602090815260408083206001600160a01b0386168452909152812054808310612262573360009081526002602090815260408083206001600160a01b0388168452909152812055612291565b61226c81846131d7565b3360009081526002602090815260408083206001600160a01b03891684529091529020555b3360008181526002602090815260408083206001600160a01b038916808552925291829020549151909291600080516020614dcf833981519152916122d69190614d34565b60405180910390a35060019392505050565b60405160009033906001600160e01b03198335169061230a90849036906145cc565b60405180910390a2600260065414156123355760405162461bcd60e51b815260040161073f906149be565b60026006556008546001600160a01b03166123625760405162461bcd60e51b815260040161073f90614916565b600954600160201b900460ff16158061238a57503360009081526017602052604090205460ff165b6123a65760405162461bcd60e51b815260040161073f9061482a565b600854604051636a6dc6e760e01b815273__$fefb028005f68e7633c8c9bb2db5a02da7$__91636a6dc6e7916123f29130916001600160a01b039091169089908990899060040161464f565b60206040518083038186803b15801561240a57600080fd5b505af415801561241e573d6000803e3d6000fd5b505050506040513d601f19601f8201168201806040525081019061244291906143d3565b9050836001600160a01b0316336001600160a01b03167fea39e3b35c5cd8937999ed5f7fbab30acd562a931fc4a887fed2a47c3074aa72836040516124879190614d34565b60405180910390a361249883611851565b6124a2338461096e565b6108ad84338361371b565b6001600160a01b031660009081526001602052604090205490565b73__$4c39dc22c986e51e284e93a9c02f15a804$__90565b600954600090600160201b900460ff161561251757506001600160a01b03811660009081526017602052604090205460ff1661144b565b506001600160a01b038116151561144b565b6005546001600160a01b031633146125535760405162461bcd60e51b815260040161073f9061475b565b6001600160a01b0381166125795760405162461bcd60e51b815260040161073f90614885565b6005546040516001600160a01b038084169216907f8be0079c531659141344cd1fd0a4f28419497f9722a3daafe3b4186f6b6457e090600090a3600580546001600160a01b0319166001600160a01b0392909216919091179055565b6000600260065414156125fa5760405162461bcd60e51b815260040161073f90614a0a565b6008546001600160a01b03166126225760405162461bcd60e51b815260040161073f90614916565b600854604051634a46c67360e11b81526001600160a01b039091169063948d8ce6906126529085906004016144d7565b60206040518083038186803b15801561266a57600080fd5b505afa15801561267e573d6000803e3d6000fd5b505050506040513d601f19601f8201168201806040525081019061144891906143d3565b60038054604080516020601f60026000196101006001881615020190951694909404938401819004810282018101909252828152606093909290918301828280156109455780601f1061091a57610100808354040283529160200191610945565b60095460ff80821691610100810482169162010000820481169163010000008104821691600160201b82048116916501000000000090041686565b73__$9cae36e6b1b60ebd723e3da15a5c2e74b0$__90565b73__$fefb028005f68e7633c8c9bb2db5a02da7$__90565b6040518060400160405280601381526020017210985b185b98d95c8814db585c9d08141bdbdb606a1b81525081565b6101f481565b60006001600160a01b0383166127cb5760405162461bcd60e51b815260040161073f90614885565b6127d633848461363d565b50600192915050565b336001600160a01b03166000356001600160e01b0319166001600160e01b0319166000366040516128119291906145cc565b60405180910390a26002600654141561283c5760405162461bcd60e51b815260040161073f906149be565b60026006556008546001600160a01b03166128695760405162461bcd60e51b815260040161073f90614916565b6008546040805163fde924f760e01b815290516000926001600160a01b03169163fde924f7916004808301926020929190829003018186803b1580156128ae57600080fd5b505afa1580156128c2573d6000803e3d6000fd5b505050506040513d601f19601f820116820180604052508101906128e69190614364565b6008546040516324dacaa960e11b81529192506001600160a01b0316906349b595529061291890600090600401614591565b600060405180830381600087803b15801561293257600080fd5b505af1158015612946573d6000803e3d6000fd5b505060085460405163151c70f960e21b81526000935083925060609173__$fefb028005f68e7633c8c9bb2db5a02da7$__91635471c3e49161299c9130916001600160a01b0316908c908c908c90600401614683565b60006040518083038186803b1580156129b457600080fd5b505af41580156129c8573d6000803e3d6000fd5b505050506040513d6000823e601f3d908101601f191682016040526129f09190810190614458565b925092509250612a003388611e9b565b600754612a16906001600160a01b03168461096e565b612a1f8261107f565b6008546040805163cc77828d60e01b815290516060926001600160a01b03169163cc77828d916004808301926000929190829003018186803b158015612a6457600080fd5b505afa158015612a78573d6000803e3d6000fd5b505050506040513d6000823e601f3d908101601f19168201604052612aa09190810190614225565b905060005b8151811015612b3e576000828281518110612abc57fe5b602002602001015190506000848381518110612ad457fe5b60200260200101519050816001600160a01b0316336001600160a01b03167fc62fc35ac75e3bff532648e2859a3e1694002cfa357614ae8e034df7f83db5e983604051612b219190614d34565b60405180910390a3612b34823383613210565b5050600101612aa5565b50506008546040516324dacaa960e11b81526001600160a01b0390911693506349b595529250611e3f91508490600401614591565b6008546001600160a01b031681565b336001600160a01b03166000356001600160e01b0319166001600160e01b031916600036604051612bb49291906145cc565b60405180910390a260026006541415612bdf5760405162461bcd60e51b815260040161073f906149be565b60026006556005546001600160a01b03163314612c0e5760405162461bcd60e51b815260040161073f9061475b565b6008546001600160a01b0316612c365760405162461bcd60e51b815260040161073f90614916565b6009546301000000900460ff16612c5f5760405162461bcd60e51b815260040161073f90614787565b600854601654604051633be961dd60e21b815273__$fefb028005f68e7633c8c9bb2db5a02da7$__9263efa5877492612caa9230926001600160a01b03169190600e906004016146df565b60006040518083038186803b158015612cc257600080fd5b505af4158015612cd6573d6000803e3d6000fd5b505060016006555050565b6005546001600160a01b03163314612d0b5760405162461bcd60e51b815260040161073f9061475b565b336001600160a01b03166000356001600160e01b0319166001600160e01b031916600036604051612d3d9291906145cc565b60405180910390a260026006541415612d685760405162461bcd60e51b815260040161073f906149be565b600260065580821015612d8d5760405162461bcd60e51b815260040161073f906147be565b60158290556016819055612da08361396f565b5050600160065550565b600e54600f546010546011546001600160a01b03841693600160a01b900460ff1692919085565b6005546001600160a01b03163314612dfb5760405162461bcd60e51b815260040161073f9061475b565b60026006541415612e1e5760405162461bcd60e51b815260040161073f906149be565b60026006556040513390600080356001600160e01b03191691612e43919036906145cc565b60405180910390a2600954600160201b900460ff16612e745760405162461bcd60e51b815260040161073f906148af565b6001600160a01b038116612e9a5760405162461bcd60e51b815260040161073f90614a34565b6001600160a01b03166000908152601760205260409020805460ff19166001908117909155600655565b3360009081526002602090815260408083206001600160a01b0386168452909152812054612ef29083613e1b565b3360008181526002602090815260408083206001600160a01b03891680855292529182902084905590519092600080516020614dcf833981519152916109c39190614d34565b6001600160a01b03918216600090815260026020908152604080832093909416825291909152205490565b336001600160a01b03166000356001600160e01b0319166001600160e01b031916600036604051612f959291906145cc565b60405180910390a26008546001600160a01b03166112455760405162461bcd60e51b815260040161073f90614916565b6005546001600160a01b03163314612fef5760405162461bcd60e51b815260040161073f9061475b565b600260065414156130125760405162461bcd60e51b815260040161073f906149be565b60026006556040513390600080356001600160e01b03191691613037919036906145cc565b60405180910390a2600954600160201b900460ff166130685760405162461bcd60e51b815260040161073f906148af565b6001600160a01b03811660009081526017602052604090205460ff166130a05760405162461bcd60e51b815260040161073f906148e6565b6001600160a01b0381166130c65760405162461bcd60e51b815260040161073f90614a34565b6001600160a01b03166000908152601760205260409020805460ff191690556001600655565b60165481565b60155481565b62015f9081565b6000600260065414156131245760405162461bcd60e51b815260040161073f90614a0a565b6008546001600160a01b031661314c5760405162461bcd60e51b815260040161073f90614916565b600860009054906101000a90046001600160a01b03166001600160a01b031663fde924f76040518163ffffffff1660e01b815260040160206040518083038186803b15801561319a57600080fd5b505afa1580156131ae573d6000803e3d6000fd5b505050506040513d601f19601f820116820180604052508101906131d29190614364565b905090565b60008060006131e68585613e40565b9150915080156132085760405162461bcd60e51b815260040161073f90614bfc565b509392505050565b6008546001600160a01b03166132385760405162461bcd60e51b815260040161073f90614916565b60085460405163f8b2cb4f60e01b81526000916001600160a01b03169063f8b2cb4f906132699087906004016144d7565b60206040518083038186803b15801561328157600080fd5b505afa158015613295573d6000803e3d6000fd5b505050506040513d601f19601f820116820180604052508101906132b991906143d3565b600854604051634a46c67360e11b81529192506000916001600160a01b039091169063948d8ce6906132ef9088906004016144d7565b60206040518083038186803b15801561330757600080fd5b505afa15801561331b573d6000803e3d6000fd5b505050506040513d601f19601f8201168201806040525081019061333f91906143d3565b6008549091506001600160a01b0316633fdddaa28661335e85876131d7565b846040518463ffffffff1660e01b815260040161337d93929190614570565b600060405180830381600087803b15801561339757600080fd5b505af11580156133ab573d6000803e3d6000fd5b505060405163a9059cbb60e01b8152600092506001600160a01b038816915063a9059cbb906133e09088908890600401614557565b602060405180830381600087803b1580156133fa57600080fd5b505af115801561340e573d6000803e3d6000fd5b505050506040513d601f19601f820116820180604052508101906134329190614364565b9050806134515760405162461bcd60e51b815260040161073f90614ba4565b505050505050565b61097830838361363d565b600082613473575060006109cf565b8282028284828161348057fe5b041461349e5760405162461bcd60e51b815260040161073f90614a61565b6706f05b59d3b200008101818110156134c95760405162461bcd60e51b815260040161073f90614a61565b6000670de0b6b3a7640000825b049695505050505050565b6000816135005760405162461bcd60e51b815260040161073f90614aba565b8261350d575060006109cf565b670de0b6b3a76400008381029084828161352357fe5b04146135415760405162461bcd60e51b815260040161073f90614994565b600283048101818110156135675760405162461bcd60e51b815260040161073f90614994565b60008482816134d657fe5b600060038211156135b5575080600160028204015b818110156135af5780915060028182858161359e57fe5b0401816135a757fe5b049050613587565b5061144b565b811561144b57506001919050565b306000908152600160205260409020546135dd90826131d7565b30600090815260016020526040812091909155546135fb90826131d7565b600090815560405130907fddf252ad1be2c89b69c2b068fc378daa952ba7f163c4a11628f55a4df523b3ef90613632908590614d34565b60405180910390a350565b6001600160a01b03831660009081526001602052604090205461366090826131d7565b6001600160a01b03808516600090815260016020526040808220939093559084168152205461368f9082613e1b565b6001600160a01b0380841660008181526001602052604090819020939093559151908516907fddf252ad1be2c89b69c2b068fc378daa952ba7f163c4a11628f55a4df523b3ef906136e1908590614d34565b60405180910390a3505050565b6136f781613e65565b60185460005411156110885760405162461bcd60e51b815260040161073f90614b0e565b6008546001600160a01b03166137435760405162461bcd60e51b815260040161073f90614916565b60085460405163f8b2cb4f60e01b81526000916001600160a01b03169063f8b2cb4f906137749087906004016144d7565b60206040518083038186803b15801561378c57600080fd5b505afa1580156137a0573d6000803e3d6000fd5b505050506040513d601f19601f820116820180604052508101906137c491906143d3565b600854604051634a46c67360e11b81529192506000916001600160a01b039091169063948d8ce6906137fa9088906004016144d7565b60206040518083038186803b15801561381257600080fd5b505afa158015613826573d6000803e3d6000fd5b505050506040513d601f19601f8201168201806040525081019061384a91906143d3565b90506000856001600160a01b03166323b872dd8630876040518463ffffffff1660e01b815260040161387e939291906144eb565b602060405180830381600087803b15801561389857600080fd5b505af11580156138ac573d6000803e3d6000fd5b505050506040513d601f19601f820116820180604052508101906138d09190614364565b9050806138ef5760405162461bcd60e51b815260040161073f90614ba4565b6008546001600160a01b0316633fdddaa28761390b8688613e1b565b856040518463ffffffff1660e01b815260040161392a93929190614570565b600060405180830381600087803b15801561394457600080fd5b505af1158015613958573d6000803e3d6000fd5b50505050505050505050565b61097882308361363d565b6008546001600160a01b0316156139985760405162461bcd60e51b815260040161073f9061493f565b68056bc75e2d631000008110156139c15760405162461bcd60e51b815260040161073f90614967565b6b033b2e3c9fd0803ce80000008111156139ed5760405162461bcd60e51b815260040161073f90614858565b60095465010000000000900460ff1615613a075760188190555b613a1081611851565b613a1a338261096e565b600760009054906101000a90046001600160a01b03166001600160a01b031663d556c5dc6040518163ffffffff1660e01b8152600401602060405180830381600087803b158015613a6a57600080fd5b505af1158015613a7e573d6000803e3d6000fd5b505050506040513d601f19601f82011682018060405250810190613aa29190614380565b600880546001600160a01b0319166001600160a01b0392831617908190556040805163632c068960e11b81529051919092169163c6580d12916004808301926020929190829003018186803b158015613afa57600080fd5b505afa158015613b0e573d6000803e3d6000fd5b505050506040513d601f19601f82011682018060405250810190613b3291906143d3565b15613b4f5760405162461bcd60e51b815260040161073f90614ae0565b60005b601354811015613d1157600060138281548110613b6b57fe5b6000918252602082200154601480546001600160a01b0390921693509084908110613b9257fe5b906000526020600020015490506000600a6002018481548110613bb157fe5b60009182526020822001546040516323b872dd60e01b81529092506001600160a01b038516906323b872dd90613bef903390309088906004016144eb565b602060405180830381600087803b158015613c0957600080fd5b505af1158015613c1d573d6000803e3d6000fd5b505050506040513d601f19601f82011682018060405250810190613c419190614364565b905080613c605760405162461bcd60e51b815260040161073f90614ba4565b600854613c7c906001600160a01b038681169116600019613ed5565b905080613c9b5760405162461bcd60e51b815260040161073f90614ba4565b600854604051631c9c3ca760e31b81526001600160a01b039091169063e4e1e53890613ccf90879087908790600401614570565b600060405180830381600087803b158015613ce957600080fd5b505af1158015613cfd573d6000803e3d6000fd5b505060019096019550613b52945050505050565b505b60135415613d4d576013805480613d2657fe5b600082815260209020810160001990810180546001600160a01b0319169055019055613d13565b6008546012546040516334e1990760e01b81526001600160a01b03909216916334e1990791613d7e91600401614d34565b600060405180830381600087803b158015613d9857600080fd5b505af1158015613dac573d6000803e3d6000fd5b50506008546040516324dacaa960e11b81526001600160a01b0390911692506349b595529150613de190600190600401614591565b600060405180830381600087803b158015613dfb57600080fd5b505af1158015613e0f573d6000803e3d6000fd5b50506000601255505050565b6000828201838110156111b25760405162461bcd60e51b815260040161073f90614c27565b600080838311613e565750508082036000613e5e565b505081810360015b9250929050565b30600090815260016020526040902054613e7f9082613e1b565b3060009081526001602052604081209190915554613e9d9082613e1b565b60009081556040513091907fddf252ad1be2c89b69c2b068fc378daa952ba7f163c4a11628f55a4df523b3ef90613632908590614d34565b600080846001600160a01b031663dd62ed3e30866040518363ffffffff1660e01b8152600401613f0692919061450f565b60206040518083038186803b158015613f1e57600080fd5b505afa158015613f32573d6000803e3d6000fd5b505050506040513d601f19601f82011682018060405250810190613f5691906143d3565b905082811415613f6a5760019150506111b2565b8015613ff95760405163095ea7b360e01b81526001600160a01b0386169063095ea7b390613f9f908790600090600401614557565b602060405180830381600087803b158015613fb957600080fd5b505af1158015613fcd573d6000803e3d6000fd5b505050506040513d601f19601f82011682018060405250810190613ff19190614364565b9150506111b2565b60405163095ea7b360e01b81526001600160a01b0386169063095ea7b3906140279087908790600401614557565b602060405180830381600087803b15801561404157600080fd5b505af1158015614055573d6000803e3d6000fd5b505050506040513d601f19601f820116820180604052508101906140799190614364565b95945050505050565b60008083601f840112614093578081fd5b50813567ffffffffffffffff8111156140aa578182fd5b6020830191508360208083028501011115613e5e57600080fd5b600082601f8301126140d4578081fd5b81516140e76140e282614d80565b614d59565b81815291506020808301908481018184028601820187101561410857600080fd5b60005b848110156141275781518452928201929082019060010161410b565b505050505092915050565b600060208284031215614143578081fd5b81356111b281614dab565b60008060408385031215614160578081fd5b823561416b81614dab565b9150602083013561417b81614dab565b809150509250929050565b60008060006060848603121561419a578081fd5b83356141a581614dab565b925060208401356141b581614dab565b929592945050506040919091013590565b600080604083850312156141d8578182fd5b82356141e381614dab565b946020939093013593505050565b600080600060608486031215614205578283fd5b833561421081614dab565b95602085013595506040909401359392505050565b60006020808385031215614237578182fd5b825167ffffffffffffffff81111561424d578283fd5b8301601f8101851361425d578283fd5b805161426b6140e282614d80565b8181528381019083850185840285018601891015614287578687fd5b8694505b838510156142b257805161429e81614dab565b83526001949094019391850191850161428b565b50979650505050505050565b600080600080606085870312156142d3578081fd5b843567ffffffffffffffff8111156142e9578182fd5b6142f587828801614082565b90989097506020870135966040013595509350505050565b60006020828403121561431e578081fd5b815167ffffffffffffffff811115614334578182fd5b614340848285016140c4565b949350505050565b600060208284031215614359578081fd5b81356111b281614dc0565b600060208284031215614375578081fd5b81516111b281614dc0565b600060208284031215614391578081fd5b81516111b281614dab565b6000602082840312156143ad578081fd5b8135600681106111b2578182fd5b6000602082840312156143cc578081fd5b5035919050565b6000602082840312156143e4578081fd5b5051919050565b6000806000604084860312156143ff578081fd5b83359250602084013567ffffffffffffffff81111561441c578182fd5b61442886828701614082565b9497909650939450505050565b60008060408385031215614447578182fd5b505080516020909101519092909150565b60008060006060848603121561446c578081fd5b8351925060208401519150604084015167ffffffffffffffff811115614490578182fd5b61449c868287016140c4565b9150509250925092565b6000806000606084860312156144ba578081fd5b505081359360208301359350604090920135919050565b15159052565b6001600160a01b0391909116815260200190565b6001600160a01b039384168152919092166020820152604081019190915260600190565b6001600160a01b0392831681529116602082015260400190565b6001600160a01b03959095168552921515602085015260408401919091526060830152608082015260a00190565b6001600160a01b03929092168252602082015260400190565b6001600160a01b039390931683526020830191909152604082015260600190565b901515815260200190565b9515158652931515602086015291151560408501521515606084015215156080830152151560a082015260c00190565b60006020825282602083015282846040840137818301604090810191909152601f909201601f19160101919050565b6001600160a01b03958616815293909416602084015260408301919091526060820152608081019190915260a00190565b6001600160a01b0393841681529183166020830152909116604082015260600190565b6001600160a01b03958616815293851660208501529190931660408301526060820192909252608081019190915260a00190565b6001600160a01b0386811682528516602082015260408101849052608060608201819052810182905260006001600160fb1b038311156146c1578081fd5b60208302808560a08501379190910160a00190815295945050505050565b6001600160a01b0394851681529290931660208301526040820152606081019190915260800190565b6000602080835283518082850152825b8181101561473457858101830151858201604001528201614718565b818111156147455783604083870101525b50601f01601f1916929092016040019392505050565b60208082526012908201527122a9292fa727aa2fa1a7a72a2927a62622a960711b604082015260600190565b6020808252601c908201527f4552525f43414e4e4f545f4144445f52454d4f56455f544f4b454e5300000000604082015260600190565b6020808252818101527f4552525f494e434f4e53495354454e545f544f4b454e5f54494d455f4c4f434b604082015260600190565b60208082526019908201527f4552525f554e535550504f525445445f4f5045524154494f4e00000000000000604082015260600190565b60208082526014908201527311549497d393d517d3d397d5d2125511531254d560621b604082015260600190565b60208082526013908201527208aa4a4be929c92a8bea6aaa0a098b2be9a82b606b1b604082015260600190565b60208082526010908201526f4552525f5a45524f5f4144445245535360801b604082015260600190565b60208082526018908201527f4552525f43414e4e4f545f57484954454c4953545f4c50530000000000000000604082015260600190565b60208082526016908201527511549497d31417d393d517d5d2125511531254d5115160521b604082015260600190565b6020808252600f908201526e11549497d393d517d0d49150551151608a1b604082015260600190565b6020808252600e908201526d11549497d254d7d0d4915055115160921b604082015260600190565b60208082526013908201527222a9292fa4a724aa2fa9aaa828262cafa6a4a760691b604082015260600190565b60208082526010908201526f11549497d1125597d25395115493905360821b604082015260600190565b6020808252600b908201526a4552525f5245454e54525960a81b604082015260600190565b6020808252600d908201526c11549497d393d517d093d55391609a1b604082015260600190565b60208082526010908201526f4552525f5245454e5452595f5649455760801b604082015260600190565b6020808252601390820152724552525f494e56414c49445f4144445245535360681b604082015260600190565b60208082526010908201526f4552525f4d554c5f4f564552464c4f5760801b604082015260600190565b60208082526015908201527404552525f43414e4e4f545f4348414e47455f43415605c1b604082015260600190565b6020808252600c908201526b4552525f4449565f5a45524f60a01b604082015260600190565b6020808252601490820152734552525f4e4f4e5a45524f5f455849545f46454560601b604082015260600190565b60208082526015908201527411549497d0d05417d31253525517d4915050d21151605a1b604082015260600190565b60208082526016908201527522a9292fa821aa27a5a2a72fa120a22fa1a0a62622a960511b604082015260600190565b6020808252601b908201527f4552525f52454d4f56455f574954485f4144445f50454e44494e470000000000604082015260600190565b6020808252600f908201526e4552525f45524332305f46414c534560881b604082015260600190565b60208082526015908201527404552525f4e4f545f5041555341424c455f5357415605c1b604082015260600190565b6020808252601190820152704552525f5355425f554e444552464c4f5760781b604082015260600190565b60208082526010908201526f4552525f4144445f4f564552464c4f5760801b604082015260600190565b6020808252601d908201527f4552525f4e4f545f434f4e464947555241424c455f535741505f464545000000604082015260600190565b6020808252601c908201527f4552525f4e4f5f5550444154455f445552494e475f4752414455414c00000000604082015260600190565b600060e082019050835460ff80821615158452808260081c1615156020850152808260101c1615156040850152808260181c1615156060850152614d0b60808501828460201c166144d1565b614d1d60a08501828460281c166144d1565b5050614d2883614da0565b60c08301529392505050565b90815260200190565b918252602082015260400190565b60ff91909116815260200190565b60405181810167ffffffffffffffff81118282101715614d7857600080fd5b604052919050565b600067ffffffffffffffff821115614d96578081fd5b5060209081020190565b806006811061144b57fe5b6001600160a01b038116811461108857600080fd5b801515811461108857600080fdfe8c5be1e5ebec7d5bd14f71427d1e84f3dd0314c0f7b2291e5b200ac8c7c3b925a264697066735822122057ac1384ce722915e5e03bbc934b778b255e039b3840823327b308d856ef601f64736f6c634300060c0033",
  "libraries": {
    "BalancerSafeMath": "0x52F433faD5E4E7F9a7d51743974262EaDa27d6F4",
    "RightsManager": "0xcc24Ff776A41bf462909c4c4Af3E51c1ED7E5176",
    "SmartPoolManager": "0x446007a78FD82Ad71e55cCB5b02E0DE1C40Dfbf0"
  },
  "devdoc": {
    "author": "Ampleforth engineering team & Balancer Labs Reference: https://github.com/balancer-labs/configurable-rights-pool/blob/master/contracts/templates/ElasticSupplyPool.sol",
    "details": "Extension of Balancer labs' configurable rights pool (smart-pool).        Amples are a dynamic supply tokens, supply and individual balances change daily by a Rebase operation.        In constant-function markets, Ampleforth's supply adjustments result in Impermanent Loss (IL)        to liquidity providers. The AmplElasticCRP is an extension of Balancer Lab's        ConfigurableRightsPool which mitigates IL induced by supply adjustments.        It accomplishes this by doing the following mechanism:        The `resyncWeight` method will be invoked atomically after rebase through Ampleforth's orchestrator.        When rebase changes supply, ampl weight is updated to the geometric mean of        the current ampl weight and the target. Every other token's weight is updated        proportionally such that relative ratios are same.        Weights: {w_ampl, w_t1 ... w_tn}        Rebase_change: x% (Ample's supply changes by x%, can be positive or negative)        Ample target weight: w_ampl_target = (100+x)/100 * w_ampl        w_ampl_new = sqrt(w_ampl * w_ampl_target)  // geometric mean        for i in tn:           w_ti_new = (w_ampl_new * w_ti) / w_ampl_target",
    "kind": "dev",
    "methods": {
      "allowance(address,address)": {
        "params": {
          "owner": "- owner of the tokens",
          "spender": "- entity allowed to spend the tokens"
        },
        "returns": {
          "_0": "uint - remaining amount spender is allowed to transfer"
        }
      },
      "approve(address,uint256)": {
        "details": "emits an Approval event",
        "params": {
          "amount": "- number of tokens being approved",
          "spender": "- entity the owner (sender) is approving to spend his tokens"
        },
        "returns": {
          "_0": "bool - result of the approval (will always be true if it doesn't revert)"
        }
      },
      "balanceOf(address)": {
        "params": {
          "account": "- address we're checking the balance of"
        },
        "returns": {
          "_0": "uint - token balance in the account"
        }
      },
      "canProvideLiquidity(address)": {
        "details": "If the whitelist feature is not enabled, anyone can provide liquidity (assuming finalized)",
        "returns": {
          "_0": "boolean value indicating whether the address can join a pool"
        }
      },
      "commitAddToken(address,uint256,uint256)": {
        "details": "The purpose of this two-stage commit is to give warning of a potentially dangerous      operation. A malicious pool operator could add a large amount of a low-value token,      then drain the pool through price manipulation. Of course, there are many      legitimate purposes, such as adding additional collateral tokens.",
        "params": {
          "balance": "- how much to be added",
          "denormalizedWeight": "- the desired token weight",
          "token": "- the token to be added"
        }
      },
      "createPool(uint256,uint256,uint256)": {
        "details": "Initialize the swap fee to the value provided in the CRP constructor      Can be changed if the canChangeSwapFee permission is enabled      Time parameters will be fixed at these values      If this contract doesn't have canChangeWeights permission - or you want to use the default      values, the block time arguments are not needed, and you can just call the single-argument      createPool()",
        "params": {
          "addTokenTimeLockInBlocksParam": "- Enforce a mandatory wait time between updates                                   This is also the wait time between committing and applying a new token",
          "initialSupply": "- Starting token balance",
          "minimumWeightChangeBlockPeriodParam": "- Enforce a minimum time between the start and end blocks"
        }
      },
      "decimals()": {
        "details": "Returns the number of decimals used to get its user representation. For example, if `decimals` equals `2`, a balance of `505` tokens should be displayed to a user as `5,05` (`505 / 10 ** 2`). Tokens usually opt for a value of 18, imitating the relationship between Ether and Wei. This is the value {ERC20} uses, unless {_setupDecimals} is called. NOTE: This information is only used for _display_ purposes: it in no way affects any of the arithmetic of the contract, including {IERC20-balanceOf} and {IERC20-transfer}."
      },
      "decreaseApproval(address,uint256)": {
        "details": "emits an Approval eventIf you try to decrease it below the current limit, it's just set to zero (not an error)",
        "params": {
          "amount": "- number of tokens being approved",
          "spender": "- entity the owner (sender) is approving to spend his tokens"
        },
        "returns": {
          "_0": "bool - result of the approval (will always be true if it doesn't revert)"
        }
      },
      "exitPool(uint256,uint256[])": {
        "details": "Emits a LogExit event for each token      bPool is a contract interface; function calls on it are external",
        "params": {
          "minAmountsOut": "- minimum amount of asset tokens to receive",
          "poolAmountIn": "- amount of pool tokens to redeem"
        }
      },
      "exitswapExternAmountOut(address,uint256,uint256)": {
        "details": "Emits a LogExit event for the token",
        "params": {
          "maxPoolAmountIn": "- maximum pool tokens to be redeemed",
          "tokenAmountOut": "- amount of underlying asset tokens to receive",
          "tokenOut": "- which token the caller wants to receive"
        },
        "returns": {
          "poolAmountIn": "- amount of pool tokens redeemed"
        }
      },
      "exitswapPoolAmountIn(address,uint256,uint256)": {
        "details": "Emits a LogExit event for the token",
        "params": {
          "minAmountOut": "- minimum asset tokens to receive",
          "poolAmountIn": "- amount of pool tokens to redeem",
          "tokenOut": "- which token the caller wants to receive"
        },
        "returns": {
          "tokenAmountOut": "- amount of asset tokens returned"
        }
      },
      "getBalancerSafeMathVersion()": {
        "details": "Convenience function to get the address of the BalancerSafeMath library (so clients can check version)",
        "returns": {
          "_0": "address of the BalancerSafeMath library"
        }
      },
      "getController()": {
        "details": "external for gas optimization",
        "returns": {
          "_0": "address - of the owner (AKA controller)"
        }
      },
      "getDenormalizedWeight(address)": {
        "details": "viewlock to prevent calling if it's being updated",
        "returns": {
          "_0": "token weight"
        }
      },
      "getRightsManagerVersion()": {
        "details": "Convenience function to get the address of the RightsManager library (so clients can check version)",
        "returns": {
          "_0": "address of the RightsManager library"
        }
      },
      "getSmartPoolManagerVersion()": {
        "details": "Convenience function to get the address of the SmartPoolManager library (so clients can check version)",
        "returns": {
          "_0": "address of the SmartPoolManager library"
        }
      },
      "hasPermission(uint8)": {
        "details": "value of the enum is just the 0-based index in the enumeration      For instance canPauseSwapping is 0; canChangeWeights is 2",
        "returns": {
          "_0": "token boolean true if we have the given permission"
        }
      },
      "increaseApproval(address,uint256)": {
        "details": "emits an Approval event",
        "params": {
          "amount": "- number of tokens being approved",
          "spender": "- entity the owner (sender) is approving to spend his tokens"
        },
        "returns": {
          "_0": "bool - result of the approval (will always be true if it doesn't revert)"
        }
      },
      "isPublicSwap()": {
        "details": "viewLock, because setPublicSwap is lock      bPool is a contract interface; function calls on it are external",
        "returns": {
          "_0": "Current value of isPublicSwap"
        }
      },
      "joinPool(uint256,uint256[])": {
        "details": "Emits a LogJoin event (for each token)      bPool is a contract interface; function calls on it are external",
        "params": {
          "maxAmountsIn": "- Max amount of asset tokens to spend",
          "poolAmountOut": "- number of pool tokens to receive"
        }
      },
      "joinswapExternAmountIn(address,uint256,uint256)": {
        "details": "emits a LogJoin event",
        "params": {
          "minPoolAmountOut": "- minimum of pool tokens to receive",
          "tokenAmountIn": "- amount of deposit",
          "tokenIn": "- which token we're transferring in"
        },
        "returns": {
          "poolAmountOut": "- amount of pool tokens minted and transferred"
        }
      },
      "joinswapPoolAmountOut(address,uint256,uint256)": {
        "details": "emits a LogJoin event",
        "params": {
          "maxAmountIn": "- Maximum asset tokens that can be pulled to pay for the pool tokens",
          "poolAmountOut": "- amount of pool tokens to be received",
          "tokenIn": "- which token we're transferring in (system calculates amount required)"
        },
        "returns": {
          "tokenAmountIn": "- amount of asset tokens transferred in to purchase the pool tokens"
        }
      },
      "name()": {
        "details": "Returns the name of the token.      We allow the user to set this name (as well as the symbol).      Alternatives are 1) A fixed string (original design)                       2) A fixed string plus the user-defined symbol                          return string(abi.encodePacked(NAME, \"-\", _symbol));"
      },
      "pokeWeights()": {
        "details": "Still works if we poke after the end of the period; also works if the weights don't change      Resets if we are poking beyond the end, so that we can do it again"
      },
      "removeToken(address)": {
        "details": "bPool is a contract interface; function calls on it are external",
        "params": {
          "token": "- token to remove"
        }
      },
      "removeWhitelistedLiquidityProvider(address)": {
        "params": {
          "provider": "- address of the liquidity provider"
        }
      },
      "setCap(uint256)": {
        "details": "_bspCap defaults in the constructor to unlimited      Can set to 0 (or anywhere below the current supply), to halt new investment      Prevent setting it before creating a pool, since createPool sets to intialSupply      (it does this to avoid an unlimited cap window between construction and createPool)      Therefore setting it before then has no effect, so should not be allowed",
        "params": {
          "newCap": "- new value of the cap"
        }
      },
      "setController(address)": {
        "details": "external for gas optimization",
        "params": {
          "newOwner": "- address of new owner"
        }
      },
      "setPublicSwap(bool)": {
        "details": "If this smart pool has canPauseSwapping enabled, we can turn publicSwap off if it's already on      Note that if they turn swapping off - but then finalize the pool - finalizing will turn the      swapping back on. They're not supposed to finalize the underlying pool... would defeat the      smart pool functions. (Only the owner can finalize the pool - which is this contract -      so there is no risk from outside.)      bPool is a contract interface; function calls on it are external",
        "params": {
          "publicSwap": "new value of the swap"
        }
      },
      "setSwapFee(uint256)": {
        "details": "Keep the local version and core in sync (see below)      bPool is a contract interface; function calls on it are external",
        "params": {
          "swapFee": "in Wei"
        }
      },
      "symbol()": {
        "details": "Returns the symbol of the token, usually a shorter version of the name."
      },
      "totalSupply()": {
        "details": "declared external for gas optimization",
        "returns": {
          "_0": "uint - total number of tokens in existence"
        }
      },
      "transfer(address,uint256)": {
        "details": "_move emits a Transfer event if successful",
        "params": {
          "amount": "- number of tokens being transferred",
          "recipient": "- entity receiving the tokens"
        },
        "returns": {
          "_0": "bool - result of the transfer (will always be true if it doesn't revert)"
        }
      },
      "transferFrom(address,address,uint256)": {
        "details": "_move emits a Transfer event if successful; may also emit an Approval event",
        "params": {
          "amount": "- number of tokens being transferred",
          "recipient": "- recipient of the tokens",
          "sender": "- entity sending the tokens (must be caller or allowed to spend on behalf of caller)"
        },
        "returns": {
          "_0": "bool - result of the transfer (will always be true if it doesn't revert)"
        }
      },
      "updateWeight(address,uint256)": {
        "details": "Notice Balance is not an input (like with rebind on BPool) since we will require prices not to change      This is achieved by forcing balances to change proportionally to weights, so that prices don't change      If prices could be changed, this would allow the controller to drain the pool by arbing price changes",
        "params": {
          "newWeight": "- new weight of the token",
          "token": "- token to be reweighted"
        }
      },
      "updateWeightsGradually(uint256[],uint256,uint256)": {
        "details": "Must call pokeWeights at least once past the end for it to do the final update      and enable calling this again.      It is possible to call updateWeightsGradually during an update in some use cases      For instance, setting newWeights to currentWeights to stop the update where it is",
        "params": {
          "endBlock": "- when weights will be at their final values",
          "newWeights": "- final weights we want to get to. Note that the ORDER (and number) of                     tokens can change if you have added or removed tokens from the pool                     It ensures the counts are correct, but can't help you with the order!                     You can get the underlying BPool (it's public), and call                      getCurrentTokens() to see the current ordering, if you're not sure",
          "startBlock": "- when weights should start to change"
        }
      },
      "whitelistLiquidityProvider(address)": {
        "params": {
          "provider": "- address of the liquidity provider"
        }
      }
    },
    "title": "Ampl Elastic Configurable Rights Pool.",
    "version": 1
  },
  "userdoc": {
    "kind": "user",
    "methods": {
      "allowance(address,address)": {
        "notice": "Getter for allowance: amount spender will be allowed to spend on behalf of owner"
      },
      "applyAddToken()": {
        "notice": "Add the token previously committed (in commitAddToken) to the pool"
      },
      "approve(address,uint256)": {
        "notice": "Approve owner (sender) to spend a certain amount"
      },
      "balanceOf(address)": {
        "notice": "Getter for current account balance"
      },
      "canProvideLiquidity(address)": {
        "notice": "Check if an address is a liquidity provider"
      },
      "commitAddToken(address,uint256,uint256)": {
        "notice": "Schedule (commit) a token to be added; must call applyAddToken after a fixed         number of blocks to actually add the token"
      },
      "createPool(uint256,uint256,uint256)": {
        "notice": "Create a new Smart Pool - and set the block period time parameters"
      },
      "decreaseApproval(address,uint256)": {
        "notice": "Decrease the amount the spender is allowed to spend on behalf of the owner (sender)"
      },
      "exitPool(uint256,uint256[])": {
        "notice": "Exit a pool - redeem pool tokens for underlying assets"
      },
      "exitswapExternAmountOut(address,uint256,uint256)": {
        "notice": "Exit a pool - redeem pool tokens for a specific amount of underlying assets         Asset must be present in the pool"
      },
      "exitswapPoolAmountIn(address,uint256,uint256)": {
        "notice": "Exit a pool - redeem a specific number of pool tokens for an underlying asset         Asset must be present in the pool, and will incur an EXIT_FEE (if set to non-zero)"
      },
      "getBalancerSafeMathVersion()": {
        "notice": "Getter for the BalancerSafeMath contract"
      },
      "getController()": {
        "notice": "Returns the address of the current owner"
      },
      "getDenormalizedWeight(address)": {
        "notice": "Get the denormalized weight of a token"
      },
      "getRightsManagerVersion()": {
        "notice": "Getter for the RightsManager contract"
      },
      "getSmartPoolManagerVersion()": {
        "notice": "Getter for the SmartPoolManager contract"
      },
      "hasPermission(uint8)": {
        "notice": "Getter for specific permissions"
      },
      "increaseApproval(address,uint256)": {
        "notice": "Increase the amount the spender is allowed to spend on behalf of the owner (sender)"
      },
      "isPublicSwap()": {
        "notice": "Getter for the publicSwap field on the underlying pool"
      },
      "joinPool(uint256,uint256[])": {
        "notice": "Join a pool"
      },
      "joinswapExternAmountIn(address,uint256,uint256)": {
        "notice": "Join by swapping a fixed amount of an external token in (must be present in the pool)         System calculates the pool token amount"
      },
      "joinswapPoolAmountOut(address,uint256,uint256)": {
        "notice": "Join by swapping an external token in (must be present in the pool)         To receive an exact amount of pool tokens out. System calculates the deposit amount"
      },
      "pokeWeights()": {
        "notice": "External function called to make the contract update weights according to plan"
      },
      "removeToken(address)": {
        "notice": "Remove a token from the pool"
      },
      "removeWhitelistedLiquidityProvider(address)": {
        "notice": "Remove from the whitelist of liquidity providers (if enabled)"
      },
      "setCap(uint256)": {
        "notice": "Set the cap (max # of pool tokens)"
      },
      "setController(address)": {
        "notice": "Transfers ownership of the contract to a new account (`newOwner`).         Can only be called by the current owner"
      },
      "setPublicSwap(bool)": {
        "notice": "Set the public swap flag on the underlying pool"
      },
      "setSwapFee(uint256)": {
        "notice": "Set the swap fee on the underlying pool"
      },
      "totalSupply()": {
        "notice": "Getter for the total supply"
      },
      "transfer(address,uint256)": {
        "notice": "Transfer the given amount from sender (caller) to recipient"
      },
      "transferFrom(address,address,uint256)": {
        "notice": "Transfer the given amount from sender to recipient"
      },
      "updateWeight(address,uint256)": {
        "notice": "Update the weight of an existing token"
      },
      "updateWeightsGradually(uint256[],uint256,uint256)": {
        "notice": "Update weights in a predetermined way, between startBlock and endBlock,         through external calls to pokeWeights"
      },
      "whitelistLiquidityProvider(address)": {
        "notice": "Add to the whitelist of liquidity providers (if enabled)"
      }
    },
    "version": 1
  },
  "storageLayout": {
    "storage": [
      {
        "astId": 2041,
        "contract": "contracts/liquidity/ElasticSupplyPool.sol:ElasticSupplyPool",
        "label": "varTotalSupply",
        "offset": 0,
        "slot": "0",
        "type": "t_uint256"
      },
      {
        "astId": 2045,
        "contract": "contracts/liquidity/ElasticSupplyPool.sol:ElasticSupplyPool",
        "label": "_balance",
        "offset": 0,
        "slot": "1",
        "type": "t_mapping(t_address,t_uint256)"
      },
      {
        "astId": 2051,
        "contract": "contracts/liquidity/ElasticSupplyPool.sol:ElasticSupplyPool",
        "label": "_allowance",
        "offset": 0,
        "slot": "2",
        "type": "t_mapping(t_address,t_mapping(t_address,t_uint256))"
      },
      {
        "astId": 2053,
        "contract": "contracts/liquidity/ElasticSupplyPool.sol:ElasticSupplyPool",
        "label": "_symbol",
        "offset": 0,
        "slot": "3",
        "type": "t_string_storage"
      },
      {
        "astId": 2055,
        "contract": "contracts/liquidity/ElasticSupplyPool.sol:ElasticSupplyPool",
        "label": "_name",
        "offset": 0,
        "slot": "4",
        "type": "t_string_storage"
      },
      {
        "astId": 2588,
        "contract": "contracts/liquidity/ElasticSupplyPool.sol:ElasticSupplyPool",
        "label": "_owner",
        "offset": 0,
        "slot": "5",
        "type": "t_address"
      },
      {
        "astId": 2666,
        "contract": "contracts/liquidity/ElasticSupplyPool.sol:ElasticSupplyPool",
        "label": "_status",
        "offset": 0,
        "slot": "6",
        "type": "t_uint256"
      },
      {
        "astId": 41,
        "contract": "contracts/liquidity/ElasticSupplyPool.sol:ElasticSupplyPool",
        "label": "bFactory",
        "offset": 0,
        "slot": "7",
        "type": "t_contract(IBFactory)2023"
      },
      {
        "astId": 43,
        "contract": "contracts/liquidity/ElasticSupplyPool.sol:ElasticSupplyPool",
        "label": "bPool",
        "offset": 0,
        "slot": "8",
        "type": "t_contract(IBPool)1995"
      },
      {
        "astId": 45,
        "contract": "contracts/liquidity/ElasticSupplyPool.sol:ElasticSupplyPool",
        "label": "rights",
        "offset": 0,
        "slot": "9",
        "type": "t_struct(Rights)3287_storage"
      },
      {
        "astId": 47,
        "contract": "contracts/liquidity/ElasticSupplyPool.sol:ElasticSupplyPool",
        "label": "gradualUpdate",
        "offset": 0,
        "slot": "10",
        "type": "t_struct(GradualUpdateParams)3567_storage"
      },
      {
        "astId": 49,
        "contract": "contracts/liquidity/ElasticSupplyPool.sol:ElasticSupplyPool",
        "label": "newToken",
        "offset": 0,
        "slot": "14",
        "type": "t_struct(NewTokenParams)3556_storage"
      },
      {
        "astId": 51,
        "contract": "contracts/liquidity/ElasticSupplyPool.sol:ElasticSupplyPool",
        "label": "_initialSwapFee",
        "offset": 0,
        "slot": "18",
        "type": "t_uint256"
      },
      {
        "astId": 54,
        "contract": "contracts/liquidity/ElasticSupplyPool.sol:ElasticSupplyPool",
        "label": "_initialTokens",
        "offset": 0,
        "slot": "19",
        "type": "t_array(t_address)dyn_storage"
      },
      {
        "astId": 57,
        "contract": "contracts/liquidity/ElasticSupplyPool.sol:ElasticSupplyPool",
        "label": "_initialBalances",
        "offset": 0,
        "slot": "20",
        "type": "t_array(t_uint256)dyn_storage"
      },
      {
        "astId": 59,
        "contract": "contracts/liquidity/ElasticSupplyPool.sol:ElasticSupplyPool",
        "label": "minimumWeightChangeBlockPeriod",
        "offset": 0,
        "slot": "21",
        "type": "t_uint256"
      },
      {
        "astId": 61,
        "contract": "contracts/liquidity/ElasticSupplyPool.sol:ElasticSupplyPool",
        "label": "addTokenTimeLockInBlocks",
        "offset": 0,
        "slot": "22",
        "type": "t_uint256"
      },
      {
        "astId": 65,
        "contract": "contracts/liquidity/ElasticSupplyPool.sol:ElasticSupplyPool",
        "label": "_liquidityProviderWhitelist",
        "offset": 0,
        "slot": "23",
        "type": "t_mapping(t_address,t_bool)"
      },
      {
        "astId": 67,
        "contract": "contracts/liquidity/ElasticSupplyPool.sol:ElasticSupplyPool",
        "label": "bspCap",
        "offset": 0,
        "slot": "24",
        "type": "t_uint256"
      }
    ],
    "types": {
      "t_address": {
        "encoding": "inplace",
        "label": "address",
        "numberOfBytes": "20"
      },
      "t_array(t_address)dyn_storage": {
        "base": "t_address",
        "encoding": "dynamic_array",
        "label": "address[]",
        "numberOfBytes": "32"
      },
      "t_array(t_uint256)dyn_storage": {
        "base": "t_uint256",
        "encoding": "dynamic_array",
        "label": "uint256[]",
        "numberOfBytes": "32"
      },
      "t_bool": {
        "encoding": "inplace",
        "label": "bool",
        "numberOfBytes": "1"
      },
      "t_contract(IBFactory)2023": {
        "encoding": "inplace",
        "label": "contract IBFactory",
        "numberOfBytes": "20"
      },
      "t_contract(IBPool)1995": {
        "encoding": "inplace",
        "label": "contract IBPool",
        "numberOfBytes": "20"
      },
      "t_mapping(t_address,t_bool)": {
        "encoding": "mapping",
        "key": "t_address",
        "label": "mapping(address => bool)",
        "numberOfBytes": "32",
        "value": "t_bool"
      },
      "t_mapping(t_address,t_mapping(t_address,t_uint256))": {
        "encoding": "mapping",
        "key": "t_address",
        "label": "mapping(address => mapping(address => uint256))",
        "numberOfBytes": "32",
        "value": "t_mapping(t_address,t_uint256)"
      },
      "t_mapping(t_address,t_uint256)": {
        "encoding": "mapping",
        "key": "t_address",
        "label": "mapping(address => uint256)",
        "numberOfBytes": "32",
        "value": "t_uint256"
      },
      "t_string_storage": {
        "encoding": "bytes",
        "label": "string",
        "numberOfBytes": "32"
      },
      "t_struct(GradualUpdateParams)3567_storage": {
        "encoding": "inplace",
        "label": "struct SmartPoolManager.GradualUpdateParams",
        "members": [
          {
            "astId": 3558,
            "contract": "contracts/liquidity/ElasticSupplyPool.sol:ElasticSupplyPool",
            "label": "startBlock",
            "offset": 0,
            "slot": "0",
            "type": "t_uint256"
          },
          {
            "astId": 3560,
            "contract": "contracts/liquidity/ElasticSupplyPool.sol:ElasticSupplyPool",
            "label": "endBlock",
            "offset": 0,
            "slot": "1",
            "type": "t_uint256"
          },
          {
            "astId": 3563,
            "contract": "contracts/liquidity/ElasticSupplyPool.sol:ElasticSupplyPool",
            "label": "startWeights",
            "offset": 0,
            "slot": "2",
            "type": "t_array(t_uint256)dyn_storage"
          },
          {
            "astId": 3566,
            "contract": "contracts/liquidity/ElasticSupplyPool.sol:ElasticSupplyPool",
            "label": "endWeights",
            "offset": 0,
            "slot": "3",
            "type": "t_array(t_uint256)dyn_storage"
          }
        ],
        "numberOfBytes": "128"
      },
      "t_struct(NewTokenParams)3556_storage": {
        "encoding": "inplace",
        "label": "struct SmartPoolManager.NewTokenParams",
        "members": [
          {
            "astId": 3547,
            "contract": "contracts/liquidity/ElasticSupplyPool.sol:ElasticSupplyPool",
            "label": "addr",
            "offset": 0,
            "slot": "0",
            "type": "t_address"
          },
          {
            "astId": 3549,
            "contract": "contracts/liquidity/ElasticSupplyPool.sol:ElasticSupplyPool",
            "label": "isCommitted",
            "offset": 20,
            "slot": "0",
            "type": "t_bool"
          },
          {
            "astId": 3551,
            "contract": "contracts/liquidity/ElasticSupplyPool.sol:ElasticSupplyPool",
            "label": "commitBlock",
            "offset": 0,
            "slot": "1",
            "type": "t_uint256"
          },
          {
            "astId": 3553,
            "contract": "contracts/liquidity/ElasticSupplyPool.sol:ElasticSupplyPool",
            "label": "denorm",
            "offset": 0,
            "slot": "2",
            "type": "t_uint256"
          },
          {
            "astId": 3555,
            "contract": "contracts/liquidity/ElasticSupplyPool.sol:ElasticSupplyPool",
            "label": "balance",
            "offset": 0,
            "slot": "3",
            "type": "t_uint256"
          }
        ],
        "numberOfBytes": "128"
      },
      "t_struct(Rights)3287_storage": {
        "encoding": "inplace",
        "label": "struct RightsManager.Rights",
        "members": [
          {
            "astId": 3276,
            "contract": "contracts/liquidity/ElasticSupplyPool.sol:ElasticSupplyPool",
            "label": "canPauseSwapping",
            "offset": 0,
            "slot": "0",
            "type": "t_bool"
          },
          {
            "astId": 3278,
            "contract": "contracts/liquidity/ElasticSupplyPool.sol:ElasticSupplyPool",
            "label": "canChangeSwapFee",
            "offset": 1,
            "slot": "0",
            "type": "t_bool"
          },
          {
            "astId": 3280,
            "contract": "contracts/liquidity/ElasticSupplyPool.sol:ElasticSupplyPool",
            "label": "canChangeWeights",
            "offset": 2,
            "slot": "0",
            "type": "t_bool"
          },
          {
            "astId": 3282,
            "contract": "contracts/liquidity/ElasticSupplyPool.sol:ElasticSupplyPool",
            "label": "canAddRemoveTokens",
            "offset": 3,
            "slot": "0",
            "type": "t_bool"
          },
          {
            "astId": 3284,
            "contract": "contracts/liquidity/ElasticSupplyPool.sol:ElasticSupplyPool",
            "label": "canWhitelistLPs",
            "offset": 4,
            "slot": "0",
            "type": "t_bool"
          },
          {
            "astId": 3286,
            "contract": "contracts/liquidity/ElasticSupplyPool.sol:ElasticSupplyPool",
            "label": "canChangeCap",
            "offset": 5,
            "slot": "0",
            "type": "t_bool"
          }
        ],
        "numberOfBytes": "32"
      },
      "t_uint256": {
        "encoding": "inplace",
        "label": "uint256",
        "numberOfBytes": "32"
      }
    }
  }
}