{
  "address": "0x0407Aa45Da25beE1cA161860C042321E93007380",
  "abi": [
    {
      "anonymous": false,
      "inputs": [
        {
          "indexed": true,
          "internalType": "address",
          "name": "from",
          "type": "address"
        },
        {
          "indexed": false,
          "internalType": "uint256",
          "name": "amount",
          "type": "uint256"
        }
      ],
      "name": "Deposit",
      "type": "event"
    },
    {
      "anonymous": false,
      "inputs": [
        {
          "indexed": false,
          "internalType": "string",
          "name": "param",
          "type": "string"
        }
      ],
      "name": "GovernanceUpdate",
      "type": "event"
    },
    {
      "anonymous": false,
      "inputs": [
        {
          "indexed": false,
          "internalType": "uint256",
          "name": "amount",
          "type": "uint256"
        }
      ],
      "name": "LiquidityFeeCollected",
      "type": "event"
    },
    {
      "anonymous": false,
      "inputs": [
        {
          "indexed": false,
          "internalType": "uint256",
          "name": "amount",
          "type": "uint256"
        }
      ],
      "name": "ProtocolFeeCollected",
      "type": "event"
    },
    {
      "anonymous": false,
      "inputs": [
        {
          "indexed": false,
          "internalType": "int256",
          "name": "stakeDiff",
          "type": "int256"
        },
        {
          "indexed": false,
          "internalType": "uint256",
          "name": "currentPrincipal",
          "type": "uint256"
        },
        {
          "indexed": false,
          "internalType": "uint256",
          "name": "oldPrincipal",
          "type": "uint256"
        }
      ],
      "name": "RewardsClaimed",
      "type": "event"
    },
    {
      "anonymous": false,
      "inputs": [
        {
          "indexed": true,
          "internalType": "address",
          "name": "node",
          "type": "address"
        },
        {
          "indexed": false,
          "internalType": "uint256",
          "name": "amount",
          "type": "uint256"
        }
      ],
      "name": "Stake",
      "type": "event"
    },
    {
      "anonymous": false,
      "inputs": [
        {
          "indexed": true,
          "internalType": "address",
          "name": "from",
          "type": "address"
        },
        {
          "indexed": true,
          "internalType": "address",
          "name": "node",
          "type": "address"
        },
        {
          "indexed": false,
          "internalType": "uint256",
          "name": "amount",
          "type": "uint256"
        },
        {
          "indexed": false,
          "internalType": "uint256",
          "name": "unstakeLockID",
          "type": "uint256"
        }
      ],
      "name": "Unstake",
      "type": "event"
    },
    {
      "anonymous": false,
      "inputs": [
        {
          "indexed": true,
          "internalType": "address",
          "name": "from",
          "type": "address"
        },
        {
          "indexed": false,
          "internalType": "uint256",
          "name": "amount",
          "type": "uint256"
        },
        {
          "indexed": false,
          "internalType": "uint256",
          "name": "unstakeLockID",
          "type": "uint256"
        }
      ],
      "name": "Withdraw",
      "type": "event"
    },
    {
      "inputs": [
        {
          "internalType": "address[]",
          "name": "_targets",
          "type": "address[]"
        },
        {
          "internalType": "uint256[]",
          "name": "_values",
          "type": "uint256[]"
        },
        {
          "internalType": "bytes[]",
          "name": "_datas",
          "type": "bytes[]"
        }
      ],
      "name": "batchExecute",
      "outputs": [],
      "stateMutability": "nonpayable",
      "type": "function"
    },
    {
      "inputs": [
        {
          "internalType": "uint256",
          "name": "_amountIn",
          "type": "uint256"
        }
      ],
      "name": "calcDepositOut",
      "outputs": [
        {
          "internalType": "uint256",
          "name": "",
          "type": "uint256"
        }
      ],
      "stateMutability": "view",
      "type": "function"
    },
    {
      "inputs": [],
      "name": "claimRewards",
      "outputs": [],
      "stateMutability": "nonpayable",
      "type": "function"
    },
    {
      "inputs": [],
      "name": "collectFees",
      "outputs": [
        {
          "internalType": "uint256",
          "name": "",
          "type": "uint256"
        }
      ],
      "stateMutability": "nonpayable",
      "type": "function"
    },
    {
      "inputs": [],
      "name": "collectLiquidityFees",
      "outputs": [
        {
          "internalType": "uint256",
          "name": "amount",
          "type": "uint256"
        }
      ],
      "stateMutability": "nonpayable",
      "type": "function"
    },
    {
      "inputs": [],
      "name": "currentPrincipal",
      "outputs": [
        {
          "internalType": "uint256",
          "name": "",
          "type": "uint256"
        }
      ],
      "stateMutability": "view",
      "type": "function"
    },
    {
      "inputs": [
        {
          "internalType": "uint256",
          "name": "_amount",
          "type": "uint256"
        }
      ],
      "name": "deposit",
      "outputs": [],
      "stateMutability": "nonpayable",
      "type": "function"
    },
    {
      "inputs": [
        {
          "internalType": "uint256",
          "name": "_amount",
          "type": "uint256"
        },
        {
          "internalType": "uint256",
          "name": "_deadline",
          "type": "uint256"
        },
        {
          "internalType": "uint8",
          "name": "_v",
          "type": "uint8"
        },
        {
          "internalType": "bytes32",
          "name": "_r",
          "type": "bytes32"
        },
        {
          "internalType": "bytes32",
          "name": "_s",
          "type": "bytes32"
        }
      ],
      "name": "depositWithPermit",
      "outputs": [],
      "stateMutability": "nonpayable",
      "type": "function"
    },
    {
      "inputs": [
        {
          "internalType": "address",
          "name": "_target",
          "type": "address"
        },
        {
          "internalType": "uint256",
          "name": "_value",
          "type": "uint256"
        },
        {
          "internalType": "bytes",
          "name": "_data",
          "type": "bytes"
        }
      ],
      "name": "execute",
      "outputs": [],
      "stateMutability": "nonpayable",
      "type": "function"
    },
    {
      "inputs": [],
      "name": "gov",
      "outputs": [
        {
          "internalType": "address",
          "name": "",
          "type": "address"
        }
      ],
      "stateMutability": "view",
      "type": "function"
    },
    {
      "inputs": [
        {
          "internalType": "contract IERC20",
          "name": "_steak",
          "type": "address"
        },
        {
          "internalType": "string",
          "name": "_symbol",
          "type": "string"
        },
        {
          "internalType": "contract IGraph",
          "name": "_graph",
          "type": "address"
        },
        {
          "internalType": "address",
          "name": "_node",
          "type": "address"
        },
        {
          "internalType": "uint256",
          "name": "_protocolFee",
          "type": "uint256"
        },
        {
          "internalType": "uint256",
          "name": "_liquidityFee",
          "type": "uint256"
        },
        {
          "internalType": "contract ITenderToken",
          "name": "_tenderTokenTarget",
          "type": "address"
        },
        {
          "internalType": "contract TenderFarmFactory",
          "name": "_tenderFarmFactory",
          "type": "address"
        },
        {
          "internalType": "contract ITenderSwapFactory",
          "name": "_tenderSwapFactory",
          "type": "address"
        }
      ],
      "name": "initialize",
      "outputs": [],
      "stateMutability": "nonpayable",
      "type": "function"
    },
    {
      "inputs": [],
      "name": "liquidityFee",
      "outputs": [
        {
          "internalType": "uint256",
          "name": "",
          "type": "uint256"
        }
      ],
      "stateMutability": "view",
      "type": "function"
    },
    {
      "inputs": [],
      "name": "node",
      "outputs": [
        {
          "internalType": "address",
          "name": "",
          "type": "address"
        }
      ],
      "stateMutability": "view",
      "type": "function"
    },
    {
      "inputs": [],
      "name": "pendingFees",
      "outputs": [
        {
          "internalType": "uint256",
          "name": "",
          "type": "uint256"
        }
      ],
      "stateMutability": "view",
      "type": "function"
    },
    {
      "inputs": [],
      "name": "pendingLiquidityFees",
      "outputs": [
        {
          "internalType": "uint256",
          "name": "",
          "type": "uint256"
        }
      ],
      "stateMutability": "view",
      "type": "function"
    },
    {
      "inputs": [],
      "name": "protocolFee",
      "outputs": [
        {
          "internalType": "uint256",
          "name": "",
          "type": "uint256"
        }
      ],
      "stateMutability": "view",
      "type": "function"
    },
    {
      "inputs": [
        {
          "internalType": "address",
          "name": "_token",
          "type": "address"
        },
        {
          "internalType": "uint256",
          "name": "_value",
          "type": "uint256"
        },
        {
          "internalType": "uint256",
          "name": "_deadline",
          "type": "uint256"
        },
        {
          "internalType": "uint8",
          "name": "_v",
          "type": "uint8"
        },
        {
          "internalType": "bytes32",
          "name": "_r",
          "type": "bytes32"
        },
        {
          "internalType": "bytes32",
          "name": "_s",
          "type": "bytes32"
        }
      ],
      "name": "selfPermit",
      "outputs": [],
      "stateMutability": "payable",
      "type": "function"
    },
    {
      "inputs": [
        {
          "internalType": "address",
          "name": "_token",
          "type": "address"
        },
        {
          "internalType": "uint256",
          "name": "_value",
          "type": "uint256"
        },
        {
          "internalType": "uint256",
          "name": "_deadline",
          "type": "uint256"
        },
        {
          "internalType": "uint8",
          "name": "_v",
          "type": "uint8"
        },
        {
          "internalType": "bytes32",
          "name": "_r",
          "type": "bytes32"
        },
        {
          "internalType": "bytes32",
          "name": "_s",
          "type": "bytes32"
        }
      ],
      "name": "selfPermitIfNecessary",
      "outputs": [],
      "stateMutability": "payable",
      "type": "function"
    },
    {
      "inputs": [
        {
          "internalType": "address",
          "name": "_gov",
          "type": "address"
        }
      ],
      "name": "setGov",
      "outputs": [],
      "stateMutability": "nonpayable",
      "type": "function"
    },
    {
      "inputs": [
        {
          "internalType": "uint256",
          "name": "_liquidityFee",
          "type": "uint256"
        }
      ],
      "name": "setLiquidityFee",
      "outputs": [],
      "stateMutability": "nonpayable",
      "type": "function"
    },
    {
      "inputs": [
        {
          "internalType": "address",
          "name": "_node",
          "type": "address"
        }
      ],
      "name": "setNode",
      "outputs": [],
      "stateMutability": "nonpayable",
      "type": "function"
    },
    {
      "inputs": [
        {
          "internalType": "uint256",
          "name": "_protocolFee",
          "type": "uint256"
        }
      ],
      "name": "setProtocolFee",
      "outputs": [],
      "stateMutability": "nonpayable",
      "type": "function"
    },
    {
      "inputs": [
        {
          "internalType": "address",
          "name": "_stakingContract",
          "type": "address"
        }
      ],
      "name": "setStakingContract",
      "outputs": [],
      "stateMutability": "nonpayable",
      "type": "function"
    },
    {
      "inputs": [
        {
          "internalType": "contract IERC20",
          "name": "_steak",
          "type": "address"
        }
      ],
      "name": "setSteak",
      "outputs": [],
      "stateMutability": "nonpayable",
      "type": "function"
    },
    {
      "inputs": [
        {
          "internalType": "contract ITenderFarm",
          "name": "_tenderFarm",
          "type": "address"
        }
      ],
      "name": "setTenderFarm",
      "outputs": [],
      "stateMutability": "nonpayable",
      "type": "function"
    },
    {
      "inputs": [
        {
          "internalType": "address",
          "name": "_account",
          "type": "address"
        },
        {
          "internalType": "uint256",
          "name": "_amount",
          "type": "uint256"
        }
      ],
      "name": "stake",
      "outputs": [],
      "stateMutability": "nonpayable",
      "type": "function"
    },
    {
      "inputs": [],
      "name": "steak",
      "outputs": [
        {
          "internalType": "contract IERC20",
          "name": "",
          "type": "address"
        }
      ],
      "stateMutability": "view",
      "type": "function"
    },
    {
      "inputs": [],
      "name": "tenderFarm",
      "outputs": [
        {
          "internalType": "contract ITenderFarm",
          "name": "",
          "type": "address"
        }
      ],
      "stateMutability": "view",
      "type": "function"
    },
    {
      "inputs": [],
      "name": "tenderSwap",
      "outputs": [
        {
          "internalType": "contract ITenderSwap",
          "name": "",
          "type": "address"
        }
      ],
      "stateMutability": "view",
      "type": "function"
    },
    {
      "inputs": [],
      "name": "tenderToken",
      "outputs": [
        {
          "internalType": "contract ITenderToken",
          "name": "",
          "type": "address"
        }
      ],
      "stateMutability": "view",
      "type": "function"
    },
    {
      "inputs": [],
      "name": "totalStakedTokens",
      "outputs": [
        {
          "internalType": "uint256",
          "name": "",
          "type": "uint256"
        }
      ],
      "stateMutability": "view",
      "type": "function"
    },
    {
      "inputs": [
        {
          "internalType": "uint256",
          "name": "_amount",
          "type": "uint256"
        }
      ],
      "name": "unstake",
      "outputs": [
        {
          "internalType": "uint256",
          "name": "",
          "type": "uint256"
        }
      ],
      "stateMutability": "nonpayable",
      "type": "function"
    },
    {
      "inputs": [
        {
          "internalType": "uint256",
          "name": "",
          "type": "uint256"
        }
      ],
      "name": "unstakeLocks",
      "outputs": [
        {
          "internalType": "uint256",
          "name": "amount",
          "type": "uint256"
        },
        {
          "internalType": "address",
          "name": "account",
          "type": "address"
        }
      ],
      "stateMutability": "view",
      "type": "function"
    },
    {
      "inputs": [
        {
          "internalType": "uint256",
          "name": "_unstakeLockID",
          "type": "uint256"
        }
      ],
      "name": "withdraw",
      "outputs": [],
      "stateMutability": "nonpayable",
      "type": "function"
    }
  ],
  "transactionHash": "0xc5765983c98c480231d9f4b1a1d570e6c1bc8dc8270ba8b65bad539ff170060b",
  "args": [],
  "solcInputHash": "67b4bbadc104084d23df39c21162b53d",
  "bytecode": "0x608060405234801561001057600080fd5b506152dc806100206000396000f3fe6080604052600436106101f95760003560e01c8063a26a546b1161010d578063c2e3140a116100a0578063ec6d80f61161006f578063ec6d80f6146106c6578063f3995c67146106ef578063f4d95a711461070b578063f5492b9514610736578063fbdfc96114610774576101f9565b8063c2e3140a1461062b578063c879657214610647578063cfad57a214610672578063d70754ec1461069b576101f9565b8063b0e21e8a116100dc578063b0e21e8a14610585578063b61d27f6146105b0578063b6b55f25146105d9578063c21d5ab714610602576101f9565b8063a26a546b146104dd578063adc9772e14610508578063afef75d214610531578063b089af311461055a576101f9565b8063372500ab116101905780636f1903151161015f5780636f190315146103f8578063787dce3d146104235780637cb0c2751461044c57806398118cb4146104895780639dd373b9146104b4576101f9565b8063372500ab146103625780633ae73259146103795780634a970be7146103a457806351c669c0146103cd576101f9565b80632d822160116101cc5780632d822160146102a85780632e17de78146102d35780632e1a7d4d14610310578063357bf15c14610339576101f9565b8063077d97d7146101fe57806312d43a5114610227578063224438d1146102525780632a777db21461027d575b600080fd5b34801561020a57600080fd5b5061022560048036038101906102209190613a51565b61079d565b005b34801561023357600080fd5b5061023c61095b565b6040516102499190614386565b60405180910390f35b34801561025e57600080fd5b50610267610981565b604051610274919061481c565b60405180910390f35b34801561028957600080fd5b50610292610987565b60405161029f919061481c565b60405180910390f35b3480156102b457600080fd5b506102bd61098d565b6040516102ca9190614521565b60405180910390f35b3480156102df57600080fd5b506102fa60048036038101906102f59190613d20565b6109b3565b604051610307919061481c565b60405180910390f35b34801561031c57600080fd5b5061033760048036038101906103329190613d20565b610b2d565b005b34801561034557600080fd5b50610360600480360381019061035b9190613d20565b610b3a565b005b34801561036e57600080fd5b50610377610bd3565b005b34801561038557600080fd5b5061038e610cb3565b60405161039b919061481c565b60405180910390f35b3480156103b057600080fd5b506103cb60048036038101906103c69190613d72565b610cc2565b005b3480156103d957600080fd5b506103e2610d02565b6040516103ef919061481c565b60405180910390f35b34801561040457600080fd5b5061040d610d08565b60405161041a9190614499565b60405180910390f35b34801561042f57600080fd5b5061044a60048036038101906104459190613d20565b610d2e565b005b34801561045857600080fd5b50610473600480360381019061046e9190613d20565b610dc7565b604051610480919061481c565b60405180910390f35b34801561049557600080fd5b5061049e610dd9565b6040516104ab919061481c565b60405180910390f35b3480156104c057600080fd5b506104db60048036038101906104d691906138f7565b610ddf565b005b3480156104e957600080fd5b506104f2610e45565b6040516104ff9190614506565b60405180910390f35b34801561051457600080fd5b5061052f600480360381019061052a9190613920565b610e6b565b005b34801561053d57600080fd5b5061055860048036038101906105539190613b1e565b610ed3565b005b34801561056657600080fd5b5061056f610fa6565b60405161057c919061481c565b60405180910390f35b34801561059157600080fd5b5061059a6112d4565b6040516105a7919061481c565b60405180910390f35b3480156105bc57600080fd5b506105d760048036038101906105d2919061395c565b6112da565b005b3480156105e557600080fd5b5061060060048036038101906105fb9190613d20565b611346565b005b34801561060e57600080fd5b50610629600480360381019061062491906138f7565b611582565b005b610645600480360381019061064091906139c8565b611655565b005b34801561065357600080fd5b5061065c61170f565b604051610669919061481c565b60405180910390f35b34801561067e57600080fd5b50610699600480360381019061069491906138f7565b61184c565b005b3480156106a757600080fd5b506106b061191f565b6040516106bd9190614386565b60405180910390f35b3480156106d257600080fd5b506106ed60048036038101906106e89190613b47565b611945565b005b610709600480360381019061070491906139c8565b6119e6565b005b34801561071757600080fd5b506107206119fc565b60405161072d91906144eb565b60405180910390f35b34801561074257600080fd5b5061075d60048036038101906107589190613d20565b611a22565b60405161076b929190614837565b60405180910390f35b34801561078057600080fd5b5061079b60048036038101906107969190613c2a565b611a66565b005b600c60009054906101000a900473ffffffffffffffffffffffffffffffffffffffff1673ffffffffffffffffffffffffffffffffffffffff163373ffffffffffffffffffffffffffffffffffffffff16146107f757600080fd5b838390508686905014801561081157508181905086869050145b610850576040517f08c379a00000000000000000000000000000000000000000000000000000000081526004016108479061469a565b60405180910390fd5b60005b868690508110156109525761093f87878381811061089a577f4e487b7100000000000000000000000000000000000000000000000000000000600052603260045260246000fd5b90506020020160208101906108af91906138f7565b8686848181106108e8577f4e487b7100000000000000000000000000000000000000000000000000000000600052603260045260246000fd5b90506020020135858585818110610928577f4e487b7100000000000000000000000000000000000000000000000000000000600052603260045260246000fd5b905060200281019061093a9190614889565b611b39565b808061094a90614cb1565b915050610853565b50505050505050565b600c60009054906101000a900473ffffffffffffffffffffffffffffffffffffffff1681565b60075481565b60085481565b600160009054906101000a900473ffffffffffffffffffffffffffffffffffffffff1681565b6000600c60009054906101000a900473ffffffffffffffffffffffffffffffffffffffff1673ffffffffffffffffffffffffffffffffffffffff163373ffffffffffffffffffffffffffffffffffffffff1614610af957600160009054906101000a900473ffffffffffffffffffffffffffffffffffffffff1673ffffffffffffffffffffffffffffffffffffffff16639dc29fac33846040518363ffffffff1660e01b8152600401610a67929190614470565b602060405180830381600087803b158015610a8157600080fd5b505af1158015610a95573d6000803e3d6000fd5b505050506040513d601f19601f82011682018060405250810190610ab99190613af5565b610af8576040517f08c379a0000000000000000000000000000000000000000000000000000000008152600401610aef906145da565b60405180910390fd5b5b610b2633600460009054906101000a900473ffffffffffffffffffffffffffffffffffffffff1684611bf7565b9050919050565b610b373382611ff3565b50565b600c60009054906101000a900473ffffffffffffffffffffffffffffffffffffffff1673ffffffffffffffffffffffffffffffffffffffff163373ffffffffffffffffffffffffffffffffffffffff1614610b9457600080fd5b806006819055507f6641a0d0a317e54d1b956ab0202883db13ef06b75584a6a017b1b3c796f990fa604051610bc8906147ba565b60405180910390a150565b610bdb612520565b610cb1600460009054906101000a900473ffffffffffffffffffffffffffffffffffffffff16600060029054906101000a900473ffffffffffffffffffffffffffffffffffffffff1673ffffffffffffffffffffffffffffffffffffffff166370a08231306040518263ffffffff1660e01b8152600401610c5c9190614386565b60206040518083038186803b158015610c7457600080fd5b505afa158015610c88573d6000803e3d6000fd5b505050506040513d601f19601f82011682018060405250810190610cac9190613d49565b61271f565b565b6000610cbd612944565b905090565b610cf2600060029054906101000a900473ffffffffffffffffffffffffffffffffffffffff16868686868661294e565b610cfb85611346565b5050505050565b60095481565b600060029054906101000a900473ffffffffffffffffffffffffffffffffffffffff1681565b600c60009054906101000a900473ffffffffffffffffffffffffffffffffffffffff1673ffffffffffffffffffffffffffffffffffffffff163373ffffffffffffffffffffffffffffffffffffffff1614610d8857600080fd5b806005819055507f6641a0d0a317e54d1b956ab0202883db13ef06b75584a6a017b1b3c796f990fa604051610dbc9061473a565b60405180910390a150565b6000610dd2826129cd565b9050919050565b60065481565b600c60009054906101000a900473ffffffffffffffffffffffffffffffffffffffff1673ffffffffffffffffffffffffffffffffffffffff163373ffffffffffffffffffffffffffffffffffffffff1614610e3957600080fd5b610e4281612aa6565b50565b600360009054906101000a900473ffffffffffffffffffffffffffffffffffffffff1681565b600c60009054906101000a900473ffffffffffffffffffffffffffffffffffffffff1673ffffffffffffffffffffffffffffffffffffffff163373ffffffffffffffffffffffffffffffffffffffff1614610ec557600080fd5b610ecf828261271f565b5050565b600c60009054906101000a900473ffffffffffffffffffffffffffffffffffffffff1673ffffffffffffffffffffffffffffffffffffffff163373ffffffffffffffffffffffffffffffffffffffff1614610f2d57600080fd5b80600060026101000a81548173ffffffffffffffffffffffffffffffffffffffff021916908373ffffffffffffffffffffffffffffffffffffffff1602179055507f6641a0d0a317e54d1b956ab0202883db13ef06b75584a6a017b1b3c796f990fa604051610f9b906146da565b60405180910390a150565b6000600c60009054906101000a900473ffffffffffffffffffffffffffffffffffffffff1673ffffffffffffffffffffffffffffffffffffffff163373ffffffffffffffffffffffffffffffffffffffff161461100257600080fd5b6000600260009054906101000a900473ffffffffffffffffffffffffffffffffffffffff1673ffffffffffffffffffffffffffffffffffffffff166304d3b7c46040518163ffffffff1660e01b815260040160206040518083038186803b15801561106c57600080fd5b505afa158015611080573d6000803e3d6000fd5b505050506040513d601f19601f820116820180604052508101906110a49190613d49565b14156110b357600090506112d1565b6008549050600160009054906101000a900473ffffffffffffffffffffffffffffffffffffffff1673ffffffffffffffffffffffffffffffffffffffff166340c10f1930836040518363ffffffff1660e01b8152600401611115929190614470565b602060405180830381600087803b15801561112f57600080fd5b505af1158015611143573d6000803e3d6000fd5b505050506040513d601f19601f820116820180604052508101906111679190613af5565b50611170612b1f565b50600160009054906101000a900473ffffffffffffffffffffffffffffffffffffffff1673ffffffffffffffffffffffffffffffffffffffff1663095ea7b3600260009054906101000a900473ffffffffffffffffffffffffffffffffffffffff16836040518363ffffffff1660e01b81526004016111f0929190614470565b602060405180830381600087803b15801561120a57600080fd5b505af115801561121e573d6000803e3d6000fd5b505050506040513d601f19601f820116820180604052508101906112429190613af5565b50600260009054906101000a900473ffffffffffffffffffffffffffffffffffffffff1673ffffffffffffffffffffffffffffffffffffffff1663beceed39826040518263ffffffff1660e01b815260040161129e919061481c565b600060405180830381600087803b1580156112b857600080fd5b505af11580156112cc573d6000803e3d6000fd5b505050505b90565b60055481565b600c60009054906101000a900473ffffffffffffffffffffffffffffffffffffffff1673ffffffffffffffffffffffffffffffffffffffff163373ffffffffffffffffffffffffffffffffffffffff161461133457600080fd5b61134084848484611b39565b50505050565b60008111611389576040517f08c379a00000000000000000000000000000000000000000000000000000000081526004016113809061475a565b60405180910390fd5b6000611394826129cd565b9050600160009054906101000a900473ffffffffffffffffffffffffffffffffffffffff1673ffffffffffffffffffffffffffffffffffffffff166340c10f1933836040518363ffffffff1660e01b81526004016113f3929190614470565b602060405180830381600087803b15801561140d57600080fd5b505af1158015611421573d6000803e3d6000fd5b505050506040513d601f19601f820116820180604052508101906114459190613af5565b611484576040517f08c379a000000000000000000000000000000000000000000000000000000000815260040161147b9061463a565b60405180910390fd5b600060029054906101000a900473ffffffffffffffffffffffffffffffffffffffff1673ffffffffffffffffffffffffffffffffffffffff166323b872dd3330856040518463ffffffff1660e01b81526004016114e3939291906143ca565b602060405180830381600087803b1580156114fd57600080fd5b505af1158015611511573d6000803e3d6000fd5b505050506040513d601f19601f820116820180604052508101906115359190613af5565b611574576040517f08c379a000000000000000000000000000000000000000000000000000000000815260040161156b906145fa565b60405180910390fd5b61157e3383612b86565b5050565b600c60009054906101000a900473ffffffffffffffffffffffffffffffffffffffff1673ffffffffffffffffffffffffffffffffffffffff163373ffffffffffffffffffffffffffffffffffffffff16146115dc57600080fd5b80600460006101000a81548173ffffffffffffffffffffffffffffffffffffffff021916908373ffffffffffffffffffffffffffffffffffffffff1602179055507f6641a0d0a317e54d1b956ab0202883db13ef06b75584a6a017b1b3c796f990fa60405161164a9061471a565b60405180910390a150565b60008673ffffffffffffffffffffffffffffffffffffffff1663dd62ed3e33306040518363ffffffff1660e01b81526004016116929291906143a1565b60206040518083038186803b1580156116aa57600080fd5b505afa1580156116be573d6000803e3d6000fd5b505050506040513d601f19601f820116820180604052508101906116e29190613d49565b905085811015611706576117058782886116fc9190614a29565b8787878761294e565b5b50505050505050565b6000600c60009054906101000a900473ffffffffffffffffffffffffffffffffffffffff1673ffffffffffffffffffffffffffffffffffffffff163373ffffffffffffffffffffffffffffffffffffffff161461176b57600080fd5b600160009054906101000a900473ffffffffffffffffffffffffffffffffffffffff1673ffffffffffffffffffffffffffffffffffffffff166340c10f19600c60009054906101000a900473ffffffffffffffffffffffffffffffffffffffff166007546040518363ffffffff1660e01b81526004016117ec929190614470565b602060405180830381600087803b15801561180657600080fd5b505af115801561181a573d6000803e3d6000fd5b505050506040513d601f19601f8201168201806040525081019061183e9190613af5565b50611847612bf9565b905090565b600c60009054906101000a900473ffffffffffffffffffffffffffffffffffffffff1673ffffffffffffffffffffffffffffffffffffffff163373ffffffffffffffffffffffffffffffffffffffff16146118a657600080fd5b80600c60006101000a81548173ffffffffffffffffffffffffffffffffffffffff021916908373ffffffffffffffffffffffffffffffffffffffff1602179055507f6641a0d0a317e54d1b956ab0202883db13ef06b75584a6a017b1b3c796f990fa604051611914906146fa565b60405180910390a150565b600460009054906101000a900473ffffffffffffffffffffffffffffffffffffffff1681565b6119998a8a8a8080601f016020809104026020016040519081016040528093929190818152602001838380828437600081840152601f19601f82011690508083019250505050505050888888888888612c60565b86600d60006101000a81548173ffffffffffffffffffffffffffffffffffffffff021916908373ffffffffffffffffffffffffffffffffffffffff16021790555050505050505050505050565b6119f486868686868661294e565b505050505050565b600260009054906101000a900473ffffffffffffffffffffffffffffffffffffffff1681565b600a6020528060005260406000206000915090508060000154908060010160009054906101000a900473ffffffffffffffffffffffffffffffffffffffff16905082565b600c60009054906101000a900473ffffffffffffffffffffffffffffffffffffffff1673ffffffffffffffffffffffffffffffffffffffff163373ffffffffffffffffffffffffffffffffffffffff1614611ac057600080fd5b80600260006101000a81548173ffffffffffffffffffffffffffffffffffffffff021916908373ffffffffffffffffffffffffffffffffffffffff1602179055507f6641a0d0a317e54d1b956ab0202883db13ef06b75584a6a017b1b3c796f990fa604051611b2e9061479a565b60405180910390a150565b6000808573ffffffffffffffffffffffffffffffffffffffff16858585604051611b649291906142d7565b60006040518083038185875af1925050503d8060008114611ba1576040519150601f19603f3d011682016040523d82523d6000602084013e611ba6565b606091505b5091509150818190611bee576040517f08c379a0000000000000000000000000000000000000000000000000000000008152600401611be59190614573565b60405180910390fd5b50505050505050565b600080829050600b549150600c60009054906101000a900473ffffffffffffffffffffffffffffffffffffffff1673ffffffffffffffffffffffffffffffffffffffff168573ffffffffffffffffffffffffffffffffffffffff161415611e6957600f54600e5414611c9e576040517f08c379a0000000000000000000000000000000000000000000000000000000008152600401611c959061477a565b60405180910390fd5b6010549050600060108190555081600e819055506000600d60009054906101000a900473ffffffffffffffffffffffffffffffffffffffff1673ffffffffffffffffffffffffffffffffffffffff166392511c8f600460009054906101000a900473ffffffffffffffffffffffffffffffffffffffff166040518263ffffffff1660e01b8152600401611d319190614386565b60c06040518083038186803b158015611d4957600080fd5b505afa158015611d5d573d6000803e3d6000fd5b505050506040513d601f19601f82011682018060405250810190611d819190613cce565b905060008160a0015190506000826080015190506000818386611da491906149cf565b611dae919061499e565b9050600d60009054906101000a900473ffffffffffffffffffffffffffffffffffffffff1673ffffffffffffffffffffffffffffffffffffffff16634d99dd1689836040518363ffffffff1660e01b8152600401611e0d929190614470565b602060405180830381600087803b158015611e2757600080fd5b505af1158015611e3b573d6000803e3d6000fd5b505050506040513d601f19601f82011682018060405250810190611e5f9190613d49565b5050505050611edf565b60008111611eac576040517f08c379a0000000000000000000000000000000000000000000000000000000008152600401611ea39061475a565b60405180910390fd5b8060096000828254611ebe9190614a29565b925050819055508060106000828254611ed79190614948565b925050819055505b600182611eec9190614948565b600b8190555060405180604001604052808281526020018673ffffffffffffffffffffffffffffffffffffffff16815250600a60008481526020019081526020016000206000820151816000015560208201518160010160006101000a81548173ffffffffffffffffffffffffffffffffffffffff021916908373ffffffffffffffffffffffffffffffffffffffff1602179055509050508373ffffffffffffffffffffffffffffffffffffffff168573ffffffffffffffffffffffffffffffffffffffff167f18edd09e80386cd99df397e2e0d87d2bb259423eae08645e776321a36fe680ef8385604051611fe3929190614860565b60405180910390a3509392505050565b6000600a6000838152602001908152602001600020905060008160010160009054906101000a900473ffffffffffffffffffffffffffffffffffffffff169050600082600001549050600a60008581526020019081526020016000206000808201600090556001820160006101000a81549073ffffffffffffffffffffffffffffffffffffffff021916905550508473ffffffffffffffffffffffffffffffffffffffff168273ffffffffffffffffffffffffffffffffffffffff16146120ef576040517f08c379a00000000000000000000000000000000000000000000000000000000081526004016120e69061465a565b60405180910390fd5b60008111612132576040517f08c379a00000000000000000000000000000000000000000000000000000000081526004016121299061475a565b60405180910390fd5b600c60009054906101000a900473ffffffffffffffffffffffffffffffffffffffff1673ffffffffffffffffffffffffffffffffffffffff168573ffffffffffffffffffffffffffffffffffffffff16141561226957600e54600f81905550600d60009054906101000a900473ffffffffffffffffffffffffffffffffffffffff1673ffffffffffffffffffffffffffffffffffffffff166351a60b02600460009054906101000a900473ffffffffffffffffffffffffffffffffffffffff1660006040518363ffffffff1660e01b81526004016122119291906143a1565b602060405180830381600087803b15801561222b57600080fd5b505af115801561223f573d6000803e3d6000fd5b505050506040513d601f19601f820116820180604052508101906122639190613d49565b506124c9565b600f5484106122ad576040517f08c379a00000000000000000000000000000000000000000000000000000000081526004016122a49061477a565b60405180910390fd5b600060029054906101000a900473ffffffffffffffffffffffffffffffffffffffff1673ffffffffffffffffffffffffffffffffffffffff1663a9059cbb86836040518363ffffffff1660e01b815260040161230a929190614470565b602060405180830381600087803b15801561232457600080fd5b505af192505050801561235557506040513d601f19601f820116820180604052508101906123529190613af5565b60015b6124c65760008060029054906101000a900473ffffffffffffffffffffffffffffffffffffffff1673ffffffffffffffffffffffffffffffffffffffff166370a08231306040518263ffffffff1660e01b81526004016123b59190614386565b60206040518083038186803b1580156123cd57600080fd5b505afa1580156123e1573d6000803e3d6000fd5b505050506040513d601f19601f820116820180604052508101906124059190613d49565b9050808211156124c057600060029054906101000a900473ffffffffffffffffffffffffffffffffffffffff1673ffffffffffffffffffffffffffffffffffffffff1663a9059cbb87836040518363ffffffff1660e01b815260040161246c929190614470565b602060405180830381600087803b15801561248657600080fd5b505af115801561249a573d6000803e3d6000fd5b505050506040513d601f19601f820116820180604052508101906124be9190613af5565b505b506124c8565b505b5b8173ffffffffffffffffffffffffffffffffffffffff167ff279e6a1f5e320cca91135676d9cb6e44ca8a08c0b88342bcdb1144f6511b5688286604051612511929190614860565b60405180910390a25050505050565b6000600d60009054906101000a900473ffffffffffffffffffffffffffffffffffffffff1673ffffffffffffffffffffffffffffffffffffffff166315049a5a600460009054906101000a900473ffffffffffffffffffffffffffffffffffffffff16306040518363ffffffff1660e01b81526004016125a19291906143a1565b60606040518083038186803b1580156125b957600080fd5b505afa1580156125cd573d6000803e3d6000fd5b505050506040513d601f19601f820116820180604052508101906125f19190613cf7565b90506000600d60009054906101000a900473ffffffffffffffffffffffffffffffffffffffff1673ffffffffffffffffffffffffffffffffffffffff166392511c8f600460009054906101000a900473ffffffffffffffffffffffffffffffffffffffff166040518263ffffffff1660e01b81526004016126729190614386565b60c06040518083038186803b15801561268a57600080fd5b505afa15801561269e573d6000803e3d6000fd5b505050506040513d601f19601f820116820180604052508101906126c29190613cce565b905060008260000151905060008260a00151905060008360800151905060008214156126f257505050505061271d565b600082828561270191906149cf565b61270b919061499e565b90506127168161321b565b5050505050505b565b600081905060008114156127335750612940565b600073ffffffffffffffffffffffffffffffffffffffff168373ffffffffffffffffffffffffffffffffffffffff16141561276e5750612940565b600060029054906101000a900473ffffffffffffffffffffffffffffffffffffffff1673ffffffffffffffffffffffffffffffffffffffff1663095ea7b3600d60009054906101000a900473ffffffffffffffffffffffffffffffffffffffff16836040518363ffffffff1660e01b81526004016127ed929190614470565b602060405180830381600087803b15801561280757600080fd5b505af115801561281b573d6000803e3d6000fd5b505050506040513d601f19601f8201168201806040525081019061283f9190613af5565b50600d60009054906101000a900473ffffffffffffffffffffffffffffffffffffffff1673ffffffffffffffffffffffffffffffffffffffff1663026e402b84836040518363ffffffff1660e01b815260040161289d929190614470565b602060405180830381600087803b1580156128b757600080fd5b505af11580156128cb573d6000803e3d6000fd5b505050506040513d601f19601f820116820180604052508101906128ef9190613d49565b508273ffffffffffffffffffffffffffffffffffffffff167febedb8b3c678666e7f36970bc8f57abf6d8fa2e828c0da91ea5b75bf68ed101a82604051612936919061481c565b60405180910390a2505b5050565b6000600954905090565b8573ffffffffffffffffffffffffffffffffffffffff1663d505accf333088888888886040518863ffffffff1660e01b81526004016129939796959493929190614401565b600060405180830381600087803b1580156129ad57600080fd5b505af11580156129c1573d6000803e3d6000fd5b50505050505050505050565b6000620f424063ffffffff1682600d60009054906101000a900473ffffffffffffffffffffffffffffffffffffffff1673ffffffffffffffffffffffffffffffffffffffff1663e6aeb7966040518163ffffffff1660e01b815260040160206040518083038186803b158015612a4257600080fd5b505afa158015612a56573d6000803e3d6000fd5b505050506040513d601f19601f82011682018060405250810190612a7a9190613de9565b63ffffffff16612a8a91906149cf565b612a94919061499e565b82612a9f9190614a29565b9050919050565b80600d60006101000a81548173ffffffffffffffffffffffffffffffffffffffff021916908373ffffffffffffffffffffffffffffffffffffffff1602179055507f6641a0d0a317e54d1b956ab0202883db13ef06b75584a6a017b1b3c796f990fa604051612b149061461a565b60405180910390a150565b600080600854905060006008819055508060096000828254612b419190614948565b925050819055507f1d8f4bab53e84801fc35b88b53df72a998fa29c92e6fc65d412c4677d0d88c6281604051612b77919061481c565b60405180910390a18091505090565b612b8f816129cd565b60096000828254612ba09190614948565b925050819055508173ffffffffffffffffffffffffffffffffffffffff167fe1fffcc4923d04b559f4d29a8bfc6cda04eb5b0d3c460751c2402c5c5cc9109c82604051612bed919061481c565b60405180910390a25050565b600080600754905060006007819055508060096000828254612c1b9190614948565b925050819055507f414d7d8eae12f648156e75499fc0a5a10aa84f2745c6f791b0453cb17f1e17fa81604051612c51919061481c565b60405180910390a18091505090565b600060019054906101000a900460ff1680612c86575060008054906101000a900460ff16155b612cc5576040517f08c379a0000000000000000000000000000000000000000000000000000000008152600401612cbc906146ba565b60405180910390fd5b60008060019054906101000a900460ff161590508015612d15576001600060016101000a81548160ff02191690831515021790555060016000806101000a81548160ff0219169083151502179055505b88600060026101000a81548173ffffffffffffffffffffffffffffffffffffffff021916908373ffffffffffffffffffffffffffffffffffffffff16021790555086600460006101000a81548173ffffffffffffffffffffffffffffffffffffffff021916908373ffffffffffffffffffffffffffffffffffffffff160217905550856005819055508460068190555033600c60006101000a81548173ffffffffffffffffffffffffffffffffffffffff021916908373ffffffffffffffffffffffffffffffffffffffff1602179055506000612df18561343a565b9050600089604051602001612e069190614364565b60405160208183030381529060405290508173ffffffffffffffffffffffffffffffffffffffff1663077f224a8b8c306040518463ffffffff1660e01b8152600401612e5493929190614595565b602060405180830381600087803b158015612e6e57600080fd5b505af1158015612e82573d6000803e3d6000fd5b505050506040513d601f19601f82011682018060405250810190612ea69190613af5565b612ee5576040517f08c379a0000000000000000000000000000000000000000000000000000000008152600401612edc906147da565b60405180910390fd5b81600160006101000a81548173ffffffffffffffffffffffffffffffffffffffff021916908373ffffffffffffffffffffffffffffffffffffffff1602179055508373ffffffffffffffffffffffffffffffffffffffff1663a574175660405180608001604052808573ffffffffffffffffffffffffffffffffffffffff1681526020018e73ffffffffffffffffffffffffffffffffffffffff168152602001848e604051602001612f989291906142f0565b6040516020818303038152906040528152602001848e604051602001612fbf92919061432a565b6040516020818303038152906040528152506040518263ffffffff1660e01b8152600401612fed91906147fa565b602060405180830381600087803b15801561300757600080fd5b505af115801561301b573d6000803e3d6000fd5b505050506040513d601f19601f8201168201806040525081019061303f9190613c7c565b600360006101000a81548173ffffffffffffffffffffffffffffffffffffffff021916908373ffffffffffffffffffffffffffffffffffffffff1602179055508473ffffffffffffffffffffffffffffffffffffffff1663d9181cd3600360009054906101000a900473ffffffffffffffffffffffffffffffffffffffff1673ffffffffffffffffffffffffffffffffffffffff16635fcbd2856040518163ffffffff1660e01b815260040160206040518083038186803b15801561310357600080fd5b505afa158015613117573d6000803e3d6000fd5b505050506040513d601f19601f8201168201806040525081019061313b9190613ca5565b84306040518463ffffffff1660e01b815260040161315b939291906144b4565b602060405180830381600087803b15801561317557600080fd5b505af1158015613189573d6000803e3d6000fd5b505050506040513d601f19601f820116820180604052508101906131ad9190613c53565b600260006101000a81548173ffffffffffffffffffffffffffffffffffffffff021916908373ffffffffffffffffffffffffffffffffffffffff160217905550505080156132105760008060016101000a81548160ff0219169083151502179055505b505050505050505050565b6000600954905060006132d7600060029054906101000a900473ffffffffffffffffffffffffffffffffffffffff1673ffffffffffffffffffffffffffffffffffffffff166370a08231306040518263ffffffff1660e01b81526004016132829190614386565b60206040518083038186803b15801561329a57600080fd5b505afa1580156132ae573d6000803e3d6000fd5b505050506040513d601f19601f820116820180604052508101906132d29190613d49565b6129cd565b9050600060085460075483866132ed9190614948565b6132f79190614a29565b6133019190614a29565b905082811161336857806009819055507f78c13bf6a7fae25f1085d594e546d7a97cb66a55bc9733c7ea78236c452663ec818461333e9190614a29565b61334790614cfa565b82856040516133589392919061453c565b60405180910390a1505050613437565b600083826133769190614a29565b905060006133868260055461350f565b9050806007600082825461339a9190614948565b9250508190555060006133af8360065461350f565b905080600860008282546133c39190614948565b925050819055508082856133d79190614a29565b6133e19190614a29565b9350836009819055507f78c13bf6a7fae25f1085d594e546d7a97cb66a55bc9733c7ea78236c452663ec86856134179190614a29565b85886040516134289392919061453c565b60405180910390a15050505050505b50565b60006040517f3d602d80600a3d3981f3363d3d373d3d3d363d7300000000000000000000000081528260601b60148201527f5af43d82803e903d91602b57fd5bf3000000000000000000000000000000000060288201526037816000f0915050600073ffffffffffffffffffffffffffffffffffffffff168173ffffffffffffffffffffffffffffffffffffffff16141561350a576040517f08c379a00000000000000000000000000000000000000000000000000000000081526004016135019061467a565b60405180910390fd5b919050565b6000683635c9adc5dea00000828461352791906149cf565b613531919061499e565b905092915050565b60008135905061354881615164565b92915050565b60008083601f84011261356057600080fd5b8235905067ffffffffffffffff81111561357957600080fd5b60208301915083602082028301111561359157600080fd5b9250929050565b60008083601f8401126135aa57600080fd5b8235905067ffffffffffffffff8111156135c357600080fd5b6020830191508360208202830111156135db57600080fd5b9250929050565b60008083601f8401126135f457600080fd5b8235905067ffffffffffffffff81111561360d57600080fd5b60208301915083602082028301111561362557600080fd5b9250929050565b60008151905061363b8161517b565b92915050565b60008135905061365081615192565b92915050565b60008083601f84011261366857600080fd5b8235905067ffffffffffffffff81111561368157600080fd5b60208301915083600182028301111561369957600080fd5b9250929050565b6000813590506136af816151a9565b92915050565b6000813590506136c4816151c0565b92915050565b6000813590506136d9816151d7565b92915050565b6000815190506136ee816151d7565b92915050565b600081359050613703816151ee565b92915050565b60008151905061371881615205565b92915050565b60008135905061372d8161521c565b92915050565b60008151905061374281615233565b92915050565b6000813590506137578161524a565b92915050565b60008083601f84011261376f57600080fd5b8235905067ffffffffffffffff81111561378857600080fd5b6020830191508360018202830111156137a057600080fd5b9250929050565b600060c082840312156137b957600080fd5b6137c360c06148e0565b905060006137d3848285016138cd565b60008301525060206137e7848285016138cd565b60208301525060406137fb848285016138cd565b604083015250606061380f848285016138b8565b6060830152506080613823848285016138b8565b60808301525060a0613837848285016138b8565b60a08301525092915050565b60006060828403121561385557600080fd5b61385f60606148e0565b9050600061386f848285016138b8565b6000830152506020613883848285016138b8565b6020830152506040613897848285016138b8565b60408301525092915050565b6000813590506138b281615261565b92915050565b6000815190506138c781615261565b92915050565b6000815190506138dc81615278565b92915050565b6000813590506138f18161528f565b92915050565b60006020828403121561390957600080fd5b600061391784828501613539565b91505092915050565b6000806040838503121561393357600080fd5b600061394185828601613539565b9250506020613952858286016138a3565b9150509250929050565b6000806000806060858703121561397257600080fd5b600061398087828801613539565b9450506020613991878288016138a3565b935050604085013567ffffffffffffffff8111156139ae57600080fd5b6139ba87828801613656565b925092505092959194509250565b60008060008060008060c087890312156139e157600080fd5b60006139ef89828a01613539565b9650506020613a0089828a016138a3565b9550506040613a1189828a016138a3565b9450506060613a2289828a016138e2565b9350506080613a3389828a01613641565b92505060a0613a4489828a01613641565b9150509295509295509295565b60008060008060008060608789031215613a6a57600080fd5b600087013567ffffffffffffffff811115613a8457600080fd5b613a9089828a0161354e565b9650965050602087013567ffffffffffffffff811115613aaf57600080fd5b613abb89828a016135e2565b9450945050604087013567ffffffffffffffff811115613ada57600080fd5b613ae689828a01613598565b92509250509295509295509295565b600060208284031215613b0757600080fd5b6000613b158482850161362c565b91505092915050565b600060208284031215613b3057600080fd5b6000613b3e848285016136a0565b91505092915050565b6000806000806000806000806000806101208b8d031215613b6757600080fd5b6000613b758d828e016136a0565b9a505060208b013567ffffffffffffffff811115613b9257600080fd5b613b9e8d828e0161375d565b99509950506040613bb18d828e016136b5565b9750506060613bc28d828e01613539565b9650506080613bd38d828e016138a3565b95505060a0613be48d828e016138a3565b94505060c0613bf58d828e0161371e565b93505060e0613c068d828e01613748565b925050610100613c188d828e016136f4565b9150509295989b9194979a5092959850565b600060208284031215613c3c57600080fd5b6000613c4a848285016136ca565b91505092915050565b600060208284031215613c6557600080fd5b6000613c73848285016136df565b91505092915050565b600060208284031215613c8e57600080fd5b6000613c9c84828501613709565b91505092915050565b600060208284031215613cb757600080fd5b6000613cc584828501613733565b91505092915050565b600060c08284031215613ce057600080fd5b6000613cee848285016137a7565b91505092915050565b600060608284031215613d0957600080fd5b6000613d1784828501613843565b91505092915050565b600060208284031215613d3257600080fd5b6000613d40848285016138a3565b91505092915050565b600060208284031215613d5b57600080fd5b6000613d69848285016138b8565b91505092915050565b600080600080600060a08688031215613d8a57600080fd5b6000613d98888289016138a3565b9550506020613da9888289016138a3565b9450506040613dba888289016138e2565b9350506060613dcb88828901613641565b9250506080613ddc88828901613641565b9150509295509295909350565b600060208284031215613dfb57600080fd5b6000613e09848285016138cd565b91505092915050565b613e1b81614a5d565b82525050565b613e2a81614a7b565b82525050565b6000613e3c8385614910565b9350613e49838584614c3e565b82840190509392505050565b613e5e81614b66565b82525050565b613e6d81614b66565b82525050565b613e7c81614b8a565b82525050565b613e8b81614bae565b82525050565b613e9a81614bd2565b82525050565b613ea981614bf6565b82525050565b613eb881614c1a565b82525050565b613ec781614b15565b82525050565b6000613ed882614905565b613ee2818561491b565b9350613ef2818560208601614c4d565b613efb81614dd0565b840191505092915050565b6000613f1182614905565b613f1b818561492c565b9350613f2b818560208601614c4d565b613f3481614dd0565b840191505092915050565b6000613f4a82614905565b613f54818561493d565b9350613f64818560208601614c4d565b80840191505092915050565b6000613f7d60128361492c565b9150613f8882614de1565b602082019050919050565b6000613fa0600b8361493d565b9150613fab82614e0a565b600b82019050919050565b6000613fc360198361492c565b9150613fce82614e33565b602082019050919050565b6000613fe660108361492c565b9150613ff182614e5c565b602082019050919050565b600061400960128361492c565b915061401482614e85565b602082019050919050565b600061402c60118361492c565b915061403782614eae565b602082019050919050565b600061404f60168361492c565b915061405a82614ed7565b602082019050919050565b600061407260118361492c565b915061407d82614f00565b602082019050919050565b6000614095602e8361492c565b91506140a082614f29565b604082019050919050565b60006140b860058361492c565b91506140c382614f78565b602082019050919050565b60006140db60038361492c565b91506140e682614fa1565b602082019050919050565b60006140fe60048361492c565b915061410982614fca565b602082019050919050565b6000614121600c8361492c565b915061412c82614ff3565b602082019050919050565b6000614144600b8361492c565b915061414f8261501c565b602082019050919050565b600061416760058361493d565b915061417282615045565b600582019050919050565b600061418a60148361492c565b91506141958261506e565b602082019050919050565b60006141ad60018361493d565b91506141b882615097565b600182019050919050565b60006141d060018361493d565b91506141db826150c0565b600182019050919050565b60006141f3600a8361492c565b91506141fe826150e9565b602082019050919050565b6000614216600d8361492c565b915061422182615112565b602082019050919050565b600061423960158361492c565b91506142448261513b565b602082019050919050565b60006080830160008301516142676000860182613e55565b50602083015161427a6020860182613e55565b50604083015184820360408601526142928282613ecd565b915050606083015184820360608601526142ac8282613ecd565b9150508091505092915050565b6142c281614b3f565b82525050565b6142d181614b59565b82525050565b60006142e4828486613e30565b91508190509392505050565b60006142fc8285613f3f565b9150614307826141c3565b91506143138284613f3f565b915061431e82613f93565b91508190509392505050565b60006143368285613f3f565b9150614341826141c3565b915061434d8284613f3f565b91506143588261415a565b91508190509392505050565b600061436f826141a0565b915061437b8284613f3f565b915081905092915050565b600060208201905061439b6000830184613e12565b92915050565b60006040820190506143b66000830185613e12565b6143c36020830184613e12565b9392505050565b60006060820190506143df6000830186613e12565b6143ec6020830185613e12565b6143f960408301846142b9565b949350505050565b600060e082019050614416600083018a613e12565b6144236020830189613e12565b61443060408301886142b9565b61443d60608301876142b9565b61444a60808301866142c8565b61445760a0830185613e21565b61446460c0830184613e21565b98975050505050505050565b60006040820190506144856000830185613e12565b61449260208301846142b9565b9392505050565b60006020820190506144ae6000830184613e64565b92915050565b60006060820190506144c96000830186613e64565b6144d66020830185613e91565b6144e36040830184613ea0565b949350505050565b60006020820190506145006000830184613e73565b92915050565b600060208201905061451b6000830184613e82565b92915050565b60006020820190506145366000830184613e91565b92915050565b60006060820190506145516000830186613ebe565b61455e60208301856142b9565b61456b60408301846142b9565b949350505050565b6000602082019050818103600083015261458d8184613f06565b905092915050565b600060608201905081810360008301526145af8186613f06565b905081810360208301526145c38185613f06565b90506145d26040830184613eaf565b949350505050565b600060208201905081810360008301526145f381613f70565b9050919050565b6000602082019050818103600083015261461381613fb6565b9050919050565b6000602082019050818103600083015261463381613fd9565b9050919050565b6000602082019050818103600083015261465381613ffc565b9050919050565b600060208201905081810360008301526146738161401f565b9050919050565b6000602082019050818103600083015261469381614042565b9050919050565b600060208201905081810360008301526146b381614065565b9050919050565b600060208201905081810360008301526146d381614088565b9050919050565b600060208201905081810360008301526146f3816140ab565b9050919050565b60006020820190508181036000830152614713816140ce565b9050919050565b60006020820190508181036000830152614733816140f1565b9050919050565b6000602082019050818103600083015261475381614114565b9050919050565b6000602082019050818103600083015261477381614137565b9050919050565b600060208201905081810360008301526147938161417d565b9050919050565b600060208201905081810360008301526147b3816141e6565b9050919050565b600060208201905081810360008301526147d381614209565b9050919050565b600060208201905081810360008301526147f38161422c565b9050919050565b60006020820190508181036000830152614814818461424f565b905092915050565b600060208201905061483160008301846142b9565b92915050565b600060408201905061484c60008301856142b9565b6148596020830184613e12565b9392505050565b600060408201905061487560008301856142b9565b61488260208301846142b9565b9392505050565b600080833560016020038436030381126148a257600080fd5b80840192508235915067ffffffffffffffff8211156148c057600080fd5b6020830192506001820236038313156148d857600080fd5b509250929050565b60006148ea6148fb565b90506148f68282614c80565b919050565b6000604051905090565b600081519050919050565b600081905092915050565b600082825260208201905092915050565b600082825260208201905092915050565b600081905092915050565b600061495382614b3f565b915061495e83614b3f565b9250827fffffffffffffffffffffffffffffffffffffffffffffffffffffffffffffffff0382111561499357614992614d43565b5b828201905092915050565b60006149a982614b3f565b91506149b483614b3f565b9250826149c4576149c3614d72565b5b828204905092915050565b60006149da82614b3f565b91506149e583614b3f565b9250817fffffffffffffffffffffffffffffffffffffffffffffffffffffffffffffffff0483118215151615614a1e57614a1d614d43565b5b828202905092915050565b6000614a3482614b3f565b9150614a3f83614b3f565b925082821015614a5257614a51614d43565b5b828203905092915050565b6000614a6882614b1f565b9050919050565b60008115159050919050565b6000819050919050565b6000614a9082614a5d565b9050919050565b6000614aa282614a5d565b9050919050565b6000614ab482614a5d565b9050919050565b6000614ac682614a5d565b9050919050565b6000614ad882614a5d565b9050919050565b6000614aea82614a5d565b9050919050565b6000614afc82614a5d565b9050919050565b6000614b0e82614a5d565b9050919050565b6000819050919050565b600073ffffffffffffffffffffffffffffffffffffffff82169050919050565b6000819050919050565b600063ffffffff82169050919050565b600060ff82169050919050565b6000614b7182614b78565b9050919050565b6000614b8382614b1f565b9050919050565b6000614b9582614b9c565b9050919050565b6000614ba782614b1f565b9050919050565b6000614bb982614bc0565b9050919050565b6000614bcb82614b1f565b9050919050565b6000614bdd82614be4565b9050919050565b6000614bef82614b1f565b9050919050565b6000614c0182614c08565b9050919050565b6000614c1382614b1f565b9050919050565b6000614c2582614c2c565b9050919050565b6000614c3782614b1f565b9050919050565b82818337600083830152505050565b60005b83811015614c6b578082015181840152602081019050614c50565b83811115614c7a576000848401525b50505050565b614c8982614dd0565b810181811067ffffffffffffffff82111715614ca857614ca7614da1565b5b80604052505050565b6000614cbc82614b3f565b91507fffffffffffffffffffffffffffffffffffffffffffffffffffffffffffffffff821415614cef57614cee614d43565b5b600182019050919050565b6000614d0582614b15565b91507f8000000000000000000000000000000000000000000000000000000000000000821415614d3857614d37614d43565b5b816000039050919050565b7f4e487b7100000000000000000000000000000000000000000000000000000000600052601160045260246000fd5b7f4e487b7100000000000000000000000000000000000000000000000000000000600052601260045260246000fd5b7f4e487b7100000000000000000000000000000000000000000000000000000000600052604160045260246000fd5b6000601f19601f8301169050919050565b7f54454e4445525f4255524e5f4641494c45440000000000000000000000000000600082015250565b7f205377617020546f6b656e000000000000000000000000000000000000000000600082015250565b7f535445414b5f5452414e5346455246524f4d5f4641494c454400000000000000600082015250565b7f5354414b494e475f434f4e545241435400000000000000000000000000000000600082015250565b7f54454e4445525f4d494e545f4641494c45440000000000000000000000000000600082015250565b7f4143434f554e545f4d4953544d41544348000000000000000000000000000000600082015250565b7f455243313136373a20637265617465206661696c656400000000000000000000600082015250565b7f494e56414c49445f415247554d454e5453000000000000000000000000000000600082015250565b7f496e697469616c697a61626c653a20636f6e747261637420697320616c72656160008201527f647920696e697469616c697a6564000000000000000000000000000000000000602082015250565b7f535445414b000000000000000000000000000000000000000000000000000000600082015250565b7f474f560000000000000000000000000000000000000000000000000000000000600082015250565b7f4e4f444500000000000000000000000000000000000000000000000000000000600082015250565b7f50524f544f434f4c5f4645450000000000000000000000000000000000000000600082015250565b7f5a45524f5f414d4f554e54000000000000000000000000000000000000000000600082015250565b7f2d53574150000000000000000000000000000000000000000000000000000000600082015250565b7f474f565f57495448445241575f50454e44494e47000000000000000000000000600082015250565b7f7400000000000000000000000000000000000000000000000000000000000000600082015250565b7f2d00000000000000000000000000000000000000000000000000000000000000600082015250565b7f54454e4445524641524d00000000000000000000000000000000000000000000600082015250565b7f4c49515549444954595f46454500000000000000000000000000000000000000600082015250565b7f4641494c5f494e49545f54454e444552544f4b454e0000000000000000000000600082015250565b61516d81614a5d565b811461517857600080fd5b50565b61518481614a6f565b811461518f57600080fd5b50565b61519b81614a7b565b81146151a657600080fd5b50565b6151b281614a85565b81146151bd57600080fd5b50565b6151c981614a97565b81146151d457600080fd5b50565b6151e081614aa9565b81146151eb57600080fd5b50565b6151f781614abb565b811461520257600080fd5b50565b61520e81614acd565b811461521957600080fd5b50565b61522581614adf565b811461523057600080fd5b50565b61523c81614af1565b811461524757600080fd5b50565b61525381614b03565b811461525e57600080fd5b50565b61526a81614b3f565b811461527557600080fd5b50565b61528181614b49565b811461528c57600080fd5b50565b61529881614b59565b81146152a357600080fd5b5056fea2646970667358221220817dfe8b4f1cf4921fc2e0116821169a65423f5408632b26aab2888951f4bd1d64736f6c63430008040033",
  "devdoc": {
    "kind": "dev",
    "methods": {
      "batchExecute(address[],uint256[],bytes[])": {
        "details": "Every target to its value, data via it's corresponding index.only callable by owner(gov).",
        "params": {
          "_datas": "array of call datas - check ethers.interface.encodeFunctionData()",
          "_targets": "array of target addresses for the contract call",
          "_values": "array of ether values to be transeffered with the transactions"
        }
      },
      "calcDepositOut(uint256)": {
        "details": "used by controller to calculate tokens to be minted before depositing.to be used when there a delegation tax is deducted, for eg. in Graph.",
        "returns": {
          "_0": "number of tokens staked for `amountIn`."
        }
      },
      "collectFees()": {
        "details": "Resets pendingFees.Fees claimed are added to total staked.",
        "returns": {
          "_0": "Amount of protocol fees collected"
        }
      },
      "collectLiquidityFees()": {
        "details": "Resets pendingFees.Fees claimed are added to total staked.",
        "returns": {
          "amount": "Amount of liquidity fees collected"
        }
      },
      "deposit(uint256)": {
        "details": "doesn't actually stakes the tokens but aggregates the balance in the tenderizer awaiting to be staked.requires '_amount' to be approved by '_from'.",
        "params": {
          "_amount": "amount deposited"
        }
      },
      "depositWithPermit(uint256,uint256,uint8,bytes32,bytes32)": {
        "details": "doesn't actually stakes the tokens but aggregates the balance in the tenderizer awaiting to be staked.requires '_amount' to be approved by '_from'.",
        "params": {
          "_amount": "amount deposited",
          "_deadline": "deadline for the permit",
          "_r": "from ECDSA signature",
          "_s": "from ECDSA signature",
          "_v": "from ECDSA signature"
        }
      },
      "execute(address,uint256,bytes)": {
        "details": "only callable by owner(gov).",
        "params": {
          "_data": "call data - check ethers.interface.encodeFunctionData()",
          "_target": "target address for the contract call",
          "_value": "ether value to be transeffered with the transaction"
        }
      },
      "selfPermit(address,uint256,uint256,uint8,bytes32,bytes32)": {
        "details": "The `owner` is always msg.sender and the `spender` is always address(this).",
        "params": {
          "_deadline": "A timestamp, the current blocktime must be less than or equal to this timestamp",
          "_r": "Must produce valid secp256k1 signature from the holder along with `v` and `s`",
          "_s": "Must produce valid secp256k1 signature from the holder along with `r` and `v`",
          "_token": "The address of the token spent",
          "_v": "Must produce valid secp256k1 signature from the holder along with `r` and `s`",
          "_value": "The amount that can be spent of token"
        }
      },
      "selfPermitIfNecessary(address,uint256,uint256,uint8,bytes32,bytes32)": {
        "details": "The `owner` is always msg.sender and the `spender` is always address(this). Can be used instead of #selfPermit to prevent calls from failing due to a frontrun of a call to #selfPermit",
        "params": {
          "_deadline": "A timestamp, the current blocktime must be less than or equal to this timestamp",
          "_r": "Must produce valid secp256k1 signature from the holder along with `v` and `s`",
          "_s": "Must produce valid secp256k1 signature from the holder along with `r` and `v`",
          "_token": "The address of the token spent",
          "_v": "Must produce valid secp256k1 signature from the holder along with `r` and `s`",
          "_value": "The amount that can be spent of token"
        }
      },
      "stake(address,uint256)": {
        "details": "If '_node' is not specified, stake towards the default address.If '_amount' is 0, stake the entire current token balance of the Tenderizer.Only callable by Gov.",
        "params": {
          "_amount": "amount to stake",
          "_node": "account to stake to in the underlying protocol"
        }
      },
      "totalStakedTokens()": {
        "returns": {
          "_0": "total amount staked by this Tenderizer"
        }
      },
      "unstake(uint256)": {
        "details": "unstake from the default address.If '_amount' is 0, unstake the entire amount staked towards _account.",
        "params": {
          "_amount": "amount to unstake"
        },
        "returns": {
          "_0": "unstake lockID generated for unstake"
        }
      },
      "withdraw(uint256)": {
        "details": "If '_amount' isn't specified all unstake tokens by '_account' will be withdrawn.Requires '_account' to have unstaked prior to calling withdraw.",
        "params": {
          "_unstakeLockID": "ID for the lock to request the withdraw for"
        }
      }
    },
    "version": 1
  },
  "userdoc": {
    "events": {
      "Deposit(address,uint256)": {
        "notice": "Deposit gets emitted when an accounts deposits underlying tokens."
      },
      "GovernanceUpdate(string)": {
        "notice": "GovernanceUpdate gets emitted when a parameter on the Tenderizer gets updated."
      },
      "LiquidityFeeCollected(uint256)": {
        "notice": "LiquidityFeeCollected gets emitted when liquidity provider fees are moved to the TenderFarm."
      },
      "ProtocolFeeCollected(uint256)": {
        "notice": "ProtocolFeeCollected gets emitted when the treasury claims its outstanding protocol fees."
      },
      "RewardsClaimed(int256,uint256,uint256)": {
        "notice": "RewardsClaimed gets emitted when the Tenderizer processes staking rewards (or slashing) from the underlying protocol."
      },
      "Stake(address,uint256)": {
        "notice": "Stake gets emitted when funds are staked/delegated from the Tenderizer contract into the underlying protocol."
      },
      "Unstake(address,address,uint256,uint256)": {
        "notice": "Unstake gets emitted when an account burns TenderTokens to unlock tokens staked through the Tenderizer"
      },
      "Withdraw(address,uint256,uint256)": {
        "notice": "Withdraw gets emitted when an account withdraws tokens that have been succesfully unstaked and thus unlocked for withdrawal."
      }
    },
    "kind": "user",
    "methods": {
      "batchExecute(address[],uint256[],bytes[])": {
        "notice": "Exectutes a batch of transaction on behalf of the controller."
      },
      "calcDepositOut(uint256)": {
        "notice": "Returns the number of tenderTokens to be minted for amountIn deposit."
      },
      "claimRewards()": {
        "notice": "Compound all the rewards and new deposits. Claim staking rewards and earned fees for the underlying protocol and stake any leftover token balance. Process Tender protocol fees if revenue is positive."
      },
      "collectFees()": {
        "notice": "Collect fees pulls any pending governance fees from the Tenderizer to the governance treasury."
      },
      "collectLiquidityFees()": {
        "notice": "Collect Liquidity fees pulls any pending LP fees from the Tenderizer to TenderFarm."
      },
      "deposit(uint256)": {
        "notice": "Deposit tokens in Tenderizer."
      },
      "depositWithPermit(uint256,uint256,uint8,bytes32,bytes32)": {
        "notice": "Deposit tokens in Tenderizer with permit."
      },
      "execute(address,uint256,bytes)": {
        "notice": "Exectutes a transaction on behalf of the controller."
      },
      "pendingFees()": {
        "notice": "Returns the amount of pending protocool fees since last claiming.."
      },
      "pendingLiquidityFees()": {
        "notice": "Returns the amount of pending liquidity provider fees since last claiming."
      },
      "selfPermit(address,uint256,uint256,uint8,bytes32,bytes32)": {
        "notice": "Permits this contract to spend a given token from `msg.sender`"
      },
      "selfPermitIfNecessary(address,uint256,uint256,uint8,bytes32,bytes32)": {
        "notice": "Permits this contract to spend a given token from `msg.sender`"
      },
      "stake(address,uint256)": {
        "notice": "Stake '_amount' of tokens to '_node'."
      },
      "totalStakedTokens()": {
        "notice": "Total Staked Tokens returns the total amount of underlying tokens staked by this Tenderizer."
      },
      "unstake(uint256)": {
        "notice": "Unstake '_amount' of tokens from '_account'."
      },
      "withdraw(uint256)": {
        "notice": "Withdraw '_amount' of tokens previously unstaked by '_account'."
      }
    },
    "version": 1
  },
  "storageLayout": {
    "storage": [
      {
        "astId": 1944,
        "contract": "contracts/tenderizer/integrations/graph/Graph.sol:Graph",
        "label": "_initialized",
        "offset": 0,
        "slot": "0",
        "type": "t_bool"
      },
      {
        "astId": 1947,
        "contract": "contracts/tenderizer/integrations/graph/Graph.sol:Graph",
        "label": "_initializing",
        "offset": 1,
        "slot": "0",
        "type": "t_bool"
      },
      {
        "astId": 3569,
        "contract": "contracts/tenderizer/integrations/graph/Graph.sol:Graph",
        "label": "steak",
        "offset": 2,
        "slot": "0",
        "type": "t_contract(IERC20)2062"
      },
      {
        "astId": 3572,
        "contract": "contracts/tenderizer/integrations/graph/Graph.sol:Graph",
        "label": "tenderToken",
        "offset": 0,
        "slot": "1",
        "type": "t_contract(ITenderToken)11472"
      },
      {
        "astId": 3575,
        "contract": "contracts/tenderizer/integrations/graph/Graph.sol:Graph",
        "label": "tenderFarm",
        "offset": 0,
        "slot": "2",
        "type": "t_contract(ITenderFarm)3244"
      },
      {
        "astId": 3578,
        "contract": "contracts/tenderizer/integrations/graph/Graph.sol:Graph",
        "label": "tenderSwap",
        "offset": 0,
        "slot": "3",
        "type": "t_contract(ITenderSwap)6836"
      },
      {
        "astId": 3580,
        "contract": "contracts/tenderizer/integrations/graph/Graph.sol:Graph",
        "label": "node",
        "offset": 0,
        "slot": "4",
        "type": "t_address"
      },
      {
        "astId": 3582,
        "contract": "contracts/tenderizer/integrations/graph/Graph.sol:Graph",
        "label": "protocolFee",
        "offset": 0,
        "slot": "5",
        "type": "t_uint256"
      },
      {
        "astId": 3584,
        "contract": "contracts/tenderizer/integrations/graph/Graph.sol:Graph",
        "label": "liquidityFee",
        "offset": 0,
        "slot": "6",
        "type": "t_uint256"
      },
      {
        "astId": 3587,
        "contract": "contracts/tenderizer/integrations/graph/Graph.sol:Graph",
        "label": "pendingFees",
        "offset": 0,
        "slot": "7",
        "type": "t_uint256"
      },
      {
        "astId": 3590,
        "contract": "contracts/tenderizer/integrations/graph/Graph.sol:Graph",
        "label": "pendingLiquidityFees",
        "offset": 0,
        "slot": "8",
        "type": "t_uint256"
      },
      {
        "astId": 3592,
        "contract": "contracts/tenderizer/integrations/graph/Graph.sol:Graph",
        "label": "currentPrincipal",
        "offset": 0,
        "slot": "9",
        "type": "t_uint256"
      },
      {
        "astId": 3597,
        "contract": "contracts/tenderizer/integrations/graph/Graph.sol:Graph",
        "label": "unstakeLocks",
        "offset": 0,
        "slot": "10",
        "type": "t_mapping(t_uint256,t_struct(UnstakeLock)3566_storage)"
      },
      {
        "astId": 3599,
        "contract": "contracts/tenderizer/integrations/graph/Graph.sol:Graph",
        "label": "nextUnstakeLockID",
        "offset": 0,
        "slot": "11",
        "type": "t_uint256"
      },
      {
        "astId": 3601,
        "contract": "contracts/tenderizer/integrations/graph/Graph.sol:Graph",
        "label": "gov",
        "offset": 0,
        "slot": "12",
        "type": "t_address"
      },
      {
        "astId": 4888,
        "contract": "contracts/tenderizer/integrations/graph/Graph.sol:Graph",
        "label": "graph",
        "offset": 0,
        "slot": "13",
        "type": "t_contract(IGraph)5429"
      },
      {
        "astId": 4890,
        "contract": "contracts/tenderizer/integrations/graph/Graph.sol:Graph",
        "label": "governancePendingUnstakeLockID",
        "offset": 0,
        "slot": "14",
        "type": "t_uint256"
      },
      {
        "astId": 4892,
        "contract": "contracts/tenderizer/integrations/graph/Graph.sol:Graph",
        "label": "governanceLastProcessedUnstakeLockID",
        "offset": 0,
        "slot": "15",
        "type": "t_uint256"
      },
      {
        "astId": 4894,
        "contract": "contracts/tenderizer/integrations/graph/Graph.sol:Graph",
        "label": "pendingUnstakes",
        "offset": 0,
        "slot": "16",
        "type": "t_uint256"
      }
    ],
    "types": {
      "t_address": {
        "encoding": "inplace",
        "label": "address",
        "numberOfBytes": "20"
      },
      "t_bool": {
        "encoding": "inplace",
        "label": "bool",
        "numberOfBytes": "1"
      },
      "t_contract(IERC20)2062": {
        "encoding": "inplace",
        "label": "contract IERC20",
        "numberOfBytes": "20"
      },
      "t_contract(IGraph)5429": {
        "encoding": "inplace",
        "label": "contract IGraph",
        "numberOfBytes": "20"
      },
      "t_contract(ITenderFarm)3244": {
        "encoding": "inplace",
        "label": "contract ITenderFarm",
        "numberOfBytes": "20"
      },
      "t_contract(ITenderSwap)6836": {
        "encoding": "inplace",
        "label": "contract ITenderSwap",
        "numberOfBytes": "20"
      },
      "t_contract(ITenderToken)11472": {
        "encoding": "inplace",
        "label": "contract ITenderToken",
        "numberOfBytes": "20"
      },
      "t_mapping(t_uint256,t_struct(UnstakeLock)3566_storage)": {
        "encoding": "mapping",
        "key": "t_uint256",
        "label": "mapping(uint256 => struct Tenderizer.UnstakeLock)",
        "numberOfBytes": "32",
        "value": "t_struct(UnstakeLock)3566_storage"
      },
      "t_struct(UnstakeLock)3566_storage": {
        "encoding": "inplace",
        "label": "struct Tenderizer.UnstakeLock",
        "members": [
          {
            "astId": 3563,
            "contract": "contracts/tenderizer/integrations/graph/Graph.sol:Graph",
            "label": "amount",
            "offset": 0,
            "slot": "0",
            "type": "t_uint256"
          },
          {
            "astId": 3565,
            "contract": "contracts/tenderizer/integrations/graph/Graph.sol:Graph",
            "label": "account",
            "offset": 0,
            "slot": "1",
            "type": "t_address"
          }
        ],
        "numberOfBytes": "64"
      },
      "t_uint256": {
        "encoding": "inplace",
        "label": "uint256",
        "numberOfBytes": "32"
      }
    }
  }
}