{
  "address": "0x512eF8A8B7020E18EC76104578402045C66334a0",
  "abi": [
    {
      "anonymous": false,
      "inputs": [
        {
          "indexed": true,
          "internalType": "address",
          "name": "from",
          "type": "address"
        },
        {
          "indexed": false,
          "internalType": "uint256",
          "name": "amount",
          "type": "uint256"
        }
      ],
      "name": "Deposit",
      "type": "event"
    },
    {
      "anonymous": false,
      "inputs": [
        {
          "indexed": false,
          "internalType": "string",
          "name": "_param",
          "type": "string"
        }
      ],
      "name": "GovernanceUpdate",
      "type": "event"
    },
    {
      "anonymous": false,
      "inputs": [
        {
          "indexed": false,
          "internalType": "uint256",
          "name": "amount",
          "type": "uint256"
        }
      ],
      "name": "LiquidityFeeCollected",
      "type": "event"
    },
    {
      "anonymous": false,
      "inputs": [
        {
          "indexed": false,
          "internalType": "uint256",
          "name": "amount",
          "type": "uint256"
        }
      ],
      "name": "ProtocolFeeCollected",
      "type": "event"
    },
    {
      "anonymous": false,
      "inputs": [
        {
          "indexed": false,
          "internalType": "uint256",
          "name": "rewards",
          "type": "uint256"
        },
        {
          "indexed": false,
          "internalType": "uint256",
          "name": "currentPrincipal",
          "type": "uint256"
        }
      ],
      "name": "RewardsClaimed",
      "type": "event"
    },
    {
      "anonymous": false,
      "inputs": [
        {
          "indexed": true,
          "internalType": "address",
          "name": "node",
          "type": "address"
        },
        {
          "indexed": false,
          "internalType": "uint256",
          "name": "amount",
          "type": "uint256"
        }
      ],
      "name": "Stake",
      "type": "event"
    },
    {
      "anonymous": false,
      "inputs": [
        {
          "indexed": true,
          "internalType": "address",
          "name": "from",
          "type": "address"
        },
        {
          "indexed": true,
          "internalType": "address",
          "name": "node",
          "type": "address"
        },
        {
          "indexed": false,
          "internalType": "uint256",
          "name": "amount",
          "type": "uint256"
        }
      ],
      "name": "Unstake",
      "type": "event"
    },
    {
      "anonymous": false,
      "inputs": [
        {
          "indexed": true,
          "internalType": "address",
          "name": "from",
          "type": "address"
        },
        {
          "indexed": false,
          "internalType": "uint256",
          "name": "amount",
          "type": "uint256"
        }
      ],
      "name": "Withdraw",
      "type": "event"
    },
    {
      "inputs": [],
      "name": "claimRewards",
      "outputs": [],
      "stateMutability": "nonpayable",
      "type": "function"
    },
    {
      "inputs": [],
      "name": "collectFees",
      "outputs": [
        {
          "internalType": "uint256",
          "name": "",
          "type": "uint256"
        }
      ],
      "stateMutability": "nonpayable",
      "type": "function"
    },
    {
      "inputs": [],
      "name": "collectLiquidityFees",
      "outputs": [
        {
          "internalType": "uint256",
          "name": "",
          "type": "uint256"
        }
      ],
      "stateMutability": "nonpayable",
      "type": "function"
    },
    {
      "inputs": [],
      "name": "controller",
      "outputs": [
        {
          "internalType": "address",
          "name": "",
          "type": "address"
        }
      ],
      "stateMutability": "view",
      "type": "function"
    },
    {
      "inputs": [],
      "name": "currentPrincipal",
      "outputs": [
        {
          "internalType": "uint256",
          "name": "",
          "type": "uint256"
        }
      ],
      "stateMutability": "view",
      "type": "function"
    },
    {
      "inputs": [
        {
          "internalType": "address",
          "name": "_from",
          "type": "address"
        },
        {
          "internalType": "uint256",
          "name": "_amount",
          "type": "uint256"
        }
      ],
      "name": "deposit",
      "outputs": [],
      "stateMutability": "nonpayable",
      "type": "function"
    },
    {
      "inputs": [
        {
          "internalType": "contract IERC20",
          "name": "_steak",
          "type": "address"
        },
        {
          "internalType": "contract ILivepeer",
          "name": "_livepeer",
          "type": "address"
        },
        {
          "internalType": "address",
          "name": "_node",
          "type": "address"
        }
      ],
      "name": "initialize",
      "outputs": [],
      "stateMutability": "nonpayable",
      "type": "function"
    },
    {
      "inputs": [],
      "name": "liquidityFee",
      "outputs": [
        {
          "internalType": "uint256",
          "name": "",
          "type": "uint256"
        }
      ],
      "stateMutability": "view",
      "type": "function"
    },
    {
      "inputs": [],
      "name": "node",
      "outputs": [
        {
          "internalType": "address",
          "name": "",
          "type": "address"
        }
      ],
      "stateMutability": "view",
      "type": "function"
    },
    {
      "inputs": [],
      "name": "pendingFees",
      "outputs": [
        {
          "internalType": "uint256",
          "name": "",
          "type": "uint256"
        }
      ],
      "stateMutability": "view",
      "type": "function"
    },
    {
      "inputs": [],
      "name": "pendingLiquidityFees",
      "outputs": [
        {
          "internalType": "uint256",
          "name": "",
          "type": "uint256"
        }
      ],
      "stateMutability": "view",
      "type": "function"
    },
    {
      "inputs": [],
      "name": "protocolFee",
      "outputs": [
        {
          "internalType": "uint256",
          "name": "",
          "type": "uint256"
        }
      ],
      "stateMutability": "view",
      "type": "function"
    },
    {
      "inputs": [
        {
          "internalType": "address",
          "name": "_controller",
          "type": "address"
        }
      ],
      "name": "setController",
      "outputs": [],
      "stateMutability": "nonpayable",
      "type": "function"
    },
    {
      "inputs": [
        {
          "internalType": "uint256",
          "name": "_liquidityFee",
          "type": "uint256"
        }
      ],
      "name": "setLiquidityFee",
      "outputs": [],
      "stateMutability": "nonpayable",
      "type": "function"
    },
    {
      "inputs": [
        {
          "internalType": "address",
          "name": "_node",
          "type": "address"
        }
      ],
      "name": "setNode",
      "outputs": [],
      "stateMutability": "nonpayable",
      "type": "function"
    },
    {
      "inputs": [
        {
          "internalType": "uint256",
          "name": "_protocolFee",
          "type": "uint256"
        }
      ],
      "name": "setProtocolFee",
      "outputs": [],
      "stateMutability": "nonpayable",
      "type": "function"
    },
    {
      "inputs": [
        {
          "internalType": "address",
          "name": "_stakingContract",
          "type": "address"
        }
      ],
      "name": "setStakingContract",
      "outputs": [],
      "stateMutability": "nonpayable",
      "type": "function"
    },
    {
      "inputs": [
        {
          "internalType": "contract IERC20",
          "name": "_steak",
          "type": "address"
        }
      ],
      "name": "setSteak",
      "outputs": [],
      "stateMutability": "nonpayable",
      "type": "function"
    },
    {
      "inputs": [
        {
          "internalType": "address",
          "name": "_account",
          "type": "address"
        },
        {
          "internalType": "uint256",
          "name": "_amount",
          "type": "uint256"
        }
      ],
      "name": "stake",
      "outputs": [],
      "stateMutability": "nonpayable",
      "type": "function"
    },
    {
      "inputs": [],
      "name": "steak",
      "outputs": [
        {
          "internalType": "contract IERC20",
          "name": "",
          "type": "address"
        }
      ],
      "stateMutability": "view",
      "type": "function"
    },
    {
      "inputs": [],
      "name": "totalStakedTokens",
      "outputs": [
        {
          "internalType": "uint256",
          "name": "",
          "type": "uint256"
        }
      ],
      "stateMutability": "view",
      "type": "function"
    },
    {
      "inputs": [
        {
          "internalType": "address",
          "name": "_account",
          "type": "address"
        },
        {
          "internalType": "uint256",
          "name": "_amount",
          "type": "uint256"
        }
      ],
      "name": "unstake",
      "outputs": [],
      "stateMutability": "nonpayable",
      "type": "function"
    },
    {
      "inputs": [
        {
          "internalType": "address",
          "name": "_account",
          "type": "address"
        },
        {
          "internalType": "uint256",
          "name": "_amount",
          "type": "uint256"
        }
      ],
      "name": "withdraw",
      "outputs": [],
      "stateMutability": "nonpayable",
      "type": "function"
    }
  ],
  "transactionHash": "0x2da24a539d0af52c68271f7b93cd8a8292435bc9224239c90d31b48a3a146d20",
  "args": [],
  "solcInputHash": "a9f830c0f7a81c19f770a0b97bdb89ad",
  "bytecode": "0x608060405234801561001057600080fd5b50612c0c806100206000396000f3fe608060405234801561001057600080fd5b506004361061014d5760003560e01c80639dd373b9116100c3578063c21d5ab71161007c578063c21d5ab71461032c578063c2a672e014610348578063c879657214610364578063d70754ec14610382578063f3fef3a3146103a0578063f77c4791146103bc5761014d565b80639dd373b914610280578063adc9772e1461029c578063afef75d2146102b8578063b089af31146102d4578063b0e21e8a146102f2578063c0c53b8b146103105761014d565b806347e7ef241161011557806347e7ef24146101d257806351c669c0146101ee5780636f1903151461020c578063787dce3d1461022a57806392eefe9b1461024657806398118cb4146102625761014d565b8063224438d1146101525780632a777db214610170578063357bf15c1461018e578063372500ab146101aa5780633ae73259146101b4575b600080fd5b61015a6103da565b60405161016791906127f9565b60405180910390f35b6101786103e0565b60405161018591906127f9565b60405180910390f35b6101a860048036038101906101a39190612123565b6103e6565b005b6101b261044a565b005b6101bc6104ae565b6040516101c991906127f9565b60405180910390f35b6101ec60048036038101906101e79190612046565b6104bd565b005b6101f6610525565b60405161020391906127f9565b60405180910390f35b61021461052b565b60405161022191906125c3565b60405180910390f35b610244600480360381019061023f9190612123565b610551565b005b610260600480360381019061025b919061201d565b6105ea565b005b61026a61072d565b60405161027791906127f9565b60405180910390f35b61029a6004803603810190610295919061201d565b610733565b005b6102b660048036038101906102b19190612046565b610799565b005b6102d260048036038101906102cd91906120ab565b610801565b005b6102dc610944565b6040516102e991906127f9565b60405180910390f35b6102fa6109ad565b60405161030791906127f9565b60405180910390f35b61032a600480360381019061032591906120d4565b6109b3565b005b6103466004803603810190610341919061201d565b610a04565b005b610362600480360381019061035d9190612046565b610b47565b005b61036c610bb1565b60405161037991906127f9565b60405180910390f35b61038a610c1a565b604051610397919061257f565b60405180910390f35b6103ba60048036038101906103b59190612046565b610c40565b005b6103c4610ca8565b6040516103d1919061257f565b60405180910390f35b60055481565b60065481565b600260009054906101000a900473ffffffffffffffffffffffffffffffffffffffff1673ffffffffffffffffffffffffffffffffffffffff163373ffffffffffffffffffffffffffffffffffffffff161461044057600080fd5b8060048190555050565b600260009054906101000a900473ffffffffffffffffffffffffffffffffffffffff1673ffffffffffffffffffffffffffffffffffffffff163373ffffffffffffffffffffffffffffffffffffffff16146104a457600080fd5b6104ac610cce565b565b60006104b8611193565b905090565b600260009054906101000a900473ffffffffffffffffffffffffffffffffffffffff1673ffffffffffffffffffffffffffffffffffffffff163373ffffffffffffffffffffffffffffffffffffffff161461051757600080fd5b610521828261119d565b5050565b60075481565b600060029054906101000a900473ffffffffffffffffffffffffffffffffffffffff1681565b600260009054906101000a900473ffffffffffffffffffffffffffffffffffffffff1673ffffffffffffffffffffffffffffffffffffffff163373ffffffffffffffffffffffffffffffffffffffff16146105ab57600080fd5b806003819055507f6641a0d0a317e54d1b956ab0202883db13ef06b75584a6a017b1b3c796f990fa6040516105df906127b9565b60405180910390a150565b600260009054906101000a900473ffffffffffffffffffffffffffffffffffffffff1673ffffffffffffffffffffffffffffffffffffffff163373ffffffffffffffffffffffffffffffffffffffff161461064457600080fd5b600073ffffffffffffffffffffffffffffffffffffffff168173ffffffffffffffffffffffffffffffffffffffff1614156106b4576040517f08c379a00000000000000000000000000000000000000000000000000000000081526004016106ab90612719565b60405180910390fd5b80600260006101000a81548173ffffffffffffffffffffffffffffffffffffffff021916908373ffffffffffffffffffffffffffffffffffffffff1602179055507f6641a0d0a317e54d1b956ab0202883db13ef06b75584a6a017b1b3c796f990fa604051610722906126f9565b60405180910390a150565b60045481565b600260009054906101000a900473ffffffffffffffffffffffffffffffffffffffff1673ffffffffffffffffffffffffffffffffffffffff163373ffffffffffffffffffffffffffffffffffffffff161461078d57600080fd5b61079681611208565b50565b600260009054906101000a900473ffffffffffffffffffffffffffffffffffffffff1673ffffffffffffffffffffffffffffffffffffffff163373ffffffffffffffffffffffffffffffffffffffff16146107f357600080fd5b6107fd8282611281565b5050565b600260009054906101000a900473ffffffffffffffffffffffffffffffffffffffff1673ffffffffffffffffffffffffffffffffffffffff163373ffffffffffffffffffffffffffffffffffffffff161461085b57600080fd5b600073ffffffffffffffffffffffffffffffffffffffff168173ffffffffffffffffffffffffffffffffffffffff1614156108cb576040517f08c379a00000000000000000000000000000000000000000000000000000000081526004016108c290612719565b60405180910390fd5b80600060026101000a81548173ffffffffffffffffffffffffffffffffffffffff021916908373ffffffffffffffffffffffffffffffffffffffff1602179055507f6641a0d0a317e54d1b956ab0202883db13ef06b75584a6a017b1b3c796f990fa60405161093990612759565b60405180910390a150565b6000600260009054906101000a900473ffffffffffffffffffffffffffffffffffffffff1673ffffffffffffffffffffffffffffffffffffffff163373ffffffffffffffffffffffffffffffffffffffff16146109a057600080fd5b6109a8611562565b905090565b60035481565b6109be8382336115b0565b81600860006101000a81548173ffffffffffffffffffffffffffffffffffffffff021916908373ffffffffffffffffffffffffffffffffffffffff160217905550505050565b600260009054906101000a900473ffffffffffffffffffffffffffffffffffffffff1673ffffffffffffffffffffffffffffffffffffffff163373ffffffffffffffffffffffffffffffffffffffff1614610a5e57600080fd5b600073ffffffffffffffffffffffffffffffffffffffff168173ffffffffffffffffffffffffffffffffffffffff161415610ace576040517f08c379a0000000000000000000000000000000000000000000000000000000008152600401610ac590612719565b60405180910390fd5b80600160006101000a81548173ffffffffffffffffffffffffffffffffffffffff021916908373ffffffffffffffffffffffffffffffffffffffff1602179055507f6641a0d0a317e54d1b956ab0202883db13ef06b75584a6a017b1b3c796f990fa604051610b3c90612779565b60405180910390a150565b600260009054906101000a900473ffffffffffffffffffffffffffffffffffffffff1673ffffffffffffffffffffffffffffffffffffffff163373ffffffffffffffffffffffffffffffffffffffff1614610ba157600080fd5b610bad8260008361175d565b5050565b6000600260009054906101000a900473ffffffffffffffffffffffffffffffffffffffff1673ffffffffffffffffffffffffffffffffffffffff163373ffffffffffffffffffffffffffffffffffffffff1614610c0d57600080fd5b610c15611b9b565b905090565b600160009054906101000a900473ffffffffffffffffffffffffffffffffffffffff1681565b600260009054906101000a900473ffffffffffffffffffffffffffffffffffffffff1673ffffffffffffffffffffffffffffffffffffffff163373ffffffffffffffffffffffffffffffffffffffff1614610c9a57600080fd5b610ca48282611be9565b5050565b600260009054906101000a900473ffffffffffffffffffffffffffffffffffffffff1681565b60003090506000600860009054906101000a900473ffffffffffffffffffffffffffffffffffffffff1673ffffffffffffffffffffffffffffffffffffffff16639d0b2c7a837fffffffffffffffffffffffffffffffffffffffffffffffffffffffffffffffff6040518363ffffffff1660e01b8152600401610d5292919061259a565b60206040518083038186803b158015610d6a57600080fd5b505afa158015610d7e573d6000803e3d6000fd5b505050506040513d601f19601f82011682018060405250810190610da2919061214c565b90506000600860009054906101000a900473ffffffffffffffffffffffffffffffffffffffff1673ffffffffffffffffffffffffffffffffffffffff1663f595f1cc847fffffffffffffffffffffffffffffffffffffffffffffffffffffffffffffffff6040518363ffffffff1660e01b8152600401610e2392919061259a565b60206040518083038186803b158015610e3b57600080fd5b505afa158015610e4f573d6000803e3d6000fd5b505050506040513d601f19601f82011682018060405250810190610e73919061214c565b9050600060075490506000818410610e94578184610e9191906129ee565b90505b600183106110ea57600860009054906101000a900473ffffffffffffffffffffffffffffffffffffffff1673ffffffffffffffffffffffffffffffffffffffff1663476343ee6040518163ffffffff1660e01b8152600401600060405180830381600087803b158015610f0657600080fd5b505af1158015610f1a573d6000803e3d6000fd5b50505050600073ffffffffffffffffffffffffffffffffffffffff16600073ffffffffffffffffffffffffffffffffffffffff16146110e9576000479050600080600073ffffffffffffffffffffffffffffffffffffffff1663085e2c5b60008060029054906101000a900473ffffffffffffffffffffffffffffffffffffffff1686600160006040518663ffffffff1660e01b8152600401610fc19594939291906125de565b60006040518083038186803b158015610fd957600080fd5b505afa158015610fed573d6000803e3d6000fd5b505050506040513d6000823e3d601f19601f820116820180604052508101906110169190612175565b9150915060008073ffffffffffffffffffffffffffffffffffffffff1663e2a7515e60008060029054906101000a900473ffffffffffffffffffffffffffffffffffffffff1687878760006040518763ffffffff1660e01b815260040161108296959493929190612631565b602060405180830381600087803b15801561109c57600080fd5b505af11580156110b0573d6000803e3d6000fd5b505050506040513d601f19601f820116820180604052508101906110d4919061214c565b905080856110e2919061290d565b9450505050505b5b60006110f882600354611edf565b600554611105919061290d565b905080600581905550600061111c83600454611edf565b600654611129919061290d565b90508060068190555080828761113f91906129ee565b61114991906129ee565b6007819055507f38be9b012e428704c0fb2b81dfd53444b76ac4cd45c46cfd2d661f73d97cf47b8360075460405161118292919061283d565b60405180910390a150505050505050565b6000600754905090565b80600760008282546111af919061290d565b925050819055508173ffffffffffffffffffffffffffffffffffffffff167fe1fffcc4923d04b559f4d29a8bfc6cda04eb5b0d3c460751c2402c5c5cc9109c826040516111fc91906127f9565b60405180910390a25050565b80600860006101000a81548173ffffffffffffffffffffffffffffffffffffffff021916908373ffffffffffffffffffffffffffffffffffffffff1602179055507f6641a0d0a317e54d1b956ab0202883db13ef06b75584a6a017b1b3c796f990fa604051611276906126b9565b60405180910390a150565b6000819050600081141561133d57600060029054906101000a900473ffffffffffffffffffffffffffffffffffffffff1673ffffffffffffffffffffffffffffffffffffffff166370a08231306040518263ffffffff1660e01b81526004016112ea919061257f565b60206040518083038186803b15801561130257600080fd5b505afa158015611316573d6000803e3d6000fd5b505050506040513d601f19601f8201168201806040525081019061133a919061214c565b90505b600081141561134c575061155e565b6000839050600073ffffffffffffffffffffffffffffffffffffffff168173ffffffffffffffffffffffffffffffffffffffff1614156113ac57600160009054906101000a900473ffffffffffffffffffffffffffffffffffffffff1690505b600060029054906101000a900473ffffffffffffffffffffffffffffffffffffffff1673ffffffffffffffffffffffffffffffffffffffff1663095ea7b3600860009054906101000a900473ffffffffffffffffffffffffffffffffffffffff16846040518363ffffffff1660e01b815260040161142b92919061259a565b602060405180830381600087803b15801561144557600080fd5b505af1158015611459573d6000803e3d6000fd5b505050506040513d601f19601f8201168201806040525081019061147d9190612082565b50600860009054906101000a900473ffffffffffffffffffffffffffffffffffffffff1673ffffffffffffffffffffffffffffffffffffffff1663b78d27dc83836040518363ffffffff1660e01b81526004016114db929190612814565b600060405180830381600087803b1580156114f557600080fd5b505af1158015611509573d6000803e3d6000fd5b505050508073ffffffffffffffffffffffffffffffffffffffff167febedb8b3c678666e7f36970bc8f57abf6d8fa2e828c0da91ea5b75bf68ed101a8360405161155391906127f9565b60405180910390a250505b5050565b600080600654905060006006819055507f1d8f4bab53e84801fc35b88b53df72a998fa29c92e6fc65d412c4677d0d88c62816040516115a191906127f9565b60405180910390a18091505090565b600060019054906101000a900460ff16806115d6575060008054906101000a900460ff16155b611615576040517f08c379a000000000000000000000000000000000000000000000000000000000815260040161160c90612739565b60405180910390fd5b60008060019054906101000a900460ff161590508015611665576001600060016101000a81548160ff02191690831515021790555060016000806101000a81548160ff0219169083151502179055505b83600060026101000a81548173ffffffffffffffffffffffffffffffffffffffff021916908373ffffffffffffffffffffffffffffffffffffffff16021790555082600160006101000a81548173ffffffffffffffffffffffffffffffffffffffff021916908373ffffffffffffffffffffffffffffffffffffffff1602179055506658d15e1762800060038190555081600260006101000a81548173ffffffffffffffffffffffffffffffffffffffff021916908373ffffffffffffffffffffffffffffffffffffffff16021790555080156117575760008060016101000a81548160ff0219169083151502179055505b50505050565b6000600960008573ffffffffffffffffffffffffffffffffffffffff1673ffffffffffffffffffffffffffffffffffffffff16815260200190815260200160002060010154146117e2576040517f08c379a00000000000000000000000000000000000000000000000000000000081526004016117d990612799565b60405180910390fd5b6000819050600260009054906101000a900473ffffffffffffffffffffffffffffffffffffffff1673ffffffffffffffffffffffffffffffffffffffff168473ffffffffffffffffffffffffffffffffffffffff1614611880576000811161187f576040517f08c379a0000000000000000000000000000000000000000000000000000000008152600401611876906127d9565b60405180910390fd5b5b600081141561199c57600860009054906101000a900473ffffffffffffffffffffffffffffffffffffffff1673ffffffffffffffffffffffffffffffffffffffff16639d0b2c7a307fffffffffffffffffffffffffffffffffffffffffffffffffffffffffffffffff6040518363ffffffff1660e01b815260040161190692919061259a565b60206040518083038186803b15801561191e57600080fd5b505afa158015611932573d6000803e3d6000fd5b505050506040513d601f19601f82011682018060405250810190611956919061214c565b90506000811161199b576040517f08c379a000000000000000000000000000000000000000000000000000000000815260040161199290612699565b60405180910390fd5b5b6000839050600073ffffffffffffffffffffffffffffffffffffffff168173ffffffffffffffffffffffffffffffffffffffff1614156119fc57600160009054906101000a900473ffffffffffffffffffffffffffffffffffffffff1690505b8160076000828254611a0e91906129ee565b92505081905550600860009054906101000a900473ffffffffffffffffffffffffffffffffffffffff1673ffffffffffffffffffffffffffffffffffffffff166327de9e32836040518263ffffffff1660e01b8152600401611a7091906127f9565b600060405180830381600087803b158015611a8a57600080fd5b505af1158015611a9e573d6000803e3d6000fd5b505050506000600a5490506001600a6000828254611abc919061290d565b92505081905550604051806040016040528082815260200185815250600960008873ffffffffffffffffffffffffffffffffffffffff1673ffffffffffffffffffffffffffffffffffffffff16815260200190815260200160002060008201518160000155602082015181600101559050508173ffffffffffffffffffffffffffffffffffffffff168673ffffffffffffffffffffffffffffffffffffffff167f390b1276974b9463e5d66ab10df69b6f3d7b930eb066a0e66df327edd2cc811c85604051611b8b91906127f9565b60405180910390a3505050505050565b600080600554905060006005819055507f414d7d8eae12f648156e75499fc0a5a10aa84f2745c6f791b0453cb17f1e17fa81604051611bda91906127f9565b60405180910390a18091505090565b6000600960008473ffffffffffffffffffffffffffffffffffffffff1673ffffffffffffffffffffffffffffffffffffffff1681526020019081526020016000206001015411611c6e576040517f08c379a0000000000000000000000000000000000000000000000000000000008152600401611c65906126d9565b60405180910390fd5b6000600960008473ffffffffffffffffffffffffffffffffffffffff1673ffffffffffffffffffffffffffffffffffffffff1681526020019081526020016000206000015490506000600960008573ffffffffffffffffffffffffffffffffffffffff1673ffffffffffffffffffffffffffffffffffffffff168152602001908152602001600020600101549050600960008573ffffffffffffffffffffffffffffffffffffffff1673ffffffffffffffffffffffffffffffffffffffff16815260200190815260200160002060008082016000905560018201600090555050600860009054906101000a900473ffffffffffffffffffffffffffffffffffffffff1673ffffffffffffffffffffffffffffffffffffffff166325d5971f836040518263ffffffff1660e01b8152600401611da991906127f9565b600060405180830381600087803b158015611dc357600080fd5b505af1158015611dd7573d6000803e3d6000fd5b50505050600060029054906101000a900473ffffffffffffffffffffffffffffffffffffffff1673ffffffffffffffffffffffffffffffffffffffff1663a9059cbb85836040518363ffffffff1660e01b8152600401611e3892919061259a565b602060405180830381600087803b158015611e5257600080fd5b505af1158015611e66573d6000803e3d6000fd5b505050506040513d601f19601f82011682018060405250810190611e8a9190612082565b508373ffffffffffffffffffffffffffffffffffffffff167f884edad9ce6fa2440d8a54cc123490eb96d2768479d49ff9c7366125a942436482604051611ed191906127f9565b60405180910390a250505050565b6000683635c9adc5dea000008284611ef79190612994565b611f019190612963565b905092915050565b6000611f1c611f1784612897565b612866565b90508083825260208201905082856020860282011115611f3b57600080fd5b60005b85811015611f6b5781611f518882612008565b845260208401935060208301925050600181019050611f3e565b5050509392505050565b600081359050611f8481612b63565b92915050565b600082601f830112611f9b57600080fd5b8151611fab848260208601611f09565b91505092915050565b600081519050611fc381612b7a565b92915050565b600081359050611fd881612b91565b92915050565b600081359050611fed81612ba8565b92915050565b60008135905061200281612bbf565b92915050565b60008151905061201781612bbf565b92915050565b60006020828403121561202f57600080fd5b600061203d84828501611f75565b91505092915050565b6000806040838503121561205957600080fd5b600061206785828601611f75565b925050602061207885828601611ff3565b9150509250929050565b60006020828403121561209457600080fd5b60006120a284828501611fb4565b91505092915050565b6000602082840312156120bd57600080fd5b60006120cb84828501611fc9565b91505092915050565b6000806000606084860312156120e957600080fd5b60006120f786828701611fc9565b935050602061210886828701611fde565b925050604061211986828701611f75565b9150509250925092565b60006020828403121561213557600080fd5b600061214384828501611ff3565b91505092915050565b60006020828403121561215e57600080fd5b600061216c84828501612008565b91505092915050565b6000806040838503121561218857600080fd5b600061219685828601612008565b925050602083015167ffffffffffffffff8111156121b357600080fd5b6121bf85828601611f8a565b9150509250929050565b60006121d58383612561565b60208301905092915050565b6121ea81612a22565b82525050565b60006121fb826128d3565b61220581856128eb565b9350612210836128c3565b8060005b8381101561224157815161222888826121c9565b9750612233836128de565b925050600181019050612214565b5085935050505092915050565b61225781612a8e565b82525050565b61226681612ab2565b82525050565b61227581612ac4565b82525050565b6000612288600a836128fc565b91507f5a45524f5f5354414b45000000000000000000000000000000000000000000006000830152602082019050919050565b60006122c86010836128fc565b91507f5354414b494e475f434f4e5452414354000000000000000000000000000000006000830152602082019050919050565b60006123086015836128fc565b91507f4e4f5f50454e44494e475f5749544844524157414c00000000000000000000006000830152602082019050919050565b6000612348600a836128fc565b91507f434f4e54524f4c4c4552000000000000000000000000000000000000000000006000830152602082019050919050565b6000612388600c836128fc565b91507f5a45524f5f4144445245535300000000000000000000000000000000000000006000830152602082019050919050565b60006123c8602e836128fc565b91507f496e697469616c697a61626c653a20636f6e747261637420697320616c72656160008301527f647920696e697469616c697a65640000000000000000000000000000000000006020830152604082019050919050565b600061242e6005836128fc565b91507f535445414b0000000000000000000000000000000000000000000000000000006000830152602082019050919050565b600061246e6004836128fc565b91507f4e4f4445000000000000000000000000000000000000000000000000000000006000830152602082019050919050565b60006124ae6012836128fc565b91507f50454e44494e475f5749544844524157414c00000000000000000000000000006000830152602082019050919050565b60006124ee600c836128fc565b91507f50524f544f434f4c5f46454500000000000000000000000000000000000000006000830152602082019050919050565b600061252e600b836128fc565b91507f5a45524f5f414d4f554e540000000000000000000000000000000000000000006000830152602082019050919050565b61256a81612a84565b82525050565b61257981612a84565b82525050565b600060208201905061259460008301846121e1565b92915050565b60006040820190506125af60008301856121e1565b6125bc6020830184612570565b9392505050565b60006020820190506125d8600083018461224e565b92915050565b600060a0820190506125f3600083018861224e565b612600602083018761224e565b61260d6040830186612570565b61261a606083018561226c565b612627608083018461225d565b9695505050505050565b600060c082019050612646600083018961224e565b612653602083018861224e565b6126606040830187612570565b61266d6060830186612570565b818103608083015261267f81856121f0565b905061268e60a083018461225d565b979650505050505050565b600060208201905081810360008301526126b28161227b565b9050919050565b600060208201905081810360008301526126d2816122bb565b9050919050565b600060208201905081810360008301526126f2816122fb565b9050919050565b600060208201905081810360008301526127128161233b565b9050919050565b600060208201905081810360008301526127328161237b565b9050919050565b60006020820190508181036000830152612752816123bb565b9050919050565b6000602082019050818103600083015261277281612421565b9050919050565b6000602082019050818103600083015261279281612461565b9050919050565b600060208201905081810360008301526127b2816124a1565b9050919050565b600060208201905081810360008301526127d2816124e1565b9050919050565b600060208201905081810360008301526127f281612521565b9050919050565b600060208201905061280e6000830184612570565b92915050565b60006040820190506128296000830185612570565b61283660208301846121e1565b9392505050565b60006040820190506128526000830185612570565b61285f6020830184612570565b9392505050565b6000604051905081810181811067ffffffffffffffff8211171561288d5761288c612b34565b5b8060405250919050565b600067ffffffffffffffff8211156128b2576128b1612b34565b5b602082029050602081019050919050565b6000819050602082019050919050565b600081519050919050565b6000602082019050919050565b600082825260208201905092915050565b600082825260208201905092915050565b600061291882612a84565b915061292383612a84565b9250827fffffffffffffffffffffffffffffffffffffffffffffffffffffffffffffffff0382111561295857612957612ad6565b5b828201905092915050565b600061296e82612a84565b915061297983612a84565b92508261298957612988612b05565b5b828204905092915050565b600061299f82612a84565b91506129aa83612a84565b9250817fffffffffffffffffffffffffffffffffffffffffffffffffffffffffffffffff04831182151516156129e3576129e2612ad6565b5b828202905092915050565b60006129f982612a84565b9150612a0483612a84565b925082821015612a1757612a16612ad6565b5b828203905092915050565b6000612a2d82612a64565b9050919050565b60008115159050919050565b6000612a4b82612a22565b9050919050565b6000612a5d82612a22565b9050919050565b600073ffffffffffffffffffffffffffffffffffffffff82169050919050565b6000819050919050565b6000612a9982612aa0565b9050919050565b6000612aab82612a64565b9050919050565b6000612abd82612a84565b9050919050565b6000612acf82612a84565b9050919050565b7f4e487b7100000000000000000000000000000000000000000000000000000000600052601160045260246000fd5b7f4e487b7100000000000000000000000000000000000000000000000000000000600052601260045260246000fd5b7f4e487b7100000000000000000000000000000000000000000000000000000000600052604160045260246000fd5b612b6c81612a22565b8114612b7757600080fd5b50565b612b8381612a34565b8114612b8e57600080fd5b50565b612b9a81612a40565b8114612ba557600080fd5b50565b612bb181612a52565b8114612bbc57600080fd5b50565b612bc881612a84565b8114612bd357600080fd5b5056fea264697066735822122093eaeaa491b59209a19666762adf4e05b8c811d67bce60106b206417571b3abc64736f6c63430008000033",
  "devdoc": {
    "kind": "dev",
    "methods": {
      "claimRewards()": {
        "details": "Only callable by controller"
      },
      "deposit(address,uint256)": {
        "details": "only callable by Controllerdoesn't actually stakes the tokens but aggregates the balance in the tenderizer awaiting to be stakedrequires '_amount' to be approved by '_from'",
        "params": {
          "_amount": "amount deposited",
          "_from": "account that deposits"
        }
      },
      "stake(address,uint256)": {
        "details": "If '_account' is not specified, stake towards the default addressIf '_amount' is 0, stake the entire current token balance of the TenderizerOnly callable by controller",
        "params": {
          "_account": "account to stake to in the underlying protocol",
          "_amount": "amount to stake"
        }
      },
      "unstake(address,uint256)": {
        "details": "If '_account' is not specified, stake towards the default addressIf '_amount' is 0, unstake the entire amount staked towards _accountOnly callable by controller",
        "params": {
          "_account": "account to unstake from in the underlying protocol",
          "_amount": "amount to unstake"
        }
      },
      "withdraw(address,uint256)": {
        "details": "If '_amount' isn't specified all unstake tokens by '_account' will be withdrawnRequires '_account' to have unstaked prior to calling withdrawOnly callable by controller",
        "params": {
          "_account": "account requesting the withdrawam",
          "_amount": "amount to withdraw (optional)"
        }
      }
    },
    "version": 1
  },
  "userdoc": {
    "kind": "user",
    "methods": {
      "claimRewards()": {
        "notice": "Claim staking rewards for the underlying protocol"
      },
      "deposit(address,uint256)": {
        "notice": "Deposit tokens in Tenderizer"
      },
      "stake(address,uint256)": {
        "notice": "Stake '_amount' of tokens to '_account'"
      },
      "unstake(address,uint256)": {
        "notice": "Unstake '_amount' of tokens from '_account'"
      },
      "withdraw(address,uint256)": {
        "notice": "Withdraw '_amount' of tokens previously unstaked by '_account'"
      }
    },
    "version": 1
  },
  "storageLayout": {
    "storage": [
      {
        "astId": 115,
        "contract": "contracts/tenderizer/integrations/livepeer/Livepeer.sol:Livepeer",
        "label": "_initialized",
        "offset": 0,
        "slot": "0",
        "type": "t_bool"
      },
      {
        "astId": 118,
        "contract": "contracts/tenderizer/integrations/livepeer/Livepeer.sol:Livepeer",
        "label": "_initializing",
        "offset": 1,
        "slot": "0",
        "type": "t_bool"
      },
      {
        "astId": 2179,
        "contract": "contracts/tenderizer/integrations/livepeer/Livepeer.sol:Livepeer",
        "label": "steak",
        "offset": 2,
        "slot": "0",
        "type": "t_contract(IERC20)740"
      },
      {
        "astId": 2181,
        "contract": "contracts/tenderizer/integrations/livepeer/Livepeer.sol:Livepeer",
        "label": "node",
        "offset": 0,
        "slot": "1",
        "type": "t_address"
      },
      {
        "astId": 2183,
        "contract": "contracts/tenderizer/integrations/livepeer/Livepeer.sol:Livepeer",
        "label": "controller",
        "offset": 0,
        "slot": "2",
        "type": "t_address"
      },
      {
        "astId": 2185,
        "contract": "contracts/tenderizer/integrations/livepeer/Livepeer.sol:Livepeer",
        "label": "protocolFee",
        "offset": 0,
        "slot": "3",
        "type": "t_uint256"
      },
      {
        "astId": 2187,
        "contract": "contracts/tenderizer/integrations/livepeer/Livepeer.sol:Livepeer",
        "label": "liquidityFee",
        "offset": 0,
        "slot": "4",
        "type": "t_uint256"
      },
      {
        "astId": 2189,
        "contract": "contracts/tenderizer/integrations/livepeer/Livepeer.sol:Livepeer",
        "label": "pendingFees",
        "offset": 0,
        "slot": "5",
        "type": "t_uint256"
      },
      {
        "astId": 2191,
        "contract": "contracts/tenderizer/integrations/livepeer/Livepeer.sol:Livepeer",
        "label": "pendingLiquidityFees",
        "offset": 0,
        "slot": "6",
        "type": "t_uint256"
      },
      {
        "astId": 2193,
        "contract": "contracts/tenderizer/integrations/livepeer/Livepeer.sol:Livepeer",
        "label": "currentPrincipal",
        "offset": 0,
        "slot": "7",
        "type": "t_uint256"
      },
      {
        "astId": 3359,
        "contract": "contracts/tenderizer/integrations/livepeer/Livepeer.sol:Livepeer",
        "label": "livepeer",
        "offset": 0,
        "slot": "8",
        "type": "t_contract(ILivepeer)3331"
      },
      {
        "astId": 3369,
        "contract": "contracts/tenderizer/integrations/livepeer/Livepeer.sol:Livepeer",
        "label": "unbondingLocks",
        "offset": 0,
        "slot": "9",
        "type": "t_mapping(t_address,t_struct(unbondingLock)3364_storage)"
      },
      {
        "astId": 3371,
        "contract": "contracts/tenderizer/integrations/livepeer/Livepeer.sol:Livepeer",
        "label": "nextUnbondingLockID",
        "offset": 0,
        "slot": "10",
        "type": "t_uint256"
      }
    ],
    "types": {
      "t_address": {
        "encoding": "inplace",
        "label": "address",
        "numberOfBytes": "20"
      },
      "t_bool": {
        "encoding": "inplace",
        "label": "bool",
        "numberOfBytes": "1"
      },
      "t_contract(IERC20)740": {
        "encoding": "inplace",
        "label": "contract IERC20",
        "numberOfBytes": "20"
      },
      "t_contract(ILivepeer)3331": {
        "encoding": "inplace",
        "label": "contract ILivepeer",
        "numberOfBytes": "20"
      },
      "t_mapping(t_address,t_struct(unbondingLock)3364_storage)": {
        "encoding": "mapping",
        "key": "t_address",
        "label": "mapping(address => struct Livepeer.unbondingLock)",
        "numberOfBytes": "32",
        "value": "t_struct(unbondingLock)3364_storage"
      },
      "t_struct(unbondingLock)3364_storage": {
        "encoding": "inplace",
        "label": "struct Livepeer.unbondingLock",
        "members": [
          {
            "astId": 3361,
            "contract": "contracts/tenderizer/integrations/livepeer/Livepeer.sol:Livepeer",
            "label": "id",
            "offset": 0,
            "slot": "0",
            "type": "t_uint256"
          },
          {
            "astId": 3363,
            "contract": "contracts/tenderizer/integrations/livepeer/Livepeer.sol:Livepeer",
            "label": "amount",
            "offset": 0,
            "slot": "1",
            "type": "t_uint256"
          }
        ],
        "numberOfBytes": "64"
      },
      "t_uint256": {
        "encoding": "inplace",
        "label": "uint256",
        "numberOfBytes": "32"
      }
    }
  }
}