{
  "address": "0x4a9b33E14d61F7869182323cccd0635127a42775",
  "abi": [
    {
      "inputs": [
        {
          "internalType": "contract IERC20",
          "name": "_steak",
          "type": "address"
        },
        {
          "internalType": "contract ILivepeer",
          "name": "_livepeer",
          "type": "address"
        },
        {
          "internalType": "address",
          "name": "_node",
          "type": "address"
        }
      ],
      "stateMutability": "nonpayable",
      "type": "constructor"
    },
    {
      "anonymous": false,
      "inputs": [
        {
          "indexed": true,
          "internalType": "address",
          "name": "previousOwner",
          "type": "address"
        },
        {
          "indexed": true,
          "internalType": "address",
          "name": "newOwner",
          "type": "address"
        }
      ],
      "name": "OwnershipTransferred",
      "type": "event"
    },
    {
      "inputs": [],
      "name": "claimRewards",
      "outputs": [],
      "stateMutability": "nonpayable",
      "type": "function"
    },
    {
      "inputs": [],
      "name": "collectFees",
      "outputs": [
        {
          "internalType": "uint256",
          "name": "",
          "type": "uint256"
        }
      ],
      "stateMutability": "nonpayable",
      "type": "function"
    },
    {
      "inputs": [],
      "name": "currentPrincipal",
      "outputs": [
        {
          "internalType": "uint256",
          "name": "",
          "type": "uint256"
        }
      ],
      "stateMutability": "view",
      "type": "function"
    },
    {
      "inputs": [
        {
          "internalType": "address",
          "name": "_from",
          "type": "address"
        },
        {
          "internalType": "uint256",
          "name": "_amount",
          "type": "uint256"
        }
      ],
      "name": "deposit",
      "outputs": [],
      "stateMutability": "nonpayable",
      "type": "function"
    },
    {
      "inputs": [],
      "name": "node",
      "outputs": [
        {
          "internalType": "address",
          "name": "",
          "type": "address"
        }
      ],
      "stateMutability": "view",
      "type": "function"
    },
    {
      "inputs": [],
      "name": "owner",
      "outputs": [
        {
          "internalType": "address",
          "name": "",
          "type": "address"
        }
      ],
      "stateMutability": "view",
      "type": "function"
    },
    {
      "inputs": [],
      "name": "pendingFees",
      "outputs": [
        {
          "internalType": "uint256",
          "name": "",
          "type": "uint256"
        }
      ],
      "stateMutability": "view",
      "type": "function"
    },
    {
      "inputs": [],
      "name": "protocolFee",
      "outputs": [
        {
          "internalType": "uint256",
          "name": "",
          "type": "uint256"
        }
      ],
      "stateMutability": "view",
      "type": "function"
    },
    {
      "inputs": [],
      "name": "renounceOwnership",
      "outputs": [],
      "stateMutability": "nonpayable",
      "type": "function"
    },
    {
      "inputs": [
        {
          "internalType": "address",
          "name": "_node",
          "type": "address"
        }
      ],
      "name": "setNode",
      "outputs": [],
      "stateMutability": "nonpayable",
      "type": "function"
    },
    {
      "inputs": [
        {
          "internalType": "uint256",
          "name": "_protocolFee",
          "type": "uint256"
        }
      ],
      "name": "setProtocolFee",
      "outputs": [],
      "stateMutability": "nonpayable",
      "type": "function"
    },
    {
      "inputs": [
        {
          "internalType": "address",
          "name": "_stakingContract",
          "type": "address"
        }
      ],
      "name": "setStakingContract",
      "outputs": [],
      "stateMutability": "nonpayable",
      "type": "function"
    },
    {
      "inputs": [
        {
          "internalType": "contract IERC20",
          "name": "_steak",
          "type": "address"
        }
      ],
      "name": "setSteak",
      "outputs": [],
      "stateMutability": "nonpayable",
      "type": "function"
    },
    {
      "inputs": [
        {
          "internalType": "address",
          "name": "_account",
          "type": "address"
        },
        {
          "internalType": "uint256",
          "name": "_amount",
          "type": "uint256"
        }
      ],
      "name": "stake",
      "outputs": [],
      "stateMutability": "nonpayable",
      "type": "function"
    },
    {
      "inputs": [],
      "name": "steak",
      "outputs": [
        {
          "internalType": "contract IERC20",
          "name": "",
          "type": "address"
        }
      ],
      "stateMutability": "view",
      "type": "function"
    },
    {
      "inputs": [],
      "name": "totalStakedTokens",
      "outputs": [
        {
          "internalType": "uint256",
          "name": "",
          "type": "uint256"
        }
      ],
      "stateMutability": "view",
      "type": "function"
    },
    {
      "inputs": [
        {
          "internalType": "address",
          "name": "newOwner",
          "type": "address"
        }
      ],
      "name": "transferOwnership",
      "outputs": [],
      "stateMutability": "nonpayable",
      "type": "function"
    },
    {
      "inputs": [
        {
          "internalType": "address",
          "name": "_account",
          "type": "address"
        },
        {
          "internalType": "uint256",
          "name": "_amount",
          "type": "uint256"
        }
      ],
      "name": "unstake",
      "outputs": [],
      "stateMutability": "nonpayable",
      "type": "function"
    },
    {
      "inputs": [
        {
          "internalType": "address",
          "name": "_account",
          "type": "address"
        },
        {
          "internalType": "uint256",
          "name": "_amount",
          "type": "uint256"
        }
      ],
      "name": "withdraw",
      "outputs": [],
      "stateMutability": "nonpayable",
      "type": "function"
    }
  ],
  "transactionHash": "0x0b903a6332b7815ab8397e2b9379c85ce1462ab7362e71ab58e5b3bfaf264e96",
  "args": [
    "0x54419A2FB28458cf4A708811c78A8ae707a39caa",
    "0x52f714Db6390b985A07656c04113a71d4b62fB4a",
    "0xe426ad6DDF3905de9D798f49cb19d6E9A6a3335f"
  ],
  "solcInputHash": "36283cbc12728c345676ce1ab110c848",
  "bytecode": "0x60806040526658d15e1762800060035560016009553480156200002157600080fd5b5060405162002ae538038062002ae5833981810160405281019062000047919062000214565b828160006200005b620001c760201b60201c565b9050806000806101000a81548173ffffffffffffffffffffffffffffffffffffffff021916908373ffffffffffffffffffffffffffffffffffffffff1602179055508073ffffffffffffffffffffffffffffffffffffffff16600073ffffffffffffffffffffffffffffffffffffffff167f8be0079c531659141344cd1fd0a4f28419497f9722a3daafe3b4186f6b6457e060405160405180910390a35081600160006101000a81548173ffffffffffffffffffffffffffffffffffffffff021916908373ffffffffffffffffffffffffffffffffffffffff16021790555080600260006101000a81548173ffffffffffffffffffffffffffffffffffffffff021916908373ffffffffffffffffffffffffffffffffffffffff160217905550505081600660006101000a81548173ffffffffffffffffffffffffffffffffffffffff021916908373ffffffffffffffffffffffffffffffffffffffff16021790555050505062000314565b600033905090565b600081519050620001e081620002c6565b92915050565b600081519050620001f781620002e0565b92915050565b6000815190506200020e81620002fa565b92915050565b6000806000606084860312156200022a57600080fd5b60006200023a86828701620001e6565b93505060206200024d86828701620001fd565b92505060406200026086828701620001cf565b9150509250925092565b60006200027782620002a6565b9050919050565b60006200028b826200026a565b9050919050565b60006200029f826200026a565b9050919050565b600073ffffffffffffffffffffffffffffffffffffffff82169050919050565b620002d1816200026a565b8114620002dd57600080fd5b50565b620002eb816200027e565b8114620002f757600080fd5b50565b620003058162000292565b81146200031157600080fd5b50565b6127c180620003246000396000f3fe608060405234801561001057600080fd5b50600436106101215760003560e01c80639dd373b9116100ad578063c2a672e011610071578063c2a672e014610296578063c8796572146102b2578063d70754ec146102d0578063f2fde38b146102ee578063f3fef3a31461030a57610121565b80639dd373b914610208578063adc9772e14610224578063afef75d214610240578063b0e21e8a1461025c578063c21d5ab71461027a57610121565b806351c669c0116100f457806351c669c0146101885780636f190315146101a6578063715018a6146101c4578063787dce3d146101ce5780638da5cb5b146101ea57610121565b8063224438d114610126578063372500ab146101445780633ae732591461014e57806347e7ef241461016c575b600080fd5b61012e610326565b60405161013b91906123b1565b60405180910390f35b61014c61032c565b005b6101566103b2565b60405161016391906123b1565b60405180910390f35b61018660048036038101906101819190611dc4565b6103c1565b005b61019061044b565b60405161019d91906123b1565b60405180910390f35b6101ae610451565b6040516101bb91906121eb565b60405180910390f35b6101cc610477565b005b6101e860048036038101906101e39190611e52565b6105b1565b005b6101f2610637565b6040516101ff91906121a7565b60405180910390f35b610222600480360381019061021d9190611d9b565b610660565b005b61023e60048036038101906102399190611dc4565b6106e8565b005b61025a60048036038101906102559190611e29565b610772565b005b6102646108a2565b60405161027191906123b1565b60405180910390f35b610294600480360381019061028f9190611d9b565b6108a8565b005b6102b060048036038101906102ab9190611dc4565b6109d8565b005b6102ba610a64565b6040516102c791906123b1565b60405180910390f35b6102d8610aef565b6040516102e591906121a7565b60405180910390f35b61030860048036038101906103039190611d9b565b610b15565b005b610324600480360381019061031f9190611dc4565b610cbe565b005b60045481565b610334610d48565b73ffffffffffffffffffffffffffffffffffffffff16610352610637565b73ffffffffffffffffffffffffffffffffffffffff16146103a8576040517f08c379a000000000000000000000000000000000000000000000000000000000815260040161039f90612351565b60405180910390fd5b6103b0610d50565b565b60006103bc6112a9565b905090565b6103c9610d48565b73ffffffffffffffffffffffffffffffffffffffff166103e7610637565b73ffffffffffffffffffffffffffffffffffffffff161461043d576040517f08c379a000000000000000000000000000000000000000000000000000000000815260040161043490612351565b60405180910390fd5b61044782826112b3565b5050565b60055481565b600160009054906101000a900473ffffffffffffffffffffffffffffffffffffffff1681565b61047f610d48565b73ffffffffffffffffffffffffffffffffffffffff1661049d610637565b73ffffffffffffffffffffffffffffffffffffffff16146104f3576040517f08c379a00000000000000000000000000000000000000000000000000000000081526004016104ea90612351565b60405180910390fd5b600073ffffffffffffffffffffffffffffffffffffffff1660008054906101000a900473ffffffffffffffffffffffffffffffffffffffff1673ffffffffffffffffffffffffffffffffffffffff167f8be0079c531659141344cd1fd0a4f28419497f9722a3daafe3b4186f6b6457e060405160405180910390a360008060006101000a81548173ffffffffffffffffffffffffffffffffffffffff021916908373ffffffffffffffffffffffffffffffffffffffff160217905550565b6105b9610d48565b73ffffffffffffffffffffffffffffffffffffffff166105d7610637565b73ffffffffffffffffffffffffffffffffffffffff161461062d576040517f08c379a000000000000000000000000000000000000000000000000000000000815260040161062490612351565b60405180910390fd5b8060038190555050565b60008060009054906101000a900473ffffffffffffffffffffffffffffffffffffffff16905090565b610668610d48565b73ffffffffffffffffffffffffffffffffffffffff16610686610637565b73ffffffffffffffffffffffffffffffffffffffff16146106dc576040517f08c379a00000000000000000000000000000000000000000000000000000000081526004016106d390612351565b60405180910390fd5b6106e5816112d2565b50565b6106f0610d48565b73ffffffffffffffffffffffffffffffffffffffff1661070e610637565b73ffffffffffffffffffffffffffffffffffffffff1614610764576040517f08c379a000000000000000000000000000000000000000000000000000000000815260040161075b90612351565b60405180910390fd5b61076e8282611316565b5050565b61077a610d48565b73ffffffffffffffffffffffffffffffffffffffff16610798610637565b73ffffffffffffffffffffffffffffffffffffffff16146107ee576040517f08c379a00000000000000000000000000000000000000000000000000000000081526004016107e590612351565b60405180910390fd5b600073ffffffffffffffffffffffffffffffffffffffff168173ffffffffffffffffffffffffffffffffffffffff16141561085e576040517f08c379a000000000000000000000000000000000000000000000000000000000815260040161085590612331565b60405180910390fd5b80600160006101000a81548173ffffffffffffffffffffffffffffffffffffffff021916908373ffffffffffffffffffffffffffffffffffffffff16021790555050565b60035481565b6108b0610d48565b73ffffffffffffffffffffffffffffffffffffffff166108ce610637565b73ffffffffffffffffffffffffffffffffffffffff1614610924576040517f08c379a000000000000000000000000000000000000000000000000000000000815260040161091b90612351565b60405180910390fd5b600073ffffffffffffffffffffffffffffffffffffffff168173ffffffffffffffffffffffffffffffffffffffff161415610994576040517f08c379a000000000000000000000000000000000000000000000000000000000815260040161098b90612331565b60405180910390fd5b80600260006101000a81548173ffffffffffffffffffffffffffffffffffffffff021916908373ffffffffffffffffffffffffffffffffffffffff16021790555050565b6109e0610d48565b73ffffffffffffffffffffffffffffffffffffffff166109fe610637565b73ffffffffffffffffffffffffffffffffffffffff1614610a54576040517f08c379a0000000000000000000000000000000000000000000000000000000008152600401610a4b90612351565b60405180910390fd5b610a60826000836115a9565b5050565b6000610a6e610d48565b73ffffffffffffffffffffffffffffffffffffffff16610a8c610637565b73ffffffffffffffffffffffffffffffffffffffff1614610ae2576040517f08c379a0000000000000000000000000000000000000000000000000000000008152600401610ad990612351565b60405180910390fd5b610aea611904565b905090565b600260009054906101000a900473ffffffffffffffffffffffffffffffffffffffff1681565b610b1d610d48565b73ffffffffffffffffffffffffffffffffffffffff16610b3b610637565b73ffffffffffffffffffffffffffffffffffffffff1614610b91576040517f08c379a0000000000000000000000000000000000000000000000000000000008152600401610b8890612351565b60405180910390fd5b600073ffffffffffffffffffffffffffffffffffffffff168173ffffffffffffffffffffffffffffffffffffffff161415610c01576040517f08c379a0000000000000000000000000000000000000000000000000000000008152600401610bf8906122f1565b60405180910390fd5b8073ffffffffffffffffffffffffffffffffffffffff1660008054906101000a900473ffffffffffffffffffffffffffffffffffffffff1673ffffffffffffffffffffffffffffffffffffffff167f8be0079c531659141344cd1fd0a4f28419497f9722a3daafe3b4186f6b6457e060405160405180910390a3806000806101000a81548173ffffffffffffffffffffffffffffffffffffffff021916908373ffffffffffffffffffffffffffffffffffffffff16021790555050565b610cc6610d48565b73ffffffffffffffffffffffffffffffffffffffff16610ce4610637565b73ffffffffffffffffffffffffffffffffffffffff1614610d3a576040517f08c379a0000000000000000000000000000000000000000000000000000000008152600401610d3190612351565b60405180910390fd5b610d44828261191b565b5050565b600033905090565b60003090506000600660009054906101000a900473ffffffffffffffffffffffffffffffffffffffff1673ffffffffffffffffffffffffffffffffffffffff16639d0b2c7a837fffffffffffffffffffffffffffffffffffffffffffffffffffffffffffffffff6040518363ffffffff1660e01b8152600401610dd49291906121c2565b60206040518083038186803b158015610dec57600080fd5b505afa158015610e00573d6000803e3d6000fd5b505050506040513d601f19601f82011682018060405250810190610e249190611e7b565b90506000600660009054906101000a900473ffffffffffffffffffffffffffffffffffffffff1673ffffffffffffffffffffffffffffffffffffffff1663f595f1cc847fffffffffffffffffffffffffffffffffffffffffffffffffffffffffffffffff6040518363ffffffff1660e01b8152600401610ea59291906121c2565b60206040518083038186803b158015610ebd57600080fd5b505afa158015610ed1573d6000803e3d6000fd5b505050506040513d601f19601f82011682018060405250810190610ef59190611e7b565b9050600060055490506000818410610f1d57610f1a8285611b7f90919063ffffffff16565b90505b610f5c6040518060400160405280602081526020017f7374616b6520616674657220636c61696d696e67206561726e696e677320257381525085611b95565b610f9b6040518060400160405280601281526020017f63757272656e742072657761726473202573000000000000000000000000000081525082611b95565b60095483106111fb57600660009054906101000a900473ffffffffffffffffffffffffffffffffffffffff1673ffffffffffffffffffffffffffffffffffffffff1663476343ee6040518163ffffffff1660e01b8152600401600060405180830381600087803b15801561100e57600080fd5b505af1158015611022573d6000803e3d6000fd5b50505050600073ffffffffffffffffffffffffffffffffffffffff16600073ffffffffffffffffffffffffffffffffffffffff16146111fa576000479050600080600073ffffffffffffffffffffffffffffffffffffffff1663085e2c5b6000600160009054906101000a900473ffffffffffffffffffffffffffffffffffffffff1686600160006040518663ffffffff1660e01b81526004016110ca959493929190612206565b60006040518083038186803b1580156110e257600080fd5b505afa1580156110f6573d6000803e3d6000fd5b505050506040513d6000823e3d601f19601f8201168201806040525081019061111f9190611ea4565b9150915060008073ffffffffffffffffffffffffffffffffffffffff1663e2a7515e6000600160009054906101000a900473ffffffffffffffffffffffffffffffffffffffff1687878760006040518763ffffffff1660e01b815260040161118c96959493929190612259565b602060405180830381600087803b1580156111a657600080fd5b505af11580156111ba573d6000803e3d6000fd5b505050506040513d601f19601f820116820180604052508101906111de9190611e7b565b90506111f38186611c3190919063ffffffff16565b9450505050505b5b600061122c670de0b6b3a764000061121e60035485611c4790919063ffffffff16565b611c5d90919063ffffffff16565b905061124381600454611c3190919063ffffffff16565b6004819055506112886040518060400160405280601581526020017f666565206f6e207468652072657761726473202573000000000000000000000081525082611b95565b61129b8186611b7f90919063ffffffff16565b600581905550505050505050565b6000600554905090565b6112c881600554611c3190919063ffffffff16565b6005819055505050565b80600660006101000a81548173ffffffffffffffffffffffffffffffffffffffff021916908373ffffffffffffffffffffffffffffffffffffffff16021790555050565b600081905060008114156113d257600160009054906101000a900473ffffffffffffffffffffffffffffffffffffffff1673ffffffffffffffffffffffffffffffffffffffff166370a08231306040518263ffffffff1660e01b815260040161137f91906121a7565b60206040518083038186803b15801561139757600080fd5b505afa1580156113ab573d6000803e3d6000fd5b505050506040513d601f19601f820116820180604052508101906113cf9190611e7b565b90505b60008114156113e157506115a5565b6000839050600073ffffffffffffffffffffffffffffffffffffffff168173ffffffffffffffffffffffffffffffffffffffff16141561144157600260009054906101000a900473ffffffffffffffffffffffffffffffffffffffff1690505b600160009054906101000a900473ffffffffffffffffffffffffffffffffffffffff1673ffffffffffffffffffffffffffffffffffffffff1663095ea7b3600660009054906101000a900473ffffffffffffffffffffffffffffffffffffffff16846040518363ffffffff1660e01b81526004016114c09291906121c2565b602060405180830381600087803b1580156114da57600080fd5b505af11580156114ee573d6000803e3d6000fd5b505050506040513d601f19601f820116820180604052508101906115129190611e00565b50600660009054906101000a900473ffffffffffffffffffffffffffffffffffffffff1673ffffffffffffffffffffffffffffffffffffffff1663b78d27dc83836040518363ffffffff1660e01b81526004016115709291906123cc565b600060405180830381600087803b15801561158a57600080fd5b505af115801561159e573d6000803e3d6000fd5b5050505050505b5050565b6000600760008573ffffffffffffffffffffffffffffffffffffffff1673ffffffffffffffffffffffffffffffffffffffff168152602001908152602001600020600101541461162e576040517f08c379a000000000000000000000000000000000000000000000000000000000815260040161162590612371565b60405180910390fd5b600081905061163b610637565b73ffffffffffffffffffffffffffffffffffffffff168473ffffffffffffffffffffffffffffffffffffffff16146116b157600081116116b0576040517f08c379a00000000000000000000000000000000000000000000000000000000081526004016116a790612391565b60405180910390fd5b5b600081141561176857600160009054906101000a900473ffffffffffffffffffffffffffffffffffffffff1673ffffffffffffffffffffffffffffffffffffffff166370a08231306040518263ffffffff1660e01b815260040161171591906121a7565b60206040518083038186803b15801561172d57600080fd5b505afa158015611741573d6000803e3d6000fd5b505050506040513d601f19601f820116820180604052508101906117659190611e7b565b90505b6000839050600073ffffffffffffffffffffffffffffffffffffffff168173ffffffffffffffffffffffffffffffffffffffff1614156117c857600260009054906101000a900473ffffffffffffffffffffffffffffffffffffffff1690505b6117dd83600554611b7f90919063ffffffff16565b600581905550600660009054906101000a900473ffffffffffffffffffffffffffffffffffffffff1673ffffffffffffffffffffffffffffffffffffffff166327de9e32846040518263ffffffff1660e01b815260040161183e91906123b1565b600060405180830381600087803b15801561185857600080fd5b505af115801561186c573d6000803e3d6000fd5b505050506000600854905061188b600182611c3190919063ffffffff16565b600881905550604051806040016040528082815260200185815250600760008873ffffffffffffffffffffffffffffffffffffffff1673ffffffffffffffffffffffffffffffffffffffff1681526020019081526020016000206000820151816000015560208201518160010155905050505050505050565b600080600454905060006004819055508091505090565b6000600760008473ffffffffffffffffffffffffffffffffffffffff1673ffffffffffffffffffffffffffffffffffffffff16815260200190815260200160002060010154116119a0576040517f08c379a000000000000000000000000000000000000000000000000000000000815260040161199790612311565b60405180910390fd5b6000600760008473ffffffffffffffffffffffffffffffffffffffff1673ffffffffffffffffffffffffffffffffffffffff1681526020019081526020016000209050600760008473ffffffffffffffffffffffffffffffffffffffff1673ffffffffffffffffffffffffffffffffffffffff16815260200190815260200160002060008082016000905560018201600090555050600660009054906101000a900473ffffffffffffffffffffffffffffffffffffffff1673ffffffffffffffffffffffffffffffffffffffff166325d5971f82600001546040518263ffffffff1660e01b8152600401611a9491906123b1565b600060405180830381600087803b158015611aae57600080fd5b505af1158015611ac2573d6000803e3d6000fd5b50505050600160009054906101000a900473ffffffffffffffffffffffffffffffffffffffff1673ffffffffffffffffffffffffffffffffffffffff1663a9059cbb8483600101546040518363ffffffff1660e01b8152600401611b279291906121c2565b602060405180830381600087803b158015611b4157600080fd5b505af1158015611b55573d6000803e3d6000fd5b505050506040513d601f19601f82011682018060405250810190611b799190611e00565b50505050565b60008183611b8d9190612588565b905092915050565b611c2d8282604051602401611bab9291906122c1565b6040516020818303038152906040527f9710a9d0000000000000000000000000000000000000000000000000000000007bffffffffffffffffffffffffffffffffffffffffffffffffffffffff19166020820180517bffffffffffffffffffffffffffffffffffffffffffffffffffffffff8381831617835250505050611c73565b5050565b60008183611c3f91906124a7565b905092915050565b60008183611c55919061252e565b905092915050565b60008183611c6b91906124fd565b905092915050565b60008151905060006a636f6e736f6c652e6c6f679050602083016000808483855afa5050505050565b6000611caf611caa84612426565b6123f5565b90508083825260208201905082856020860282011115611cce57600080fd5b60005b85811015611cfe5781611ce48882611d86565b845260208401935060208301925050600181019050611cd1565b5050509392505050565b600081359050611d178161272f565b92915050565b600082601f830112611d2e57600080fd5b8151611d3e848260208601611c9c565b91505092915050565b600081519050611d5681612746565b92915050565b600081359050611d6b8161275d565b92915050565b600081359050611d8081612774565b92915050565b600081519050611d9581612774565b92915050565b600060208284031215611dad57600080fd5b6000611dbb84828501611d08565b91505092915050565b60008060408385031215611dd757600080fd5b6000611de585828601611d08565b9250506020611df685828601611d71565b9150509250929050565b600060208284031215611e1257600080fd5b6000611e2084828501611d47565b91505092915050565b600060208284031215611e3b57600080fd5b6000611e4984828501611d5c565b91505092915050565b600060208284031215611e6457600080fd5b6000611e7284828501611d71565b91505092915050565b600060208284031215611e8d57600080fd5b6000611e9b84828501611d86565b91505092915050565b60008060408385031215611eb757600080fd5b6000611ec585828601611d86565b925050602083015167ffffffffffffffff811115611ee257600080fd5b611eee85828601611d1d565b9150509250929050565b6000611f048383612189565b60208301905092915050565b611f19816125bc565b82525050565b6000611f2a82612462565b611f348185612485565b9350611f3f83612452565b8060005b83811015611f70578151611f578882611ef8565b9750611f6283612478565b925050600181019050611f43565b5085935050505092915050565b611f8681612616565b82525050565b611f958161263a565b82525050565b611fa48161264c565b82525050565b6000611fb58261246d565b611fbf8185612496565b9350611fcf81856020860161265e565b611fd88161271e565b840191505092915050565b6000611ff0602683612496565b91507f4f776e61626c653a206e6577206f776e657220697320746865207a65726f206160008301527f64647265737300000000000000000000000000000000000000000000000000006020830152604082019050919050565b6000612056601583612496565b91507f4e4f5f50454e44494e475f5749544844524157414c00000000000000000000006000830152602082019050919050565b6000612096600c83612496565b91507f5a45524f5f4144445245535300000000000000000000000000000000000000006000830152602082019050919050565b60006120d6602083612496565b91507f4f776e61626c653a2063616c6c6572206973206e6f7420746865206f776e65726000830152602082019050919050565b6000612116601283612496565b91507f50454e44494e475f5749544844524157414c00000000000000000000000000006000830152602082019050919050565b6000612156600b83612496565b91507f5a45524f5f414d4f554e540000000000000000000000000000000000000000006000830152602082019050919050565b6121928161260c565b82525050565b6121a18161260c565b82525050565b60006020820190506121bc6000830184611f10565b92915050565b60006040820190506121d76000830185611f10565b6121e46020830184612198565b9392505050565b60006020820190506122006000830184611f7d565b92915050565b600060a08201905061221b6000830188611f7d565b6122286020830187611f7d565b6122356040830186612198565b6122426060830185611f9b565b61224f6080830184611f8c565b9695505050505050565b600060c08201905061226e6000830189611f7d565b61227b6020830188611f7d565b6122886040830187612198565b6122956060830186612198565b81810360808301526122a78185611f1f565b90506122b660a0830184611f8c565b979650505050505050565b600060408201905081810360008301526122db8185611faa565b90506122ea6020830184612198565b9392505050565b6000602082019050818103600083015261230a81611fe3565b9050919050565b6000602082019050818103600083015261232a81612049565b9050919050565b6000602082019050818103600083015261234a81612089565b9050919050565b6000602082019050818103600083015261236a816120c9565b9050919050565b6000602082019050818103600083015261238a81612109565b9050919050565b600060208201905081810360008301526123aa81612149565b9050919050565b60006020820190506123c66000830184612198565b92915050565b60006040820190506123e16000830185612198565b6123ee6020830184611f10565b9392505050565b6000604051905081810181811067ffffffffffffffff8211171561241c5761241b6126ef565b5b8060405250919050565b600067ffffffffffffffff821115612441576124406126ef565b5b602082029050602081019050919050565b6000819050602082019050919050565b600081519050919050565b600081519050919050565b6000602082019050919050565b600082825260208201905092915050565b600082825260208201905092915050565b60006124b28261260c565b91506124bd8361260c565b9250827fffffffffffffffffffffffffffffffffffffffffffffffffffffffffffffffff038211156124f2576124f1612691565b5b828201905092915050565b60006125088261260c565b91506125138361260c565b925082612523576125226126c0565b5b828204905092915050565b60006125398261260c565b91506125448361260c565b9250817fffffffffffffffffffffffffffffffffffffffffffffffffffffffffffffffff048311821515161561257d5761257c612691565b5b828202905092915050565b60006125938261260c565b915061259e8361260c565b9250828210156125b1576125b0612691565b5b828203905092915050565b60006125c7826125ec565b9050919050565b60008115159050919050565b60006125e5826125bc565b9050919050565b600073ffffffffffffffffffffffffffffffffffffffff82169050919050565b6000819050919050565b600061262182612628565b9050919050565b6000612633826125ec565b9050919050565b60006126458261260c565b9050919050565b60006126578261260c565b9050919050565b60005b8381101561267c578082015181840152602081019050612661565b8381111561268b576000848401525b50505050565b7f4e487b7100000000000000000000000000000000000000000000000000000000600052601160045260246000fd5b7f4e487b7100000000000000000000000000000000000000000000000000000000600052601260045260246000fd5b7f4e487b7100000000000000000000000000000000000000000000000000000000600052604160045260246000fd5b6000601f19601f8301169050919050565b612738816125bc565b811461274357600080fd5b50565b61274f816125ce565b811461275a57600080fd5b50565b612766816125da565b811461277157600080fd5b50565b61277d8161260c565b811461278857600080fd5b5056fea2646970667358221220f3538b4fb7848727bbf3b5fb128d592f02e1457648b130c5d6d3ade4a72013be64736f6c63430008000033",
  "libraries": {
    "SafeMath": "0xe67e3D91d811B1eA35F8b3629ae412AaD82cE1D2"
  },
  "devdoc": {
    "kind": "dev",
    "methods": {
      "owner()": {
        "details": "Returns the address of the current owner."
      },
      "renounceOwnership()": {
        "details": "Leaves the contract without owner. It will not be possible to call `onlyOwner` functions anymore. Can only be called by the current owner. NOTE: Renouncing ownership will leave the contract without an owner, thereby removing any functionality that is only available to the owner."
      },
      "transferOwnership(address)": {
        "details": "Transfers ownership of the contract to a new account (`newOwner`). Can only be called by the current owner."
      }
    },
    "version": 1
  },
  "userdoc": {
    "kind": "user",
    "methods": {},
    "version": 1
  },
  "storageLayout": {
    "storage": [
      {
        "astId": 7,
        "contract": "contracts/tenderizer/integrations/livepeer/Livepeer.sol:Livepeer",
        "label": "_owner",
        "offset": 0,
        "slot": "0",
        "type": "t_address"
      },
      {
        "astId": 726,
        "contract": "contracts/tenderizer/integrations/livepeer/Livepeer.sol:Livepeer",
        "label": "steak",
        "offset": 0,
        "slot": "1",
        "type": "t_contract(IERC20)187"
      },
      {
        "astId": 728,
        "contract": "contracts/tenderizer/integrations/livepeer/Livepeer.sol:Livepeer",
        "label": "node",
        "offset": 0,
        "slot": "2",
        "type": "t_address"
      },
      {
        "astId": 733,
        "contract": "contracts/tenderizer/integrations/livepeer/Livepeer.sol:Livepeer",
        "label": "protocolFee",
        "offset": 0,
        "slot": "3",
        "type": "t_uint256"
      },
      {
        "astId": 735,
        "contract": "contracts/tenderizer/integrations/livepeer/Livepeer.sol:Livepeer",
        "label": "pendingFees",
        "offset": 0,
        "slot": "4",
        "type": "t_uint256"
      },
      {
        "astId": 737,
        "contract": "contracts/tenderizer/integrations/livepeer/Livepeer.sol:Livepeer",
        "label": "currentPrincipal",
        "offset": 0,
        "slot": "5",
        "type": "t_uint256"
      },
      {
        "astId": 1631,
        "contract": "contracts/tenderizer/integrations/livepeer/Livepeer.sol:Livepeer",
        "label": "livepeer",
        "offset": 0,
        "slot": "6",
        "type": "t_contract(ILivepeer)1599"
      },
      {
        "astId": 1641,
        "contract": "contracts/tenderizer/integrations/livepeer/Livepeer.sol:Livepeer",
        "label": "unbondingLocks",
        "offset": 0,
        "slot": "7",
        "type": "t_mapping(t_address,t_struct(unbondingLock)1636_storage)"
      },
      {
        "astId": 1643,
        "contract": "contracts/tenderizer/integrations/livepeer/Livepeer.sol:Livepeer",
        "label": "nextUnbondingLockID",
        "offset": 0,
        "slot": "8",
        "type": "t_uint256"
      },
      {
        "astId": 1648,
        "contract": "contracts/tenderizer/integrations/livepeer/Livepeer.sol:Livepeer",
        "label": "ethFees_threshold",
        "offset": 0,
        "slot": "9",
        "type": "t_uint256"
      }
    ],
    "types": {
      "t_address": {
        "encoding": "inplace",
        "label": "address",
        "numberOfBytes": "20"
      },
      "t_contract(IERC20)187": {
        "encoding": "inplace",
        "label": "contract IERC20",
        "numberOfBytes": "20"
      },
      "t_contract(ILivepeer)1599": {
        "encoding": "inplace",
        "label": "contract ILivepeer",
        "numberOfBytes": "20"
      },
      "t_mapping(t_address,t_struct(unbondingLock)1636_storage)": {
        "encoding": "mapping",
        "key": "t_address",
        "label": "mapping(address => struct Livepeer.unbondingLock)",
        "numberOfBytes": "32",
        "value": "t_struct(unbondingLock)1636_storage"
      },
      "t_struct(unbondingLock)1636_storage": {
        "encoding": "inplace",
        "label": "struct Livepeer.unbondingLock",
        "members": [
          {
            "astId": 1633,
            "contract": "contracts/tenderizer/integrations/livepeer/Livepeer.sol:Livepeer",
            "label": "id",
            "offset": 0,
            "slot": "0",
            "type": "t_uint256"
          },
          {
            "astId": 1635,
            "contract": "contracts/tenderizer/integrations/livepeer/Livepeer.sol:Livepeer",
            "label": "amount",
            "offset": 0,
            "slot": "1",
            "type": "t_uint256"
          }
        ],
        "numberOfBytes": "64"
      },
      "t_uint256": {
        "encoding": "inplace",
        "label": "uint256",
        "numberOfBytes": "32"
      }
    }
  }
}