{
  "address": "0x821eC626550a00Ac909908243EB6727F8c39c749",
  "abi": [
    {
      "inputs": [
        {
          "internalType": "contract IERC20",
          "name": "_steak",
          "type": "address"
        },
        {
          "internalType": "address",
          "name": "_matic",
          "type": "address"
        },
        {
          "internalType": "address",
          "name": "_node",
          "type": "address"
        }
      ],
      "stateMutability": "nonpayable",
      "type": "constructor"
    },
    {
      "anonymous": false,
      "inputs": [
        {
          "indexed": true,
          "internalType": "address",
          "name": "previousOwner",
          "type": "address"
        },
        {
          "indexed": true,
          "internalType": "address",
          "name": "newOwner",
          "type": "address"
        }
      ],
      "name": "OwnershipTransferred",
      "type": "event"
    },
    {
      "inputs": [],
      "name": "claimRewards",
      "outputs": [],
      "stateMutability": "nonpayable",
      "type": "function"
    },
    {
      "inputs": [],
      "name": "collectFees",
      "outputs": [
        {
          "internalType": "uint256",
          "name": "",
          "type": "uint256"
        }
      ],
      "stateMutability": "nonpayable",
      "type": "function"
    },
    {
      "inputs": [],
      "name": "currentPrincipal",
      "outputs": [
        {
          "internalType": "uint256",
          "name": "",
          "type": "uint256"
        }
      ],
      "stateMutability": "view",
      "type": "function"
    },
    {
      "inputs": [
        {
          "internalType": "address",
          "name": "_from",
          "type": "address"
        },
        {
          "internalType": "uint256",
          "name": "_amount",
          "type": "uint256"
        }
      ],
      "name": "deposit",
      "outputs": [],
      "stateMutability": "nonpayable",
      "type": "function"
    },
    {
      "inputs": [],
      "name": "node",
      "outputs": [
        {
          "internalType": "address",
          "name": "",
          "type": "address"
        }
      ],
      "stateMutability": "view",
      "type": "function"
    },
    {
      "inputs": [],
      "name": "owner",
      "outputs": [
        {
          "internalType": "address",
          "name": "",
          "type": "address"
        }
      ],
      "stateMutability": "view",
      "type": "function"
    },
    {
      "inputs": [],
      "name": "pendingFees",
      "outputs": [
        {
          "internalType": "uint256",
          "name": "",
          "type": "uint256"
        }
      ],
      "stateMutability": "view",
      "type": "function"
    },
    {
      "inputs": [],
      "name": "protocolFee",
      "outputs": [
        {
          "internalType": "uint256",
          "name": "",
          "type": "uint256"
        }
      ],
      "stateMutability": "view",
      "type": "function"
    },
    {
      "inputs": [],
      "name": "renounceOwnership",
      "outputs": [],
      "stateMutability": "nonpayable",
      "type": "function"
    },
    {
      "inputs": [
        {
          "internalType": "address",
          "name": "_node",
          "type": "address"
        }
      ],
      "name": "setNode",
      "outputs": [],
      "stateMutability": "nonpayable",
      "type": "function"
    },
    {
      "inputs": [
        {
          "internalType": "uint256",
          "name": "_protocolFee",
          "type": "uint256"
        }
      ],
      "name": "setProtocolFee",
      "outputs": [],
      "stateMutability": "nonpayable",
      "type": "function"
    },
    {
      "inputs": [
        {
          "internalType": "address",
          "name": "_stakingContract",
          "type": "address"
        }
      ],
      "name": "setStakingContract",
      "outputs": [],
      "stateMutability": "nonpayable",
      "type": "function"
    },
    {
      "inputs": [
        {
          "internalType": "contract IERC20",
          "name": "_steak",
          "type": "address"
        }
      ],
      "name": "setSteak",
      "outputs": [],
      "stateMutability": "nonpayable",
      "type": "function"
    },
    {
      "inputs": [
        {
          "internalType": "address",
          "name": "_account",
          "type": "address"
        },
        {
          "internalType": "uint256",
          "name": "_amount",
          "type": "uint256"
        }
      ],
      "name": "stake",
      "outputs": [],
      "stateMutability": "nonpayable",
      "type": "function"
    },
    {
      "inputs": [],
      "name": "steak",
      "outputs": [
        {
          "internalType": "contract IERC20",
          "name": "",
          "type": "address"
        }
      ],
      "stateMutability": "view",
      "type": "function"
    },
    {
      "inputs": [],
      "name": "totalStakedTokens",
      "outputs": [
        {
          "internalType": "uint256",
          "name": "",
          "type": "uint256"
        }
      ],
      "stateMutability": "view",
      "type": "function"
    },
    {
      "inputs": [
        {
          "internalType": "address",
          "name": "newOwner",
          "type": "address"
        }
      ],
      "name": "transferOwnership",
      "outputs": [],
      "stateMutability": "nonpayable",
      "type": "function"
    },
    {
      "inputs": [
        {
          "internalType": "address",
          "name": "_account",
          "type": "address"
        },
        {
          "internalType": "uint256",
          "name": "_amount",
          "type": "uint256"
        }
      ],
      "name": "unstake",
      "outputs": [],
      "stateMutability": "nonpayable",
      "type": "function"
    },
    {
      "inputs": [
        {
          "internalType": "address",
          "name": "_account",
          "type": "address"
        },
        {
          "internalType": "uint256",
          "name": "_amount",
          "type": "uint256"
        }
      ],
      "name": "withdraw",
      "outputs": [],
      "stateMutability": "nonpayable",
      "type": "function"
    }
  ],
  "transactionHash": "0xc4c53b05f6f9821e8f3858c7c3f31c1fc547e5772e2ff656c4f2c5e6cfacb0e8",
  "args": [
    "0xFA8B158E91F07084690F672B5881716A2Ada1E78",
    "0x28f76453d23fF8757C2bef59CF03cf7B13204fa2",
    "0x0431dBac16d70E6E987EB138eC28Ee21831Fca8c"
  ],
  "solcInputHash": "878000f091cfac2ca73158dbc5c56082",
  "bytecode": "0x60806040526658d15e176280006003553480156200001c57600080fd5b5060405162001da938038062001da983398181016040528101906200004291906200027a565b82816000620000566200024460201b60201c565b9050806000806101000a81548173ffffffffffffffffffffffffffffffffffffffff021916908373ffffffffffffffffffffffffffffffffffffffff1602179055508073ffffffffffffffffffffffffffffffffffffffff16600073ffffffffffffffffffffffffffffffffffffffff167f8be0079c531659141344cd1fd0a4f28419497f9722a3daafe3b4186f6b6457e060405160405180910390a35081600160006101000a81548173ffffffffffffffffffffffffffffffffffffffff021916908373ffffffffffffffffffffffffffffffffffffffff16021790555080600260006101000a81548173ffffffffffffffffffffffffffffffffffffffff021916908373ffffffffffffffffffffffffffffffffffffffff160217905550505081600660006101000a81548173ffffffffffffffffffffffffffffffffffffffff021916908373ffffffffffffffffffffffffffffffffffffffff16021790555080600260006101000a81548173ffffffffffffffffffffffffffffffffffffffff021916908373ffffffffffffffffffffffffffffffffffffffff16021790555080600760006101000a81548173ffffffffffffffffffffffffffffffffffffffff021916908373ffffffffffffffffffffffffffffffffffffffff1602179055505050506200034c565b600033905090565b6000815190506200025d8162000318565b92915050565b600081519050620002748162000332565b92915050565b6000806000606084860312156200029057600080fd5b6000620002a08682870162000263565b9350506020620002b3868287016200024c565b9250506040620002c6868287016200024c565b9150509250925092565b6000620002dd82620002f8565b9050919050565b6000620002f182620002d0565b9050919050565b600073ffffffffffffffffffffffffffffffffffffffff82169050919050565b6200032381620002d0565b81146200032f57600080fd5b50565b6200033d81620002e4565b81146200034957600080fd5b50565b611a4d806200035c6000396000f3fe608060405234801561001057600080fd5b50600436106101215760003560e01c80639dd373b9116100ad578063c2a672e011610071578063c2a672e014610296578063c8796572146102b2578063d70754ec146102d0578063f2fde38b146102ee578063f3fef3a31461030a57610121565b80639dd373b914610208578063adc9772e14610224578063afef75d214610240578063b0e21e8a1461025c578063c21d5ab71461027a57610121565b806351c669c0116100f457806351c669c0146101885780636f190315146101a6578063715018a6146101c4578063787dce3d146101ce5780638da5cb5b146101ea57610121565b8063224438d114610126578063372500ab146101445780633ae732591461014e57806347e7ef241461016c575b600080fd5b61012e610326565b60405161013b9190611775565b60405180910390f35b61014c61032c565b005b6101566103b2565b6040516101639190611775565b60405180910390f35b610186600480360381019061018191906114c3565b6103c1565b005b61019061044b565b60405161019d9190611775565b60405180910390f35b6101ae610451565b6040516101bb91906116fa565b60405180910390f35b6101cc610477565b005b6101e860048036038101906101e39190611551565b6105b1565b005b6101f2610637565b6040516101ff91906116b6565b60405180910390f35b610222600480360381019061021d919061149a565b610660565b005b61023e600480360381019061023991906114c3565b6106e8565b005b61025a60048036038101906102559190611528565b610772565b005b6102646108a2565b6040516102719190611775565b60405180910390f35b610294600480360381019061028f919061149a565b6108a8565b005b6102b060048036038101906102ab91906114c3565b6109d8565b005b6102ba610a64565b6040516102c79190611775565b60405180910390f35b6102d8610aef565b6040516102e591906116b6565b60405180910390f35b6103086004803603810190610303919061149a565b610b15565b005b610324600480360381019061031f91906114c3565b610cbe565b005b60045481565b610334610d48565b73ffffffffffffffffffffffffffffffffffffffff16610352610637565b73ffffffffffffffffffffffffffffffffffffffff16146103a8576040517f08c379a000000000000000000000000000000000000000000000000000000000815260040161039f90611755565b60405180910390fd5b6103b0610d50565b565b60006103bc610ffe565b905090565b6103c9610d48565b73ffffffffffffffffffffffffffffffffffffffff166103e7610637565b73ffffffffffffffffffffffffffffffffffffffff161461043d576040517f08c379a000000000000000000000000000000000000000000000000000000000815260040161043490611755565b60405180910390fd5b6104478282611008565b5050565b60055481565b600160009054906101000a900473ffffffffffffffffffffffffffffffffffffffff1681565b61047f610d48565b73ffffffffffffffffffffffffffffffffffffffff1661049d610637565b73ffffffffffffffffffffffffffffffffffffffff16146104f3576040517f08c379a00000000000000000000000000000000000000000000000000000000081526004016104ea90611755565b60405180910390fd5b600073ffffffffffffffffffffffffffffffffffffffff1660008054906101000a900473ffffffffffffffffffffffffffffffffffffffff1673ffffffffffffffffffffffffffffffffffffffff167f8be0079c531659141344cd1fd0a4f28419497f9722a3daafe3b4186f6b6457e060405160405180910390a360008060006101000a81548173ffffffffffffffffffffffffffffffffffffffff021916908373ffffffffffffffffffffffffffffffffffffffff160217905550565b6105b9610d48565b73ffffffffffffffffffffffffffffffffffffffff166105d7610637565b73ffffffffffffffffffffffffffffffffffffffff161461062d576040517f08c379a000000000000000000000000000000000000000000000000000000000815260040161062490611755565b60405180910390fd5b8060038190555050565b60008060009054906101000a900473ffffffffffffffffffffffffffffffffffffffff16905090565b610668610d48565b73ffffffffffffffffffffffffffffffffffffffff16610686610637565b73ffffffffffffffffffffffffffffffffffffffff16146106dc576040517f08c379a00000000000000000000000000000000000000000000000000000000081526004016106d390611755565b60405180910390fd5b6106e581611027565b50565b6106f0610d48565b73ffffffffffffffffffffffffffffffffffffffff1661070e610637565b73ffffffffffffffffffffffffffffffffffffffff1614610764576040517f08c379a000000000000000000000000000000000000000000000000000000000815260040161075b90611755565b60405180910390fd5b61076e828261106b565b5050565b61077a610d48565b73ffffffffffffffffffffffffffffffffffffffff16610798610637565b73ffffffffffffffffffffffffffffffffffffffff16146107ee576040517f08c379a00000000000000000000000000000000000000000000000000000000081526004016107e590611755565b60405180910390fd5b600073ffffffffffffffffffffffffffffffffffffffff168173ffffffffffffffffffffffffffffffffffffffff16141561085e576040517f08c379a000000000000000000000000000000000000000000000000000000000815260040161085590611735565b60405180910390fd5b80600160006101000a81548173ffffffffffffffffffffffffffffffffffffffff021916908373ffffffffffffffffffffffffffffffffffffffff16021790555050565b60035481565b6108b0610d48565b73ffffffffffffffffffffffffffffffffffffffff166108ce610637565b73ffffffffffffffffffffffffffffffffffffffff1614610924576040517f08c379a000000000000000000000000000000000000000000000000000000000815260040161091b90611755565b60405180910390fd5b600073ffffffffffffffffffffffffffffffffffffffff168173ffffffffffffffffffffffffffffffffffffffff161415610994576040517f08c379a000000000000000000000000000000000000000000000000000000000815260040161098b90611735565b60405180910390fd5b80600260006101000a81548173ffffffffffffffffffffffffffffffffffffffff021916908373ffffffffffffffffffffffffffffffffffffffff16021790555050565b6109e0610d48565b73ffffffffffffffffffffffffffffffffffffffff166109fe610637565b73ffffffffffffffffffffffffffffffffffffffff1614610a54576040517f08c379a0000000000000000000000000000000000000000000000000000000008152600401610a4b90611755565b60405180910390fd5b610a60826000836113b9565b5050565b6000610a6e610d48565b73ffffffffffffffffffffffffffffffffffffffff16610a8c610637565b73ffffffffffffffffffffffffffffffffffffffff1614610ae2576040517f08c379a0000000000000000000000000000000000000000000000000000000008152600401610ad990611755565b60405180910390fd5b610aea6113be565b905090565b600260009054906101000a900473ffffffffffffffffffffffffffffffffffffffff1681565b610b1d610d48565b73ffffffffffffffffffffffffffffffffffffffff16610b3b610637565b73ffffffffffffffffffffffffffffffffffffffff1614610b91576040517f08c379a0000000000000000000000000000000000000000000000000000000008152600401610b8890611755565b60405180910390fd5b600073ffffffffffffffffffffffffffffffffffffffff168173ffffffffffffffffffffffffffffffffffffffff161415610c01576040517f08c379a0000000000000000000000000000000000000000000000000000000008152600401610bf890611715565b60405180910390fd5b8073ffffffffffffffffffffffffffffffffffffffff1660008054906101000a900473ffffffffffffffffffffffffffffffffffffffff1673ffffffffffffffffffffffffffffffffffffffff167f8be0079c531659141344cd1fd0a4f28419497f9722a3daafe3b4186f6b6457e060405160405180910390a3806000806101000a81548173ffffffffffffffffffffffffffffffffffffffff021916908373ffffffffffffffffffffffffffffffffffffffff16021790555050565b610cc6610d48565b73ffffffffffffffffffffffffffffffffffffffff16610ce4610637565b73ffffffffffffffffffffffffffffffffffffffff1614610d3a576040517f08c379a0000000000000000000000000000000000000000000000000000000008152600401610d3190611755565b60405180910390fd5b610d4482826113d5565b5050565b600033905090565b600760009054906101000a900473ffffffffffffffffffffffffffffffffffffffff1673ffffffffffffffffffffffffffffffffffffffff16634f91440d6040518163ffffffff1660e01b8152600401600060405180830381600087803b158015610dba57600080fd5b505af1925050508015610dcb575060015b610dd457610dd5565b5b6000806000600760009054906101000a900473ffffffffffffffffffffffffffffffffffffffff1673ffffffffffffffffffffffffffffffffffffffff166370a08231306040518263ffffffff1660e01b8152600401610e3591906116b6565b60206040518083038186803b158015610e4d57600080fd5b505afa158015610e61573d6000803e3d6000fd5b505050506040513d601f19601f82011682018060405250810190610e85919061157a565b90506000600760009054906101000a900473ffffffffffffffffffffffffffffffffffffffff1673ffffffffffffffffffffffffffffffffffffffff16633ba0b9a96040518163ffffffff1660e01b815260040160206040518083038186803b158015610ef157600080fd5b505afa158015610f05573d6000803e3d6000fd5b505050506040513d601f19601f82011682018060405250810190610f29919061157a565b90506000811415610f3957600190505b610f5f6064610f5183856113d990919063ffffffff16565b6113ef90919063ffffffff16565b925060006005549050808410610f8557610f82818561140590919063ffffffff16565b94505b5050506000610fb9670de0b6b3a7640000610fab600354866113d990919063ffffffff16565b6113ef90919063ffffffff16565b90506000811115610fe057610fd98160045461141b90919063ffffffff16565b6004819055505b610ff3818361140590919063ffffffff16565b600581905550505050565b6000600554905090565b61101d8160055461141b90919063ffffffff16565b6005819055505050565b80600260006101000a81548173ffffffffffffffffffffffffffffffffffffffff021916908373ffffffffffffffffffffffffffffffffffffffff16021790555050565b6000819050600081141561112757600160009054906101000a900473ffffffffffffffffffffffffffffffffffffffff1673ffffffffffffffffffffffffffffffffffffffff166370a08231306040518263ffffffff1660e01b81526004016110d491906116b6565b60206040518083038186803b1580156110ec57600080fd5b505afa158015611100573d6000803e3d6000fd5b505050506040513d601f19601f82011682018060405250810190611124919061157a565b90505b600081141561113657506113b5565b6000600760009054906101000a900473ffffffffffffffffffffffffffffffffffffffff169050600073ffffffffffffffffffffffffffffffffffffffff168473ffffffffffffffffffffffffffffffffffffffff1614611195578390505b600160009054906101000a900473ffffffffffffffffffffffffffffffffffffffff1673ffffffffffffffffffffffffffffffffffffffff1663095ea7b3600660009054906101000a900473ffffffffffffffffffffffffffffffffffffffff16846040518363ffffffff1660e01b81526004016112149291906116d1565b602060405180830381600087803b15801561122e57600080fd5b505af1158015611242573d6000803e3d6000fd5b505050506040513d601f19601f8201168201806040525081019061126691906114ff565b506000600760009054906101000a900473ffffffffffffffffffffffffffffffffffffffff1673ffffffffffffffffffffffffffffffffffffffff16633ba0b9a96040518163ffffffff1660e01b815260040160206040518083038186803b1580156112d157600080fd5b505afa1580156112e5573d6000803e3d6000fd5b505050506040513d601f19601f82011682018060405250810190611309919061157a565b9050600081141561131957600190505b6000611341826113336064876113d990919063ffffffff16565b6113ef90919063ffffffff16565b90508273ffffffffffffffffffffffffffffffffffffffff16636ab1507185836040518363ffffffff1660e01b815260040161137e929190611790565b600060405180830381600087803b15801561139857600080fd5b505af11580156113ac573d6000803e3d6000fd5b50505050505050505b5050565b505050565b600080600454905060006004819055508091505090565b5050565b600081836113e79190611851565b905092915050565b600081836113fd9190611820565b905092915050565b6000818361141391906118ab565b905092915050565b6000818361142991906117ca565b905092915050565b600081359050611440816119bb565b92915050565b600081519050611455816119d2565b92915050565b60008135905061146a816119e9565b92915050565b60008135905061147f81611a00565b92915050565b60008151905061149481611a00565b92915050565b6000602082840312156114ac57600080fd5b60006114ba84828501611431565b91505092915050565b600080604083850312156114d657600080fd5b60006114e485828601611431565b92505060206114f585828601611470565b9150509250929050565b60006020828403121561151157600080fd5b600061151f84828501611446565b91505092915050565b60006020828403121561153a57600080fd5b60006115488482850161145b565b91505092915050565b60006020828403121561156357600080fd5b600061157184828501611470565b91505092915050565b60006020828403121561158c57600080fd5b600061159a84828501611485565b91505092915050565b6115ac816118df565b82525050565b6115bb81611939565b82525050565b60006115ce6026836117b9565b91507f4f776e61626c653a206e6577206f776e657220697320746865207a65726f206160008301527f64647265737300000000000000000000000000000000000000000000000000006020830152604082019050919050565b6000611634600c836117b9565b91507f5a45524f5f4144445245535300000000000000000000000000000000000000006000830152602082019050919050565b60006116746020836117b9565b91507f4f776e61626c653a2063616c6c6572206973206e6f7420746865206f776e65726000830152602082019050919050565b6116b08161192f565b82525050565b60006020820190506116cb60008301846115a3565b92915050565b60006040820190506116e660008301856115a3565b6116f360208301846116a7565b9392505050565b600060208201905061170f60008301846115b2565b92915050565b6000602082019050818103600083015261172e816115c1565b9050919050565b6000602082019050818103600083015261174e81611627565b9050919050565b6000602082019050818103600083015261176e81611667565b9050919050565b600060208201905061178a60008301846116a7565b92915050565b60006040820190506117a560008301856116a7565b6117b260208301846116a7565b9392505050565b600082825260208201905092915050565b60006117d58261192f565b91506117e08361192f565b9250827fffffffffffffffffffffffffffffffffffffffffffffffffffffffffffffffff038211156118155761181461195d565b5b828201905092915050565b600061182b8261192f565b91506118368361192f565b9250826118465761184561198c565b5b828204905092915050565b600061185c8261192f565b91506118678361192f565b9250817fffffffffffffffffffffffffffffffffffffffffffffffffffffffffffffffff04831182151516156118a05761189f61195d565b5b828202905092915050565b60006118b68261192f565b91506118c18361192f565b9250828210156118d4576118d361195d565b5b828203905092915050565b60006118ea8261190f565b9050919050565b60008115159050919050565b6000611908826118df565b9050919050565b600073ffffffffffffffffffffffffffffffffffffffff82169050919050565b6000819050919050565b60006119448261194b565b9050919050565b60006119568261190f565b9050919050565b7f4e487b7100000000000000000000000000000000000000000000000000000000600052601160045260246000fd5b7f4e487b7100000000000000000000000000000000000000000000000000000000600052601260045260246000fd5b6119c4816118df565b81146119cf57600080fd5b50565b6119db816118f1565b81146119e657600080fd5b50565b6119f2816118fd565b81146119fd57600080fd5b50565b611a098161192f565b8114611a1457600080fd5b5056fea2646970667358221220df8c78a2d51a756b2b3b882ab6077fecc8bf060a2e3c9c8370e882fa3ef98a5364736f6c63430008000033",
  "libraries": {
    "SafeMath": "0xe67e3D91d811B1eA35F8b3629ae412AaD82cE1D2"
  },
  "devdoc": {
    "kind": "dev",
    "methods": {
      "owner()": {
        "details": "Returns the address of the current owner."
      },
      "renounceOwnership()": {
        "details": "Leaves the contract without owner. It will not be possible to call `onlyOwner` functions anymore. Can only be called by the current owner. NOTE: Renouncing ownership will leave the contract without an owner, thereby removing any functionality that is only available to the owner."
      },
      "transferOwnership(address)": {
        "details": "Transfers ownership of the contract to a new account (`newOwner`). Can only be called by the current owner."
      }
    },
    "version": 1
  },
  "userdoc": {
    "kind": "user",
    "methods": {},
    "version": 1
  },
  "storageLayout": {
    "storage": [
      {
        "astId": 7,
        "contract": "contracts/tenderizer/integrations/matic/Matic.sol:Matic",
        "label": "_owner",
        "offset": 0,
        "slot": "0",
        "type": "t_address"
      },
      {
        "astId": 613,
        "contract": "contracts/tenderizer/integrations/matic/Matic.sol:Matic",
        "label": "steak",
        "offset": 0,
        "slot": "1",
        "type": "t_contract(IERC20)187"
      },
      {
        "astId": 615,
        "contract": "contracts/tenderizer/integrations/matic/Matic.sol:Matic",
        "label": "node",
        "offset": 0,
        "slot": "2",
        "type": "t_address"
      },
      {
        "astId": 620,
        "contract": "contracts/tenderizer/integrations/matic/Matic.sol:Matic",
        "label": "protocolFee",
        "offset": 0,
        "slot": "3",
        "type": "t_uint256"
      },
      {
        "astId": 622,
        "contract": "contracts/tenderizer/integrations/matic/Matic.sol:Matic",
        "label": "pendingFees",
        "offset": 0,
        "slot": "4",
        "type": "t_uint256"
      },
      {
        "astId": 624,
        "contract": "contracts/tenderizer/integrations/matic/Matic.sol:Matic",
        "label": "currentPrincipal",
        "offset": 0,
        "slot": "5",
        "type": "t_uint256"
      },
      {
        "astId": 941,
        "contract": "contracts/tenderizer/integrations/matic/Matic.sol:Matic",
        "label": "maticStakeManager",
        "offset": 0,
        "slot": "6",
        "type": "t_address"
      },
      {
        "astId": 944,
        "contract": "contracts/tenderizer/integrations/matic/Matic.sol:Matic",
        "label": "matic",
        "offset": 0,
        "slot": "7",
        "type": "t_contract(IMatic)924"
      },
      {
        "astId": 948,
        "contract": "contracts/tenderizer/integrations/matic/Matic.sol:Matic",
        "label": "pendingWithdrawals",
        "offset": 0,
        "slot": "8",
        "type": "t_mapping(t_address,t_uint256)"
      },
      {
        "astId": 950,
        "contract": "contracts/tenderizer/integrations/matic/Matic.sol:Matic",
        "label": "totalPendingWithdrawals",
        "offset": 0,
        "slot": "9",
        "type": "t_uint256"
      }
    ],
    "types": {
      "t_address": {
        "encoding": "inplace",
        "label": "address",
        "numberOfBytes": "20"
      },
      "t_contract(IERC20)187": {
        "encoding": "inplace",
        "label": "contract IERC20",
        "numberOfBytes": "20"
      },
      "t_contract(IMatic)924": {
        "encoding": "inplace",
        "label": "contract IMatic",
        "numberOfBytes": "20"
      },
      "t_mapping(t_address,t_uint256)": {
        "encoding": "mapping",
        "key": "t_address",
        "label": "mapping(address => uint256)",
        "numberOfBytes": "32",
        "value": "t_uint256"
      },
      "t_uint256": {
        "encoding": "inplace",
        "label": "uint256",
        "numberOfBytes": "32"
      }
    }
  }
}