{
  "address": "0xbC5E73D2beBC02807b502F3997416Feb7f410c43",
  "abi": [
    {
      "inputs": [
        {
          "internalType": "address",
          "name": "implementationAddress",
          "type": "address"
        },
        {
          "internalType": "address",
          "name": "ownerAddress",
          "type": "address"
        },
        {
          "internalType": "bytes",
          "name": "data",
          "type": "bytes"
        }
      ],
      "stateMutability": "payable",
      "type": "constructor"
    },
    {
      "anonymous": false,
      "inputs": [
        {
          "indexed": true,
          "internalType": "address",
          "name": "previousOwner",
          "type": "address"
        },
        {
          "indexed": true,
          "internalType": "address",
          "name": "newOwner",
          "type": "address"
        }
      ],
      "name": "OwnershipTransferred",
      "type": "event"
    },
    {
      "anonymous": false,
      "inputs": [
        {
          "indexed": true,
          "internalType": "address",
          "name": "previousImplementation",
          "type": "address"
        },
        {
          "indexed": true,
          "internalType": "address",
          "name": "newImplementation",
          "type": "address"
        }
      ],
      "name": "ProxyImplementationUpdated",
      "type": "event"
    },
    {
      "stateMutability": "payable",
      "type": "fallback"
    },
    {
      "inputs": [],
      "name": "owner",
      "outputs": [
        {
          "internalType": "address",
          "name": "",
          "type": "address"
        }
      ],
      "stateMutability": "view",
      "type": "function"
    },
    {
      "inputs": [
        {
          "internalType": "bytes4",
          "name": "id",
          "type": "bytes4"
        }
      ],
      "name": "supportsInterface",
      "outputs": [
        {
          "internalType": "bool",
          "name": "",
          "type": "bool"
        }
      ],
      "stateMutability": "view",
      "type": "function"
    },
    {
      "inputs": [
        {
          "internalType": "address",
          "name": "newOwner",
          "type": "address"
        }
      ],
      "name": "transferOwnership",
      "outputs": [],
      "stateMutability": "nonpayable",
      "type": "function"
    },
    {
      "inputs": [
        {
          "internalType": "address",
          "name": "newImplementation",
          "type": "address"
        }
      ],
      "name": "upgradeTo",
      "outputs": [],
      "stateMutability": "nonpayable",
      "type": "function"
    },
    {
      "inputs": [
        {
          "internalType": "address",
          "name": "newImplementation",
          "type": "address"
        },
        {
          "internalType": "bytes",
          "name": "data",
          "type": "bytes"
        }
      ],
      "name": "upgradeToAndCall",
      "outputs": [],
      "stateMutability": "payable",
      "type": "function"
    },
    {
      "stateMutability": "payable",
      "type": "receive"
    }
  ],
  "transactionHash": "0xa753c1d355c6d0e08e67a71a687301799ba760ee78e8c5614ad9ac591106cc7a",
  "args": [
    "0xFd01Cb9b594Ec7aA2f209f13894fcA7204c4fEef",
    "0xe426ad6DDF3905de9D798f49cb19d6E9A6a3335f",
    "0xec6d80f6000000000000000000000000b7e2860e2217b688ed476ccbd54b0febdb07ff5f000000000000000000000000000000000000000000000000000000000000012000000000000000000000000041eb1dd6a77c44889ef7f28469004be287217b26000000000000000000000000a84427d7acf59f0ef2f9b4ce3c8c167f35d8710b0000000000000000000000000000000000000000000000000058d15e1762800000000000000000000000000000000000000000000000000000000000000000000000000000000000000000000be23373fc48f0946ec6156f12420751af7c553100000000000000000000000038d23838eaf2b76e0903fc4c042ecb6151c8a4300000000000000000000000001eeb89ee3bfe5378e2a4ad741ac41f2acdccaa3c00000000000000000000000000000000000000000000000000000000000000054d41544943000000000000000000000000000000000000000000000000000000"
  ],
  "solcInputHash": "b95747029b50ce820258c37924d64527",
  "bytecode": "0x6080604052604051610c66380380610c668339818101604052606081101561002657600080fd5b8101908080519060200190929190805190602001909291908051604051939291908464010000000082111561005a57600080fd5b8382019150602082018581111561007057600080fd5b825186600182028301116401000000008211171561008d57600080fd5b8083526020830192505050908051906020019080838360005b838110156100c15780820151818401526020810190506100a6565b50505050905090810190601f1680156100ee5780820380516001836020036101000a031916815260200191505b50604052505050828282610108838261012260201b60201c565b6101178261029c60201b60201c565b505050505050610358565b60007f360894a13ba1a3210667c828492db98dca3e2076cc3735a920a3ca505d382bbc549050827f360894a13ba1a3210667c828492db98dca3e2076cc3735a920a3ca505d382bbc558273ffffffffffffffffffffffffffffffffffffffff168173ffffffffffffffffffffffffffffffffffffffff167f5570d70a002632a7b0b3c9304cc89efb62d8da9eca0dbd7752c83b737906829660405160405180910390a36000825111156102975760008373ffffffffffffffffffffffffffffffffffffffff16836040518082805190602001908083835b6020831061021c57805182526020820191506020810190506020830392506101f9565b6001836020036101000a038019825116818451168082178552505050505050905001915050600060405180830381855af49150503d806000811461027c576040519150601f19603f3d011682016040523d82523d6000602084013e610281565b606091505b5050905080610295573d806000803e806000fd5b505b505050565b60006102ac61032f60201b60201c565b9050817fb53127684a568b3173ae13b9f8a6016e243e63b6e8ee1178d6a717850b5d6103558173ffffffffffffffffffffffffffffffffffffffff168173ffffffffffffffffffffffffffffffffffffffff167f8be0079c531659141344cd1fd0a4f28419497f9722a3daafe3b4186f6b6457e060405160405180910390a35050565b60007fb53127684a568b3173ae13b9f8a6016e243e63b6e8ee1178d6a717850b5d610354905090565b6108ff806103676000396000f3fe60806040526004361061004e5760003560e01c806301ffc9a71461005f5780633659cfe6146100cf5780634f1ef286146101205780638da5cb5b146101b9578063f2fde38b146101fa57610055565b3661005557005b61005d61024b565b005b34801561006b57600080fd5b506100b76004803603602081101561008257600080fd5b8101908080357bffffffffffffffffffffffffffffffffffffffffffffffffffffffff19169060200190929190505050610294565b60405180821515815260200191505060405180910390f35b3480156100db57600080fd5b5061011e600480360360208110156100f257600080fd5b81019080803573ffffffffffffffffffffffffffffffffffffffff169060200190929190505050610417565b005b6101b76004803603604081101561013657600080fd5b81019080803573ffffffffffffffffffffffffffffffffffffffff1690602001909291908035906020019064010000000081111561017357600080fd5b82018360208201111561018557600080fd5b803590602001918460018302840111640100000000831117156101a757600080fd5b90919293919293905050506104db565b005b3480156101c557600080fd5b506101ce6105d6565b604051808273ffffffffffffffffffffffffffffffffffffffff16815260200191505060405180910390f35b34801561020657600080fd5b506102496004803603602081101561021d57600080fd5b81019080803573ffffffffffffffffffffffffffffffffffffffff1690602001909291905050506105e5565b005b7f360894a13ba1a3210667c828492db98dca3e2076cc3735a920a3ca505d382bbc543660008037600080366000845af43d806000803e816000811461028f57816000f35b816000fd5b60006301ffc9a760e01b827bffffffffffffffffffffffffffffffffffffffffffffffffffffffff191614806102ef5750637f5828d060e01b827bffffffffffffffffffffffffffffffffffffffffffffffffffffffff1916145b156102fd5760019050610412565b63ffffffff60e01b827bffffffffffffffffffffffffffffffffffffffffffffffffffffffff191614156103345760009050610412565b60007f360894a13ba1a3210667c828492db98dca3e2076cc3735a920a3ca505d382bbc5490508073ffffffffffffffffffffffffffffffffffffffff166301ffc9a7846040518263ffffffff1660e01b815260040180827bffffffffffffffffffffffffffffffffffffffffffffffffffffffff1916815260200191505060206040518083038186803b1580156103ca57600080fd5b505afa9250505080156103fe57506040513d60208110156103ea57600080fd5b810190808051906020019092919050505060015b61040c576000915050610412565b80925050505b919050565b61041f610699565b73ffffffffffffffffffffffffffffffffffffffff163373ffffffffffffffffffffffffffffffffffffffff16146104bf576040517f08c379a000000000000000000000000000000000000000000000000000000000815260040180806020018281038252600e8152602001807f4e4f545f415554484f52495a454400000000000000000000000000000000000081525060200191505060405180910390fd5b6104d881604051806020016040528060008152506106c2565b50565b6104e3610699565b73ffffffffffffffffffffffffffffffffffffffff163373ffffffffffffffffffffffffffffffffffffffff1614610583576040517f08c379a000000000000000000000000000000000000000000000000000000000815260040180806020018281038252600e8152602001807f4e4f545f415554484f52495a454400000000000000000000000000000000000081525060200191505060405180910390fd5b6105d18383838080601f016020809104026020016040519081016040528093929190818152602001838380828437600081840152601f19601f820116905080830192505050505050506106c2565b505050565b60006105e0610699565b905090565b6105ed610699565b73ffffffffffffffffffffffffffffffffffffffff163373ffffffffffffffffffffffffffffffffffffffff161461068d576040517f08c379a000000000000000000000000000000000000000000000000000000000815260040180806020018281038252600e8152602001807f4e4f545f415554484f52495a454400000000000000000000000000000000000081525060200191505060405180910390fd5b6106968161083c565b50565b60007fb53127684a568b3173ae13b9f8a6016e243e63b6e8ee1178d6a717850b5d610354905090565b60007f360894a13ba1a3210667c828492db98dca3e2076cc3735a920a3ca505d382bbc549050827f360894a13ba1a3210667c828492db98dca3e2076cc3735a920a3ca505d382bbc558273ffffffffffffffffffffffffffffffffffffffff168173ffffffffffffffffffffffffffffffffffffffff167f5570d70a002632a7b0b3c9304cc89efb62d8da9eca0dbd7752c83b737906829660405160405180910390a36000825111156108375760008373ffffffffffffffffffffffffffffffffffffffff16836040518082805190602001908083835b602083106107bc5780518252602082019150602081019050602083039250610799565b6001836020036101000a038019825116818451168082178552505050505050905001915050600060405180830381855af49150503d806000811461081c576040519150601f19603f3d011682016040523d82523d6000602084013e610821565b606091505b5050905080610835573d806000803e806000fd5b505b505050565b6000610846610699565b9050817fb53127684a568b3173ae13b9f8a6016e243e63b6e8ee1178d6a717850b5d6103558173ffffffffffffffffffffffffffffffffffffffff168173ffffffffffffffffffffffffffffffffffffffff167f8be0079c531659141344cd1fd0a4f28419497f9722a3daafe3b4186f6b6457e060405160405180910390a3505056fea264697066735822122097ae429e51d644ab878f7ac424e2c694f70aee359d57561729909dca2f07d42564736f6c63430007000033",
  "devdoc": {
    "kind": "dev",
    "methods": {},
    "version": 1
  },
  "userdoc": {
    "kind": "user",
    "methods": {},
    "notice": "Proxy implementing EIP173 for ownership management that accept ETH via receive",
    "version": 1
  },
  "storageLayout": {
    "storage": [],
    "types": null
  }
}