{
  "address": "0xFd01Cb9b594Ec7aA2f209f13894fcA7204c4fEef",
  "abi": [
    {
      "anonymous": false,
      "inputs": [
        {
          "indexed": true,
          "internalType": "address",
          "name": "from",
          "type": "address"
        },
        {
          "indexed": false,
          "internalType": "uint256",
          "name": "amount",
          "type": "uint256"
        }
      ],
      "name": "Deposit",
      "type": "event"
    },
    {
      "anonymous": false,
      "inputs": [
        {
          "indexed": false,
          "internalType": "string",
          "name": "param",
          "type": "string"
        }
      ],
      "name": "GovernanceUpdate",
      "type": "event"
    },
    {
      "anonymous": false,
      "inputs": [
        {
          "indexed": false,
          "internalType": "uint256",
          "name": "amount",
          "type": "uint256"
        }
      ],
      "name": "LiquidityFeeCollected",
      "type": "event"
    },
    {
      "anonymous": false,
      "inputs": [
        {
          "indexed": false,
          "internalType": "uint256",
          "name": "amount",
          "type": "uint256"
        }
      ],
      "name": "ProtocolFeeCollected",
      "type": "event"
    },
    {
      "anonymous": false,
      "inputs": [
        {
          "indexed": false,
          "internalType": "int256",
          "name": "stakeDiff",
          "type": "int256"
        },
        {
          "indexed": false,
          "internalType": "uint256",
          "name": "currentPrincipal",
          "type": "uint256"
        },
        {
          "indexed": false,
          "internalType": "uint256",
          "name": "oldPrincipal",
          "type": "uint256"
        }
      ],
      "name": "RewardsClaimed",
      "type": "event"
    },
    {
      "anonymous": false,
      "inputs": [
        {
          "indexed": true,
          "internalType": "address",
          "name": "node",
          "type": "address"
        },
        {
          "indexed": false,
          "internalType": "uint256",
          "name": "amount",
          "type": "uint256"
        }
      ],
      "name": "Stake",
      "type": "event"
    },
    {
      "anonymous": false,
      "inputs": [
        {
          "indexed": true,
          "internalType": "address",
          "name": "from",
          "type": "address"
        },
        {
          "indexed": true,
          "internalType": "address",
          "name": "node",
          "type": "address"
        },
        {
          "indexed": false,
          "internalType": "uint256",
          "name": "amount",
          "type": "uint256"
        },
        {
          "indexed": false,
          "internalType": "uint256",
          "name": "unstakeLockID",
          "type": "uint256"
        }
      ],
      "name": "Unstake",
      "type": "event"
    },
    {
      "anonymous": false,
      "inputs": [
        {
          "indexed": true,
          "internalType": "address",
          "name": "from",
          "type": "address"
        },
        {
          "indexed": false,
          "internalType": "uint256",
          "name": "amount",
          "type": "uint256"
        },
        {
          "indexed": false,
          "internalType": "uint256",
          "name": "unstakeLockID",
          "type": "uint256"
        }
      ],
      "name": "Withdraw",
      "type": "event"
    },
    {
      "inputs": [
        {
          "internalType": "address[]",
          "name": "_targets",
          "type": "address[]"
        },
        {
          "internalType": "uint256[]",
          "name": "_values",
          "type": "uint256[]"
        },
        {
          "internalType": "bytes[]",
          "name": "_datas",
          "type": "bytes[]"
        }
      ],
      "name": "batchExecute",
      "outputs": [],
      "stateMutability": "nonpayable",
      "type": "function"
    },
    {
      "inputs": [
        {
          "internalType": "uint256",
          "name": "_amountIn",
          "type": "uint256"
        }
      ],
      "name": "calcDepositOut",
      "outputs": [
        {
          "internalType": "uint256",
          "name": "",
          "type": "uint256"
        }
      ],
      "stateMutability": "view",
      "type": "function"
    },
    {
      "inputs": [],
      "name": "claimRewards",
      "outputs": [],
      "stateMutability": "nonpayable",
      "type": "function"
    },
    {
      "inputs": [],
      "name": "collectFees",
      "outputs": [
        {
          "internalType": "uint256",
          "name": "",
          "type": "uint256"
        }
      ],
      "stateMutability": "nonpayable",
      "type": "function"
    },
    {
      "inputs": [],
      "name": "collectLiquidityFees",
      "outputs": [
        {
          "internalType": "uint256",
          "name": "amount",
          "type": "uint256"
        }
      ],
      "stateMutability": "nonpayable",
      "type": "function"
    },
    {
      "inputs": [],
      "name": "currentPrincipal",
      "outputs": [
        {
          "internalType": "uint256",
          "name": "",
          "type": "uint256"
        }
      ],
      "stateMutability": "view",
      "type": "function"
    },
    {
      "inputs": [
        {
          "internalType": "uint256",
          "name": "_amount",
          "type": "uint256"
        }
      ],
      "name": "deposit",
      "outputs": [],
      "stateMutability": "nonpayable",
      "type": "function"
    },
    {
      "inputs": [
        {
          "internalType": "uint256",
          "name": "_amount",
          "type": "uint256"
        },
        {
          "internalType": "uint256",
          "name": "_deadline",
          "type": "uint256"
        },
        {
          "internalType": "uint8",
          "name": "_v",
          "type": "uint8"
        },
        {
          "internalType": "bytes32",
          "name": "_r",
          "type": "bytes32"
        },
        {
          "internalType": "bytes32",
          "name": "_s",
          "type": "bytes32"
        }
      ],
      "name": "depositWithPermit",
      "outputs": [],
      "stateMutability": "nonpayable",
      "type": "function"
    },
    {
      "inputs": [
        {
          "internalType": "address",
          "name": "_target",
          "type": "address"
        },
        {
          "internalType": "uint256",
          "name": "_value",
          "type": "uint256"
        },
        {
          "internalType": "bytes",
          "name": "_data",
          "type": "bytes"
        }
      ],
      "name": "execute",
      "outputs": [],
      "stateMutability": "nonpayable",
      "type": "function"
    },
    {
      "inputs": [],
      "name": "gov",
      "outputs": [
        {
          "internalType": "address",
          "name": "",
          "type": "address"
        }
      ],
      "stateMutability": "view",
      "type": "function"
    },
    {
      "inputs": [
        {
          "internalType": "contract IERC20",
          "name": "_steak",
          "type": "address"
        },
        {
          "internalType": "string",
          "name": "_symbol",
          "type": "string"
        },
        {
          "internalType": "address",
          "name": "_matic",
          "type": "address"
        },
        {
          "internalType": "address",
          "name": "_node",
          "type": "address"
        },
        {
          "internalType": "uint256",
          "name": "_protocolFee",
          "type": "uint256"
        },
        {
          "internalType": "uint256",
          "name": "_liquidityFee",
          "type": "uint256"
        },
        {
          "internalType": "contract ITenderToken",
          "name": "_tenderTokenTarget",
          "type": "address"
        },
        {
          "internalType": "contract TenderFarmFactory",
          "name": "_tenderFarmFactory",
          "type": "address"
        },
        {
          "internalType": "contract ITenderSwapFactory",
          "name": "_tenderSwapFactory",
          "type": "address"
        }
      ],
      "name": "initialize",
      "outputs": [],
      "stateMutability": "nonpayable",
      "type": "function"
    },
    {
      "inputs": [],
      "name": "liquidityFee",
      "outputs": [
        {
          "internalType": "uint256",
          "name": "",
          "type": "uint256"
        }
      ],
      "stateMutability": "view",
      "type": "function"
    },
    {
      "inputs": [],
      "name": "node",
      "outputs": [
        {
          "internalType": "address",
          "name": "",
          "type": "address"
        }
      ],
      "stateMutability": "view",
      "type": "function"
    },
    {
      "inputs": [],
      "name": "pendingFees",
      "outputs": [
        {
          "internalType": "uint256",
          "name": "",
          "type": "uint256"
        }
      ],
      "stateMutability": "view",
      "type": "function"
    },
    {
      "inputs": [],
      "name": "pendingLiquidityFees",
      "outputs": [
        {
          "internalType": "uint256",
          "name": "",
          "type": "uint256"
        }
      ],
      "stateMutability": "view",
      "type": "function"
    },
    {
      "inputs": [],
      "name": "protocolFee",
      "outputs": [
        {
          "internalType": "uint256",
          "name": "",
          "type": "uint256"
        }
      ],
      "stateMutability": "view",
      "type": "function"
    },
    {
      "inputs": [
        {
          "internalType": "address",
          "name": "_token",
          "type": "address"
        },
        {
          "internalType": "uint256",
          "name": "_value",
          "type": "uint256"
        },
        {
          "internalType": "uint256",
          "name": "_deadline",
          "type": "uint256"
        },
        {
          "internalType": "uint8",
          "name": "_v",
          "type": "uint8"
        },
        {
          "internalType": "bytes32",
          "name": "_r",
          "type": "bytes32"
        },
        {
          "internalType": "bytes32",
          "name": "_s",
          "type": "bytes32"
        }
      ],
      "name": "selfPermit",
      "outputs": [],
      "stateMutability": "payable",
      "type": "function"
    },
    {
      "inputs": [
        {
          "internalType": "address",
          "name": "_token",
          "type": "address"
        },
        {
          "internalType": "uint256",
          "name": "_value",
          "type": "uint256"
        },
        {
          "internalType": "uint256",
          "name": "_deadline",
          "type": "uint256"
        },
        {
          "internalType": "uint8",
          "name": "_v",
          "type": "uint8"
        },
        {
          "internalType": "bytes32",
          "name": "_r",
          "type": "bytes32"
        },
        {
          "internalType": "bytes32",
          "name": "_s",
          "type": "bytes32"
        }
      ],
      "name": "selfPermitIfNecessary",
      "outputs": [],
      "stateMutability": "payable",
      "type": "function"
    },
    {
      "inputs": [
        {
          "internalType": "address",
          "name": "_gov",
          "type": "address"
        }
      ],
      "name": "setGov",
      "outputs": [],
      "stateMutability": "nonpayable",
      "type": "function"
    },
    {
      "inputs": [
        {
          "internalType": "uint256",
          "name": "_liquidityFee",
          "type": "uint256"
        }
      ],
      "name": "setLiquidityFee",
      "outputs": [],
      "stateMutability": "nonpayable",
      "type": "function"
    },
    {
      "inputs": [
        {
          "internalType": "address",
          "name": "_node",
          "type": "address"
        }
      ],
      "name": "setNode",
      "outputs": [],
      "stateMutability": "nonpayable",
      "type": "function"
    },
    {
      "inputs": [
        {
          "internalType": "uint256",
          "name": "_protocolFee",
          "type": "uint256"
        }
      ],
      "name": "setProtocolFee",
      "outputs": [],
      "stateMutability": "nonpayable",
      "type": "function"
    },
    {
      "inputs": [
        {
          "internalType": "address",
          "name": "_stakingContract",
          "type": "address"
        }
      ],
      "name": "setStakingContract",
      "outputs": [],
      "stateMutability": "nonpayable",
      "type": "function"
    },
    {
      "inputs": [
        {
          "internalType": "contract IERC20",
          "name": "_steak",
          "type": "address"
        }
      ],
      "name": "setSteak",
      "outputs": [],
      "stateMutability": "nonpayable",
      "type": "function"
    },
    {
      "inputs": [
        {
          "internalType": "contract ITenderFarm",
          "name": "_tenderFarm",
          "type": "address"
        }
      ],
      "name": "setTenderFarm",
      "outputs": [],
      "stateMutability": "nonpayable",
      "type": "function"
    },
    {
      "inputs": [
        {
          "internalType": "address",
          "name": "_account",
          "type": "address"
        },
        {
          "internalType": "uint256",
          "name": "_amount",
          "type": "uint256"
        }
      ],
      "name": "stake",
      "outputs": [],
      "stateMutability": "nonpayable",
      "type": "function"
    },
    {
      "inputs": [],
      "name": "steak",
      "outputs": [
        {
          "internalType": "contract IERC20",
          "name": "",
          "type": "address"
        }
      ],
      "stateMutability": "view",
      "type": "function"
    },
    {
      "inputs": [],
      "name": "tenderFarm",
      "outputs": [
        {
          "internalType": "contract ITenderFarm",
          "name": "",
          "type": "address"
        }
      ],
      "stateMutability": "view",
      "type": "function"
    },
    {
      "inputs": [],
      "name": "tenderSwap",
      "outputs": [
        {
          "internalType": "contract ITenderSwap",
          "name": "",
          "type": "address"
        }
      ],
      "stateMutability": "view",
      "type": "function"
    },
    {
      "inputs": [],
      "name": "tenderToken",
      "outputs": [
        {
          "internalType": "contract ITenderToken",
          "name": "",
          "type": "address"
        }
      ],
      "stateMutability": "view",
      "type": "function"
    },
    {
      "inputs": [],
      "name": "totalStakedTokens",
      "outputs": [
        {
          "internalType": "uint256",
          "name": "",
          "type": "uint256"
        }
      ],
      "stateMutability": "view",
      "type": "function"
    },
    {
      "inputs": [
        {
          "internalType": "uint256",
          "name": "_amount",
          "type": "uint256"
        }
      ],
      "name": "unstake",
      "outputs": [
        {
          "internalType": "uint256",
          "name": "",
          "type": "uint256"
        }
      ],
      "stateMutability": "nonpayable",
      "type": "function"
    },
    {
      "inputs": [
        {
          "internalType": "uint256",
          "name": "_unstakeLockID",
          "type": "uint256"
        }
      ],
      "name": "withdraw",
      "outputs": [],
      "stateMutability": "nonpayable",
      "type": "function"
    }
  ],
  "transactionHash": "0x80ac373b4fde83765e997afbb203f0b7f761672aab68013689ccfcb1fc0ff67d",
  "args": [],
  "solcInputHash": "1677182534a0a4683dcf52379f10f0df",
  "bytecode": "0x608060405234801561001057600080fd5b50615069806100206000396000f3fe6080604052600436106101ee5760003560e01c80639dd373b91161010d578063c21d5ab7116100a0578063d70754ec1161006f578063d70754ec14610690578063ec6d80f6146106bb578063f3995c67146106e4578063f4d95a7114610700578063fbdfc9611461072b576101ee565b8063c21d5ab7146105f7578063c2e3140a14610620578063c87965721461063c578063cfad57a214610667576101ee565b8063b089af31116100dc578063b089af311461054f578063b0e21e8a1461057a578063b61d27f6146105a5578063b6b55f25146105ce576101ee565b80639dd373b9146104a9578063a26a546b146104d2578063adc9772e146104fd578063afef75d214610526576101ee565b8063372500ab116101855780636f190315116101545780636f190315146103ed578063787dce3d146104185780637cb0c2751461044157806398118cb41461047e576101ee565b8063372500ab146103575780633ae732591461036e5780634a970be71461039957806351c669c0146103c2576101ee565b80632d822160116101c15780632d8221601461029d5780632e17de78146102c85780632e1a7d4d14610305578063357bf15c1461032e576101ee565b8063077d97d7146101f357806312d43a511461021c578063224438d1146102475780632a777db214610272575b600080fd5b3480156101ff57600080fd5b5061021a600480360381019061021591906138eb565b610754565b005b34801561022857600080fd5b50610231610912565b60405161023e91906141c8565b60405180910390f35b34801561025357600080fd5b5061025c610938565b604051610269919061467e565b60405180910390f35b34801561027e57600080fd5b5061028761093e565b604051610294919061467e565b60405180910390f35b3480156102a957600080fd5b506102b2610944565b6040516102bf9190614363565b60405180910390f35b3480156102d457600080fd5b506102ef60048036038101906102ea9190613b68565b61096a565b6040516102fc919061467e565b60405180910390f35b34801561031157600080fd5b5061032c60048036038101906103279190613b68565b610ae4565b005b34801561033a57600080fd5b5061035560048036038101906103509190613b68565b610af1565b005b34801561036357600080fd5b5061036c610b8a565b005b34801561037a57600080fd5b50610383610c6a565b604051610390919061467e565b60405180910390f35b3480156103a557600080fd5b506103c060048036038101906103bb9190613bba565b610c79565b005b3480156103ce57600080fd5b506103d7610cb9565b6040516103e4919061467e565b60405180910390f35b3480156103f957600080fd5b50610402610cbf565b60405161040f91906142db565b60405180910390f35b34801561042457600080fd5b5061043f600480360381019061043a9190613b68565b610ce5565b005b34801561044d57600080fd5b5061046860048036038101906104639190613b68565b610d7e565b604051610475919061467e565b60405180910390f35b34801561048a57600080fd5b50610493610d90565b6040516104a0919061467e565b60405180910390f35b3480156104b557600080fd5b506104d060048036038101906104cb9190613791565b610d96565b005b3480156104de57600080fd5b506104e7610dfc565b6040516104f49190614348565b60405180910390f35b34801561050957600080fd5b50610524600480360381019061051f91906137ba565b610e22565b005b34801561053257600080fd5b5061054d600480360381019061054891906139b8565b610e8a565b005b34801561055b57600080fd5b50610564610f5d565b604051610571919061467e565b60405180910390f35b34801561058657600080fd5b5061058f61128b565b60405161059c919061467e565b60405180910390f35b3480156105b157600080fd5b506105cc60048036038101906105c791906137f6565b611291565b005b3480156105da57600080fd5b506105f560048036038101906105f09190613b68565b6112fd565b005b34801561060357600080fd5b5061061e60048036038101906106199190613791565b611539565b005b61063a60048036038101906106359190613862565b6116bd565b005b34801561064857600080fd5b50610651611777565b60405161065e919061467e565b60405180910390f35b34801561067357600080fd5b5061068e60048036038101906106899190613791565b6118b4565b005b34801561069c57600080fd5b506106a5611987565b6040516106b291906141c8565b60405180910390f35b3480156106c757600080fd5b506106e260048036038101906106dd91906139e1565b6119ad565b005b6106fe60048036038101906106f99190613862565b611a8f565b005b34801561070c57600080fd5b50610715611aa5565b604051610722919061432d565b60405180910390f35b34801561073757600080fd5b50610752600480360381019061074d9190613ac4565b611acb565b005b600a60009054906101000a900473ffffffffffffffffffffffffffffffffffffffff1673ffffffffffffffffffffffffffffffffffffffff163373ffffffffffffffffffffffffffffffffffffffff16146107ae57600080fd5b83839050868690501480156107c857508181905086869050145b610807576040517f08c379a00000000000000000000000000000000000000000000000000000000081526004016107fe9061451c565b60405180910390fd5b60005b86869050811015610909576108f6878783818110610851577f4e487b7100000000000000000000000000000000000000000000000000000000600052603260045260246000fd5b90506020020160208101906108669190613791565b86868481811061089f577f4e487b7100000000000000000000000000000000000000000000000000000000600052603260045260246000fd5b905060200201358585858181106108df577f4e487b7100000000000000000000000000000000000000000000000000000000600052603260045260246000fd5b90506020028101906108f191906146c2565b611b9e565b808061090190614a72565b91505061080a565b50505050505050565b600a60009054906101000a900473ffffffffffffffffffffffffffffffffffffffff1681565b60075481565b60085481565b600160009054906101000a900473ffffffffffffffffffffffffffffffffffffffff1681565b6000600a60009054906101000a900473ffffffffffffffffffffffffffffffffffffffff1673ffffffffffffffffffffffffffffffffffffffff163373ffffffffffffffffffffffffffffffffffffffff1614610ab057600160009054906101000a900473ffffffffffffffffffffffffffffffffffffffff1673ffffffffffffffffffffffffffffffffffffffff16639dc29fac33846040518363ffffffff1660e01b8152600401610a1e9291906142b2565b602060405180830381600087803b158015610a3857600080fd5b505af1158015610a4c573d6000803e3d6000fd5b505050506040513d601f19601f82011682018060405250810190610a70919061398f565b610aaf576040517f08c379a0000000000000000000000000000000000000000000000000000000008152600401610aa69061441c565b60405180910390fd5b5b610add33600460009054906101000a900473ffffffffffffffffffffffffffffffffffffffff1684611c5c565b9050919050565b610aee3382611f46565b50565b600a60009054906101000a900473ffffffffffffffffffffffffffffffffffffffff1673ffffffffffffffffffffffffffffffffffffffff163373ffffffffffffffffffffffffffffffffffffffff1614610b4b57600080fd5b806006819055507f6641a0d0a317e54d1b956ab0202883db13ef06b75584a6a017b1b3c796f990fa604051610b7f9061461c565b60405180910390a150565b610b926122b0565b610c68600460009054906101000a900473ffffffffffffffffffffffffffffffffffffffff16600060029054906101000a900473ffffffffffffffffffffffffffffffffffffffff1673ffffffffffffffffffffffffffffffffffffffff166370a08231306040518263ffffffff1660e01b8152600401610c1391906141c8565b60206040518083038186803b158015610c2b57600080fd5b505afa158015610c3f573d6000803e3d6000fd5b505050506040513d601f19601f82011682018060405250810190610c639190613b91565b612460565b565b6000610c746126da565b905090565b610ca9600060029054906101000a900473ffffffffffffffffffffffffffffffffffffffff1686868686866126e4565b610cb2856112fd565b5050505050565b60095481565b600060029054906101000a900473ffffffffffffffffffffffffffffffffffffffff1681565b600a60009054906101000a900473ffffffffffffffffffffffffffffffffffffffff1673ffffffffffffffffffffffffffffffffffffffff163373ffffffffffffffffffffffffffffffffffffffff1614610d3f57600080fd5b806005819055507f6641a0d0a317e54d1b956ab0202883db13ef06b75584a6a017b1b3c796f990fa604051610d73906145bc565b60405180910390a150565b6000610d8982612763565b9050919050565b60065481565b600a60009054906101000a900473ffffffffffffffffffffffffffffffffffffffff1673ffffffffffffffffffffffffffffffffffffffff163373ffffffffffffffffffffffffffffffffffffffff1614610df057600080fd5b610df98161276d565b50565b600360009054906101000a900473ffffffffffffffffffffffffffffffffffffffff1681565b600a60009054906101000a900473ffffffffffffffffffffffffffffffffffffffff1673ffffffffffffffffffffffffffffffffffffffff163373ffffffffffffffffffffffffffffffffffffffff1614610e7c57600080fd5b610e868282612460565b5050565b600a60009054906101000a900473ffffffffffffffffffffffffffffffffffffffff1673ffffffffffffffffffffffffffffffffffffffff163373ffffffffffffffffffffffffffffffffffffffff1614610ee457600080fd5b80600060026101000a81548173ffffffffffffffffffffffffffffffffffffffff021916908373ffffffffffffffffffffffffffffffffffffffff1602179055507f6641a0d0a317e54d1b956ab0202883db13ef06b75584a6a017b1b3c796f990fa604051610f529061455c565b60405180910390a150565b6000600a60009054906101000a900473ffffffffffffffffffffffffffffffffffffffff1673ffffffffffffffffffffffffffffffffffffffff163373ffffffffffffffffffffffffffffffffffffffff1614610fb957600080fd5b6000600260009054906101000a900473ffffffffffffffffffffffffffffffffffffffff1673ffffffffffffffffffffffffffffffffffffffff166304d3b7c46040518163ffffffff1660e01b815260040160206040518083038186803b15801561102357600080fd5b505afa158015611037573d6000803e3d6000fd5b505050506040513d601f19601f8201168201806040525081019061105b9190613b91565b141561106a5760009050611288565b6008549050600160009054906101000a900473ffffffffffffffffffffffffffffffffffffffff1673ffffffffffffffffffffffffffffffffffffffff166340c10f1930836040518363ffffffff1660e01b81526004016110cc9291906142b2565b602060405180830381600087803b1580156110e657600080fd5b505af11580156110fa573d6000803e3d6000fd5b505050506040513d601f19601f8201168201806040525081019061111e919061398f565b506111276127e6565b50600160009054906101000a900473ffffffffffffffffffffffffffffffffffffffff1673ffffffffffffffffffffffffffffffffffffffff1663095ea7b3600260009054906101000a900473ffffffffffffffffffffffffffffffffffffffff16836040518363ffffffff1660e01b81526004016111a79291906142b2565b602060405180830381600087803b1580156111c157600080fd5b505af11580156111d5573d6000803e3d6000fd5b505050506040513d601f19601f820116820180604052508101906111f9919061398f565b50600260009054906101000a900473ffffffffffffffffffffffffffffffffffffffff1673ffffffffffffffffffffffffffffffffffffffff1663beceed39826040518263ffffffff1660e01b8152600401611255919061467e565b600060405180830381600087803b15801561126f57600080fd5b505af1158015611283573d6000803e3d6000fd5b505050505b90565b60055481565b600a60009054906101000a900473ffffffffffffffffffffffffffffffffffffffff1673ffffffffffffffffffffffffffffffffffffffff163373ffffffffffffffffffffffffffffffffffffffff16146112eb57600080fd5b6112f784848484611b9e565b50505050565b60008111611340576040517f08c379a0000000000000000000000000000000000000000000000000000000008152600401611337906145dc565b60405180910390fd5b600061134b82612763565b9050600160009054906101000a900473ffffffffffffffffffffffffffffffffffffffff1673ffffffffffffffffffffffffffffffffffffffff166340c10f1933836040518363ffffffff1660e01b81526004016113aa9291906142b2565b602060405180830381600087803b1580156113c457600080fd5b505af11580156113d8573d6000803e3d6000fd5b505050506040513d601f19601f820116820180604052508101906113fc919061398f565b61143b576040517f08c379a00000000000000000000000000000000000000000000000000000000081526004016114329061449c565b60405180910390fd5b600060029054906101000a900473ffffffffffffffffffffffffffffffffffffffff1673ffffffffffffffffffffffffffffffffffffffff166323b872dd3330856040518463ffffffff1660e01b815260040161149a9392919061420c565b602060405180830381600087803b1580156114b457600080fd5b505af11580156114c8573d6000803e3d6000fd5b505050506040513d601f19601f820116820180604052508101906114ec919061398f565b61152b576040517f08c379a00000000000000000000000000000000000000000000000000000000081526004016115229061445c565b60405180910390fd5b611535338361284d565b5050565b600a60009054906101000a900473ffffffffffffffffffffffffffffffffffffffff1673ffffffffffffffffffffffffffffffffffffffff163373ffffffffffffffffffffffffffffffffffffffff161461159357600080fd5b600073ffffffffffffffffffffffffffffffffffffffff168173ffffffffffffffffffffffffffffffffffffffff161415611603576040517f08c379a00000000000000000000000000000000000000000000000000000000081526004016115fa906144fc565b60405180910390fd5b80600460006101000a81548173ffffffffffffffffffffffffffffffffffffffff021916908373ffffffffffffffffffffffffffffffffffffffff16021790555080600c60006101000a81548173ffffffffffffffffffffffffffffffffffffffff021916908373ffffffffffffffffffffffffffffffffffffffff1602179055507f6641a0d0a317e54d1b956ab0202883db13ef06b75584a6a017b1b3c796f990fa6040516116b29061459c565b60405180910390a150565b60008673ffffffffffffffffffffffffffffffffffffffff1663dd62ed3e33306040518363ffffffff1660e01b81526004016116fa9291906141e3565b60206040518083038186803b15801561171257600080fd5b505afa158015611726573d6000803e3d6000fd5b505050506040513d601f19601f8201168201806040525081019061174a9190613b91565b90508581101561176e5761176d878288611764919061483d565b878787876126e4565b5b50505050505050565b6000600a60009054906101000a900473ffffffffffffffffffffffffffffffffffffffff1673ffffffffffffffffffffffffffffffffffffffff163373ffffffffffffffffffffffffffffffffffffffff16146117d357600080fd5b600160009054906101000a900473ffffffffffffffffffffffffffffffffffffffff1673ffffffffffffffffffffffffffffffffffffffff166340c10f19600a60009054906101000a900473ffffffffffffffffffffffffffffffffffffffff166007546040518363ffffffff1660e01b81526004016118549291906142b2565b602060405180830381600087803b15801561186e57600080fd5b505af1158015611882573d6000803e3d6000fd5b505050506040513d601f19601f820116820180604052508101906118a6919061398f565b506118af6128b8565b905090565b600a60009054906101000a900473ffffffffffffffffffffffffffffffffffffffff1673ffffffffffffffffffffffffffffffffffffffff163373ffffffffffffffffffffffffffffffffffffffff161461190e57600080fd5b80600a60006101000a81548173ffffffffffffffffffffffffffffffffffffffff021916908373ffffffffffffffffffffffffffffffffffffffff1602179055507f6641a0d0a317e54d1b956ab0202883db13ef06b75584a6a017b1b3c796f990fa60405161197c9061457c565b60405180910390a150565b600460009054906101000a900473ffffffffffffffffffffffffffffffffffffffff1681565b611a018a8a8a8080601f016020809104026020016040519081016040528093929190818152602001838380828437600081840152601f19601f8201169050808301925050505050505088888888888861291f565b86600b60006101000a81548173ffffffffffffffffffffffffffffffffffffffff021916908373ffffffffffffffffffffffffffffffffffffffff16021790555085600c60006101000a81548173ffffffffffffffffffffffffffffffffffffffff021916908373ffffffffffffffffffffffffffffffffffffffff16021790555050505050505050505050565b611a9d8686868686866126e4565b505050505050565b600260009054906101000a900473ffffffffffffffffffffffffffffffffffffffff1681565b600a60009054906101000a900473ffffffffffffffffffffffffffffffffffffffff1673ffffffffffffffffffffffffffffffffffffffff163373ffffffffffffffffffffffffffffffffffffffff1614611b2557600080fd5b80600260006101000a81548173ffffffffffffffffffffffffffffffffffffffff021916908373ffffffffffffffffffffffffffffffffffffffff1602179055507f6641a0d0a317e54d1b956ab0202883db13ef06b75584a6a017b1b3c796f990fa604051611b93906145fc565b60405180910390a150565b6000808573ffffffffffffffffffffffffffffffffffffffff16858585604051611bc9929190614119565b60006040518083038185875af1925050503d8060008114611c06576040519150601f19603f3d011682016040523d82523d6000602084013e611c0b565b606091505b5091509150818190611c53576040517f08c379a0000000000000000000000000000000000000000000000000000000008152600401611c4a91906143b5565b60405180910390fd5b50505050505050565b60008082905060008490506000611c7282612eda565b90506000611c7f83612f7e565b9050600a60009054906101000a900473ffffffffffffffffffffffffffffffffffffffff1673ffffffffffffffffffffffffffffffffffffffff168873ffffffffffffffffffffffffffffffffffffffff1614611d1a5760008411611d19576040517f08c379a0000000000000000000000000000000000000000000000000000000008152600401611d10906145dc565b60405180910390fd5b5b6000841415611e0e5760008373ffffffffffffffffffffffffffffffffffffffff166370a08231306040518263ffffffff1660e01b8152600401611d5e91906141c8565b60206040518083038186803b158015611d7657600080fd5b505afa158015611d8a573d6000803e3d6000fd5b505050506040513d601f19601f82011682018060405250810190611dae9190613b91565b9050828282611dbd91906147e3565b611dc791906147b2565b945060008511611e0c576040517f08c379a0000000000000000000000000000000000000000000000000000000008152600401611e039061443c565b60405180910390fd5b505b8360096000828254611e20919061483d565b9250508190555060006001828487611e3891906147e3565b611e4291906147b2565b611e4c919061475c565b90508373ffffffffffffffffffffffffffffffffffffffff1663c83ec04d86836040518363ffffffff1660e01b8152600401611e89929190614699565b600060405180830381600087803b158015611ea357600080fd5b505af1158015611eb7573d6000803e3d6000fd5b50505050611ed18986600d61301a9092919063ffffffff16565b95508373ffffffffffffffffffffffffffffffffffffffff168973ffffffffffffffffffffffffffffffffffffffff167f18edd09e80386cd99df397e2e0d87d2bb259423eae08645e776321a36fe680ef8789604051611f32929190614699565b60405180910390a350505050509392505050565b611f5c8282600d6130d39092919063ffffffff16565b5060008060029054906101000a900473ffffffffffffffffffffffffffffffffffffffff1673ffffffffffffffffffffffffffffffffffffffff166370a08231306040518263ffffffff1660e01b8152600401611fb991906141c8565b60206040518083038186803b158015611fd157600080fd5b505afa158015611fe5573d6000803e3d6000fd5b505050506040513d601f19601f820116820180604052508101906120099190613b91565b9050600c60009054906101000a900473ffffffffffffffffffffffffffffffffffffffff1673ffffffffffffffffffffffffffffffffffffffff1663e97fddc2836040518263ffffffff1660e01b8152600401612066919061467e565b600060405180830381600087803b15801561208057600080fd5b505af1158015612094573d6000803e3d6000fd5b5050505060008060029054906101000a900473ffffffffffffffffffffffffffffffffffffffff1673ffffffffffffffffffffffffffffffffffffffff166370a08231306040518263ffffffff1660e01b81526004016120f491906141c8565b60206040518083038186803b15801561210c57600080fd5b505afa158015612120573d6000803e3d6000fd5b505050506040513d601f19601f820116820180604052508101906121449190613b91565b9050600082821015612157576000612164565b8282612163919061483d565b5b9050600081116121a9576040517f08c379a00000000000000000000000000000000000000000000000000000000081526004016121a0906145dc565b60405180910390fd5b600060029054906101000a900473ffffffffffffffffffffffffffffffffffffffff1673ffffffffffffffffffffffffffffffffffffffff1663a9059cbb86836040518363ffffffff1660e01b81526004016122069291906142b2565b602060405180830381600087803b15801561222057600080fd5b505af1158015612234573d6000803e3d6000fd5b505050506040513d601f19601f82011682018060405250810190612258919061398f565b508473ffffffffffffffffffffffffffffffffffffffff167ff279e6a1f5e320cca91135676d9cb6e44ca8a08c0b88342bcdb1144f6511b56882866040516122a1929190614699565b60405180910390a25050505050565b600c60009054906101000a900473ffffffffffffffffffffffffffffffffffffffff1673ffffffffffffffffffffffffffffffffffffffff16634f91440d6040518163ffffffff1660e01b8152600401600060405180830381600087803b15801561231a57600080fd5b505af192505050801561232b575060015b61233457612335565b5b6000600c60009054906101000a900473ffffffffffffffffffffffffffffffffffffffff1673ffffffffffffffffffffffffffffffffffffffff166370a08231306040518263ffffffff1660e01b815260040161239291906141c8565b60206040518083038186803b1580156123aa57600080fd5b505afa1580156123be573d6000803e3d6000fd5b505050506040513d601f19601f820116820180604052508101906123e29190613b91565b90506000612411600c60009054906101000a900473ffffffffffffffffffffffffffffffffffffffff16612eda565b61243c600c60009054906101000a900473ffffffffffffffffffffffffffffffffffffffff16612f7e565b8361244791906147e3565b61245191906147b2565b905061245c816131db565b5050565b6000819050600081141561247457506126d6565b600073ffffffffffffffffffffffffffffffffffffffff168373ffffffffffffffffffffffffffffffffffffffff1614156124af57506126d6565b6000600c60009054906101000a900473ffffffffffffffffffffffffffffffffffffffff169050600073ffffffffffffffffffffffffffffffffffffffff168473ffffffffffffffffffffffffffffffffffffffff161461250e578390505b600060029054906101000a900473ffffffffffffffffffffffffffffffffffffffff1673ffffffffffffffffffffffffffffffffffffffff1663095ea7b3600b60009054906101000a900473ffffffffffffffffffffffffffffffffffffffff16846040518363ffffffff1660e01b815260040161258d9291906142b2565b602060405180830381600087803b1580156125a757600080fd5b505af11580156125bb573d6000803e3d6000fd5b505050506040513d601f19601f820116820180604052508101906125df919061398f565b50600060016125ed83612f7e565b6125f684612eda565b8561260191906147e3565b61260b91906147b2565b612615919061483d565b90508173ffffffffffffffffffffffffffffffffffffffff16636ab1507184836040518363ffffffff1660e01b8152600401612652929190614699565b600060405180830381600087803b15801561266c57600080fd5b505af1158015612680573d6000803e3d6000fd5b505050508173ffffffffffffffffffffffffffffffffffffffff167febedb8b3c678666e7f36970bc8f57abf6d8fa2e828c0da91ea5b75bf68ed101a846040516126ca919061467e565b60405180910390a25050505b5050565b6000600954905090565b8573ffffffffffffffffffffffffffffffffffffffff1663d505accf333088888888886040518863ffffffff1660e01b81526004016127299796959493929190614243565b600060405180830381600087803b15801561274357600080fd5b505af1158015612757573d6000803e3d6000fd5b50505050505050505050565b6000819050919050565b80600b60006101000a81548173ffffffffffffffffffffffffffffffffffffffff021916908373ffffffffffffffffffffffffffffffffffffffff1602179055507f6641a0d0a317e54d1b956ab0202883db13ef06b75584a6a017b1b3c796f990fa6040516127db9061447c565b60405180910390a150565b600080600854905060006008819055508060096000828254612808919061475c565b925050819055507f1d8f4bab53e84801fc35b88b53df72a998fa29c92e6fc65d412c4677d0d88c628160405161283e919061467e565b60405180910390a18091505090565b806009600082825461285f919061475c565b925050819055508173ffffffffffffffffffffffffffffffffffffffff167fe1fffcc4923d04b559f4d29a8bfc6cda04eb5b0d3c460751c2402c5c5cc9109c826040516128ac919061467e565b60405180910390a25050565b6000806007549050600060078190555080600960008282546128da919061475c565b925050819055507f414d7d8eae12f648156e75499fc0a5a10aa84f2745c6f791b0453cb17f1e17fa81604051612910919061467e565b60405180910390a18091505090565b600060019054906101000a900460ff1680612945575060008054906101000a900460ff16155b612984576040517f08c379a000000000000000000000000000000000000000000000000000000000815260040161297b9061453c565b60405180910390fd5b60008060019054906101000a900460ff1615905080156129d4576001600060016101000a81548160ff02191690831515021790555060016000806101000a81548160ff0219169083151502179055505b88600060026101000a81548173ffffffffffffffffffffffffffffffffffffffff021916908373ffffffffffffffffffffffffffffffffffffffff16021790555086600460006101000a81548173ffffffffffffffffffffffffffffffffffffffff021916908373ffffffffffffffffffffffffffffffffffffffff160217905550856005819055508460068190555033600a60006101000a81548173ffffffffffffffffffffffffffffffffffffffff021916908373ffffffffffffffffffffffffffffffffffffffff1602179055506000612ab0856133fa565b9050600089604051602001612ac591906141a6565b60405160208183030381529060405290508173ffffffffffffffffffffffffffffffffffffffff1663077f224a8b8c306040518463ffffffff1660e01b8152600401612b13939291906143d7565b602060405180830381600087803b158015612b2d57600080fd5b505af1158015612b41573d6000803e3d6000fd5b505050506040513d601f19601f82011682018060405250810190612b65919061398f565b612ba4576040517f08c379a0000000000000000000000000000000000000000000000000000000008152600401612b9b9061463c565b60405180910390fd5b81600160006101000a81548173ffffffffffffffffffffffffffffffffffffffff021916908373ffffffffffffffffffffffffffffffffffffffff1602179055508373ffffffffffffffffffffffffffffffffffffffff1663a574175660405180608001604052808573ffffffffffffffffffffffffffffffffffffffff1681526020018e73ffffffffffffffffffffffffffffffffffffffff168152602001848e604051602001612c57929190614132565b6040516020818303038152906040528152602001848e604051602001612c7e92919061416c565b6040516020818303038152906040528152506040518263ffffffff1660e01b8152600401612cac919061465c565b602060405180830381600087803b158015612cc657600080fd5b505af1158015612cda573d6000803e3d6000fd5b505050506040513d601f19601f82011682018060405250810190612cfe9190613b16565b600360006101000a81548173ffffffffffffffffffffffffffffffffffffffff021916908373ffffffffffffffffffffffffffffffffffffffff1602179055508473ffffffffffffffffffffffffffffffffffffffff1663d9181cd3600360009054906101000a900473ffffffffffffffffffffffffffffffffffffffff1673ffffffffffffffffffffffffffffffffffffffff16635fcbd2856040518163ffffffff1660e01b815260040160206040518083038186803b158015612dc257600080fd5b505afa158015612dd6573d6000803e3d6000fd5b505050506040513d601f19601f82011682018060405250810190612dfa9190613b3f565b84306040518463ffffffff1660e01b8152600401612e1a939291906142f6565b602060405180830381600087803b158015612e3457600080fd5b505af1158015612e48573d6000803e3d6000fd5b505050506040513d601f19601f82011682018060405250810190612e6c9190613aed565b600260006101000a81548173ffffffffffffffffffffffffffffffffffffffff021916908373ffffffffffffffffffffffffffffffffffffffff16021790555050508015612ecf5760008060016101000a81548160ff0219169083151502179055505b505050505050505050565b600060088273ffffffffffffffffffffffffffffffffffffffff16635c5f7dae6040518163ffffffff1660e01b815260040160206040518083038186803b158015612f2457600080fd5b505afa158015612f38573d6000803e3d6000fd5b505050506040513d601f19601f82011682018060405250810190612f5c9190613b91565b10612f74576c01431e0fae6d7217caa0000000612f77565b60645b9050919050565b6000808273ffffffffffffffffffffffffffffffffffffffff16633ba0b9a96040518163ffffffff1660e01b815260040160206040518083038186803b158015612fc757600080fd5b505afa158015612fdb573d6000803e3d6000fd5b505050506040513d601f19601f82011682018060405250810190612fff9190613b91565b90506000811461300f5780613012565b60015b915050919050565b600083600101549050600181613030919061475c565b846001018190555060405180604001604052808381526020018473ffffffffffffffffffffffffffffffffffffffff168152508460000160008381526020019081526020016000206000820151816000015560208201518160010160006101000a81548173ffffffffffffffffffffffffffffffffffffffff021916908373ffffffffffffffffffffffffffffffffffffffff1602179055509050509392505050565b600080846000016000848152602001908152602001600020905060008160010160009054906101000a900473ffffffffffffffffffffffffffffffffffffffff169050816000015492508473ffffffffffffffffffffffffffffffffffffffff168173ffffffffffffffffffffffffffffffffffffffff161461318b576040517f08c379a0000000000000000000000000000000000000000000000000000000008152600401613182906144bc565b60405180910390fd5b8560000160008581526020019081526020016000206000808201600090556001820160006101000a81549073ffffffffffffffffffffffffffffffffffffffff0219169055505050509392505050565b600060095490506000613297600060029054906101000a900473ffffffffffffffffffffffffffffffffffffffff1673ffffffffffffffffffffffffffffffffffffffff166370a08231306040518263ffffffff1660e01b815260040161324291906141c8565b60206040518083038186803b15801561325a57600080fd5b505afa15801561326e573d6000803e3d6000fd5b505050506040513d601f19601f820116820180604052508101906132929190613b91565b612763565b9050600060085460075483866132ad919061475c565b6132b7919061483d565b6132c1919061483d565b905082811161332857806009819055507f78c13bf6a7fae25f1085d594e546d7a97cb66a55bc9733c7ea78236c452663ec81846132fe919061483d565b61330790614abb565b82856040516133189392919061437e565b60405180910390a15050506133f7565b60008382613336919061483d565b90506000613346826005546134cf565b9050806007600082825461335a919061475c565b92505081905550600061336f836006546134cf565b90508060086000828254613383919061475c565b92505081905550808285613397919061483d565b6133a1919061483d565b9350836009819055507f78c13bf6a7fae25f1085d594e546d7a97cb66a55bc9733c7ea78236c452663ec86856133d7919061483d565b85886040516133e89392919061437e565b60405180910390a15050505050505b50565b60006040517f3d602d80600a3d3981f3363d3d373d3d3d363d7300000000000000000000000081528260601b60148201527f5af43d82803e903d91602b57fd5bf3000000000000000000000000000000000060288201526037816000f0915050600073ffffffffffffffffffffffffffffffffffffffff168173ffffffffffffffffffffffffffffffffffffffff1614156134ca576040517f08c379a00000000000000000000000000000000000000000000000000000000081526004016134c1906144dc565b60405180910390fd5b919050565b6000683635c9adc5dea0000082846134e791906147e3565b6134f191906147b2565b905092915050565b60008135905061350881614f1f565b92915050565b60008083601f84011261352057600080fd5b8235905067ffffffffffffffff81111561353957600080fd5b60208301915083602082028301111561355157600080fd5b9250929050565b60008083601f84011261356a57600080fd5b8235905067ffffffffffffffff81111561358357600080fd5b60208301915083602082028301111561359b57600080fd5b9250929050565b60008083601f8401126135b457600080fd5b8235905067ffffffffffffffff8111156135cd57600080fd5b6020830191508360208202830111156135e557600080fd5b9250929050565b6000815190506135fb81614f36565b92915050565b60008135905061361081614f4d565b92915050565b60008083601f84011261362857600080fd5b8235905067ffffffffffffffff81111561364157600080fd5b60208301915083600182028301111561365957600080fd5b9250929050565b60008135905061366f81614f64565b92915050565b60008135905061368481614f7b565b92915050565b60008151905061369981614f7b565b92915050565b6000813590506136ae81614f92565b92915050565b6000815190506136c381614fa9565b92915050565b6000813590506136d881614fc0565b92915050565b6000815190506136ed81614fd7565b92915050565b60008135905061370281614fee565b92915050565b60008083601f84011261371a57600080fd5b8235905067ffffffffffffffff81111561373357600080fd5b60208301915083600182028301111561374b57600080fd5b9250929050565b60008135905061376181615005565b92915050565b60008151905061377681615005565b92915050565b60008135905061378b8161501c565b92915050565b6000602082840312156137a357600080fd5b60006137b1848285016134f9565b91505092915050565b600080604083850312156137cd57600080fd5b60006137db858286016134f9565b92505060206137ec85828601613752565b9150509250929050565b6000806000806060858703121561380c57600080fd5b600061381a878288016134f9565b945050602061382b87828801613752565b935050604085013567ffffffffffffffff81111561384857600080fd5b61385487828801613616565b925092505092959194509250565b60008060008060008060c0878903121561387b57600080fd5b600061388989828a016134f9565b965050602061389a89828a01613752565b95505060406138ab89828a01613752565b94505060606138bc89828a0161377c565b93505060806138cd89828a01613601565b92505060a06138de89828a01613601565b9150509295509295509295565b6000806000806000806060878903121561390457600080fd5b600087013567ffffffffffffffff81111561391e57600080fd5b61392a89828a0161350e565b9650965050602087013567ffffffffffffffff81111561394957600080fd5b61395589828a016135a2565b9450945050604087013567ffffffffffffffff81111561397457600080fd5b61398089828a01613558565b92509250509295509295509295565b6000602082840312156139a157600080fd5b60006139af848285016135ec565b91505092915050565b6000602082840312156139ca57600080fd5b60006139d884828501613660565b91505092915050565b6000806000806000806000806000806101208b8d031215613a0157600080fd5b6000613a0f8d828e01613660565b9a505060208b013567ffffffffffffffff811115613a2c57600080fd5b613a388d828e01613708565b99509950506040613a4b8d828e016134f9565b9750506060613a5c8d828e016134f9565b9650506080613a6d8d828e01613752565b95505060a0613a7e8d828e01613752565b94505060c0613a8f8d828e016136c9565b93505060e0613aa08d828e016136f3565b925050610100613ab28d828e0161369f565b9150509295989b9194979a5092959850565b600060208284031215613ad657600080fd5b6000613ae484828501613675565b91505092915050565b600060208284031215613aff57600080fd5b6000613b0d8482850161368a565b91505092915050565b600060208284031215613b2857600080fd5b6000613b36848285016136b4565b91505092915050565b600060208284031215613b5157600080fd5b6000613b5f848285016136de565b91505092915050565b600060208284031215613b7a57600080fd5b6000613b8884828501613752565b91505092915050565b600060208284031215613ba357600080fd5b6000613bb184828501613767565b91505092915050565b600080600080600060a08688031215613bd257600080fd5b6000613be088828901613752565b9550506020613bf188828901613752565b9450506040613c028882890161377c565b9350506060613c1388828901613601565b9250506080613c2488828901613601565b9150509295509295909350565b613c3a81614871565b82525050565b613c498161488f565b82525050565b6000613c5b8385614724565b9350613c68838584614a30565b82840190509392505050565b613c7d81614958565b82525050565b613c8c81614958565b82525050565b613c9b8161497c565b82525050565b613caa816149a0565b82525050565b613cb9816149c4565b82525050565b613cc8816149e8565b82525050565b613cd781614a0c565b82525050565b613ce681614917565b82525050565b6000613cf782614719565b613d01818561472f565b9350613d11818560208601614a3f565b613d1a81614b62565b840191505092915050565b6000613d3082614719565b613d3a8185614740565b9350613d4a818560208601614a3f565b613d5381614b62565b840191505092915050565b6000613d6982614719565b613d738185614751565b9350613d83818560208601614a3f565b80840191505092915050565b6000613d9c601283614740565b9150613da782614b73565b602082019050919050565b6000613dbf600a83614740565b9150613dca82614b9c565b602082019050919050565b6000613de2600b83614751565b9150613ded82614bc5565b600b82019050919050565b6000613e05601983614740565b9150613e1082614bee565b602082019050919050565b6000613e28601083614740565b9150613e3382614c17565b602082019050919050565b6000613e4b601283614740565b9150613e5682614c40565b602082019050919050565b6000613e6e601183614740565b9150613e7982614c69565b602082019050919050565b6000613e91601683614740565b9150613e9c82614c92565b602082019050919050565b6000613eb4600c83614740565b9150613ebf82614cbb565b602082019050919050565b6000613ed7601183614740565b9150613ee282614ce4565b602082019050919050565b6000613efa602e83614740565b9150613f0582614d0d565b604082019050919050565b6000613f1d600583614740565b9150613f2882614d5c565b602082019050919050565b6000613f40600383614740565b9150613f4b82614d85565b602082019050919050565b6000613f63600483614740565b9150613f6e82614dae565b602082019050919050565b6000613f86600c83614740565b9150613f9182614dd7565b602082019050919050565b6000613fa9600b83614740565b9150613fb482614e00565b602082019050919050565b6000613fcc600583614751565b9150613fd782614e29565b600582019050919050565b6000613fef600183614751565b9150613ffa82614e52565b600182019050919050565b6000614012600183614751565b915061401d82614e7b565b600182019050919050565b6000614035600a83614740565b915061404082614ea4565b602082019050919050565b6000614058600d83614740565b915061406382614ecd565b602082019050919050565b600061407b601583614740565b915061408682614ef6565b602082019050919050565b60006080830160008301516140a96000860182613c74565b5060208301516140bc6020860182613c74565b50604083015184820360408601526140d48282613cec565b915050606083015184820360608601526140ee8282613cec565b9150508091505092915050565b61410481614941565b82525050565b6141138161494b565b82525050565b6000614126828486613c4f565b91508190509392505050565b600061413e8285613d5e565b915061414982614005565b91506141558284613d5e565b915061416082613dd5565b91508190509392505050565b60006141788285613d5e565b915061418382614005565b915061418f8284613d5e565b915061419a82613fbf565b91508190509392505050565b60006141b182613fe2565b91506141bd8284613d5e565b915081905092915050565b60006020820190506141dd6000830184613c31565b92915050565b60006040820190506141f86000830185613c31565b6142056020830184613c31565b9392505050565b60006060820190506142216000830186613c31565b61422e6020830185613c31565b61423b60408301846140fb565b949350505050565b600060e082019050614258600083018a613c31565b6142656020830189613c31565b61427260408301886140fb565b61427f60608301876140fb565b61428c608083018661410a565b61429960a0830185613c40565b6142a660c0830184613c40565b98975050505050505050565b60006040820190506142c76000830185613c31565b6142d460208301846140fb565b9392505050565b60006020820190506142f06000830184613c83565b92915050565b600060608201905061430b6000830186613c83565b6143186020830185613cb0565b6143256040830184613cbf565b949350505050565b60006020820190506143426000830184613c92565b92915050565b600060208201905061435d6000830184613ca1565b92915050565b60006020820190506143786000830184613cb0565b92915050565b60006060820190506143936000830186613cdd565b6143a060208301856140fb565b6143ad60408301846140fb565b949350505050565b600060208201905081810360008301526143cf8184613d25565b905092915050565b600060608201905081810360008301526143f18186613d25565b905081810360208301526144058185613d25565b90506144146040830184613cce565b949350505050565b6000602082019050818103600083015261443581613d8f565b9050919050565b6000602082019050818103600083015261445581613db2565b9050919050565b6000602082019050818103600083015261447581613df8565b9050919050565b6000602082019050818103600083015261449581613e1b565b9050919050565b600060208201905081810360008301526144b581613e3e565b9050919050565b600060208201905081810360008301526144d581613e61565b9050919050565b600060208201905081810360008301526144f581613e84565b9050919050565b6000602082019050818103600083015261451581613ea7565b9050919050565b6000602082019050818103600083015261453581613eca565b9050919050565b6000602082019050818103600083015261455581613eed565b9050919050565b6000602082019050818103600083015261457581613f10565b9050919050565b6000602082019050818103600083015261459581613f33565b9050919050565b600060208201905081810360008301526145b581613f56565b9050919050565b600060208201905081810360008301526145d581613f79565b9050919050565b600060208201905081810360008301526145f581613f9c565b9050919050565b6000602082019050818103600083015261461581614028565b9050919050565b600060208201905081810360008301526146358161404b565b9050919050565b600060208201905081810360008301526146558161406e565b9050919050565b600060208201905081810360008301526146768184614091565b905092915050565b600060208201905061469360008301846140fb565b92915050565b60006040820190506146ae60008301856140fb565b6146bb60208301846140fb565b9392505050565b600080833560016020038436030381126146db57600080fd5b80840192508235915067ffffffffffffffff8211156146f957600080fd5b60208301925060018202360383131561471157600080fd5b509250929050565b600081519050919050565b600081905092915050565b600082825260208201905092915050565b600082825260208201905092915050565b600081905092915050565b600061476782614941565b915061477283614941565b9250827fffffffffffffffffffffffffffffffffffffffffffffffffffffffffffffffff038211156147a7576147a6614b04565b5b828201905092915050565b60006147bd82614941565b91506147c883614941565b9250826147d8576147d7614b33565b5b828204905092915050565b60006147ee82614941565b91506147f983614941565b9250817fffffffffffffffffffffffffffffffffffffffffffffffffffffffffffffffff048311821515161561483257614831614b04565b5b828202905092915050565b600061484882614941565b915061485383614941565b92508282101561486657614865614b04565b5b828203905092915050565b600061487c82614921565b9050919050565b60008115159050919050565b6000819050919050565b60006148a482614871565b9050919050565b60006148b682614871565b9050919050565b60006148c882614871565b9050919050565b60006148da82614871565b9050919050565b60006148ec82614871565b9050919050565b60006148fe82614871565b9050919050565b600061491082614871565b9050919050565b6000819050919050565b600073ffffffffffffffffffffffffffffffffffffffff82169050919050565b6000819050919050565b600060ff82169050919050565b60006149638261496a565b9050919050565b600061497582614921565b9050919050565b60006149878261498e565b9050919050565b600061499982614921565b9050919050565b60006149ab826149b2565b9050919050565b60006149bd82614921565b9050919050565b60006149cf826149d6565b9050919050565b60006149e182614921565b9050919050565b60006149f3826149fa565b9050919050565b6000614a0582614921565b9050919050565b6000614a1782614a1e565b9050919050565b6000614a2982614921565b9050919050565b82818337600083830152505050565b60005b83811015614a5d578082015181840152602081019050614a42565b83811115614a6c576000848401525b50505050565b6000614a7d82614941565b91507fffffffffffffffffffffffffffffffffffffffffffffffffffffffffffffffff821415614ab057614aaf614b04565b5b600182019050919050565b6000614ac682614917565b91507f8000000000000000000000000000000000000000000000000000000000000000821415614af957614af8614b04565b5b816000039050919050565b7f4e487b7100000000000000000000000000000000000000000000000000000000600052601160045260246000fd5b7f4e487b7100000000000000000000000000000000000000000000000000000000600052601260045260246000fd5b6000601f19601f8301169050919050565b7f54454e4445525f4255524e5f4641494c45440000000000000000000000000000600082015250565b7f5a45524f5f5354414b4500000000000000000000000000000000000000000000600082015250565b7f205377617020546f6b656e000000000000000000000000000000000000000000600082015250565b7f535445414b5f5452414e5346455246524f4d5f4641494c454400000000000000600082015250565b7f5354414b494e475f434f4e545241435400000000000000000000000000000000600082015250565b7f54454e4445525f4d494e545f4641494c45440000000000000000000000000000600082015250565b7f4143434f554e545f4d4953544d41544348000000000000000000000000000000600082015250565b7f455243313136373a20637265617465206661696c656400000000000000000000600082015250565b7f5a45524f5f414444524553530000000000000000000000000000000000000000600082015250565b7f494e56414c49445f415247554d454e5453000000000000000000000000000000600082015250565b7f496e697469616c697a61626c653a20636f6e747261637420697320616c72656160008201527f647920696e697469616c697a6564000000000000000000000000000000000000602082015250565b7f535445414b000000000000000000000000000000000000000000000000000000600082015250565b7f474f560000000000000000000000000000000000000000000000000000000000600082015250565b7f4e4f444500000000000000000000000000000000000000000000000000000000600082015250565b7f50524f544f434f4c5f4645450000000000000000000000000000000000000000600082015250565b7f5a45524f5f414d4f554e54000000000000000000000000000000000000000000600082015250565b7f2d53574150000000000000000000000000000000000000000000000000000000600082015250565b7f7400000000000000000000000000000000000000000000000000000000000000600082015250565b7f2d00000000000000000000000000000000000000000000000000000000000000600082015250565b7f54454e4445524641524d00000000000000000000000000000000000000000000600082015250565b7f4c49515549444954595f46454500000000000000000000000000000000000000600082015250565b7f4641494c5f494e49545f54454e444552544f4b454e0000000000000000000000600082015250565b614f2881614871565b8114614f3357600080fd5b50565b614f3f81614883565b8114614f4a57600080fd5b50565b614f568161488f565b8114614f6157600080fd5b50565b614f6d81614899565b8114614f7857600080fd5b50565b614f84816148ab565b8114614f8f57600080fd5b50565b614f9b816148bd565b8114614fa657600080fd5b50565b614fb2816148cf565b8114614fbd57600080fd5b50565b614fc9816148e1565b8114614fd457600080fd5b50565b614fe0816148f3565b8114614feb57600080fd5b50565b614ff781614905565b811461500257600080fd5b50565b61500e81614941565b811461501957600080fd5b50565b6150258161494b565b811461503057600080fd5b5056fea2646970667358221220a3fcc9d41a96545a674565d244f376af3ba0d517ec7981ee8cdfc44819ef3cab64736f6c63430008040033",
  "devdoc": {
    "kind": "dev",
    "methods": {
      "batchExecute(address[],uint256[],bytes[])": {
        "details": "Every target to its value, data via it's corresponding index.only callable by owner(gov).",
        "params": {
          "_datas": "array of call datas - check ethers.interface.encodeFunctionData()",
          "_targets": "array of target addresses for the contract call",
          "_values": "array of ether values to be transeffered with the transactions"
        }
      },
      "calcDepositOut(uint256)": {
        "details": "used by controller to calculate tokens to be minted before depositing.to be used when there a delegation tax is deducted, for eg. in Graph.",
        "returns": {
          "_0": "number of tokens staked for `amountIn`."
        }
      },
      "collectFees()": {
        "details": "Resets pendingFees.Fees claimed are added to total staked.",
        "returns": {
          "_0": "Amount of protocol fees collected"
        }
      },
      "collectLiquidityFees()": {
        "details": "Resets pendingFees.Fees claimed are added to total staked.",
        "returns": {
          "amount": "Amount of liquidity fees collected"
        }
      },
      "deposit(uint256)": {
        "details": "doesn't actually stakes the tokens but aggregates the balance in the tenderizer awaiting to be staked.requires '_amount' to be approved by '_from'.",
        "params": {
          "_amount": "amount deposited"
        }
      },
      "depositWithPermit(uint256,uint256,uint8,bytes32,bytes32)": {
        "details": "doesn't actually stakes the tokens but aggregates the balance in the tenderizer awaiting to be staked.requires '_amount' to be approved by '_from'.",
        "params": {
          "_amount": "amount deposited",
          "_deadline": "deadline for the permit",
          "_r": "from ECDSA signature",
          "_s": "from ECDSA signature",
          "_v": "from ECDSA signature"
        }
      },
      "execute(address,uint256,bytes)": {
        "details": "only callable by owner(gov).",
        "params": {
          "_data": "call data - check ethers.interface.encodeFunctionData()",
          "_target": "target address for the contract call",
          "_value": "ether value to be transeffered with the transaction"
        }
      },
      "selfPermit(address,uint256,uint256,uint8,bytes32,bytes32)": {
        "details": "The `owner` is always msg.sender and the `spender` is always address(this).",
        "params": {
          "_deadline": "A timestamp, the current blocktime must be less than or equal to this timestamp",
          "_r": "Must produce valid secp256k1 signature from the holder along with `v` and `s`",
          "_s": "Must produce valid secp256k1 signature from the holder along with `r` and `v`",
          "_token": "The address of the token spent",
          "_v": "Must produce valid secp256k1 signature from the holder along with `r` and `s`",
          "_value": "The amount that can be spent of token"
        }
      },
      "selfPermitIfNecessary(address,uint256,uint256,uint8,bytes32,bytes32)": {
        "details": "The `owner` is always msg.sender and the `spender` is always address(this). Can be used instead of #selfPermit to prevent calls from failing due to a frontrun of a call to #selfPermit",
        "params": {
          "_deadline": "A timestamp, the current blocktime must be less than or equal to this timestamp",
          "_r": "Must produce valid secp256k1 signature from the holder along with `v` and `s`",
          "_s": "Must produce valid secp256k1 signature from the holder along with `r` and `v`",
          "_token": "The address of the token spent",
          "_v": "Must produce valid secp256k1 signature from the holder along with `r` and `s`",
          "_value": "The amount that can be spent of token"
        }
      },
      "stake(address,uint256)": {
        "details": "If '_node' is not specified, stake towards the default address.If '_amount' is 0, stake the entire current token balance of the Tenderizer.Only callable by Gov.",
        "params": {
          "_amount": "amount to stake",
          "_node": "account to stake to in the underlying protocol"
        }
      },
      "totalStakedTokens()": {
        "returns": {
          "_0": "total amount staked by this Tenderizer"
        }
      },
      "unstake(uint256)": {
        "details": "unstake from the default address.If '_amount' is 0, unstake the entire amount staked towards _account.",
        "params": {
          "_amount": "amount to unstake"
        },
        "returns": {
          "_0": "unstake lockID generated for unstake"
        }
      },
      "withdraw(uint256)": {
        "details": "If '_amount' isn't specified all unstake tokens by '_account' will be withdrawn.Requires '_account' to have unstaked prior to calling withdraw.",
        "params": {
          "_unstakeLockID": "ID for the lock to request the withdraw for"
        }
      }
    },
    "version": 1
  },
  "userdoc": {
    "events": {
      "Deposit(address,uint256)": {
        "notice": "Deposit gets emitted when an accounts deposits underlying tokens."
      },
      "GovernanceUpdate(string)": {
        "notice": "GovernanceUpdate gets emitted when a parameter on the Tenderizer gets updated."
      },
      "LiquidityFeeCollected(uint256)": {
        "notice": "LiquidityFeeCollected gets emitted when liquidity provider fees are moved to the TenderFarm."
      },
      "ProtocolFeeCollected(uint256)": {
        "notice": "ProtocolFeeCollected gets emitted when the treasury claims its outstanding protocol fees."
      },
      "RewardsClaimed(int256,uint256,uint256)": {
        "notice": "RewardsClaimed gets emitted when the Tenderizer processes staking rewards (or slashing) from the underlying protocol."
      },
      "Stake(address,uint256)": {
        "notice": "Stake gets emitted when funds are staked/delegated from the Tenderizer contract into the underlying protocol."
      },
      "Unstake(address,address,uint256,uint256)": {
        "notice": "Unstake gets emitted when an account burns TenderTokens to unlock tokens staked through the Tenderizer"
      },
      "Withdraw(address,uint256,uint256)": {
        "notice": "Withdraw gets emitted when an account withdraws tokens that have been succesfully unstaked and thus unlocked for withdrawal."
      }
    },
    "kind": "user",
    "methods": {
      "batchExecute(address[],uint256[],bytes[])": {
        "notice": "Exectutes a batch of transaction on behalf of the controller."
      },
      "calcDepositOut(uint256)": {
        "notice": "Returns the number of tenderTokens to be minted for amountIn deposit."
      },
      "claimRewards()": {
        "notice": "Compound all the rewards and new deposits. Claim staking rewards and earned fees for the underlying protocol and stake any leftover token balance. Process Tender protocol fees if revenue is positive."
      },
      "collectFees()": {
        "notice": "Collect fees pulls any pending governance fees from the Tenderizer to the governance treasury."
      },
      "collectLiquidityFees()": {
        "notice": "Collect Liquidity fees pulls any pending LP fees from the Tenderizer to TenderFarm."
      },
      "deposit(uint256)": {
        "notice": "Deposit tokens in Tenderizer."
      },
      "depositWithPermit(uint256,uint256,uint8,bytes32,bytes32)": {
        "notice": "Deposit tokens in Tenderizer with permit."
      },
      "execute(address,uint256,bytes)": {
        "notice": "Exectutes a transaction on behalf of the controller."
      },
      "pendingFees()": {
        "notice": "Returns the amount of pending protocool fees since last claiming.."
      },
      "pendingLiquidityFees()": {
        "notice": "Returns the amount of pending liquidity provider fees since last claiming."
      },
      "selfPermit(address,uint256,uint256,uint8,bytes32,bytes32)": {
        "notice": "Permits this contract to spend a given token from `msg.sender`"
      },
      "selfPermitIfNecessary(address,uint256,uint256,uint8,bytes32,bytes32)": {
        "notice": "Permits this contract to spend a given token from `msg.sender`"
      },
      "stake(address,uint256)": {
        "notice": "Stake '_amount' of tokens to '_node'."
      },
      "totalStakedTokens()": {
        "notice": "Total Staked Tokens returns the total amount of underlying tokens staked by this Tenderizer."
      },
      "unstake(uint256)": {
        "notice": "Unstake '_amount' of tokens from '_account'."
      },
      "withdraw(uint256)": {
        "notice": "Withdraw '_amount' of tokens previously unstaked by '_account'."
      }
    },
    "version": 1
  },
  "storageLayout": {
    "storage": [
      {
        "astId": 1886,
        "contract": "contracts/tenderizer/integrations/matic/Matic.sol:Matic",
        "label": "_initialized",
        "offset": 0,
        "slot": "0",
        "type": "t_bool"
      },
      {
        "astId": 1889,
        "contract": "contracts/tenderizer/integrations/matic/Matic.sol:Matic",
        "label": "_initializing",
        "offset": 1,
        "slot": "0",
        "type": "t_bool"
      },
      {
        "astId": 2891,
        "contract": "contracts/tenderizer/integrations/matic/Matic.sol:Matic",
        "label": "steak",
        "offset": 2,
        "slot": "0",
        "type": "t_contract(IERC20)2004"
      },
      {
        "astId": 2894,
        "contract": "contracts/tenderizer/integrations/matic/Matic.sol:Matic",
        "label": "tenderToken",
        "offset": 0,
        "slot": "1",
        "type": "t_contract(ITenderToken)7388"
      },
      {
        "astId": 2897,
        "contract": "contracts/tenderizer/integrations/matic/Matic.sol:Matic",
        "label": "tenderFarm",
        "offset": 0,
        "slot": "2",
        "type": "t_contract(ITenderFarm)2571"
      },
      {
        "astId": 2900,
        "contract": "contracts/tenderizer/integrations/matic/Matic.sol:Matic",
        "label": "tenderSwap",
        "offset": 0,
        "slot": "3",
        "type": "t_contract(ITenderSwap)7003"
      },
      {
        "astId": 2902,
        "contract": "contracts/tenderizer/integrations/matic/Matic.sol:Matic",
        "label": "node",
        "offset": 0,
        "slot": "4",
        "type": "t_address"
      },
      {
        "astId": 2904,
        "contract": "contracts/tenderizer/integrations/matic/Matic.sol:Matic",
        "label": "protocolFee",
        "offset": 0,
        "slot": "5",
        "type": "t_uint256"
      },
      {
        "astId": 2906,
        "contract": "contracts/tenderizer/integrations/matic/Matic.sol:Matic",
        "label": "liquidityFee",
        "offset": 0,
        "slot": "6",
        "type": "t_uint256"
      },
      {
        "astId": 2909,
        "contract": "contracts/tenderizer/integrations/matic/Matic.sol:Matic",
        "label": "pendingFees",
        "offset": 0,
        "slot": "7",
        "type": "t_uint256"
      },
      {
        "astId": 2912,
        "contract": "contracts/tenderizer/integrations/matic/Matic.sol:Matic",
        "label": "pendingLiquidityFees",
        "offset": 0,
        "slot": "8",
        "type": "t_uint256"
      },
      {
        "astId": 2914,
        "contract": "contracts/tenderizer/integrations/matic/Matic.sol:Matic",
        "label": "currentPrincipal",
        "offset": 0,
        "slot": "9",
        "type": "t_uint256"
      },
      {
        "astId": 2916,
        "contract": "contracts/tenderizer/integrations/matic/Matic.sol:Matic",
        "label": "gov",
        "offset": 0,
        "slot": "10",
        "type": "t_address"
      },
      {
        "astId": 6194,
        "contract": "contracts/tenderizer/integrations/matic/Matic.sol:Matic",
        "label": "maticStakeManager",
        "offset": 0,
        "slot": "11",
        "type": "t_address"
      },
      {
        "astId": 6197,
        "contract": "contracts/tenderizer/integrations/matic/Matic.sol:Matic",
        "label": "matic",
        "offset": 0,
        "slot": "12",
        "type": "t_contract(IMatic)6169"
      },
      {
        "astId": 6200,
        "contract": "contracts/tenderizer/integrations/matic/Matic.sol:Matic",
        "label": "withdrawLocks",
        "offset": 0,
        "slot": "13",
        "type": "t_struct(Locks)3791_storage"
      }
    ],
    "types": {
      "t_address": {
        "encoding": "inplace",
        "label": "address",
        "numberOfBytes": "20"
      },
      "t_bool": {
        "encoding": "inplace",
        "label": "bool",
        "numberOfBytes": "1"
      },
      "t_contract(IERC20)2004": {
        "encoding": "inplace",
        "label": "contract IERC20",
        "numberOfBytes": "20"
      },
      "t_contract(IMatic)6169": {
        "encoding": "inplace",
        "label": "contract IMatic",
        "numberOfBytes": "20"
      },
      "t_contract(ITenderFarm)2571": {
        "encoding": "inplace",
        "label": "contract ITenderFarm",
        "numberOfBytes": "20"
      },
      "t_contract(ITenderSwap)7003": {
        "encoding": "inplace",
        "label": "contract ITenderSwap",
        "numberOfBytes": "20"
      },
      "t_contract(ITenderToken)7388": {
        "encoding": "inplace",
        "label": "contract ITenderToken",
        "numberOfBytes": "20"
      },
      "t_mapping(t_uint256,t_struct(WithdrawLock)3783_storage)": {
        "encoding": "mapping",
        "key": "t_uint256",
        "label": "mapping(uint256 => struct WithdrawalLocks.WithdrawLock)",
        "numberOfBytes": "32",
        "value": "t_struct(WithdrawLock)3783_storage"
      },
      "t_struct(Locks)3791_storage": {
        "encoding": "inplace",
        "label": "struct WithdrawalLocks.Locks",
        "members": [
          {
            "astId": 3788,
            "contract": "contracts/tenderizer/integrations/matic/Matic.sol:Matic",
            "label": "withdrawals",
            "offset": 0,
            "slot": "0",
            "type": "t_mapping(t_uint256,t_struct(WithdrawLock)3783_storage)"
          },
          {
            "astId": 3790,
            "contract": "contracts/tenderizer/integrations/matic/Matic.sol:Matic",
            "label": "nextWithdrawLockID",
            "offset": 0,
            "slot": "1",
            "type": "t_uint256"
          }
        ],
        "numberOfBytes": "64"
      },
      "t_struct(WithdrawLock)3783_storage": {
        "encoding": "inplace",
        "label": "struct WithdrawalLocks.WithdrawLock",
        "members": [
          {
            "astId": 3780,
            "contract": "contracts/tenderizer/integrations/matic/Matic.sol:Matic",
            "label": "amount",
            "offset": 0,
            "slot": "0",
            "type": "t_uint256"
          },
          {
            "astId": 3782,
            "contract": "contracts/tenderizer/integrations/matic/Matic.sol:Matic",
            "label": "account",
            "offset": 0,
            "slot": "1",
            "type": "t_address"
          }
        ],
        "numberOfBytes": "64"
      },
      "t_uint256": {
        "encoding": "inplace",
        "label": "uint256",
        "numberOfBytes": "32"
      }
    }
  }
}