{
  "address": "0xef9Edb94bF7Ee9071999089b768db580033A6aAB",
  "abi": [
    {
      "anonymous": false,
      "inputs": [
        {
          "indexed": true,
          "internalType": "address",
          "name": "previousOwner",
          "type": "address"
        },
        {
          "indexed": true,
          "internalType": "address",
          "name": "newOwner",
          "type": "address"
        }
      ],
      "name": "OwnershipTransferred",
      "type": "event"
    },
    {
      "anonymous": false,
      "inputs": [
        {
          "components": [
            {
              "internalType": "string",
              "name": "name",
              "type": "string"
            },
            {
              "internalType": "address",
              "name": "controller",
              "type": "address"
            },
            {
              "internalType": "address",
              "name": "steak",
              "type": "address"
            },
            {
              "internalType": "address",
              "name": "tenderizer",
              "type": "address"
            },
            {
              "internalType": "address",
              "name": "tenderToken",
              "type": "address"
            },
            {
              "internalType": "address",
              "name": "esp",
              "type": "address"
            },
            {
              "internalType": "address",
              "name": "bpool",
              "type": "address"
            },
            {
              "internalType": "address",
              "name": "tenderFarm",
              "type": "address"
            }
          ],
          "indexed": false,
          "internalType": "struct Registry.TenderizerConfig",
          "name": "config",
          "type": "tuple"
        }
      ],
      "name": "TenderizerCreated",
      "type": "event"
    },
    {
      "inputs": [
        {
          "components": [
            {
              "internalType": "string",
              "name": "name",
              "type": "string"
            },
            {
              "internalType": "address",
              "name": "controller",
              "type": "address"
            },
            {
              "internalType": "address",
              "name": "steak",
              "type": "address"
            },
            {
              "internalType": "address",
              "name": "tenderizer",
              "type": "address"
            },
            {
              "internalType": "address",
              "name": "tenderToken",
              "type": "address"
            },
            {
              "internalType": "address",
              "name": "esp",
              "type": "address"
            },
            {
              "internalType": "address",
              "name": "bpool",
              "type": "address"
            },
            {
              "internalType": "address",
              "name": "tenderFarm",
              "type": "address"
            }
          ],
          "internalType": "struct Registry.TenderizerConfig",
          "name": "config",
          "type": "tuple"
        }
      ],
      "name": "addTenderizer",
      "outputs": [],
      "stateMutability": "nonpayable",
      "type": "function"
    },
    {
      "inputs": [],
      "name": "owner",
      "outputs": [
        {
          "internalType": "address",
          "name": "",
          "type": "address"
        }
      ],
      "stateMutability": "view",
      "type": "function"
    },
    {
      "inputs": [],
      "name": "renounceOwnership",
      "outputs": [],
      "stateMutability": "nonpayable",
      "type": "function"
    },
    {
      "inputs": [
        {
          "internalType": "address",
          "name": "newOwner",
          "type": "address"
        }
      ],
      "name": "transferOwnership",
      "outputs": [],
      "stateMutability": "nonpayable",
      "type": "function"
    }
  ],
  "transactionHash": "0x2f8f20794be0624696c2a6eeb16d9e39d071cd9cf51376cf84277a9a7de54b1d",
  "args": [],
  "solcInputHash": "a9f830c0f7a81c19f770a0b97bdb89ad",
  "bytecode": "0x608060405234801561001057600080fd5b5060006100216100c460201b60201c565b9050806000806101000a81548173ffffffffffffffffffffffffffffffffffffffff021916908373ffffffffffffffffffffffffffffffffffffffff1602179055508073ffffffffffffffffffffffffffffffffffffffff16600073ffffffffffffffffffffffffffffffffffffffff167f8be0079c531659141344cd1fd0a4f28419497f9722a3daafe3b4186f6b6457e060405160405180910390a3506100cc565b600033905090565b6108a5806100db6000396000f3fe608060405234801561001057600080fd5b506004361061004c5760003560e01c806340595c7514610051578063715018a61461006d5780638da5cb5b14610077578063f2fde38b14610095575b600080fd5b61006b600480360381019061006691906104d5565b6100b1565b005b610075610167565b005b61007f6102a1565b60405161008c91906106f9565b60405180910390f35b6100af60048036038101906100aa91906104ac565b6102ca565b005b6100b9610473565b73ffffffffffffffffffffffffffffffffffffffff166100d76102a1565b73ffffffffffffffffffffffffffffffffffffffff161461012d576040517f08c379a000000000000000000000000000000000000000000000000000000000815260040161012490610734565b60405180910390fd5b7fcc44d2be73a68fc39a2176fc2e9920af818ce49eb0b44f1d4db2ab8e70cc33e08160405161015c9190610754565b60405180910390a150565b61016f610473565b73ffffffffffffffffffffffffffffffffffffffff1661018d6102a1565b73ffffffffffffffffffffffffffffffffffffffff16146101e3576040517f08c379a00000000000000000000000000000000000000000000000000000000081526004016101da90610734565b60405180910390fd5b600073ffffffffffffffffffffffffffffffffffffffff1660008054906101000a900473ffffffffffffffffffffffffffffffffffffffff1673ffffffffffffffffffffffffffffffffffffffff167f8be0079c531659141344cd1fd0a4f28419497f9722a3daafe3b4186f6b6457e060405160405180910390a360008060006101000a81548173ffffffffffffffffffffffffffffffffffffffff021916908373ffffffffffffffffffffffffffffffffffffffff160217905550565b60008060009054906101000a900473ffffffffffffffffffffffffffffffffffffffff16905090565b6102d2610473565b73ffffffffffffffffffffffffffffffffffffffff166102f06102a1565b73ffffffffffffffffffffffffffffffffffffffff1614610346576040517f08c379a000000000000000000000000000000000000000000000000000000000815260040161033d90610734565b60405180910390fd5b600073ffffffffffffffffffffffffffffffffffffffff168173ffffffffffffffffffffffffffffffffffffffff1614156103b6576040517f08c379a00000000000000000000000000000000000000000000000000000000081526004016103ad90610714565b60405180910390fd5b8073ffffffffffffffffffffffffffffffffffffffff1660008054906101000a900473ffffffffffffffffffffffffffffffffffffffff1673ffffffffffffffffffffffffffffffffffffffff167f8be0079c531659141344cd1fd0a4f28419497f9722a3daafe3b4186f6b6457e060405160405180910390a3806000806101000a81548173ffffffffffffffffffffffffffffffffffffffff021916908373ffffffffffffffffffffffffffffffffffffffff16021790555050565b600033905090565b60008135905061048a81610858565b92915050565b600061010082840312156104a357600080fd5b81905092915050565b6000602082840312156104be57600080fd5b60006104cc8482850161047b565b91505092915050565b6000602082840312156104e757600080fd5b600082013567ffffffffffffffff81111561050157600080fd5b61050d84828501610490565b91505092915050565b61051f81610806565b82525050565b61052e81610806565b82525050565b60006105408385610776565b935061054d838584610838565b61055683610847565b840190509392505050565b600061056e602683610787565b91507f4f776e61626c653a206e6577206f776e657220697320746865207a65726f206160008301527f64647265737300000000000000000000000000000000000000000000000000006020830152604082019050919050565b60006105d4602083610787565b91507f4f776e61626c653a2063616c6c6572206973206e6f7420746865206f776e65726000830152602082019050919050565b6000610100830161061b60008401846107af565b858303600087015261062e838284610534565b9250505061063f6020840184610798565b61064c6020860182610516565b5061065a6040840184610798565b6106676040860182610516565b506106756060840184610798565b6106826060860182610516565b506106906080840184610798565b61069d6080860182610516565b506106ab60a0840184610798565b6106b860a0860182610516565b506106c660c0840184610798565b6106d360c0860182610516565b506106e160e0840184610798565b6106ee60e0860182610516565b508091505092915050565b600060208201905061070e6000830184610525565b92915050565b6000602082019050818103600083015261072d81610561565b9050919050565b6000602082019050818103600083015261074d816105c7565b9050919050565b6000602082019050818103600083015261076e8184610607565b905092915050565b600082825260208201905092915050565b600082825260208201905092915050565b60006107a7602084018461047b565b905092915050565b600080833560016020038436030381126107c857600080fd5b83810192508235915060208301925067ffffffffffffffff8211156107ec57600080fd5b6001820236038413156107fe57600080fd5b509250929050565b600061081182610818565b9050919050565b600073ffffffffffffffffffffffffffffffffffffffff82169050919050565b82818337600083830152505050565b6000601f19601f8301169050919050565b61086181610806565b811461086c57600080fd5b5056fea2646970667358221220dc29abe1fd964609a279745cc39f869549c15be24990d81c12e62dbf5dad275e64736f6c63430008000033",
  "devdoc": {
    "kind": "dev",
    "methods": {
      "owner()": {
        "details": "Returns the address of the current owner."
      },
      "renounceOwnership()": {
        "details": "Leaves the contract without owner. It will not be possible to call `onlyOwner` functions anymore. Can only be called by the current owner. NOTE: Renouncing ownership will leave the contract without an owner, thereby removing any functionality that is only available to the owner."
      },
      "transferOwnership(address)": {
        "details": "Transfers ownership of the contract to a new account (`newOwner`). Can only be called by the current owner."
      }
    },
    "version": 1
  },
  "userdoc": {
    "kind": "user",
    "methods": {},
    "version": 1
  },
  "storageLayout": {
    "storage": [
      {
        "astId": 7,
        "contract": "contracts/Registry.sol:Registry",
        "label": "_owner",
        "offset": 0,
        "slot": "0",
        "type": "t_address"
      }
    ],
    "types": {
      "t_address": {
        "encoding": "inplace",
        "label": "address",
        "numberOfBytes": "20"
      }
    }
  }
}