{
  "address": "0xe28e1BF6D30fce97383b7aD06576EB6a430a1cF4",
  "abi": [
    {
      "inputs": [
        {
          "internalType": "contract IERC20",
          "name": "_stakeToken",
          "type": "address"
        },
        {
          "internalType": "contract ITenderToken",
          "name": "_rewardToken",
          "type": "address"
        }
      ],
      "stateMutability": "nonpayable",
      "type": "constructor"
    },
    {
      "anonymous": false,
      "inputs": [
        {
          "indexed": true,
          "internalType": "address",
          "name": "account",
          "type": "address"
        },
        {
          "indexed": false,
          "internalType": "uint256",
          "name": "amount",
          "type": "uint256"
        }
      ],
      "name": "Farm",
      "type": "event"
    },
    {
      "anonymous": false,
      "inputs": [
        {
          "indexed": true,
          "internalType": "address",
          "name": "account",
          "type": "address"
        },
        {
          "indexed": false,
          "internalType": "uint256",
          "name": "amount",
          "type": "uint256"
        }
      ],
      "name": "Harvest",
      "type": "event"
    },
    {
      "anonymous": false,
      "inputs": [
        {
          "indexed": true,
          "internalType": "address",
          "name": "previousOwner",
          "type": "address"
        },
        {
          "indexed": true,
          "internalType": "address",
          "name": "newOwner",
          "type": "address"
        }
      ],
      "name": "OwnershipTransferred",
      "type": "event"
    },
    {
      "anonymous": false,
      "inputs": [
        {
          "indexed": false,
          "internalType": "uint256",
          "name": "amount",
          "type": "uint256"
        }
      ],
      "name": "RewardsAdded",
      "type": "event"
    },
    {
      "anonymous": false,
      "inputs": [
        {
          "indexed": true,
          "internalType": "address",
          "name": "account",
          "type": "address"
        },
        {
          "indexed": false,
          "internalType": "uint256",
          "name": "amount",
          "type": "uint256"
        }
      ],
      "name": "Unfarm",
      "type": "event"
    },
    {
      "inputs": [],
      "name": "CRF",
      "outputs": [
        {
          "internalType": "uint256",
          "name": "",
          "type": "uint256"
        }
      ],
      "stateMutability": "view",
      "type": "function"
    },
    {
      "inputs": [
        {
          "internalType": "uint256",
          "name": "_amount",
          "type": "uint256"
        }
      ],
      "name": "addRewards",
      "outputs": [],
      "stateMutability": "nonpayable",
      "type": "function"
    },
    {
      "inputs": [
        {
          "internalType": "address",
          "name": "_for",
          "type": "address"
        }
      ],
      "name": "availableRewards",
      "outputs": [
        {
          "internalType": "uint256",
          "name": "",
          "type": "uint256"
        }
      ],
      "stateMutability": "view",
      "type": "function"
    },
    {
      "inputs": [
        {
          "internalType": "uint256",
          "name": "_amount",
          "type": "uint256"
        }
      ],
      "name": "farm",
      "outputs": [],
      "stateMutability": "nonpayable",
      "type": "function"
    },
    {
      "inputs": [
        {
          "internalType": "address",
          "name": "_for",
          "type": "address"
        },
        {
          "internalType": "uint256",
          "name": "_amount",
          "type": "uint256"
        }
      ],
      "name": "farmFor",
      "outputs": [],
      "stateMutability": "nonpayable",
      "type": "function"
    },
    {
      "inputs": [],
      "name": "harvest",
      "outputs": [],
      "stateMutability": "nonpayable",
      "type": "function"
    },
    {
      "inputs": [],
      "name": "nextTotalStake",
      "outputs": [
        {
          "internalType": "uint256",
          "name": "",
          "type": "uint256"
        }
      ],
      "stateMutability": "view",
      "type": "function"
    },
    {
      "inputs": [],
      "name": "owner",
      "outputs": [
        {
          "internalType": "address",
          "name": "",
          "type": "address"
        }
      ],
      "stateMutability": "view",
      "type": "function"
    },
    {
      "inputs": [],
      "name": "renounceOwnership",
      "outputs": [],
      "stateMutability": "nonpayable",
      "type": "function"
    },
    {
      "inputs": [],
      "name": "rewardToken",
      "outputs": [
        {
          "internalType": "contract ITenderToken",
          "name": "",
          "type": "address"
        }
      ],
      "stateMutability": "view",
      "type": "function"
    },
    {
      "inputs": [
        {
          "internalType": "address",
          "name": "_of",
          "type": "address"
        }
      ],
      "name": "stakeOf",
      "outputs": [
        {
          "internalType": "uint256",
          "name": "",
          "type": "uint256"
        }
      ],
      "stateMutability": "view",
      "type": "function"
    },
    {
      "inputs": [
        {
          "internalType": "address",
          "name": "",
          "type": "address"
        }
      ],
      "name": "stakes",
      "outputs": [
        {
          "internalType": "uint256",
          "name": "stake",
          "type": "uint256"
        },
        {
          "internalType": "uint256",
          "name": "lastCRF",
          "type": "uint256"
        }
      ],
      "stateMutability": "view",
      "type": "function"
    },
    {
      "inputs": [],
      "name": "token",
      "outputs": [
        {
          "internalType": "contract IERC20",
          "name": "",
          "type": "address"
        }
      ],
      "stateMutability": "view",
      "type": "function"
    },
    {
      "inputs": [],
      "name": "totalStake",
      "outputs": [
        {
          "internalType": "uint256",
          "name": "",
          "type": "uint256"
        }
      ],
      "stateMutability": "view",
      "type": "function"
    },
    {
      "inputs": [
        {
          "internalType": "address",
          "name": "newOwner",
          "type": "address"
        }
      ],
      "name": "transferOwnership",
      "outputs": [],
      "stateMutability": "nonpayable",
      "type": "function"
    },
    {
      "inputs": [
        {
          "internalType": "uint256",
          "name": "_amount",
          "type": "uint256"
        }
      ],
      "name": "unfarm",
      "outputs": [],
      "stateMutability": "nonpayable",
      "type": "function"
    }
  ],
  "transactionHash": "0x27f5c5dd24d46d0476f49380db5feacfb6bc83ed400d5814e16bec4b64dedef0",
  "args": [
    "0xF92fbD1bd56e047c5A7A1f3d4b6A2973288506d1",
    "0x10F249f2CD19F444418145A03B2AB49695EE86d7"
  ],
  "solcInputHash": "b7051145c1b6661ee356a26cc998fc4a",
  "bytecode": "0x60806040523480156200001157600080fd5b5060405162001c1d38038062001c1d8339818101604052810190620000379190620001a7565b6000620000496200017160201b60201c565b9050806000806101000a81548173ffffffffffffffffffffffffffffffffffffffff021916908373ffffffffffffffffffffffffffffffffffffffff1602179055508073ffffffffffffffffffffffffffffffffffffffff16600073ffffffffffffffffffffffffffffffffffffffff167f8be0079c531659141344cd1fd0a4f28419497f9722a3daafe3b4186f6b6457e060405160405180910390a35081600160006101000a81548173ffffffffffffffffffffffffffffffffffffffff021916908373ffffffffffffffffffffffffffffffffffffffff16021790555080600260006101000a81548173ffffffffffffffffffffffffffffffffffffffff021916908373ffffffffffffffffffffffffffffffffffffffff160217905550505062000278565b600033905090565b6000815190506200018a8162000244565b92915050565b600081519050620001a1816200025e565b92915050565b60008060408385031215620001bb57600080fd5b6000620001cb8582860162000179565b9250506020620001de8582860162000190565b9150509250929050565b6000620001f58262000224565b9050919050565b60006200020982620001e8565b9050919050565b60006200021d82620001e8565b9050919050565b600073ffffffffffffffffffffffffffffffffffffffff82169050919050565b6200024f81620001fc565b81146200025b57600080fd5b50565b620002698162000210565b81146200027557600080fd5b50565b61199580620002886000396000f3fe608060405234801561001057600080fd5b50600436106101005760003560e01c80638b0e9f3f11610097578063f2fde38b11610066578063f2fde38b14610262578063f7c618c11461027e578063f854a27f1461029c578063fc0c546a146102cc57610100565b80638b0e9f3f146101ec5780638da5cb5b1461020a5780638ebed61614610228578063beceed391461024657610100565b80634641257d116100d35780634641257d146101a0578063538a85a1146101aa5780635d1cf7b5146101c6578063715018a6146101e257610100565b806304d3b7c41461010557806316934fc4146101235780631c885bae146101545780634262336014610170575b600080fd5b61010d6102ea565b60405161011a919061157d565b60405180910390f35b61013d600480360381019061013891906111db565b6102f0565b60405161014b929190611598565b60405180910390f35b61016e60048036038101906101699190611269565b610314565b005b61018a600480360381019061018591906111db565b610321565b604051610197919061157d565b60405180910390f35b6101a8610333565b005b6101c460048036038101906101bf9190611269565b61033e565b005b6101e060048036038101906101db9190611204565b61034b565b005b6101ea610359565b005b6101f4610493565b604051610201919061157d565b60405180910390f35b610212610499565b60405161021f91906113ec565b60405180910390f35b6102306104c2565b60405161023d919061157d565b60405180910390f35b610260600480360381019061025b9190611269565b6104c8565b005b61027c600480360381019061027791906111db565b610792565b005b61028661093b565b6040516102939190611482565b60405180910390f35b6102b660048036038101906102b191906111db565b610961565b6040516102c3919061157d565b60405180910390f35b6102d4610a1d565b6040516102e19190611467565b60405180910390f35b60045481565b60066020528060005260406000206000915090508060000154908060010154905082565b61031e3382610a43565b50565b600061032c82610c4b565b9050919050565b61033c33610c97565b565b6103483382610eed565b50565b6103558282610eed565b5050565b6103616110aa565b73ffffffffffffffffffffffffffffffffffffffff1661037f610499565b73ffffffffffffffffffffffffffffffffffffffff16146103d5576040517f08c379a00000000000000000000000000000000000000000000000000000000081526004016103cc9061153d565b60405180910390fd5b600073ffffffffffffffffffffffffffffffffffffffff1660008054906101000a900473ffffffffffffffffffffffffffffffffffffffff1673ffffffffffffffffffffffffffffffffffffffff167f8be0079c531659141344cd1fd0a4f28419497f9722a3daafe3b4186f6b6457e060405160405180910390a360008060006101000a81548173ffffffffffffffffffffffffffffffffffffffff021916908373ffffffffffffffffffffffffffffffffffffffff160217905550565b60035481565b60008060009054906101000a900473ffffffffffffffffffffffffffffffffffffffff16905090565b60055481565b6104d06110aa565b73ffffffffffffffffffffffffffffffffffffffff166104ee610499565b73ffffffffffffffffffffffffffffffffffffffff1614610544576040517f08c379a000000000000000000000000000000000000000000000000000000000815260040161053b9061153d565b60405180910390fd5b600060045490506000811161058e576040517f08c379a0000000000000000000000000000000000000000000000000000000008152600401610585906114bd565b60405180910390fd5b806003819055506000600260009054906101000a900473ffffffffffffffffffffffffffffffffffffffff1673ffffffffffffffffffffffffffffffffffffffff1663f3044ac7846040518263ffffffff1660e01b81526004016105f2919061157d565b60206040518083038186803b15801561060a57600080fd5b505afa15801561061e573d6000803e3d6000fd5b505050506040513d601f19601f820116820180604052508101906106429190611292565b905061064e81836110b2565b6005600082825461065f91906115d2565b92505081905550600260009054906101000a900473ffffffffffffffffffffffffffffffffffffffff1673ffffffffffffffffffffffffffffffffffffffff166323b872dd3330866040518463ffffffff1660e01b81526004016106c593929190611407565b602060405180830381600087803b1580156106df57600080fd5b505af11580156106f3573d6000803e3d6000fd5b505050506040513d601f19601f820116820180604052508101906107179190611240565b610756576040517f08c379a000000000000000000000000000000000000000000000000000000000815260040161074d9061151d565b60405180910390fd5b7ff8fad42e780bfa5459be3fe691e8ba1aec70342250112139c5771c3fd155f31283604051610785919061157d565b60405180910390a1505050565b61079a6110aa565b73ffffffffffffffffffffffffffffffffffffffff166107b8610499565b73ffffffffffffffffffffffffffffffffffffffff161461080e576040517f08c379a00000000000000000000000000000000000000000000000000000000081526004016108059061153d565b60405180910390fd5b600073ffffffffffffffffffffffffffffffffffffffff168173ffffffffffffffffffffffffffffffffffffffff16141561087e576040517f08c379a00000000000000000000000000000000000000000000000000000000081526004016108759061149d565b60405180910390fd5b8073ffffffffffffffffffffffffffffffffffffffff1660008054906101000a900473ffffffffffffffffffffffffffffffffffffffff1673ffffffffffffffffffffffffffffffffffffffff167f8be0079c531659141344cd1fd0a4f28419497f9722a3daafe3b4186f6b6457e060405160405180910390a3806000806101000a81548173ffffffffffffffffffffffffffffffffffffffff021916908373ffffffffffffffffffffffffffffffffffffffff16021790555050565b600260009054906101000a900473ffffffffffffffffffffffffffffffffffffffff1681565b6000600260009054906101000a900473ffffffffffffffffffffffffffffffffffffffff1673ffffffffffffffffffffffffffffffffffffffff166327def4fd6109aa846110dc565b6040518263ffffffff1660e01b81526004016109c6919061157d565b60206040518083038186803b1580156109de57600080fd5b505afa1580156109f2573d6000803e3d6000fd5b505050506040513d601f19601f82011682018060405250810190610a169190611292565b9050919050565b600160009054906101000a900473ffffffffffffffffffffffffffffffffffffffff1681565b6000600660008473ffffffffffffffffffffffffffffffffffffffff1673ffffffffffffffffffffffffffffffffffffffff16815260200190815260200160002090508060000154821115610acd576040517f08c379a0000000000000000000000000000000000000000000000000000000008152600401610ac49061155d565b60405180910390fd5b610ad683610c97565b81816000016000828254610aea91906116b3565b925050819055508160046000828254610b0391906116b3565b92505081905550600160009054906101000a900473ffffffffffffffffffffffffffffffffffffffff1673ffffffffffffffffffffffffffffffffffffffff1663a9059cbb84846040518363ffffffff1660e01b8152600401610b6792919061143e565b602060405180830381600087803b158015610b8157600080fd5b505af1158015610b95573d6000803e3d6000fd5b505050506040513d601f19601f82011682018060405250810190610bb99190611240565b610bf8576040517f08c379a0000000000000000000000000000000000000000000000000000000008152600401610bef906114fd565b60405180910390fd5b8273ffffffffffffffffffffffffffffffffffffffff167f20257c99a1831ee05678eabb34e57a99bf067b4a5e2cb2d5559ea0a23f65518d83604051610c3e919061157d565b60405180910390a2505050565b6000600660008373ffffffffffffffffffffffffffffffffffffffff1673ffffffffffffffffffffffffffffffffffffffff168152602001908152602001600020600001549050919050565b6000600660008373ffffffffffffffffffffffffffffffffffffffff1673ffffffffffffffffffffffffffffffffffffffff16815260200190815260200160002090506000610ce5836110dc565b905060055482600101819055506000811115610ee8576000600260009054906101000a900473ffffffffffffffffffffffffffffffffffffffff1673ffffffffffffffffffffffffffffffffffffffff166327def4fd836040518263ffffffff1660e01b8152600401610d58919061157d565b60206040518083038186803b158015610d7057600080fd5b505afa158015610d84573d6000803e3d6000fd5b505050506040513d601f19601f82011682018060405250810190610da89190611292565b9050600260009054906101000a900473ffffffffffffffffffffffffffffffffffffffff1673ffffffffffffffffffffffffffffffffffffffff1663a9059cbb85836040518363ffffffff1660e01b8152600401610e0792919061143e565b602060405180830381600087803b158015610e2157600080fd5b505af1158015610e35573d6000803e3d6000fd5b505050506040513d601f19601f82011682018060405250810190610e599190611240565b610e98576040517f08c379a0000000000000000000000000000000000000000000000000000000008152600401610e8f906114fd565b60405180910390fd5b8373ffffffffffffffffffffffffffffffffffffffff167fc9695243a805adb74c91f28311176c65b417e842d5699893cef56d18bfa48cba82604051610ede919061157d565b60405180910390a2505b505050565b610ef682610c97565b80600660008473ffffffffffffffffffffffffffffffffffffffff1673ffffffffffffffffffffffffffffffffffffffff1681526020019081526020016000206000016000828254610f4891906115d2565b925050819055508060046000828254610f6191906115d2565b92505081905550600160009054906101000a900473ffffffffffffffffffffffffffffffffffffffff1673ffffffffffffffffffffffffffffffffffffffff166323b872dd3330846040518463ffffffff1660e01b8152600401610fc793929190611407565b602060405180830381600087803b158015610fe157600080fd5b505af1158015610ff5573d6000803e3d6000fd5b505050506040513d601f19601f820116820180604052508101906110199190611240565b611058576040517f08c379a000000000000000000000000000000000000000000000000000000000815260040161104f906114dd565b60405180910390fd5b8173ffffffffffffffffffffffffffffffffffffffff167f1b359373bd6268b2ceac132cf22673d4f046a13deb2e7980f81baabf1b4d72f78260405161109e919061157d565b60405180910390a25050565b600033905090565b600081683635c9adc5dea00000846110ca9190611659565b6110d49190611628565b905092915050565b600080600660008473ffffffffffffffffffffffffffffffffffffffff1673ffffffffffffffffffffffffffffffffffffffff168152602001908152602001600020905060006005541415611135576000915050611158565b6111548160000154826001015460055461114f91906116b3565b61115d565b9150505b919050565b6000683635c9adc5dea0000082846111759190611659565b61117f9190611628565b905092915050565b6000813590506111968161191a565b92915050565b6000815190506111ab81611931565b92915050565b6000813590506111c081611948565b92915050565b6000815190506111d581611948565b92915050565b6000602082840312156111ed57600080fd5b60006111fb84828501611187565b91505092915050565b6000806040838503121561121757600080fd5b600061122585828601611187565b9250506020611236858286016111b1565b9150509250929050565b60006020828403121561125257600080fd5b60006112608482850161119c565b91505092915050565b60006020828403121561127b57600080fd5b6000611289848285016111b1565b91505092915050565b6000602082840312156112a457600080fd5b60006112b2848285016111c6565b91505092915050565b6112c4816116e7565b82525050565b6112d38161172f565b82525050565b6112e281611753565b82525050565b60006112f56026836115c1565b9150611300826117d5565b604082019050919050565b60006113186008836115c1565b915061132382611824565b602082019050919050565b600061133b6011836115c1565b91506113468261184d565b602082019050919050565b600061135e600d836115c1565b915061136982611876565b602082019050919050565b6000611381600f836115c1565b915061138c8261189f565b602082019050919050565b60006113a46020836115c1565b91506113af826118c8565b602082019050919050565b60006113c76014836115c1565b91506113d2826118f1565b602082019050919050565b6113e681611725565b82525050565b600060208201905061140160008301846112bb565b92915050565b600060608201905061141c60008301866112bb565b61142960208301856112bb565b61143660408301846113dd565b949350505050565b600060408201905061145360008301856112bb565b61146060208301846113dd565b9392505050565b600060208201905061147c60008301846112ca565b92915050565b600060208201905061149760008301846112d9565b92915050565b600060208201905081810360008301526114b6816112e8565b9050919050565b600060208201905081810360008301526114d68161130b565b9050919050565b600060208201905081810360008301526114f68161132e565b9050919050565b6000602082019050818103600083015261151681611351565b9050919050565b6000602082019050818103600083015261153681611374565b9050919050565b6000602082019050818103600083015261155681611397565b9050919050565b60006020820190508181036000830152611576816113ba565b9050919050565b600060208201905061159260008301846113dd565b92915050565b60006040820190506115ad60008301856113dd565b6115ba60208301846113dd565b9392505050565b600082825260208201905092915050565b60006115dd82611725565b91506115e883611725565b9250827fffffffffffffffffffffffffffffffffffffffffffffffffffffffffffffffff0382111561161d5761161c611777565b5b828201905092915050565b600061163382611725565b915061163e83611725565b92508261164e5761164d6117a6565b5b828204905092915050565b600061166482611725565b915061166f83611725565b9250817fffffffffffffffffffffffffffffffffffffffffffffffffffffffffffffffff04831182151516156116a8576116a7611777565b5b828202905092915050565b60006116be82611725565b91506116c983611725565b9250828210156116dc576116db611777565b5b828203905092915050565b60006116f282611705565b9050919050565b60008115159050919050565b600073ffffffffffffffffffffffffffffffffffffffff82169050919050565b6000819050919050565b600061173a82611741565b9050919050565b600061174c82611705565b9050919050565b600061175e82611765565b9050919050565b600061177082611705565b9050919050565b7f4e487b7100000000000000000000000000000000000000000000000000000000600052601160045260246000fd5b7f4e487b7100000000000000000000000000000000000000000000000000000000600052601260045260246000fd5b7f4f776e61626c653a206e6577206f776e657220697320746865207a65726f206160008201527f6464726573730000000000000000000000000000000000000000000000000000602082015250565b7f4e4f5f5354414b45000000000000000000000000000000000000000000000000600082015250565b7f5452414e5346455246524f4d5f4641494c000000000000000000000000000000600082015250565b7f5452414e534645525f4641494c00000000000000000000000000000000000000600082015250565b7f5452414e534645525f4641494c45440000000000000000000000000000000000600082015250565b7f4f776e61626c653a2063616c6c6572206973206e6f7420746865206f776e6572600082015250565b7f414d4f554e545f455843454544535f5354414b45000000000000000000000000600082015250565b611923816116e7565b811461192e57600080fd5b50565b61193a816116f9565b811461194557600080fd5b50565b61195181611725565b811461195c57600080fd5b5056fea2646970667358221220f318bed30b8e024d407b1eb62502e35160a2260057c0787bb98233f064ac7bcc64736f6c63430008040033",
  "devdoc": {
    "kind": "dev",
    "methods": {
      "addRewards(uint256)": {
        "details": "will 'start' a new 'epoch'only callable by owner",
        "params": {
          "_amount": "amount of reward tokens to add"
        }
      },
      "farm(uint256)": {
        "details": "'_amount' needs to be approved for the 'TenderFarm' to transferharvests current rewards before accounting updates are made",
        "params": {
          "_amount": "amount of liquidity pool tokens to stake"
        }
      },
      "farmFor(address,uint256)": {
        "details": "'_amount' needs to be approved for the 'TenderFarm' to transferstaked tokens will belong to the account they are staked forharvests current rewards before accounting updates are made",
        "params": {
          "_amount": "amount of liquidity pool tokens to stake",
          "_for": "account to stake for"
        }
      },
      "harvest()": {
        "details": "reverts when trying to harvest multiple times if no new rewards have been addedemits an event with how many reward tokens have been harvested"
      },
      "owner()": {
        "details": "Returns the address of the current owner."
      },
      "renounceOwnership()": {
        "details": "Leaves the contract without owner. It will not be possible to call `onlyOwner` functions anymore. Can only be called by the current owner. NOTE: Renouncing ownership will leave the contract without an owner, thereby removing any functionality that is only available to the owner."
      },
      "transferOwnership(address)": {
        "details": "Transfers ownership of the contract to a new account (`newOwner`). Can only be called by the current owner."
      },
      "unfarm(uint256)": {
        "details": "'_amount' needs to be approved for the 'TenderFarm' to transferharvests current rewards before accounting updates are made",
        "params": {
          "_amount": "amount of liquidity pool tokens to stake"
        }
      }
    },
    "version": 1
  },
  "userdoc": {
    "kind": "user",
    "methods": {
      "addRewards(uint256)": {
        "notice": "add new rewards"
      },
      "farm(uint256)": {
        "notice": "stake liquidity pool tokens to receive rewards"
      },
      "farmFor(address,uint256)": {
        "notice": "stake liquidity pool tokens for a specific account so that it receives rewards"
      },
      "harvest()": {
        "notice": "harvest outstanding rewards"
      },
      "unfarm(uint256)": {
        "notice": "unstake liquidity pool tokens"
      }
    },
    "version": 1
  },
  "storageLayout": {
    "storage": [
      {
        "astId": 7,
        "contract": "contracts/liquidity/TenderFarm.sol:TenderFarm",
        "label": "_owner",
        "offset": 0,
        "slot": "0",
        "type": "t_address"
      },
      {
        "astId": 1824,
        "contract": "contracts/liquidity/TenderFarm.sol:TenderFarm",
        "label": "token",
        "offset": 0,
        "slot": "1",
        "type": "t_contract(IERC20)780"
      },
      {
        "astId": 1827,
        "contract": "contracts/liquidity/TenderFarm.sol:TenderFarm",
        "label": "rewardToken",
        "offset": 0,
        "slot": "2",
        "type": "t_contract(ITenderToken)4811"
      },
      {
        "astId": 1829,
        "contract": "contracts/liquidity/TenderFarm.sol:TenderFarm",
        "label": "totalStake",
        "offset": 0,
        "slot": "3",
        "type": "t_uint256"
      },
      {
        "astId": 1831,
        "contract": "contracts/liquidity/TenderFarm.sol:TenderFarm",
        "label": "nextTotalStake",
        "offset": 0,
        "slot": "4",
        "type": "t_uint256"
      },
      {
        "astId": 1833,
        "contract": "contracts/liquidity/TenderFarm.sol:TenderFarm",
        "label": "CRF",
        "offset": 0,
        "slot": "5",
        "type": "t_uint256"
      },
      {
        "astId": 1843,
        "contract": "contracts/liquidity/TenderFarm.sol:TenderFarm",
        "label": "stakes",
        "offset": 0,
        "slot": "6",
        "type": "t_mapping(t_address,t_struct(Stake)1838_storage)"
      }
    ],
    "types": {
      "t_address": {
        "encoding": "inplace",
        "label": "address",
        "numberOfBytes": "20"
      },
      "t_contract(IERC20)780": {
        "encoding": "inplace",
        "label": "contract IERC20",
        "numberOfBytes": "20"
      },
      "t_contract(ITenderToken)4811": {
        "encoding": "inplace",
        "label": "contract ITenderToken",
        "numberOfBytes": "20"
      },
      "t_mapping(t_address,t_struct(Stake)1838_storage)": {
        "encoding": "mapping",
        "key": "t_address",
        "label": "mapping(address => struct TenderFarm.Stake)",
        "numberOfBytes": "32",
        "value": "t_struct(Stake)1838_storage"
      },
      "t_struct(Stake)1838_storage": {
        "encoding": "inplace",
        "label": "struct TenderFarm.Stake",
        "members": [
          {
            "astId": 1835,
            "contract": "contracts/liquidity/TenderFarm.sol:TenderFarm",
            "label": "stake",
            "offset": 0,
            "slot": "0",
            "type": "t_uint256"
          },
          {
            "astId": 1837,
            "contract": "contracts/liquidity/TenderFarm.sol:TenderFarm",
            "label": "lastCRF",
            "offset": 0,
            "slot": "1",
            "type": "t_uint256"
          }
        ],
        "numberOfBytes": "64"
      },
      "t_uint256": {
        "encoding": "inplace",
        "label": "uint256",
        "numberOfBytes": "32"
      }
    }
  }
}