{
  "address": "0x6b903e6751e10d9F8AEa932891DED743F2F22616",
  "abi": [
    {
      "inputs": [
        {
          "internalType": "string",
          "name": "_name",
          "type": "string"
        },
        {
          "internalType": "string",
          "name": "_symbol",
          "type": "string"
        }
      ],
      "stateMutability": "nonpayable",
      "type": "constructor"
    },
    {
      "anonymous": false,
      "inputs": [
        {
          "indexed": true,
          "internalType": "address",
          "name": "owner",
          "type": "address"
        },
        {
          "indexed": true,
          "internalType": "address",
          "name": "spender",
          "type": "address"
        },
        {
          "indexed": false,
          "internalType": "uint256",
          "name": "value",
          "type": "uint256"
        }
      ],
      "name": "Approval",
      "type": "event"
    },
    {
      "anonymous": false,
      "inputs": [
        {
          "indexed": true,
          "internalType": "address",
          "name": "previousOwner",
          "type": "address"
        },
        {
          "indexed": true,
          "internalType": "address",
          "name": "newOwner",
          "type": "address"
        }
      ],
      "name": "OwnershipTransferred",
      "type": "event"
    },
    {
      "anonymous": false,
      "inputs": [
        {
          "indexed": true,
          "internalType": "address",
          "name": "from",
          "type": "address"
        },
        {
          "indexed": true,
          "internalType": "address",
          "name": "to",
          "type": "address"
        },
        {
          "indexed": false,
          "internalType": "uint256",
          "name": "value",
          "type": "uint256"
        }
      ],
      "name": "Transfer",
      "type": "event"
    },
    {
      "inputs": [
        {
          "internalType": "address",
          "name": "_owner",
          "type": "address"
        },
        {
          "internalType": "address",
          "name": "_spender",
          "type": "address"
        }
      ],
      "name": "allowance",
      "outputs": [
        {
          "internalType": "uint256",
          "name": "",
          "type": "uint256"
        }
      ],
      "stateMutability": "view",
      "type": "function"
    },
    {
      "inputs": [
        {
          "internalType": "address",
          "name": "_spender",
          "type": "address"
        },
        {
          "internalType": "uint256",
          "name": "_amount",
          "type": "uint256"
        }
      ],
      "name": "approve",
      "outputs": [
        {
          "internalType": "bool",
          "name": "",
          "type": "bool"
        }
      ],
      "stateMutability": "nonpayable",
      "type": "function"
    },
    {
      "inputs": [
        {
          "internalType": "address",
          "name": "_account",
          "type": "address"
        }
      ],
      "name": "balanceOf",
      "outputs": [
        {
          "internalType": "uint256",
          "name": "",
          "type": "uint256"
        }
      ],
      "stateMutability": "view",
      "type": "function"
    },
    {
      "inputs": [
        {
          "internalType": "address",
          "name": "_account",
          "type": "address"
        },
        {
          "internalType": "uint256",
          "name": "_amount",
          "type": "uint256"
        }
      ],
      "name": "burn",
      "outputs": [
        {
          "internalType": "bool",
          "name": "",
          "type": "bool"
        }
      ],
      "stateMutability": "nonpayable",
      "type": "function"
    },
    {
      "inputs": [],
      "name": "decimals",
      "outputs": [
        {
          "internalType": "uint8",
          "name": "",
          "type": "uint8"
        }
      ],
      "stateMutability": "pure",
      "type": "function"
    },
    {
      "inputs": [
        {
          "internalType": "address",
          "name": "_spender",
          "type": "address"
        },
        {
          "internalType": "uint256",
          "name": "_subtractedValue",
          "type": "uint256"
        }
      ],
      "name": "decreaseAllowance",
      "outputs": [
        {
          "internalType": "bool",
          "name": "",
          "type": "bool"
        }
      ],
      "stateMutability": "nonpayable",
      "type": "function"
    },
    {
      "inputs": [],
      "name": "getTotalPooledTokens",
      "outputs": [
        {
          "internalType": "uint256",
          "name": "",
          "type": "uint256"
        }
      ],
      "stateMutability": "view",
      "type": "function"
    },
    {
      "inputs": [],
      "name": "getTotalShares",
      "outputs": [
        {
          "internalType": "uint256",
          "name": "",
          "type": "uint256"
        }
      ],
      "stateMutability": "view",
      "type": "function"
    },
    {
      "inputs": [
        {
          "internalType": "address",
          "name": "_spender",
          "type": "address"
        },
        {
          "internalType": "uint256",
          "name": "_addedValue",
          "type": "uint256"
        }
      ],
      "name": "increaseAllowance",
      "outputs": [
        {
          "internalType": "bool",
          "name": "",
          "type": "bool"
        }
      ],
      "stateMutability": "nonpayable",
      "type": "function"
    },
    {
      "inputs": [
        {
          "internalType": "address",
          "name": "_recipient",
          "type": "address"
        },
        {
          "internalType": "uint256",
          "name": "_amount",
          "type": "uint256"
        }
      ],
      "name": "mint",
      "outputs": [
        {
          "internalType": "bool",
          "name": "",
          "type": "bool"
        }
      ],
      "stateMutability": "nonpayable",
      "type": "function"
    },
    {
      "inputs": [],
      "name": "name",
      "outputs": [
        {
          "internalType": "string",
          "name": "",
          "type": "string"
        }
      ],
      "stateMutability": "view",
      "type": "function"
    },
    {
      "inputs": [],
      "name": "owner",
      "outputs": [
        {
          "internalType": "address",
          "name": "",
          "type": "address"
        }
      ],
      "stateMutability": "view",
      "type": "function"
    },
    {
      "inputs": [],
      "name": "renounceOwnership",
      "outputs": [],
      "stateMutability": "nonpayable",
      "type": "function"
    },
    {
      "inputs": [
        {
          "internalType": "uint256",
          "name": "_newTotalPooledTokens",
          "type": "uint256"
        }
      ],
      "name": "setTotalPooledTokens",
      "outputs": [],
      "stateMutability": "nonpayable",
      "type": "function"
    },
    {
      "inputs": [
        {
          "internalType": "address",
          "name": "_account",
          "type": "address"
        }
      ],
      "name": "sharesOf",
      "outputs": [
        {
          "internalType": "uint256",
          "name": "",
          "type": "uint256"
        }
      ],
      "stateMutability": "view",
      "type": "function"
    },
    {
      "inputs": [
        {
          "internalType": "uint256",
          "name": "_shares",
          "type": "uint256"
        }
      ],
      "name": "sharesToTokens",
      "outputs": [
        {
          "internalType": "uint256",
          "name": "",
          "type": "uint256"
        }
      ],
      "stateMutability": "view",
      "type": "function"
    },
    {
      "inputs": [],
      "name": "symbol",
      "outputs": [
        {
          "internalType": "string",
          "name": "",
          "type": "string"
        }
      ],
      "stateMutability": "view",
      "type": "function"
    },
    {
      "inputs": [
        {
          "internalType": "uint256",
          "name": "_tokens",
          "type": "uint256"
        }
      ],
      "name": "tokensToShares",
      "outputs": [
        {
          "internalType": "uint256",
          "name": "",
          "type": "uint256"
        }
      ],
      "stateMutability": "view",
      "type": "function"
    },
    {
      "inputs": [],
      "name": "totalSupply",
      "outputs": [
        {
          "internalType": "uint256",
          "name": "",
          "type": "uint256"
        }
      ],
      "stateMutability": "view",
      "type": "function"
    },
    {
      "inputs": [
        {
          "internalType": "address",
          "name": "_recipient",
          "type": "address"
        },
        {
          "internalType": "uint256",
          "name": "_amount",
          "type": "uint256"
        }
      ],
      "name": "transfer",
      "outputs": [
        {
          "internalType": "bool",
          "name": "",
          "type": "bool"
        }
      ],
      "stateMutability": "nonpayable",
      "type": "function"
    },
    {
      "inputs": [
        {
          "internalType": "address",
          "name": "_sender",
          "type": "address"
        },
        {
          "internalType": "address",
          "name": "_recipient",
          "type": "address"
        },
        {
          "internalType": "uint256",
          "name": "_amount",
          "type": "uint256"
        }
      ],
      "name": "transferFrom",
      "outputs": [
        {
          "internalType": "bool",
          "name": "",
          "type": "bool"
        }
      ],
      "stateMutability": "nonpayable",
      "type": "function"
    },
    {
      "inputs": [
        {
          "internalType": "address",
          "name": "newOwner",
          "type": "address"
        }
      ],
      "name": "transferOwnership",
      "outputs": [],
      "stateMutability": "nonpayable",
      "type": "function"
    }
  ],
  "transactionHash": "0x5b2837a3c66747b22a490343a1ff8c8ad4955b63c754c64fcc16125a728de857",
  "args": [
    "Livepeer",
    "LPT"
  ],
  "solcInputHash": "a9f830c0f7a81c19f770a0b97bdb89ad",
  "bytecode": "0x60806040523480156200001157600080fd5b50604051620025f2380380620025f2833981810160405281019062000037919062000292565b816040516020016200004a9190620003c0565b604051602081830303815290604052816040516020016200006c9190620003e6565b60405160208183030381529060405281600090805190602001906200009392919062000170565b508060019080519060200190620000ac92919062000170565b5050506000620000c16200016860201b60201c565b905080600260006101000a81548173ffffffffffffffffffffffffffffffffffffffff021916908373ffffffffffffffffffffffffffffffffffffffff1602179055508073ffffffffffffffffffffffffffffffffffffffff16600073ffffffffffffffffffffffffffffffffffffffff167f8be0079c531659141344cd1fd0a4f28419497f9722a3daafe3b4186f6b6457e060405160405180910390a350505062000553565b600033905090565b8280546200017e90620004bf565b90600052602060002090601f016020900481019282620001a25760008555620001ee565b82601f10620001bd57805160ff1916838001178555620001ee565b82800160010185558215620001ee579182015b82811115620001ed578251825591602001919060010190620001d0565b5b509050620001fd919062000201565b5090565b5b808211156200021c57600081600090555060010162000202565b5090565b600062000237620002318462000440565b6200040c565b9050828152602081018484840111156200025057600080fd5b6200025d84828562000489565b509392505050565b600082601f8301126200027757600080fd5b81516200028984826020860162000220565b91505092915050565b60008060408385031215620002a657600080fd5b600083015167ffffffffffffffff811115620002c157600080fd5b620002cf8582860162000265565b925050602083015167ffffffffffffffff811115620002ed57600080fd5b620002fb8582860162000265565b9150509250929050565b6000620003128262000473565b6200031e81856200047e565b93506200033081856020860162000489565b80840191505092915050565b60006200034b6007836200047e565b91507f74656e64657220000000000000000000000000000000000000000000000000006000830152600782019050919050565b60006200038d6001836200047e565b91507f74000000000000000000000000000000000000000000000000000000000000006000830152600182019050919050565b6000620003cd826200033c565b9150620003db828462000305565b915081905092915050565b6000620003f3826200037e565b915062000401828462000305565b915081905092915050565b6000604051905081810181811067ffffffffffffffff8211171562000436576200043562000524565b5b8060405250919050565b600067ffffffffffffffff8211156200045e576200045d62000524565b5b601f19601f8301169050602081019050919050565b600081519050919050565b600081905092915050565b60005b83811015620004a95780820151818401526020810190506200048c565b83811115620004b9576000848401525b50505050565b60006002820490506001821680620004d857607f821691505b60208210811415620004ef57620004ee620004f5565b5b50919050565b7f4e487b7100000000000000000000000000000000000000000000000000000000600052602260045260246000fd5b7f4e487b7100000000000000000000000000000000000000000000000000000000600052604160045260246000fd5b61208f80620005636000396000f3fe608060405234801561001057600080fd5b50600436106101425760003560e01c80638da5cb5b116100b8578063a9059cbb1161007c578063a9059cbb146103a1578063d5002f2e146103d1578063dd62ed3e146103ef578063f2fde38b1461041f578063f3044ac71461043b578063f5eb42dc1461046b57610142565b80638da5cb5b146102e957806395d89b41146103075780639dc29fac14610325578063a457c2d714610355578063a4eaf7491461038557610142565b8063313ce5671161010a578063313ce56714610213578063395093511461023157806340c10f191461026157806370a0823114610291578063715018a6146102c15780638d7a7164146102cb57610142565b806306fdde0314610147578063095ea7b31461016557806318160ddd1461019557806323b872dd146101b357806327def4fd146101e3575b600080fd5b61014f61049b565b60405161015c9190611bca565b60405180910390f35b61017f600480360381019061017a919061176e565b61052d565b60405161018c9190611baf565b60405180910390f35b61019d610544565b6040516101aa9190611d6c565b60405180910390f35b6101cd60048036038101906101c8919061171f565b610553565b6040516101da9190611baf565b60405180910390f35b6101fd60048036038101906101f891906117aa565b610645565b60405161020a9190611d6c565b60405180910390f35b61021b610680565b6040516102289190611d87565b60405180910390f35b61024b6004803603810190610246919061176e565b610689565b6040516102589190611baf565b60405180910390f35b61027b6004803603810190610276919061176e565b610727565b6040516102889190611baf565b60405180910390f35b6102ab60048036038101906102a691906116ba565b610805565b6040516102b89190611d6c565b60405180910390f35b6102c961081f565b005b6102d361095c565b6040516102e09190611d6c565b60405180910390f35b6102f161096b565b6040516102fe9190611b94565b60405180910390f35b61030f610995565b60405161031c9190611bca565b60405180910390f35b61033f600480360381019061033a919061176e565b610a27565b60405161034c9190611baf565b60405180910390f35b61036f600480360381019061036a919061176e565b610ade565b60405161037c9190611baf565b60405180910390f35b61039f600480360381019061039a91906117aa565b610bc4565b005b6103bb60048036038101906103b6919061176e565b610c4c565b6040516103c89190611baf565b60405180910390f35b6103d9610c63565b6040516103e69190611d6c565b60405180910390f35b610409600480360381019061040491906116e3565b610c72565b6040516104169190611d6c565b60405180910390f35b610439600480360381019061043491906116ba565b610cf9565b005b610455600480360381019061045091906117aa565b610ea5565b6040516104629190611d6c565b60405180910390f35b610485600480360381019061048091906116ba565b610efa565b6040516104929190611d6c565b60405180910390f35b6060600080546104aa90611f5b565b80601f01602080910402602001604051908101604052809291908181526020018280546104d690611f5b565b80156105235780601f106104f857610100808354040283529160200191610523565b820191906000526020600020905b81548152906001019060200180831161050657829003601f168201915b5050505050905090565b600061053a338484610f0c565b6001905092915050565b600061054e6110d7565b905090565b600080600660008673ffffffffffffffffffffffffffffffffffffffff1673ffffffffffffffffffffffffffffffffffffffff16815260200190815260200160002060003373ffffffffffffffffffffffffffffffffffffffff1673ffffffffffffffffffffffffffffffffffffffff16815260200190815260200160002054905082811015610618576040517f08c379a000000000000000000000000000000000000000000000000000000000815260040161060f90611bec565b60405180910390fd5b6106238585856110e1565b610639853385846106349190611e9f565b610f0c565b60019150509392505050565b600080610650611164565b9050600081141561066557600091505061067b565b610677836106716110d7565b8361116e565b9150505b919050565b60006012905090565b600061071d338484600660003373ffffffffffffffffffffffffffffffffffffffff1673ffffffffffffffffffffffffffffffffffffffff16815260200190815260200160002060008873ffffffffffffffffffffffffffffffffffffffff1673ffffffffffffffffffffffffffffffffffffffff168152602001908152602001600020546107189190611dbe565b610f0c565b6001905092915050565b60006107316111a2565b73ffffffffffffffffffffffffffffffffffffffff1661074f61096b565b73ffffffffffffffffffffffffffffffffffffffff16146107a5576040517f08c379a000000000000000000000000000000000000000000000000000000000815260040161079c90611cec565b60405180910390fd5b60006107af6110d7565b905060008114156107ca576107c484846111aa565b506107e4565b60006107d584610645565b90506107e185826111aa565b50505b6107fa836004546107f59190611dbe565b61128e565b600191505092915050565b600061081861081383611298565b610645565b9050919050565b6108276111a2565b73ffffffffffffffffffffffffffffffffffffffff1661084561096b565b73ffffffffffffffffffffffffffffffffffffffff161461089b576040517f08c379a000000000000000000000000000000000000000000000000000000000815260040161089290611cec565b60405180910390fd5b600073ffffffffffffffffffffffffffffffffffffffff16600260009054906101000a900473ffffffffffffffffffffffffffffffffffffffff1673ffffffffffffffffffffffffffffffffffffffff167f8be0079c531659141344cd1fd0a4f28419497f9722a3daafe3b4186f6b6457e060405160405180910390a36000600260006101000a81548173ffffffffffffffffffffffffffffffffffffffff021916908373ffffffffffffffffffffffffffffffffffffffff160217905550565b60006109666110d7565b905090565b6000600260009054906101000a900473ffffffffffffffffffffffffffffffffffffffff16905090565b6060600180546109a490611f5b565b80601f01602080910402602001604051908101604052809291908181526020018280546109d090611f5b565b8015610a1d5780601f106109f257610100808354040283529160200191610a1d565b820191906000526020600020905b815481529060010190602001808311610a0057829003601f168201915b5050505050905090565b6000610a316111a2565b73ffffffffffffffffffffffffffffffffffffffff16610a4f61096b565b73ffffffffffffffffffffffffffffffffffffffff1614610aa5576040517f08c379a0000000000000000000000000000000000000000000000000000000008152600401610a9c90611cec565b60405180910390fd5b6000610ab083610645565b9050610abc84826112e1565b50610ad383600454610ace9190611e9f565b61128e565b600191505092915050565b600080600660003373ffffffffffffffffffffffffffffffffffffffff1673ffffffffffffffffffffffffffffffffffffffff16815260200190815260200160002060008573ffffffffffffffffffffffffffffffffffffffff1673ffffffffffffffffffffffffffffffffffffffff16815260200190815260200160002054905082811015610ba3576040517f08c379a0000000000000000000000000000000000000000000000000000000008152600401610b9a90611c8c565b60405180910390fd5b610bb933858584610bb49190611e9f565b610f0c565b600191505092915050565b610bcc6111a2565b73ffffffffffffffffffffffffffffffffffffffff16610bea61096b565b73ffffffffffffffffffffffffffffffffffffffff1614610c40576040517f08c379a0000000000000000000000000000000000000000000000000000000008152600401610c3790611cec565b60405180910390fd5b610c498161128e565b50565b6000610c593384846110e1565b6001905092915050565b6000610c6d611164565b905090565b6000600660008473ffffffffffffffffffffffffffffffffffffffff1673ffffffffffffffffffffffffffffffffffffffff16815260200190815260200160002060008373ffffffffffffffffffffffffffffffffffffffff1673ffffffffffffffffffffffffffffffffffffffff16815260200190815260200160002054905092915050565b610d016111a2565b73ffffffffffffffffffffffffffffffffffffffff16610d1f61096b565b73ffffffffffffffffffffffffffffffffffffffff1614610d75576040517f08c379a0000000000000000000000000000000000000000000000000000000008152600401610d6c90611cec565b60405180910390fd5b600073ffffffffffffffffffffffffffffffffffffffff168173ffffffffffffffffffffffffffffffffffffffff161415610de5576040517f08c379a0000000000000000000000000000000000000000000000000000000008152600401610ddc90611c4c565b60405180910390fd5b8073ffffffffffffffffffffffffffffffffffffffff16600260009054906101000a900473ffffffffffffffffffffffffffffffffffffffff1673ffffffffffffffffffffffffffffffffffffffff167f8be0079c531659141344cd1fd0a4f28419497f9722a3daafe3b4186f6b6457e060405160405180910390a380600260006101000a81548173ffffffffffffffffffffffffffffffffffffffff021916908373ffffffffffffffffffffffffffffffffffffffff16021790555050565b600080610eb06110d7565b90506000610ebc611164565b90506000821415610ed257600092505050610ef5565b6000811415610ee5578392505050610ef5565b610ef084828461116e565b925050505b919050565b6000610f0582611298565b9050919050565b600073ffffffffffffffffffffffffffffffffffffffff168373ffffffffffffffffffffffffffffffffffffffff161415610f7c576040517f08c379a0000000000000000000000000000000000000000000000000000000008152600401610f7390611d2c565b60405180910390fd5b600073ffffffffffffffffffffffffffffffffffffffff168273ffffffffffffffffffffffffffffffffffffffff161415610fec576040517f08c379a0000000000000000000000000000000000000000000000000000000008152600401610fe390611c6c565b60405180910390fd5b80600660008573ffffffffffffffffffffffffffffffffffffffff1673ffffffffffffffffffffffffffffffffffffffff16815260200190815260200160002060008473ffffffffffffffffffffffffffffffffffffffff1673ffffffffffffffffffffffffffffffffffffffff168152602001908152602001600020819055508173ffffffffffffffffffffffffffffffffffffffff168373ffffffffffffffffffffffffffffffffffffffff167f8c5be1e5ebec7d5bd14f71427d1e84f3dd0314c0f7b2291e5b200ac8c7c3b925836040516110ca9190611d6c565b60405180910390a3505050565b6000600454905090565b60006110ec82610ea5565b90506110f984848361144d565b8273ffffffffffffffffffffffffffffffffffffffff168473ffffffffffffffffffffffffffffffffffffffff167fddf252ad1be2c89b69c2b068fc378daa952ba7f163c4a11628f55a4df523b3ef846040516111569190611d6c565b60405180910390a350505050565b6000600354905090565b6000683635c9adc5dea000006111848484611666565b8561118f9190611e45565b6111999190611e14565b90509392505050565b600033905090565b60008073ffffffffffffffffffffffffffffffffffffffff168373ffffffffffffffffffffffffffffffffffffffff16141561121b576040517f08c379a000000000000000000000000000000000000000000000000000000000815260040161121290611d4c565b60405180910390fd5b816003546112299190611dbe565b905081600560008573ffffffffffffffffffffffffffffffffffffffff1673ffffffffffffffffffffffffffffffffffffffff168152602001908152602001600020600082825461127a9190611dbe565b925050819055508060038190555092915050565b8060048190555050565b6000600560008373ffffffffffffffffffffffffffffffffffffffff1673ffffffffffffffffffffffffffffffffffffffff168152602001908152602001600020549050919050565b60008073ffffffffffffffffffffffffffffffffffffffff168373ffffffffffffffffffffffffffffffffffffffff161415611352576040517f08c379a000000000000000000000000000000000000000000000000000000000815260040161134990611c2c565b60405180910390fd5b6000600560008573ffffffffffffffffffffffffffffffffffffffff1673ffffffffffffffffffffffffffffffffffffffff168152602001908152602001600020549050808311156113d9576040517f08c379a00000000000000000000000000000000000000000000000000000000081526004016113d090611ccc565b60405180910390fd5b826003546113e79190611e9f565b915082600560008673ffffffffffffffffffffffffffffffffffffffff1673ffffffffffffffffffffffffffffffffffffffff16815260200190815260200160002060008282546114389190611e9f565b92505081905550816003819055505092915050565b600073ffffffffffffffffffffffffffffffffffffffff168373ffffffffffffffffffffffffffffffffffffffff1614156114bd576040517f08c379a00000000000000000000000000000000000000000000000000000000081526004016114b490611c0c565b60405180910390fd5b600073ffffffffffffffffffffffffffffffffffffffff168273ffffffffffffffffffffffffffffffffffffffff16141561152d576040517f08c379a000000000000000000000000000000000000000000000000000000000815260040161152490611cac565b60405180910390fd5b6000600560008573ffffffffffffffffffffffffffffffffffffffff1673ffffffffffffffffffffffffffffffffffffffff168152602001908152602001600020549050808211156115b4576040517f08c379a00000000000000000000000000000000000000000000000000000000081526004016115ab90611d0c565b60405180910390fd5b81600560008673ffffffffffffffffffffffffffffffffffffffff1673ffffffffffffffffffffffffffffffffffffffff16815260200190815260200160002060008282546116039190611e9f565b9250508190555081600560008573ffffffffffffffffffffffffffffffffffffffff1673ffffffffffffffffffffffffffffffffffffffff16815260200190815260200160002060008282546116599190611dbe565b9250508190555050505050565b600081683635c9adc5dea000008461167e9190611e45565b6116889190611e14565b905092915050565b60008135905061169f8161202b565b92915050565b6000813590506116b481612042565b92915050565b6000602082840312156116cc57600080fd5b60006116da84828501611690565b91505092915050565b600080604083850312156116f657600080fd5b600061170485828601611690565b925050602061171585828601611690565b9150509250929050565b60008060006060848603121561173457600080fd5b600061174286828701611690565b935050602061175386828701611690565b9250506040611764868287016116a5565b9150509250925092565b6000806040838503121561178157600080fd5b600061178f85828601611690565b92505060206117a0858286016116a5565b9150509250929050565b6000602082840312156117bc57600080fd5b60006117ca848285016116a5565b91505092915050565b6117dc81611ed3565b82525050565b6117eb81611ee5565b82525050565b60006117fc82611da2565b6118068185611dad565b9350611816818560208601611f28565b61181f8161201a565b840191505092915050565b6000611837602183611dad565b91507f5452414e534645525f414d4f554e545f455843454544535f414c4c4f57414e4360008301527f45000000000000000000000000000000000000000000000000000000000000006020830152604082019050919050565b600061189d601e83611dad565b91507f5452414e534645525f46524f4d5f5448455f5a45524f5f4144445245535300006000830152602082019050919050565b60006118dd601a83611dad565b91507f4255524e5f46524f4d5f5448455f5a45524f5f414444524553530000000000006000830152602082019050919050565b600061191d602683611dad565b91507f4f776e61626c653a206e6577206f776e657220697320746865207a65726f206160008301527f64647265737300000000000000000000000000000000000000000000000000006020830152604082019050919050565b6000611983601783611dad565b91507f415050524f56455f544f5f5a45524f5f414444524553530000000000000000006000830152602082019050919050565b60006119c3601e83611dad565b91507f4445435245415345445f414c4c4f57414e43455f42454c4f575f5a45524f00006000830152602082019050919050565b6000611a03601c83611dad565b91507f5452414e534645525f544f5f5448455f5a45524f5f41444452455353000000006000830152602082019050919050565b6000611a43601b83611dad565b91507f4255524e5f414d4f554e545f455843454544535f42414c414e434500000000006000830152602082019050919050565b6000611a83602083611dad565b91507f4f776e61626c653a2063616c6c6572206973206e6f7420746865206f776e65726000830152602082019050919050565b6000611ac3601f83611dad565b91507f5452414e534645525f414d4f554e545f455843454544535f42414c414e4345006000830152602082019050919050565b6000611b03601983611dad565b91507f415050524f56455f46524f4d5f5a45524f5f41444452455353000000000000006000830152602082019050919050565b6000611b43601883611dad565b91507f4d494e545f544f5f5448455f5a45524f5f4144445245535300000000000000006000830152602082019050919050565b611b7f81611f11565b82525050565b611b8e81611f1b565b82525050565b6000602082019050611ba960008301846117d3565b92915050565b6000602082019050611bc460008301846117e2565b92915050565b60006020820190508181036000830152611be481846117f1565b905092915050565b60006020820190508181036000830152611c058161182a565b9050919050565b60006020820190508181036000830152611c2581611890565b9050919050565b60006020820190508181036000830152611c45816118d0565b9050919050565b60006020820190508181036000830152611c6581611910565b9050919050565b60006020820190508181036000830152611c8581611976565b9050919050565b60006020820190508181036000830152611ca5816119b6565b9050919050565b60006020820190508181036000830152611cc5816119f6565b9050919050565b60006020820190508181036000830152611ce581611a36565b9050919050565b60006020820190508181036000830152611d0581611a76565b9050919050565b60006020820190508181036000830152611d2581611ab6565b9050919050565b60006020820190508181036000830152611d4581611af6565b9050919050565b60006020820190508181036000830152611d6581611b36565b9050919050565b6000602082019050611d816000830184611b76565b92915050565b6000602082019050611d9c6000830184611b85565b92915050565b600081519050919050565b600082825260208201905092915050565b6000611dc982611f11565b9150611dd483611f11565b9250827fffffffffffffffffffffffffffffffffffffffffffffffffffffffffffffffff03821115611e0957611e08611f8d565b5b828201905092915050565b6000611e1f82611f11565b9150611e2a83611f11565b925082611e3a57611e39611fbc565b5b828204905092915050565b6000611e5082611f11565b9150611e5b83611f11565b9250817fffffffffffffffffffffffffffffffffffffffffffffffffffffffffffffffff0483118215151615611e9457611e93611f8d565b5b828202905092915050565b6000611eaa82611f11565b9150611eb583611f11565b925082821015611ec857611ec7611f8d565b5b828203905092915050565b6000611ede82611ef1565b9050919050565b60008115159050919050565b600073ffffffffffffffffffffffffffffffffffffffff82169050919050565b6000819050919050565b600060ff82169050919050565b60005b83811015611f46578082015181840152602081019050611f2b565b83811115611f55576000848401525b50505050565b60006002820490506001821680611f7357607f821691505b60208210811415611f8757611f86611feb565b5b50919050565b7f4e487b7100000000000000000000000000000000000000000000000000000000600052601160045260246000fd5b7f4e487b7100000000000000000000000000000000000000000000000000000000600052601260045260246000fd5b7f4e487b7100000000000000000000000000000000000000000000000000000000600052602260045260246000fd5b6000601f19601f8301169050919050565b61203481611ed3565b811461203f57600080fd5b50565b61204b81611f11565b811461205657600080fd5b5056fea26469706673582212208efb58851af57f63008eccede71cbf4f55f92c842e9e84a86624bcca60b193f064736f6c63430008000033",
  "devdoc": {
    "author": "Tenderize <info@tenderize.me>",
    "details": "TenderToken balances are dynamic and are calculated based on the accounts' shares and the total amount of Tokens controlled by the protocol. Account shares aren't normalized, so the contract also stores the sum of all shares to calculate each account's token balance which equals to: shares[account] * _getTotalPooledTokens() / _getTotalShares()",
    "kind": "dev",
    "methods": {
      "allowance(address,address)": {
        "details": "This value changes when `approve` or `transferFrom` is called.",
        "params": {
          "_owner": "address that approved the allowance",
          "_spender": "address that is allowed to spend the allowance"
        },
        "returns": {
          "_0": "amount '_spender' is allowed to spend from '_owner'"
        }
      },
      "approve(address,uint256)": {
        "details": "Emits an `Approval` event.Requirements: - `_spender` cannot be the zero address.The `_amount` argument is the amount of tokens, not shares.",
        "params": {
          "_amount": "amount of tokens to allow '_spender' to spend",
          "_spender": "address of the spender allowed to approve tokens from caller"
        },
        "returns": {
          "_0": "a boolean value indicating whether the operation succeeded."
        }
      },
      "balanceOf(address)": {
        "details": "Balances are dynamic and equal the `_account`'s share in the amount of the total Tokens controlled by the protocol. See `sharesOf`.",
        "params": {
          "_account": "address of the account to check the balance for"
        }
      },
      "burn(address,uint256)": {
        "details": "Only callable by contract ownerCalculates the amount of shares to destroy based on the specified '_amount' and destroy shares rather than burning tokens'_recipient' should also withdraw from Tenderizer atomically",
        "params": {
          "_account": "address to burn the tokens from",
          "_amount": "amount to burn"
        },
        "returns": {
          "_0": "a boolean value indicating whether the operation succeeded."
        }
      },
      "decimals()": {
        "returns": {
          "_0": "the number of decimals for getting user representation of a token amount."
        }
      },
      "decreaseAllowance(address,uint256)": {
        "details": "This is an alternative to `approve` that can be used as a mitigation for problems described in: https://github.com/OpenZeppelin/openzeppelin-contracts/blob/master/contracts/token/ERC20/IERC20.sol#L42Emits an `Approval` event indicating the updated allowance.Requirements: - `_spender` cannot be the zero address. - `_spender` must have allowance for the caller of at least `_subtractedValue`.",
        "params": {
          "_spender": "address of the spender allowed to approve tokens from caller",
          "_subtractedValue": "amount to subtract from current allowance"
        }
      },
      "getTotalPooledTokens()": {
        "details": "The sum of all Tokens balances in the protocol, equals to the total supply of TenderToken.",
        "returns": {
          "_0": "total amount of pooled tokens"
        }
      },
      "getTotalShares()": {
        "details": "The sum of all accounts' shares can be an arbitrary number, therefore it is necessary to store it in order to calculate each account's relative share.",
        "returns": {
          "_0": "total amount of shares"
        }
      },
      "increaseAllowance(address,uint256)": {
        "details": "This is an alternative to `approve` that can be used as a mitigation for problems described in: https://github.com/OpenZeppelin/openzeppelin-contracts/blob/master/contracts/token/ERC20/IERC20.sol#L42Emits an `Approval` event indicating the updated allowance.Requirements: - `_spender` cannot be the the zero address.",
        "params": {
          "_addedValue": "amount to add to allowance",
          "_spender": "address of the spender allowed to approve tokens from caller"
        }
      },
      "mint(address,uint256)": {
        "details": "Only callable by contract ownerCalculates the amount of shares to create based on the specified '_amount' and creates new shares rather than minting actual tokens'_recipient' should also deposit into Tenderizer atomically to prevent diluation of existing particpants",
        "params": {
          "_amount": "amount to mint",
          "_recipient": "address to mint tokens for"
        },
        "returns": {
          "_0": "a boolean value indicating whether the operation succeeded."
        }
      },
      "owner()": {
        "details": "Returns the address of the current owner."
      },
      "renounceOwnership()": {
        "details": "Leaves the contract without owner. It will not be possible to call `onlyOwner` functions anymore. Can only be called by the current owner. NOTE: Renouncing ownership will leave the contract without an owner, thereby removing any functionality that is only available to the owner."
      },
      "setTotalPooledTokens(uint256)": {
        "details": "Only callable by contract owner",
        "params": {
          "_newTotalPooledTokens": "new amount of total tokens controlled by the Tenderizer"
        }
      },
      "sharesOf(address)": {
        "params": {
          "_account": "address of the account"
        },
        "returns": {
          "_0": "the amount of shares owned by `_account`."
        }
      },
      "sharesToTokens(uint256)": {
        "params": {
          "_shares": "the amount of shares to calculate the amount of tokens for"
        },
        "returns": {
          "_0": "the amount of tokens represented by the shares"
        }
      },
      "tokensToShares(uint256)": {
        "params": {
          "_tokens": "amount of tokens to calculate shares for"
        },
        "returns": {
          "_0": "nominal amount of shares the tokens represent"
        }
      },
      "totalSupply()": {
        "details": "Always equals to `_getTotalPooledTokens()` since token amount is pegged to the total amount of Tokens controlled by the protocol.",
        "returns": {
          "_0": "total supply"
        }
      },
      "transfer(address,uint256)": {
        "details": "Emits a `Transfer` event.Requirements: - `_recipient` cannot be the zero address. - the caller must have a balance of at least `_amount`.The `_amount` argument is the amount of tokens, not shares.",
        "params": {
          "_amount": "amount of tokens to transfer",
          "_recipient": "address of the recipient"
        },
        "returns": {
          "_0": "a boolean value indicating whether the operation succeeded."
        }
      },
      "transferFrom(address,address,uint256)": {
        "details": "Emits a `Transfer` event.Emits an `Approval` event indicating the updated allowance.Requirements: - `_sender` and `_recipient` cannot be the zero addresses. - `_sender` must have a balance of at least `_amount`. - the caller must have allowance for `_sender`'s tokens of at least `_amount`.The `_amount` argument is the amount of tokens, not shares.",
        "params": {
          "_recipient": "address of the recipient",
          "_sender": "address of the account to transfer tokens from"
        },
        "returns": {
          "_0": "a boolean value indicating whether the operation succeeded."
        }
      },
      "transferOwnership(address)": {
        "details": "Transfers ownership of the contract to a new account (`newOwner`). Can only be called by the current owner."
      }
    },
    "stateVariables": {
      "allowances": {
        "details": "Allowances nominated in tokens, not token shares."
      },
      "shares": {
        "details": "Nominal amount of shares held by each account"
      },
      "totalPooledTokens": {
        "details": "Total amount of underlying tokens pooled"
      },
      "totalShares": {
        "details": "Total amount of outstanding shares"
      }
    },
    "title": "Interest-bearing ERC20-like token for Tenderize protocol.",
    "version": 1
  },
  "userdoc": {
    "kind": "user",
    "methods": {
      "allowance(address,address)": {
        "notice": "The remaining number of tokens that `_spender` is allowed to spend behalf of `_owner` through `transferFrom`. This is zero by default."
      },
      "approve(address,uint256)": {
        "notice": "Sets `_amount` as the allowance of `_spender` over the caller's tokens."
      },
      "balanceOf(address)": {
        "notice": "the amount of tokens owned by the `_account`."
      },
      "burn(address,uint256)": {
        "notice": "Burns '_amount' of tokens from '_recipient'"
      },
      "decimals()": {
        "notice": "The number of decimals the TenderToken uses"
      },
      "decreaseAllowance(address,uint256)": {
        "notice": "Atomically decreases the allowance granted to `_spender` by the caller by `_subtractedValue`."
      },
      "getTotalPooledTokens()": {
        "notice": "Total amount of underlying tokens controlled by the Tenderizer"
      },
      "getTotalShares()": {
        "notice": "The total amount of shares in existence."
      },
      "increaseAllowance(address,uint256)": {
        "notice": "Atomically increases the allowance granted to `_spender` by the caller by `_addedValue`."
      },
      "mint(address,uint256)": {
        "notice": "Mints '_amount' of tokens for '_recipient'"
      },
      "setTotalPooledTokens(uint256)": {
        "notice": "Sets the total amount of pooled tokens controlled by the Tenderizer"
      },
      "sharesOf(address)": {
        "notice": "The amount of shares owned by an account"
      },
      "sharesToTokens(uint256)": {
        "notice": "The amount of tokens that corresponds to `_shares` token shares."
      },
      "tokensToShares(uint256)": {
        "notice": "The amount of shares that corresponds to `_tokens` protocol-controlled Tokens."
      },
      "totalSupply()": {
        "notice": "The total supply of tender tokens in existence"
      },
      "transfer(address,uint256)": {
        "notice": "Transfers `_amount` tokens from the caller's account to the `_recipient` account."
      },
      "transferFrom(address,address,uint256)": {
        "notice": "Transfers `_amount` tokens from `_sender` to `_recipient` using the allowance mechanism. `_amount` is then deducted from the caller's allowance."
      }
    },
    "version": 1
  },
  "storageLayout": {
    "storage": [
      {
        "astId": 4776,
        "contract": "contracts/token/TenderToken.sol:TenderToken",
        "label": "_name",
        "offset": 0,
        "slot": "0",
        "type": "t_string_storage"
      },
      {
        "astId": 4778,
        "contract": "contracts/token/TenderToken.sol:TenderToken",
        "label": "_symbol",
        "offset": 0,
        "slot": "1",
        "type": "t_string_storage"
      },
      {
        "astId": 7,
        "contract": "contracts/token/TenderToken.sol:TenderToken",
        "label": "_owner",
        "offset": 0,
        "slot": "2",
        "type": "t_address"
      },
      {
        "astId": 4830,
        "contract": "contracts/token/TenderToken.sol:TenderToken",
        "label": "totalShares",
        "offset": 0,
        "slot": "3",
        "type": "t_uint256"
      },
      {
        "astId": 4833,
        "contract": "contracts/token/TenderToken.sol:TenderToken",
        "label": "totalPooledTokens",
        "offset": 0,
        "slot": "4",
        "type": "t_uint256"
      },
      {
        "astId": 4838,
        "contract": "contracts/token/TenderToken.sol:TenderToken",
        "label": "shares",
        "offset": 0,
        "slot": "5",
        "type": "t_mapping(t_address,t_uint256)"
      },
      {
        "astId": 4845,
        "contract": "contracts/token/TenderToken.sol:TenderToken",
        "label": "allowances",
        "offset": 0,
        "slot": "6",
        "type": "t_mapping(t_address,t_mapping(t_address,t_uint256))"
      }
    ],
    "types": {
      "t_address": {
        "encoding": "inplace",
        "label": "address",
        "numberOfBytes": "20"
      },
      "t_mapping(t_address,t_mapping(t_address,t_uint256))": {
        "encoding": "mapping",
        "key": "t_address",
        "label": "mapping(address => mapping(address => uint256))",
        "numberOfBytes": "32",
        "value": "t_mapping(t_address,t_uint256)"
      },
      "t_mapping(t_address,t_uint256)": {
        "encoding": "mapping",
        "key": "t_address",
        "label": "mapping(address => uint256)",
        "numberOfBytes": "32",
        "value": "t_uint256"
      },
      "t_string_storage": {
        "encoding": "bytes",
        "label": "string",
        "numberOfBytes": "32"
      },
      "t_uint256": {
        "encoding": "inplace",
        "label": "uint256",
        "numberOfBytes": "32"
      }
    }
  }
}