{
  "address": "0x99e3A045Fb28E44d23e1eDBa6ED0d49F4Db38d47",
  "abi": [
    {
      "inputs": [
        {
          "internalType": "address",
          "name": "_token",
          "type": "address"
        },
        {
          "internalType": "uint256",
          "name": "_requestAmount",
          "type": "uint256"
        },
        {
          "internalType": "uint256",
          "name": "_requestWait",
          "type": "uint256"
        }
      ],
      "stateMutability": "nonpayable",
      "type": "constructor"
    },
    {
      "anonymous": false,
      "inputs": [
        {
          "indexed": true,
          "internalType": "address",
          "name": "previousOwner",
          "type": "address"
        },
        {
          "indexed": true,
          "internalType": "address",
          "name": "newOwner",
          "type": "address"
        }
      ],
      "name": "OwnershipTransferred",
      "type": "event"
    },
    {
      "anonymous": false,
      "inputs": [
        {
          "indexed": true,
          "internalType": "address",
          "name": "to",
          "type": "address"
        },
        {
          "indexed": false,
          "internalType": "uint256",
          "name": "amount",
          "type": "uint256"
        }
      ],
      "name": "Request",
      "type": "event"
    },
    {
      "inputs": [
        {
          "internalType": "address",
          "name": "_addr",
          "type": "address"
        }
      ],
      "name": "addToWhitelist",
      "outputs": [],
      "stateMutability": "nonpayable",
      "type": "function"
    },
    {
      "inputs": [
        {
          "internalType": "address",
          "name": "",
          "type": "address"
        }
      ],
      "name": "isWhitelisted",
      "outputs": [
        {
          "internalType": "bool",
          "name": "",
          "type": "bool"
        }
      ],
      "stateMutability": "view",
      "type": "function"
    },
    {
      "inputs": [
        {
          "internalType": "address",
          "name": "",
          "type": "address"
        }
      ],
      "name": "nextValidRequest",
      "outputs": [
        {
          "internalType": "uint256",
          "name": "",
          "type": "uint256"
        }
      ],
      "stateMutability": "view",
      "type": "function"
    },
    {
      "inputs": [],
      "name": "owner",
      "outputs": [
        {
          "internalType": "address",
          "name": "",
          "type": "address"
        }
      ],
      "stateMutability": "view",
      "type": "function"
    },
    {
      "inputs": [
        {
          "internalType": "address",
          "name": "_addr",
          "type": "address"
        }
      ],
      "name": "removeFromWhitelist",
      "outputs": [],
      "stateMutability": "nonpayable",
      "type": "function"
    },
    {
      "inputs": [],
      "name": "renounceOwnership",
      "outputs": [],
      "stateMutability": "nonpayable",
      "type": "function"
    },
    {
      "inputs": [],
      "name": "request",
      "outputs": [],
      "stateMutability": "nonpayable",
      "type": "function"
    },
    {
      "inputs": [],
      "name": "requestAmount",
      "outputs": [
        {
          "internalType": "uint256",
          "name": "",
          "type": "uint256"
        }
      ],
      "stateMutability": "view",
      "type": "function"
    },
    {
      "inputs": [],
      "name": "requestWait",
      "outputs": [
        {
          "internalType": "uint256",
          "name": "",
          "type": "uint256"
        }
      ],
      "stateMutability": "view",
      "type": "function"
    },
    {
      "inputs": [],
      "name": "token",
      "outputs": [
        {
          "internalType": "contract ERC20",
          "name": "",
          "type": "address"
        }
      ],
      "stateMutability": "view",
      "type": "function"
    },
    {
      "inputs": [
        {
          "internalType": "address",
          "name": "newOwner",
          "type": "address"
        }
      ],
      "name": "transferOwnership",
      "outputs": [],
      "stateMutability": "nonpayable",
      "type": "function"
    }
  ],
  "transactionHash": "0x160907666742fa58953064a770a8d5355399d1305b0c7d51fc0b427c1a3bf453",
  "args": [
    "0xe80110C0a290c493C543148c5445a23D3403a096",
    "10000000000000000000",
    1
  ],
  "solcInputHash": "a9f830c0f7a81c19f770a0b97bdb89ad",
  "bytecode": "0x60806040523480156200001157600080fd5b5060405162000fae38038062000fae833981810160405281019062000037919062000175565b6000620000496200013f60201b60201c565b9050806000806101000a81548173ffffffffffffffffffffffffffffffffffffffff021916908373ffffffffffffffffffffffffffffffffffffffff1602179055508073ffffffffffffffffffffffffffffffffffffffff16600073ffffffffffffffffffffffffffffffffffffffff167f8be0079c531659141344cd1fd0a4f28419497f9722a3daafe3b4186f6b6457e060405160405180910390a35082600160006101000a81548173ffffffffffffffffffffffffffffffffffffffff021916908373ffffffffffffffffffffffffffffffffffffffff16021790555081600281905550806003819055505050506200023d565b600033905090565b600081519050620001588162000209565b92915050565b6000815190506200016f8162000223565b92915050565b6000806000606084860312156200018b57600080fd5b60006200019b8682870162000147565b9350506020620001ae868287016200015e565b9250506040620001c1868287016200015e565b9150509250925092565b6000620001d882620001df565b9050919050565b600073ffffffffffffffffffffffffffffffffffffffff82169050919050565b6000819050919050565b6200021481620001cb565b81146200022057600080fd5b50565b6200022e81620001ff565b81146200023a57600080fd5b50565b610d61806200024d6000396000f3fe608060405234801561001057600080fd5b50600436106100a95760003560e01c80638ab1d681116100715780638ab1d681146101405780638da5cb5b1461015c578063e43252d71461017a578063f2fde38b14610196578063f52ec46c146101b2578063fc0c546a146101d0576100a9565b80630d6c51b3146100ae578063207f5ce6146100cc578063338cdca1146100fc5780633af32abf14610106578063715018a614610136575b600080fd5b6100b66101ee565b6040516100c39190610b86565b60405180910390f35b6100e660048036038101906100e19190610998565b6101f4565b6040516100f39190610b86565b60405180910390f35b61010461020c565b005b610120600480360381019061011b9190610998565b610460565b60405161012d9190610b10565b60405180910390f35b61013e610480565b005b61015a60048036038101906101559190610998565b6105ba565b005b610164610691565b6040516101719190610acc565b60405180910390f35b610194600480360381019061018f9190610998565b6106ba565b005b6101b060048036038101906101ab9190610998565b610791565b005b6101ba61093a565b6040516101c79190610b86565b60405180910390f35b6101d8610940565b6040516101e59190610b2b565b60405180910390f35b60035481565b60046020528060005260406000206000915090505481565b600560003373ffffffffffffffffffffffffffffffffffffffff1673ffffffffffffffffffffffffffffffffffffffff16815260200190815260200160002060009054906101000a900460ff16806102a35750600460003373ffffffffffffffffffffffffffffffffffffffff1673ffffffffffffffffffffffffffffffffffffffff168152602001908152602001600020544210155b6102ac57600080fd5b600560003373ffffffffffffffffffffffffffffffffffffffff1673ffffffffffffffffffffffffffffffffffffffff16815260200190815260200160002060009054906101000a900460ff1661035c57610e1060035461030d9190610c08565b426103189190610bb2565b600460003373ffffffffffffffffffffffffffffffffffffffff1673ffffffffffffffffffffffffffffffffffffffff168152602001908152602001600020819055505b600160009054906101000a900473ffffffffffffffffffffffffffffffffffffffff1673ffffffffffffffffffffffffffffffffffffffff1663a9059cbb336002546040518363ffffffff1660e01b81526004016103bb929190610ae7565b602060405180830381600087803b1580156103d557600080fd5b505af11580156103e9573d6000803e3d6000fd5b505050506040513d601f19601f8201168201806040525081019061040d91906109c1565b503373ffffffffffffffffffffffffffffffffffffffff167fe31c60e37ab1301f69f01b436a1d13486e6c16cc22c888a08c0e64a39230b6ac6002546040516104569190610b86565b60405180910390a2565b60056020528060005260406000206000915054906101000a900460ff1681565b610488610966565b73ffffffffffffffffffffffffffffffffffffffff166104a6610691565b73ffffffffffffffffffffffffffffffffffffffff16146104fc576040517f08c379a00000000000000000000000000000000000000000000000000000000081526004016104f390610b66565b60405180910390fd5b600073ffffffffffffffffffffffffffffffffffffffff1660008054906101000a900473ffffffffffffffffffffffffffffffffffffffff1673ffffffffffffffffffffffffffffffffffffffff167f8be0079c531659141344cd1fd0a4f28419497f9722a3daafe3b4186f6b6457e060405160405180910390a360008060006101000a81548173ffffffffffffffffffffffffffffffffffffffff021916908373ffffffffffffffffffffffffffffffffffffffff160217905550565b6105c2610966565b73ffffffffffffffffffffffffffffffffffffffff166105e0610691565b73ffffffffffffffffffffffffffffffffffffffff1614610636576040517f08c379a000000000000000000000000000000000000000000000000000000000815260040161062d90610b66565b60405180910390fd5b6000600560008373ffffffffffffffffffffffffffffffffffffffff1673ffffffffffffffffffffffffffffffffffffffff16815260200190815260200160002060006101000a81548160ff02191690831515021790555050565b60008060009054906101000a900473ffffffffffffffffffffffffffffffffffffffff16905090565b6106c2610966565b73ffffffffffffffffffffffffffffffffffffffff166106e0610691565b73ffffffffffffffffffffffffffffffffffffffff1614610736576040517f08c379a000000000000000000000000000000000000000000000000000000000815260040161072d90610b66565b60405180910390fd5b6001600560008373ffffffffffffffffffffffffffffffffffffffff1673ffffffffffffffffffffffffffffffffffffffff16815260200190815260200160002060006101000a81548160ff02191690831515021790555050565b610799610966565b73ffffffffffffffffffffffffffffffffffffffff166107b7610691565b73ffffffffffffffffffffffffffffffffffffffff161461080d576040517f08c379a000000000000000000000000000000000000000000000000000000000815260040161080490610b66565b60405180910390fd5b600073ffffffffffffffffffffffffffffffffffffffff168173ffffffffffffffffffffffffffffffffffffffff16141561087d576040517f08c379a000000000000000000000000000000000000000000000000000000000815260040161087490610b46565b60405180910390fd5b8073ffffffffffffffffffffffffffffffffffffffff1660008054906101000a900473ffffffffffffffffffffffffffffffffffffffff1673ffffffffffffffffffffffffffffffffffffffff167f8be0079c531659141344cd1fd0a4f28419497f9722a3daafe3b4186f6b6457e060405160405180910390a3806000806101000a81548173ffffffffffffffffffffffffffffffffffffffff021916908373ffffffffffffffffffffffffffffffffffffffff16021790555050565b60025481565b600160009054906101000a900473ffffffffffffffffffffffffffffffffffffffff1681565b600033905090565b60008135905061097d81610cfd565b92915050565b60008151905061099281610d14565b92915050565b6000602082840312156109aa57600080fd5b60006109b88482850161096e565b91505092915050565b6000602082840312156109d357600080fd5b60006109e184828501610983565b91505092915050565b6109f381610c62565b82525050565b610a0281610c74565b82525050565b610a1181610caa565b82525050565b6000610a24602683610ba1565b91507f4f776e61626c653a206e6577206f776e657220697320746865207a65726f206160008301527f64647265737300000000000000000000000000000000000000000000000000006020830152604082019050919050565b6000610a8a602083610ba1565b91507f4f776e61626c653a2063616c6c6572206973206e6f7420746865206f776e65726000830152602082019050919050565b610ac681610ca0565b82525050565b6000602082019050610ae160008301846109ea565b92915050565b6000604082019050610afc60008301856109ea565b610b096020830184610abd565b9392505050565b6000602082019050610b2560008301846109f9565b92915050565b6000602082019050610b406000830184610a08565b92915050565b60006020820190508181036000830152610b5f81610a17565b9050919050565b60006020820190508181036000830152610b7f81610a7d565b9050919050565b6000602082019050610b9b6000830184610abd565b92915050565b600082825260208201905092915050565b6000610bbd82610ca0565b9150610bc883610ca0565b9250827fffffffffffffffffffffffffffffffffffffffffffffffffffffffffffffffff03821115610bfd57610bfc610cce565b5b828201905092915050565b6000610c1382610ca0565b9150610c1e83610ca0565b9250817fffffffffffffffffffffffffffffffffffffffffffffffffffffffffffffffff0483118215151615610c5757610c56610cce565b5b828202905092915050565b6000610c6d82610c80565b9050919050565b60008115159050919050565b600073ffffffffffffffffffffffffffffffffffffffff82169050919050565b6000819050919050565b6000610cb582610cbc565b9050919050565b6000610cc782610c80565b9050919050565b7f4e487b7100000000000000000000000000000000000000000000000000000000600052601160045260246000fd5b610d0681610c62565b8114610d1157600080fd5b50565b610d1d81610c74565b8114610d2857600080fd5b5056fea2646970667358221220115079d1c7c476405c72eca08a8d45ebfdb493b84a994f1c5f3dbc7b4156acf964736f6c63430008000033",
  "devdoc": {
    "kind": "dev",
    "methods": {
      "addToWhitelist(address)": {
        "params": {
          "_addr": "Address to be whitelisted"
        }
      },
      "constructor": {
        "params": {
          "_requestAmount": "Amount of token sent to sender for a request",
          "_requestWait": "Amount of time a sender must wait between request (denominated in hours)",
          "_token": "Address of Token"
        }
      },
      "owner()": {
        "details": "Returns the address of the current owner."
      },
      "removeFromWhitelist(address)": {
        "params": {
          "_addr": "Address to be removed from whitelist"
        }
      },
      "renounceOwnership()": {
        "details": "Leaves the contract without owner. It will not be possible to call `onlyOwner` functions anymore. Can only be called by the current owner. NOTE: Renouncing ownership will leave the contract without an owner, thereby removing any functionality that is only available to the owner."
      },
      "transferOwnership(address)": {
        "details": "Transfers ownership of the contract to a new account (`newOwner`). Can only be called by the current owner."
      }
    },
    "title": "Faucet for the Tokens",
    "version": 1
  },
  "userdoc": {
    "kind": "user",
    "methods": {
      "addToWhitelist(address)": {
        "notice": "Add an address to the whitelist"
      },
      "constructor": {
        "notice": "Facuet constructor"
      },
      "removeFromWhitelist(address)": {
        "notice": "Remove an address from the whitelist"
      },
      "request()": {
        "notice": "Request an amount of token to be sent to sender"
      }
    },
    "version": 1
  },
  "storageLayout": {
    "storage": [
      {
        "astId": 7,
        "contract": "contracts/Faucet.sol:TokenFaucet",
        "label": "_owner",
        "offset": 0,
        "slot": "0",
        "type": "t_address"
      },
      {
        "astId": 1259,
        "contract": "contracts/Faucet.sol:TokenFaucet",
        "label": "token",
        "offset": 0,
        "slot": "1",
        "type": "t_contract(ERC20)662"
      },
      {
        "astId": 1261,
        "contract": "contracts/Faucet.sol:TokenFaucet",
        "label": "requestAmount",
        "offset": 0,
        "slot": "2",
        "type": "t_uint256"
      },
      {
        "astId": 1263,
        "contract": "contracts/Faucet.sol:TokenFaucet",
        "label": "requestWait",
        "offset": 0,
        "slot": "3",
        "type": "t_uint256"
      },
      {
        "astId": 1267,
        "contract": "contracts/Faucet.sol:TokenFaucet",
        "label": "nextValidRequest",
        "offset": 0,
        "slot": "4",
        "type": "t_mapping(t_address,t_uint256)"
      },
      {
        "astId": 1271,
        "contract": "contracts/Faucet.sol:TokenFaucet",
        "label": "isWhitelisted",
        "offset": 0,
        "slot": "5",
        "type": "t_mapping(t_address,t_bool)"
      }
    ],
    "types": {
      "t_address": {
        "encoding": "inplace",
        "label": "address",
        "numberOfBytes": "20"
      },
      "t_bool": {
        "encoding": "inplace",
        "label": "bool",
        "numberOfBytes": "1"
      },
      "t_contract(ERC20)662": {
        "encoding": "inplace",
        "label": "contract ERC20",
        "numberOfBytes": "20"
      },
      "t_mapping(t_address,t_bool)": {
        "encoding": "mapping",
        "key": "t_address",
        "label": "mapping(address => bool)",
        "numberOfBytes": "32",
        "value": "t_bool"
      },
      "t_mapping(t_address,t_uint256)": {
        "encoding": "mapping",
        "key": "t_address",
        "label": "mapping(address => uint256)",
        "numberOfBytes": "32",
        "value": "t_uint256"
      },
      "t_uint256": {
        "encoding": "inplace",
        "label": "uint256",
        "numberOfBytes": "32"
      }
    }
  }
}