{
  "address": "0x1388d52b297308E1b9554295F8ed28D0fF335DFA",
  "abi": [
    {
      "inputs": [
        {
          "internalType": "address",
          "name": "_token",
          "type": "address"
        },
        {
          "internalType": "uint256",
          "name": "_requestAmount",
          "type": "uint256"
        },
        {
          "internalType": "uint256",
          "name": "_requestWait",
          "type": "uint256"
        }
      ],
      "stateMutability": "nonpayable",
      "type": "constructor"
    },
    {
      "anonymous": false,
      "inputs": [
        {
          "indexed": true,
          "internalType": "address",
          "name": "previousOwner",
          "type": "address"
        },
        {
          "indexed": true,
          "internalType": "address",
          "name": "newOwner",
          "type": "address"
        }
      ],
      "name": "OwnershipTransferred",
      "type": "event"
    },
    {
      "anonymous": false,
      "inputs": [
        {
          "indexed": true,
          "internalType": "address",
          "name": "to",
          "type": "address"
        },
        {
          "indexed": false,
          "internalType": "uint256",
          "name": "amount",
          "type": "uint256"
        }
      ],
      "name": "Request",
      "type": "event"
    },
    {
      "inputs": [
        {
          "internalType": "address",
          "name": "_addr",
          "type": "address"
        }
      ],
      "name": "addToWhitelist",
      "outputs": [],
      "stateMutability": "nonpayable",
      "type": "function"
    },
    {
      "inputs": [
        {
          "internalType": "address",
          "name": "",
          "type": "address"
        }
      ],
      "name": "isWhitelisted",
      "outputs": [
        {
          "internalType": "bool",
          "name": "",
          "type": "bool"
        }
      ],
      "stateMutability": "view",
      "type": "function"
    },
    {
      "inputs": [
        {
          "internalType": "address",
          "name": "",
          "type": "address"
        }
      ],
      "name": "nextValidRequest",
      "outputs": [
        {
          "internalType": "uint256",
          "name": "",
          "type": "uint256"
        }
      ],
      "stateMutability": "view",
      "type": "function"
    },
    {
      "inputs": [],
      "name": "owner",
      "outputs": [
        {
          "internalType": "address",
          "name": "",
          "type": "address"
        }
      ],
      "stateMutability": "view",
      "type": "function"
    },
    {
      "inputs": [
        {
          "internalType": "address",
          "name": "_addr",
          "type": "address"
        }
      ],
      "name": "removeFromWhitelist",
      "outputs": [],
      "stateMutability": "nonpayable",
      "type": "function"
    },
    {
      "inputs": [],
      "name": "renounceOwnership",
      "outputs": [],
      "stateMutability": "nonpayable",
      "type": "function"
    },
    {
      "inputs": [],
      "name": "request",
      "outputs": [],
      "stateMutability": "nonpayable",
      "type": "function"
    },
    {
      "inputs": [],
      "name": "requestAmount",
      "outputs": [
        {
          "internalType": "uint256",
          "name": "",
          "type": "uint256"
        }
      ],
      "stateMutability": "view",
      "type": "function"
    },
    {
      "inputs": [],
      "name": "requestWait",
      "outputs": [
        {
          "internalType": "uint256",
          "name": "",
          "type": "uint256"
        }
      ],
      "stateMutability": "view",
      "type": "function"
    },
    {
      "inputs": [],
      "name": "token",
      "outputs": [
        {
          "internalType": "contract ERC20",
          "name": "",
          "type": "address"
        }
      ],
      "stateMutability": "view",
      "type": "function"
    },
    {
      "inputs": [
        {
          "internalType": "address",
          "name": "newOwner",
          "type": "address"
        }
      ],
      "name": "transferOwnership",
      "outputs": [],
      "stateMutability": "nonpayable",
      "type": "function"
    }
  ],
  "transactionHash": "0xbc2552be0d527b09bed53e7a24cbc9d70721c47834387becd9cb9be684a84ba3",
  "args": [
    "0x53466090C5bfba99B147aB0c43E212e6E8a3Fb90",
    "100000000000000000000",
    1
  ],
  "solcInputHash": "6587a93a5a329e2f88ebf3285591de3a",
  "bytecode": "0x60806040523480156200001157600080fd5b5060405162000f5b38038062000f5b8339818101604052810190620000379190620001a9565b620000576200004b620000af60201b60201c565b620000b760201b60201c565b82600160006101000a81548173ffffffffffffffffffffffffffffffffffffffff021916908373ffffffffffffffffffffffffffffffffffffffff160217905550816002819055508060038190555050505062000271565b600033905090565b60008060009054906101000a900473ffffffffffffffffffffffffffffffffffffffff169050816000806101000a81548173ffffffffffffffffffffffffffffffffffffffff021916908373ffffffffffffffffffffffffffffffffffffffff1602179055508173ffffffffffffffffffffffffffffffffffffffff168173ffffffffffffffffffffffffffffffffffffffff167f8be0079c531659141344cd1fd0a4f28419497f9722a3daafe3b4186f6b6457e060405160405180910390a35050565b6000815190506200018c816200023d565b92915050565b600081519050620001a38162000257565b92915050565b600080600060608486031215620001bf57600080fd5b6000620001cf868287016200017b565b9350506020620001e28682870162000192565b9250506040620001f58682870162000192565b9150509250925092565b60006200020c8262000213565b9050919050565b600073ffffffffffffffffffffffffffffffffffffffff82169050919050565b6000819050919050565b6200024881620001ff565b81146200025457600080fd5b50565b620002628162000233565b81146200026e57600080fd5b50565b610cda80620002816000396000f3fe608060405234801561001057600080fd5b50600436106100a95760003560e01c80638ab1d681116100715780638ab1d681146101405780638da5cb5b1461015c578063e43252d71461017a578063f2fde38b14610196578063f52ec46c146101b2578063fc0c546a146101d0576100a9565b80630d6c51b3146100ae578063207f5ce6146100cc578063338cdca1146100fc5780633af32abf14610106578063715018a614610136575b600080fd5b6100b66101ee565b6040516100c39190610a87565b60405180910390f35b6100e660048036038101906100e191906108f9565b6101f4565b6040516100f39190610a87565b60405180910390f35b61010461020c565b005b610120600480360381019061011b91906108f9565b610460565b60405161012d9190610a11565b60405180910390f35b61013e610480565b005b61015a600480360381019061015591906108f9565b610508565b005b6101646105df565b60405161017191906109cd565b60405180910390f35b610194600480360381019061018f91906108f9565b610608565b005b6101b060048036038101906101ab91906108f9565b6106df565b005b6101ba6107d7565b6040516101c79190610a87565b60405180910390f35b6101d86107dd565b6040516101e59190610a2c565b60405180910390f35b60035481565b60046020528060005260406000206000915090505481565b600560003373ffffffffffffffffffffffffffffffffffffffff1673ffffffffffffffffffffffffffffffffffffffff16815260200190815260200160002060009054906101000a900460ff16806102a35750600460003373ffffffffffffffffffffffffffffffffffffffff1673ffffffffffffffffffffffffffffffffffffffff168152602001908152602001600020544210155b6102ac57600080fd5b600560003373ffffffffffffffffffffffffffffffffffffffff1673ffffffffffffffffffffffffffffffffffffffff16815260200190815260200160002060009054906101000a900460ff1661035c57610e1060035461030d9190610b09565b426103189190610ab3565b600460003373ffffffffffffffffffffffffffffffffffffffff1673ffffffffffffffffffffffffffffffffffffffff168152602001908152602001600020819055505b600160009054906101000a900473ffffffffffffffffffffffffffffffffffffffff1673ffffffffffffffffffffffffffffffffffffffff1663a9059cbb336002546040518363ffffffff1660e01b81526004016103bb9291906109e8565b602060405180830381600087803b1580156103d557600080fd5b505af11580156103e9573d6000803e3d6000fd5b505050506040513d601f19601f8201168201806040525081019061040d9190610922565b503373ffffffffffffffffffffffffffffffffffffffff167fe31c60e37ab1301f69f01b436a1d13486e6c16cc22c888a08c0e64a39230b6ac6002546040516104569190610a87565b60405180910390a2565b60056020528060005260406000206000915054906101000a900460ff1681565b610488610803565b73ffffffffffffffffffffffffffffffffffffffff166104a66105df565b73ffffffffffffffffffffffffffffffffffffffff16146104fc576040517f08c379a00000000000000000000000000000000000000000000000000000000081526004016104f390610a67565b60405180910390fd5b610506600061080b565b565b610510610803565b73ffffffffffffffffffffffffffffffffffffffff1661052e6105df565b73ffffffffffffffffffffffffffffffffffffffff1614610584576040517f08c379a000000000000000000000000000000000000000000000000000000000815260040161057b90610a67565b60405180910390fd5b6000600560008373ffffffffffffffffffffffffffffffffffffffff1673ffffffffffffffffffffffffffffffffffffffff16815260200190815260200160002060006101000a81548160ff02191690831515021790555050565b60008060009054906101000a900473ffffffffffffffffffffffffffffffffffffffff16905090565b610610610803565b73ffffffffffffffffffffffffffffffffffffffff1661062e6105df565b73ffffffffffffffffffffffffffffffffffffffff1614610684576040517f08c379a000000000000000000000000000000000000000000000000000000000815260040161067b90610a67565b60405180910390fd5b6001600560008373ffffffffffffffffffffffffffffffffffffffff1673ffffffffffffffffffffffffffffffffffffffff16815260200190815260200160002060006101000a81548160ff02191690831515021790555050565b6106e7610803565b73ffffffffffffffffffffffffffffffffffffffff166107056105df565b73ffffffffffffffffffffffffffffffffffffffff161461075b576040517f08c379a000000000000000000000000000000000000000000000000000000000815260040161075290610a67565b60405180910390fd5b600073ffffffffffffffffffffffffffffffffffffffff168173ffffffffffffffffffffffffffffffffffffffff1614156107cb576040517f08c379a00000000000000000000000000000000000000000000000000000000081526004016107c290610a47565b60405180910390fd5b6107d48161080b565b50565b60025481565b600160009054906101000a900473ffffffffffffffffffffffffffffffffffffffff1681565b600033905090565b60008060009054906101000a900473ffffffffffffffffffffffffffffffffffffffff169050816000806101000a81548173ffffffffffffffffffffffffffffffffffffffff021916908373ffffffffffffffffffffffffffffffffffffffff1602179055508173ffffffffffffffffffffffffffffffffffffffff168173ffffffffffffffffffffffffffffffffffffffff167f8be0079c531659141344cd1fd0a4f28419497f9722a3daafe3b4186f6b6457e060405160405180910390a35050565b6000813590506108de81610c76565b92915050565b6000815190506108f381610c8d565b92915050565b60006020828403121561090b57600080fd5b6000610919848285016108cf565b91505092915050565b60006020828403121561093457600080fd5b6000610942848285016108e4565b91505092915050565b61095481610b63565b82525050565b61096381610b75565b82525050565b61097281610bab565b82525050565b6000610985602683610aa2565b915061099082610bfe565b604082019050919050565b60006109a8602083610aa2565b91506109b382610c4d565b602082019050919050565b6109c781610ba1565b82525050565b60006020820190506109e2600083018461094b565b92915050565b60006040820190506109fd600083018561094b565b610a0a60208301846109be565b9392505050565b6000602082019050610a26600083018461095a565b92915050565b6000602082019050610a416000830184610969565b92915050565b60006020820190508181036000830152610a6081610978565b9050919050565b60006020820190508181036000830152610a808161099b565b9050919050565b6000602082019050610a9c60008301846109be565b92915050565b600082825260208201905092915050565b6000610abe82610ba1565b9150610ac983610ba1565b9250827fffffffffffffffffffffffffffffffffffffffffffffffffffffffffffffffff03821115610afe57610afd610bcf565b5b828201905092915050565b6000610b1482610ba1565b9150610b1f83610ba1565b9250817fffffffffffffffffffffffffffffffffffffffffffffffffffffffffffffffff0483118215151615610b5857610b57610bcf565b5b828202905092915050565b6000610b6e82610b81565b9050919050565b60008115159050919050565b600073ffffffffffffffffffffffffffffffffffffffff82169050919050565b6000819050919050565b6000610bb682610bbd565b9050919050565b6000610bc882610b81565b9050919050565b7f4e487b7100000000000000000000000000000000000000000000000000000000600052601160045260246000fd5b7f4f776e61626c653a206e6577206f776e657220697320746865207a65726f206160008201527f6464726573730000000000000000000000000000000000000000000000000000602082015250565b7f4f776e61626c653a2063616c6c6572206973206e6f7420746865206f776e6572600082015250565b610c7f81610b63565b8114610c8a57600080fd5b50565b610c9681610b75565b8114610ca157600080fd5b5056fea26469706673582212205afae196e3a10bcc6c5d929ac7112300428d3c57f3e74f4a4ee14fb5ecd69cb764736f6c63430008040033",
  "devdoc": {
    "kind": "dev",
    "methods": {
      "addToWhitelist(address)": {
        "params": {
          "_addr": "Address to be whitelisted"
        }
      },
      "constructor": {
        "params": {
          "_requestAmount": "Amount of token sent to sender for a request",
          "_requestWait": "Amount of time a sender must wait between request (denominated in hours)",
          "_token": "Address of Token"
        }
      },
      "owner()": {
        "details": "Returns the address of the current owner."
      },
      "removeFromWhitelist(address)": {
        "params": {
          "_addr": "Address to be removed from whitelist"
        }
      },
      "renounceOwnership()": {
        "details": "Leaves the contract without owner. It will not be possible to call `onlyOwner` functions anymore. Can only be called by the current owner. NOTE: Renouncing ownership will leave the contract without an owner, thereby removing any functionality that is only available to the owner."
      },
      "transferOwnership(address)": {
        "details": "Transfers ownership of the contract to a new account (`newOwner`). Can only be called by the current owner."
      }
    },
    "title": "Faucet for the Tokens",
    "version": 1
  },
  "userdoc": {
    "kind": "user",
    "methods": {
      "addToWhitelist(address)": {
        "notice": "Add an address to the whitelist"
      },
      "constructor": {
        "notice": "Facuet constructor"
      },
      "removeFromWhitelist(address)": {
        "notice": "Remove an address from the whitelist"
      },
      "request()": {
        "notice": "Request an amount of token to be sent to sender"
      }
    },
    "version": 1
  },
  "storageLayout": {
    "storage": [
      {
        "astId": 1866,
        "contract": "contracts/helpers/Faucet.sol:TokenFaucet",
        "label": "_owner",
        "offset": 0,
        "slot": "0",
        "type": "t_address"
      },
      {
        "astId": 4188,
        "contract": "contracts/helpers/Faucet.sol:TokenFaucet",
        "label": "token",
        "offset": 0,
        "slot": "1",
        "type": "t_contract(ERC20)2634"
      },
      {
        "astId": 4190,
        "contract": "contracts/helpers/Faucet.sol:TokenFaucet",
        "label": "requestAmount",
        "offset": 0,
        "slot": "2",
        "type": "t_uint256"
      },
      {
        "astId": 4192,
        "contract": "contracts/helpers/Faucet.sol:TokenFaucet",
        "label": "requestWait",
        "offset": 0,
        "slot": "3",
        "type": "t_uint256"
      },
      {
        "astId": 4196,
        "contract": "contracts/helpers/Faucet.sol:TokenFaucet",
        "label": "nextValidRequest",
        "offset": 0,
        "slot": "4",
        "type": "t_mapping(t_address,t_uint256)"
      },
      {
        "astId": 4200,
        "contract": "contracts/helpers/Faucet.sol:TokenFaucet",
        "label": "isWhitelisted",
        "offset": 0,
        "slot": "5",
        "type": "t_mapping(t_address,t_bool)"
      }
    ],
    "types": {
      "t_address": {
        "encoding": "inplace",
        "label": "address",
        "numberOfBytes": "20"
      },
      "t_bool": {
        "encoding": "inplace",
        "label": "bool",
        "numberOfBytes": "1"
      },
      "t_contract(ERC20)2634": {
        "encoding": "inplace",
        "label": "contract ERC20",
        "numberOfBytes": "20"
      },
      "t_mapping(t_address,t_bool)": {
        "encoding": "mapping",
        "key": "t_address",
        "label": "mapping(address => bool)",
        "numberOfBytes": "32",
        "value": "t_bool"
      },
      "t_mapping(t_address,t_uint256)": {
        "encoding": "mapping",
        "key": "t_address",
        "label": "mapping(address => uint256)",
        "numberOfBytes": "32",
        "value": "t_uint256"
      },
      "t_uint256": {
        "encoding": "inplace",
        "label": "uint256",
        "numberOfBytes": "32"
      }
    }
  }
}