{
  "address": "0x08d35905aE92076eF67209F9238071F3a7646611",
  "abi": [
    {
      "anonymous": false,
      "inputs": [
        {
          "indexed": true,
          "internalType": "address",
          "name": "from",
          "type": "address"
        },
        {
          "indexed": false,
          "internalType": "uint256",
          "name": "amount",
          "type": "uint256"
        }
      ],
      "name": "Deposit",
      "type": "event"
    },
    {
      "anonymous": false,
      "inputs": [
        {
          "indexed": false,
          "internalType": "string",
          "name": "param",
          "type": "string"
        },
        {
          "indexed": false,
          "internalType": "bytes",
          "name": "oldValue",
          "type": "bytes"
        },
        {
          "indexed": false,
          "internalType": "bytes",
          "name": "newValue",
          "type": "bytes"
        }
      ],
      "name": "GovernanceUpdate",
      "type": "event"
    },
    {
      "anonymous": false,
      "inputs": [
        {
          "indexed": false,
          "internalType": "uint8",
          "name": "version",
          "type": "uint8"
        }
      ],
      "name": "Initialized",
      "type": "event"
    },
    {
      "anonymous": false,
      "inputs": [
        {
          "indexed": false,
          "internalType": "uint256",
          "name": "amount",
          "type": "uint256"
        }
      ],
      "name": "LiquidityFeeCollected",
      "type": "event"
    },
    {
      "anonymous": false,
      "inputs": [
        {
          "indexed": true,
          "internalType": "address",
          "name": "from",
          "type": "address"
        },
        {
          "indexed": true,
          "internalType": "address",
          "name": "node",
          "type": "address"
        },
        {
          "indexed": false,
          "internalType": "uint256",
          "name": "amount",
          "type": "uint256"
        }
      ],
      "name": "ProcessUnstakes",
      "type": "event"
    },
    {
      "anonymous": false,
      "inputs": [
        {
          "indexed": true,
          "internalType": "address",
          "name": "from",
          "type": "address"
        },
        {
          "indexed": false,
          "internalType": "uint256",
          "name": "amount",
          "type": "uint256"
        }
      ],
      "name": "ProcessWithdraws",
      "type": "event"
    },
    {
      "anonymous": false,
      "inputs": [
        {
          "indexed": false,
          "internalType": "uint256",
          "name": "amount",
          "type": "uint256"
        }
      ],
      "name": "ProtocolFeeCollected",
      "type": "event"
    },
    {
      "anonymous": false,
      "inputs": [
        {
          "indexed": false,
          "internalType": "int256",
          "name": "stakeDiff",
          "type": "int256"
        },
        {
          "indexed": false,
          "internalType": "uint256",
          "name": "currentPrincipal",
          "type": "uint256"
        },
        {
          "indexed": false,
          "internalType": "uint256",
          "name": "oldPrincipal",
          "type": "uint256"
        }
      ],
      "name": "RewardsClaimed",
      "type": "event"
    },
    {
      "anonymous": false,
      "inputs": [
        {
          "indexed": true,
          "internalType": "address",
          "name": "node",
          "type": "address"
        },
        {
          "indexed": false,
          "internalType": "uint256",
          "name": "amount",
          "type": "uint256"
        }
      ],
      "name": "Stake",
      "type": "event"
    },
    {
      "anonymous": false,
      "inputs": [
        {
          "indexed": true,
          "internalType": "address",
          "name": "from",
          "type": "address"
        },
        {
          "indexed": true,
          "internalType": "address",
          "name": "node",
          "type": "address"
        },
        {
          "indexed": false,
          "internalType": "uint256",
          "name": "amount",
          "type": "uint256"
        },
        {
          "indexed": false,
          "internalType": "uint256",
          "name": "unstakeLockID",
          "type": "uint256"
        }
      ],
      "name": "Unstake",
      "type": "event"
    },
    {
      "anonymous": false,
      "inputs": [
        {
          "indexed": true,
          "internalType": "address",
          "name": "from",
          "type": "address"
        },
        {
          "indexed": false,
          "internalType": "uint256",
          "name": "amount",
          "type": "uint256"
        },
        {
          "indexed": false,
          "internalType": "uint256",
          "name": "unstakeLockID",
          "type": "uint256"
        }
      ],
      "name": "Withdraw",
      "type": "event"
    },
    {
      "inputs": [
        {
          "internalType": "uint256",
          "name": "_amountIn",
          "type": "uint256"
        }
      ],
      "name": "calcDepositOut",
      "outputs": [
        {
          "internalType": "uint256",
          "name": "",
          "type": "uint256"
        }
      ],
      "stateMutability": "view",
      "type": "function"
    },
    {
      "inputs": [],
      "name": "claimRewards",
      "outputs": [],
      "stateMutability": "nonpayable",
      "type": "function"
    },
    {
      "inputs": [],
      "name": "currentPrincipal",
      "outputs": [
        {
          "internalType": "uint256",
          "name": "",
          "type": "uint256"
        }
      ],
      "stateMutability": "view",
      "type": "function"
    },
    {
      "inputs": [
        {
          "internalType": "uint256",
          "name": "_amount",
          "type": "uint256"
        }
      ],
      "name": "deposit",
      "outputs": [],
      "stateMutability": "nonpayable",
      "type": "function"
    },
    {
      "inputs": [
        {
          "internalType": "uint256",
          "name": "_amount",
          "type": "uint256"
        },
        {
          "internalType": "uint256",
          "name": "_deadline",
          "type": "uint256"
        },
        {
          "internalType": "uint8",
          "name": "_v",
          "type": "uint8"
        },
        {
          "internalType": "bytes32",
          "name": "_r",
          "type": "bytes32"
        },
        {
          "internalType": "bytes32",
          "name": "_s",
          "type": "bytes32"
        }
      ],
      "name": "depositWithPermit",
      "outputs": [],
      "stateMutability": "nonpayable",
      "type": "function"
    },
    {
      "inputs": [],
      "name": "gov",
      "outputs": [
        {
          "internalType": "address",
          "name": "",
          "type": "address"
        }
      ],
      "stateMutability": "view",
      "type": "function"
    },
    {
      "inputs": [
        {
          "internalType": "contract IERC20",
          "name": "_steak",
          "type": "address"
        },
        {
          "internalType": "string",
          "name": "_symbol",
          "type": "string"
        },
        {
          "internalType": "contract IAudius",
          "name": "_audius",
          "type": "address"
        },
        {
          "internalType": "address",
          "name": "_node",
          "type": "address"
        },
        {
          "internalType": "uint256",
          "name": "_protocolFee",
          "type": "uint256"
        },
        {
          "internalType": "uint256",
          "name": "_liquidityFee",
          "type": "uint256"
        },
        {
          "internalType": "contract ITenderToken",
          "name": "_tenderTokenTarget",
          "type": "address"
        },
        {
          "internalType": "contract TenderFarmFactory",
          "name": "_tenderFarmFactory",
          "type": "address"
        },
        {
          "internalType": "contract ITenderSwapFactory",
          "name": "_tenderSwapFactory",
          "type": "address"
        }
      ],
      "name": "initialize",
      "outputs": [],
      "stateMutability": "nonpayable",
      "type": "function"
    },
    {
      "inputs": [],
      "name": "liquidityFee",
      "outputs": [
        {
          "internalType": "uint256",
          "name": "",
          "type": "uint256"
        }
      ],
      "stateMutability": "view",
      "type": "function"
    },
    {
      "inputs": [],
      "name": "node",
      "outputs": [
        {
          "internalType": "address",
          "name": "",
          "type": "address"
        }
      ],
      "stateMutability": "view",
      "type": "function"
    },
    {
      "inputs": [],
      "name": "processUnstake",
      "outputs": [],
      "stateMutability": "nonpayable",
      "type": "function"
    },
    {
      "inputs": [],
      "name": "processWithdraw",
      "outputs": [],
      "stateMutability": "nonpayable",
      "type": "function"
    },
    {
      "inputs": [],
      "name": "protocolFee",
      "outputs": [
        {
          "internalType": "uint256",
          "name": "",
          "type": "uint256"
        }
      ],
      "stateMutability": "view",
      "type": "function"
    },
    {
      "inputs": [],
      "name": "rescueUnlock",
      "outputs": [
        {
          "internalType": "uint256",
          "name": "",
          "type": "uint256"
        }
      ],
      "stateMutability": "nonpayable",
      "type": "function"
    },
    {
      "inputs": [
        {
          "internalType": "uint256",
          "name": "_unstakeLockID",
          "type": "uint256"
        }
      ],
      "name": "rescueWithdraw",
      "outputs": [],
      "stateMutability": "nonpayable",
      "type": "function"
    },
    {
      "inputs": [
        {
          "internalType": "address",
          "name": "_token",
          "type": "address"
        },
        {
          "internalType": "uint256",
          "name": "_value",
          "type": "uint256"
        },
        {
          "internalType": "uint256",
          "name": "_deadline",
          "type": "uint256"
        },
        {
          "internalType": "uint8",
          "name": "_v",
          "type": "uint8"
        },
        {
          "internalType": "bytes32",
          "name": "_r",
          "type": "bytes32"
        },
        {
          "internalType": "bytes32",
          "name": "_s",
          "type": "bytes32"
        }
      ],
      "name": "selfPermit",
      "outputs": [],
      "stateMutability": "payable",
      "type": "function"
    },
    {
      "inputs": [
        {
          "internalType": "address",
          "name": "_token",
          "type": "address"
        },
        {
          "internalType": "uint256",
          "name": "_value",
          "type": "uint256"
        },
        {
          "internalType": "uint256",
          "name": "_deadline",
          "type": "uint256"
        },
        {
          "internalType": "uint8",
          "name": "_v",
          "type": "uint8"
        },
        {
          "internalType": "bytes32",
          "name": "_r",
          "type": "bytes32"
        },
        {
          "internalType": "bytes32",
          "name": "_s",
          "type": "bytes32"
        }
      ],
      "name": "selfPermitIfNecessary",
      "outputs": [],
      "stateMutability": "payable",
      "type": "function"
    },
    {
      "inputs": [
        {
          "internalType": "address",
          "name": "_gov",
          "type": "address"
        }
      ],
      "name": "setGov",
      "outputs": [],
      "stateMutability": "nonpayable",
      "type": "function"
    },
    {
      "inputs": [
        {
          "internalType": "uint256",
          "name": "_liquidityFee",
          "type": "uint256"
        }
      ],
      "name": "setLiquidityFee",
      "outputs": [],
      "stateMutability": "nonpayable",
      "type": "function"
    },
    {
      "inputs": [
        {
          "internalType": "address",
          "name": "_node",
          "type": "address"
        }
      ],
      "name": "setNode",
      "outputs": [],
      "stateMutability": "nonpayable",
      "type": "function"
    },
    {
      "inputs": [
        {
          "internalType": "uint256",
          "name": "_protocolFee",
          "type": "uint256"
        }
      ],
      "name": "setProtocolFee",
      "outputs": [],
      "stateMutability": "nonpayable",
      "type": "function"
    },
    {
      "inputs": [
        {
          "internalType": "address",
          "name": "_stakingContract",
          "type": "address"
        }
      ],
      "name": "setStakingContract",
      "outputs": [],
      "stateMutability": "nonpayable",
      "type": "function"
    },
    {
      "inputs": [
        {
          "internalType": "contract IERC20",
          "name": "_steak",
          "type": "address"
        }
      ],
      "name": "setSteak",
      "outputs": [],
      "stateMutability": "nonpayable",
      "type": "function"
    },
    {
      "inputs": [
        {
          "internalType": "contract ITenderFarm",
          "name": "_tenderFarm",
          "type": "address"
        }
      ],
      "name": "setTenderFarm",
      "outputs": [],
      "stateMutability": "nonpayable",
      "type": "function"
    },
    {
      "inputs": [
        {
          "internalType": "uint256",
          "name": "_amount",
          "type": "uint256"
        }
      ],
      "name": "stake",
      "outputs": [],
      "stateMutability": "nonpayable",
      "type": "function"
    },
    {
      "inputs": [],
      "name": "steak",
      "outputs": [
        {
          "internalType": "contract IERC20",
          "name": "",
          "type": "address"
        }
      ],
      "stateMutability": "view",
      "type": "function"
    },
    {
      "inputs": [],
      "name": "tenderFarm",
      "outputs": [
        {
          "internalType": "contract ITenderFarm",
          "name": "",
          "type": "address"
        }
      ],
      "stateMutability": "view",
      "type": "function"
    },
    {
      "inputs": [],
      "name": "tenderSwap",
      "outputs": [
        {
          "internalType": "contract ITenderSwap",
          "name": "",
          "type": "address"
        }
      ],
      "stateMutability": "view",
      "type": "function"
    },
    {
      "inputs": [],
      "name": "tenderToken",
      "outputs": [
        {
          "internalType": "contract ITenderToken",
          "name": "",
          "type": "address"
        }
      ],
      "stateMutability": "view",
      "type": "function"
    },
    {
      "inputs": [],
      "name": "totalStakedTokens",
      "outputs": [
        {
          "internalType": "uint256",
          "name": "",
          "type": "uint256"
        }
      ],
      "stateMutability": "view",
      "type": "function"
    },
    {
      "inputs": [
        {
          "internalType": "uint256",
          "name": "_amount",
          "type": "uint256"
        }
      ],
      "name": "unstake",
      "outputs": [
        {
          "internalType": "uint256",
          "name": "",
          "type": "uint256"
        }
      ],
      "stateMutability": "nonpayable",
      "type": "function"
    },
    {
      "inputs": [
        {
          "internalType": "uint256",
          "name": "_unstakeLockID",
          "type": "uint256"
        }
      ],
      "name": "withdraw",
      "outputs": [],
      "stateMutability": "nonpayable",
      "type": "function"
    }
  ],
  "transactionHash": "0xa97fed0307e1c4547e3efa7210cad5fea609aee1f12e5d965a13579025e931d7",
  "args": [],
  "numDeployments": 1,
  "solcInputHash": "aec4058703d23580e6b714957f354d7b",
  "bytecode": "0x608060405234801561001057600080fd5b50615a5380620000216000396000f3fe6080604052600436106101d85760003560e01c806398118cb411610102578063c2e3140a11610095578063f3995c6711610064578063f3995c671461063b578063f4d95a7114610657578063fbdfc96114610682578063fdacf3d0146106ab576101d8565b8063c2e3140a146105a2578063cfad57a2146105be578063d70754ec146105e7578063ec6d80f614610612576101d8565b8063afef75d2116100d1578063afef75d2146104fc578063b0e21e8a14610525578063b6b55f2514610550578063c21d5ab714610579576101d8565b806398118cb4146104545780639dd373b91461047f578063a26a546b146104a8578063a694fc3a146104d3576101d8565b8063372500ab1161017a5780636991bc77116101495780636991bc771461039a5780636f190315146103c3578063787dce3d146103ee5780637cb0c27514610417576101d8565b8063372500ab146103045780633ae732591461031b5780634a970be71461034657806351c669c01461036f576101d8565b80632e17de78116101b65780632e17de781461024a5780632e1a7d4d14610287578063357bf15c146102b057806336a30f44146102d9576101d8565b806301303614146101dd57806312d43a51146101f45780632d8221601461021f575b600080fd5b3480156101e957600080fd5b506101f26106c2565b005b34801561020057600080fd5b50610209610992565b6040516102169190614918565b60405180910390f35b34801561022b57600080fd5b506102346109b8565b6040516102419190614ace565b60405180910390f35b34801561025657600080fd5b50610271600480360381019061026c9190614234565b6109de565b60405161027e9190614f4a565b60405180910390f35b34801561029357600080fd5b506102ae60048036038101906102a99190614234565b610b63565b005b3480156102bc57600080fd5b506102d760048036038101906102d29190614234565b610b70565b005b3480156102e557600080fd5b506102ee610c99565b6040516102fb9190614f4a565b60405180910390f35b34801561031057600080fd5b50610319610d29565b005b34801561032757600080fd5b50610330610d33565b60405161033d9190614f4a565b60405180910390f35b34801561035257600080fd5b5061036d60048036038101906103689190614286565b610d42565b005b34801561037b57600080fd5b50610384610d83565b6040516103919190614f4a565b60405180910390f35b3480156103a657600080fd5b506103c160048036038101906103bc9190614234565b610d89565b005b3480156103cf57600080fd5b506103d8610df0565b6040516103e59190614a46565b60405180910390f35b3480156103fa57600080fd5b5061041560048036038101906104109190614234565b610e16565b005b34801561042357600080fd5b5061043e60048036038101906104399190614234565b610f3f565b60405161044b9190614f4a565b60405180910390f35b34801561046057600080fd5b50610469610f51565b6040516104769190614f4a565b60405180910390f35b34801561048b57600080fd5b506104a660048036038101906104a19190613f80565b610f57565b005b3480156104b457600080fd5b506104bd610fbd565b6040516104ca9190614ab3565b60405180910390f35b3480156104df57600080fd5b506104fa60048036038101906104f59190614234565b610fe3565b005b34801561050857600080fd5b50610523600480360381019061051e9190614084565b611049565b005b34801561053157600080fd5b5061053a611180565b6040516105479190614f4a565b60405180910390f35b34801561055c57600080fd5b5061057760048036038101906105729190614234565b611186565b005b34801561058557600080fd5b506105a0600480360381019061059b9190613f80565b611193565b005b6105bc60048036038101906105b79190613fd2565b6112ca565b005b3480156105ca57600080fd5b506105e560048036038101906105e09190613f80565b611384565b005b3480156105f357600080fd5b506105fc6114bb565b6040516106099190614918565b60405180910390f35b34801561061e57600080fd5b50610639600480360381019061063491906140ad565b6114e1565b005b61065560048036038101906106509190613fd2565b611662565b005b34801561066357600080fd5b5061066c6116e1565b6040516106799190614a98565b60405180910390f35b34801561068e57600080fd5b506106a960048036038101906106a49190614190565b611707565b005b3480156106b757600080fd5b506106c061183e565b005b600860009054906101000a900473ffffffffffffffffffffffffffffffffffffffff1673ffffffffffffffffffffffffffffffffffffffff163373ffffffffffffffffffffffffffffffffffffffff161461071c57600080fd5b60008060029054906101000a900473ffffffffffffffffffffffffffffffffffffffff1673ffffffffffffffffffffffffffffffffffffffff166370a08231306040518263ffffffff1660e01b81526004016107789190614918565b60206040518083038186803b15801561079057600080fd5b505afa1580156107a4573d6000803e3d6000fd5b505050506040513d601f19601f820116820180604052508101906107c8919061425d565b9050600960009054906101000a900473ffffffffffffffffffffffffffffffffffffffff1673ffffffffffffffffffffffffffffffffffffffff1663feaf80486040518163ffffffff1660e01b8152600401602060405180830381600087803b15801561083457600080fd5b505af1158015610848573d6000803e3d6000fd5b505050506040513d601f19601f8201168201806040525081019061086c919061425d565b5060008060029054906101000a900473ffffffffffffffffffffffffffffffffffffffff1673ffffffffffffffffffffffffffffffffffffffff166370a08231306040518263ffffffff1660e01b81526004016108c99190614918565b60206040518083038186803b1580156108e157600080fd5b505afa1580156108f5573d6000803e3d6000fd5b505050506040513d601f19601f82011682018060405250810190610919919061425d565b9050600082826109299190615162565b905061093f81600b6119e690919063ffffffff16565b3373ffffffffffffffffffffffffffffffffffffffff167fcb9532430439237c8bdb19ae1bbb70b36989d22003981d3e7d06f1befd3fc4ad826040516109859190614f4a565b60405180910390a2505050565b600860009054906101000a900473ffffffffffffffffffffffffffffffffffffffff1681565b600160009054906101000a900473ffffffffffffffffffffffffffffffffffffffff1681565b6000808211610a22576040517f08c379a0000000000000000000000000000000000000000000000000000000008152600401610a1990614df4565b60405180910390fd5b600160009054906101000a900473ffffffffffffffffffffffffffffffffffffffff1673ffffffffffffffffffffffffffffffffffffffff16639dc29fac33846040518363ffffffff1660e01b8152600401610a7f929190614a02565b602060405180830381600087803b158015610a9957600080fd5b505af1158015610aad573d6000803e3d6000fd5b505050506040513d601f19601f82011682018060405250810190610ad1919061405b565b610b10576040517f08c379a0000000000000000000000000000000000000000000000000000000008152600401610b0790614ba2565b60405180910390fd5b6000610b3f33600460009054906101000a900473ffffffffffffffffffffffffffffffffffffffff1685611a66565b90508260076000828254610b539190615162565b9250508190555080915050919050565b610b6d3382611af3565b50565b600860009054906101000a900473ffffffffffffffffffffffffffffffffffffffff1673ffffffffffffffffffffffffffffffffffffffff163373ffffffffffffffffffffffffffffffffffffffff1614610bca57600080fd5b681b1ae4d6e2ef500000811115610c16576040517f08c379a0000000000000000000000000000000000000000000000000000000008152600401610c0d90614c0c565b60405180910390fd5b7f5555cb3612e5f2fc327f8394a162756a3cca8144f95b4dcfb4ee29320c7992d3600654604051602001610c4a9190614f4a565b60405160208183030381529060405282604051602001610c6a9190614f4a565b604051602081830303815290604052604051610c87929190614ebe565b60405180910390a18060068190555050565b6000600860009054906101000a900473ffffffffffffffffffffffffffffffffffffffff1673ffffffffffffffffffffffffffffffffffffffff163373ffffffffffffffffffffffffffffffffffffffff1614610cf557600080fd5b610d2430600460009054906101000a900473ffffffffffffffffffffffffffffffffffffffff16600754611a66565b905090565b610d31611baf565b565b6000610d3d611c6b565b905090565b610d72600060029054906101000a900473ffffffffffffffffffffffffffffffffffffffff168686868686611662565b610d7c3386611c75565b5050505050565b60075481565b600860009054906101000a900473ffffffffffffffffffffffffffffffffffffffff1673ffffffffffffffffffffffffffffffffffffffff163373ffffffffffffffffffffffffffffffffffffffff1614610de357600080fd5b610ded3082611af3565b50565b600060029054906101000a900473ffffffffffffffffffffffffffffffffffffffff1681565b600860009054906101000a900473ffffffffffffffffffffffffffffffffffffffff1673ffffffffffffffffffffffffffffffffffffffff163373ffffffffffffffffffffffffffffffffffffffff1614610e7057600080fd5b681b1ae4d6e2ef500000811115610ebc576040517f08c379a0000000000000000000000000000000000000000000000000000000008152600401610eb390614c0c565b60405180910390fd5b7f5555cb3612e5f2fc327f8394a162756a3cca8144f95b4dcfb4ee29320c7992d3600554604051602001610ef09190614f4a565b60405160208183030381529060405282604051602001610f109190614f4a565b604051602081830303815290604052604051610f2d929190614daa565b60405180910390a18060058190555050565b6000610f4a82611e11565b9050919050565b60065481565b600860009054906101000a900473ffffffffffffffffffffffffffffffffffffffff1673ffffffffffffffffffffffffffffffffffffffff163373ffffffffffffffffffffffffffffffffffffffff1614610fb157600080fd5b610fba81611e1b565b50565b600360009054906101000a900473ffffffffffffffffffffffffffffffffffffffff1681565b600860009054906101000a900473ffffffffffffffffffffffffffffffffffffffff1673ffffffffffffffffffffffffffffffffffffffff163373ffffffffffffffffffffffffffffffffffffffff161461103d57600080fd5b61104681611fd8565b50565b600860009054906101000a900473ffffffffffffffffffffffffffffffffffffffff1673ffffffffffffffffffffffffffffffffffffffff163373ffffffffffffffffffffffffffffffffffffffff16146110a357600080fd5b7f5555cb3612e5f2fc327f8394a162756a3cca8144f95b4dcfb4ee29320c7992d3600060029054906101000a900473ffffffffffffffffffffffffffffffffffffffff166040516020016110f79190614a46565b604051602081830303815290604052826040516020016111179190614a46565b604051602081830303815290604052604051611134929190614ccc565b60405180910390a180600060026101000a81548173ffffffffffffffffffffffffffffffffffffffff021916908373ffffffffffffffffffffffffffffffffffffffff16021790555050565b60055481565b6111903382611c75565b50565b600860009054906101000a900473ffffffffffffffffffffffffffffffffffffffff1673ffffffffffffffffffffffffffffffffffffffff163373ffffffffffffffffffffffffffffffffffffffff16146111ed57600080fd5b7f5555cb3612e5f2fc327f8394a162756a3cca8144f95b4dcfb4ee29320c7992d3600460009054906101000a900473ffffffffffffffffffffffffffffffffffffffff166040516020016112419190614918565b604051602081830303815290604052826040516020016112619190614918565b60405160208183030381529060405260405161127e929190614d60565b60405180910390a180600460006101000a81548173ffffffffffffffffffffffffffffffffffffffff021916908373ffffffffffffffffffffffffffffffffffffffff16021790555050565b60008673ffffffffffffffffffffffffffffffffffffffff1663dd62ed3e33306040518363ffffffff1660e01b8152600401611307929190614933565b60206040518083038186803b15801561131f57600080fd5b505afa158015611333573d6000803e3d6000fd5b505050506040513d601f19601f82011682018060405250810190611357919061425d565b90508581101561137b5761137a8782886113719190615162565b87878787611662565b5b50505050505050565b600860009054906101000a900473ffffffffffffffffffffffffffffffffffffffff1673ffffffffffffffffffffffffffffffffffffffff163373ffffffffffffffffffffffffffffffffffffffff16146113de57600080fd5b7f5555cb3612e5f2fc327f8394a162756a3cca8144f95b4dcfb4ee29320c7992d3600860009054906101000a900473ffffffffffffffffffffffffffffffffffffffff166040516020016114329190614918565b604051602081830303815290604052826040516020016114529190614918565b60405160208183030381529060405260405161146f929190614d16565b60405180910390a180600860006101000a81548173ffffffffffffffffffffffffffffffffffffffff021916908373ffffffffffffffffffffffffffffffffffffffff16021790555050565b600460009054906101000a900473ffffffffffffffffffffffffffffffffffffffff1681565b6115358a8a8a8080601f016020809104026020016040519081016040528093929190818152602001838380828437600081840152601f19601f820116905080830192505050505050508888888888886121f9565b86600960006101000a81548173ffffffffffffffffffffffffffffffffffffffff021916908373ffffffffffffffffffffffffffffffffffffffff160217905550600960009054906101000a900473ffffffffffffffffffffffffffffffffffffffff1673ffffffffffffffffffffffffffffffffffffffff16630e9ed68b6040518163ffffffff1660e01b815260040160206040518083038186803b1580156115de57600080fd5b505afa1580156115f2573d6000803e3d6000fd5b505050506040513d601f19601f820116820180604052508101906116169190613fa9565b600a60006101000a81548173ffffffffffffffffffffffffffffffffffffffff021916908373ffffffffffffffffffffffffffffffffffffffff16021790555050505050505050505050565b8573ffffffffffffffffffffffffffffffffffffffff1663d505accf333088888888886040518863ffffffff1660e01b81526004016116a79796959493929190614993565b600060405180830381600087803b1580156116c157600080fd5b505af11580156116d5573d6000803e3d6000fd5b50505050505050505050565b600260009054906101000a900473ffffffffffffffffffffffffffffffffffffffff1681565b600860009054906101000a900473ffffffffffffffffffffffffffffffffffffffff1673ffffffffffffffffffffffffffffffffffffffff163373ffffffffffffffffffffffffffffffffffffffff161461176157600080fd5b7f5555cb3612e5f2fc327f8394a162756a3cca8144f95b4dcfb4ee29320c7992d3600260009054906101000a900473ffffffffffffffffffffffffffffffffffffffff166040516020016117b59190614a98565b604051602081830303815290604052826040516020016117d59190614a98565b6040516020818303038152906040526040516117f2929190614e54565b60405180910390a180600260006101000a81548173ffffffffffffffffffffffffffffffffffffffff021916908373ffffffffffffffffffffffffffffffffffffffff16021790555050565b600860009054906101000a900473ffffffffffffffffffffffffffffffffffffffff1673ffffffffffffffffffffffffffffffffffffffff163373ffffffffffffffffffffffffffffffffffffffff161461189857600080fd5b60006118a4600b6127f4565b90506000600460009054906101000a900473ffffffffffffffffffffffffffffffffffffffff169050600960009054906101000a900473ffffffffffffffffffffffffffffffffffffffff1673ffffffffffffffffffffffffffffffffffffffff1663a7bac48782846040518363ffffffff1660e01b815260040161192a929190614a02565b602060405180830381600087803b15801561194457600080fd5b505af1158015611958573d6000803e3d6000fd5b505050506040513d601f19601f8201168201806040525081019061197c919061425d565b508073ffffffffffffffffffffffffffffffffffffffff163373ffffffffffffffffffffffffffffffffffffffff167f60ee6fa425658ca10bf59c88bdf8b45cfdea156d13d309740414613e66800a0d846040516119da9190614f4a565b60405180910390a35050565b8160070154826006015411611a30576040517f08c379a0000000000000000000000000000000000000000000000000000000008152600401611a2790614e34565b60405180910390fd5b80826003016000828254611a449190614fed565b9250508190555060008260050181905550816006015482600701819055505050565b600080829050611a828582600b61287e9092919063ffffffff16565b91508373ffffffffffffffffffffffffffffffffffffffff168573ffffffffffffffffffffffffffffffffffffffff167f18edd09e80386cd99df397e2e0d87d2bb259423eae08645e776321a36fe680ef8385604051611ae3929190614f65565b60405180910390a3509392505050565b6000611b0b8284600b6129959092919063ffffffff16565b9050611b5a8382600060029054906101000a900473ffffffffffffffffffffffffffffffffffffffff1673ffffffffffffffffffffffffffffffffffffffff16612b819092919063ffffffff16565b8273ffffffffffffffffffffffffffffffffffffffff167ff279e6a1f5e320cca91135676d9cb6e44ca8a08c0b88342bcdb1144f6511b5688284604051611ba2929190614f65565b60405180910390a2505050565b600960009054906101000a900473ffffffffffffffffffffffffffffffffffffffff1673ffffffffffffffffffffffffffffffffffffffff1663ef5cfb8c600460009054906101000a900473ffffffffffffffffffffffffffffffffffffffff166040518263ffffffff1660e01b8152600401611c2c9190614918565b600060405180830381600087803b158015611c4657600080fd5b505af1925050508015611c57575060015b611c6057611c61565b5b611c69612c07565b565b6000600754905090565b60008111611cb8576040517f08c379a0000000000000000000000000000000000000000000000000000000008152600401611caf90614df4565b60405180910390fd5b6000611cc382611e11565b9050600160009054906101000a900473ffffffffffffffffffffffffffffffffffffffff1673ffffffffffffffffffffffffffffffffffffffff166340c10f1984836040518363ffffffff1660e01b8152600401611d22929190614a02565b602060405180830381600087803b158015611d3c57600080fd5b505af1158015611d50573d6000803e3d6000fd5b505050506040513d601f19601f82011682018060405250810190611d74919061405b565b611db3576040517f08c379a0000000000000000000000000000000000000000000000000000000008152600401611daa90614c4c565b60405180910390fd5b611e02833084600060029054906101000a900473ffffffffffffffffffffffffffffffffffffffff1673ffffffffffffffffffffffffffffffffffffffff16612d7b909392919063ffffffff16565b611e0c8383612e04565b505050565b6000819050919050565b7f5555cb3612e5f2fc327f8394a162756a3cca8144f95b4dcfb4ee29320c7992d3600960009054906101000a900473ffffffffffffffffffffffffffffffffffffffff16604051602001611e6f9190614a2b565b60405160208183030381529060405282604051602001611e8f9190614918565b604051602081830303815290604052604051611eac929190614bc2565b60405180910390a180600960006101000a81548173ffffffffffffffffffffffffffffffffffffffff021916908373ffffffffffffffffffffffffffffffffffffffff160217905550600960009054906101000a900473ffffffffffffffffffffffffffffffffffffffff1673ffffffffffffffffffffffffffffffffffffffff16630e9ed68b6040518163ffffffff1660e01b815260040160206040518083038186803b158015611f5d57600080fd5b505afa158015611f71573d6000803e3d6000fd5b505050506040513d601f19601f82011682018060405250810190611f959190613fa9565b600a60006101000a81548173ffffffffffffffffffffffffffffffffffffffff021916908373ffffffffffffffffffffffffffffffffffffffff16021790555050565b60008190506000611fe9600b612e6f565b9050808211611ff95750506121f6565b80826120059190615162565b9150612076600a60009054906101000a900473ffffffffffffffffffffffffffffffffffffffff1683600060029054906101000a900473ffffffffffffffffffffffffffffffffffffffff1673ffffffffffffffffffffffffffffffffffffffff16612e7d9092919063ffffffff16565b6000600960009054906101000a900473ffffffffffffffffffffffffffffffffffffffff1673ffffffffffffffffffffffffffffffffffffffff16633c323a1b600460009054906101000a900473ffffffffffffffffffffffffffffffffffffffff16856040518363ffffffff1660e01b81526004016120f7929190614a02565b602060405180830381600087803b15801561211157600080fd5b505af1158015612125573d6000803e3d6000fd5b505050506040513d601f19601f82011682018060405250810190612149919061425d565b905082811015612182577f4e487b7100000000000000000000000000000000000000000000000000000000600052600160045260246000fd5b600460009054906101000a900473ffffffffffffffffffffffffffffffffffffffff1673ffffffffffffffffffffffffffffffffffffffff167febedb8b3c678666e7f36970bc8f57abf6d8fa2e828c0da91ea5b75bf68ed101a846040516121ea9190614f4a565b60405180910390a25050505b50565b60006122056001612f9e565b90508015612229576001600060016101000a81548160ff0219169083151502179055505b88600060026101000a81548173ffffffffffffffffffffffffffffffffffffffff021916908373ffffffffffffffffffffffffffffffffffffffff16021790555086600460006101000a81548173ffffffffffffffffffffffffffffffffffffffff021916908373ffffffffffffffffffffffffffffffffffffffff160217905550856005819055508460068190555033600860006101000a81548173ffffffffffffffffffffffffffffffffffffffff021916908373ffffffffffffffffffffffffffffffffffffffff16021790555060006123058561308e565b905060008960405160200161231a91906148f6565b60405160208183030381529060405290508173ffffffffffffffffffffffffffffffffffffffff1663077f224a8b8c306040518463ffffffff1660e01b815260040161236893929190614b5d565b602060405180830381600087803b15801561238257600080fd5b505af1158015612396573d6000803e3d6000fd5b505050506040513d601f19601f820116820180604052508101906123ba919061405b565b6123f9576040517f08c379a00000000000000000000000000000000000000000000000000000000081526004016123f090614f08565b60405180910390fd5b81600160006101000a81548173ffffffffffffffffffffffffffffffffffffffff021916908373ffffffffffffffffffffffffffffffffffffffff1602179055508373ffffffffffffffffffffffffffffffffffffffff1663a574175660405180608001604052808573ffffffffffffffffffffffffffffffffffffffff1681526020018e73ffffffffffffffffffffffffffffffffffffffff168152602001848e6040516020016124ac929190614882565b6040516020818303038152906040528152602001848e6040516020016124d39291906148bc565b6040516020818303038152906040528152506040518263ffffffff1660e01b81526004016125019190614f28565b602060405180830381600087803b15801561251b57600080fd5b505af115801561252f573d6000803e3d6000fd5b505050506040513d601f19601f8201168201806040525081019061255391906141e2565b600360006101000a81548173ffffffffffffffffffffffffffffffffffffffff021916908373ffffffffffffffffffffffffffffffffffffffff160217905550600360009054906101000a900473ffffffffffffffffffffffffffffffffffffffff1673ffffffffffffffffffffffffffffffffffffffff1663f2fde38b336040518263ffffffff1660e01b81526004016125ee9190614918565b600060405180830381600087803b15801561260857600080fd5b505af115801561261c573d6000803e3d6000fd5b505050508473ffffffffffffffffffffffffffffffffffffffff1663d9181cd3600360009054906101000a900473ffffffffffffffffffffffffffffffffffffffff1673ffffffffffffffffffffffffffffffffffffffff16635fcbd2856040518163ffffffff1660e01b815260040160206040518083038186803b1580156126a457600080fd5b505afa1580156126b8573d6000803e3d6000fd5b505050506040513d601f19601f820116820180604052508101906126dc919061420b565b84306040518463ffffffff1660e01b81526004016126fc93929190614a61565b602060405180830381600087803b15801561271657600080fd5b505af115801561272a573d6000803e3d6000fd5b505050506040513d601f19601f8201168201806040525081019061274e91906141b9565b600260006101000a81548173ffffffffffffffffffffffffffffffffffffffff021916908373ffffffffffffffffffffffffffffffffffffffff160217905550505080156127e95760008060016101000a81548160ff0219169083151502179055507f7f26b83ff96e1f2b6a682f133852f6798a09c465da95921460cefb384740249860016040516127e09190614b20565b60405180910390a15b505050505050505050565b60008160070154826006015414612840576040517f08c379a000000000000000000000000000000000000000000000000000000000815260040161283790614e34565b60405180910390fd5b81600401548260050160008282546128589190614fed565b925050819055508160040154905060008260040181905550438260060181905550919050565b60008360010154905060006128938584613163565b905060405180606001604052808281526020018573ffffffffffffffffffffffffffffffffffffffff16815260200186600601548152508560000160008481526020019081526020016000206000820151816000015560208201518160010160006101000a81548173ffffffffffffffffffffffffffffffffffffffff021916908373ffffffffffffffffffffffffffffffffffffffff16021790555060408201518160020155905050828560040160008282546129519190614fed565b925050819055508085600201600082825461296c9190614fed565b92505081905550846001016000815480929190612988906153d0565b9190505550509392505050565b600080846000016000858152602001908152602001600020604051806060016040529081600082015481526020016001820160009054906101000a900473ffffffffffffffffffffffffffffffffffffffff1673ffffffffffffffffffffffffffffffffffffffff1673ffffffffffffffffffffffffffffffffffffffff16815260200160028201548152505090508460070154816040015110612a6e576040517f08c379a0000000000000000000000000000000000000000000000000000000008152600401612a6590614e34565b60405180910390fd5b806020015173ffffffffffffffffffffffffffffffffffffffff168373ffffffffffffffffffffffffffffffffffffffff1614612ae0576040517f08c379a0000000000000000000000000000000000000000000000000000000008152600401612ad790614c6c565b60405180910390fd5b612aee8582600001516131b6565b915081856003016000828254612b049190615162565b925050819055508060000151856002016000828254612b239190615162565b925050819055508460000160008581526020019081526020016000206000808201600090556001820160006101000a81549073ffffffffffffffffffffffffffffffffffffffff021916905560028201600090555050509392505050565b612c028363a9059cbb60e01b8484604051602401612ba0929190614a02565b604051602081830303815290604052907bffffffffffffffffffffffffffffffffffffffffffffffffffffffff19166020820180517bffffffffffffffffffffffffffffffffffffffffffffffffffffffff83818316178352505050506131f0565b505050565b612c0f6132b7565b6000612c196132b9565b90506000811315612c925760008190506000612c378260055461351e565b90506000612c478360065461351e565b9050808284612c569190615162565b612c609190615162565b60076000828254612c719190614fed565b92505081905550612c8182613532565b612c8a81613657565b505050612cc5565b6000811215612cc457600081612ca790615419565b90508060076000828254612cbb9190615162565b92505081905550505b5b612d78600060029054906101000a900473ffffffffffffffffffffffffffffffffffffffff1673ffffffffffffffffffffffffffffffffffffffff166370a08231306040518263ffffffff1660e01b8152600401612d239190614918565b60206040518083038186803b158015612d3b57600080fd5b505afa158015612d4f573d6000803e3d6000fd5b505050506040513d601f19601f82011682018060405250810190612d73919061425d565b611fd8565b50565b612dfe846323b872dd60e01b858585604051602401612d9c9392919061495c565b604051602081830303815290604052907bffffffffffffffffffffffffffffffffffffffffffffffffffffffff19166020820180517bffffffffffffffffffffffffffffffffffffffffffffffffffffffff83818316178352505050506131f0565b50505050565b8060076000828254612e169190614fed565b925050819055508173ffffffffffffffffffffffffffffffffffffffff167fe1fffcc4923d04b559f4d29a8bfc6cda04eb5b0d3c460751c2402c5c5cc9109c82604051612e639190614f4a565b60405180910390a25050565b600081600301549050919050565b6000818473ffffffffffffffffffffffffffffffffffffffff1663dd62ed3e30866040518363ffffffff1660e01b8152600401612ebb929190614933565b60206040518083038186803b158015612ed357600080fd5b505afa158015612ee7573d6000803e3d6000fd5b505050506040513d601f19601f82011682018060405250810190612f0b919061425d565b612f159190614fed565b9050612f988463095ea7b360e01b8584604051602401612f36929190614a02565b604051602081830303815290604052907bffffffffffffffffffffffffffffffffffffffffffffffffffffffff19166020820180517bffffffffffffffffffffffffffffffffffffffffffffffffffffffff83818316178352505050506131f0565b50505050565b60008060019054906101000a900460ff16156130155760018260ff16148015612fcd5750612fcb30613ad7565b155b61300c576040517f08c379a000000000000000000000000000000000000000000000000000000000815260040161300390614cac565b60405180910390fd5b60009050613089565b8160ff1660008054906101000a900460ff1660ff161061306a576040517f08c379a000000000000000000000000000000000000000000000000000000000815260040161306190614cac565b60405180910390fd5b816000806101000a81548160ff021916908360ff160217905550600190505b919050565b60006040517f3d602d80600a3d3981f3363d3d373d3d3d363d7300000000000000000000000081528260601b60148201527f5af43d82803e903d91602b57fd5bf3000000000000000000000000000000000060288201526037816000f0915050600073ffffffffffffffffffffffffffffffffffffffff168173ffffffffffffffffffffffffffffffffffffffff16141561315e576040517f08c379a000000000000000000000000000000000000000000000000000000000815260040161315590614c8c565b60405180910390fd5b919050565b60008061316f84613afa565b9050600084600201549050600082141561318d5783925050506131b0565b60008114156131a05783925050506131b0565b6131ab848284613b26565b925050505b92915050565b6000808360020154905060008114156131d35760009150506131ea565b6131e6836131e086613afa565b83613b26565b9150505b92915050565b6000613252826040518060400160405280602081526020017f5361666545524332303a206c6f772d6c6576656c2063616c6c206661696c65648152508573ffffffffffffffffffffffffffffffffffffffff16613b5a9092919063ffffffff16565b90506000815111156132b25780806020019051810190613272919061405b565b6132b1576040517f08c379a00000000000000000000000000000000000000000000000000000000081526004016132a890614e9e565b60405180910390fd5b5b505050565b565b60008060075490506000613376600060029054906101000a900473ffffffffffffffffffffffffffffffffffffffff1673ffffffffffffffffffffffffffffffffffffffff166370a08231306040518263ffffffff1660e01b81526004016133219190614918565b60206040518083038186803b15801561333957600080fd5b505afa15801561334d573d6000803e3d6000fd5b505050506040513d601f19601f82011682018060405250810190613371919061425d565b611e11565b90506000600960009054906101000a900473ffffffffffffffffffffffffffffffffffffffff1673ffffffffffffffffffffffffffffffffffffffff1663b0303b75306040518263ffffffff1660e01b81526004016133d59190614918565b60206040518083038186803b1580156133ed57600080fd5b505afa158015613401573d6000803e3d6000fd5b505050506040513d601f19601f82011682018060405250810190613425919061425d565b9050600b60040154600b60030154838361343f9190614fed565b6134499190615162565b6134539190615162565b9050828161346191906150ce565b935060008412156134dd576000613478600b613afa565b9050600084826134889190614fed565b905060008111156134da576000818385886134a39190615162565b6134ad9190615074565b6134b79190615043565b90506134d881846134c89190615162565b600b613b7290919063ffffffff16565b505b50505b7f78c13bf6a7fae25f1085d594e546d7a97cb66a55bc9733c7ea78236c452663ec84828560405161351093929190614ae9565b60405180910390a150505090565b600061352a8383613c17565b905092915050565b600160009054906101000a900473ffffffffffffffffffffffffffffffffffffffff1673ffffffffffffffffffffffffffffffffffffffff166340c10f19600860009054906101000a900473ffffffffffffffffffffffffffffffffffffffff16836040518363ffffffff1660e01b81526004016135b1929190614a02565b602060405180830381600087803b1580156135cb57600080fd5b505af11580156135df573d6000803e3d6000fd5b505050506040513d601f19601f82011682018060405250810190613603919061405b565b5080600760008282546136169190614fed565b925050819055507f414d7d8eae12f648156e75499fc0a5a10aa84f2745c6f791b0453cb17f1e17fa8160405161364c9190614f4a565b60405180910390a150565b6000600260009054906101000a900473ffffffffffffffffffffffffffffffffffffffff1673ffffffffffffffffffffffffffffffffffffffff166304d3b7c46040518163ffffffff1660e01b815260040160206040518083038186803b1580156136c157600080fd5b505afa1580156136d5573d6000803e3d6000fd5b505050506040513d601f19601f820116820180604052508101906136f9919061425d565b1161370357613ad4565b6000600160009054906101000a900473ffffffffffffffffffffffffffffffffffffffff1673ffffffffffffffffffffffffffffffffffffffff166370a08231306040518263ffffffff1660e01b81526004016137609190614918565b60206040518083038186803b15801561377857600080fd5b505afa15801561378c573d6000803e3d6000fd5b505050506040513d601f19601f820116820180604052508101906137b0919061425d565b9050600160009054906101000a900473ffffffffffffffffffffffffffffffffffffffff1673ffffffffffffffffffffffffffffffffffffffff166340c10f1930846040518363ffffffff1660e01b815260040161380f929190614a02565b602060405180830381600087803b15801561382957600080fd5b505af115801561383d573d6000803e3d6000fd5b505050506040513d601f19601f82011682018060405250810190613861919061405b565b5081600760008282546138749190614fed565b925050819055506000600160009054906101000a900473ffffffffffffffffffffffffffffffffffffffff1673ffffffffffffffffffffffffffffffffffffffff166370a08231306040518263ffffffff1660e01b81526004016138d89190614918565b60206040518083038186803b1580156138f057600080fd5b505afa158015613904573d6000803e3d6000fd5b505050506040513d601f19601f82011682018060405250810190613928919061425d565b9050600082826139389190615162565b9050600160009054906101000a900473ffffffffffffffffffffffffffffffffffffffff1673ffffffffffffffffffffffffffffffffffffffff1663095ea7b3600260009054906101000a900473ffffffffffffffffffffffffffffffffffffffff16836040518363ffffffff1660e01b81526004016139b9929190614a02565b602060405180830381600087803b1580156139d357600080fd5b505af11580156139e7573d6000803e3d6000fd5b505050506040513d601f19601f82011682018060405250810190613a0b919061405b565b50600260009054906101000a900473ffffffffffffffffffffffffffffffffffffffff1673ffffffffffffffffffffffffffffffffffffffff1663beceed39826040518263ffffffff1660e01b8152600401613a679190614f4a565b600060405180830381600087803b158015613a8157600080fd5b505af1158015613a95573d6000803e3d6000fd5b505050507f1d8f4bab53e84801fc35b88b53df72a998fa29c92e6fc65d412c4677d0d88c6281604051613ac89190614f4a565b60405180910390a15050505b50565b6000808273ffffffffffffffffffffffffffffffffffffffff163b119050919050565b6000816005015482600401548360030154613b159190614fed565b613b1f9190614fed565b9050919050565b6000683635c9adc5dea00000613b3c8484613c41565b85613b479190615074565b613b519190615043565b90509392505050565b6060613b698484600085613c6b565b90509392505050565b6000826003015490506000836004015490506000846005015490506000818385613b9c9190614fed565b613ba69190614fed565b90506000811115613c0f57808486613bbe9190615074565b613bc89190615043565b8660030181905550808386613bdd9190615074565b613be79190615043565b8660040181905550808286613bfc9190615074565b613c069190615043565b86600501819055505b505050505050565b6000683635c9adc5dea000008284613c2f9190615074565b613c399190615043565b905092915050565b600081683635c9adc5dea0000084613c599190615074565b613c639190615043565b905092915050565b606082471015613cb0576040517f08c379a0000000000000000000000000000000000000000000000000000000008152600401613ca790614c2c565b60405180910390fd5b613cb985613ad7565b613cf8576040517f08c379a0000000000000000000000000000000000000000000000000000000008152600401613cef90614e14565b60405180910390fd5b6000808673ffffffffffffffffffffffffffffffffffffffff168587604051613d21919061486b565b60006040518083038185875af1925050503d8060008114613d5e576040519150601f19603f3d011682016040523d82523d6000602084013e613d63565b606091505b5091509150613d73828286613d7f565b92505050949350505050565b60608315613d8f57829050613ddf565b600083511115613da25782518084602001fd5b816040517f08c379a0000000000000000000000000000000000000000000000000000000008152600401613dd69190614b3b565b60405180910390fd5b9392505050565b600081359050613df5816158f2565b92915050565b600081519050613e0a816158f2565b92915050565b600081519050613e1f81615909565b92915050565b600081359050613e3481615920565b92915050565b600081359050613e4981615937565b92915050565b600081359050613e5e8161594e565b92915050565b600081359050613e7381615965565b92915050565b600081519050613e8881615965565b92915050565b600081359050613e9d8161597c565b92915050565b600081519050613eb281615993565b92915050565b600081359050613ec7816159aa565b92915050565b600081519050613edc816159c1565b92915050565b600081359050613ef1816159d8565b92915050565b60008083601f840112613f0957600080fd5b8235905067ffffffffffffffff811115613f2257600080fd5b602083019150836001820283011115613f3a57600080fd5b9250929050565b600081359050613f50816159ef565b92915050565b600081519050613f65816159ef565b92915050565b600081359050613f7a81615a06565b92915050565b600060208284031215613f9257600080fd5b6000613fa084828501613de6565b91505092915050565b600060208284031215613fbb57600080fd5b6000613fc984828501613dfb565b91505092915050565b60008060008060008060c08789031215613feb57600080fd5b6000613ff989828a01613de6565b965050602061400a89828a01613f41565b955050604061401b89828a01613f41565b945050606061402c89828a01613f6b565b935050608061403d89828a01613e25565b92505060a061404e89828a01613e25565b9150509295509295509295565b60006020828403121561406d57600080fd5b600061407b84828501613e10565b91505092915050565b60006020828403121561409657600080fd5b60006140a484828501613e4f565b91505092915050565b6000806000806000806000806000806101208b8d0312156140cd57600080fd5b60006140db8d828e01613e4f565b9a505060208b013567ffffffffffffffff8111156140f857600080fd5b6141048d828e01613ef7565b995099505060406141178d828e01613e3a565b97505060606141288d828e01613de6565b96505060806141398d828e01613f41565b95505060a061414a8d828e01613f41565b94505060c061415b8d828e01613eb8565b93505060e061416c8d828e01613ee2565b92505061010061417e8d828e01613e8e565b9150509295989b9194979a5092959850565b6000602082840312156141a257600080fd5b60006141b084828501613e64565b91505092915050565b6000602082840312156141cb57600080fd5b60006141d984828501613e79565b91505092915050565b6000602082840312156141f457600080fd5b600061420284828501613ea3565b91505092915050565b60006020828403121561421d57600080fd5b600061422b84828501613ecd565b91505092915050565b60006020828403121561424657600080fd5b600061425484828501613f41565b91505092915050565b60006020828403121561426f57600080fd5b600061427d84828501613f56565b91505092915050565b600080600080600060a0868803121561429e57600080fd5b60006142ac88828901613f41565b95505060206142bd88828901613f41565b94505060406142ce88828901613f6b565b93505060606142df88828901613e25565b92505060806142f088828901613e25565b9150509295509295909350565b61430681615196565b82525050565b614315816151b4565b82525050565b600061432682614f8e565b6143308185614fa4565b935061434081856020860161539d565b614349816154c0565b840191505092915050565b600061435f82614f8e565b6143698185614fb5565b935061437981856020860161539d565b80840191505092915050565b61438e8161528f565b82525050565b61439d816152b3565b82525050565b6143ac816152b3565b82525050565b6143bb816152d7565b82525050565b6143ca816152fb565b82525050565b6143d98161531f565b82525050565b6143e881615343565b82525050565b6143f781615367565b82525050565b6144068161524e565b82525050565b6144158161538b565b82525050565b600061442682614f99565b6144308185614fc0565b935061444081856020860161539d565b614449816154c0565b840191505092915050565b600061445f82614f99565b6144698185614fd1565b935061447981856020860161539d565b614482816154c0565b840191505092915050565b600061449882614f99565b6144a28185614fe2565b93506144b281856020860161539d565b80840191505092915050565b60006144cb601283614fd1565b91506144d6826154d1565b602082019050919050565b60006144ee600b83614fe2565b91506144f9826154fa565b600b82019050919050565b6000614511601083614fd1565b915061451c82615523565b602082019050919050565b6000614534600f83614fd1565b915061453f8261554c565b602082019050919050565b6000614557602683614fd1565b915061456282615575565b604082019050919050565b600061457a601283614fd1565b9150614585826155c4565b602082019050919050565b600061459d601183614fd1565b91506145a8826155ed565b602082019050919050565b60006145c0601683614fd1565b91506145cb82615616565b602082019050919050565b60006145e3602e83614fd1565b91506145ee8261563f565b604082019050919050565b6000614606600583614fd1565b91506146118261568e565b602082019050919050565b6000614629600383614fd1565b9150614634826156b7565b602082019050919050565b600061464c600483614fd1565b9150614657826156e0565b602082019050919050565b600061466f600c83614fd1565b915061467a82615709565b602082019050919050565b6000614692600b83614fd1565b915061469d82615732565b602082019050919050565b60006146b5600583614fe2565b91506146c08261575b565b600582019050919050565b60006146d8600183614fe2565b91506146e382615784565b600182019050919050565b60006146fb601d83614fd1565b9150614706826157ad565b602082019050919050565b600061471e600183614fe2565b9150614729826157d6565b600182019050919050565b6000614741600e83614fd1565b915061474c826157ff565b602082019050919050565b6000614764600a83614fd1565b915061476f82615828565b602082019050919050565b6000614787602a83614fd1565b915061479282615851565b604082019050919050565b60006147aa600d83614fd1565b91506147b5826158a0565b602082019050919050565b60006147cd601583614fd1565b91506147d8826158c9565b602082019050919050565b60006080830160008301516147fb6000860182614394565b50602083015161480e6020860182614394565b5060408301518482036040860152614826828261441b565b91505060608301518482036060860152614840828261441b565b9150508091505092915050565b61485681615278565b82525050565b61486581615282565b82525050565b60006148778284614354565b915081905092915050565b600061488e828561448d565b915061489982614711565b91506148a5828461448d565b91506148b0826144e1565b91508190509392505050565b60006148c8828561448d565b91506148d382614711565b91506148df828461448d565b91506148ea826146a8565b91508190509392505050565b6000614901826146cb565b915061490d828461448d565b915081905092915050565b600060208201905061492d60008301846142fd565b92915050565b600060408201905061494860008301856142fd565b61495560208301846142fd565b9392505050565b600060608201905061497160008301866142fd565b61497e60208301856142fd565b61498b604083018461484d565b949350505050565b600060e0820190506149a8600083018a6142fd565b6149b560208301896142fd565b6149c2604083018861484d565b6149cf606083018761484d565b6149dc608083018661485c565b6149e960a083018561430c565b6149f660c083018461430c565b98975050505050505050565b6000604082019050614a1760008301856142fd565b614a24602083018461484d565b9392505050565b6000602082019050614a406000830184614385565b92915050565b6000602082019050614a5b60008301846143a3565b92915050565b6000606082019050614a7660008301866143a3565b614a8360208301856143d0565b614a9060408301846143df565b949350505050565b6000602082019050614aad60008301846143b2565b92915050565b6000602082019050614ac860008301846143c1565b92915050565b6000602082019050614ae360008301846143d0565b92915050565b6000606082019050614afe60008301866143fd565b614b0b602083018561484d565b614b18604083018461484d565b949350505050565b6000602082019050614b35600083018461440c565b92915050565b60006020820190508181036000830152614b558184614454565b905092915050565b60006060820190508181036000830152614b778186614454565b90508181036020830152614b8b8185614454565b9050614b9a60408301846143ee565b949350505050565b60006020820190508181036000830152614bbb816144be565b9050919050565b60006060820190508181036000830152614bdb81614504565b90508181036020830152614bef818561431b565b90508181036040830152614c03818461431b565b90509392505050565b60006020820190508181036000830152614c2581614527565b9050919050565b60006020820190508181036000830152614c458161454a565b9050919050565b60006020820190508181036000830152614c658161456d565b9050919050565b60006020820190508181036000830152614c8581614590565b9050919050565b60006020820190508181036000830152614ca5816145b3565b9050919050565b60006020820190508181036000830152614cc5816145d6565b9050919050565b60006060820190508181036000830152614ce5816145f9565b90508181036020830152614cf9818561431b565b90508181036040830152614d0d818461431b565b90509392505050565b60006060820190508181036000830152614d2f8161461c565b90508181036020830152614d43818561431b565b90508181036040830152614d57818461431b565b90509392505050565b60006060820190508181036000830152614d798161463f565b90508181036020830152614d8d818561431b565b90508181036040830152614da1818461431b565b90509392505050565b60006060820190508181036000830152614dc381614662565b90508181036020830152614dd7818561431b565b90508181036040830152614deb818461431b565b90509392505050565b60006020820190508181036000830152614e0d81614685565b9050919050565b60006020820190508181036000830152614e2d816146ee565b9050919050565b60006020820190508181036000830152614e4d81614734565b9050919050565b60006060820190508181036000830152614e6d81614757565b90508181036020830152614e81818561431b565b90508181036040830152614e95818461431b565b90509392505050565b60006020820190508181036000830152614eb78161477a565b9050919050565b60006060820190508181036000830152614ed78161479d565b90508181036020830152614eeb818561431b565b90508181036040830152614eff818461431b565b90509392505050565b60006020820190508181036000830152614f21816147c0565b9050919050565b60006020820190508181036000830152614f4281846147e3565b905092915050565b6000602082019050614f5f600083018461484d565b92915050565b6000604082019050614f7a600083018561484d565b614f87602083018461484d565b9392505050565b600081519050919050565b600081519050919050565b600082825260208201905092915050565b600081905092915050565b600082825260208201905092915050565b600082825260208201905092915050565b600081905092915050565b6000614ff882615278565b915061500383615278565b9250827fffffffffffffffffffffffffffffffffffffffffffffffffffffffffffffffff0382111561503857615037615462565b5b828201905092915050565b600061504e82615278565b915061505983615278565b92508261506957615068615491565b5b828204905092915050565b600061507f82615278565b915061508a83615278565b9250817fffffffffffffffffffffffffffffffffffffffffffffffffffffffffffffffff04831182151516156150c3576150c2615462565b5b828202905092915050565b60006150d98261524e565b91506150e48361524e565b9250827f80000000000000000000000000000000000000000000000000000000000000000182126000841215161561511f5761511e615462565b5b827f7fffffffffffffffffffffffffffffffffffffffffffffffffffffffffffffff01821360008412161561515757615156615462565b5b828203905092915050565b600061516d82615278565b915061517883615278565b92508282101561518b5761518a615462565b5b828203905092915050565b60006151a182615258565b9050919050565b60008115159050919050565b6000819050919050565b60006151c982615196565b9050919050565b60006151db82615196565b9050919050565b60006151ed82615196565b9050919050565b60006151ff82615196565b9050919050565b600061521182615196565b9050919050565b600061522382615196565b9050919050565b600061523582615196565b9050919050565b600061524782615196565b9050919050565b6000819050919050565b600073ffffffffffffffffffffffffffffffffffffffff82169050919050565b6000819050919050565b600060ff82169050919050565b600061529a826152a1565b9050919050565b60006152ac82615258565b9050919050565b60006152be826152c5565b9050919050565b60006152d082615258565b9050919050565b60006152e2826152e9565b9050919050565b60006152f482615258565b9050919050565b60006153068261530d565b9050919050565b600061531882615258565b9050919050565b600061532a82615331565b9050919050565b600061533c82615258565b9050919050565b600061534e82615355565b9050919050565b600061536082615258565b9050919050565b600061537282615379565b9050919050565b600061538482615258565b9050919050565b600061539682615282565b9050919050565b60005b838110156153bb5780820151818401526020810190506153a0565b838111156153ca576000848401525b50505050565b60006153db82615278565b91507fffffffffffffffffffffffffffffffffffffffffffffffffffffffffffffffff82141561540e5761540d615462565b5b600182019050919050565b60006154248261524e565b91507f800000000000000000000000000000000000000000000000000000000000000082141561545757615456615462565b5b816000039050919050565b7f4e487b7100000000000000000000000000000000000000000000000000000000600052601160045260246000fd5b7f4e487b7100000000000000000000000000000000000000000000000000000000600052601260045260246000fd5b6000601f19601f8301169050919050565b7f54454e4445525f4255524e5f4641494c45440000000000000000000000000000600082015250565b7f205377617020546f6b656e000000000000000000000000000000000000000000600082015250565b7f5354414b494e475f434f4e545241435400000000000000000000000000000000600082015250565b7f4645455f455843454544535f4d41580000000000000000000000000000000000600082015250565b7f416464726573733a20696e73756666696369656e742062616c616e636520666f60008201527f722063616c6c0000000000000000000000000000000000000000000000000000602082015250565b7f54454e4445525f4d494e545f4641494c45440000000000000000000000000000600082015250565b7f4143434f554e545f4d4953544d41544348000000000000000000000000000000600082015250565b7f455243313136373a20637265617465206661696c656400000000000000000000600082015250565b7f496e697469616c697a61626c653a20636f6e747261637420697320616c72656160008201527f647920696e697469616c697a6564000000000000000000000000000000000000602082015250565b7f535445414b000000000000000000000000000000000000000000000000000000600082015250565b7f474f560000000000000000000000000000000000000000000000000000000000600082015250565b7f4e4f444500000000000000000000000000000000000000000000000000000000600082015250565b7f50524f544f434f4c5f4645450000000000000000000000000000000000000000600082015250565b7f5a45524f5f414d4f554e54000000000000000000000000000000000000000000600082015250565b7f2d53574150000000000000000000000000000000000000000000000000000000600082015250565b7f7400000000000000000000000000000000000000000000000000000000000000600082015250565b7f416464726573733a2063616c6c20746f206e6f6e2d636f6e7472616374000000600082015250565b7f2d00000000000000000000000000000000000000000000000000000000000000600082015250565b7f4f4e474f494e475f554e4c4f434b000000000000000000000000000000000000600082015250565b7f54454e4445524641524d00000000000000000000000000000000000000000000600082015250565b7f5361666545524332303a204552433230206f7065726174696f6e20646964206e60008201527f6f74207375636365656400000000000000000000000000000000000000000000602082015250565b7f4c49515549444954595f46454500000000000000000000000000000000000000600082015250565b7f4641494c5f494e49545f54454e444552544f4b454e0000000000000000000000600082015250565b6158fb81615196565b811461590657600080fd5b50565b615912816151a8565b811461591d57600080fd5b50565b615929816151b4565b811461593457600080fd5b50565b615940816151be565b811461594b57600080fd5b50565b615957816151d0565b811461596257600080fd5b50565b61596e816151e2565b811461597957600080fd5b50565b615985816151f4565b811461599057600080fd5b50565b61599c81615206565b81146159a757600080fd5b50565b6159b381615218565b81146159be57600080fd5b50565b6159ca8161522a565b81146159d557600080fd5b50565b6159e18161523c565b81146159ec57600080fd5b50565b6159f881615278565b8114615a0357600080fd5b50565b615a0f81615282565b8114615a1a57600080fd5b5056fea26469706673582212206b25ff81dfe512c18af85bfeff28e38a00c5c408d439cde38ca757f15806852364736f6c63430008040033",
  "devdoc": {
    "kind": "dev",
    "methods": {
      "calcDepositOut(uint256)": {
        "details": "used by controller to calculate tokens to be minted before depositing.to be used when there a delegation tax is deducted, for eg. in Graph.",
        "returns": {
          "_0": "number of tokens staked for `amountIn`."
        }
      },
      "deposit(uint256)": {
        "details": "doesn't actually stakes the tokens but aggregates the balance in the tenderizer awaiting to be staked.requires '_amount' to be approved by '_from'.",
        "params": {
          "_amount": "amount deposited"
        }
      },
      "depositWithPermit(uint256,uint256,uint8,bytes32,bytes32)": {
        "details": "doesn't actually stakes the tokens but aggregates the balance in the tenderizer awaiting to be staked.requires '_amount' to be approved by '_from'.",
        "params": {
          "_amount": "amount deposited",
          "_deadline": "deadline for the permit",
          "_r": "from ECDSA signature",
          "_s": "from ECDSA signature",
          "_v": "from ECDSA signature"
        }
      },
      "rescueUnlock()": {
        "details": "Used to rescue all staked funds.",
        "returns": {
          "_0": "unstake lockID generated for unstake"
        }
      },
      "rescueWithdraw(uint256)": {
        "details": "To be called after rescueUnlock() with the unstakeLockID returned there.Process unlocks/withdrawals before rescueWithdraw for integrations with WithdrawPools."
      },
      "selfPermit(address,uint256,uint256,uint8,bytes32,bytes32)": {
        "details": "The `owner` is always msg.sender and the `spender` is always address(this).",
        "params": {
          "_deadline": "A timestamp, the current blocktime must be less than or equal to this timestamp",
          "_r": "Must produce valid secp256k1 signature from the holder along with `v` and `s`",
          "_s": "Must produce valid secp256k1 signature from the holder along with `r` and `v`",
          "_token": "The address of the token spent",
          "_v": "Must produce valid secp256k1 signature from the holder along with `r` and `s`",
          "_value": "The amount that can be spent of token"
        }
      },
      "selfPermitIfNecessary(address,uint256,uint256,uint8,bytes32,bytes32)": {
        "details": "The `owner` is always msg.sender and the `spender` is always address(this). Can be used instead of #selfPermit to prevent calls from failing due to a frontrun of a call to #selfPermit",
        "params": {
          "_deadline": "A timestamp, the current blocktime must be less than or equal to this timestamp",
          "_r": "Must produce valid secp256k1 signature from the holder along with `v` and `s`",
          "_s": "Must produce valid secp256k1 signature from the holder along with `r` and `v`",
          "_token": "The address of the token spent",
          "_v": "Must produce valid secp256k1 signature from the holder along with `r` and `s`",
          "_value": "The amount that can be spent of token"
        }
      },
      "stake(uint256)": {
        "details": "Only callable by Gov.",
        "params": {
          "_amount": "amount to stake"
        }
      },
      "totalStakedTokens()": {
        "returns": {
          "_0": "total amount staked by this Tenderizer"
        }
      },
      "unstake(uint256)": {
        "details": "unstake from the default address.If '_amount' is 0, unstake the entire amount staked towards _account.",
        "params": {
          "_amount": "amount to unstake"
        },
        "returns": {
          "_0": "unstake lockID generated for unstake"
        }
      },
      "withdraw(uint256)": {
        "details": "If '_amount' isn't specified all unstake tokens by '_account' will be withdrawn.Requires '_account' to have unstaked prior to calling withdraw.",
        "params": {
          "_unstakeLockID": "ID for the lock to request the withdraw for"
        }
      }
    },
    "version": 1
  },
  "userdoc": {
    "events": {
      "Deposit(address,uint256)": {
        "notice": "Deposit gets emitted when an accounts deposits underlying tokens."
      },
      "GovernanceUpdate(string,bytes,bytes)": {
        "notice": "GovernanceUpdate gets emitted when a parameter on the Tenderizer gets updated."
      },
      "LiquidityFeeCollected(uint256)": {
        "notice": "LiquidityFeeCollected gets emitted when liquidity provider fees are moved to the TenderFarm."
      },
      "ProtocolFeeCollected(uint256)": {
        "notice": "ProtocolFeeCollected gets emitted when the treasury claims its outstanding protocol fees."
      },
      "RewardsClaimed(int256,uint256,uint256)": {
        "notice": "RewardsClaimed gets emitted when the Tenderizer processes staking rewards (or slashing) from the underlying protocol."
      },
      "Stake(address,uint256)": {
        "notice": "Stake gets emitted when funds are staked/delegated from the Tenderizer contract into the underlying protocol."
      },
      "Unstake(address,address,uint256,uint256)": {
        "notice": "Unstake gets emitted when an account burns TenderTokens to unlock tokens staked through the Tenderizer"
      },
      "Withdraw(address,uint256,uint256)": {
        "notice": "Withdraw gets emitted when an account withdraws tokens that have been succesfully unstaked and thus unlocked for withdrawal."
      }
    },
    "kind": "user",
    "methods": {
      "calcDepositOut(uint256)": {
        "notice": "Returns the number of tenderTokens to be minted for amountIn deposit."
      },
      "claimRewards()": {
        "notice": "Compound all the rewards and new deposits. Claim staking rewards and earned fees for the underlying protocol and stake any leftover token balance. Process Tender protocol fees if revenue is positive."
      },
      "deposit(uint256)": {
        "notice": "Deposit tokens in Tenderizer."
      },
      "depositWithPermit(uint256,uint256,uint8,bytes32,bytes32)": {
        "notice": "Deposit tokens in Tenderizer with permit."
      },
      "rescueUnlock()": {
        "notice": "RescueUnstake unstakes all tokens from underlying protocol"
      },
      "rescueWithdraw(uint256)": {
        "notice": "RescueWithdraw withdraws all tokens into the Tenderizer from the underlying protocol  after the unlock period ends"
      },
      "selfPermit(address,uint256,uint256,uint8,bytes32,bytes32)": {
        "notice": "Permits this contract to spend a given token from `msg.sender`"
      },
      "selfPermitIfNecessary(address,uint256,uint256,uint8,bytes32,bytes32)": {
        "notice": "Permits this contract to spend a given token from `msg.sender`"
      },
      "stake(uint256)": {
        "notice": "Stake '_amount' of tokens."
      },
      "totalStakedTokens()": {
        "notice": "Total Staked Tokens returns the total amount of underlying tokens staked by this Tenderizer."
      },
      "unstake(uint256)": {
        "notice": "Unstake '_amount' of tokens from '_account'."
      },
      "withdraw(uint256)": {
        "notice": "Withdraw '_amount' of tokens previously unstaked by '_account'."
      }
    },
    "version": 1
  },
  "storageLayout": {
    "storage": [
      {
        "astId": 2640,
        "contract": "contracts/tenderizer/integrations/audius/Audius.sol:Audius",
        "label": "_initialized",
        "offset": 0,
        "slot": "0",
        "type": "t_uint8"
      },
      {
        "astId": 2643,
        "contract": "contracts/tenderizer/integrations/audius/Audius.sol:Audius",
        "label": "_initializing",
        "offset": 1,
        "slot": "0",
        "type": "t_bool"
      },
      {
        "astId": 6607,
        "contract": "contracts/tenderizer/integrations/audius/Audius.sol:Audius",
        "label": "steak",
        "offset": 2,
        "slot": "0",
        "type": "t_contract(IERC20)3439"
      },
      {
        "astId": 6610,
        "contract": "contracts/tenderizer/integrations/audius/Audius.sol:Audius",
        "label": "tenderToken",
        "offset": 0,
        "slot": "1",
        "type": "t_contract(ITenderToken)16439"
      },
      {
        "astId": 6613,
        "contract": "contracts/tenderizer/integrations/audius/Audius.sol:Audius",
        "label": "tenderFarm",
        "offset": 0,
        "slot": "2",
        "type": "t_contract(ITenderFarm)5833"
      },
      {
        "astId": 6616,
        "contract": "contracts/tenderizer/integrations/audius/Audius.sol:Audius",
        "label": "tenderSwap",
        "offset": 0,
        "slot": "3",
        "type": "t_contract(ITenderSwap)10524"
      },
      {
        "astId": 6618,
        "contract": "contracts/tenderizer/integrations/audius/Audius.sol:Audius",
        "label": "node",
        "offset": 0,
        "slot": "4",
        "type": "t_address"
      },
      {
        "astId": 6620,
        "contract": "contracts/tenderizer/integrations/audius/Audius.sol:Audius",
        "label": "protocolFee",
        "offset": 0,
        "slot": "5",
        "type": "t_uint256"
      },
      {
        "astId": 6622,
        "contract": "contracts/tenderizer/integrations/audius/Audius.sol:Audius",
        "label": "liquidityFee",
        "offset": 0,
        "slot": "6",
        "type": "t_uint256"
      },
      {
        "astId": 6624,
        "contract": "contracts/tenderizer/integrations/audius/Audius.sol:Audius",
        "label": "currentPrincipal",
        "offset": 0,
        "slot": "7",
        "type": "t_uint256"
      },
      {
        "astId": 6626,
        "contract": "contracts/tenderizer/integrations/audius/Audius.sol:Audius",
        "label": "gov",
        "offset": 0,
        "slot": "8",
        "type": "t_address"
      },
      {
        "astId": 8037,
        "contract": "contracts/tenderizer/integrations/audius/Audius.sol:Audius",
        "label": "audius",
        "offset": 0,
        "slot": "9",
        "type": "t_contract(IAudius)8517"
      },
      {
        "astId": 8039,
        "contract": "contracts/tenderizer/integrations/audius/Audius.sol:Audius",
        "label": "audiusStaking",
        "offset": 0,
        "slot": "10",
        "type": "t_address"
      },
      {
        "astId": 8042,
        "contract": "contracts/tenderizer/integrations/audius/Audius.sol:Audius",
        "label": "withdrawPool",
        "offset": 0,
        "slot": "11",
        "type": "t_struct(Pool)7589_storage"
      }
    ],
    "types": {
      "t_address": {
        "encoding": "inplace",
        "label": "address",
        "numberOfBytes": "20"
      },
      "t_bool": {
        "encoding": "inplace",
        "label": "bool",
        "numberOfBytes": "1"
      },
      "t_contract(IAudius)8517": {
        "encoding": "inplace",
        "label": "contract IAudius",
        "numberOfBytes": "20"
      },
      "t_contract(IERC20)3439": {
        "encoding": "inplace",
        "label": "contract IERC20",
        "numberOfBytes": "20"
      },
      "t_contract(ITenderFarm)5833": {
        "encoding": "inplace",
        "label": "contract ITenderFarm",
        "numberOfBytes": "20"
      },
      "t_contract(ITenderSwap)10524": {
        "encoding": "inplace",
        "label": "contract ITenderSwap",
        "numberOfBytes": "20"
      },
      "t_contract(ITenderToken)16439": {
        "encoding": "inplace",
        "label": "contract ITenderToken",
        "numberOfBytes": "20"
      },
      "t_mapping(t_uint256,t_struct(Withdrawal)7569_storage)": {
        "encoding": "mapping",
        "key": "t_uint256",
        "label": "mapping(uint256 => struct WithdrawalPools.Withdrawal)",
        "numberOfBytes": "32",
        "value": "t_struct(Withdrawal)7569_storage"
      },
      "t_struct(Pool)7589_storage": {
        "encoding": "inplace",
        "label": "struct WithdrawalPools.Pool",
        "members": [
          {
            "astId": 7574,
            "contract": "contracts/tenderizer/integrations/audius/Audius.sol:Audius",
            "label": "withdrawals",
            "offset": 0,
            "slot": "0",
            "type": "t_mapping(t_uint256,t_struct(Withdrawal)7569_storage)"
          },
          {
            "astId": 7576,
            "contract": "contracts/tenderizer/integrations/audius/Audius.sol:Audius",
            "label": "withdrawalID",
            "offset": 0,
            "slot": "1",
            "type": "t_uint256"
          },
          {
            "astId": 7578,
            "contract": "contracts/tenderizer/integrations/audius/Audius.sol:Audius",
            "label": "shares",
            "offset": 0,
            "slot": "2",
            "type": "t_uint256"
          },
          {
            "astId": 7580,
            "contract": "contracts/tenderizer/integrations/audius/Audius.sol:Audius",
            "label": "amount",
            "offset": 0,
            "slot": "3",
            "type": "t_uint256"
          },
          {
            "astId": 7582,
            "contract": "contracts/tenderizer/integrations/audius/Audius.sol:Audius",
            "label": "pendingUnlock",
            "offset": 0,
            "slot": "4",
            "type": "t_uint256"
          },
          {
            "astId": 7584,
            "contract": "contracts/tenderizer/integrations/audius/Audius.sol:Audius",
            "label": "pendingWithdrawal",
            "offset": 0,
            "slot": "5",
            "type": "t_uint256"
          },
          {
            "astId": 7586,
            "contract": "contracts/tenderizer/integrations/audius/Audius.sol:Audius",
            "label": "epoch",
            "offset": 0,
            "slot": "6",
            "type": "t_uint256"
          },
          {
            "astId": 7588,
            "contract": "contracts/tenderizer/integrations/audius/Audius.sol:Audius",
            "label": "lastEpoch",
            "offset": 0,
            "slot": "7",
            "type": "t_uint256"
          }
        ],
        "numberOfBytes": "256"
      },
      "t_struct(Withdrawal)7569_storage": {
        "encoding": "inplace",
        "label": "struct WithdrawalPools.Withdrawal",
        "members": [
          {
            "astId": 7564,
            "contract": "contracts/tenderizer/integrations/audius/Audius.sol:Audius",
            "label": "shares",
            "offset": 0,
            "slot": "0",
            "type": "t_uint256"
          },
          {
            "astId": 7566,
            "contract": "contracts/tenderizer/integrations/audius/Audius.sol:Audius",
            "label": "receiver",
            "offset": 0,
            "slot": "1",
            "type": "t_address"
          },
          {
            "astId": 7568,
            "contract": "contracts/tenderizer/integrations/audius/Audius.sol:Audius",
            "label": "epoch",
            "offset": 0,
            "slot": "2",
            "type": "t_uint256"
          }
        ],
        "numberOfBytes": "96"
      },
      "t_uint256": {
        "encoding": "inplace",
        "label": "uint256",
        "numberOfBytes": "32"
      },
      "t_uint8": {
        "encoding": "inplace",
        "label": "uint8",
        "numberOfBytes": "1"
      }
    }
  }
}