{
  "address": "0xe11Bd910842581Ef00dfD2fCdF2f9d7e39d819bf",
  "abi": [
    {
      "anonymous": false,
      "inputs": [
        {
          "indexed": true,
          "internalType": "address",
          "name": "from",
          "type": "address"
        },
        {
          "indexed": false,
          "internalType": "uint256",
          "name": "amount",
          "type": "uint256"
        }
      ],
      "name": "Deposit",
      "type": "event"
    },
    {
      "anonymous": false,
      "inputs": [
        {
          "indexed": false,
          "internalType": "string",
          "name": "param",
          "type": "string"
        },
        {
          "indexed": false,
          "internalType": "bytes",
          "name": "oldValue",
          "type": "bytes"
        },
        {
          "indexed": false,
          "internalType": "bytes",
          "name": "newValue",
          "type": "bytes"
        }
      ],
      "name": "GovernanceUpdate",
      "type": "event"
    },
    {
      "anonymous": false,
      "inputs": [
        {
          "indexed": false,
          "internalType": "uint256",
          "name": "amount",
          "type": "uint256"
        }
      ],
      "name": "LiquidityFeeCollected",
      "type": "event"
    },
    {
      "anonymous": false,
      "inputs": [
        {
          "indexed": true,
          "internalType": "address",
          "name": "from",
          "type": "address"
        },
        {
          "indexed": true,
          "internalType": "address",
          "name": "node",
          "type": "address"
        },
        {
          "indexed": false,
          "internalType": "uint256",
          "name": "amount",
          "type": "uint256"
        }
      ],
      "name": "ProcessUnstakes",
      "type": "event"
    },
    {
      "anonymous": false,
      "inputs": [
        {
          "indexed": true,
          "internalType": "address",
          "name": "from",
          "type": "address"
        },
        {
          "indexed": false,
          "internalType": "uint256",
          "name": "amount",
          "type": "uint256"
        }
      ],
      "name": "ProcessWithdraws",
      "type": "event"
    },
    {
      "anonymous": false,
      "inputs": [
        {
          "indexed": false,
          "internalType": "uint256",
          "name": "amount",
          "type": "uint256"
        }
      ],
      "name": "ProtocolFeeCollected",
      "type": "event"
    },
    {
      "anonymous": false,
      "inputs": [
        {
          "indexed": false,
          "internalType": "int256",
          "name": "stakeDiff",
          "type": "int256"
        },
        {
          "indexed": false,
          "internalType": "uint256",
          "name": "currentPrincipal",
          "type": "uint256"
        },
        {
          "indexed": false,
          "internalType": "uint256",
          "name": "oldPrincipal",
          "type": "uint256"
        }
      ],
      "name": "RewardsClaimed",
      "type": "event"
    },
    {
      "anonymous": false,
      "inputs": [
        {
          "indexed": true,
          "internalType": "address",
          "name": "node",
          "type": "address"
        },
        {
          "indexed": false,
          "internalType": "uint256",
          "name": "amount",
          "type": "uint256"
        }
      ],
      "name": "Stake",
      "type": "event"
    },
    {
      "anonymous": false,
      "inputs": [
        {
          "indexed": true,
          "internalType": "address",
          "name": "from",
          "type": "address"
        },
        {
          "indexed": true,
          "internalType": "address",
          "name": "node",
          "type": "address"
        },
        {
          "indexed": false,
          "internalType": "uint256",
          "name": "amount",
          "type": "uint256"
        },
        {
          "indexed": false,
          "internalType": "uint256",
          "name": "unstakeLockID",
          "type": "uint256"
        }
      ],
      "name": "Unstake",
      "type": "event"
    },
    {
      "anonymous": false,
      "inputs": [
        {
          "indexed": true,
          "internalType": "address",
          "name": "from",
          "type": "address"
        },
        {
          "indexed": false,
          "internalType": "uint256",
          "name": "amount",
          "type": "uint256"
        },
        {
          "indexed": false,
          "internalType": "uint256",
          "name": "unstakeLockID",
          "type": "uint256"
        }
      ],
      "name": "Withdraw",
      "type": "event"
    },
    {
      "inputs": [
        {
          "internalType": "uint256",
          "name": "_amountIn",
          "type": "uint256"
        }
      ],
      "name": "calcDepositOut",
      "outputs": [
        {
          "internalType": "uint256",
          "name": "",
          "type": "uint256"
        }
      ],
      "stateMutability": "view",
      "type": "function"
    },
    {
      "inputs": [],
      "name": "claimRewards",
      "outputs": [],
      "stateMutability": "nonpayable",
      "type": "function"
    },
    {
      "inputs": [],
      "name": "currentPrincipal",
      "outputs": [
        {
          "internalType": "uint256",
          "name": "",
          "type": "uint256"
        }
      ],
      "stateMutability": "view",
      "type": "function"
    },
    {
      "inputs": [
        {
          "internalType": "uint256",
          "name": "_amount",
          "type": "uint256"
        }
      ],
      "name": "deposit",
      "outputs": [],
      "stateMutability": "nonpayable",
      "type": "function"
    },
    {
      "inputs": [
        {
          "internalType": "uint256",
          "name": "_amount",
          "type": "uint256"
        },
        {
          "internalType": "uint256",
          "name": "_deadline",
          "type": "uint256"
        },
        {
          "internalType": "uint8",
          "name": "_v",
          "type": "uint8"
        },
        {
          "internalType": "bytes32",
          "name": "_r",
          "type": "bytes32"
        },
        {
          "internalType": "bytes32",
          "name": "_s",
          "type": "bytes32"
        }
      ],
      "name": "depositWithPermit",
      "outputs": [],
      "stateMutability": "nonpayable",
      "type": "function"
    },
    {
      "inputs": [],
      "name": "gov",
      "outputs": [
        {
          "internalType": "address",
          "name": "",
          "type": "address"
        }
      ],
      "stateMutability": "view",
      "type": "function"
    },
    {
      "inputs": [
        {
          "internalType": "contract IERC20",
          "name": "_steak",
          "type": "address"
        },
        {
          "internalType": "string",
          "name": "_symbol",
          "type": "string"
        },
        {
          "internalType": "contract IGraph",
          "name": "_graph",
          "type": "address"
        },
        {
          "internalType": "address",
          "name": "_node",
          "type": "address"
        },
        {
          "internalType": "uint256",
          "name": "_protocolFee",
          "type": "uint256"
        },
        {
          "internalType": "uint256",
          "name": "_liquidityFee",
          "type": "uint256"
        },
        {
          "internalType": "contract ITenderToken",
          "name": "_tenderTokenTarget",
          "type": "address"
        },
        {
          "internalType": "contract TenderFarmFactory",
          "name": "_tenderFarmFactory",
          "type": "address"
        },
        {
          "internalType": "contract ITenderSwapFactory",
          "name": "_tenderSwapFactory",
          "type": "address"
        }
      ],
      "name": "initialize",
      "outputs": [],
      "stateMutability": "nonpayable",
      "type": "function"
    },
    {
      "inputs": [],
      "name": "liquidityFee",
      "outputs": [
        {
          "internalType": "uint256",
          "name": "",
          "type": "uint256"
        }
      ],
      "stateMutability": "view",
      "type": "function"
    },
    {
      "inputs": [],
      "name": "node",
      "outputs": [
        {
          "internalType": "address",
          "name": "",
          "type": "address"
        }
      ],
      "stateMutability": "view",
      "type": "function"
    },
    {
      "inputs": [],
      "name": "processUnstake",
      "outputs": [],
      "stateMutability": "nonpayable",
      "type": "function"
    },
    {
      "inputs": [],
      "name": "processWithdraw",
      "outputs": [],
      "stateMutability": "nonpayable",
      "type": "function"
    },
    {
      "inputs": [],
      "name": "protocolFee",
      "outputs": [
        {
          "internalType": "uint256",
          "name": "",
          "type": "uint256"
        }
      ],
      "stateMutability": "view",
      "type": "function"
    },
    {
      "inputs": [],
      "name": "rescueUnlock",
      "outputs": [
        {
          "internalType": "uint256",
          "name": "",
          "type": "uint256"
        }
      ],
      "stateMutability": "nonpayable",
      "type": "function"
    },
    {
      "inputs": [
        {
          "internalType": "uint256",
          "name": "_unstakeLockID",
          "type": "uint256"
        }
      ],
      "name": "rescueWithdraw",
      "outputs": [],
      "stateMutability": "nonpayable",
      "type": "function"
    },
    {
      "inputs": [
        {
          "internalType": "address",
          "name": "_token",
          "type": "address"
        },
        {
          "internalType": "uint256",
          "name": "_value",
          "type": "uint256"
        },
        {
          "internalType": "uint256",
          "name": "_deadline",
          "type": "uint256"
        },
        {
          "internalType": "uint8",
          "name": "_v",
          "type": "uint8"
        },
        {
          "internalType": "bytes32",
          "name": "_r",
          "type": "bytes32"
        },
        {
          "internalType": "bytes32",
          "name": "_s",
          "type": "bytes32"
        }
      ],
      "name": "selfPermit",
      "outputs": [],
      "stateMutability": "payable",
      "type": "function"
    },
    {
      "inputs": [
        {
          "internalType": "address",
          "name": "_token",
          "type": "address"
        },
        {
          "internalType": "uint256",
          "name": "_value",
          "type": "uint256"
        },
        {
          "internalType": "uint256",
          "name": "_deadline",
          "type": "uint256"
        },
        {
          "internalType": "uint8",
          "name": "_v",
          "type": "uint8"
        },
        {
          "internalType": "bytes32",
          "name": "_r",
          "type": "bytes32"
        },
        {
          "internalType": "bytes32",
          "name": "_s",
          "type": "bytes32"
        }
      ],
      "name": "selfPermitIfNecessary",
      "outputs": [],
      "stateMutability": "payable",
      "type": "function"
    },
    {
      "inputs": [
        {
          "internalType": "address",
          "name": "_gov",
          "type": "address"
        }
      ],
      "name": "setGov",
      "outputs": [],
      "stateMutability": "nonpayable",
      "type": "function"
    },
    {
      "inputs": [
        {
          "internalType": "uint256",
          "name": "_liquidityFee",
          "type": "uint256"
        }
      ],
      "name": "setLiquidityFee",
      "outputs": [],
      "stateMutability": "nonpayable",
      "type": "function"
    },
    {
      "inputs": [
        {
          "internalType": "address",
          "name": "_node",
          "type": "address"
        }
      ],
      "name": "setNode",
      "outputs": [],
      "stateMutability": "nonpayable",
      "type": "function"
    },
    {
      "inputs": [
        {
          "internalType": "uint256",
          "name": "_protocolFee",
          "type": "uint256"
        }
      ],
      "name": "setProtocolFee",
      "outputs": [],
      "stateMutability": "nonpayable",
      "type": "function"
    },
    {
      "inputs": [
        {
          "internalType": "address",
          "name": "_stakingContract",
          "type": "address"
        }
      ],
      "name": "setStakingContract",
      "outputs": [],
      "stateMutability": "nonpayable",
      "type": "function"
    },
    {
      "inputs": [
        {
          "internalType": "contract IERC20",
          "name": "_steak",
          "type": "address"
        }
      ],
      "name": "setSteak",
      "outputs": [],
      "stateMutability": "nonpayable",
      "type": "function"
    },
    {
      "inputs": [
        {
          "internalType": "contract ITenderFarm",
          "name": "_tenderFarm",
          "type": "address"
        }
      ],
      "name": "setTenderFarm",
      "outputs": [],
      "stateMutability": "nonpayable",
      "type": "function"
    },
    {
      "inputs": [
        {
          "internalType": "uint256",
          "name": "_amount",
          "type": "uint256"
        }
      ],
      "name": "stake",
      "outputs": [],
      "stateMutability": "nonpayable",
      "type": "function"
    },
    {
      "inputs": [],
      "name": "steak",
      "outputs": [
        {
          "internalType": "contract IERC20",
          "name": "",
          "type": "address"
        }
      ],
      "stateMutability": "view",
      "type": "function"
    },
    {
      "inputs": [],
      "name": "tenderFarm",
      "outputs": [
        {
          "internalType": "contract ITenderFarm",
          "name": "",
          "type": "address"
        }
      ],
      "stateMutability": "view",
      "type": "function"
    },
    {
      "inputs": [],
      "name": "tenderSwap",
      "outputs": [
        {
          "internalType": "contract ITenderSwap",
          "name": "",
          "type": "address"
        }
      ],
      "stateMutability": "view",
      "type": "function"
    },
    {
      "inputs": [],
      "name": "tenderToken",
      "outputs": [
        {
          "internalType": "contract ITenderToken",
          "name": "",
          "type": "address"
        }
      ],
      "stateMutability": "view",
      "type": "function"
    },
    {
      "inputs": [],
      "name": "totalStakedTokens",
      "outputs": [
        {
          "internalType": "uint256",
          "name": "",
          "type": "uint256"
        }
      ],
      "stateMutability": "view",
      "type": "function"
    },
    {
      "inputs": [
        {
          "internalType": "uint256",
          "name": "_amount",
          "type": "uint256"
        }
      ],
      "name": "unstake",
      "outputs": [
        {
          "internalType": "uint256",
          "name": "",
          "type": "uint256"
        }
      ],
      "stateMutability": "nonpayable",
      "type": "function"
    },
    {
      "inputs": [
        {
          "internalType": "uint256",
          "name": "_unstakeLockID",
          "type": "uint256"
        }
      ],
      "name": "withdraw",
      "outputs": [],
      "stateMutability": "nonpayable",
      "type": "function"
    }
  ],
  "transactionHash": "0x057bbd5b50579ab090c2b905552eea3bba74603a79e3c32138d52b8fe13d4b38",
  "args": [],
  "numDeployments": 1,
  "solcInputHash": "19276debf674c1c1df901d1bc8945ee1",
  "bytecode": "0x608060405234801561001057600080fd5b50615d7c80620000216000396000f3fe6080604052600436106101d85760003560e01c806398118cb411610102578063c2e3140a11610095578063f3995c6711610064578063f3995c671461063b578063f4d95a7114610657578063fbdfc96114610682578063fdacf3d0146106ab576101d8565b8063c2e3140a146105a2578063cfad57a2146105be578063d70754ec146105e7578063ec6d80f614610612576101d8565b8063afef75d2116100d1578063afef75d2146104fc578063b0e21e8a14610525578063b6b55f2514610550578063c21d5ab714610579576101d8565b806398118cb4146104545780639dd373b91461047f578063a26a546b146104a8578063a694fc3a146104d3576101d8565b8063372500ab1161017a5780636991bc77116101495780636991bc771461039a5780636f190315146103c3578063787dce3d146103ee5780637cb0c27514610417576101d8565b8063372500ab146103045780633ae732591461031b5780634a970be71461034657806351c669c01461036f576101d8565b80632e17de78116101b65780632e17de781461024a5780632e1a7d4d14610287578063357bf15c146102b057806336a30f44146102d9576101d8565b806301303614146101dd57806312d43a51146101f45780632d8221601461021f575b600080fd5b3480156101e957600080fd5b506101f26106c2565b005b34801561020057600080fd5b506102096109c2565b6040516102169190614bc2565b60405180910390f35b34801561022b57600080fd5b506102346109e8565b6040516102419190614d78565b60405180910390f35b34801561025657600080fd5b50610271600480360381019061026c91906144c4565b610a0e565b60405161027e91906151d9565b60405180910390f35b34801561029357600080fd5b506102ae60048036038101906102a991906144c4565b610b93565b005b3480156102bc57600080fd5b506102d760048036038101906102d291906144c4565b610ba0565b005b3480156102e557600080fd5b506102ee610cc9565b6040516102fb91906151d9565b60405180910390f35b34801561031057600080fd5b50610319610d59565b005b34801561032757600080fd5b50610330610d63565b60405161033d91906151d9565b60405180910390f35b34801561035257600080fd5b5061036d60048036038101906103689190614516565b610d72565b005b34801561037b57600080fd5b50610384610db3565b60405161039191906151d9565b60405180910390f35b3480156103a657600080fd5b506103c160048036038101906103bc91906144c4565b610db9565b005b3480156103cf57600080fd5b506103d8610e20565b6040516103e59190614cd5565b60405180910390f35b3480156103fa57600080fd5b50610415600480360381019061041091906144c4565b610e46565b005b34801561042357600080fd5b5061043e600480360381019061043991906144c4565b610f6f565b60405161044b91906151d9565b60405180910390f35b34801561046057600080fd5b50610469610f81565b60405161047691906151d9565b60405180910390f35b34801561048b57600080fd5b506104a660048036038101906104a191906141e7565b610f87565b005b3480156104b457600080fd5b506104bd610fed565b6040516104ca9190614d5d565b60405180910390f35b3480156104df57600080fd5b506104fa60048036038101906104f591906144c4565b611013565b005b34801561050857600080fd5b50610523600480360381019061051e91906142c2565b611079565b005b34801561053157600080fd5b5061053a6111b0565b60405161054791906151d9565b60405180910390f35b34801561055c57600080fd5b50610577600480360381019061057291906144c4565b6111b6565b005b34801561058557600080fd5b506105a0600480360381019061059b91906141e7565b6111c3565b005b6105bc60048036038101906105b79190614210565b6112fa565b005b3480156105ca57600080fd5b506105e560048036038101906105e091906141e7565b6113b4565b005b3480156105f357600080fd5b506105fc6114eb565b6040516106099190614bc2565b60405180910390f35b34801561061e57600080fd5b50610639600480360381019061063491906142eb565b611511565b005b61065560048036038101906106509190614210565b6115b2565b005b34801561066357600080fd5b5061066c611631565b6040516106799190614d42565b60405180910390f35b34801561068e57600080fd5b506106a960048036038101906106a491906143ce565b611657565b005b3480156106b757600080fd5b506106c061178e565b005b600860009054906101000a900473ffffffffffffffffffffffffffffffffffffffff1673ffffffffffffffffffffffffffffffffffffffff163373ffffffffffffffffffffffffffffffffffffffff161461071c57600080fd5b60008060029054906101000a900473ffffffffffffffffffffffffffffffffffffffff1673ffffffffffffffffffffffffffffffffffffffff166370a08231306040518263ffffffff1660e01b81526004016107789190614bc2565b60206040518083038186803b15801561079057600080fd5b505afa1580156107a4573d6000803e3d6000fd5b505050506040513d601f19601f820116820180604052508101906107c891906144ed565b9050600960009054906101000a900473ffffffffffffffffffffffffffffffffffffffff1673ffffffffffffffffffffffffffffffffffffffff166351a60b02600460009054906101000a900473ffffffffffffffffffffffffffffffffffffffff1660006040518363ffffffff1660e01b815260040161084a929190614bdd565b602060405180830381600087803b15801561086457600080fd5b505af1158015610878573d6000803e3d6000fd5b505050506040513d601f19601f8201168201806040525081019061089c91906144ed565b5060008060029054906101000a900473ffffffffffffffffffffffffffffffffffffffff1673ffffffffffffffffffffffffffffffffffffffff166370a08231306040518263ffffffff1660e01b81526004016108f99190614bc2565b60206040518083038186803b15801561091157600080fd5b505afa158015610925573d6000803e3d6000fd5b505050506040513d601f19601f8201168201806040525081019061094991906144ed565b9050600082826109599190615416565b905061096f81600a611a1690919063ffffffff16565b3373ffffffffffffffffffffffffffffffffffffffff167fcb9532430439237c8bdb19ae1bbb70b36989d22003981d3e7d06f1befd3fc4ad826040516109b591906151d9565b60405180910390a2505050565b600860009054906101000a900473ffffffffffffffffffffffffffffffffffffffff1681565b600160009054906101000a900473ffffffffffffffffffffffffffffffffffffffff1681565b6000808211610a52576040517f08c379a0000000000000000000000000000000000000000000000000000000008152600401610a4990615083565b60405180910390fd5b600160009054906101000a900473ffffffffffffffffffffffffffffffffffffffff1673ffffffffffffffffffffffffffffffffffffffff16639dc29fac33846040518363ffffffff1660e01b8152600401610aaf929190614cac565b602060405180830381600087803b158015610ac957600080fd5b505af1158015610add573d6000803e3d6000fd5b505050506040513d601f19601f82011682018060405250810190610b019190614299565b610b40576040517f08c379a0000000000000000000000000000000000000000000000000000000008152600401610b3790614e31565b60405180910390fd5b6000610b6f33600460009054906101000a900473ffffffffffffffffffffffffffffffffffffffff1685611a96565b90508260076000828254610b839190615416565b9250508190555080915050919050565b610b9d3382611b23565b50565b600860009054906101000a900473ffffffffffffffffffffffffffffffffffffffff1673ffffffffffffffffffffffffffffffffffffffff163373ffffffffffffffffffffffffffffffffffffffff1614610bfa57600080fd5b681b1ae4d6e2ef500000811115610c46576040517f08c379a0000000000000000000000000000000000000000000000000000000008152600401610c3d90614e9b565b60405180910390fd5b7f5555cb3612e5f2fc327f8394a162756a3cca8144f95b4dcfb4ee29320c7992d3600654604051602001610c7a91906151d9565b60405160208183030381529060405282604051602001610c9a91906151d9565b604051602081830303815290604052604051610cb792919061514d565b60405180910390a18060068190555050565b6000600860009054906101000a900473ffffffffffffffffffffffffffffffffffffffff1673ffffffffffffffffffffffffffffffffffffffff163373ffffffffffffffffffffffffffffffffffffffff1614610d2557600080fd5b610d5430600460009054906101000a900473ffffffffffffffffffffffffffffffffffffffff16600754611a96565b905090565b610d61611d4a565b565b6000610d6d611ebe565b905090565b610da2600060029054906101000a900473ffffffffffffffffffffffffffffffffffffffff1686868686866115b2565b610dac3386611ec8565b5050505050565b60075481565b600860009054906101000a900473ffffffffffffffffffffffffffffffffffffffff1673ffffffffffffffffffffffffffffffffffffffff163373ffffffffffffffffffffffffffffffffffffffff1614610e1357600080fd5b610e1d3082611b23565b50565b600060029054906101000a900473ffffffffffffffffffffffffffffffffffffffff1681565b600860009054906101000a900473ffffffffffffffffffffffffffffffffffffffff1673ffffffffffffffffffffffffffffffffffffffff163373ffffffffffffffffffffffffffffffffffffffff1614610ea057600080fd5b681b1ae4d6e2ef500000811115610eec576040517f08c379a0000000000000000000000000000000000000000000000000000000008152600401610ee390614e9b565b60405180910390fd5b7f5555cb3612e5f2fc327f8394a162756a3cca8144f95b4dcfb4ee29320c7992d3600554604051602001610f2091906151d9565b60405160208183030381529060405282604051602001610f4091906151d9565b604051602081830303815290604052604051610f5d929190615039565b60405180910390a18060058190555050565b6000610f7a82612064565b9050919050565b60065481565b600860009054906101000a900473ffffffffffffffffffffffffffffffffffffffff1673ffffffffffffffffffffffffffffffffffffffff163373ffffffffffffffffffffffffffffffffffffffff1614610fe157600080fd5b610fea8161213d565b50565b600360009054906101000a900473ffffffffffffffffffffffffffffffffffffffff1681565b600860009054906101000a900473ffffffffffffffffffffffffffffffffffffffff1673ffffffffffffffffffffffffffffffffffffffff163373ffffffffffffffffffffffffffffffffffffffff161461106d57600080fd5b6110768161221a565b50565b600860009054906101000a900473ffffffffffffffffffffffffffffffffffffffff1673ffffffffffffffffffffffffffffffffffffffff163373ffffffffffffffffffffffffffffffffffffffff16146110d357600080fd5b7f5555cb3612e5f2fc327f8394a162756a3cca8144f95b4dcfb4ee29320c7992d3600060029054906101000a900473ffffffffffffffffffffffffffffffffffffffff166040516020016111279190614cd5565b604051602081830303815290604052826040516020016111479190614cd5565b604051602081830303815290604052604051611164929190614f5b565b60405180910390a180600060026101000a81548173ffffffffffffffffffffffffffffffffffffffff021916908373ffffffffffffffffffffffffffffffffffffffff16021790555050565b60055481565b6111c03382611ec8565b50565b600860009054906101000a900473ffffffffffffffffffffffffffffffffffffffff1673ffffffffffffffffffffffffffffffffffffffff163373ffffffffffffffffffffffffffffffffffffffff161461121d57600080fd5b7f5555cb3612e5f2fc327f8394a162756a3cca8144f95b4dcfb4ee29320c7992d3600460009054906101000a900473ffffffffffffffffffffffffffffffffffffffff166040516020016112719190614bc2565b604051602081830303815290604052826040516020016112919190614bc2565b6040516020818303038152906040526040516112ae929190614fef565b60405180910390a180600460006101000a81548173ffffffffffffffffffffffffffffffffffffffff021916908373ffffffffffffffffffffffffffffffffffffffff16021790555050565b60008673ffffffffffffffffffffffffffffffffffffffff1663dd62ed3e33306040518363ffffffff1660e01b8152600401611337929190614bdd565b60206040518083038186803b15801561134f57600080fd5b505afa158015611363573d6000803e3d6000fd5b505050506040513d601f19601f8201168201806040525081019061138791906144ed565b9050858110156113ab576113aa8782886113a19190615416565b878787876115b2565b5b50505050505050565b600860009054906101000a900473ffffffffffffffffffffffffffffffffffffffff1673ffffffffffffffffffffffffffffffffffffffff163373ffffffffffffffffffffffffffffffffffffffff161461140e57600080fd5b7f5555cb3612e5f2fc327f8394a162756a3cca8144f95b4dcfb4ee29320c7992d3600860009054906101000a900473ffffffffffffffffffffffffffffffffffffffff166040516020016114629190614bc2565b604051602081830303815290604052826040516020016114829190614bc2565b60405160208183030381529060405260405161149f929190614fa5565b60405180910390a180600860006101000a81548173ffffffffffffffffffffffffffffffffffffffff021916908373ffffffffffffffffffffffffffffffffffffffff16021790555050565b600460009054906101000a900473ffffffffffffffffffffffffffffffffffffffff1681565b6115658a8a8a8080601f016020809104026020016040519081016040528093929190818152602001838380828437600081840152601f19601f8201169050808301925050505050505088888888888861243b565b86600960006101000a81548173ffffffffffffffffffffffffffffffffffffffff021916908373ffffffffffffffffffffffffffffffffffffffff16021790555050505050505050505050565b8573ffffffffffffffffffffffffffffffffffffffff1663d505accf333088888888886040518863ffffffff1660e01b81526004016115f79796959493929190614c3d565b600060405180830381600087803b15801561161157600080fd5b505af1158015611625573d6000803e3d6000fd5b50505050505050505050565b600260009054906101000a900473ffffffffffffffffffffffffffffffffffffffff1681565b600860009054906101000a900473ffffffffffffffffffffffffffffffffffffffff1673ffffffffffffffffffffffffffffffffffffffff163373ffffffffffffffffffffffffffffffffffffffff16146116b157600080fd5b7f5555cb3612e5f2fc327f8394a162756a3cca8144f95b4dcfb4ee29320c7992d3600260009054906101000a900473ffffffffffffffffffffffffffffffffffffffff166040516020016117059190614d42565b604051602081830303815290604052826040516020016117259190614d42565b6040516020818303038152906040526040516117429291906150e3565b60405180910390a180600260006101000a81548173ffffffffffffffffffffffffffffffffffffffff021916908373ffffffffffffffffffffffffffffffffffffffff16021790555050565b600860009054906101000a900473ffffffffffffffffffffffffffffffffffffffff1673ffffffffffffffffffffffffffffffffffffffff163373ffffffffffffffffffffffffffffffffffffffff16146117e857600080fd5b60006117f4600a612a83565b90506000600460009054906101000a900473ffffffffffffffffffffffffffffffffffffffff1690506000600960009054906101000a900473ffffffffffffffffffffffffffffffffffffffff1673ffffffffffffffffffffffffffffffffffffffff166392511c8f836040518263ffffffff1660e01b815260040161187a9190614bc2565b60c06040518083038186803b15801561189257600080fd5b505afa1580156118a6573d6000803e3d6000fd5b505050506040513d601f19601f820116820180604052508101906118ca9190614472565b905060008160a00151905060008260800151905060008183876118ed9190615328565b6118f791906152f7565b9050600960009054906101000a900473ffffffffffffffffffffffffffffffffffffffff1673ffffffffffffffffffffffffffffffffffffffff16634d99dd1686836040518363ffffffff1660e01b8152600401611956929190614cac565b602060405180830381600087803b15801561197057600080fd5b505af1158015611984573d6000803e3d6000fd5b505050506040513d601f19601f820116820180604052508101906119a891906144ed565b508473ffffffffffffffffffffffffffffffffffffffff163373ffffffffffffffffffffffffffffffffffffffff167f60ee6fa425658ca10bf59c88bdf8b45cfdea156d13d309740414613e66800a0d88604051611a0691906151d9565b60405180910390a3505050505050565b8160070154826006015411611a60576040517f08c379a0000000000000000000000000000000000000000000000000000000008152600401611a57906150c3565b60405180910390fd5b80826003016000828254611a7491906152a1565b9250508190555060008260050181905550816006015482600701819055505050565b600080829050611ab28582600a612b0d9092919063ffffffff16565b91508373ffffffffffffffffffffffffffffffffffffffff168573ffffffffffffffffffffffffffffffffffffffff167f18edd09e80386cd99df397e2e0d87d2bb259423eae08645e776321a36fe680ef8385604051611b139291906151f4565b60405180910390a3509392505050565b6000611b3b8284600a612c249092919063ffffffff16565b9050600060029054906101000a900473ffffffffffffffffffffffffffffffffffffffff1673ffffffffffffffffffffffffffffffffffffffff1663a9059cbb84836040518363ffffffff1660e01b8152600401611b9a929190614cac565b602060405180830381600087803b158015611bb457600080fd5b505af1925050508015611be557506040513d601f19601f82011682018060405250810190611be29190614299565b60015b611cf35760008060029054906101000a900473ffffffffffffffffffffffffffffffffffffffff1673ffffffffffffffffffffffffffffffffffffffff166370a08231306040518263ffffffff1660e01b8152600401611c459190614bc2565b60206040518083038186803b158015611c5d57600080fd5b505afa158015611c71573d6000803e3d6000fd5b505050506040513d601f19601f82011682018060405250810190611c9591906144ed565b905080821115611ced57611cec8482600060029054906101000a900473ffffffffffffffffffffffffffffffffffffffff1673ffffffffffffffffffffffffffffffffffffffff16612e109092919063ffffffff16565b5b50611cf5565b505b8273ffffffffffffffffffffffffffffffffffffffff167ff279e6a1f5e320cca91135676d9cb6e44ca8a08c0b88342bcdb1144f6511b5688284604051611d3d9291906151f4565b60405180910390a2505050565b611d52612e96565b6000611d5c612e98565b90506000811315611dd55760008190506000611d7a82600554613245565b90506000611d8a83600654613245565b9050808284611d999190615416565b611da39190615416565b60076000828254611db491906152a1565b92505081905550611dc482613259565b611dcd8161337e565b505050611e08565b6000811215611e0757600081611dea906156fc565b90508060076000828254611dfe9190615416565b92505081905550505b5b611ebb600060029054906101000a900473ffffffffffffffffffffffffffffffffffffffff1673ffffffffffffffffffffffffffffffffffffffff166370a08231306040518263ffffffff1660e01b8152600401611e669190614bc2565b60206040518083038186803b158015611e7e57600080fd5b505afa158015611e92573d6000803e3d6000fd5b505050506040513d601f19601f82011682018060405250810190611eb691906144ed565b61221a565b50565b6000600754905090565b60008111611f0b576040517f08c379a0000000000000000000000000000000000000000000000000000000008152600401611f0290615083565b60405180910390fd5b6000611f1682612064565b9050600160009054906101000a900473ffffffffffffffffffffffffffffffffffffffff1673ffffffffffffffffffffffffffffffffffffffff166340c10f1984836040518363ffffffff1660e01b8152600401611f75929190614cac565b602060405180830381600087803b158015611f8f57600080fd5b505af1158015611fa3573d6000803e3d6000fd5b505050506040513d601f19601f82011682018060405250810190611fc79190614299565b612006576040517f08c379a0000000000000000000000000000000000000000000000000000000008152600401611ffd90614edb565b60405180910390fd5b612055833084600060029054906101000a900473ffffffffffffffffffffffffffffffffffffffff1673ffffffffffffffffffffffffffffffffffffffff166137fe909392919063ffffffff16565b61205f8383613887565b505050565b6000620f424063ffffffff1682600960009054906101000a900473ffffffffffffffffffffffffffffffffffffffff1673ffffffffffffffffffffffffffffffffffffffff1663e6aeb7966040518163ffffffff1660e01b815260040160206040518083038186803b1580156120d957600080fd5b505afa1580156120ed573d6000803e3d6000fd5b505050506040513d601f19601f82011682018060405250810190612111919061458d565b63ffffffff166121219190615328565b61212b91906152f7565b826121369190615416565b9050919050565b7f5555cb3612e5f2fc327f8394a162756a3cca8144f95b4dcfb4ee29320c7992d3600960009054906101000a900473ffffffffffffffffffffffffffffffffffffffff166040516020016121919190614d27565b604051602081830303815290604052826040516020016121b19190614bc2565b6040516020818303038152906040526040516121ce929190614e51565b60405180910390a180600960006101000a81548173ffffffffffffffffffffffffffffffffffffffff021916908373ffffffffffffffffffffffffffffffffffffffff16021790555050565b6000819050600061222b600a6138fa565b905080821161223b575050612438565b80826122479190615416565b91506122b8600960009054906101000a900473ffffffffffffffffffffffffffffffffffffffff1683600060029054906101000a900473ffffffffffffffffffffffffffffffffffffffff1673ffffffffffffffffffffffffffffffffffffffff166139089092919063ffffffff16565b6000600960009054906101000a900473ffffffffffffffffffffffffffffffffffffffff1673ffffffffffffffffffffffffffffffffffffffff1663026e402b600460009054906101000a900473ffffffffffffffffffffffffffffffffffffffff16856040518363ffffffff1660e01b8152600401612339929190614cac565b602060405180830381600087803b15801561235357600080fd5b505af1158015612367573d6000803e3d6000fd5b505050506040513d601f19601f8201168201806040525081019061238b91906144ed565b9050600081116123c4577f4e487b7100000000000000000000000000000000000000000000000000000000600052600160045260246000fd5b600460009054906101000a900473ffffffffffffffffffffffffffffffffffffffff1673ffffffffffffffffffffffffffffffffffffffff167febedb8b3c678666e7f36970bc8f57abf6d8fa2e828c0da91ea5b75bf68ed101a8460405161242c91906151d9565b60405180910390a25050505b50565b600060019054906101000a900460ff1680612461575060008054906101000a900460ff16155b6124a0576040517f08c379a000000000000000000000000000000000000000000000000000000000815260040161249790614f3b565b60405180910390fd5b60008060019054906101000a900460ff1615905080156124f0576001600060016101000a81548160ff02191690831515021790555060016000806101000a81548160ff0219169083151502179055505b88600060026101000a81548173ffffffffffffffffffffffffffffffffffffffff021916908373ffffffffffffffffffffffffffffffffffffffff16021790555086600460006101000a81548173ffffffffffffffffffffffffffffffffffffffff021916908373ffffffffffffffffffffffffffffffffffffffff160217905550856005819055508460068190555033600860006101000a81548173ffffffffffffffffffffffffffffffffffffffff021916908373ffffffffffffffffffffffffffffffffffffffff16021790555060006125cc85613a29565b90506000896040516020016125e19190614ba0565b60405160208183030381529060405290508173ffffffffffffffffffffffffffffffffffffffff1663077f224a8b8c306040518463ffffffff1660e01b815260040161262f93929190614dec565b602060405180830381600087803b15801561264957600080fd5b505af115801561265d573d6000803e3d6000fd5b505050506040513d601f19601f820116820180604052508101906126819190614299565b6126c0576040517f08c379a00000000000000000000000000000000000000000000000000000000081526004016126b790615197565b60405180910390fd5b81600160006101000a81548173ffffffffffffffffffffffffffffffffffffffff021916908373ffffffffffffffffffffffffffffffffffffffff1602179055508373ffffffffffffffffffffffffffffffffffffffff1663a574175660405180608001604052808573ffffffffffffffffffffffffffffffffffffffff1681526020018e73ffffffffffffffffffffffffffffffffffffffff168152602001848e604051602001612773929190614b2c565b6040516020818303038152906040528152602001848e60405160200161279a929190614b66565b6040516020818303038152906040528152506040518263ffffffff1660e01b81526004016127c891906151b7565b602060405180830381600087803b1580156127e257600080fd5b505af11580156127f6573d6000803e3d6000fd5b505050506040513d601f19601f8201168201806040525081019061281a9190614420565b600360006101000a81548173ffffffffffffffffffffffffffffffffffffffff021916908373ffffffffffffffffffffffffffffffffffffffff160217905550600360009054906101000a900473ffffffffffffffffffffffffffffffffffffffff1673ffffffffffffffffffffffffffffffffffffffff1663f2fde38b336040518263ffffffff1660e01b81526004016128b59190614bc2565b600060405180830381600087803b1580156128cf57600080fd5b505af11580156128e3573d6000803e3d6000fd5b505050508473ffffffffffffffffffffffffffffffffffffffff1663d9181cd3600360009054906101000a900473ffffffffffffffffffffffffffffffffffffffff1673ffffffffffffffffffffffffffffffffffffffff16635fcbd2856040518163ffffffff1660e01b815260040160206040518083038186803b15801561296b57600080fd5b505afa15801561297f573d6000803e3d6000fd5b505050506040513d601f19601f820116820180604052508101906129a39190614449565b84306040518463ffffffff1660e01b81526004016129c393929190614cf0565b602060405180830381600087803b1580156129dd57600080fd5b505af11580156129f1573d6000803e3d6000fd5b505050506040513d601f19601f82011682018060405250810190612a1591906143f7565b600260006101000a81548173ffffffffffffffffffffffffffffffffffffffff021916908373ffffffffffffffffffffffffffffffffffffffff16021790555050508015612a785760008060016101000a81548160ff0219169083151502179055505b505050505050505050565b60008160070154826006015414612acf576040517f08c379a0000000000000000000000000000000000000000000000000000000008152600401612ac6906150c3565b60405180910390fd5b8160040154826005016000828254612ae791906152a1565b925050819055508160040154905060008260040181905550438260060181905550919050565b6000836001015490506000612b228584613afe565b905060405180606001604052808281526020018573ffffffffffffffffffffffffffffffffffffffff16815260200186600601548152508560000160008481526020019081526020016000206000820151816000015560208201518160010160006101000a81548173ffffffffffffffffffffffffffffffffffffffff021916908373ffffffffffffffffffffffffffffffffffffffff1602179055506040820151816002015590505082856004016000828254612be091906152a1565b9250508190555080856002016000828254612bfb91906152a1565b92505081905550846001016000815480929190612c17906156b3565b9190505550509392505050565b600080846000016000858152602001908152602001600020604051806060016040529081600082015481526020016001820160009054906101000a900473ffffffffffffffffffffffffffffffffffffffff1673ffffffffffffffffffffffffffffffffffffffff1673ffffffffffffffffffffffffffffffffffffffff16815260200160028201548152505090508460070154816040015110612cfd576040517f08c379a0000000000000000000000000000000000000000000000000000000008152600401612cf4906150c3565b60405180910390fd5b806020015173ffffffffffffffffffffffffffffffffffffffff168373ffffffffffffffffffffffffffffffffffffffff1614612d6f576040517f08c379a0000000000000000000000000000000000000000000000000000000008152600401612d6690614efb565b60405180910390fd5b612d7d858260000151613b51565b915081856003016000828254612d939190615416565b925050819055508060000151856002016000828254612db29190615416565b925050819055508460000160008581526020019081526020016000206000808201600090556001820160006101000a81549073ffffffffffffffffffffffffffffffffffffffff021916905560028201600090555050509392505050565b612e918363a9059cbb60e01b8484604051602401612e2f929190614cac565b604051602081830303815290604052907bffffffffffffffffffffffffffffffffffffffffffffffffffffffff19166020820180517bffffffffffffffffffffffffffffffffffffffffffffffffffffffff8381831617835250505050613b8b565b505050565b565b600080600960009054906101000a900473ffffffffffffffffffffffffffffffffffffffff1673ffffffffffffffffffffffffffffffffffffffff166315049a5a600460009054906101000a900473ffffffffffffffffffffffffffffffffffffffff16306040518363ffffffff1660e01b8152600401612f1a929190614bdd565b60606040518083038186803b158015612f3257600080fd5b505afa158015612f46573d6000803e3d6000fd5b505050506040513d601f19601f82011682018060405250810190612f6a919061449b565b90506000600960009054906101000a900473ffffffffffffffffffffffffffffffffffffffff1673ffffffffffffffffffffffffffffffffffffffff166392511c8f600460009054906101000a900473ffffffffffffffffffffffffffffffffffffffff166040518263ffffffff1660e01b8152600401612feb9190614bc2565b60c06040518083038186803b15801561300357600080fd5b505afa158015613017573d6000803e3d6000fd5b505050506040513d601f19601f8201168201806040525081019061303b9190614472565b905060008260000151905060008260a001519050600083608001519050600082141561306f57600095505050505050613242565b600082828561307e9190615328565b61308891906152f7565b9050600060075490506000613156600a60030154600060029054906101000a900473ffffffffffffffffffffffffffffffffffffffff1673ffffffffffffffffffffffffffffffffffffffff166370a08231306040518263ffffffff1660e01b81526004016130f79190614bc2565b60206040518083038186803b15801561310f57600080fd5b505afa158015613123573d6000803e3d6000fd5b505050506040513d601f19601f8201168201806040525081019061314791906144ed565b6131519190615416565b612064565b9050600a60040154818461316a91906152a1565b6131749190615416565b925081836131829190615382565b985060008912156131fe576000613199600a613c52565b9050600083826131a991906152a1565b905060008111156131fb576000818387876131c49190615416565b6131ce9190615328565b6131d891906152f7565b90506131f981846131e99190615416565b600a613c7e90919063ffffffff16565b505b50505b7f78c13bf6a7fae25f1085d594e546d7a97cb66a55bc9733c7ea78236c452663ec89848460405161323193929190614d93565b60405180910390a150505050505050505b90565b60006132518383613d23565b905092915050565b600160009054906101000a900473ffffffffffffffffffffffffffffffffffffffff1673ffffffffffffffffffffffffffffffffffffffff166340c10f19600860009054906101000a900473ffffffffffffffffffffffffffffffffffffffff16836040518363ffffffff1660e01b81526004016132d8929190614cac565b602060405180830381600087803b1580156132f257600080fd5b505af1158015613306573d6000803e3d6000fd5b505050506040513d601f19601f8201168201806040525081019061332a9190614299565b50806007600082825461333d91906152a1565b925050819055507f414d7d8eae12f648156e75499fc0a5a10aa84f2745c6f791b0453cb17f1e17fa8160405161337391906151d9565b60405180910390a150565b6000600260009054906101000a900473ffffffffffffffffffffffffffffffffffffffff1673ffffffffffffffffffffffffffffffffffffffff166304d3b7c46040518163ffffffff1660e01b815260040160206040518083038186803b1580156133e857600080fd5b505afa1580156133fc573d6000803e3d6000fd5b505050506040513d601f19601f8201168201806040525081019061342091906144ed565b1161342a576137fb565b6000600160009054906101000a900473ffffffffffffffffffffffffffffffffffffffff1673ffffffffffffffffffffffffffffffffffffffff166370a08231306040518263ffffffff1660e01b81526004016134879190614bc2565b60206040518083038186803b15801561349f57600080fd5b505afa1580156134b3573d6000803e3d6000fd5b505050506040513d601f19601f820116820180604052508101906134d791906144ed565b9050600160009054906101000a900473ffffffffffffffffffffffffffffffffffffffff1673ffffffffffffffffffffffffffffffffffffffff166340c10f1930846040518363ffffffff1660e01b8152600401613536929190614cac565b602060405180830381600087803b15801561355057600080fd5b505af1158015613564573d6000803e3d6000fd5b505050506040513d601f19601f820116820180604052508101906135889190614299565b50816007600082825461359b91906152a1565b925050819055506000600160009054906101000a900473ffffffffffffffffffffffffffffffffffffffff1673ffffffffffffffffffffffffffffffffffffffff166370a08231306040518263ffffffff1660e01b81526004016135ff9190614bc2565b60206040518083038186803b15801561361757600080fd5b505afa15801561362b573d6000803e3d6000fd5b505050506040513d601f19601f8201168201806040525081019061364f91906144ed565b90506000828261365f9190615416565b9050600160009054906101000a900473ffffffffffffffffffffffffffffffffffffffff1673ffffffffffffffffffffffffffffffffffffffff1663095ea7b3600260009054906101000a900473ffffffffffffffffffffffffffffffffffffffff16836040518363ffffffff1660e01b81526004016136e0929190614cac565b602060405180830381600087803b1580156136fa57600080fd5b505af115801561370e573d6000803e3d6000fd5b505050506040513d601f19601f820116820180604052508101906137329190614299565b50600260009054906101000a900473ffffffffffffffffffffffffffffffffffffffff1673ffffffffffffffffffffffffffffffffffffffff1663beceed39826040518263ffffffff1660e01b815260040161378e91906151d9565b600060405180830381600087803b1580156137a857600080fd5b505af11580156137bc573d6000803e3d6000fd5b505050507f1d8f4bab53e84801fc35b88b53df72a998fa29c92e6fc65d412c4677d0d88c62816040516137ef91906151d9565b60405180910390a15050505b50565b613881846323b872dd60e01b85858560405160240161381f93929190614c06565b604051602081830303815290604052907bffffffffffffffffffffffffffffffffffffffffffffffffffffffff19166020820180517bffffffffffffffffffffffffffffffffffffffffffffffffffffffff8381831617835250505050613b8b565b50505050565b61389081612064565b600760008282546138a191906152a1565b925050819055508173ffffffffffffffffffffffffffffffffffffffff167fe1fffcc4923d04b559f4d29a8bfc6cda04eb5b0d3c460751c2402c5c5cc9109c826040516138ee91906151d9565b60405180910390a25050565b600081600301549050919050565b6000818473ffffffffffffffffffffffffffffffffffffffff1663dd62ed3e30866040518363ffffffff1660e01b8152600401613946929190614bdd565b60206040518083038186803b15801561395e57600080fd5b505afa158015613972573d6000803e3d6000fd5b505050506040513d601f19601f8201168201806040525081019061399691906144ed565b6139a091906152a1565b9050613a238463095ea7b360e01b85846040516024016139c1929190614cac565b604051602081830303815290604052907bffffffffffffffffffffffffffffffffffffffffffffffffffffffff19166020820180517bffffffffffffffffffffffffffffffffffffffffffffffffffffffff8381831617835250505050613b8b565b50505050565b60006040517f3d602d80600a3d3981f3363d3d373d3d3d363d7300000000000000000000000081528260601b60148201527f5af43d82803e903d91602b57fd5bf3000000000000000000000000000000000060288201526037816000f0915050600073ffffffffffffffffffffffffffffffffffffffff168173ffffffffffffffffffffffffffffffffffffffff161415613af9576040517f08c379a0000000000000000000000000000000000000000000000000000000008152600401613af090614f1b565b60405180910390fd5b919050565b600080613b0a84613c52565b90506000846002015490506000821415613b28578392505050613b4b565b6000811415613b3b578392505050613b4b565b613b46848284613d4d565b925050505b92915050565b600080836002015490506000811415613b6e576000915050613b85565b613b8183613b7b86613c52565b83613d4d565b9150505b92915050565b6000613bed826040518060400160405280602081526020017f5361666545524332303a206c6f772d6c6576656c2063616c6c206661696c65648152508573ffffffffffffffffffffffffffffffffffffffff16613d819092919063ffffffff16565b9050600081511115613c4d5780806020019051810190613c0d9190614299565b613c4c576040517f08c379a0000000000000000000000000000000000000000000000000000000008152600401613c439061512d565b60405180910390fd5b5b505050565b6000816005015482600401548360030154613c6d91906152a1565b613c7791906152a1565b9050919050565b6000826003015490506000836004015490506000846005015490506000818385613ca891906152a1565b613cb291906152a1565b90506000811115613d1b57808486613cca9190615328565b613cd491906152f7565b8660030181905550808386613ce99190615328565b613cf391906152f7565b8660040181905550808286613d089190615328565b613d1291906152f7565b86600501819055505b505050505050565b6000683635c9adc5dea000008284613d3b9190615328565b613d4591906152f7565b905092915050565b6000683635c9adc5dea00000613d638484613d99565b85613d6e9190615328565b613d7891906152f7565b90509392505050565b6060613d908484600085613dc3565b90509392505050565b600081683635c9adc5dea0000084613db19190615328565b613dbb91906152f7565b905092915050565b606082471015613e08576040517f08c379a0000000000000000000000000000000000000000000000000000000008152600401613dff90614ebb565b60405180910390fd5b613e1185613ed7565b613e50576040517f08c379a0000000000000000000000000000000000000000000000000000000008152600401613e47906150a3565b60405180910390fd5b6000808673ffffffffffffffffffffffffffffffffffffffff168587604051613e799190614b15565b60006040518083038185875af1925050503d8060008114613eb6576040519150601f19603f3d011682016040523d82523d6000602084013e613ebb565b606091505b5091509150613ecb828286613eea565b92505050949350505050565b600080823b905060008111915050919050565b60608315613efa57829050613f4a565b600083511115613f0d5782518084602001fd5b816040517f08c379a0000000000000000000000000000000000000000000000000000000008152600401613f419190614dca565b60405180910390fd5b9392505050565b600081359050613f6081615c04565b92915050565b600081519050613f7581615c1b565b92915050565b600081359050613f8a81615c32565b92915050565b600081359050613f9f81615c49565b92915050565b600081359050613fb481615c60565b92915050565b600081359050613fc981615c77565b92915050565b600081519050613fde81615c77565b92915050565b600081359050613ff381615c8e565b92915050565b60008151905061400881615ca5565b92915050565b60008135905061401d81615cbc565b92915050565b60008151905061403281615cd3565b92915050565b60008135905061404781615cea565b92915050565b60008083601f84011261405f57600080fd5b8235905067ffffffffffffffff81111561407857600080fd5b60208301915083600182028301111561409057600080fd5b9250929050565b600060c082840312156140a957600080fd5b6140b360c061521d565b905060006140c3848285016141bd565b60008301525060206140d7848285016141bd565b60208301525060406140eb848285016141bd565b60408301525060606140ff848285016141a8565b6060830152506080614113848285016141a8565b60808301525060a0614127848285016141a8565b60a08301525092915050565b60006060828403121561414557600080fd5b61414f606061521d565b9050600061415f848285016141a8565b6000830152506020614173848285016141a8565b6020830152506040614187848285016141a8565b60408301525092915050565b6000813590506141a281615d01565b92915050565b6000815190506141b781615d01565b92915050565b6000815190506141cc81615d18565b92915050565b6000813590506141e181615d2f565b92915050565b6000602082840312156141f957600080fd5b600061420784828501613f51565b91505092915050565b60008060008060008060c0878903121561422957600080fd5b600061423789828a01613f51565b965050602061424889828a01614193565b955050604061425989828a01614193565b945050606061426a89828a016141d2565b935050608061427b89828a01613f7b565b92505060a061428c89828a01613f7b565b9150509295509295509295565b6000602082840312156142ab57600080fd5b60006142b984828501613f66565b91505092915050565b6000602082840312156142d457600080fd5b60006142e284828501613f90565b91505092915050565b6000806000806000806000806000806101208b8d03121561430b57600080fd5b60006143198d828e01613f90565b9a505060208b013567ffffffffffffffff81111561433657600080fd5b6143428d828e0161404d565b995099505060406143558d828e01613fa5565b97505060606143668d828e01613f51565b96505060806143778d828e01614193565b95505060a06143888d828e01614193565b94505060c06143998d828e0161400e565b93505060e06143aa8d828e01614038565b9250506101006143bc8d828e01613fe4565b9150509295989b9194979a5092959850565b6000602082840312156143e057600080fd5b60006143ee84828501613fba565b91505092915050565b60006020828403121561440957600080fd5b600061441784828501613fcf565b91505092915050565b60006020828403121561443257600080fd5b600061444084828501613ff9565b91505092915050565b60006020828403121561445b57600080fd5b600061446984828501614023565b91505092915050565b600060c0828403121561448457600080fd5b600061449284828501614097565b91505092915050565b6000606082840312156144ad57600080fd5b60006144bb84828501614133565b91505092915050565b6000602082840312156144d657600080fd5b60006144e484828501614193565b91505092915050565b6000602082840312156144ff57600080fd5b600061450d848285016141a8565b91505092915050565b600080600080600060a0868803121561452e57600080fd5b600061453c88828901614193565b955050602061454d88828901614193565b945050604061455e888289016141d2565b935050606061456f88828901613f7b565b925050608061458088828901613f7b565b9150509295509295909350565b60006020828403121561459f57600080fd5b60006145ad848285016141bd565b91505092915050565b6145bf8161544a565b82525050565b6145ce81615468565b82525050565b60006145df82615242565b6145e98185615258565b93506145f981856020860161564f565b614602816157d2565b840191505092915050565b600061461882615242565b6146228185615269565b935061463281856020860161564f565b80840191505092915050565b61464781615553565b82525050565b61465681615553565b82525050565b61466581615577565b82525050565b6146748161559b565b82525050565b614683816155bf565b82525050565b614692816155e3565b82525050565b6146a181615607565b82525050565b6146b08161562b565b82525050565b6146bf81615502565b82525050565b60006146d08261524d565b6146da8185615274565b93506146ea81856020860161564f565b6146f3816157d2565b840191505092915050565b60006147098261524d565b6147138185615285565b935061472381856020860161564f565b61472c816157d2565b840191505092915050565b60006147428261524d565b61474c8185615296565b935061475c81856020860161564f565b80840191505092915050565b6000614775601283615285565b9150614780826157e3565b602082019050919050565b6000614798600b83615296565b91506147a38261580c565b600b82019050919050565b60006147bb601083615285565b91506147c682615835565b602082019050919050565b60006147de600f83615285565b91506147e98261585e565b602082019050919050565b6000614801602683615285565b915061480c82615887565b604082019050919050565b6000614824601283615285565b915061482f826158d6565b602082019050919050565b6000614847601183615285565b9150614852826158ff565b602082019050919050565b600061486a601683615285565b915061487582615928565b602082019050919050565b600061488d602e83615285565b915061489882615951565b604082019050919050565b60006148b0600583615285565b91506148bb826159a0565b602082019050919050565b60006148d3600383615285565b91506148de826159c9565b602082019050919050565b60006148f6600483615285565b9150614901826159f2565b602082019050919050565b6000614919600c83615285565b915061492482615a1b565b602082019050919050565b600061493c600b83615285565b915061494782615a44565b602082019050919050565b600061495f600583615296565b915061496a82615a6d565b600582019050919050565b6000614982600183615296565b915061498d82615a96565b600182019050919050565b60006149a5601d83615285565b91506149b082615abf565b602082019050919050565b60006149c8600183615296565b91506149d382615ae8565b600182019050919050565b60006149eb600e83615285565b91506149f682615b11565b602082019050919050565b6000614a0e600a83615285565b9150614a1982615b3a565b602082019050919050565b6000614a31602a83615285565b9150614a3c82615b63565b604082019050919050565b6000614a54600d83615285565b9150614a5f82615bb2565b602082019050919050565b6000614a77601583615285565b9150614a8282615bdb565b602082019050919050565b6000608083016000830151614aa5600086018261463e565b506020830151614ab8602086018261463e565b5060408301518482036040860152614ad082826146c5565b91505060608301518482036060860152614aea82826146c5565b9150508091505092915050565b614b008161552c565b82525050565b614b0f81615546565b82525050565b6000614b21828461460d565b915081905092915050565b6000614b388285614737565b9150614b43826149bb565b9150614b4f8284614737565b9150614b5a8261478b565b91508190509392505050565b6000614b728285614737565b9150614b7d826149bb565b9150614b898284614737565b9150614b9482614952565b91508190509392505050565b6000614bab82614975565b9150614bb78284614737565b915081905092915050565b6000602082019050614bd760008301846145b6565b92915050565b6000604082019050614bf260008301856145b6565b614bff60208301846145b6565b9392505050565b6000606082019050614c1b60008301866145b6565b614c2860208301856145b6565b614c356040830184614af7565b949350505050565b600060e082019050614c52600083018a6145b6565b614c5f60208301896145b6565b614c6c6040830188614af7565b614c796060830187614af7565b614c866080830186614b06565b614c9360a08301856145c5565b614ca060c08301846145c5565b98975050505050505050565b6000604082019050614cc160008301856145b6565b614cce6020830184614af7565b9392505050565b6000602082019050614cea600083018461464d565b92915050565b6000606082019050614d05600083018661464d565b614d126020830185614689565b614d1f6040830184614698565b949350505050565b6000602082019050614d3c600083018461465c565b92915050565b6000602082019050614d57600083018461466b565b92915050565b6000602082019050614d72600083018461467a565b92915050565b6000602082019050614d8d6000830184614689565b92915050565b6000606082019050614da860008301866146b6565b614db56020830185614af7565b614dc26040830184614af7565b949350505050565b60006020820190508181036000830152614de481846146fe565b905092915050565b60006060820190508181036000830152614e0681866146fe565b90508181036020830152614e1a81856146fe565b9050614e2960408301846146a7565b949350505050565b60006020820190508181036000830152614e4a81614768565b9050919050565b60006060820190508181036000830152614e6a816147ae565b90508181036020830152614e7e81856145d4565b90508181036040830152614e9281846145d4565b90509392505050565b60006020820190508181036000830152614eb4816147d1565b9050919050565b60006020820190508181036000830152614ed4816147f4565b9050919050565b60006020820190508181036000830152614ef481614817565b9050919050565b60006020820190508181036000830152614f148161483a565b9050919050565b60006020820190508181036000830152614f348161485d565b9050919050565b60006020820190508181036000830152614f5481614880565b9050919050565b60006060820190508181036000830152614f74816148a3565b90508181036020830152614f8881856145d4565b90508181036040830152614f9c81846145d4565b90509392505050565b60006060820190508181036000830152614fbe816148c6565b90508181036020830152614fd281856145d4565b90508181036040830152614fe681846145d4565b90509392505050565b60006060820190508181036000830152615008816148e9565b9050818103602083015261501c81856145d4565b9050818103604083015261503081846145d4565b90509392505050565b600060608201905081810360008301526150528161490c565b9050818103602083015261506681856145d4565b9050818103604083015261507a81846145d4565b90509392505050565b6000602082019050818103600083015261509c8161492f565b9050919050565b600060208201905081810360008301526150bc81614998565b9050919050565b600060208201905081810360008301526150dc816149de565b9050919050565b600060608201905081810360008301526150fc81614a01565b9050818103602083015261511081856145d4565b9050818103604083015261512481846145d4565b90509392505050565b6000602082019050818103600083015261514681614a24565b9050919050565b6000606082019050818103600083015261516681614a47565b9050818103602083015261517a81856145d4565b9050818103604083015261518e81846145d4565b90509392505050565b600060208201905081810360008301526151b081614a6a565b9050919050565b600060208201905081810360008301526151d18184614a8d565b905092915050565b60006020820190506151ee6000830184614af7565b92915050565b60006040820190506152096000830185614af7565b6152166020830184614af7565b9392505050565b6000615227615238565b90506152338282615682565b919050565b6000604051905090565b600081519050919050565b600081519050919050565b600082825260208201905092915050565b600081905092915050565b600082825260208201905092915050565b600082825260208201905092915050565b600081905092915050565b60006152ac8261552c565b91506152b78361552c565b9250827fffffffffffffffffffffffffffffffffffffffffffffffffffffffffffffffff038211156152ec576152eb615745565b5b828201905092915050565b60006153028261552c565b915061530d8361552c565b92508261531d5761531c615774565b5b828204905092915050565b60006153338261552c565b915061533e8361552c565b9250817fffffffffffffffffffffffffffffffffffffffffffffffffffffffffffffffff048311821515161561537757615376615745565b5b828202905092915050565b600061538d82615502565b915061539883615502565b9250827f8000000000000000000000000000000000000000000000000000000000000000018212600084121516156153d3576153d2615745565b5b827f7fffffffffffffffffffffffffffffffffffffffffffffffffffffffffffffff01821360008412161561540b5761540a615745565b5b828203905092915050565b60006154218261552c565b915061542c8361552c565b92508282101561543f5761543e615745565b5b828203905092915050565b60006154558261550c565b9050919050565b60008115159050919050565b6000819050919050565b600061547d8261544a565b9050919050565b600061548f8261544a565b9050919050565b60006154a18261544a565b9050919050565b60006154b38261544a565b9050919050565b60006154c58261544a565b9050919050565b60006154d78261544a565b9050919050565b60006154e98261544a565b9050919050565b60006154fb8261544a565b9050919050565b6000819050919050565b600073ffffffffffffffffffffffffffffffffffffffff82169050919050565b6000819050919050565b600063ffffffff82169050919050565b600060ff82169050919050565b600061555e82615565565b9050919050565b60006155708261550c565b9050919050565b600061558282615589565b9050919050565b60006155948261550c565b9050919050565b60006155a6826155ad565b9050919050565b60006155b88261550c565b9050919050565b60006155ca826155d1565b9050919050565b60006155dc8261550c565b9050919050565b60006155ee826155f5565b9050919050565b60006156008261550c565b9050919050565b600061561282615619565b9050919050565b60006156248261550c565b9050919050565b60006156368261563d565b9050919050565b60006156488261550c565b9050919050565b60005b8381101561566d578082015181840152602081019050615652565b8381111561567c576000848401525b50505050565b61568b826157d2565b810181811067ffffffffffffffff821117156156aa576156a96157a3565b5b80604052505050565b60006156be8261552c565b91507fffffffffffffffffffffffffffffffffffffffffffffffffffffffffffffffff8214156156f1576156f0615745565b5b600182019050919050565b600061570782615502565b91507f800000000000000000000000000000000000000000000000000000000000000082141561573a57615739615745565b5b816000039050919050565b7f4e487b7100000000000000000000000000000000000000000000000000000000600052601160045260246000fd5b7f4e487b7100000000000000000000000000000000000000000000000000000000600052601260045260246000fd5b7f4e487b7100000000000000000000000000000000000000000000000000000000600052604160045260246000fd5b6000601f19601f8301169050919050565b7f54454e4445525f4255524e5f4641494c45440000000000000000000000000000600082015250565b7f205377617020546f6b656e000000000000000000000000000000000000000000600082015250565b7f5354414b494e475f434f4e545241435400000000000000000000000000000000600082015250565b7f4645455f455843454544535f4d41580000000000000000000000000000000000600082015250565b7f416464726573733a20696e73756666696369656e742062616c616e636520666f60008201527f722063616c6c0000000000000000000000000000000000000000000000000000602082015250565b7f54454e4445525f4d494e545f4641494c45440000000000000000000000000000600082015250565b7f4143434f554e545f4d4953544d41544348000000000000000000000000000000600082015250565b7f455243313136373a20637265617465206661696c656400000000000000000000600082015250565b7f496e697469616c697a61626c653a20636f6e747261637420697320616c72656160008201527f647920696e697469616c697a6564000000000000000000000000000000000000602082015250565b7f535445414b000000000000000000000000000000000000000000000000000000600082015250565b7f474f560000000000000000000000000000000000000000000000000000000000600082015250565b7f4e4f444500000000000000000000000000000000000000000000000000000000600082015250565b7f50524f544f434f4c5f4645450000000000000000000000000000000000000000600082015250565b7f5a45524f5f414d4f554e54000000000000000000000000000000000000000000600082015250565b7f2d53574150000000000000000000000000000000000000000000000000000000600082015250565b7f7400000000000000000000000000000000000000000000000000000000000000600082015250565b7f416464726573733a2063616c6c20746f206e6f6e2d636f6e7472616374000000600082015250565b7f2d00000000000000000000000000000000000000000000000000000000000000600082015250565b7f4f4e474f494e475f554e4c4f434b000000000000000000000000000000000000600082015250565b7f54454e4445524641524d00000000000000000000000000000000000000000000600082015250565b7f5361666545524332303a204552433230206f7065726174696f6e20646964206e60008201527f6f74207375636365656400000000000000000000000000000000000000000000602082015250565b7f4c49515549444954595f46454500000000000000000000000000000000000000600082015250565b7f4641494c5f494e49545f54454e444552544f4b454e0000000000000000000000600082015250565b615c0d8161544a565b8114615c1857600080fd5b50565b615c248161545c565b8114615c2f57600080fd5b50565b615c3b81615468565b8114615c4657600080fd5b50565b615c5281615472565b8114615c5d57600080fd5b50565b615c6981615484565b8114615c7457600080fd5b50565b615c8081615496565b8114615c8b57600080fd5b50565b615c97816154a8565b8114615ca257600080fd5b50565b615cae816154ba565b8114615cb957600080fd5b50565b615cc5816154cc565b8114615cd057600080fd5b50565b615cdc816154de565b8114615ce757600080fd5b50565b615cf3816154f0565b8114615cfe57600080fd5b50565b615d0a8161552c565b8114615d1557600080fd5b50565b615d2181615536565b8114615d2c57600080fd5b50565b615d3881615546565b8114615d4357600080fd5b5056fea26469706673582212204f2b228d00de2c19e57716625fcf7616bfd9f8b78deb1e53f6e69d452df44bfa64736f6c63430008040033",
  "devdoc": {
    "kind": "dev",
    "methods": {
      "calcDepositOut(uint256)": {
        "details": "used by controller to calculate tokens to be minted before depositing.to be used when there a delegation tax is deducted, for eg. in Graph.",
        "returns": {
          "_0": "number of tokens staked for `amountIn`."
        }
      },
      "deposit(uint256)": {
        "details": "doesn't actually stakes the tokens but aggregates the balance in the tenderizer awaiting to be staked.requires '_amount' to be approved by '_from'.",
        "params": {
          "_amount": "amount deposited"
        }
      },
      "depositWithPermit(uint256,uint256,uint8,bytes32,bytes32)": {
        "details": "doesn't actually stakes the tokens but aggregates the balance in the tenderizer awaiting to be staked.requires '_amount' to be approved by '_from'.",
        "params": {
          "_amount": "amount deposited",
          "_deadline": "deadline for the permit",
          "_r": "from ECDSA signature",
          "_s": "from ECDSA signature",
          "_v": "from ECDSA signature"
        }
      },
      "rescueUnlock()": {
        "details": "Used to rescue all staked funds.",
        "returns": {
          "_0": "unstake lockID generated for unstake"
        }
      },
      "rescueWithdraw(uint256)": {
        "details": "To be called after rescueUnlock() with the unstakeLockID returned there.Process unlocks/withdrawals before rescueWithdraw for integrations with WithdrawPools."
      },
      "selfPermit(address,uint256,uint256,uint8,bytes32,bytes32)": {
        "details": "The `owner` is always msg.sender and the `spender` is always address(this).",
        "params": {
          "_deadline": "A timestamp, the current blocktime must be less than or equal to this timestamp",
          "_r": "Must produce valid secp256k1 signature from the holder along with `v` and `s`",
          "_s": "Must produce valid secp256k1 signature from the holder along with `r` and `v`",
          "_token": "The address of the token spent",
          "_v": "Must produce valid secp256k1 signature from the holder along with `r` and `s`",
          "_value": "The amount that can be spent of token"
        }
      },
      "selfPermitIfNecessary(address,uint256,uint256,uint8,bytes32,bytes32)": {
        "details": "The `owner` is always msg.sender and the `spender` is always address(this). Can be used instead of #selfPermit to prevent calls from failing due to a frontrun of a call to #selfPermit",
        "params": {
          "_deadline": "A timestamp, the current blocktime must be less than or equal to this timestamp",
          "_r": "Must produce valid secp256k1 signature from the holder along with `v` and `s`",
          "_s": "Must produce valid secp256k1 signature from the holder along with `r` and `v`",
          "_token": "The address of the token spent",
          "_v": "Must produce valid secp256k1 signature from the holder along with `r` and `s`",
          "_value": "The amount that can be spent of token"
        }
      },
      "stake(uint256)": {
        "details": "Only callable by Gov.",
        "params": {
          "_amount": "amount to stake"
        }
      },
      "totalStakedTokens()": {
        "returns": {
          "_0": "total amount staked by this Tenderizer"
        }
      },
      "unstake(uint256)": {
        "details": "unstake from the default address.If '_amount' is 0, unstake the entire amount staked towards _account.",
        "params": {
          "_amount": "amount to unstake"
        },
        "returns": {
          "_0": "unstake lockID generated for unstake"
        }
      },
      "withdraw(uint256)": {
        "details": "If '_amount' isn't specified all unstake tokens by '_account' will be withdrawn.Requires '_account' to have unstaked prior to calling withdraw.",
        "params": {
          "_unstakeLockID": "ID for the lock to request the withdraw for"
        }
      }
    },
    "version": 1
  },
  "userdoc": {
    "events": {
      "Deposit(address,uint256)": {
        "notice": "Deposit gets emitted when an accounts deposits underlying tokens."
      },
      "GovernanceUpdate(string,bytes,bytes)": {
        "notice": "GovernanceUpdate gets emitted when a parameter on the Tenderizer gets updated."
      },
      "LiquidityFeeCollected(uint256)": {
        "notice": "LiquidityFeeCollected gets emitted when liquidity provider fees are moved to the TenderFarm."
      },
      "ProtocolFeeCollected(uint256)": {
        "notice": "ProtocolFeeCollected gets emitted when the treasury claims its outstanding protocol fees."
      },
      "RewardsClaimed(int256,uint256,uint256)": {
        "notice": "RewardsClaimed gets emitted when the Tenderizer processes staking rewards (or slashing) from the underlying protocol."
      },
      "Stake(address,uint256)": {
        "notice": "Stake gets emitted when funds are staked/delegated from the Tenderizer contract into the underlying protocol."
      },
      "Unstake(address,address,uint256,uint256)": {
        "notice": "Unstake gets emitted when an account burns TenderTokens to unlock tokens staked through the Tenderizer"
      },
      "Withdraw(address,uint256,uint256)": {
        "notice": "Withdraw gets emitted when an account withdraws tokens that have been succesfully unstaked and thus unlocked for withdrawal."
      }
    },
    "kind": "user",
    "methods": {
      "calcDepositOut(uint256)": {
        "notice": "Returns the number of tenderTokens to be minted for amountIn deposit."
      },
      "claimRewards()": {
        "notice": "Compound all the rewards and new deposits. Claim staking rewards and earned fees for the underlying protocol and stake any leftover token balance. Process Tender protocol fees if revenue is positive."
      },
      "deposit(uint256)": {
        "notice": "Deposit tokens in Tenderizer."
      },
      "depositWithPermit(uint256,uint256,uint8,bytes32,bytes32)": {
        "notice": "Deposit tokens in Tenderizer with permit."
      },
      "rescueUnlock()": {
        "notice": "RescueUnstake unstakes all tokens from underlying protocol"
      },
      "rescueWithdraw(uint256)": {
        "notice": "RescueWithdraw withdraws all tokens into the Tenderizer from the underlying protocol  after the unlock period ends"
      },
      "selfPermit(address,uint256,uint256,uint8,bytes32,bytes32)": {
        "notice": "Permits this contract to spend a given token from `msg.sender`"
      },
      "selfPermitIfNecessary(address,uint256,uint256,uint8,bytes32,bytes32)": {
        "notice": "Permits this contract to spend a given token from `msg.sender`"
      },
      "stake(uint256)": {
        "notice": "Stake '_amount' of tokens."
      },
      "totalStakedTokens()": {
        "notice": "Total Staked Tokens returns the total amount of underlying tokens staked by this Tenderizer."
      },
      "unstake(uint256)": {
        "notice": "Unstake '_amount' of tokens from '_account'."
      },
      "withdraw(uint256)": {
        "notice": "Withdraw '_amount' of tokens previously unstaked by '_account'."
      }
    },
    "version": 1
  },
  "storageLayout": {
    "storage": [
      {
        "astId": 2048,
        "contract": "contracts/tenderizer/integrations/graph/Graph.sol:Graph",
        "label": "_initialized",
        "offset": 0,
        "slot": "0",
        "type": "t_bool"
      },
      {
        "astId": 2051,
        "contract": "contracts/tenderizer/integrations/graph/Graph.sol:Graph",
        "label": "_initializing",
        "offset": 1,
        "slot": "0",
        "type": "t_bool"
      },
      {
        "astId": 5620,
        "contract": "contracts/tenderizer/integrations/graph/Graph.sol:Graph",
        "label": "steak",
        "offset": 2,
        "slot": "0",
        "type": "t_contract(IERC20)2712"
      },
      {
        "astId": 5623,
        "contract": "contracts/tenderizer/integrations/graph/Graph.sol:Graph",
        "label": "tenderToken",
        "offset": 0,
        "slot": "1",
        "type": "t_contract(ITenderToken)15480"
      },
      {
        "astId": 5626,
        "contract": "contracts/tenderizer/integrations/graph/Graph.sol:Graph",
        "label": "tenderFarm",
        "offset": 0,
        "slot": "2",
        "type": "t_contract(ITenderFarm)4846"
      },
      {
        "astId": 5629,
        "contract": "contracts/tenderizer/integrations/graph/Graph.sol:Graph",
        "label": "tenderSwap",
        "offset": 0,
        "slot": "3",
        "type": "t_contract(ITenderSwap)9537"
      },
      {
        "astId": 5631,
        "contract": "contracts/tenderizer/integrations/graph/Graph.sol:Graph",
        "label": "node",
        "offset": 0,
        "slot": "4",
        "type": "t_address"
      },
      {
        "astId": 5633,
        "contract": "contracts/tenderizer/integrations/graph/Graph.sol:Graph",
        "label": "protocolFee",
        "offset": 0,
        "slot": "5",
        "type": "t_uint256"
      },
      {
        "astId": 5635,
        "contract": "contracts/tenderizer/integrations/graph/Graph.sol:Graph",
        "label": "liquidityFee",
        "offset": 0,
        "slot": "6",
        "type": "t_uint256"
      },
      {
        "astId": 5637,
        "contract": "contracts/tenderizer/integrations/graph/Graph.sol:Graph",
        "label": "currentPrincipal",
        "offset": 0,
        "slot": "7",
        "type": "t_uint256"
      },
      {
        "astId": 5639,
        "contract": "contracts/tenderizer/integrations/graph/Graph.sol:Graph",
        "label": "gov",
        "offset": 0,
        "slot": "8",
        "type": "t_address"
      },
      {
        "astId": 7570,
        "contract": "contracts/tenderizer/integrations/graph/Graph.sol:Graph",
        "label": "graph",
        "offset": 0,
        "slot": "9",
        "type": "t_contract(IGraph)8182"
      },
      {
        "astId": 7573,
        "contract": "contracts/tenderizer/integrations/graph/Graph.sol:Graph",
        "label": "withdrawPool",
        "offset": 0,
        "slot": "10",
        "type": "t_struct(Pool)6602_storage"
      }
    ],
    "types": {
      "t_address": {
        "encoding": "inplace",
        "label": "address",
        "numberOfBytes": "20"
      },
      "t_bool": {
        "encoding": "inplace",
        "label": "bool",
        "numberOfBytes": "1"
      },
      "t_contract(IERC20)2712": {
        "encoding": "inplace",
        "label": "contract IERC20",
        "numberOfBytes": "20"
      },
      "t_contract(IGraph)8182": {
        "encoding": "inplace",
        "label": "contract IGraph",
        "numberOfBytes": "20"
      },
      "t_contract(ITenderFarm)4846": {
        "encoding": "inplace",
        "label": "contract ITenderFarm",
        "numberOfBytes": "20"
      },
      "t_contract(ITenderSwap)9537": {
        "encoding": "inplace",
        "label": "contract ITenderSwap",
        "numberOfBytes": "20"
      },
      "t_contract(ITenderToken)15480": {
        "encoding": "inplace",
        "label": "contract ITenderToken",
        "numberOfBytes": "20"
      },
      "t_mapping(t_uint256,t_struct(Withdrawal)6582_storage)": {
        "encoding": "mapping",
        "key": "t_uint256",
        "label": "mapping(uint256 => struct WithdrawalPools.Withdrawal)",
        "numberOfBytes": "32",
        "value": "t_struct(Withdrawal)6582_storage"
      },
      "t_struct(Pool)6602_storage": {
        "encoding": "inplace",
        "label": "struct WithdrawalPools.Pool",
        "members": [
          {
            "astId": 6587,
            "contract": "contracts/tenderizer/integrations/graph/Graph.sol:Graph",
            "label": "withdrawals",
            "offset": 0,
            "slot": "0",
            "type": "t_mapping(t_uint256,t_struct(Withdrawal)6582_storage)"
          },
          {
            "astId": 6589,
            "contract": "contracts/tenderizer/integrations/graph/Graph.sol:Graph",
            "label": "withdrawalID",
            "offset": 0,
            "slot": "1",
            "type": "t_uint256"
          },
          {
            "astId": 6591,
            "contract": "contracts/tenderizer/integrations/graph/Graph.sol:Graph",
            "label": "shares",
            "offset": 0,
            "slot": "2",
            "type": "t_uint256"
          },
          {
            "astId": 6593,
            "contract": "contracts/tenderizer/integrations/graph/Graph.sol:Graph",
            "label": "amount",
            "offset": 0,
            "slot": "3",
            "type": "t_uint256"
          },
          {
            "astId": 6595,
            "contract": "contracts/tenderizer/integrations/graph/Graph.sol:Graph",
            "label": "pendingUnlock",
            "offset": 0,
            "slot": "4",
            "type": "t_uint256"
          },
          {
            "astId": 6597,
            "contract": "contracts/tenderizer/integrations/graph/Graph.sol:Graph",
            "label": "pendingWithdrawal",
            "offset": 0,
            "slot": "5",
            "type": "t_uint256"
          },
          {
            "astId": 6599,
            "contract": "contracts/tenderizer/integrations/graph/Graph.sol:Graph",
            "label": "epoch",
            "offset": 0,
            "slot": "6",
            "type": "t_uint256"
          },
          {
            "astId": 6601,
            "contract": "contracts/tenderizer/integrations/graph/Graph.sol:Graph",
            "label": "lastEpoch",
            "offset": 0,
            "slot": "7",
            "type": "t_uint256"
          }
        ],
        "numberOfBytes": "256"
      },
      "t_struct(Withdrawal)6582_storage": {
        "encoding": "inplace",
        "label": "struct WithdrawalPools.Withdrawal",
        "members": [
          {
            "astId": 6577,
            "contract": "contracts/tenderizer/integrations/graph/Graph.sol:Graph",
            "label": "shares",
            "offset": 0,
            "slot": "0",
            "type": "t_uint256"
          },
          {
            "astId": 6579,
            "contract": "contracts/tenderizer/integrations/graph/Graph.sol:Graph",
            "label": "receiver",
            "offset": 0,
            "slot": "1",
            "type": "t_address"
          },
          {
            "astId": 6581,
            "contract": "contracts/tenderizer/integrations/graph/Graph.sol:Graph",
            "label": "epoch",
            "offset": 0,
            "slot": "2",
            "type": "t_uint256"
          }
        ],
        "numberOfBytes": "96"
      },
      "t_uint256": {
        "encoding": "inplace",
        "label": "uint256",
        "numberOfBytes": "32"
      }
    }
  }
}