{
  "address": "0x762B75B8B9EE9b8599ce1C799bB442b984125f29",
  "abi": [
    {
      "anonymous": false,
      "inputs": [
        {
          "indexed": true,
          "internalType": "address",
          "name": "from",
          "type": "address"
        },
        {
          "indexed": false,
          "internalType": "uint256",
          "name": "amount",
          "type": "uint256"
        }
      ],
      "name": "Deposit",
      "type": "event"
    },
    {
      "anonymous": false,
      "inputs": [
        {
          "indexed": false,
          "internalType": "string",
          "name": "param",
          "type": "string"
        },
        {
          "indexed": false,
          "internalType": "bytes",
          "name": "oldValue",
          "type": "bytes"
        },
        {
          "indexed": false,
          "internalType": "bytes",
          "name": "newValue",
          "type": "bytes"
        }
      ],
      "name": "GovernanceUpdate",
      "type": "event"
    },
    {
      "anonymous": false,
      "inputs": [
        {
          "indexed": false,
          "internalType": "uint256",
          "name": "amount",
          "type": "uint256"
        }
      ],
      "name": "LiquidityFeeCollected",
      "type": "event"
    },
    {
      "anonymous": false,
      "inputs": [
        {
          "indexed": false,
          "internalType": "uint256",
          "name": "amount",
          "type": "uint256"
        }
      ],
      "name": "ProtocolFeeCollected",
      "type": "event"
    },
    {
      "anonymous": false,
      "inputs": [
        {
          "indexed": false,
          "internalType": "int256",
          "name": "stakeDiff",
          "type": "int256"
        },
        {
          "indexed": false,
          "internalType": "uint256",
          "name": "currentPrincipal",
          "type": "uint256"
        },
        {
          "indexed": false,
          "internalType": "uint256",
          "name": "oldPrincipal",
          "type": "uint256"
        }
      ],
      "name": "RewardsClaimed",
      "type": "event"
    },
    {
      "anonymous": false,
      "inputs": [
        {
          "indexed": true,
          "internalType": "address",
          "name": "node",
          "type": "address"
        },
        {
          "indexed": false,
          "internalType": "uint256",
          "name": "amount",
          "type": "uint256"
        }
      ],
      "name": "Stake",
      "type": "event"
    },
    {
      "anonymous": false,
      "inputs": [
        {
          "indexed": true,
          "internalType": "address",
          "name": "from",
          "type": "address"
        },
        {
          "indexed": true,
          "internalType": "address",
          "name": "node",
          "type": "address"
        },
        {
          "indexed": false,
          "internalType": "uint256",
          "name": "amount",
          "type": "uint256"
        },
        {
          "indexed": false,
          "internalType": "uint256",
          "name": "unstakeLockID",
          "type": "uint256"
        }
      ],
      "name": "Unstake",
      "type": "event"
    },
    {
      "anonymous": false,
      "inputs": [
        {
          "indexed": true,
          "internalType": "address",
          "name": "from",
          "type": "address"
        },
        {
          "indexed": false,
          "internalType": "uint256",
          "name": "amount",
          "type": "uint256"
        },
        {
          "indexed": false,
          "internalType": "uint256",
          "name": "unstakeLockID",
          "type": "uint256"
        }
      ],
      "name": "Withdraw",
      "type": "event"
    },
    {
      "inputs": [
        {
          "internalType": "uint256",
          "name": "_amountIn",
          "type": "uint256"
        }
      ],
      "name": "calcDepositOut",
      "outputs": [
        {
          "internalType": "uint256",
          "name": "",
          "type": "uint256"
        }
      ],
      "stateMutability": "view",
      "type": "function"
    },
    {
      "inputs": [],
      "name": "claimRewards",
      "outputs": [],
      "stateMutability": "nonpayable",
      "type": "function"
    },
    {
      "inputs": [],
      "name": "currentPrincipal",
      "outputs": [
        {
          "internalType": "uint256",
          "name": "",
          "type": "uint256"
        }
      ],
      "stateMutability": "view",
      "type": "function"
    },
    {
      "inputs": [
        {
          "internalType": "uint256",
          "name": "_amount",
          "type": "uint256"
        }
      ],
      "name": "deposit",
      "outputs": [],
      "stateMutability": "nonpayable",
      "type": "function"
    },
    {
      "inputs": [
        {
          "internalType": "uint256",
          "name": "_amount",
          "type": "uint256"
        },
        {
          "internalType": "uint256",
          "name": "_deadline",
          "type": "uint256"
        },
        {
          "internalType": "uint8",
          "name": "_v",
          "type": "uint8"
        },
        {
          "internalType": "bytes32",
          "name": "_r",
          "type": "bytes32"
        },
        {
          "internalType": "bytes32",
          "name": "_s",
          "type": "bytes32"
        }
      ],
      "name": "depositWithPermit",
      "outputs": [],
      "stateMutability": "nonpayable",
      "type": "function"
    },
    {
      "inputs": [],
      "name": "gov",
      "outputs": [
        {
          "internalType": "address",
          "name": "",
          "type": "address"
        }
      ],
      "stateMutability": "view",
      "type": "function"
    },
    {
      "inputs": [
        {
          "internalType": "contract IERC20",
          "name": "_steak",
          "type": "address"
        },
        {
          "internalType": "string",
          "name": "_symbol",
          "type": "string"
        },
        {
          "internalType": "address",
          "name": "_matic",
          "type": "address"
        },
        {
          "internalType": "address",
          "name": "_node",
          "type": "address"
        },
        {
          "internalType": "uint256",
          "name": "_protocolFee",
          "type": "uint256"
        },
        {
          "internalType": "uint256",
          "name": "_liquidityFee",
          "type": "uint256"
        },
        {
          "internalType": "contract ITenderToken",
          "name": "_tenderTokenTarget",
          "type": "address"
        },
        {
          "internalType": "contract TenderFarmFactory",
          "name": "_tenderFarmFactory",
          "type": "address"
        },
        {
          "internalType": "contract ITenderSwapFactory",
          "name": "_tenderSwapFactory",
          "type": "address"
        }
      ],
      "name": "initialize",
      "outputs": [],
      "stateMutability": "nonpayable",
      "type": "function"
    },
    {
      "inputs": [],
      "name": "liquidityFee",
      "outputs": [
        {
          "internalType": "uint256",
          "name": "",
          "type": "uint256"
        }
      ],
      "stateMutability": "view",
      "type": "function"
    },
    {
      "inputs": [],
      "name": "node",
      "outputs": [
        {
          "internalType": "address",
          "name": "",
          "type": "address"
        }
      ],
      "stateMutability": "view",
      "type": "function"
    },
    {
      "inputs": [],
      "name": "protocolFee",
      "outputs": [
        {
          "internalType": "uint256",
          "name": "",
          "type": "uint256"
        }
      ],
      "stateMutability": "view",
      "type": "function"
    },
    {
      "inputs": [],
      "name": "rescueUnlock",
      "outputs": [
        {
          "internalType": "uint256",
          "name": "",
          "type": "uint256"
        }
      ],
      "stateMutability": "nonpayable",
      "type": "function"
    },
    {
      "inputs": [
        {
          "internalType": "uint256",
          "name": "_unstakeLockID",
          "type": "uint256"
        }
      ],
      "name": "rescueWithdraw",
      "outputs": [],
      "stateMutability": "nonpayable",
      "type": "function"
    },
    {
      "inputs": [
        {
          "internalType": "address",
          "name": "_token",
          "type": "address"
        },
        {
          "internalType": "uint256",
          "name": "_value",
          "type": "uint256"
        },
        {
          "internalType": "uint256",
          "name": "_deadline",
          "type": "uint256"
        },
        {
          "internalType": "uint8",
          "name": "_v",
          "type": "uint8"
        },
        {
          "internalType": "bytes32",
          "name": "_r",
          "type": "bytes32"
        },
        {
          "internalType": "bytes32",
          "name": "_s",
          "type": "bytes32"
        }
      ],
      "name": "selfPermit",
      "outputs": [],
      "stateMutability": "payable",
      "type": "function"
    },
    {
      "inputs": [
        {
          "internalType": "address",
          "name": "_token",
          "type": "address"
        },
        {
          "internalType": "uint256",
          "name": "_value",
          "type": "uint256"
        },
        {
          "internalType": "uint256",
          "name": "_deadline",
          "type": "uint256"
        },
        {
          "internalType": "uint8",
          "name": "_v",
          "type": "uint8"
        },
        {
          "internalType": "bytes32",
          "name": "_r",
          "type": "bytes32"
        },
        {
          "internalType": "bytes32",
          "name": "_s",
          "type": "bytes32"
        }
      ],
      "name": "selfPermitIfNecessary",
      "outputs": [],
      "stateMutability": "payable",
      "type": "function"
    },
    {
      "inputs": [
        {
          "internalType": "address",
          "name": "_gov",
          "type": "address"
        }
      ],
      "name": "setGov",
      "outputs": [],
      "stateMutability": "nonpayable",
      "type": "function"
    },
    {
      "inputs": [
        {
          "internalType": "uint256",
          "name": "_liquidityFee",
          "type": "uint256"
        }
      ],
      "name": "setLiquidityFee",
      "outputs": [],
      "stateMutability": "nonpayable",
      "type": "function"
    },
    {
      "inputs": [
        {
          "internalType": "address",
          "name": "_node",
          "type": "address"
        }
      ],
      "name": "setNode",
      "outputs": [],
      "stateMutability": "nonpayable",
      "type": "function"
    },
    {
      "inputs": [
        {
          "internalType": "uint256",
          "name": "_protocolFee",
          "type": "uint256"
        }
      ],
      "name": "setProtocolFee",
      "outputs": [],
      "stateMutability": "nonpayable",
      "type": "function"
    },
    {
      "inputs": [
        {
          "internalType": "address",
          "name": "_stakingContract",
          "type": "address"
        }
      ],
      "name": "setStakingContract",
      "outputs": [],
      "stateMutability": "nonpayable",
      "type": "function"
    },
    {
      "inputs": [
        {
          "internalType": "contract IERC20",
          "name": "_steak",
          "type": "address"
        }
      ],
      "name": "setSteak",
      "outputs": [],
      "stateMutability": "nonpayable",
      "type": "function"
    },
    {
      "inputs": [
        {
          "internalType": "contract ITenderFarm",
          "name": "_tenderFarm",
          "type": "address"
        }
      ],
      "name": "setTenderFarm",
      "outputs": [],
      "stateMutability": "nonpayable",
      "type": "function"
    },
    {
      "inputs": [
        {
          "internalType": "uint256",
          "name": "_amount",
          "type": "uint256"
        }
      ],
      "name": "stake",
      "outputs": [],
      "stateMutability": "nonpayable",
      "type": "function"
    },
    {
      "inputs": [],
      "name": "steak",
      "outputs": [
        {
          "internalType": "contract IERC20",
          "name": "",
          "type": "address"
        }
      ],
      "stateMutability": "view",
      "type": "function"
    },
    {
      "inputs": [],
      "name": "tenderFarm",
      "outputs": [
        {
          "internalType": "contract ITenderFarm",
          "name": "",
          "type": "address"
        }
      ],
      "stateMutability": "view",
      "type": "function"
    },
    {
      "inputs": [],
      "name": "tenderSwap",
      "outputs": [
        {
          "internalType": "contract ITenderSwap",
          "name": "",
          "type": "address"
        }
      ],
      "stateMutability": "view",
      "type": "function"
    },
    {
      "inputs": [],
      "name": "tenderToken",
      "outputs": [
        {
          "internalType": "contract ITenderToken",
          "name": "",
          "type": "address"
        }
      ],
      "stateMutability": "view",
      "type": "function"
    },
    {
      "inputs": [],
      "name": "totalStakedTokens",
      "outputs": [
        {
          "internalType": "uint256",
          "name": "",
          "type": "uint256"
        }
      ],
      "stateMutability": "view",
      "type": "function"
    },
    {
      "inputs": [
        {
          "internalType": "uint256",
          "name": "_amount",
          "type": "uint256"
        }
      ],
      "name": "unstake",
      "outputs": [
        {
          "internalType": "uint256",
          "name": "",
          "type": "uint256"
        }
      ],
      "stateMutability": "nonpayable",
      "type": "function"
    },
    {
      "inputs": [
        {
          "internalType": "uint256",
          "name": "_unstakeLockID",
          "type": "uint256"
        }
      ],
      "name": "withdraw",
      "outputs": [],
      "stateMutability": "nonpayable",
      "type": "function"
    }
  ],
  "transactionHash": "0x650f6c77287a5005d42d31a42ed761df9c7d38ce0f316db1b7bfaabf8bf69662",
  "args": [],
  "numDeployments": 1,
  "solcInputHash": "19276debf674c1c1df901d1bc8945ee1",
  "bytecode": "0x608060405234801561001057600080fd5b5061526e806100206000396000f3fe6080604052600436106101c25760003560e01c806398118cb4116100f7578063c21d5ab711610095578063ec6d80f611610064578063ec6d80f6146105e5578063f3995c671461060e578063f4d95a711461062a578063fbdfc96114610655576101c2565b8063c21d5ab71461054c578063c2e3140a14610575578063cfad57a214610591578063d70754ec146105ba576101c2565b8063a694fc3a116100d1578063a694fc3a146104a6578063afef75d2146104cf578063b0e21e8a146104f8578063b6b55f2514610523576101c2565b806398118cb4146104275780639dd373b914610452578063a26a546b1461047b576101c2565b80633ae73259116101645780636991bc771161013e5780636991bc771461036d5780636f19031514610396578063787dce3d146103c15780637cb0c275146103ea576101c2565b80633ae73259146102ee5780634a970be71461031957806351c669c014610342576101c2565b80632e1a7d4d116101a05780632e1a7d4d1461025a578063357bf15c1461028357806336a30f44146102ac578063372500ab146102d7576101c2565b806312d43a51146101c75780632d822160146101f25780632e17de781461021d575b600080fd5b3480156101d357600080fd5b506101dc61067e565b6040516101e99190614211565b60405180910390f35b3480156101fe57600080fd5b506102076106a4565b60405161021491906143ac565b60405180910390f35b34801561022957600080fd5b50610244600480360381019061023f9190613b4b565b6106ca565b604051610251919061480d565b60405180910390f35b34801561026657600080fd5b50610281600480360381019061027c9190613b4b565b61084f565b005b34801561028f57600080fd5b506102aa60048036038101906102a59190613b4b565b61085c565b005b3480156102b857600080fd5b506102c1610985565b6040516102ce919061480d565b60405180910390f35b3480156102e357600080fd5b506102ec610a15565b005b3480156102fa57600080fd5b50610303610a1f565b604051610310919061480d565b60405180910390f35b34801561032557600080fd5b50610340600480360381019061033b9190613b9d565b610a2e565b005b34801561034e57600080fd5b50610357610a6f565b604051610364919061480d565b60405180910390f35b34801561037957600080fd5b50610394600480360381019061038f9190613b4b565b610a75565b005b3480156103a257600080fd5b506103ab610adc565b6040516103b89190614324565b60405180910390f35b3480156103cd57600080fd5b506103e860048036038101906103e39190613b4b565b610b02565b005b3480156103f657600080fd5b50610411600480360381019061040c9190613b4b565b610c2b565b60405161041e919061480d565b60405180910390f35b34801561043357600080fd5b5061043c610c3d565b604051610449919061480d565b60405180910390f35b34801561045e57600080fd5b50610479600480360381019061047491906138c0565b610c43565b005b34801561048757600080fd5b50610490610ca9565b60405161049d9190614391565b60405180910390f35b3480156104b257600080fd5b506104cd60048036038101906104c89190613b4b565b610ccf565b005b3480156104db57600080fd5b506104f660048036038101906104f1919061399b565b610d35565b005b34801561050457600080fd5b5061050d610e6c565b60405161051a919061480d565b60405180910390f35b34801561052f57600080fd5b5061054a60048036038101906105459190613b4b565b610e72565b005b34801561055857600080fd5b50610573600480360381019061056e91906138c0565b610e7f565b005b61058f600480360381019061058a91906138e9565b611067565b005b34801561059d57600080fd5b506105b860048036038101906105b391906138c0565b611121565b005b3480156105c657600080fd5b506105cf611258565b6040516105dc9190614211565b60405180910390f35b3480156105f157600080fd5b5061060c600480360381019061060791906139c4565b61127e565b005b610628600480360381019061062391906138e9565b611360565b005b34801561063657600080fd5b5061063f6113df565b60405161064c9190614376565b60405180910390f35b34801561066157600080fd5b5061067c60048036038101906106779190613aa7565b611405565b005b600860009054906101000a900473ffffffffffffffffffffffffffffffffffffffff1681565b600160009054906101000a900473ffffffffffffffffffffffffffffffffffffffff1681565b600080821161070e576040517f08c379a0000000000000000000000000000000000000000000000000000000008152600401610705906146d7565b60405180910390fd5b600160009054906101000a900473ffffffffffffffffffffffffffffffffffffffff1673ffffffffffffffffffffffffffffffffffffffff16639dc29fac33846040518363ffffffff1660e01b815260040161076b9291906142fb565b602060405180830381600087803b15801561078557600080fd5b505af1158015610799573d6000803e3d6000fd5b505050506040513d601f19601f820116820180604052508101906107bd9190613972565b6107fc576040517f08c379a00000000000000000000000000000000000000000000000000000000081526004016107f390614465565b60405180910390fd5b600061082b33600460009054906101000a900473ffffffffffffffffffffffffffffffffffffffff168561153c565b9050826007600082825461083f9190614a25565b9250508190555080915050919050565b6108593382611680565b50565b600860009054906101000a900473ffffffffffffffffffffffffffffffffffffffff1673ffffffffffffffffffffffffffffffffffffffff163373ffffffffffffffffffffffffffffffffffffffff16146108b657600080fd5b681b1ae4d6e2ef500000811115610902576040517f08c379a00000000000000000000000000000000000000000000000000000000081526004016108f9906144cf565b60405180910390fd5b7f5555cb3612e5f2fc327f8394a162756a3cca8144f95b4dcfb4ee29320c7992d3600654604051602001610936919061480d565b60405160208183030381529060405282604051602001610956919061480d565b604051602081830303815290604052604051610973929190614781565b60405180910390a18060068190555050565b6000600860009054906101000a900473ffffffffffffffffffffffffffffffffffffffff1673ffffffffffffffffffffffffffffffffffffffff163373ffffffffffffffffffffffffffffffffffffffff16146109e157600080fd5b610a1030600460009054906101000a900473ffffffffffffffffffffffffffffffffffffffff1660075461153c565b905090565b610a1d611977565b565b6000610a29611a06565b905090565b610a5e600060029054906101000a900473ffffffffffffffffffffffffffffffffffffffff168686868686611360565b610a683386611a10565b5050505050565b60075481565b600860009054906101000a900473ffffffffffffffffffffffffffffffffffffffff1673ffffffffffffffffffffffffffffffffffffffff163373ffffffffffffffffffffffffffffffffffffffff1614610acf57600080fd5b610ad93082611680565b50565b600060029054906101000a900473ffffffffffffffffffffffffffffffffffffffff1681565b600860009054906101000a900473ffffffffffffffffffffffffffffffffffffffff1673ffffffffffffffffffffffffffffffffffffffff163373ffffffffffffffffffffffffffffffffffffffff1614610b5c57600080fd5b681b1ae4d6e2ef500000811115610ba8576040517f08c379a0000000000000000000000000000000000000000000000000000000008152600401610b9f906144cf565b60405180910390fd5b7f5555cb3612e5f2fc327f8394a162756a3cca8144f95b4dcfb4ee29320c7992d3600554604051602001610bdc919061480d565b60405160208183030381529060405282604051602001610bfc919061480d565b604051602081830303815290604052604051610c1992919061468d565b60405180910390a18060058190555050565b6000610c3682611bac565b9050919050565b60065481565b600860009054906101000a900473ffffffffffffffffffffffffffffffffffffffff1673ffffffffffffffffffffffffffffffffffffffff163373ffffffffffffffffffffffffffffffffffffffff1614610c9d57600080fd5b610ca681611bb6565b50565b600360009054906101000a900473ffffffffffffffffffffffffffffffffffffffff1681565b600860009054906101000a900473ffffffffffffffffffffffffffffffffffffffff1673ffffffffffffffffffffffffffffffffffffffff163373ffffffffffffffffffffffffffffffffffffffff1614610d2957600080fd5b610d3281611c93565b50565b600860009054906101000a900473ffffffffffffffffffffffffffffffffffffffff1673ffffffffffffffffffffffffffffffffffffffff163373ffffffffffffffffffffffffffffffffffffffff1614610d8f57600080fd5b7f5555cb3612e5f2fc327f8394a162756a3cca8144f95b4dcfb4ee29320c7992d3600060029054906101000a900473ffffffffffffffffffffffffffffffffffffffff16604051602001610de39190614324565b60405160208183030381529060405282604051602001610e039190614324565b604051602081830303815290604052604051610e209291906145af565b60405180910390a180600060026101000a81548173ffffffffffffffffffffffffffffffffffffffff021916908373ffffffffffffffffffffffffffffffffffffffff16021790555050565b60055481565b610e7c3382611a10565b50565b600860009054906101000a900473ffffffffffffffffffffffffffffffffffffffff1673ffffffffffffffffffffffffffffffffffffffff163373ffffffffffffffffffffffffffffffffffffffff1614610ed957600080fd5b600073ffffffffffffffffffffffffffffffffffffffff168173ffffffffffffffffffffffffffffffffffffffff161415610f49576040517f08c379a0000000000000000000000000000000000000000000000000000000008152600401610f409061456f565b60405180910390fd5b7f5555cb3612e5f2fc327f8394a162756a3cca8144f95b4dcfb4ee29320c7992d3600460009054906101000a900473ffffffffffffffffffffffffffffffffffffffff16604051602001610f9d9190614211565b60405160208183030381529060405282604051602001610fbd9190614211565b604051602081830303815290604052604051610fda929190614643565b60405180910390a180600460006101000a81548173ffffffffffffffffffffffffffffffffffffffff021916908373ffffffffffffffffffffffffffffffffffffffff16021790555080600a60006101000a81548173ffffffffffffffffffffffffffffffffffffffff021916908373ffffffffffffffffffffffffffffffffffffffff16021790555050565b60008673ffffffffffffffffffffffffffffffffffffffff1663dd62ed3e33306040518363ffffffff1660e01b81526004016110a492919061422c565b60206040518083038186803b1580156110bc57600080fd5b505afa1580156110d0573d6000803e3d6000fd5b505050506040513d601f19601f820116820180604052508101906110f49190613b74565b9050858110156111185761111787828861110e9190614a25565b87878787611360565b5b50505050505050565b600860009054906101000a900473ffffffffffffffffffffffffffffffffffffffff1673ffffffffffffffffffffffffffffffffffffffff163373ffffffffffffffffffffffffffffffffffffffff161461117b57600080fd5b7f5555cb3612e5f2fc327f8394a162756a3cca8144f95b4dcfb4ee29320c7992d3600860009054906101000a900473ffffffffffffffffffffffffffffffffffffffff166040516020016111cf9190614211565b604051602081830303815290604052826040516020016111ef9190614211565b60405160208183030381529060405260405161120c9291906145f9565b60405180910390a180600860006101000a81548173ffffffffffffffffffffffffffffffffffffffff021916908373ffffffffffffffffffffffffffffffffffffffff16021790555050565b600460009054906101000a900473ffffffffffffffffffffffffffffffffffffffff1681565b6112d28a8a8a8080601f016020809104026020016040519081016040528093929190818152602001838380828437600081840152601f19601f82011690508083019250505050505050888888888888611e96565b86600960006101000a81548173ffffffffffffffffffffffffffffffffffffffff021916908373ffffffffffffffffffffffffffffffffffffffff16021790555085600a60006101000a81548173ffffffffffffffffffffffffffffffffffffffff021916908373ffffffffffffffffffffffffffffffffffffffff16021790555050505050505050505050565b8573ffffffffffffffffffffffffffffffffffffffff1663d505accf333088888888886040518863ffffffff1660e01b81526004016113a5979695949392919061428c565b600060405180830381600087803b1580156113bf57600080fd5b505af11580156113d3573d6000803e3d6000fd5b50505050505050505050565b600260009054906101000a900473ffffffffffffffffffffffffffffffffffffffff1681565b600860009054906101000a900473ffffffffffffffffffffffffffffffffffffffff1673ffffffffffffffffffffffffffffffffffffffff163373ffffffffffffffffffffffffffffffffffffffff161461145f57600080fd5b7f5555cb3612e5f2fc327f8394a162756a3cca8144f95b4dcfb4ee29320c7992d3600260009054906101000a900473ffffffffffffffffffffffffffffffffffffffff166040516020016114b39190614376565b604051602081830303815290604052826040516020016114d39190614376565b6040516020818303038152906040526040516114f0929190614717565b60405180910390a180600260006101000a81548173ffffffffffffffffffffffffffffffffffffffff021916908373ffffffffffffffffffffffffffffffffffffffff16021790555050565b60008082905060008490506000611552826124de565b9050600061155f83612582565b9050600060018284876115729190614937565b61157c9190614906565b61158691906148b0565b90508373ffffffffffffffffffffffffffffffffffffffff1663c83ec04d86836040518363ffffffff1660e01b81526004016115c3929190614828565b600060405180830381600087803b1580156115dd57600080fd5b505af11580156115f1573d6000803e3d6000fd5b5050505061160b8986600b61261e9092919063ffffffff16565b95508373ffffffffffffffffffffffffffffffffffffffff168973ffffffffffffffffffffffffffffffffffffffff167f18edd09e80386cd99df397e2e0d87d2bb259423eae08645e776321a36fe680ef878960405161166c929190614828565b60405180910390a350505050509392505050565b6116968282600b6126d79092919063ffffffff16565b5060008060029054906101000a900473ffffffffffffffffffffffffffffffffffffffff1673ffffffffffffffffffffffffffffffffffffffff166370a08231306040518263ffffffff1660e01b81526004016116f39190614211565b60206040518083038186803b15801561170b57600080fd5b505afa15801561171f573d6000803e3d6000fd5b505050506040513d601f19601f820116820180604052508101906117439190613b74565b9050600a60009054906101000a900473ffffffffffffffffffffffffffffffffffffffff1673ffffffffffffffffffffffffffffffffffffffff1663e97fddc2836040518263ffffffff1660e01b81526004016117a0919061480d565b600060405180830381600087803b1580156117ba57600080fd5b505af11580156117ce573d6000803e3d6000fd5b5050505060008060029054906101000a900473ffffffffffffffffffffffffffffffffffffffff1673ffffffffffffffffffffffffffffffffffffffff166370a08231306040518263ffffffff1660e01b815260040161182e9190614211565b60206040518083038186803b15801561184657600080fd5b505afa15801561185a573d6000803e3d6000fd5b505050506040513d601f19601f8201168201806040525081019061187e9190613b74565b9050818110156118c3576040517f08c379a00000000000000000000000000000000000000000000000000000000081526004016118ba906146d7565b60405180910390fd5b600082826118d19190614a25565b90506119208582600060029054906101000a900473ffffffffffffffffffffffffffffffffffffffff1673ffffffffffffffffffffffffffffffffffffffff166127df9092919063ffffffff16565b8473ffffffffffffffffffffffffffffffffffffffff167ff279e6a1f5e320cca91135676d9cb6e44ca8a08c0b88342bcdb1144f6511b5688286604051611968929190614828565b60405180910390a25050505050565b600a60009054906101000a900473ffffffffffffffffffffffffffffffffffffffff1673ffffffffffffffffffffffffffffffffffffffff16634f91440d6040518163ffffffff1660e01b8152600401600060405180830381600087803b1580156119e157600080fd5b505af19250505080156119f2575060015b6119fb576119fc565b5b611a04612865565b565b6000600754905090565b60008111611a53576040517f08c379a0000000000000000000000000000000000000000000000000000000008152600401611a4a906146d7565b60405180910390fd5b6000611a5e82611bac565b9050600160009054906101000a900473ffffffffffffffffffffffffffffffffffffffff1673ffffffffffffffffffffffffffffffffffffffff166340c10f1984836040518363ffffffff1660e01b8152600401611abd9291906142fb565b602060405180830381600087803b158015611ad757600080fd5b505af1158015611aeb573d6000803e3d6000fd5b505050506040513d601f19601f82011682018060405250810190611b0f9190613972565b611b4e576040517f08c379a0000000000000000000000000000000000000000000000000000000008152600401611b459061450f565b60405180910390fd5b611b9d833084600060029054906101000a900473ffffffffffffffffffffffffffffffffffffffff1673ffffffffffffffffffffffffffffffffffffffff166129d9909392919063ffffffff16565b611ba78383612a62565b505050565b6000819050919050565b7f5555cb3612e5f2fc327f8394a162756a3cca8144f95b4dcfb4ee29320c7992d3600960009054906101000a900473ffffffffffffffffffffffffffffffffffffffff16604051602001611c0a9190614211565b60405160208183030381529060405282604051602001611c2a9190614211565b604051602081830303815290604052604051611c47929190614485565b60405180910390a180600960006101000a81548173ffffffffffffffffffffffffffffffffffffffff021916908373ffffffffffffffffffffffffffffffffffffffff16021790555050565b60008190506000811415611ca75750611e93565b611d16600960009054906101000a900473ffffffffffffffffffffffffffffffffffffffff1682600060029054906101000a900473ffffffffffffffffffffffffffffffffffffffff1673ffffffffffffffffffffffffffffffffffffffff16612acd9092919063ffffffff16565b60006001611d45600a60009054906101000a900473ffffffffffffffffffffffffffffffffffffffff16612582565b611d70600a60009054906101000a900473ffffffffffffffffffffffffffffffffffffffff166124de565b84611d7b9190614937565b611d859190614906565b611d8f9190614a25565b9050600a60009054906101000a900473ffffffffffffffffffffffffffffffffffffffff1673ffffffffffffffffffffffffffffffffffffffff16636ab1507183836040518363ffffffff1660e01b8152600401611dee929190614828565b600060405180830381600087803b158015611e0857600080fd5b505af1158015611e1c573d6000803e3d6000fd5b50505050600a60009054906101000a900473ffffffffffffffffffffffffffffffffffffffff1673ffffffffffffffffffffffffffffffffffffffff167febedb8b3c678666e7f36970bc8f57abf6d8fa2e828c0da91ea5b75bf68ed101a83604051611e88919061480d565b60405180910390a250505b50565b600060019054906101000a900460ff1680611ebc575060008054906101000a900460ff16155b611efb576040517f08c379a0000000000000000000000000000000000000000000000000000000008152600401611ef29061458f565b60405180910390fd5b60008060019054906101000a900460ff161590508015611f4b576001600060016101000a81548160ff02191690831515021790555060016000806101000a81548160ff0219169083151502179055505b88600060026101000a81548173ffffffffffffffffffffffffffffffffffffffff021916908373ffffffffffffffffffffffffffffffffffffffff16021790555086600460006101000a81548173ffffffffffffffffffffffffffffffffffffffff021916908373ffffffffffffffffffffffffffffffffffffffff160217905550856005819055508460068190555033600860006101000a81548173ffffffffffffffffffffffffffffffffffffffff021916908373ffffffffffffffffffffffffffffffffffffffff160217905550600061202785612bee565b905060008960405160200161203c91906141ef565b60405160208183030381529060405290508173ffffffffffffffffffffffffffffffffffffffff1663077f224a8b8c306040518463ffffffff1660e01b815260040161208a93929190614420565b602060405180830381600087803b1580156120a457600080fd5b505af11580156120b8573d6000803e3d6000fd5b505050506040513d601f19601f820116820180604052508101906120dc9190613972565b61211b576040517f08c379a0000000000000000000000000000000000000000000000000000000008152600401612112906147cb565b60405180910390fd5b81600160006101000a81548173ffffffffffffffffffffffffffffffffffffffff021916908373ffffffffffffffffffffffffffffffffffffffff1602179055508373ffffffffffffffffffffffffffffffffffffffff1663a574175660405180608001604052808573ffffffffffffffffffffffffffffffffffffffff1681526020018e73ffffffffffffffffffffffffffffffffffffffff168152602001848e6040516020016121ce92919061417b565b6040516020818303038152906040528152602001848e6040516020016121f59291906141b5565b6040516020818303038152906040528152506040518263ffffffff1660e01b815260040161222391906147eb565b602060405180830381600087803b15801561223d57600080fd5b505af1158015612251573d6000803e3d6000fd5b505050506040513d601f19601f820116820180604052508101906122759190613af9565b600360006101000a81548173ffffffffffffffffffffffffffffffffffffffff021916908373ffffffffffffffffffffffffffffffffffffffff160217905550600360009054906101000a900473ffffffffffffffffffffffffffffffffffffffff1673ffffffffffffffffffffffffffffffffffffffff1663f2fde38b336040518263ffffffff1660e01b81526004016123109190614211565b600060405180830381600087803b15801561232a57600080fd5b505af115801561233e573d6000803e3d6000fd5b505050508473ffffffffffffffffffffffffffffffffffffffff1663d9181cd3600360009054906101000a900473ffffffffffffffffffffffffffffffffffffffff1673ffffffffffffffffffffffffffffffffffffffff16635fcbd2856040518163ffffffff1660e01b815260040160206040518083038186803b1580156123c657600080fd5b505afa1580156123da573d6000803e3d6000fd5b505050506040513d601f19601f820116820180604052508101906123fe9190613b22565b84306040518463ffffffff1660e01b815260040161241e9392919061433f565b602060405180830381600087803b15801561243857600080fd5b505af115801561244c573d6000803e3d6000fd5b505050506040513d601f19601f820116820180604052508101906124709190613ad0565b600260006101000a81548173ffffffffffffffffffffffffffffffffffffffff021916908373ffffffffffffffffffffffffffffffffffffffff160217905550505080156124d35760008060016101000a81548160ff0219169083151502179055505b505050505050505050565b600060088273ffffffffffffffffffffffffffffffffffffffff16635c5f7dae6040518163ffffffff1660e01b815260040160206040518083038186803b15801561252857600080fd5b505afa15801561253c573d6000803e3d6000fd5b505050506040513d601f19601f820116820180604052508101906125609190613b74565b10612578576c01431e0fae6d7217caa000000061257b565b60645b9050919050565b6000808273ffffffffffffffffffffffffffffffffffffffff16633ba0b9a96040518163ffffffff1660e01b815260040160206040518083038186803b1580156125cb57600080fd5b505afa1580156125df573d6000803e3d6000fd5b505050506040513d601f19601f820116820180604052508101906126039190613b74565b9050600081146126135780612616565b60015b915050919050565b60008360010154905060018161263491906148b0565b846001018190555060405180604001604052808381526020018473ffffffffffffffffffffffffffffffffffffffff168152508460000160008381526020019081526020016000206000820151816000015560208201518160010160006101000a81548173ffffffffffffffffffffffffffffffffffffffff021916908373ffffffffffffffffffffffffffffffffffffffff1602179055509050509392505050565b600080846000016000848152602001908152602001600020905060008160010160009054906101000a900473ffffffffffffffffffffffffffffffffffffffff169050816000015492508473ffffffffffffffffffffffffffffffffffffffff168173ffffffffffffffffffffffffffffffffffffffff161461278f576040517f08c379a00000000000000000000000000000000000000000000000000000000081526004016127869061452f565b60405180910390fd5b8560000160008581526020019081526020016000206000808201600090556001820160006101000a81549073ffffffffffffffffffffffffffffffffffffffff0219169055505050509392505050565b6128608363a9059cbb60e01b84846040516024016127fe9291906142fb565b604051602081830303815290604052907bffffffffffffffffffffffffffffffffffffffffffffffffffffffff19166020820180517bffffffffffffffffffffffffffffffffffffffffffffffffffffffff8381831617835250505050612cc3565b505050565b61286d612d8a565b6000612877612d8c565b905060008113156128f0576000819050600061289582600554612fc7565b905060006128a583600654612fc7565b90508082846128b49190614a25565b6128be9190614a25565b600760008282546128cf91906148b0565b925050819055506128df82612fdb565b6128e881613100565b505050612923565b60008112156129225760008161290590614c4b565b905080600760008282546129199190614a25565b92505081905550505b5b6129d6600060029054906101000a900473ffffffffffffffffffffffffffffffffffffffff1673ffffffffffffffffffffffffffffffffffffffff166370a08231306040518263ffffffff1660e01b81526004016129819190614211565b60206040518083038186803b15801561299957600080fd5b505afa1580156129ad573d6000803e3d6000fd5b505050506040513d601f19601f820116820180604052508101906129d19190613b74565b611c93565b50565b612a5c846323b872dd60e01b8585856040516024016129fa93929190614255565b604051602081830303815290604052907bffffffffffffffffffffffffffffffffffffffffffffffffffffffff19166020820180517bffffffffffffffffffffffffffffffffffffffffffffffffffffffff8381831617835250505050612cc3565b50505050565b8060076000828254612a7491906148b0565b925050819055508173ffffffffffffffffffffffffffffffffffffffff167fe1fffcc4923d04b559f4d29a8bfc6cda04eb5b0d3c460751c2402c5c5cc9109c82604051612ac1919061480d565b60405180910390a25050565b6000818473ffffffffffffffffffffffffffffffffffffffff1663dd62ed3e30866040518363ffffffff1660e01b8152600401612b0b92919061422c565b60206040518083038186803b158015612b2357600080fd5b505afa158015612b37573d6000803e3d6000fd5b505050506040513d601f19601f82011682018060405250810190612b5b9190613b74565b612b6591906148b0565b9050612be88463095ea7b360e01b8584604051602401612b869291906142fb565b604051602081830303815290604052907bffffffffffffffffffffffffffffffffffffffffffffffffffffffff19166020820180517bffffffffffffffffffffffffffffffffffffffffffffffffffffffff8381831617835250505050612cc3565b50505050565b60006040517f3d602d80600a3d3981f3363d3d373d3d3d363d7300000000000000000000000081528260601b60148201527f5af43d82803e903d91602b57fd5bf3000000000000000000000000000000000060288201526037816000f0915050600073ffffffffffffffffffffffffffffffffffffffff168173ffffffffffffffffffffffffffffffffffffffff161415612cbe576040517f08c379a0000000000000000000000000000000000000000000000000000000008152600401612cb59061454f565b60405180910390fd5b919050565b6000612d25826040518060400160405280602081526020017f5361666545524332303a206c6f772d6c6576656c2063616c6c206661696c65648152508573ffffffffffffffffffffffffffffffffffffffff166135809092919063ffffffff16565b9050600081511115612d855780806020019051810190612d459190613972565b612d84576040517f08c379a0000000000000000000000000000000000000000000000000000000008152600401612d7b90614761565b60405180910390fd5b5b505050565b565b600080600a60009054906101000a900473ffffffffffffffffffffffffffffffffffffffff1673ffffffffffffffffffffffffffffffffffffffff166370a08231306040518263ffffffff1660e01b8152600401612dea9190614211565b60206040518083038186803b158015612e0257600080fd5b505afa158015612e16573d6000803e3d6000fd5b505050506040513d601f19601f82011682018060405250810190612e3a9190613b74565b90506000612e69600a60009054906101000a900473ffffffffffffffffffffffffffffffffffffffff166124de565b612e94600a60009054906101000a900473ffffffffffffffffffffffffffffffffffffffff16612582565b83612e9f9190614937565b612ea99190614906565b9050600060075490506000612f67600060029054906101000a900473ffffffffffffffffffffffffffffffffffffffff1673ffffffffffffffffffffffffffffffffffffffff166370a08231306040518263ffffffff1660e01b8152600401612f129190614211565b60206040518083038186803b158015612f2a57600080fd5b505afa158015612f3e573d6000803e3d6000fd5b505050506040513d601f19601f82011682018060405250810190612f629190613b74565b611bac565b90508083612f7591906148b0565b92508183612f839190614991565b94507f78c13bf6a7fae25f1085d594e546d7a97cb66a55bc9733c7ea78236c452663ec858484604051612fb8939291906143c7565b60405180910390a15050505090565b6000612fd38383613598565b905092915050565b600160009054906101000a900473ffffffffffffffffffffffffffffffffffffffff1673ffffffffffffffffffffffffffffffffffffffff166340c10f19600860009054906101000a900473ffffffffffffffffffffffffffffffffffffffff16836040518363ffffffff1660e01b815260040161305a9291906142fb565b602060405180830381600087803b15801561307457600080fd5b505af1158015613088573d6000803e3d6000fd5b505050506040513d601f19601f820116820180604052508101906130ac9190613972565b5080600760008282546130bf91906148b0565b925050819055507f414d7d8eae12f648156e75499fc0a5a10aa84f2745c6f791b0453cb17f1e17fa816040516130f5919061480d565b60405180910390a150565b6000600260009054906101000a900473ffffffffffffffffffffffffffffffffffffffff1673ffffffffffffffffffffffffffffffffffffffff166304d3b7c46040518163ffffffff1660e01b815260040160206040518083038186803b15801561316a57600080fd5b505afa15801561317e573d6000803e3d6000fd5b505050506040513d601f19601f820116820180604052508101906131a29190613b74565b116131ac5761357d565b6000600160009054906101000a900473ffffffffffffffffffffffffffffffffffffffff1673ffffffffffffffffffffffffffffffffffffffff166370a08231306040518263ffffffff1660e01b81526004016132099190614211565b60206040518083038186803b15801561322157600080fd5b505afa158015613235573d6000803e3d6000fd5b505050506040513d601f19601f820116820180604052508101906132599190613b74565b9050600160009054906101000a900473ffffffffffffffffffffffffffffffffffffffff1673ffffffffffffffffffffffffffffffffffffffff166340c10f1930846040518363ffffffff1660e01b81526004016132b89291906142fb565b602060405180830381600087803b1580156132d257600080fd5b505af11580156132e6573d6000803e3d6000fd5b505050506040513d601f19601f8201168201806040525081019061330a9190613972565b50816007600082825461331d91906148b0565b925050819055506000600160009054906101000a900473ffffffffffffffffffffffffffffffffffffffff1673ffffffffffffffffffffffffffffffffffffffff166370a08231306040518263ffffffff1660e01b81526004016133819190614211565b60206040518083038186803b15801561339957600080fd5b505afa1580156133ad573d6000803e3d6000fd5b505050506040513d601f19601f820116820180604052508101906133d19190613b74565b9050600082826133e19190614a25565b9050600160009054906101000a900473ffffffffffffffffffffffffffffffffffffffff1673ffffffffffffffffffffffffffffffffffffffff1663095ea7b3600260009054906101000a900473ffffffffffffffffffffffffffffffffffffffff16836040518363ffffffff1660e01b81526004016134629291906142fb565b602060405180830381600087803b15801561347c57600080fd5b505af1158015613490573d6000803e3d6000fd5b505050506040513d601f19601f820116820180604052508101906134b49190613972565b50600260009054906101000a900473ffffffffffffffffffffffffffffffffffffffff1673ffffffffffffffffffffffffffffffffffffffff1663beceed39826040518263ffffffff1660e01b8152600401613510919061480d565b600060405180830381600087803b15801561352a57600080fd5b505af115801561353e573d6000803e3d6000fd5b505050507f1d8f4bab53e84801fc35b88b53df72a998fa29c92e6fc65d412c4677d0d88c6281604051613571919061480d565b60405180910390a15050505b50565b606061358f84846000856135c2565b90509392505050565b6000683635c9adc5dea0000082846135b09190614937565b6135ba9190614906565b905092915050565b606082471015613607576040517f08c379a00000000000000000000000000000000000000000000000000000000081526004016135fe906144ef565b60405180910390fd5b613610856136d6565b61364f576040517f08c379a0000000000000000000000000000000000000000000000000000000008152600401613646906146f7565b60405180910390fd5b6000808673ffffffffffffffffffffffffffffffffffffffff1685876040516136789190614164565b60006040518083038185875af1925050503d80600081146136b5576040519150601f19603f3d011682016040523d82523d6000602084013e6136ba565b606091505b50915091506136ca8282866136e9565b92505050949350505050565b600080823b905060008111915050919050565b606083156136f957829050613749565b60008351111561370c5782518084602001fd5b816040517f08c379a000000000000000000000000000000000000000000000000000000000815260040161374091906143fe565b60405180910390fd5b9392505050565b60008135905061375f81615124565b92915050565b6000815190506137748161513b565b92915050565b60008135905061378981615152565b92915050565b60008135905061379e81615169565b92915050565b6000813590506137b381615180565b92915050565b6000815190506137c881615180565b92915050565b6000813590506137dd81615197565b92915050565b6000815190506137f2816151ae565b92915050565b600081359050613807816151c5565b92915050565b60008151905061381c816151dc565b92915050565b600081359050613831816151f3565b92915050565b60008083601f84011261384957600080fd5b8235905067ffffffffffffffff81111561386257600080fd5b60208301915083600182028301111561387a57600080fd5b9250929050565b6000813590506138908161520a565b92915050565b6000815190506138a58161520a565b92915050565b6000813590506138ba81615221565b92915050565b6000602082840312156138d257600080fd5b60006138e084828501613750565b91505092915050565b60008060008060008060c0878903121561390257600080fd5b600061391089828a01613750565b965050602061392189828a01613881565b955050604061393289828a01613881565b945050606061394389828a016138ab565b935050608061395489828a0161377a565b92505060a061396589828a0161377a565b9150509295509295509295565b60006020828403121561398457600080fd5b600061399284828501613765565b91505092915050565b6000602082840312156139ad57600080fd5b60006139bb8482850161378f565b91505092915050565b6000806000806000806000806000806101208b8d0312156139e457600080fd5b60006139f28d828e0161378f565b9a505060208b013567ffffffffffffffff811115613a0f57600080fd5b613a1b8d828e01613837565b99509950506040613a2e8d828e01613750565b9750506060613a3f8d828e01613750565b9650506080613a508d828e01613881565b95505060a0613a618d828e01613881565b94505060c0613a728d828e016137f8565b93505060e0613a838d828e01613822565b925050610100613a958d828e016137ce565b9150509295989b9194979a5092959850565b600060208284031215613ab957600080fd5b6000613ac7848285016137a4565b91505092915050565b600060208284031215613ae257600080fd5b6000613af0848285016137b9565b91505092915050565b600060208284031215613b0b57600080fd5b6000613b19848285016137e3565b91505092915050565b600060208284031215613b3457600080fd5b6000613b428482850161380d565b91505092915050565b600060208284031215613b5d57600080fd5b6000613b6b84828501613881565b91505092915050565b600060208284031215613b8657600080fd5b6000613b9484828501613896565b91505092915050565b600080600080600060a08688031215613bb557600080fd5b6000613bc388828901613881565b9550506020613bd488828901613881565b9450506040613be5888289016138ab565b9350506060613bf68882890161377a565b9250506080613c078882890161377a565b9150509295509295909350565b613c1d81614a59565b82525050565b613c2c81614a77565b82525050565b6000613c3d82614851565b613c478185614867565b9350613c57818560208601614c18565b613c6081614cf2565b840191505092915050565b6000613c7682614851565b613c808185614878565b9350613c90818560208601614c18565b80840191505092915050565b613ca581614b40565b82525050565b613cb481614b40565b82525050565b613cc381614b64565b82525050565b613cd281614b88565b82525050565b613ce181614bac565b82525050565b613cf081614bd0565b82525050565b613cff81614bf4565b82525050565b613d0e81614aff565b82525050565b6000613d1f8261485c565b613d298185614883565b9350613d39818560208601614c18565b613d4281614cf2565b840191505092915050565b6000613d588261485c565b613d628185614894565b9350613d72818560208601614c18565b613d7b81614cf2565b840191505092915050565b6000613d918261485c565b613d9b81856148a5565b9350613dab818560208601614c18565b80840191505092915050565b6000613dc4601283614894565b9150613dcf82614d03565b602082019050919050565b6000613de7600b836148a5565b9150613df282614d2c565b600b82019050919050565b6000613e0a601083614894565b9150613e1582614d55565b602082019050919050565b6000613e2d600f83614894565b9150613e3882614d7e565b602082019050919050565b6000613e50602683614894565b9150613e5b82614da7565b604082019050919050565b6000613e73601283614894565b9150613e7e82614df6565b602082019050919050565b6000613e96601183614894565b9150613ea182614e1f565b602082019050919050565b6000613eb9601683614894565b9150613ec482614e48565b602082019050919050565b6000613edc600c83614894565b9150613ee782614e71565b602082019050919050565b6000613eff602e83614894565b9150613f0a82614e9a565b604082019050919050565b6000613f22600583614894565b9150613f2d82614ee9565b602082019050919050565b6000613f45600383614894565b9150613f5082614f12565b602082019050919050565b6000613f68600483614894565b9150613f7382614f3b565b602082019050919050565b6000613f8b600c83614894565b9150613f9682614f64565b602082019050919050565b6000613fae600b83614894565b9150613fb982614f8d565b602082019050919050565b6000613fd16005836148a5565b9150613fdc82614fb6565b600582019050919050565b6000613ff46001836148a5565b9150613fff82614fdf565b600182019050919050565b6000614017601d83614894565b915061402282615008565b602082019050919050565b600061403a6001836148a5565b915061404582615031565b600182019050919050565b600061405d600a83614894565b91506140688261505a565b602082019050919050565b6000614080602a83614894565b915061408b82615083565b604082019050919050565b60006140a3600d83614894565b91506140ae826150d2565b602082019050919050565b60006140c6601583614894565b91506140d1826150fb565b602082019050919050565b60006080830160008301516140f46000860182613c9c565b5060208301516141076020860182613c9c565b506040830151848203604086015261411f8282613d14565b915050606083015184820360608601526141398282613d14565b9150508091505092915050565b61414f81614b29565b82525050565b61415e81614b33565b82525050565b60006141708284613c6b565b915081905092915050565b60006141878285613d86565b91506141928261402d565b915061419e8284613d86565b91506141a982613dda565b91508190509392505050565b60006141c18285613d86565b91506141cc8261402d565b91506141d88284613d86565b91506141e382613fc4565b91508190509392505050565b60006141fa82613fe7565b91506142068284613d86565b915081905092915050565b60006020820190506142266000830184613c14565b92915050565b60006040820190506142416000830185613c14565b61424e6020830184613c14565b9392505050565b600060608201905061426a6000830186613c14565b6142776020830185613c14565b6142846040830184614146565b949350505050565b600060e0820190506142a1600083018a613c14565b6142ae6020830189613c14565b6142bb6040830188614146565b6142c86060830187614146565b6142d56080830186614155565b6142e260a0830185613c23565b6142ef60c0830184613c23565b98975050505050505050565b60006040820190506143106000830185613c14565b61431d6020830184614146565b9392505050565b60006020820190506143396000830184613cab565b92915050565b60006060820190506143546000830186613cab565b6143616020830185613cd8565b61436e6040830184613ce7565b949350505050565b600060208201905061438b6000830184613cba565b92915050565b60006020820190506143a66000830184613cc9565b92915050565b60006020820190506143c16000830184613cd8565b92915050565b60006060820190506143dc6000830186613d05565b6143e96020830185614146565b6143f66040830184614146565b949350505050565b600060208201905081810360008301526144188184613d4d565b905092915050565b6000606082019050818103600083015261443a8186613d4d565b9050818103602083015261444e8185613d4d565b905061445d6040830184613cf6565b949350505050565b6000602082019050818103600083015261447e81613db7565b9050919050565b6000606082019050818103600083015261449e81613dfd565b905081810360208301526144b28185613c32565b905081810360408301526144c68184613c32565b90509392505050565b600060208201905081810360008301526144e881613e20565b9050919050565b6000602082019050818103600083015261450881613e43565b9050919050565b6000602082019050818103600083015261452881613e66565b9050919050565b6000602082019050818103600083015261454881613e89565b9050919050565b6000602082019050818103600083015261456881613eac565b9050919050565b6000602082019050818103600083015261458881613ecf565b9050919050565b600060208201905081810360008301526145a881613ef2565b9050919050565b600060608201905081810360008301526145c881613f15565b905081810360208301526145dc8185613c32565b905081810360408301526145f08184613c32565b90509392505050565b6000606082019050818103600083015261461281613f38565b905081810360208301526146268185613c32565b9050818103604083015261463a8184613c32565b90509392505050565b6000606082019050818103600083015261465c81613f5b565b905081810360208301526146708185613c32565b905081810360408301526146848184613c32565b90509392505050565b600060608201905081810360008301526146a681613f7e565b905081810360208301526146ba8185613c32565b905081810360408301526146ce8184613c32565b90509392505050565b600060208201905081810360008301526146f081613fa1565b9050919050565b600060208201905081810360008301526147108161400a565b9050919050565b6000606082019050818103600083015261473081614050565b905081810360208301526147448185613c32565b905081810360408301526147588184613c32565b90509392505050565b6000602082019050818103600083015261477a81614073565b9050919050565b6000606082019050818103600083015261479a81614096565b905081810360208301526147ae8185613c32565b905081810360408301526147c28184613c32565b90509392505050565b600060208201905081810360008301526147e4816140b9565b9050919050565b6000602082019050818103600083015261480581846140dc565b905092915050565b60006020820190506148226000830184614146565b92915050565b600060408201905061483d6000830185614146565b61484a6020830184614146565b9392505050565b600081519050919050565b600081519050919050565b600082825260208201905092915050565b600081905092915050565b600082825260208201905092915050565b600082825260208201905092915050565b600081905092915050565b60006148bb82614b29565b91506148c683614b29565b9250827fffffffffffffffffffffffffffffffffffffffffffffffffffffffffffffffff038211156148fb576148fa614c94565b5b828201905092915050565b600061491182614b29565b915061491c83614b29565b92508261492c5761492b614cc3565b5b828204905092915050565b600061494282614b29565b915061494d83614b29565b9250817fffffffffffffffffffffffffffffffffffffffffffffffffffffffffffffffff048311821515161561498657614985614c94565b5b828202905092915050565b600061499c82614aff565b91506149a783614aff565b9250827f8000000000000000000000000000000000000000000000000000000000000000018212600084121516156149e2576149e1614c94565b5b827f7fffffffffffffffffffffffffffffffffffffffffffffffffffffffffffffff018213600084121615614a1a57614a19614c94565b5b828203905092915050565b6000614a3082614b29565b9150614a3b83614b29565b925082821015614a4e57614a4d614c94565b5b828203905092915050565b6000614a6482614b09565b9050919050565b60008115159050919050565b6000819050919050565b6000614a8c82614a59565b9050919050565b6000614a9e82614a59565b9050919050565b6000614ab082614a59565b9050919050565b6000614ac282614a59565b9050919050565b6000614ad482614a59565b9050919050565b6000614ae682614a59565b9050919050565b6000614af882614a59565b9050919050565b6000819050919050565b600073ffffffffffffffffffffffffffffffffffffffff82169050919050565b6000819050919050565b600060ff82169050919050565b6000614b4b82614b52565b9050919050565b6000614b5d82614b09565b9050919050565b6000614b6f82614b76565b9050919050565b6000614b8182614b09565b9050919050565b6000614b9382614b9a565b9050919050565b6000614ba582614b09565b9050919050565b6000614bb782614bbe565b9050919050565b6000614bc982614b09565b9050919050565b6000614bdb82614be2565b9050919050565b6000614bed82614b09565b9050919050565b6000614bff82614c06565b9050919050565b6000614c1182614b09565b9050919050565b60005b83811015614c36578082015181840152602081019050614c1b565b83811115614c45576000848401525b50505050565b6000614c5682614aff565b91507f8000000000000000000000000000000000000000000000000000000000000000821415614c8957614c88614c94565b5b816000039050919050565b7f4e487b7100000000000000000000000000000000000000000000000000000000600052601160045260246000fd5b7f4e487b7100000000000000000000000000000000000000000000000000000000600052601260045260246000fd5b6000601f19601f8301169050919050565b7f54454e4445525f4255524e5f4641494c45440000000000000000000000000000600082015250565b7f205377617020546f6b656e000000000000000000000000000000000000000000600082015250565b7f5354414b494e475f434f4e545241435400000000000000000000000000000000600082015250565b7f4645455f455843454544535f4d41580000000000000000000000000000000000600082015250565b7f416464726573733a20696e73756666696369656e742062616c616e636520666f60008201527f722063616c6c0000000000000000000000000000000000000000000000000000602082015250565b7f54454e4445525f4d494e545f4641494c45440000000000000000000000000000600082015250565b7f4143434f554e545f4d4953544d41544348000000000000000000000000000000600082015250565b7f455243313136373a20637265617465206661696c656400000000000000000000600082015250565b7f5a45524f5f414444524553530000000000000000000000000000000000000000600082015250565b7f496e697469616c697a61626c653a20636f6e747261637420697320616c72656160008201527f647920696e697469616c697a6564000000000000000000000000000000000000602082015250565b7f535445414b000000000000000000000000000000000000000000000000000000600082015250565b7f474f560000000000000000000000000000000000000000000000000000000000600082015250565b7f4e4f444500000000000000000000000000000000000000000000000000000000600082015250565b7f50524f544f434f4c5f4645450000000000000000000000000000000000000000600082015250565b7f5a45524f5f414d4f554e54000000000000000000000000000000000000000000600082015250565b7f2d53574150000000000000000000000000000000000000000000000000000000600082015250565b7f7400000000000000000000000000000000000000000000000000000000000000600082015250565b7f416464726573733a2063616c6c20746f206e6f6e2d636f6e7472616374000000600082015250565b7f2d00000000000000000000000000000000000000000000000000000000000000600082015250565b7f54454e4445524641524d00000000000000000000000000000000000000000000600082015250565b7f5361666545524332303a204552433230206f7065726174696f6e20646964206e60008201527f6f74207375636365656400000000000000000000000000000000000000000000602082015250565b7f4c49515549444954595f46454500000000000000000000000000000000000000600082015250565b7f4641494c5f494e49545f54454e444552544f4b454e0000000000000000000000600082015250565b61512d81614a59565b811461513857600080fd5b50565b61514481614a6b565b811461514f57600080fd5b50565b61515b81614a77565b811461516657600080fd5b50565b61517281614a81565b811461517d57600080fd5b50565b61518981614a93565b811461519457600080fd5b50565b6151a081614aa5565b81146151ab57600080fd5b50565b6151b781614ab7565b81146151c257600080fd5b50565b6151ce81614ac9565b81146151d957600080fd5b50565b6151e581614adb565b81146151f057600080fd5b50565b6151fc81614aed565b811461520757600080fd5b50565b61521381614b29565b811461521e57600080fd5b50565b61522a81614b33565b811461523557600080fd5b5056fea264697066735822122058f14d85bc0a472831210401aa1328df51bad63cd1f767248c70892b9373117164736f6c63430008040033",
  "devdoc": {
    "kind": "dev",
    "methods": {
      "calcDepositOut(uint256)": {
        "details": "used by controller to calculate tokens to be minted before depositing.to be used when there a delegation tax is deducted, for eg. in Graph.",
        "returns": {
          "_0": "number of tokens staked for `amountIn`."
        }
      },
      "deposit(uint256)": {
        "details": "doesn't actually stakes the tokens but aggregates the balance in the tenderizer awaiting to be staked.requires '_amount' to be approved by '_from'.",
        "params": {
          "_amount": "amount deposited"
        }
      },
      "depositWithPermit(uint256,uint256,uint8,bytes32,bytes32)": {
        "details": "doesn't actually stakes the tokens but aggregates the balance in the tenderizer awaiting to be staked.requires '_amount' to be approved by '_from'.",
        "params": {
          "_amount": "amount deposited",
          "_deadline": "deadline for the permit",
          "_r": "from ECDSA signature",
          "_s": "from ECDSA signature",
          "_v": "from ECDSA signature"
        }
      },
      "rescueUnlock()": {
        "details": "Used to rescue all staked funds.",
        "returns": {
          "_0": "unstake lockID generated for unstake"
        }
      },
      "rescueWithdraw(uint256)": {
        "details": "To be called after rescueUnlock() with the unstakeLockID returned there.Process unlocks/withdrawals before rescueWithdraw for integrations with WithdrawPools."
      },
      "selfPermit(address,uint256,uint256,uint8,bytes32,bytes32)": {
        "details": "The `owner` is always msg.sender and the `spender` is always address(this).",
        "params": {
          "_deadline": "A timestamp, the current blocktime must be less than or equal to this timestamp",
          "_r": "Must produce valid secp256k1 signature from the holder along with `v` and `s`",
          "_s": "Must produce valid secp256k1 signature from the holder along with `r` and `v`",
          "_token": "The address of the token spent",
          "_v": "Must produce valid secp256k1 signature from the holder along with `r` and `s`",
          "_value": "The amount that can be spent of token"
        }
      },
      "selfPermitIfNecessary(address,uint256,uint256,uint8,bytes32,bytes32)": {
        "details": "The `owner` is always msg.sender and the `spender` is always address(this). Can be used instead of #selfPermit to prevent calls from failing due to a frontrun of a call to #selfPermit",
        "params": {
          "_deadline": "A timestamp, the current blocktime must be less than or equal to this timestamp",
          "_r": "Must produce valid secp256k1 signature from the holder along with `v` and `s`",
          "_s": "Must produce valid secp256k1 signature from the holder along with `r` and `v`",
          "_token": "The address of the token spent",
          "_v": "Must produce valid secp256k1 signature from the holder along with `r` and `s`",
          "_value": "The amount that can be spent of token"
        }
      },
      "stake(uint256)": {
        "details": "Only callable by Gov.",
        "params": {
          "_amount": "amount to stake"
        }
      },
      "totalStakedTokens()": {
        "returns": {
          "_0": "total amount staked by this Tenderizer"
        }
      },
      "unstake(uint256)": {
        "details": "unstake from the default address.If '_amount' is 0, unstake the entire amount staked towards _account.",
        "params": {
          "_amount": "amount to unstake"
        },
        "returns": {
          "_0": "unstake lockID generated for unstake"
        }
      },
      "withdraw(uint256)": {
        "details": "If '_amount' isn't specified all unstake tokens by '_account' will be withdrawn.Requires '_account' to have unstaked prior to calling withdraw.",
        "params": {
          "_unstakeLockID": "ID for the lock to request the withdraw for"
        }
      }
    },
    "version": 1
  },
  "userdoc": {
    "events": {
      "Deposit(address,uint256)": {
        "notice": "Deposit gets emitted when an accounts deposits underlying tokens."
      },
      "GovernanceUpdate(string,bytes,bytes)": {
        "notice": "GovernanceUpdate gets emitted when a parameter on the Tenderizer gets updated."
      },
      "LiquidityFeeCollected(uint256)": {
        "notice": "LiquidityFeeCollected gets emitted when liquidity provider fees are moved to the TenderFarm."
      },
      "ProtocolFeeCollected(uint256)": {
        "notice": "ProtocolFeeCollected gets emitted when the treasury claims its outstanding protocol fees."
      },
      "RewardsClaimed(int256,uint256,uint256)": {
        "notice": "RewardsClaimed gets emitted when the Tenderizer processes staking rewards (or slashing) from the underlying protocol."
      },
      "Stake(address,uint256)": {
        "notice": "Stake gets emitted when funds are staked/delegated from the Tenderizer contract into the underlying protocol."
      },
      "Unstake(address,address,uint256,uint256)": {
        "notice": "Unstake gets emitted when an account burns TenderTokens to unlock tokens staked through the Tenderizer"
      },
      "Withdraw(address,uint256,uint256)": {
        "notice": "Withdraw gets emitted when an account withdraws tokens that have been succesfully unstaked and thus unlocked for withdrawal."
      }
    },
    "kind": "user",
    "methods": {
      "calcDepositOut(uint256)": {
        "notice": "Returns the number of tenderTokens to be minted for amountIn deposit."
      },
      "claimRewards()": {
        "notice": "Compound all the rewards and new deposits. Claim staking rewards and earned fees for the underlying protocol and stake any leftover token balance. Process Tender protocol fees if revenue is positive."
      },
      "deposit(uint256)": {
        "notice": "Deposit tokens in Tenderizer."
      },
      "depositWithPermit(uint256,uint256,uint8,bytes32,bytes32)": {
        "notice": "Deposit tokens in Tenderizer with permit."
      },
      "rescueUnlock()": {
        "notice": "RescueUnstake unstakes all tokens from underlying protocol"
      },
      "rescueWithdraw(uint256)": {
        "notice": "RescueWithdraw withdraws all tokens into the Tenderizer from the underlying protocol  after the unlock period ends"
      },
      "selfPermit(address,uint256,uint256,uint8,bytes32,bytes32)": {
        "notice": "Permits this contract to spend a given token from `msg.sender`"
      },
      "selfPermitIfNecessary(address,uint256,uint256,uint8,bytes32,bytes32)": {
        "notice": "Permits this contract to spend a given token from `msg.sender`"
      },
      "stake(uint256)": {
        "notice": "Stake '_amount' of tokens."
      },
      "totalStakedTokens()": {
        "notice": "Total Staked Tokens returns the total amount of underlying tokens staked by this Tenderizer."
      },
      "unstake(uint256)": {
        "notice": "Unstake '_amount' of tokens from '_account'."
      },
      "withdraw(uint256)": {
        "notice": "Withdraw '_amount' of tokens previously unstaked by '_account'."
      }
    },
    "version": 1
  },
  "storageLayout": {
    "storage": [
      {
        "astId": 2048,
        "contract": "contracts/tenderizer/integrations/matic/Matic.sol:Matic",
        "label": "_initialized",
        "offset": 0,
        "slot": "0",
        "type": "t_bool"
      },
      {
        "astId": 2051,
        "contract": "contracts/tenderizer/integrations/matic/Matic.sol:Matic",
        "label": "_initializing",
        "offset": 1,
        "slot": "0",
        "type": "t_bool"
      },
      {
        "astId": 5620,
        "contract": "contracts/tenderizer/integrations/matic/Matic.sol:Matic",
        "label": "steak",
        "offset": 2,
        "slot": "0",
        "type": "t_contract(IERC20)2712"
      },
      {
        "astId": 5623,
        "contract": "contracts/tenderizer/integrations/matic/Matic.sol:Matic",
        "label": "tenderToken",
        "offset": 0,
        "slot": "1",
        "type": "t_contract(ITenderToken)15480"
      },
      {
        "astId": 5626,
        "contract": "contracts/tenderizer/integrations/matic/Matic.sol:Matic",
        "label": "tenderFarm",
        "offset": 0,
        "slot": "2",
        "type": "t_contract(ITenderFarm)4846"
      },
      {
        "astId": 5629,
        "contract": "contracts/tenderizer/integrations/matic/Matic.sol:Matic",
        "label": "tenderSwap",
        "offset": 0,
        "slot": "3",
        "type": "t_contract(ITenderSwap)9537"
      },
      {
        "astId": 5631,
        "contract": "contracts/tenderizer/integrations/matic/Matic.sol:Matic",
        "label": "node",
        "offset": 0,
        "slot": "4",
        "type": "t_address"
      },
      {
        "astId": 5633,
        "contract": "contracts/tenderizer/integrations/matic/Matic.sol:Matic",
        "label": "protocolFee",
        "offset": 0,
        "slot": "5",
        "type": "t_uint256"
      },
      {
        "astId": 5635,
        "contract": "contracts/tenderizer/integrations/matic/Matic.sol:Matic",
        "label": "liquidityFee",
        "offset": 0,
        "slot": "6",
        "type": "t_uint256"
      },
      {
        "astId": 5637,
        "contract": "contracts/tenderizer/integrations/matic/Matic.sol:Matic",
        "label": "currentPrincipal",
        "offset": 0,
        "slot": "7",
        "type": "t_uint256"
      },
      {
        "astId": 5639,
        "contract": "contracts/tenderizer/integrations/matic/Matic.sol:Matic",
        "label": "gov",
        "offset": 0,
        "slot": "8",
        "type": "t_address"
      },
      {
        "astId": 8744,
        "contract": "contracts/tenderizer/integrations/matic/Matic.sol:Matic",
        "label": "maticStakeManager",
        "offset": 0,
        "slot": "9",
        "type": "t_address"
      },
      {
        "astId": 8747,
        "contract": "contracts/tenderizer/integrations/matic/Matic.sol:Matic",
        "label": "matic",
        "offset": 0,
        "slot": "10",
        "type": "t_contract(IMatic)8714"
      },
      {
        "astId": 8750,
        "contract": "contracts/tenderizer/integrations/matic/Matic.sol:Matic",
        "label": "withdrawLocks",
        "offset": 0,
        "slot": "11",
        "type": "t_struct(Locks)6489_storage"
      }
    ],
    "types": {
      "t_address": {
        "encoding": "inplace",
        "label": "address",
        "numberOfBytes": "20"
      },
      "t_bool": {
        "encoding": "inplace",
        "label": "bool",
        "numberOfBytes": "1"
      },
      "t_contract(IERC20)2712": {
        "encoding": "inplace",
        "label": "contract IERC20",
        "numberOfBytes": "20"
      },
      "t_contract(IMatic)8714": {
        "encoding": "inplace",
        "label": "contract IMatic",
        "numberOfBytes": "20"
      },
      "t_contract(ITenderFarm)4846": {
        "encoding": "inplace",
        "label": "contract ITenderFarm",
        "numberOfBytes": "20"
      },
      "t_contract(ITenderSwap)9537": {
        "encoding": "inplace",
        "label": "contract ITenderSwap",
        "numberOfBytes": "20"
      },
      "t_contract(ITenderToken)15480": {
        "encoding": "inplace",
        "label": "contract ITenderToken",
        "numberOfBytes": "20"
      },
      "t_mapping(t_uint256,t_struct(WithdrawLock)6481_storage)": {
        "encoding": "mapping",
        "key": "t_uint256",
        "label": "mapping(uint256 => struct WithdrawalLocks.WithdrawLock)",
        "numberOfBytes": "32",
        "value": "t_struct(WithdrawLock)6481_storage"
      },
      "t_struct(Locks)6489_storage": {
        "encoding": "inplace",
        "label": "struct WithdrawalLocks.Locks",
        "members": [
          {
            "astId": 6486,
            "contract": "contracts/tenderizer/integrations/matic/Matic.sol:Matic",
            "label": "withdrawals",
            "offset": 0,
            "slot": "0",
            "type": "t_mapping(t_uint256,t_struct(WithdrawLock)6481_storage)"
          },
          {
            "astId": 6488,
            "contract": "contracts/tenderizer/integrations/matic/Matic.sol:Matic",
            "label": "nextWithdrawLockID",
            "offset": 0,
            "slot": "1",
            "type": "t_uint256"
          }
        ],
        "numberOfBytes": "64"
      },
      "t_struct(WithdrawLock)6481_storage": {
        "encoding": "inplace",
        "label": "struct WithdrawalLocks.WithdrawLock",
        "members": [
          {
            "astId": 6478,
            "contract": "contracts/tenderizer/integrations/matic/Matic.sol:Matic",
            "label": "amount",
            "offset": 0,
            "slot": "0",
            "type": "t_uint256"
          },
          {
            "astId": 6480,
            "contract": "contracts/tenderizer/integrations/matic/Matic.sol:Matic",
            "label": "account",
            "offset": 0,
            "slot": "1",
            "type": "t_address"
          }
        ],
        "numberOfBytes": "64"
      },
      "t_uint256": {
        "encoding": "inplace",
        "label": "uint256",
        "numberOfBytes": "32"
      }
    }
  }
}