{
  "address": "0x8fE785cb46fAd295484fc6d1Af1199678FEf6dA4",
  "abi": [
    {
      "anonymous": false,
      "inputs": [
        {
          "indexed": true,
          "internalType": "address",
          "name": "from",
          "type": "address"
        },
        {
          "indexed": false,
          "internalType": "uint256",
          "name": "amount",
          "type": "uint256"
        }
      ],
      "name": "Deposit",
      "type": "event"
    },
    {
      "anonymous": false,
      "inputs": [
        {
          "indexed": false,
          "internalType": "enum GovernanceParameter",
          "name": "param",
          "type": "uint8"
        },
        {
          "indexed": false,
          "internalType": "bytes",
          "name": "oldValue",
          "type": "bytes"
        },
        {
          "indexed": false,
          "internalType": "bytes",
          "name": "newValue",
          "type": "bytes"
        }
      ],
      "name": "GovernanceUpdate",
      "type": "event"
    },
    {
      "anonymous": false,
      "inputs": [
        {
          "indexed": false,
          "internalType": "uint256",
          "name": "amount",
          "type": "uint256"
        }
      ],
      "name": "LiquidityFeeCollected",
      "type": "event"
    },
    {
      "anonymous": false,
      "inputs": [
        {
          "indexed": false,
          "internalType": "uint256",
          "name": "amount",
          "type": "uint256"
        }
      ],
      "name": "ProtocolFeeCollected",
      "type": "event"
    },
    {
      "anonymous": false,
      "inputs": [
        {
          "indexed": false,
          "internalType": "int256",
          "name": "stakeDiff",
          "type": "int256"
        },
        {
          "indexed": false,
          "internalType": "uint256",
          "name": "currentPrincipal",
          "type": "uint256"
        },
        {
          "indexed": false,
          "internalType": "uint256",
          "name": "oldPrincipal",
          "type": "uint256"
        }
      ],
      "name": "RewardsClaimed",
      "type": "event"
    },
    {
      "anonymous": false,
      "inputs": [
        {
          "indexed": true,
          "internalType": "address",
          "name": "node",
          "type": "address"
        },
        {
          "indexed": false,
          "internalType": "uint256",
          "name": "amount",
          "type": "uint256"
        }
      ],
      "name": "Stake",
      "type": "event"
    },
    {
      "anonymous": false,
      "inputs": [
        {
          "indexed": true,
          "internalType": "address",
          "name": "from",
          "type": "address"
        },
        {
          "indexed": true,
          "internalType": "address",
          "name": "node",
          "type": "address"
        },
        {
          "indexed": false,
          "internalType": "uint256",
          "name": "amount",
          "type": "uint256"
        },
        {
          "indexed": false,
          "internalType": "uint256",
          "name": "unstakeLockID",
          "type": "uint256"
        }
      ],
      "name": "Unstake",
      "type": "event"
    },
    {
      "anonymous": false,
      "inputs": [
        {
          "indexed": true,
          "internalType": "address",
          "name": "from",
          "type": "address"
        },
        {
          "indexed": false,
          "internalType": "uint256",
          "name": "amount",
          "type": "uint256"
        },
        {
          "indexed": false,
          "internalType": "uint256",
          "name": "unstakeLockID",
          "type": "uint256"
        }
      ],
      "name": "Withdraw",
      "type": "event"
    },
    {
      "inputs": [
        {
          "internalType": "uint256",
          "name": "_amountIn",
          "type": "uint256"
        }
      ],
      "name": "calcDepositOut",
      "outputs": [
        {
          "internalType": "uint256",
          "name": "",
          "type": "uint256"
        }
      ],
      "stateMutability": "view",
      "type": "function"
    },
    {
      "inputs": [],
      "name": "claimRewards",
      "outputs": [],
      "stateMutability": "nonpayable",
      "type": "function"
    },
    {
      "inputs": [],
      "name": "currentPrincipal",
      "outputs": [
        {
          "internalType": "uint256",
          "name": "",
          "type": "uint256"
        }
      ],
      "stateMutability": "view",
      "type": "function"
    },
    {
      "inputs": [
        {
          "internalType": "uint256",
          "name": "_amount",
          "type": "uint256"
        }
      ],
      "name": "deposit",
      "outputs": [],
      "stateMutability": "nonpayable",
      "type": "function"
    },
    {
      "inputs": [
        {
          "internalType": "uint256",
          "name": "_amount",
          "type": "uint256"
        },
        {
          "internalType": "uint256",
          "name": "_deadline",
          "type": "uint256"
        },
        {
          "internalType": "uint8",
          "name": "_v",
          "type": "uint8"
        },
        {
          "internalType": "bytes32",
          "name": "_r",
          "type": "bytes32"
        },
        {
          "internalType": "bytes32",
          "name": "_s",
          "type": "bytes32"
        }
      ],
      "name": "depositWithPermit",
      "outputs": [],
      "stateMutability": "nonpayable",
      "type": "function"
    },
    {
      "inputs": [],
      "name": "gov",
      "outputs": [
        {
          "internalType": "address",
          "name": "",
          "type": "address"
        }
      ],
      "stateMutability": "view",
      "type": "function"
    },
    {
      "inputs": [
        {
          "internalType": "contract IERC20",
          "name": "_steak",
          "type": "address"
        },
        {
          "internalType": "string",
          "name": "_symbol",
          "type": "string"
        },
        {
          "internalType": "address",
          "name": "_matic",
          "type": "address"
        },
        {
          "internalType": "address",
          "name": "_node",
          "type": "address"
        },
        {
          "internalType": "uint256",
          "name": "_protocolFee",
          "type": "uint256"
        },
        {
          "internalType": "uint256",
          "name": "_liquidityFee",
          "type": "uint256"
        },
        {
          "internalType": "contract ITenderToken",
          "name": "_tenderTokenTarget",
          "type": "address"
        },
        {
          "internalType": "contract TenderFarmFactory",
          "name": "_tenderFarmFactory",
          "type": "address"
        },
        {
          "internalType": "contract ITenderSwapFactory",
          "name": "_tenderSwapFactory",
          "type": "address"
        }
      ],
      "name": "initialize",
      "outputs": [],
      "stateMutability": "nonpayable",
      "type": "function"
    },
    {
      "inputs": [],
      "name": "liquidityFee",
      "outputs": [
        {
          "internalType": "uint256",
          "name": "",
          "type": "uint256"
        }
      ],
      "stateMutability": "view",
      "type": "function"
    },
    {
      "inputs": [],
      "name": "node",
      "outputs": [
        {
          "internalType": "address",
          "name": "",
          "type": "address"
        }
      ],
      "stateMutability": "view",
      "type": "function"
    },
    {
      "inputs": [],
      "name": "protocolFee",
      "outputs": [
        {
          "internalType": "uint256",
          "name": "",
          "type": "uint256"
        }
      ],
      "stateMutability": "view",
      "type": "function"
    },
    {
      "inputs": [],
      "name": "rescueUnlock",
      "outputs": [
        {
          "internalType": "uint256",
          "name": "",
          "type": "uint256"
        }
      ],
      "stateMutability": "nonpayable",
      "type": "function"
    },
    {
      "inputs": [
        {
          "internalType": "uint256",
          "name": "_unstakeLockID",
          "type": "uint256"
        }
      ],
      "name": "rescueWithdraw",
      "outputs": [],
      "stateMutability": "nonpayable",
      "type": "function"
    },
    {
      "inputs": [
        {
          "internalType": "address",
          "name": "_token",
          "type": "address"
        },
        {
          "internalType": "uint256",
          "name": "_value",
          "type": "uint256"
        },
        {
          "internalType": "uint256",
          "name": "_deadline",
          "type": "uint256"
        },
        {
          "internalType": "uint8",
          "name": "_v",
          "type": "uint8"
        },
        {
          "internalType": "bytes32",
          "name": "_r",
          "type": "bytes32"
        },
        {
          "internalType": "bytes32",
          "name": "_s",
          "type": "bytes32"
        }
      ],
      "name": "selfPermit",
      "outputs": [],
      "stateMutability": "payable",
      "type": "function"
    },
    {
      "inputs": [
        {
          "internalType": "address",
          "name": "_token",
          "type": "address"
        },
        {
          "internalType": "uint256",
          "name": "_value",
          "type": "uint256"
        },
        {
          "internalType": "uint256",
          "name": "_deadline",
          "type": "uint256"
        },
        {
          "internalType": "uint8",
          "name": "_v",
          "type": "uint8"
        },
        {
          "internalType": "bytes32",
          "name": "_r",
          "type": "bytes32"
        },
        {
          "internalType": "bytes32",
          "name": "_s",
          "type": "bytes32"
        }
      ],
      "name": "selfPermitIfNecessary",
      "outputs": [],
      "stateMutability": "payable",
      "type": "function"
    },
    {
      "inputs": [
        {
          "internalType": "address",
          "name": "_gov",
          "type": "address"
        }
      ],
      "name": "setGov",
      "outputs": [],
      "stateMutability": "nonpayable",
      "type": "function"
    },
    {
      "inputs": [
        {
          "internalType": "uint256",
          "name": "_liquidityFee",
          "type": "uint256"
        }
      ],
      "name": "setLiquidityFee",
      "outputs": [],
      "stateMutability": "nonpayable",
      "type": "function"
    },
    {
      "inputs": [
        {
          "internalType": "address",
          "name": "_node",
          "type": "address"
        }
      ],
      "name": "setNode",
      "outputs": [],
      "stateMutability": "nonpayable",
      "type": "function"
    },
    {
      "inputs": [
        {
          "internalType": "uint256",
          "name": "_protocolFee",
          "type": "uint256"
        }
      ],
      "name": "setProtocolFee",
      "outputs": [],
      "stateMutability": "nonpayable",
      "type": "function"
    },
    {
      "inputs": [
        {
          "internalType": "address",
          "name": "_stakingContract",
          "type": "address"
        }
      ],
      "name": "setStakingContract",
      "outputs": [],
      "stateMutability": "nonpayable",
      "type": "function"
    },
    {
      "inputs": [
        {
          "internalType": "contract IERC20",
          "name": "_steak",
          "type": "address"
        }
      ],
      "name": "setSteak",
      "outputs": [],
      "stateMutability": "nonpayable",
      "type": "function"
    },
    {
      "inputs": [
        {
          "internalType": "contract ITenderFarm",
          "name": "_tenderFarm",
          "type": "address"
        }
      ],
      "name": "setTenderFarm",
      "outputs": [],
      "stateMutability": "nonpayable",
      "type": "function"
    },
    {
      "inputs": [
        {
          "internalType": "uint256",
          "name": "_startID",
          "type": "uint256"
        }
      ],
      "name": "setWithdrawLockStart",
      "outputs": [],
      "stateMutability": "nonpayable",
      "type": "function"
    },
    {
      "inputs": [
        {
          "internalType": "uint256",
          "name": "_amount",
          "type": "uint256"
        }
      ],
      "name": "stake",
      "outputs": [],
      "stateMutability": "nonpayable",
      "type": "function"
    },
    {
      "inputs": [],
      "name": "steak",
      "outputs": [
        {
          "internalType": "contract IERC20",
          "name": "",
          "type": "address"
        }
      ],
      "stateMutability": "view",
      "type": "function"
    },
    {
      "inputs": [],
      "name": "tenderFarm",
      "outputs": [
        {
          "internalType": "contract ITenderFarm",
          "name": "",
          "type": "address"
        }
      ],
      "stateMutability": "view",
      "type": "function"
    },
    {
      "inputs": [],
      "name": "tenderSwap",
      "outputs": [
        {
          "internalType": "contract ITenderSwap",
          "name": "",
          "type": "address"
        }
      ],
      "stateMutability": "view",
      "type": "function"
    },
    {
      "inputs": [],
      "name": "tenderToken",
      "outputs": [
        {
          "internalType": "contract ITenderToken",
          "name": "",
          "type": "address"
        }
      ],
      "stateMutability": "view",
      "type": "function"
    },
    {
      "inputs": [],
      "name": "totalStakedTokens",
      "outputs": [
        {
          "internalType": "uint256",
          "name": "",
          "type": "uint256"
        }
      ],
      "stateMutability": "view",
      "type": "function"
    },
    {
      "inputs": [
        {
          "internalType": "uint256",
          "name": "_amount",
          "type": "uint256"
        }
      ],
      "name": "unstake",
      "outputs": [
        {
          "internalType": "uint256",
          "name": "",
          "type": "uint256"
        }
      ],
      "stateMutability": "nonpayable",
      "type": "function"
    },
    {
      "inputs": [
        {
          "internalType": "uint256",
          "name": "_unstakeLockID",
          "type": "uint256"
        }
      ],
      "name": "withdraw",
      "outputs": [],
      "stateMutability": "nonpayable",
      "type": "function"
    }
  ],
  "transactionHash": "0x040a8ebbf2459c5671f9f2c0d50a78af8c034b2a1f8faf2a77faa7d3fbe91a83",
  "args": [],
  "numDeployments": 2,
  "solcInputHash": "4fccb65b9a60b377f1a6aa8ddc3ad6bc",
  "bytecode": "0x608060405234801561001057600080fd5b50612c7b806100206000396000f3fe6080604052600436106101cd5760003560e01c806398118cb4116100f7578063c21d5ab711610095578063ec6d80f611610064578063ec6d80f6146104f9578063f3995c6714610519578063f4d95a711461052c578063fbdfc9611461054c57600080fd5b8063c21d5ab714610486578063c2e3140a146104a6578063cfad57a2146104b9578063d70754ec146104d957600080fd5b8063a694fc3a116100d1578063a694fc3a14610410578063afef75d214610430578063b0e21e8a14610450578063b6b55f251461046657600080fd5b806398118cb4146103ba5780639dd373b9146103d0578063a26a546b146103f057600080fd5b80633ae732591161016f5780636991bc771161013e5780636991bc77146103345780636f19031514610354578063787dce3d1461037a5780637cb0c2751461039a57600080fd5b80633ae73259146102c9578063438f9e7f146102de5780634a970be7146102fe57806351c669c01461031e57600080fd5b80632e1a7d4d116101ab5780632e1a7d4d1461025d578063357bf15c1461027f57806336a30f441461029f578063372500ab146102b457600080fd5b806312d43a51146101d25780632d8221601461020f5780632e17de781461022f575b600080fd5b3480156101de57600080fd5b506008546101f2906001600160a01b031681565b6040516001600160a01b0390911681526020015b60405180910390f35b34801561021b57600080fd5b506001546101f2906001600160a01b031681565b34801561023b57600080fd5b5061024f61024a366004612855565b61056c565b604051908152602001610206565b34801561026957600080fd5b5061027d610278366004612855565b610696565b005b34801561028b57600080fd5b5061027d61029a366004612855565b6106a3565b3480156102ab57600080fd5b5061024f61075e565b3480156102c057600080fd5b5061027d61078d565b3480156102d557600080fd5b5061024f610797565b3480156102ea57600080fd5b5061027d6102f9366004612855565b6107a2565b34801561030a57600080fd5b5061027d610319366004612885565b6107af565b34801561032a57600080fd5b5061024f60075481565b34801561034057600080fd5b5061027d61034f366004612855565b6107e0565b34801561036057600080fd5b506000546101f2906201000090046001600160a01b031681565b34801561038657600080fd5b5061027d610395366004612855565b6107f2565b3480156103a657600080fd5b5061024f6103b5366004612855565b6108ad565b3480156103c657600080fd5b5061024f60065481565b3480156103dc57600080fd5b5061027d6103eb3660046126bc565b6108b7565b3480156103fc57600080fd5b506003546101f2906001600160a01b031681565b34801561041c57600080fd5b5061027d61042b366004612855565b6108c8565b34801561043c57600080fd5b5061027d61044b3660046126bc565b6108d9565b34801561045c57600080fd5b5061024f60055481565b34801561047257600080fd5b5061027d610481366004612855565b610980565b34801561049257600080fd5b5061027d6104a13660046126bc565b61098a565b61027d6104b43660046126d8565b610a73565b3480156104c557600080fd5b5061027d6104d43660046126bc565b610b1d565b3480156104e557600080fd5b506004546101f2906001600160a01b031681565b34801561050557600080fd5b5061027d610514366004612751565b610bb7565b61027d6105273660046126d8565b610c41565b34801561053857600080fd5b506002546101f2906001600160a01b031681565b34801561055857600080fd5b5061027d6105673660046126bc565b610cc1565b60008082116105965760405162461bcd60e51b815260040161058d90612a80565b60405180910390fd5b600154604051632770a7eb60e21b8152336004820152602481018490526001600160a01b0390911690639dc29fac90604401602060405180830381600087803b1580156105e257600080fd5b505af11580156105f6573d6000803e3d6000fd5b505050506040513d601f19601f8201168201806040525081019061061a9190612731565b61065b5760405162461bcd60e51b815260206004820152601260248201527115115391115497d095549397d1905253115160721b604482015260640161058d565b6004546000906106769033906001600160a01b031685610d5b565b9050826007600082825461068a9190612b9d565b90915550909392505050565b6106a03382610e71565b50565b6106ab61108d565b681b1ae4d6e2ef5000008111156106f65760405162461bcd60e51b815260206004820152600f60248201526e08c8a8abe8ab0868a8a88a6be9a82b608b1b604482015260640161058d565b600080516020612c26833981519152600460065460405160200161071c91815260200190565b60408051601f1981840301815282825260208301869052910160408051601f19818403018152908290526107519392916129de565b60405180910390a1600655565b600061076861108d565b6004546107889030906001600160a01b031661078360075490565b610d5b565b905090565b6107956110a4565b565b600061078860075490565b6107aa61108d565b600c55565b6000546107cf906201000090046001600160a01b03168686868686610c41565b6107d9338661110e565b5050505050565b6107e861108d565b6106a03082610e71565b6107fa61108d565b681b1ae4d6e2ef5000008111156108455760405162461bcd60e51b815260206004820152600f60248201526e08c8a8abe8ab0868a8a88a6be9a82b608b1b604482015260640161058d565b600080516020612c26833981519152600360055460405160200161086b91815260200190565b60408051601f1981840301815282825260208301869052910160408051601f19818403018152908290526108a09392916129de565b60405180910390a1600555565b6000815b92915050565b6108bf61108d565b6106a081611227565b6108d061108d565b6106a0816112b9565b6108e161108d565b60005460408051620100009092046001600160a01b03166020830152600080516020612c26833981519152916002910160408051601f198184030181528282526001600160a01b0386166020840152910160408051601f198184030181529082905261094e9392916129de565b60405180910390a1600080546001600160a01b03909216620100000262010000600160b01b0319909216919091179055565b6106a0338261110e565b61099261108d565b6001600160a01b0381166109d75760405162461bcd60e51b815260206004820152600c60248201526b5a45524f5f4144445245535360a01b604482015260640161058d565b600454604080516001600160a01b039092166020830152600080516020612c26833981519152916001910160408051601f198184030181528282526001600160a01b0386166020840152910160408051601f1981840301815290829052610a3f9392916129de565b60405180910390a1600480546001600160a01b039092166001600160a01b03199283168117909155600a8054909216179055565b604051636eb1769f60e11b81523360048201523060248201526000906001600160a01b0388169063dd62ed3e9060440160206040518083038186803b158015610abb57600080fd5b505afa158015610acf573d6000803e3d6000fd5b505050506040513d601f19601f82011682018060405250810190610af3919061286d565b905085811015610b1457610b1487610b0b8389612b9d565b87878787610c41565b50505050505050565b610b2561108d565b600854604080516001600160a01b039092166020830152600080516020612c26833981519152916000910160408051601f198184030181528282526001600160a01b0386166020840152910160408051601f1981840301815290829052610b8d9392916129de565b60405180910390a1600880546001600160a01b0319166001600160a01b0392909216919091179055565b610bff8a8a8a8080601f0160208091040260200160405190810160405280939291908181526020018383808284376000920191909152508b92508a91508990508888886113e1565b600980546001600160a01b038981166001600160a01b031992831617909255600a8054928916929091169190911790556002600c555b50505050505050505050565b60405163d505accf60e01b8152336004820152306024820152604481018690526064810185905260ff8416608482015260a4810183905260c481018290526001600160a01b0387169063d505accf9060e401600060405180830381600087803b158015610cad57600080fd5b505af1158015610c35573d6000803e3d6000fd5b610cc961108d565b600254604080516001600160a01b039092166020830152600080516020612c26833981519152916005910160408051601f198184030181528282526001600160a01b0386166020840152910160408051601f1981840301815290829052610d319392916129de565b60405180910390a1600280546001600160a01b0319166001600160a01b0392909216919091179055565b6000818382610d69826118a7565b90506000610d768361193c565b9050600081610d858487612b3f565b610d8f9190612b1f565b610d9a906001612b07565b60405163c83ec04d60e01b815260048101879052602481018290529091506001600160a01b0385169063c83ec04d90604401600060405180830381600087803b158015610de657600080fd5b505af1158015610dfa573d6000803e3d6000fd5b50610e0d9250600b91508b9050876119c8565b9550836001600160a01b0316896001600160a01b03167f18edd09e80386cd99df397e2e0d87d2bb259423eae08645e776321a36fe680ef8789604051610e5d929190918252602082015260400190565b60405180910390a350505050509392505050565b610e7d600b8383611a2c565b50600080546040516370a0823160e01b8152306004820152620100009091046001600160a01b0316906370a082319060240160206040518083038186803b158015610ec757600080fd5b505afa158015610edb573d6000803e3d6000fd5b505050506040513d601f19601f82011682018060405250810190610eff919061286d565b600a549091506001600160a01b031663e97fddc28315610f1f5783610f22565b60015b6040518263ffffffff1660e01b8152600401610f4091815260200190565b600060405180830381600087803b158015610f5a57600080fd5b505af1158015610f6e573d6000803e3d6000fd5b5050600080546040516370a0823160e01b81523060048201529193506201000090046001600160a01b031691506370a082319060240160206040518083038186803b158015610fbc57600080fd5b505afa158015610fd0573d6000803e3d6000fd5b505050506040513d601f19601f82011682018060405250810190610ff4919061286d565b9050818110156110165760405162461bcd60e51b815260040161058d90612a80565b60006110228383612b9d565b600054909150611042906201000090046001600160a01b03168683611abc565b60408051828152602081018690526001600160a01b038716917ff279e6a1f5e320cca91135676d9cb6e44ca8a08c0b88342bcdb1144f6511b568910160405180910390a25050505050565b6008546001600160a01b0316331461079557600080fd5b600a60009054906101000a90046001600160a01b03166001600160a01b0316634f91440d6040518163ffffffff1660e01b8152600401600060405180830381600087803b1580156110f457600080fd5b505af1925050508015611105575060015b50610795611b1f565b6000811161112e5760405162461bcd60e51b815260040161058d90612a80565b6000816001546040516340c10f1960e01b81526001600160a01b038681166004830152602482018490529293509116906340c10f1990604401602060405180830381600087803b15801561118157600080fd5b505af1158015611195573d6000803e3d6000fd5b505050506040513d601f19601f820116820180604052508101906111b99190612731565b6111fa5760405162461bcd60e51b815260206004820152601260248201527115115391115497d352539517d1905253115160721b604482015260640161058d565b600054611218906201000090046001600160a01b0316843085611c56565b6112228383611c94565b505050565b600954604080516001600160a01b039092166020830152600080516020612c26833981519152916006910160408051601f198184030181528282526001600160a01b0386166020840152910160408051601f198184030181529082905261128f9392916129de565b60405180910390a1600980546001600160a01b0319166001600160a01b0392909216919091179055565b80806112c3575050565b6009546000546112e6916001600160a01b03620100009092048216911683611ced565b600a54600090600190611301906001600160a01b031661193c565b600a54611316906001600160a01b03166118a7565b6113209085612b3f565b61132a9190612b1f565b6113349190612b9d565b600a54604051636ab1507160e01b815260048101859052602481018390529192506001600160a01b031690636ab1507190604401600060405180830381600087803b15801561138257600080fd5b505af1158015611396573d6000803e3d6000fd5b5050600a546040518581526001600160a01b0390911692507febedb8b3c678666e7f36970bc8f57abf6d8fa2e828c0da91ea5b75bf68ed101a915060200160405180910390a2505050565b600054610100900460ff16806113fa575060005460ff16155b61145d5760405162461bcd60e51b815260206004820152602e60248201527f496e697469616c697a61626c653a20636f6e747261637420697320616c72656160448201526d191e481a5b9a5d1a585b1a5e995960921b606482015260840161058d565b600054610100900460ff1615801561147f576000805461ffff19166101011790555b600080546001600160a01b03808c16620100000262010000600160b01b031990921691909117825560048054918a166001600160a01b03199283161790556005889055600687905560088054909116331790556114db85611dae565b90506000896040516020016114f091906129b5565b60408051601f19818403018152908290526303bf912560e11b825291506001600160a01b0383169063077f224a90611530908d9081903090600401612a42565b602060405180830381600087803b15801561154a57600080fd5b505af115801561155e573d6000803e3d6000fd5b505050506040513d601f19601f820116820180604052508101906115829190612731565b6115c65760405162461bcd60e51b81526020600482015260156024820152742320a4a62fa4a724aa2faa22a72222a92a27a5a2a760591b604482015260640161058d565b81600160006101000a8154816001600160a01b0302191690836001600160a01b03160217905550836001600160a01b031663a57417566040518060800160405280856001600160a01b031681526020018e6001600160a01b03168152602001848e604051602001611638929190612913565b6040516020818303038152906040528152602001848e60405160200161165f929190612967565b6040516020818303038152906040528152506040518263ffffffff1660e01b815260040161168d9190612aa5565b602060405180830381600087803b1580156116a757600080fd5b505af11580156116bb573d6000803e3d6000fd5b505050506040513d601f19601f820116820180604052508101906116df9190612839565b600380546001600160a01b0319166001600160a01b0392909216918217905560405163f2fde38b60e01b815233600482015263f2fde38b90602401600060405180830381600087803b15801561173457600080fd5b505af1158015611748573d6000803e3d6000fd5b50505050846001600160a01b031663d9181cd3600360009054906101000a90046001600160a01b03166001600160a01b0316635fcbd2856040518163ffffffff1660e01b815260040160206040518083038186803b1580156117a957600080fd5b505afa1580156117bd573d6000803e3d6000fd5b505050506040513d601f19601f820116820180604052508101906117e19190612839565b6040516001600160e01b031960e084901b1681526001600160a01b0391821660048201529085166024820152306044820152606401602060405180830381600087803b15801561183057600080fd5b505af1158015611844573d6000803e3d6000fd5b505050506040513d601f19601f820116820180604052508101906118689190612839565b600280546001600160a01b0319166001600160a01b03929092169190911790555050801561189c576000805461ff00191690555b505050505050505050565b60006008826001600160a01b0316635c5f7dae6040518163ffffffff1660e01b815260040160206040518083038186803b1580156118e457600080fd5b505afa1580156118f8573d6000803e3d6000fd5b505050506040513d601f19601f8201168201806040525081019061191c919061286d565b10611934576c01431e0fae6d7217caa00000006108b1565b606492915050565b600080826001600160a01b0316633ba0b9a96040518163ffffffff1660e01b815260040160206040518083038186803b15801561197857600080fd5b505afa15801561198c573d6000803e3d6000fd5b505050506040513d601f19601f820116820180604052508101906119b0919061286d565b905080156119be57806119c1565b60015b9392505050565b600180840154906119da908290612b07565b6001858101919091556040805180820182529384526001600160a01b039485166020808601918252600085815297905295209251835593519190930180546001600160a01b0319169190921617905590565b60008181526020849052604090206001810154815491906001600160a01b039081169085168114611a935760405162461bcd60e51b815260206004820152601160248201527008286869eaa9ca8be9a92a6a89a82a8869607b1b604482015260640161058d565b505060009182526020939093526040812090815560010180546001600160a01b03191690555090565b6040516001600160a01b03831660248201526044810182905261122290849063a9059cbb60e01b906064015b60408051601f198184030181529190526020810180516001600160e01b03166001600160e01b031990931692909217909152611e4b565b6000611b29611f1d565b90506000811315611b9f5760008190506000611b47826005546120d6565b90506000611b57836006546120d6565b905080611b648385612b9d565b611b6e9190612b9d565b60076000828254611b7f9190612b07565b90915550611b8e9050826120e2565b611b97816121b8565b505050611bce565b6000811215611bce576000611bb382612be0565b90508060076000828254611bc79190612b9d565b9091555050505b6000546040516370a0823160e01b81523060048201526106a0916201000090046001600160a01b0316906370a082319060240160206040518083038186803b158015611c1957600080fd5b505afa158015611c2d573d6000803e3d6000fd5b505050506040513d601f19601f82011682018060405250810190611c51919061286d565b6112b9565b6040516001600160a01b0380851660248301528316604482015260648101829052611c8e9085906323b872dd60e01b90608401611ae8565b50505050565b8060076000828254611ca69190612b07565b90915550506040518181526001600160a01b038316907fe1fffcc4923d04b559f4d29a8bfc6cda04eb5b0d3c460751c2402c5c5cc9109c9060200160405180910390a25050565b604051636eb1769f60e11b81523060048201526001600160a01b038381166024830152600091839186169063dd62ed3e9060440160206040518083038186803b158015611d3957600080fd5b505afa158015611d4d573d6000803e3d6000fd5b505050506040513d601f19601f82011682018060405250810190611d71919061286d565b611d7b9190612b07565b6040516001600160a01b038516602482015260448101829052909150611c8e90859063095ea7b360e01b90606401611ae8565b6000604051733d602d80600a3d3981f3363d3d373d3d3d363d7360601b81528260601b60148201526e5af43d82803e903d91602b57fd5bf360881b60288201526037816000f09150506001600160a01b038116611e465760405162461bcd60e51b8152602060048201526016602482015275115490cc4c4d8dce8818dc99585d194819985a5b195960521b604482015260640161058d565b919050565b6000611ea0826040518060400160405280602081526020017f5361666545524332303a206c6f772d6c6576656c2063616c6c206661696c6564815250856001600160a01b03166125089092919063ffffffff16565b8051909150156112225780806020019051810190611ebe9190612731565b6112225760405162461bcd60e51b815260206004820152602a60248201527f5361666545524332303a204552433230206f7065726174696f6e20646964206e6044820152691bdd081cdd58d8d9595960b21b606482015260840161058d565b600a546040516370a0823160e01b815230600482015260009182916001600160a01b03909116906370a082319060240160206040518083038186803b158015611f6557600080fd5b505afa158015611f79573d6000803e3d6000fd5b505050506040513d601f19601f82011682018060405250810190611f9d919061286d565b600a54909150600090611fb8906001600160a01b03166118a7565b600a54611fcd906001600160a01b031661193c565b611fd79084612b3f565b611fe19190612b1f565b600754600080546040516370a0823160e01b81523060048201529394509192909161207391620100009091046001600160a01b0316906370a082319060240160206040518083038186803b15801561203857600080fd5b505afa15801561204c573d6000803e3d6000fd5b505050506040513d601f19601f82011682018060405250810190612070919061286d565b90565b905061207f8184612b07565b925061208b8284612b5e565b60408051828152602081018690529081018490529095507f78c13bf6a7fae25f1085d594e546d7a97cb66a55bc9733c7ea78236c452663ec9060600160405180910390a15050505090565b60006119c1838361251f565b6001546008546040516340c10f1960e01b81526001600160a01b039182166004820152602481018490529116906340c10f1990604401602060405180830381600087803b15801561213257600080fd5b505af1158015612146573d6000803e3d6000fd5b505050506040513d601f19601f8201168201806040525081019061216a9190612731565b50806007600082825461217d9190612b07565b90915550506040518181527f414d7d8eae12f648156e75499fc0a5a10aa84f2745c6f791b0453cb17f1e17fa9060200160405180910390a150565b60025460408051630134edf160e21b815290516000926001600160a01b0316916304d3b7c4916004808301926020929190829003018186803b1580156121fd57600080fd5b505afa158015612211573d6000803e3d6000fd5b505050506040513d601f19601f82011682018060405250810190612235919061286d565b1161223d5750565b6001546040516370a0823160e01b81523060048201526000916001600160a01b0316906370a082319060240160206040518083038186803b15801561228157600080fd5b505afa158015612295573d6000803e3d6000fd5b505050506040513d601f19601f820116820180604052508101906122b9919061286d565b6001546040516340c10f1960e01b8152306004820152602481018590529192506001600160a01b0316906340c10f1990604401602060405180830381600087803b15801561230657600080fd5b505af115801561231a573d6000803e3d6000fd5b505050506040513d601f19601f8201168201806040525081019061233e9190612731565b5081600760008282546123519190612b07565b90915550506001546040516370a0823160e01b81523060048201526000916001600160a01b0316906370a082319060240160206040518083038186803b15801561239a57600080fd5b505afa1580156123ae573d6000803e3d6000fd5b505050506040513d601f19601f820116820180604052508101906123d2919061286d565b905060006123e08383612b9d565b60015460025460405163095ea7b360e01b81526001600160a01b03918216600482015260248101849052929350169063095ea7b390604401602060405180830381600087803b15801561243257600080fd5b505af1158015612446573d6000803e3d6000fd5b505050506040513d601f19601f8201168201806040525081019061246a9190612731565b5060025460405163beceed3960e01b8152600481018390526001600160a01b039091169063beceed3990602401600060405180830381600087803b1580156124b157600080fd5b505af11580156124c5573d6000803e3d6000fd5b505050507f1d8f4bab53e84801fc35b88b53df72a998fa29c92e6fc65d412c4677d0d88c62816040516124fa91815260200190565b60405180910390a150505050565b6060612517848460008561253f565b949350505050565b6000683635c9adc5dea000006125358385612b3f565b6119c19190612b1f565b6060824710156125a05760405162461bcd60e51b815260206004820152602660248201527f416464726573733a20696e73756666696369656e742062616c616e636520666f6044820152651c8818d85b1b60d21b606482015260840161058d565b843b6125ee5760405162461bcd60e51b815260206004820152601d60248201527f416464726573733a2063616c6c20746f206e6f6e2d636f6e7472616374000000604482015260640161058d565b600080866001600160a01b0316858760405161260a91906128f7565b60006040518083038185875af1925050503d8060008114612647576040519150601f19603f3d011682016040523d82523d6000602084013e61264c565b606091505b509150915061265c828286612667565b979650505050505050565b606083156126765750816119c1565b8251156126865782518084602001fd5b8160405162461bcd60e51b815260040161058d9190612a2f565b8035611e4681612c10565b803560ff81168114611e4657600080fd5b6000602082840312156126cd578081fd5b81356119c181612c10565b60008060008060008060c087890312156126f0578182fd5b86356126fb81612c10565b95506020870135945060408701359350612717606088016126ab565b92506080870135915060a087013590509295509295509295565b600060208284031215612742578081fd5b815180151581146119c1578182fd5b6000806000806000806000806000806101208b8d031215612770578384fd5b8a3561277b81612c10565b995060208b013567ffffffffffffffff80821115612797578586fd5b818d0191508d601f8301126127aa578586fd5b8135818111156127b8578687fd5b8e60208285010111156127c9578687fd5b602083019b50809a505050506127e160408c016126a0565b96506127ef60608c016126a0565b955060808b0135945060a08b0135935061280b60c08c016126a0565b925061281960e08c016126a0565b91506128286101008c016126a0565b90509295989b9194979a5092959850565b60006020828403121561284a578081fd5b81516119c181612c10565b600060208284031215612866578081fd5b5035919050565b60006020828403121561287e578081fd5b5051919050565b600080600080600060a0868803121561289c578283fd5b85359450602086013593506128b3604087016126ab565b94979396509394606081013594506080013592915050565b600081518084526128e3816020860160208601612bb4565b601f01601f19169290920160200192915050565b60008251612909818460208701612bb4565b9190910192915050565b60008351612925818460208801612bb4565b602d60f81b9083019081528351612943816001840160208801612bb4565b6a1029bbb0b8102a37b5b2b760a91b60019290910191820152600c01949350505050565b60008351612979818460208801612bb4565b602d60f81b9083019081528351612997816001840160208801612bb4565b6402d535741560dc1b60019290910191820152600601949350505050565b601d60fa1b8152600082516129d1816001850160208701612bb4565b9190910160010192915050565b6000600785106129fc57634e487b7160e01b81526021600452602481fd5b84825260606020830152612a1360608301856128cb565b8281036040840152612a2581856128cb565b9695505050505050565b6020815260006119c160208301846128cb565b606081526000612a5560608301866128cb565b8281036020840152612a6781866128cb565b91505060018060a01b0383166040830152949350505050565b6020808252600b908201526a16915493d7d05353d5539560aa1b604082015260600190565b60208152600060018060a01b0380845116602084015280602085015116604084015250604083015160806060840152612ae160a08401826128cb565b90506060840151601f19848303016080850152612afe82826128cb565b95945050505050565b60008219821115612b1a57612b1a612bfa565b500190565b600082612b3a57634e487b7160e01b81526012600452602481fd5b500490565b6000816000190483118215151615612b5957612b59612bfa565b500290565b60008083128015600160ff1b850184121615612b7c57612b7c612bfa565b6001600160ff1b0384018313811615612b9757612b97612bfa565b50500390565b600082821015612baf57612baf612bfa565b500390565b60005b83811015612bcf578181015183820152602001612bb7565b83811115611c8e5750506000910152565b6000600160ff1b821415612bf657612bf6612bfa565b0390565b634e487b7160e01b600052601160045260246000fd5b6001600160a01b03811681146106a057600080fdfeafa7d9056777a2bdba5995f58db63fa530201a4b7e5de460e945332d81a9b117a26469706673582212208d51ead9ebfa997a42313c26321d3018833ffbe868d0417d9f2b6b9041be877f64736f6c63430008040033",
  "devdoc": {
    "kind": "dev",
    "methods": {
      "calcDepositOut(uint256)": {
        "details": "used by controller to calculate tokens to be minted before depositing.to be used when there a delegation tax is deducted, for eg. in Graph.",
        "returns": {
          "_0": "number of tokens staked for `amountIn`."
        }
      },
      "deposit(uint256)": {
        "details": "doesn't actually stakes the tokens but aggregates the balance in the tenderizer awaiting to be staked.requires '_amount' to be approved by '_from'.",
        "params": {
          "_amount": "amount deposited"
        }
      },
      "depositWithPermit(uint256,uint256,uint8,bytes32,bytes32)": {
        "details": "doesn't actually stakes the tokens but aggregates the balance in the tenderizer awaiting to be staked.requires '_amount' to be approved by '_from'.",
        "params": {
          "_amount": "amount deposited",
          "_deadline": "deadline for the permit",
          "_r": "from ECDSA signature",
          "_s": "from ECDSA signature",
          "_v": "from ECDSA signature"
        }
      },
      "rescueUnlock()": {
        "details": "Used to rescue all staked funds.",
        "returns": {
          "_0": "unstake lockID generated for unstake"
        }
      },
      "rescueWithdraw(uint256)": {
        "details": "To be called after rescueUnlock() with the unstakeLockID returned there.Process unlocks/withdrawals before rescueWithdraw for integrations with WithdrawPools."
      },
      "selfPermit(address,uint256,uint256,uint8,bytes32,bytes32)": {
        "details": "The `owner` is always msg.sender and the `spender` is always address(this).",
        "params": {
          "_deadline": "A timestamp, the current blocktime must be less than or equal to this timestamp",
          "_r": "Must produce valid secp256k1 signature from the holder along with `v` and `s`",
          "_s": "Must produce valid secp256k1 signature from the holder along with `r` and `v`",
          "_token": "The address of the token spent",
          "_v": "Must produce valid secp256k1 signature from the holder along with `r` and `s`",
          "_value": "The amount that can be spent of token"
        }
      },
      "selfPermitIfNecessary(address,uint256,uint256,uint8,bytes32,bytes32)": {
        "details": "The `owner` is always msg.sender and the `spender` is always address(this). Can be used instead of #selfPermit to prevent calls from failing due to a frontrun of a call to #selfPermit",
        "params": {
          "_deadline": "A timestamp, the current blocktime must be less than or equal to this timestamp",
          "_r": "Must produce valid secp256k1 signature from the holder along with `v` and `s`",
          "_s": "Must produce valid secp256k1 signature from the holder along with `r` and `v`",
          "_token": "The address of the token spent",
          "_v": "Must produce valid secp256k1 signature from the holder along with `r` and `s`",
          "_value": "The amount that can be spent of token"
        }
      },
      "stake(uint256)": {
        "details": "Only callable by Gov.",
        "params": {
          "_amount": "amount to stake"
        }
      },
      "totalStakedTokens()": {
        "returns": {
          "_0": "total amount staked by this Tenderizer"
        }
      },
      "unstake(uint256)": {
        "details": "unstake from the default address.If '_amount' is 0, unstake the entire amount staked towards _account.",
        "params": {
          "_amount": "amount to unstake"
        },
        "returns": {
          "_0": "unstake lockID generated for unstake"
        }
      },
      "withdraw(uint256)": {
        "details": "If '_amount' isn't specified all unstake tokens by '_account' will be withdrawn.Requires '_account' to have unstaked prior to calling withdraw.",
        "params": {
          "_unstakeLockID": "ID for the lock to request the withdraw for"
        }
      }
    },
    "version": 1
  },
  "userdoc": {
    "events": {
      "Deposit(address,uint256)": {
        "notice": "Deposit gets emitted when an accounts deposits underlying tokens."
      },
      "GovernanceUpdate(uint8,bytes,bytes)": {
        "notice": "GovernanceUpdate gets emitted when a parameter on the Tenderizer gets updated."
      },
      "LiquidityFeeCollected(uint256)": {
        "notice": "LiquidityFeeCollected gets emitted when liquidity provider fees are moved to the TenderFarm."
      },
      "ProtocolFeeCollected(uint256)": {
        "notice": "ProtocolFeeCollected gets emitted when the treasury claims its outstanding protocol fees."
      },
      "RewardsClaimed(int256,uint256,uint256)": {
        "notice": "RewardsClaimed gets emitted when the Tenderizer processes staking rewards (or slashing) from the underlying protocol."
      },
      "Stake(address,uint256)": {
        "notice": "Stake gets emitted when funds are staked/delegated from the Tenderizer contract into the underlying protocol."
      },
      "Unstake(address,address,uint256,uint256)": {
        "notice": "Unstake gets emitted when an account burns TenderTokens to unlock tokens staked through the Tenderizer"
      },
      "Withdraw(address,uint256,uint256)": {
        "notice": "Withdraw gets emitted when an account withdraws tokens that have been succesfully unstaked and thus unlocked for withdrawal."
      }
    },
    "kind": "user",
    "methods": {
      "calcDepositOut(uint256)": {
        "notice": "Returns the number of tenderTokens to be minted for amountIn deposit."
      },
      "claimRewards()": {
        "notice": "Compound all the rewards and new deposits. Claim staking rewards and earned fees for the underlying protocol and stake any leftover token balance. Process Tender protocol fees if revenue is positive."
      },
      "deposit(uint256)": {
        "notice": "Deposit tokens in Tenderizer."
      },
      "depositWithPermit(uint256,uint256,uint8,bytes32,bytes32)": {
        "notice": "Deposit tokens in Tenderizer with permit."
      },
      "rescueUnlock()": {
        "notice": "RescueUnstake unstakes all tokens from underlying protocol"
      },
      "rescueWithdraw(uint256)": {
        "notice": "RescueWithdraw withdraws all tokens into the Tenderizer from the underlying protocol after the unlock period ends"
      },
      "selfPermit(address,uint256,uint256,uint8,bytes32,bytes32)": {
        "notice": "Permits this contract to spend a given token from `msg.sender`"
      },
      "selfPermitIfNecessary(address,uint256,uint256,uint8,bytes32,bytes32)": {
        "notice": "Permits this contract to spend a given token from `msg.sender`"
      },
      "stake(uint256)": {
        "notice": "Stake '_amount' of tokens."
      },
      "totalStakedTokens()": {
        "notice": "Total Staked Tokens returns the total amount of underlying tokens staked by this Tenderizer."
      },
      "unstake(uint256)": {
        "notice": "Unstake '_amount' of tokens from '_account'."
      },
      "withdraw(uint256)": {
        "notice": "Withdraw '_amount' of tokens previously unstaked by '_account'."
      }
    },
    "version": 1
  },
  "storageLayout": {
    "storage": [
      {
        "astId": 1886,
        "contract": "contracts/tenderizer/integrations/matic/Matic.sol:Matic",
        "label": "_initialized",
        "offset": 0,
        "slot": "0",
        "type": "t_bool"
      },
      {
        "astId": 1889,
        "contract": "contracts/tenderizer/integrations/matic/Matic.sol:Matic",
        "label": "_initializing",
        "offset": 1,
        "slot": "0",
        "type": "t_bool"
      },
      {
        "astId": 4718,
        "contract": "contracts/tenderizer/integrations/matic/Matic.sol:Matic",
        "label": "steak",
        "offset": 2,
        "slot": "0",
        "type": "t_contract(IERC20)2550"
      },
      {
        "astId": 4721,
        "contract": "contracts/tenderizer/integrations/matic/Matic.sol:Matic",
        "label": "tenderToken",
        "offset": 0,
        "slot": "1",
        "type": "t_contract(ITenderToken)9741"
      },
      {
        "astId": 4724,
        "contract": "contracts/tenderizer/integrations/matic/Matic.sol:Matic",
        "label": "tenderFarm",
        "offset": 0,
        "slot": "2",
        "type": "t_contract(ITenderFarm)4408"
      },
      {
        "astId": 4727,
        "contract": "contracts/tenderizer/integrations/matic/Matic.sol:Matic",
        "label": "tenderSwap",
        "offset": 0,
        "slot": "3",
        "type": "t_contract(ITenderSwap)8916"
      },
      {
        "astId": 4729,
        "contract": "contracts/tenderizer/integrations/matic/Matic.sol:Matic",
        "label": "node",
        "offset": 0,
        "slot": "4",
        "type": "t_address"
      },
      {
        "astId": 4731,
        "contract": "contracts/tenderizer/integrations/matic/Matic.sol:Matic",
        "label": "protocolFee",
        "offset": 0,
        "slot": "5",
        "type": "t_uint256"
      },
      {
        "astId": 4733,
        "contract": "contracts/tenderizer/integrations/matic/Matic.sol:Matic",
        "label": "liquidityFee",
        "offset": 0,
        "slot": "6",
        "type": "t_uint256"
      },
      {
        "astId": 4735,
        "contract": "contracts/tenderizer/integrations/matic/Matic.sol:Matic",
        "label": "currentPrincipal",
        "offset": 0,
        "slot": "7",
        "type": "t_uint256"
      },
      {
        "astId": 4737,
        "contract": "contracts/tenderizer/integrations/matic/Matic.sol:Matic",
        "label": "gov",
        "offset": 0,
        "slot": "8",
        "type": "t_address"
      },
      {
        "astId": 8096,
        "contract": "contracts/tenderizer/integrations/matic/Matic.sol:Matic",
        "label": "maticStakeManager",
        "offset": 0,
        "slot": "9",
        "type": "t_address"
      },
      {
        "astId": 8099,
        "contract": "contracts/tenderizer/integrations/matic/Matic.sol:Matic",
        "label": "matic",
        "offset": 0,
        "slot": "10",
        "type": "t_contract(IMatic)8063"
      },
      {
        "astId": 8102,
        "contract": "contracts/tenderizer/integrations/matic/Matic.sol:Matic",
        "label": "withdrawLocks",
        "offset": 0,
        "slot": "11",
        "type": "t_struct(Locks)5612_storage"
      }
    ],
    "types": {
      "t_address": {
        "encoding": "inplace",
        "label": "address",
        "numberOfBytes": "20"
      },
      "t_bool": {
        "encoding": "inplace",
        "label": "bool",
        "numberOfBytes": "1"
      },
      "t_contract(IERC20)2550": {
        "encoding": "inplace",
        "label": "contract IERC20",
        "numberOfBytes": "20"
      },
      "t_contract(IMatic)8063": {
        "encoding": "inplace",
        "label": "contract IMatic",
        "numberOfBytes": "20"
      },
      "t_contract(ITenderFarm)4408": {
        "encoding": "inplace",
        "label": "contract ITenderFarm",
        "numberOfBytes": "20"
      },
      "t_contract(ITenderSwap)8916": {
        "encoding": "inplace",
        "label": "contract ITenderSwap",
        "numberOfBytes": "20"
      },
      "t_contract(ITenderToken)9741": {
        "encoding": "inplace",
        "label": "contract ITenderToken",
        "numberOfBytes": "20"
      },
      "t_mapping(t_uint256,t_struct(WithdrawLock)5604_storage)": {
        "encoding": "mapping",
        "key": "t_uint256",
        "label": "mapping(uint256 => struct WithdrawalLocks.WithdrawLock)",
        "numberOfBytes": "32",
        "value": "t_struct(WithdrawLock)5604_storage"
      },
      "t_struct(Locks)5612_storage": {
        "encoding": "inplace",
        "label": "struct WithdrawalLocks.Locks",
        "members": [
          {
            "astId": 5609,
            "contract": "contracts/tenderizer/integrations/matic/Matic.sol:Matic",
            "label": "withdrawals",
            "offset": 0,
            "slot": "0",
            "type": "t_mapping(t_uint256,t_struct(WithdrawLock)5604_storage)"
          },
          {
            "astId": 5611,
            "contract": "contracts/tenderizer/integrations/matic/Matic.sol:Matic",
            "label": "nextWithdrawLockID",
            "offset": 0,
            "slot": "1",
            "type": "t_uint256"
          }
        ],
        "numberOfBytes": "64"
      },
      "t_struct(WithdrawLock)5604_storage": {
        "encoding": "inplace",
        "label": "struct WithdrawalLocks.WithdrawLock",
        "members": [
          {
            "astId": 5601,
            "contract": "contracts/tenderizer/integrations/matic/Matic.sol:Matic",
            "label": "amount",
            "offset": 0,
            "slot": "0",
            "type": "t_uint256"
          },
          {
            "astId": 5603,
            "contract": "contracts/tenderizer/integrations/matic/Matic.sol:Matic",
            "label": "account",
            "offset": 0,
            "slot": "1",
            "type": "t_address"
          }
        ],
        "numberOfBytes": "64"
      },
      "t_uint256": {
        "encoding": "inplace",
        "label": "uint256",
        "numberOfBytes": "32"
      }
    }
  }
}