{
  "address": "0x3d53d5b6e0e9f2A7e3D9Cf229E32D1642F1B1933",
  "abi": [
    {
      "anonymous": false,
      "inputs": [
        {
          "indexed": true,
          "internalType": "address",
          "name": "account",
          "type": "address"
        },
        {
          "indexed": false,
          "internalType": "uint256",
          "name": "amount",
          "type": "uint256"
        }
      ],
      "name": "Farm",
      "type": "event"
    },
    {
      "anonymous": false,
      "inputs": [
        {
          "indexed": true,
          "internalType": "address",
          "name": "account",
          "type": "address"
        },
        {
          "indexed": false,
          "internalType": "uint256",
          "name": "amount",
          "type": "uint256"
        }
      ],
      "name": "Harvest",
      "type": "event"
    },
    {
      "anonymous": false,
      "inputs": [
        {
          "indexed": false,
          "internalType": "uint256",
          "name": "amount",
          "type": "uint256"
        }
      ],
      "name": "RewardsAdded",
      "type": "event"
    },
    {
      "anonymous": false,
      "inputs": [
        {
          "indexed": true,
          "internalType": "address",
          "name": "account",
          "type": "address"
        },
        {
          "indexed": false,
          "internalType": "uint256",
          "name": "amount",
          "type": "uint256"
        }
      ],
      "name": "Unfarm",
      "type": "event"
    },
    {
      "inputs": [],
      "name": "CRF",
      "outputs": [
        {
          "internalType": "uint256",
          "name": "",
          "type": "uint256"
        }
      ],
      "stateMutability": "view",
      "type": "function"
    },
    {
      "inputs": [
        {
          "internalType": "uint256",
          "name": "_amount",
          "type": "uint256"
        }
      ],
      "name": "addRewards",
      "outputs": [],
      "stateMutability": "nonpayable",
      "type": "function"
    },
    {
      "inputs": [
        {
          "internalType": "address",
          "name": "_for",
          "type": "address"
        }
      ],
      "name": "availableRewards",
      "outputs": [
        {
          "internalType": "uint256",
          "name": "",
          "type": "uint256"
        }
      ],
      "stateMutability": "view",
      "type": "function"
    },
    {
      "inputs": [
        {
          "internalType": "uint256",
          "name": "_amount",
          "type": "uint256"
        }
      ],
      "name": "farm",
      "outputs": [],
      "stateMutability": "nonpayable",
      "type": "function"
    },
    {
      "inputs": [
        {
          "internalType": "address",
          "name": "_for",
          "type": "address"
        },
        {
          "internalType": "uint256",
          "name": "_amount",
          "type": "uint256"
        }
      ],
      "name": "farmFor",
      "outputs": [],
      "stateMutability": "nonpayable",
      "type": "function"
    },
    {
      "inputs": [
        {
          "internalType": "uint256",
          "name": "_amount",
          "type": "uint256"
        },
        {
          "internalType": "uint256",
          "name": "_deadline",
          "type": "uint256"
        },
        {
          "internalType": "uint8",
          "name": "_v",
          "type": "uint8"
        },
        {
          "internalType": "bytes32",
          "name": "_r",
          "type": "bytes32"
        },
        {
          "internalType": "bytes32",
          "name": "_s",
          "type": "bytes32"
        }
      ],
      "name": "farmWithPermit",
      "outputs": [],
      "stateMutability": "nonpayable",
      "type": "function"
    },
    {
      "inputs": [],
      "name": "harvest",
      "outputs": [],
      "stateMutability": "nonpayable",
      "type": "function"
    },
    {
      "inputs": [
        {
          "internalType": "contract IERC20",
          "name": "_stakeToken",
          "type": "address"
        },
        {
          "internalType": "contract ITenderToken",
          "name": "_rewardToken",
          "type": "address"
        },
        {
          "internalType": "contract ITenderizer",
          "name": "_tenderizer",
          "type": "address"
        }
      ],
      "name": "initialize",
      "outputs": [
        {
          "internalType": "bool",
          "name": "",
          "type": "bool"
        }
      ],
      "stateMutability": "nonpayable",
      "type": "function"
    },
    {
      "inputs": [],
      "name": "nextTotalStake",
      "outputs": [
        {
          "internalType": "uint256",
          "name": "",
          "type": "uint256"
        }
      ],
      "stateMutability": "view",
      "type": "function"
    },
    {
      "inputs": [],
      "name": "rewardToken",
      "outputs": [
        {
          "internalType": "contract ITenderToken",
          "name": "",
          "type": "address"
        }
      ],
      "stateMutability": "view",
      "type": "function"
    },
    {
      "inputs": [
        {
          "internalType": "address",
          "name": "_token",
          "type": "address"
        },
        {
          "internalType": "uint256",
          "name": "_value",
          "type": "uint256"
        },
        {
          "internalType": "uint256",
          "name": "_deadline",
          "type": "uint256"
        },
        {
          "internalType": "uint8",
          "name": "_v",
          "type": "uint8"
        },
        {
          "internalType": "bytes32",
          "name": "_r",
          "type": "bytes32"
        },
        {
          "internalType": "bytes32",
          "name": "_s",
          "type": "bytes32"
        }
      ],
      "name": "selfPermit",
      "outputs": [],
      "stateMutability": "payable",
      "type": "function"
    },
    {
      "inputs": [
        {
          "internalType": "address",
          "name": "_token",
          "type": "address"
        },
        {
          "internalType": "uint256",
          "name": "_value",
          "type": "uint256"
        },
        {
          "internalType": "uint256",
          "name": "_deadline",
          "type": "uint256"
        },
        {
          "internalType": "uint8",
          "name": "_v",
          "type": "uint8"
        },
        {
          "internalType": "bytes32",
          "name": "_r",
          "type": "bytes32"
        },
        {
          "internalType": "bytes32",
          "name": "_s",
          "type": "bytes32"
        }
      ],
      "name": "selfPermitIfNecessary",
      "outputs": [],
      "stateMutability": "payable",
      "type": "function"
    },
    {
      "inputs": [
        {
          "internalType": "contract ITenderizer",
          "name": "_tenderizer",
          "type": "address"
        }
      ],
      "name": "setTenderizer",
      "outputs": [],
      "stateMutability": "nonpayable",
      "type": "function"
    },
    {
      "inputs": [
        {
          "internalType": "address",
          "name": "_of",
          "type": "address"
        }
      ],
      "name": "stakeOf",
      "outputs": [
        {
          "internalType": "uint256",
          "name": "",
          "type": "uint256"
        }
      ],
      "stateMutability": "view",
      "type": "function"
    },
    {
      "inputs": [
        {
          "internalType": "address",
          "name": "",
          "type": "address"
        }
      ],
      "name": "stakes",
      "outputs": [
        {
          "internalType": "uint256",
          "name": "stake",
          "type": "uint256"
        },
        {
          "internalType": "uint256",
          "name": "lastCRF",
          "type": "uint256"
        }
      ],
      "stateMutability": "view",
      "type": "function"
    },
    {
      "inputs": [],
      "name": "tenderizer",
      "outputs": [
        {
          "internalType": "contract ITenderizer",
          "name": "",
          "type": "address"
        }
      ],
      "stateMutability": "view",
      "type": "function"
    },
    {
      "inputs": [],
      "name": "token",
      "outputs": [
        {
          "internalType": "contract IERC20",
          "name": "",
          "type": "address"
        }
      ],
      "stateMutability": "view",
      "type": "function"
    },
    {
      "inputs": [],
      "name": "totalStake",
      "outputs": [
        {
          "internalType": "uint256",
          "name": "",
          "type": "uint256"
        }
      ],
      "stateMutability": "view",
      "type": "function"
    },
    {
      "inputs": [
        {
          "internalType": "uint256",
          "name": "_amount",
          "type": "uint256"
        }
      ],
      "name": "unfarm",
      "outputs": [],
      "stateMutability": "nonpayable",
      "type": "function"
    }
  ],
  "transactionHash": "0x61847c7f473a0d60c04b68b125603f06d251173c9a33b85b8e19cac68d100930",
  "args": [],
  "numDeployments": 1,
  "solcInputHash": "19276debf674c1c1df901d1bc8945ee1",
  "bytecode": "0x608060405234801561001057600080fd5b50611ef6806100206000396000f3fe6080604052600436106101145760003560e01c80638b0e9f3f116100a0578063f3995c6711610064578063f3995c671461037d578063f7c618c114610399578063f854a27f146103c4578063fa827a8414610401578063fc0c546a1461042a57610114565b80638b0e9f3f146102a55780638ebed616146102d0578063beceed39146102fb578063c0c53b8b14610324578063c2e3140a1461036157610114565b806342623360116100e757806342623360146101d45780634641257d14610211578063538a85a1146102285780635b3e2077146102515780635d1cf7b51461027c57610114565b806304c834271461011957806304d3b7c41461014257806316934fc41461016d5780631c885bae146101ab575b600080fd5b34801561012557600080fd5b50610140600480360381019061013b91906115c3565b610455565b005b34801561014e57600080fd5b506101576104f3565b6040516101649190611a23565b60405180910390f35b34801561017957600080fd5b50610194600480360381019061018f919061145d565b6104f9565b6040516101a2929190611a3e565b60405180910390f35b3480156101b757600080fd5b506101d260048036038101906101cd91906115ec565b61051d565b005b3480156101e057600080fd5b506101fb60048036038101906101f6919061145d565b61052a565b6040516102089190611a23565b60405180910390f35b34801561021d57600080fd5b5061022661053c565b005b34801561023457600080fd5b5061024f600480360381019061024a91906115ec565b610547565b005b34801561025d57600080fd5b50610266610554565b6040516102739190611948565b60405180910390f35b34801561028857600080fd5b506102a3600480360381019061029e9190611486565b61057a565b005b3480156102b157600080fd5b506102ba610588565b6040516102c79190611a23565b60405180910390f35b3480156102dc57600080fd5b506102e561058e565b6040516102f29190611a23565b60405180910390f35b34801561030757600080fd5b50610322600480360381019061031d91906115ec565b610594565b005b34801561033057600080fd5b5061034b60048036038101906103469190611574565b61083c565b60405161035891906118f7565b60405180910390f35b61037b600480360381019061037691906114c2565b6109e2565b005b610397600480360381019061039291906114c2565b610a9c565b005b3480156103a557600080fd5b506103ae610b1b565b6040516103bb919061192d565b60405180910390f35b3480156103d057600080fd5b506103eb60048036038101906103e6919061145d565b610b41565b6040516103f89190611a23565b60405180910390f35b34801561040d57600080fd5b506104286004803603810190610423919061163e565b610bfd565b005b34801561043657600080fd5b5061043f610c3e565b60405161044c9190611912565b60405180910390f35b600260009054906101000a900473ffffffffffffffffffffffffffffffffffffffff1673ffffffffffffffffffffffffffffffffffffffff163373ffffffffffffffffffffffffffffffffffffffff16146104af57600080fd5b80600260006101000a81548173ffffffffffffffffffffffffffffffffffffffff021916908373ffffffffffffffffffffffffffffffffffffffff16021790555050565b60045481565b60066020528060005260406000206000915090508060000154908060010154905082565b6105273382610c64565b50565b600061053582610e6c565b9050919050565b61054533610eb8565b565b610551338261110e565b50565b600260009054906101000a900473ffffffffffffffffffffffffffffffffffffffff1681565b610584828261110e565b5050565b60035481565b60055481565b600260009054906101000a900473ffffffffffffffffffffffffffffffffffffffff1673ffffffffffffffffffffffffffffffffffffffff163373ffffffffffffffffffffffffffffffffffffffff16146105ee57600080fd5b6000600454905060008111610638576040517f08c379a000000000000000000000000000000000000000000000000000000000815260040161062f90611963565b60405180910390fd5b806003819055506000600160009054906101000a900473ffffffffffffffffffffffffffffffffffffffff1673ffffffffffffffffffffffffffffffffffffffff1663f3044ac7846040518263ffffffff1660e01b815260040161069c9190611a23565b60206040518083038186803b1580156106b457600080fd5b505afa1580156106c8573d6000803e3d6000fd5b505050506040513d601f19601f820116820180604052508101906106ec9190611615565b90506106f881836112cb565b600560008282546107099190611a78565b92505081905550600160009054906101000a900473ffffffffffffffffffffffffffffffffffffffff1673ffffffffffffffffffffffffffffffffffffffff166323b872dd3330866040518463ffffffff1660e01b815260040161076f93929190611828565b602060405180830381600087803b15801561078957600080fd5b505af115801561079d573d6000803e3d6000fd5b505050506040513d601f19601f820116820180604052508101906107c1919061154b565b610800576040517f08c379a00000000000000000000000000000000000000000000000000000000081526004016107f7906119e3565b60405180910390fd5b7ff8fad42e780bfa5459be3fe691e8ba1aec70342250112139c5771c3fd155f3128360405161082f9190611a23565b60405180910390a1505050565b60008060019054906101000a900460ff1680610863575060008054906101000a900460ff16155b6108a2576040517f08c379a0000000000000000000000000000000000000000000000000000000008152600401610899906119c3565b60405180910390fd5b60008060019054906101000a900460ff1615905080156108f2576001600060016101000a81548160ff02191690831515021790555060016000806101000a81548160ff0219169083151502179055505b84600060026101000a81548173ffffffffffffffffffffffffffffffffffffffff021916908373ffffffffffffffffffffffffffffffffffffffff16021790555083600160006101000a81548173ffffffffffffffffffffffffffffffffffffffff021916908373ffffffffffffffffffffffffffffffffffffffff16021790555082600260006101000a81548173ffffffffffffffffffffffffffffffffffffffff021916908373ffffffffffffffffffffffffffffffffffffffff1602179055506001915080156109da5760008060016101000a81548160ff0219169083151502179055505b509392505050565b60008673ffffffffffffffffffffffffffffffffffffffff1663dd62ed3e33306040518363ffffffff1660e01b8152600401610a1f9291906117ff565b60206040518083038186803b158015610a3757600080fd5b505afa158015610a4b573d6000803e3d6000fd5b505050506040513d601f19601f82011682018060405250810190610a6f9190611615565b905085811015610a9357610a92878288610a899190611b59565b87878787610a9c565b5b50505050505050565b8573ffffffffffffffffffffffffffffffffffffffff1663d505accf333088888888886040518863ffffffff1660e01b8152600401610ae1979695949392919061185f565b600060405180830381600087803b158015610afb57600080fd5b505af1158015610b0f573d6000803e3d6000fd5b50505050505050505050565b600160009054906101000a900473ffffffffffffffffffffffffffffffffffffffff1681565b6000600160009054906101000a900473ffffffffffffffffffffffffffffffffffffffff1673ffffffffffffffffffffffffffffffffffffffff166327def4fd610b8a846112f5565b6040518263ffffffff1660e01b8152600401610ba69190611a23565b60206040518083038186803b158015610bbe57600080fd5b505afa158015610bd2573d6000803e3d6000fd5b505050506040513d601f19601f82011682018060405250810190610bf69190611615565b9050919050565b610c2d600060029054906101000a900473ffffffffffffffffffffffffffffffffffffffff168686868686610a9c565b610c37338661110e565b5050505050565b600060029054906101000a900473ffffffffffffffffffffffffffffffffffffffff1681565b6000600660008473ffffffffffffffffffffffffffffffffffffffff1673ffffffffffffffffffffffffffffffffffffffff16815260200190815260200160002090508060000154821115610cee576040517f08c379a0000000000000000000000000000000000000000000000000000000008152600401610ce590611a03565b60405180910390fd5b610cf783610eb8565b81816000016000828254610d0b9190611b59565b925050819055508160046000828254610d249190611b59565b92505081905550600060029054906101000a900473ffffffffffffffffffffffffffffffffffffffff1673ffffffffffffffffffffffffffffffffffffffff1663a9059cbb84846040518363ffffffff1660e01b8152600401610d889291906118ce565b602060405180830381600087803b158015610da257600080fd5b505af1158015610db6573d6000803e3d6000fd5b505050506040513d601f19601f82011682018060405250810190610dda919061154b565b610e19576040517f08c379a0000000000000000000000000000000000000000000000000000000008152600401610e10906119a3565b60405180910390fd5b8273ffffffffffffffffffffffffffffffffffffffff167f20257c99a1831ee05678eabb34e57a99bf067b4a5e2cb2d5559ea0a23f65518d83604051610e5f9190611a23565b60405180910390a2505050565b6000600660008373ffffffffffffffffffffffffffffffffffffffff1673ffffffffffffffffffffffffffffffffffffffff168152602001908152602001600020600001549050919050565b6000600660008373ffffffffffffffffffffffffffffffffffffffff1673ffffffffffffffffffffffffffffffffffffffff16815260200190815260200160002090506000610f06836112f5565b905060055482600101819055506000811115611109576000600160009054906101000a900473ffffffffffffffffffffffffffffffffffffffff1673ffffffffffffffffffffffffffffffffffffffff166327def4fd836040518263ffffffff1660e01b8152600401610f799190611a23565b60206040518083038186803b158015610f9157600080fd5b505afa158015610fa5573d6000803e3d6000fd5b505050506040513d601f19601f82011682018060405250810190610fc99190611615565b9050600160009054906101000a900473ffffffffffffffffffffffffffffffffffffffff1673ffffffffffffffffffffffffffffffffffffffff1663a9059cbb85836040518363ffffffff1660e01b81526004016110289291906118ce565b602060405180830381600087803b15801561104257600080fd5b505af1158015611056573d6000803e3d6000fd5b505050506040513d601f19601f8201168201806040525081019061107a919061154b565b6110b9576040517f08c379a00000000000000000000000000000000000000000000000000000000081526004016110b0906119a3565b60405180910390fd5b8373ffffffffffffffffffffffffffffffffffffffff167fc9695243a805adb74c91f28311176c65b417e842d5699893cef56d18bfa48cba826040516110ff9190611a23565b60405180910390a2505b505050565b61111782610eb8565b80600660008473ffffffffffffffffffffffffffffffffffffffff1673ffffffffffffffffffffffffffffffffffffffff16815260200190815260200160002060000160008282546111699190611a78565b9250508190555080600460008282546111829190611a78565b92505081905550600060029054906101000a900473ffffffffffffffffffffffffffffffffffffffff1673ffffffffffffffffffffffffffffffffffffffff166323b872dd3330846040518463ffffffff1660e01b81526004016111e893929190611828565b602060405180830381600087803b15801561120257600080fd5b505af1158015611216573d6000803e3d6000fd5b505050506040513d601f19601f8201168201806040525081019061123a919061154b565b611279576040517f08c379a000000000000000000000000000000000000000000000000000000000815260040161127090611983565b60405180910390fd5b8173ffffffffffffffffffffffffffffffffffffffff167f1b359373bd6268b2ceac132cf22673d4f046a13deb2e7980f81baabf1b4d72f7826040516112bf9190611a23565b60405180910390a25050565b600081683635c9adc5dea00000846112e39190611aff565b6112ed9190611ace565b905092915050565b600080600660008473ffffffffffffffffffffffffffffffffffffffff1673ffffffffffffffffffffffffffffffffffffffff16815260200190815260200160002090506000600554141561134e576000915050611371565b61136d816000015482600101546005546113689190611b59565b611376565b9150505b919050565b6000683635c9adc5dea00000828461138e9190611aff565b6113989190611ace565b905092915050565b6000813590506113af81611e08565b92915050565b6000815190506113c481611e1f565b92915050565b6000813590506113d981611e36565b92915050565b6000813590506113ee81611e4d565b92915050565b60008135905061140381611e64565b92915050565b60008135905061141881611e7b565b92915050565b60008135905061142d81611e92565b92915050565b60008151905061144281611e92565b92915050565b60008135905061145781611ea9565b92915050565b60006020828403121561146f57600080fd5b600061147d848285016113a0565b91505092915050565b6000806040838503121561149957600080fd5b60006114a7858286016113a0565b92505060206114b88582860161141e565b9150509250929050565b60008060008060008060c087890312156114db57600080fd5b60006114e989828a016113a0565b96505060206114fa89828a0161141e565b955050604061150b89828a0161141e565b945050606061151c89828a01611448565b935050608061152d89828a016113ca565b92505060a061153e89828a016113ca565b9150509295509295509295565b60006020828403121561155d57600080fd5b600061156b848285016113b5565b91505092915050565b60008060006060848603121561158957600080fd5b6000611597868287016113df565b93505060206115a8868287016113f4565b92505060406115b986828701611409565b9150509250925092565b6000602082840312156115d557600080fd5b60006115e384828501611409565b91505092915050565b6000602082840312156115fe57600080fd5b600061160c8482850161141e565b91505092915050565b60006020828403121561162757600080fd5b600061163584828501611433565b91505092915050565b600080600080600060a0868803121561165657600080fd5b60006116648882890161141e565b95505060206116758882890161141e565b945050604061168688828901611448565b9350506060611697888289016113ca565b92505060806116a8888289016113ca565b9150509295509295909350565b6116be81611b8d565b82525050565b6116cd81611b9f565b82525050565b6116dc81611bab565b82525050565b6116eb81611c22565b82525050565b6116fa81611c46565b82525050565b61170981611c6a565b82525050565b600061171c600883611a67565b915061172782611cec565b602082019050919050565b600061173f601183611a67565b915061174a82611d15565b602082019050919050565b6000611762600d83611a67565b915061176d82611d3e565b602082019050919050565b6000611785602e83611a67565b915061179082611d67565b604082019050919050565b60006117a8600f83611a67565b91506117b382611db6565b602082019050919050565b60006117cb601483611a67565b91506117d682611ddf565b602082019050919050565b6117ea81611c0b565b82525050565b6117f981611c15565b82525050565b600060408201905061181460008301856116b5565b61182160208301846116b5565b9392505050565b600060608201905061183d60008301866116b5565b61184a60208301856116b5565b61185760408301846117e1565b949350505050565b600060e082019050611874600083018a6116b5565b61188160208301896116b5565b61188e60408301886117e1565b61189b60608301876117e1565b6118a860808301866117f0565b6118b560a08301856116d3565b6118c260c08301846116d3565b98975050505050505050565b60006040820190506118e360008301856116b5565b6118f060208301846117e1565b9392505050565b600060208201905061190c60008301846116c4565b92915050565b600060208201905061192760008301846116e2565b92915050565b600060208201905061194260008301846116f1565b92915050565b600060208201905061195d6000830184611700565b92915050565b6000602082019050818103600083015261197c8161170f565b9050919050565b6000602082019050818103600083015261199c81611732565b9050919050565b600060208201905081810360008301526119bc81611755565b9050919050565b600060208201905081810360008301526119dc81611778565b9050919050565b600060208201905081810360008301526119fc8161179b565b9050919050565b60006020820190508181036000830152611a1c816117be565b9050919050565b6000602082019050611a3860008301846117e1565b92915050565b6000604082019050611a5360008301856117e1565b611a6060208301846117e1565b9392505050565b600082825260208201905092915050565b6000611a8382611c0b565b9150611a8e83611c0b565b9250827fffffffffffffffffffffffffffffffffffffffffffffffffffffffffffffffff03821115611ac357611ac2611c8e565b5b828201905092915050565b6000611ad982611c0b565b9150611ae483611c0b565b925082611af457611af3611cbd565b5b828204905092915050565b6000611b0a82611c0b565b9150611b1583611c0b565b9250817fffffffffffffffffffffffffffffffffffffffffffffffffffffffffffffffff0483118215151615611b4e57611b4d611c8e565b5b828202905092915050565b6000611b6482611c0b565b9150611b6f83611c0b565b925082821015611b8257611b81611c8e565b5b828203905092915050565b6000611b9882611beb565b9050919050565b60008115159050919050565b6000819050919050565b6000611bc082611b8d565b9050919050565b6000611bd282611b8d565b9050919050565b6000611be482611b8d565b9050919050565b600073ffffffffffffffffffffffffffffffffffffffff82169050919050565b6000819050919050565b600060ff82169050919050565b6000611c2d82611c34565b9050919050565b6000611c3f82611beb565b9050919050565b6000611c5182611c58565b9050919050565b6000611c6382611beb565b9050919050565b6000611c7582611c7c565b9050919050565b6000611c8782611beb565b9050919050565b7f4e487b7100000000000000000000000000000000000000000000000000000000600052601160045260246000fd5b7f4e487b7100000000000000000000000000000000000000000000000000000000600052601260045260246000fd5b7f4e4f5f5354414b45000000000000000000000000000000000000000000000000600082015250565b7f5452414e5346455246524f4d5f4641494c000000000000000000000000000000600082015250565b7f5452414e534645525f4641494c00000000000000000000000000000000000000600082015250565b7f496e697469616c697a61626c653a20636f6e747261637420697320616c72656160008201527f647920696e697469616c697a6564000000000000000000000000000000000000602082015250565b7f5452414e534645525f4641494c45440000000000000000000000000000000000600082015250565b7f414d4f554e545f455843454544535f5354414b45000000000000000000000000600082015250565b611e1181611b8d565b8114611e1c57600080fd5b50565b611e2881611b9f565b8114611e3357600080fd5b50565b611e3f81611bab565b8114611e4a57600080fd5b50565b611e5681611bb5565b8114611e6157600080fd5b50565b611e6d81611bc7565b8114611e7857600080fd5b50565b611e8481611bd9565b8114611e8f57600080fd5b50565b611e9b81611c0b565b8114611ea657600080fd5b50565b611eb281611c15565b8114611ebd57600080fd5b5056fea2646970667358221220cf3cdf32644eb284cdf3580c946d40b23719e40362b9a3f235230e1333792cfb64736f6c63430008040033",
  "devdoc": {
    "kind": "dev",
    "methods": {
      "addRewards(uint256)": {
        "details": "will 'start' a new 'epoch'.only callable by owner.",
        "params": {
          "_amount": "amount of reward tokens to add"
        }
      },
      "availableRewards(address)": {
        "params": {
          "_for": "address address of the account to check rewards for."
        },
        "returns": {
          "_0": "rewards for the provided account address."
        }
      },
      "farm(uint256)": {
        "details": "'_amount' needs to be approved for the 'TenderFarm' to transfer.harvests current rewards before accounting updates are made.",
        "params": {
          "_amount": "amount of liquidity pool tokens to stake"
        }
      },
      "farmFor(address,uint256)": {
        "details": "'_amount' needs to be approved for the 'TenderFarm' to transfer.staked tokens will belong to the account they are staked for.harvests current rewards before accounting updates are made.",
        "params": {
          "_amount": "amount of liquidity pool tokens to stake",
          "_for": "account to stake for"
        }
      },
      "farmWithPermit(uint256,uint256,uint8,bytes32,bytes32)": {
        "details": "'_amount' needs to be approved for the 'TenderFarm' to transfer.harvests current rewards before accounting updates are made.calls permit on LP Token.",
        "params": {
          "_amount": "amount of liquidity pool tokens to stake",
          "_deadline": "deadline of the permit",
          "_r": "r of signed Permit message",
          "_s": "s of signed Permit message",
          "_v": "v of signed Permit message"
        }
      },
      "harvest()": {
        "details": "reverts when trying to harvest multiple times if no new rewards have been added.emits an event with how many reward tokens have been harvested."
      },
      "selfPermit(address,uint256,uint256,uint8,bytes32,bytes32)": {
        "details": "The `owner` is always msg.sender and the `spender` is always address(this).",
        "params": {
          "_deadline": "A timestamp, the current blocktime must be less than or equal to this timestamp",
          "_r": "Must produce valid secp256k1 signature from the holder along with `v` and `s`",
          "_s": "Must produce valid secp256k1 signature from the holder along with `r` and `v`",
          "_token": "The address of the token spent",
          "_v": "Must produce valid secp256k1 signature from the holder along with `r` and `s`",
          "_value": "The amount that can be spent of token"
        }
      },
      "selfPermitIfNecessary(address,uint256,uint256,uint8,bytes32,bytes32)": {
        "details": "The `owner` is always msg.sender and the `spender` is always address(this). Can be used instead of #selfPermit to prevent calls from failing due to a frontrun of a call to #selfPermit",
        "params": {
          "_deadline": "A timestamp, the current blocktime must be less than or equal to this timestamp",
          "_r": "Must produce valid secp256k1 signature from the holder along with `v` and `s`",
          "_s": "Must produce valid secp256k1 signature from the holder along with `r` and `v`",
          "_token": "The address of the token spent",
          "_v": "Must produce valid secp256k1 signature from the holder along with `r` and `s`",
          "_value": "The amount that can be spent of token"
        }
      },
      "setTenderizer(address)": {
        "params": {
          "_tenderizer": "address of the new tenderizer"
        }
      },
      "stakeOf(address)": {
        "params": {
          "_of": "address address of the account to check stake for."
        },
        "returns": {
          "_0": "LP tokens deposited for address"
        }
      },
      "unfarm(uint256)": {
        "details": "'_amount' needs to be approved for the 'TenderFarm' to transfer.harvests current rewards before accounting updates are made.",
        "params": {
          "amount": "amount of liquidity pool tokens to stake"
        }
      }
    },
    "stateVariables": {
      "CRF": {
        "details": "Cumulative reward factor"
      },
      "nextTotalStake": {
        "return": "nextStake LP Tokens staked for next round",
        "returns": {
          "_0": "nextStake LP Tokens staked for next round"
        }
      },
      "rewardToken": {
        "details": "Tender token."
      },
      "stakes": {
        "details": "stake mapping of each address"
      },
      "tenderizer": {
        "details": "tenderizer."
      },
      "token": {
        "details": "LP token."
      },
      "totalStake": {
        "return": "stake total amount of LP tokens staked",
        "returns": {
          "_0": "stake total amount of LP tokens staked"
        }
      }
    },
    "title": "TenderFarm",
    "version": 1
  },
  "userdoc": {
    "events": {
      "Farm(address,uint256)": {
        "notice": "Farm gets emitted when an account stakes LP tokens."
      },
      "Harvest(address,uint256)": {
        "notice": "Harvest gets emitted when an accounts harvests outstanding rewards."
      },
      "RewardsAdded(uint256)": {
        "notice": "RewardsAdded gets emitted when new rewards are added and a new epoch begins"
      },
      "Unfarm(address,uint256)": {
        "notice": "Unfarm gets emitted when an account unstakes LP tokens."
      }
    },
    "kind": "user",
    "methods": {
      "addRewards(uint256)": {
        "notice": "add new rewards"
      },
      "availableRewards(address)": {
        "notice": "Check available rewards for an account."
      },
      "farm(uint256)": {
        "notice": "stake liquidity pool tokens to receive rewards"
      },
      "farmFor(address,uint256)": {
        "notice": "stake liquidity pool tokens for a specific account so that it receives rewards"
      },
      "farmWithPermit(uint256,uint256,uint8,bytes32,bytes32)": {
        "notice": "allow spending token and stake liquidity pool tokens to receive rewards"
      },
      "harvest()": {
        "notice": "harvest outstanding rewards"
      },
      "nextTotalStake()": {
        "notice": "Return the total amount of LP tokens staked for the next reward epoch."
      },
      "selfPermit(address,uint256,uint256,uint8,bytes32,bytes32)": {
        "notice": "Permits this contract to spend a given token from `msg.sender`"
      },
      "selfPermitIfNecessary(address,uint256,uint256,uint8,bytes32,bytes32)": {
        "notice": "Permits this contract to spend a given token from `msg.sender`"
      },
      "setTenderizer(address)": {
        "notice": "Changes the tenderizer of the contract"
      },
      "stakeOf(address)": {
        "notice": "Check stake for an account."
      },
      "totalStake()": {
        "notice": "Return the total amount of LP tokens staked in this farm."
      },
      "unfarm(uint256)": {
        "notice": "unstake liquidity pool tokens"
      }
    },
    "notice": "TenderFarm is responsible for incetivizing liquidity providers, by accepting LP Tokens and a proportionaly rewarding them with TenderTokens over time.",
    "version": 1
  },
  "storageLayout": {
    "storage": [
      {
        "astId": 2048,
        "contract": "contracts/tenderfarm/TenderFarm.sol:TenderFarm",
        "label": "_initialized",
        "offset": 0,
        "slot": "0",
        "type": "t_bool"
      },
      {
        "astId": 2051,
        "contract": "contracts/tenderfarm/TenderFarm.sol:TenderFarm",
        "label": "_initializing",
        "offset": 1,
        "slot": "0",
        "type": "t_bool"
      },
      {
        "astId": 4865,
        "contract": "contracts/tenderfarm/TenderFarm.sol:TenderFarm",
        "label": "token",
        "offset": 2,
        "slot": "0",
        "type": "t_contract(IERC20)2712"
      },
      {
        "astId": 4869,
        "contract": "contracts/tenderfarm/TenderFarm.sol:TenderFarm",
        "label": "rewardToken",
        "offset": 0,
        "slot": "1",
        "type": "t_contract(ITenderToken)15480"
      },
      {
        "astId": 4873,
        "contract": "contracts/tenderfarm/TenderFarm.sol:TenderFarm",
        "label": "tenderizer",
        "offset": 0,
        "slot": "2",
        "type": "t_contract(ITenderizer)5577"
      },
      {
        "astId": 4877,
        "contract": "contracts/tenderfarm/TenderFarm.sol:TenderFarm",
        "label": "totalStake",
        "offset": 0,
        "slot": "3",
        "type": "t_uint256"
      },
      {
        "astId": 4881,
        "contract": "contracts/tenderfarm/TenderFarm.sol:TenderFarm",
        "label": "nextTotalStake",
        "offset": 0,
        "slot": "4",
        "type": "t_uint256"
      },
      {
        "astId": 4884,
        "contract": "contracts/tenderfarm/TenderFarm.sol:TenderFarm",
        "label": "CRF",
        "offset": 0,
        "slot": "5",
        "type": "t_uint256"
      },
      {
        "astId": 4895,
        "contract": "contracts/tenderfarm/TenderFarm.sol:TenderFarm",
        "label": "stakes",
        "offset": 0,
        "slot": "6",
        "type": "t_mapping(t_address,t_struct(Stake)4889_storage)"
      }
    ],
    "types": {
      "t_address": {
        "encoding": "inplace",
        "label": "address",
        "numberOfBytes": "20"
      },
      "t_bool": {
        "encoding": "inplace",
        "label": "bool",
        "numberOfBytes": "1"
      },
      "t_contract(IERC20)2712": {
        "encoding": "inplace",
        "label": "contract IERC20",
        "numberOfBytes": "20"
      },
      "t_contract(ITenderToken)15480": {
        "encoding": "inplace",
        "label": "contract ITenderToken",
        "numberOfBytes": "20"
      },
      "t_contract(ITenderizer)5577": {
        "encoding": "inplace",
        "label": "contract ITenderizer",
        "numberOfBytes": "20"
      },
      "t_mapping(t_address,t_struct(Stake)4889_storage)": {
        "encoding": "mapping",
        "key": "t_address",
        "label": "mapping(address => struct TenderFarm.Stake)",
        "numberOfBytes": "32",
        "value": "t_struct(Stake)4889_storage"
      },
      "t_struct(Stake)4889_storage": {
        "encoding": "inplace",
        "label": "struct TenderFarm.Stake",
        "members": [
          {
            "astId": 4886,
            "contract": "contracts/tenderfarm/TenderFarm.sol:TenderFarm",
            "label": "stake",
            "offset": 0,
            "slot": "0",
            "type": "t_uint256"
          },
          {
            "astId": 4888,
            "contract": "contracts/tenderfarm/TenderFarm.sol:TenderFarm",
            "label": "lastCRF",
            "offset": 0,
            "slot": "1",
            "type": "t_uint256"
          }
        ],
        "numberOfBytes": "64"
      },
      "t_uint256": {
        "encoding": "inplace",
        "label": "uint256",
        "numberOfBytes": "32"
      }
    }
  }
}