{
  "address": "0x76B4D068BE84B58172904736430B76d50383d4CC",
  "abi": [
    {
      "anonymous": false,
      "inputs": [
        {
          "indexed": true,
          "internalType": "address",
          "name": "owner",
          "type": "address"
        },
        {
          "indexed": true,
          "internalType": "address",
          "name": "spender",
          "type": "address"
        },
        {
          "indexed": false,
          "internalType": "uint256",
          "name": "value",
          "type": "uint256"
        }
      ],
      "name": "Approval",
      "type": "event"
    },
    {
      "anonymous": false,
      "inputs": [
        {
          "indexed": true,
          "internalType": "address",
          "name": "previousOwner",
          "type": "address"
        },
        {
          "indexed": true,
          "internalType": "address",
          "name": "newOwner",
          "type": "address"
        }
      ],
      "name": "OwnershipTransferred",
      "type": "event"
    },
    {
      "anonymous": false,
      "inputs": [
        {
          "indexed": true,
          "internalType": "address",
          "name": "from",
          "type": "address"
        },
        {
          "indexed": true,
          "internalType": "address",
          "name": "to",
          "type": "address"
        },
        {
          "indexed": false,
          "internalType": "uint256",
          "name": "value",
          "type": "uint256"
        }
      ],
      "name": "Transfer",
      "type": "event"
    },
    {
      "inputs": [],
      "name": "DOMAIN_SEPARATOR",
      "outputs": [
        {
          "internalType": "bytes32",
          "name": "",
          "type": "bytes32"
        }
      ],
      "stateMutability": "view",
      "type": "function"
    },
    {
      "inputs": [
        {
          "internalType": "address",
          "name": "_owner",
          "type": "address"
        },
        {
          "internalType": "address",
          "name": "_spender",
          "type": "address"
        }
      ],
      "name": "allowance",
      "outputs": [
        {
          "internalType": "uint256",
          "name": "",
          "type": "uint256"
        }
      ],
      "stateMutability": "view",
      "type": "function"
    },
    {
      "inputs": [
        {
          "internalType": "address",
          "name": "_spender",
          "type": "address"
        },
        {
          "internalType": "uint256",
          "name": "_amount",
          "type": "uint256"
        }
      ],
      "name": "approve",
      "outputs": [
        {
          "internalType": "bool",
          "name": "",
          "type": "bool"
        }
      ],
      "stateMutability": "nonpayable",
      "type": "function"
    },
    {
      "inputs": [
        {
          "internalType": "address",
          "name": "_account",
          "type": "address"
        }
      ],
      "name": "balanceOf",
      "outputs": [
        {
          "internalType": "uint256",
          "name": "",
          "type": "uint256"
        }
      ],
      "stateMutability": "view",
      "type": "function"
    },
    {
      "inputs": [
        {
          "internalType": "address",
          "name": "_account",
          "type": "address"
        },
        {
          "internalType": "uint256",
          "name": "_amount",
          "type": "uint256"
        }
      ],
      "name": "burn",
      "outputs": [
        {
          "internalType": "bool",
          "name": "",
          "type": "bool"
        }
      ],
      "stateMutability": "nonpayable",
      "type": "function"
    },
    {
      "inputs": [],
      "name": "decimals",
      "outputs": [
        {
          "internalType": "uint8",
          "name": "",
          "type": "uint8"
        }
      ],
      "stateMutability": "pure",
      "type": "function"
    },
    {
      "inputs": [
        {
          "internalType": "address",
          "name": "_spender",
          "type": "address"
        },
        {
          "internalType": "uint256",
          "name": "_subtractedValue",
          "type": "uint256"
        }
      ],
      "name": "decreaseAllowance",
      "outputs": [
        {
          "internalType": "bool",
          "name": "",
          "type": "bool"
        }
      ],
      "stateMutability": "nonpayable",
      "type": "function"
    },
    {
      "inputs": [],
      "name": "getTotalPooledTokens",
      "outputs": [
        {
          "internalType": "uint256",
          "name": "",
          "type": "uint256"
        }
      ],
      "stateMutability": "view",
      "type": "function"
    },
    {
      "inputs": [],
      "name": "getTotalShares",
      "outputs": [
        {
          "internalType": "uint256",
          "name": "",
          "type": "uint256"
        }
      ],
      "stateMutability": "view",
      "type": "function"
    },
    {
      "inputs": [
        {
          "internalType": "address",
          "name": "_spender",
          "type": "address"
        },
        {
          "internalType": "uint256",
          "name": "_addedValue",
          "type": "uint256"
        }
      ],
      "name": "increaseAllowance",
      "outputs": [
        {
          "internalType": "bool",
          "name": "",
          "type": "bool"
        }
      ],
      "stateMutability": "nonpayable",
      "type": "function"
    },
    {
      "inputs": [
        {
          "internalType": "string",
          "name": "_name",
          "type": "string"
        },
        {
          "internalType": "string",
          "name": "_symbol",
          "type": "string"
        },
        {
          "internalType": "contract ITotalStakedReader",
          "name": "_totalStakedReader",
          "type": "address"
        }
      ],
      "name": "initialize",
      "outputs": [
        {
          "internalType": "bool",
          "name": "",
          "type": "bool"
        }
      ],
      "stateMutability": "nonpayable",
      "type": "function"
    },
    {
      "inputs": [
        {
          "internalType": "address",
          "name": "_recipient",
          "type": "address"
        },
        {
          "internalType": "uint256",
          "name": "_amount",
          "type": "uint256"
        }
      ],
      "name": "mint",
      "outputs": [
        {
          "internalType": "bool",
          "name": "",
          "type": "bool"
        }
      ],
      "stateMutability": "nonpayable",
      "type": "function"
    },
    {
      "inputs": [],
      "name": "name",
      "outputs": [
        {
          "internalType": "string",
          "name": "",
          "type": "string"
        }
      ],
      "stateMutability": "view",
      "type": "function"
    },
    {
      "inputs": [
        {
          "internalType": "address",
          "name": "owner",
          "type": "address"
        }
      ],
      "name": "nonces",
      "outputs": [
        {
          "internalType": "uint256",
          "name": "",
          "type": "uint256"
        }
      ],
      "stateMutability": "view",
      "type": "function"
    },
    {
      "inputs": [],
      "name": "owner",
      "outputs": [
        {
          "internalType": "address",
          "name": "",
          "type": "address"
        }
      ],
      "stateMutability": "view",
      "type": "function"
    },
    {
      "inputs": [
        {
          "internalType": "address",
          "name": "owner",
          "type": "address"
        },
        {
          "internalType": "address",
          "name": "spender",
          "type": "address"
        },
        {
          "internalType": "uint256",
          "name": "value",
          "type": "uint256"
        },
        {
          "internalType": "uint256",
          "name": "deadline",
          "type": "uint256"
        },
        {
          "internalType": "uint8",
          "name": "v",
          "type": "uint8"
        },
        {
          "internalType": "bytes32",
          "name": "r",
          "type": "bytes32"
        },
        {
          "internalType": "bytes32",
          "name": "s",
          "type": "bytes32"
        }
      ],
      "name": "permit",
      "outputs": [],
      "stateMutability": "nonpayable",
      "type": "function"
    },
    {
      "inputs": [],
      "name": "renounceOwnership",
      "outputs": [],
      "stateMutability": "nonpayable",
      "type": "function"
    },
    {
      "inputs": [
        {
          "internalType": "contract ITotalStakedReader",
          "name": "_totalStakedReader",
          "type": "address"
        }
      ],
      "name": "setTotalStakedReader",
      "outputs": [],
      "stateMutability": "nonpayable",
      "type": "function"
    },
    {
      "inputs": [
        {
          "internalType": "address",
          "name": "_account",
          "type": "address"
        }
      ],
      "name": "sharesOf",
      "outputs": [
        {
          "internalType": "uint256",
          "name": "",
          "type": "uint256"
        }
      ],
      "stateMutability": "view",
      "type": "function"
    },
    {
      "inputs": [
        {
          "internalType": "uint256",
          "name": "_shares",
          "type": "uint256"
        }
      ],
      "name": "sharesToTokens",
      "outputs": [
        {
          "internalType": "uint256",
          "name": "",
          "type": "uint256"
        }
      ],
      "stateMutability": "view",
      "type": "function"
    },
    {
      "inputs": [],
      "name": "symbol",
      "outputs": [
        {
          "internalType": "string",
          "name": "",
          "type": "string"
        }
      ],
      "stateMutability": "view",
      "type": "function"
    },
    {
      "inputs": [
        {
          "internalType": "uint256",
          "name": "_tokens",
          "type": "uint256"
        }
      ],
      "name": "tokensToShares",
      "outputs": [
        {
          "internalType": "uint256",
          "name": "",
          "type": "uint256"
        }
      ],
      "stateMutability": "view",
      "type": "function"
    },
    {
      "inputs": [],
      "name": "totalStakedReader",
      "outputs": [
        {
          "internalType": "contract ITotalStakedReader",
          "name": "",
          "type": "address"
        }
      ],
      "stateMutability": "view",
      "type": "function"
    },
    {
      "inputs": [],
      "name": "totalSupply",
      "outputs": [
        {
          "internalType": "uint256",
          "name": "",
          "type": "uint256"
        }
      ],
      "stateMutability": "view",
      "type": "function"
    },
    {
      "inputs": [
        {
          "internalType": "address",
          "name": "_recipient",
          "type": "address"
        },
        {
          "internalType": "uint256",
          "name": "_amount",
          "type": "uint256"
        }
      ],
      "name": "transfer",
      "outputs": [
        {
          "internalType": "bool",
          "name": "",
          "type": "bool"
        }
      ],
      "stateMutability": "nonpayable",
      "type": "function"
    },
    {
      "inputs": [
        {
          "internalType": "address",
          "name": "_sender",
          "type": "address"
        },
        {
          "internalType": "address",
          "name": "_recipient",
          "type": "address"
        },
        {
          "internalType": "uint256",
          "name": "_amount",
          "type": "uint256"
        }
      ],
      "name": "transferFrom",
      "outputs": [
        {
          "internalType": "bool",
          "name": "",
          "type": "bool"
        }
      ],
      "stateMutability": "nonpayable",
      "type": "function"
    },
    {
      "inputs": [
        {
          "internalType": "address",
          "name": "newOwner",
          "type": "address"
        }
      ],
      "name": "transferOwnership",
      "outputs": [],
      "stateMutability": "nonpayable",
      "type": "function"
    }
  ],
  "transactionHash": "0x8e426d7b6596108f75497451afdd81fa034d70ef6a37f0564d5485673c9d6efa",
  "args": [],
  "numDeployments": 1,
  "solcInputHash": "19276debf674c1c1df901d1bc8945ee1",
  "bytecode": "0x608060405234801561001057600080fd5b50613b4b806100206000396000f3fe608060405234801561001057600080fd5b50600436106101a95760003560e01c8063715018a6116100f9578063a9059cbb11610097578063dd62ed3e11610071578063dd62ed3e1461050e578063f2fde38b1461053e578063f3044ac71461055a578063f5eb42dc1461058a576101a9565b8063a9059cbb146104a4578063d5002f2e146104d4578063d505accf146104f2576101a9565b80638da5cb5b116100d35780638da5cb5b1461040857806395d89b41146104265780639dc29fac14610444578063a457c2d714610474576101a9565b8063715018a6146103b05780637ecebe00146103ba5780638d7a7164146103ea576101a9565b806323b872dd116101665780633644e515116101405780633644e51514610302578063395093511461032057806340c10f191461035057806370a0823114610380576101a9565b806323b872dd1461028457806327def4fd146102b4578063313ce567146102e4576101a9565b80630216b5ec146101ae57806306fdde03146101cc578063077f224a146101ea578063095ea7b31461021a57806310eae6b51461024a57806318160ddd14610266575b600080fd5b6101b66105ba565b6040516101c39190612fe8565b60405180910390f35b6101d46105e1565b6040516101e19190613003565b60405180910390f35b61020460048036038101906101ff9190612975565b610673565b6040516102119190612eb9565b60405180910390f35b610234600480360381019061022f9190612910565b610876565b6040516102419190612eb9565b60405180910390f35b610264600480360381019061025f919061294c565b61088d565b005b61026e610988565b60405161027b9190613285565b60405180910390f35b61029e60048036038101906102999190612823565b610997565b6040516102ab9190612eb9565b60405180910390f35b6102ce60048036038101906102c991906129f4565b610a8a565b6040516102db9190613285565b60405180910390f35b6102ec610a9c565b6040516102f991906132a0565b60405180910390f35b61030a610aa5565b6040516103179190612ed4565b60405180910390f35b61033a60048036038101906103359190612910565b610ab4565b6040516103479190612eb9565b60405180910390f35b61036a60048036038101906103659190612910565b610b53565b6040516103779190612eb9565b60405180910390f35b61039a600480360381019061039591906127be565b610bed565b6040516103a79190613285565b60405180910390f35b6103b8610c07565b005b6103d460048036038101906103cf91906127be565b610c8f565b6040516103e19190613285565b60405180910390f35b6103f2610cdf565b6040516103ff9190613285565b60405180910390f35b610410610cee565b60405161041d9190612e9e565b60405180910390f35b61042e610d18565b60405161043b9190613003565b60405180910390f35b61045e60048036038101906104599190612910565b610daa565b60405161046b9190612eb9565b60405180910390f35b61048e60048036038101906104899190612910565b610e4b565b60405161049b9190612eb9565b60405180910390f35b6104be60048036038101906104b99190612910565b610f32565b6040516104cb9190612eb9565b60405180910390f35b6104dc610f49565b6040516104e99190613285565b60405180910390f35b61050c60048036038101906105079190612872565b610f58565b005b610528600480360381019061052391906127e7565b61107c565b6040516105359190613285565b60405180910390f35b610558600480360381019061055391906127be565b611104565b005b610574600480360381019061056f91906129f4565b6111fc565b6040516105819190613285565b60405180910390f35b6105a4600480360381019061059f91906127be565b61120e565b6040516105b19190613285565b60405180910390f35b61010160009054906101000a900473ffffffffffffffffffffffffffffffffffffffff1681565b6060606880546105f090613524565b80601f016020809104026020016040519081016040528092919081815260200182805461061c90613524565b80156106695780601f1061063e57610100808354040283529160200191610669565b820191906000526020600020905b81548152906001019060200180831161064c57829003601f168201915b5050505050905090565b60008060019054906101000a900460ff168061069a575060008054906101000a900460ff16155b6106d9576040517f08c379a00000000000000000000000000000000000000000000000000000000081526004016106d090613165565b60405180910390fd5b60008060019054906101000a900460ff161590508015610729576001600060016101000a81548160ff02191690831515021790555060016000806101000a81548160ff0219169083151502179055505b610731611220565b6107396112f9565b6107818560405160200161074d9190612e5a565b6040516020818303038152906040528560405160200161076d9190612e7c565b6040516020818303038152906040526113e2565b6107df856040516020016107959190612e5a565b6040516020818303038152906040526040518060400160405280600181526020017f31000000000000000000000000000000000000000000000000000000000000008152506114eb565b610807856040516020016107f39190612e5a565b6040516020818303038152906040526115ee565b8261010160006101000a81548173ffffffffffffffffffffffffffffffffffffffff021916908373ffffffffffffffffffffffffffffffffffffffff16021790555060019150801561086e5760008060016101000a81548160ff0219169083151502179055505b509392505050565b60006108833384846116ef565b6001905092915050565b6108956118bb565b73ffffffffffffffffffffffffffffffffffffffff166108b3610cee565b73ffffffffffffffffffffffffffffffffffffffff1614610909576040517f08c379a000000000000000000000000000000000000000000000000000000000815260040161090090613205565b60405180910390fd5b600073ffffffffffffffffffffffffffffffffffffffff168173ffffffffffffffffffffffffffffffffffffffff16141561094357600080fd5b8061010160006101000a81548173ffffffffffffffffffffffffffffffffffffffff021916908373ffffffffffffffffffffffffffffffffffffffff16021790555050565b60006109926118c3565b905090565b60008061010060008673ffffffffffffffffffffffffffffffffffffffff1673ffffffffffffffffffffffffffffffffffffffff16815260200190815260200160002060003373ffffffffffffffffffffffffffffffffffffffff1673ffffffffffffffffffffffffffffffffffffffff16815260200190815260200160002054905082811015610a5d576040517f08c379a0000000000000000000000000000000000000000000000000000000008152600401610a5490613045565b60405180910390fd5b610a6885858561196b565b610a7e85338584610a799190613419565b6116ef565b60019150509392505050565b6000610a95826119ee565b9050919050565b60006012905090565b6000610aaf611a29565b905090565b6000610b4933848461010060003373ffffffffffffffffffffffffffffffffffffffff1673ffffffffffffffffffffffffffffffffffffffff16815260200190815260200160002060008873ffffffffffffffffffffffffffffffffffffffff1673ffffffffffffffffffffffffffffffffffffffff16815260200190815260200160002054610b449190613338565b6116ef565b6001905092915050565b6000610b5d6118bb565b73ffffffffffffffffffffffffffffffffffffffff16610b7b610cee565b73ffffffffffffffffffffffffffffffffffffffff1614610bd1576040517f08c379a0000000000000000000000000000000000000000000000000000000008152600401610bc890613205565b60405180910390fd5b610be383610bde84611a69565b611abe565b6001905092915050565b6000610c00610bfb83611ba1565b6119ee565b9050919050565b610c0f6118bb565b73ffffffffffffffffffffffffffffffffffffffff16610c2d610cee565b73ffffffffffffffffffffffffffffffffffffffff1614610c83576040517f08c379a0000000000000000000000000000000000000000000000000000000008152600401610c7a90613205565b60405180910390fd5b610c8d6000611bea565b565b6000610cd860cb60008473ffffffffffffffffffffffffffffffffffffffff1673ffffffffffffffffffffffffffffffffffffffff168152602001908152602001600020611cb0565b9050919050565b6000610ce96118c3565b905090565b6000603360009054906101000a900473ffffffffffffffffffffffffffffffffffffffff16905090565b606060698054610d2790613524565b80601f0160208091040260200160405190810160405280929190818152602001828054610d5390613524565b8015610da05780601f10610d7557610100808354040283529160200191610da0565b820191906000526020600020905b815481529060010190602001808311610d8357829003601f168201915b5050505050905090565b6000610db46118bb565b73ffffffffffffffffffffffffffffffffffffffff16610dd2610cee565b73ffffffffffffffffffffffffffffffffffffffff1614610e28576040517f08c379a0000000000000000000000000000000000000000000000000000000008152600401610e1f90613205565b60405180910390fd5b6000610e3383611a69565b9050610e3f8482611cbe565b50600191505092915050565b60008061010060003373ffffffffffffffffffffffffffffffffffffffff1673ffffffffffffffffffffffffffffffffffffffff16815260200190815260200160002060008573ffffffffffffffffffffffffffffffffffffffff1673ffffffffffffffffffffffffffffffffffffffff16815260200190815260200160002054905082811015610f11576040517f08c379a0000000000000000000000000000000000000000000000000000000008152600401610f0890613145565b60405180910390fd5b610f2733858584610f229190613419565b6116ef565b600191505092915050565b6000610f3f33848461196b565b6001905092915050565b6000610f53611e23565b905090565b83421115610f9b576040517f08c379a0000000000000000000000000000000000000000000000000000000008152600401610f9290613105565b60405180910390fd5b600060cc54888888610fac8c611e2d565b89604051602001610fc296959493929190612eef565b6040516020818303038152906040528051906020012090506000610fe582611e8b565b90506000610ff582878787611ea5565b90508973ffffffffffffffffffffffffffffffffffffffff168173ffffffffffffffffffffffffffffffffffffffff1614611065576040517f08c379a000000000000000000000000000000000000000000000000000000000815260040161105c906131e5565b60405180910390fd5b6110708a8a8a6116ef565b50505050505050505050565b600061010060008473ffffffffffffffffffffffffffffffffffffffff1673ffffffffffffffffffffffffffffffffffffffff16815260200190815260200160002060008373ffffffffffffffffffffffffffffffffffffffff1673ffffffffffffffffffffffffffffffffffffffff16815260200190815260200160002054905092915050565b61110c6118bb565b73ffffffffffffffffffffffffffffffffffffffff1661112a610cee565b73ffffffffffffffffffffffffffffffffffffffff1614611180576040517f08c379a000000000000000000000000000000000000000000000000000000000815260040161117790613205565b60405180910390fd5b600073ffffffffffffffffffffffffffffffffffffffff168173ffffffffffffffffffffffffffffffffffffffff1614156111f0576040517f08c379a00000000000000000000000000000000000000000000000000000000081526004016111e7906130c5565b60405180910390fd5b6111f981611bea565b50565b600061120782611a69565b9050919050565b600061121982611ba1565b9050919050565b600060019054906101000a900460ff1680611246575060008054906101000a900460ff16155b611285576040517f08c379a000000000000000000000000000000000000000000000000000000000815260040161127c90613165565b60405180910390fd5b60008060019054906101000a900460ff1615905080156112d5576001600060016101000a81548160ff02191690831515021790555060016000806101000a81548160ff0219169083151502179055505b80156112f65760008060016101000a81548160ff0219169083151502179055505b50565b600060019054906101000a900460ff168061131f575060008054906101000a900460ff16155b61135e576040517f08c379a000000000000000000000000000000000000000000000000000000000815260040161135590613165565b60405180910390fd5b60008060019054906101000a900460ff1615905080156113ae576001600060016101000a81548160ff02191690831515021790555060016000806101000a81548160ff0219169083151502179055505b6113be6113b96118bb565b611bea565b80156113df5760008060016101000a81548160ff0219169083151502179055505b50565b600060019054906101000a900460ff1680611408575060008054906101000a900460ff16155b611447576040517f08c379a000000000000000000000000000000000000000000000000000000000815260040161143e90613165565b60405180910390fd5b60008060019054906101000a900460ff161590508015611497576001600060016101000a81548160ff02191690831515021790555060016000806101000a81548160ff0219169083151502179055505b82606890805190602001906114ad929190612635565b5081606990805190602001906114c4929190612635565b5080156114e65760008060016101000a81548160ff0219169083151502179055505b505050565b600060019054906101000a900460ff1680611511575060008054906101000a900460ff16155b611550576040517f08c379a000000000000000000000000000000000000000000000000000000000815260040161154790613165565b60405180910390fd5b60008060019054906101000a900460ff1615905080156115a0576001600060016101000a81548160ff02191690831515021790555060016000806101000a81548160ff0219169083151502179055505b6000838051906020012090506000838051906020012090508160978190555080609881905550505080156115e95760008060016101000a81548160ff0219169083151502179055505b505050565b600060019054906101000a900460ff1680611614575060008054906101000a900460ff16155b611653576040517f08c379a000000000000000000000000000000000000000000000000000000000815260040161164a90613165565b60405180910390fd5b60008060019054906101000a900460ff1615905080156116a3576001600060016101000a81548160ff02191690831515021790555060016000806101000a81548160ff0219169083151502179055505b7f6e71edae12b1b97f4d1f60370fef10105fa2faae0126114a169c64845d6126c960cc8190555080156116eb5760008060016101000a81548160ff0219169083151502179055505b5050565b600073ffffffffffffffffffffffffffffffffffffffff168373ffffffffffffffffffffffffffffffffffffffff16141561175f576040517f08c379a000000000000000000000000000000000000000000000000000000000815260040161175690613245565b60405180910390fd5b600073ffffffffffffffffffffffffffffffffffffffff168273ffffffffffffffffffffffffffffffffffffffff1614156117cf576040517f08c379a00000000000000000000000000000000000000000000000000000000081526004016117c6906130e5565b60405180910390fd5b8061010060008573ffffffffffffffffffffffffffffffffffffffff1673ffffffffffffffffffffffffffffffffffffffff16815260200190815260200160002060008473ffffffffffffffffffffffffffffffffffffffff1673ffffffffffffffffffffffffffffffffffffffff168152602001908152602001600020819055508173ffffffffffffffffffffffffffffffffffffffff168373ffffffffffffffffffffffffffffffffffffffff167f8c5be1e5ebec7d5bd14f71427d1e84f3dd0314c0f7b2291e5b200ac8c7c3b925836040516118ae9190613285565b60405180910390a3505050565b600033905090565b600061010160009054906101000a900473ffffffffffffffffffffffffffffffffffffffff1673ffffffffffffffffffffffffffffffffffffffff16633ae732596040518163ffffffff1660e01b815260040160206040518083038186803b15801561192e57600080fd5b505afa158015611942573d6000803e3d6000fd5b505050506040513d601f19601f820116820180604052508101906119669190612a1d565b905090565b600061197682611a69565b9050611983848483611ed0565b8273ffffffffffffffffffffffffffffffffffffffff168473ffffffffffffffffffffffffffffffffffffffff167fddf252ad1be2c89b69c2b068fc378daa952ba7f163c4a11628f55a4df523b3ef846040516119e09190613285565b60405180910390a350505050565b6000806119f9611e23565b90506000811415611a0e576000915050611a24565b611a2083611a1a6118c3565b836120e2565b9150505b919050565b6000611a647f8b73c3c69bb8fe3d512ecc4cf759cc79239f7b179b0ffacaa9a75d522b39400f611a57612116565b611a5f612120565b61212a565b905090565b600080611a746118c3565b90506000611a80611e23565b90506000811415611a95578392505050611ab9565b6000821415611aa957600092505050611ab9565b611ab48482846120e2565b925050505b919050565b600073ffffffffffffffffffffffffffffffffffffffff168273ffffffffffffffffffffffffffffffffffffffff161415611b2e576040517f08c379a0000000000000000000000000000000000000000000000000000000008152600401611b2590613265565b60405180910390fd5b8060ff60008473ffffffffffffffffffffffffffffffffffffffff1673ffffffffffffffffffffffffffffffffffffffff1681526020019081526020016000206000828254611b7d9190613338565b925050819055508060fe6000828254611b969190613338565b925050819055505050565b600060ff60008373ffffffffffffffffffffffffffffffffffffffff1673ffffffffffffffffffffffffffffffffffffffff168152602001908152602001600020549050919050565b6000603360009054906101000a900473ffffffffffffffffffffffffffffffffffffffff16905081603360006101000a81548173ffffffffffffffffffffffffffffffffffffffff021916908373ffffffffffffffffffffffffffffffffffffffff1602179055508173ffffffffffffffffffffffffffffffffffffffff168173ffffffffffffffffffffffffffffffffffffffff167f8be0079c531659141344cd1fd0a4f28419497f9722a3daafe3b4186f6b6457e060405160405180910390a35050565b600081600001549050919050565b60008073ffffffffffffffffffffffffffffffffffffffff168373ffffffffffffffffffffffffffffffffffffffff161415611d2f576040517f08c379a0000000000000000000000000000000000000000000000000000000008152600401611d26906130a5565b60405180910390fd5b600060ff60008573ffffffffffffffffffffffffffffffffffffffff1673ffffffffffffffffffffffffffffffffffffffff16815260200190815260200160002054905080831115611db6576040517f08c379a0000000000000000000000000000000000000000000000000000000008152600401611dad906131c5565b60405180910390fd5b8260fe54611dc49190613419565b91508281611dd29190613419565b60ff60008673ffffffffffffffffffffffffffffffffffffffff1673ffffffffffffffffffffffffffffffffffffffff168152602001908152602001600020819055508160fe819055505092915050565b600060fe54905090565b60008060cb60008473ffffffffffffffffffffffffffffffffffffffff1673ffffffffffffffffffffffffffffffffffffffff1681526020019081526020016000209050611e7a81611cb0565b9150611e8581612164565b50919050565b6000611e9e611e98611a29565b8361217a565b9050919050565b6000806000611eb6878787876121ad565b91509150611ec3816122ba565b8192505050949350505050565b600073ffffffffffffffffffffffffffffffffffffffff168373ffffffffffffffffffffffffffffffffffffffff161415611f40576040517f08c379a0000000000000000000000000000000000000000000000000000000008152600401611f3790613085565b60405180910390fd5b600073ffffffffffffffffffffffffffffffffffffffff168273ffffffffffffffffffffffffffffffffffffffff161415611fb0576040517f08c379a0000000000000000000000000000000000000000000000000000000008152600401611fa7906131a5565b60405180910390fd5b600060ff60008573ffffffffffffffffffffffffffffffffffffffff1673ffffffffffffffffffffffffffffffffffffffff16815260200190815260200160002054905080821115612037576040517f08c379a000000000000000000000000000000000000000000000000000000000815260040161202e90613225565b60405180910390fd5b81816120439190613419565b60ff60008673ffffffffffffffffffffffffffffffffffffffff1673ffffffffffffffffffffffffffffffffffffffff168152602001908152602001600020819055508160ff60008573ffffffffffffffffffffffffffffffffffffffff1673ffffffffffffffffffffffffffffffffffffffff16815260200190815260200160002060008282546120d59190613338565b9250508190555050505050565b6000683635c9adc5dea000006120f8848461260b565b8561210391906133bf565b61210d919061338e565b90509392505050565b6000609754905090565b6000609854905090565b60008383834630604051602001612145959493929190612f50565b6040516020818303038152906040528051906020012090509392505050565b6001816000016000828254019250508190555050565b6000828260405160200161218f929190612e23565b60405160208183030381529060405280519060200120905092915050565b6000807f7fffffffffffffffffffffffffffffff5d576e7357a4501ddfe92f46681b20a08360001c11156121e85760006003915091506122b1565b601b8560ff16141580156122005750601c8560ff1614155b156122125760006004915091506122b1565b6000600187878787604051600081526020016040526040516122379493929190612fa3565b6020604051602081039080840390855afa158015612259573d6000803e3d6000fd5b505050602060405103519050600073ffffffffffffffffffffffffffffffffffffffff168173ffffffffffffffffffffffffffffffffffffffff1614156122a8576000600192509250506122b1565b80600092509250505b94509492505050565b600060048111156122f4577f4e487b7100000000000000000000000000000000000000000000000000000000600052602160045260246000fd5b81600481111561232d577f4e487b7100000000000000000000000000000000000000000000000000000000600052602160045260246000fd5b141561233857612608565b60016004811115612372577f4e487b7100000000000000000000000000000000000000000000000000000000600052602160045260246000fd5b8160048111156123ab577f4e487b7100000000000000000000000000000000000000000000000000000000600052602160045260246000fd5b14156123ec576040517f08c379a00000000000000000000000000000000000000000000000000000000081526004016123e390613025565b60405180910390fd5b60026004811115612426577f4e487b7100000000000000000000000000000000000000000000000000000000600052602160045260246000fd5b81600481111561245f577f4e487b7100000000000000000000000000000000000000000000000000000000600052602160045260246000fd5b14156124a0576040517f08c379a000000000000000000000000000000000000000000000000000000000815260040161249790613065565b60405180910390fd5b600360048111156124da577f4e487b7100000000000000000000000000000000000000000000000000000000600052602160045260246000fd5b816004811115612513577f4e487b7100000000000000000000000000000000000000000000000000000000600052602160045260246000fd5b1415612554576040517f08c379a000000000000000000000000000000000000000000000000000000000815260040161254b90613125565b60405180910390fd5b60048081111561258d577f4e487b7100000000000000000000000000000000000000000000000000000000600052602160045260246000fd5b8160048111156125c6577f4e487b7100000000000000000000000000000000000000000000000000000000600052602160045260246000fd5b1415612607576040517f08c379a00000000000000000000000000000000000000000000000000000000081526004016125fe90613185565b60405180910390fd5b5b50565b600081683635c9adc5dea000008461262391906133bf565b61262d919061338e565b905092915050565b82805461264190613524565b90600052602060002090601f01602090048101928261266357600085556126aa565b82601f1061267c57805160ff19168380011785556126aa565b828001600101855582156126aa579182015b828111156126a957825182559160200191906001019061268e565b5b5090506126b791906126bb565b5090565b5b808211156126d45760008160009055506001016126bc565b5090565b60006126eb6126e6846132e0565b6132bb565b90508281526020810184848401111561270357600080fd5b61270e8482856134e2565b509392505050565b60008135905061272581613aa2565b92915050565b60008135905061273a81613ab9565b92915050565b60008135905061274f81613ad0565b92915050565b600082601f83011261276657600080fd5b81356127768482602086016126d8565b91505092915050565b60008135905061278e81613ae7565b92915050565b6000815190506127a381613ae7565b92915050565b6000813590506127b881613afe565b92915050565b6000602082840312156127d057600080fd5b60006127de84828501612716565b91505092915050565b600080604083850312156127fa57600080fd5b600061280885828601612716565b925050602061281985828601612716565b9150509250929050565b60008060006060848603121561283857600080fd5b600061284686828701612716565b935050602061285786828701612716565b92505060406128688682870161277f565b9150509250925092565b600080600080600080600060e0888a03121561288d57600080fd5b600061289b8a828b01612716565b97505060206128ac8a828b01612716565b96505060406128bd8a828b0161277f565b95505060606128ce8a828b0161277f565b94505060806128df8a828b016127a9565b93505060a06128f08a828b0161272b565b92505060c06129018a828b0161272b565b91505092959891949750929550565b6000806040838503121561292357600080fd5b600061293185828601612716565b92505060206129428582860161277f565b9150509250929050565b60006020828403121561295e57600080fd5b600061296c84828501612740565b91505092915050565b60008060006060848603121561298a57600080fd5b600084013567ffffffffffffffff8111156129a457600080fd5b6129b086828701612755565b935050602084013567ffffffffffffffff8111156129cd57600080fd5b6129d986828701612755565b92505060406129ea86828701612740565b9150509250925092565b600060208284031215612a0657600080fd5b6000612a148482850161277f565b91505092915050565b600060208284031215612a2f57600080fd5b6000612a3d84828501612794565b91505092915050565b612a4f8161344d565b82525050565b612a5e8161345f565b82525050565b612a6d8161346b565b82525050565b612a84612a7f8261346b565b613587565b82525050565b612a93816134be565b82525050565b6000612aa482613311565b612aae818561331c565b9350612abe8185602086016134f1565b612ac78161364d565b840191505092915050565b6000612add82613311565b612ae7818561332d565b9350612af78185602086016134f1565b80840191505092915050565b6000612b1060188361331c565b9150612b1b8261365e565b602082019050919050565b6000612b3360218361331c565b9150612b3e82613687565b604082019050919050565b6000612b56601f8361331c565b9150612b61826136d6565b602082019050919050565b6000612b79601e8361331c565b9150612b84826136ff565b602082019050919050565b6000612b9c601a8361331c565b9150612ba782613728565b602082019050919050565b6000612bbf60268361331c565b9150612bca82613751565b604082019050919050565b6000612be260178361331c565b9150612bed826137a0565b602082019050919050565b6000612c0560028361332d565b9150612c10826137c9565b600282019050919050565b6000612c28601d8361331c565b9150612c33826137f2565b602082019050919050565b6000612c4b60228361331c565b9150612c568261381b565b604082019050919050565b6000612c6e601e8361331c565b9150612c798261386a565b602082019050919050565b6000612c9160078361332d565b9150612c9c82613893565b600782019050919050565b6000612cb4602e8361331c565b9150612cbf826138bc565b604082019050919050565b6000612cd760228361331c565b9150612ce28261390b565b604082019050919050565b6000612cfa601c8361331c565b9150612d058261395a565b602082019050919050565b6000612d1d601b8361331c565b9150612d2882613983565b602082019050919050565b6000612d40601e8361331c565b9150612d4b826139ac565b602082019050919050565b6000612d6360208361331c565b9150612d6e826139d5565b602082019050919050565b6000612d86601f8361331c565b9150612d91826139fe565b602082019050919050565b6000612da960018361332d565b9150612db482613a27565b600182019050919050565b6000612dcc60198361331c565b9150612dd782613a50565b602082019050919050565b6000612def60188361331c565b9150612dfa82613a79565b602082019050919050565b612e0e816134a7565b82525050565b612e1d816134b1565b82525050565b6000612e2e82612bf8565b9150612e3a8285612a73565b602082019150612e4a8284612a73565b6020820191508190509392505050565b6000612e6582612c84565b9150612e718284612ad2565b915081905092915050565b6000612e8782612d9c565b9150612e938284612ad2565b915081905092915050565b6000602082019050612eb36000830184612a46565b92915050565b6000602082019050612ece6000830184612a55565b92915050565b6000602082019050612ee96000830184612a64565b92915050565b600060c082019050612f046000830189612a64565b612f116020830188612a46565b612f1e6040830187612a46565b612f2b6060830186612e05565b612f386080830185612e05565b612f4560a0830184612e05565b979650505050505050565b600060a082019050612f656000830188612a64565b612f726020830187612a64565b612f7f6040830186612a64565b612f8c6060830185612e05565b612f996080830184612a46565b9695505050505050565b6000608082019050612fb86000830187612a64565b612fc56020830186612e14565b612fd26040830185612a64565b612fdf6060830184612a64565b95945050505050565b6000602082019050612ffd6000830184612a8a565b92915050565b6000602082019050818103600083015261301d8184612a99565b905092915050565b6000602082019050818103600083015261303e81612b03565b9050919050565b6000602082019050818103600083015261305e81612b26565b9050919050565b6000602082019050818103600083015261307e81612b49565b9050919050565b6000602082019050818103600083015261309e81612b6c565b9050919050565b600060208201905081810360008301526130be81612b8f565b9050919050565b600060208201905081810360008301526130de81612bb2565b9050919050565b600060208201905081810360008301526130fe81612bd5565b9050919050565b6000602082019050818103600083015261311e81612c1b565b9050919050565b6000602082019050818103600083015261313e81612c3e565b9050919050565b6000602082019050818103600083015261315e81612c61565b9050919050565b6000602082019050818103600083015261317e81612ca7565b9050919050565b6000602082019050818103600083015261319e81612cca565b9050919050565b600060208201905081810360008301526131be81612ced565b9050919050565b600060208201905081810360008301526131de81612d10565b9050919050565b600060208201905081810360008301526131fe81612d33565b9050919050565b6000602082019050818103600083015261321e81612d56565b9050919050565b6000602082019050818103600083015261323e81612d79565b9050919050565b6000602082019050818103600083015261325e81612dbf565b9050919050565b6000602082019050818103600083015261327e81612de2565b9050919050565b600060208201905061329a6000830184612e05565b92915050565b60006020820190506132b56000830184612e14565b92915050565b60006132c56132d6565b90506132d18282613556565b919050565b6000604051905090565b600067ffffffffffffffff8211156132fb576132fa61361e565b5b6133048261364d565b9050602081019050919050565b600081519050919050565b600082825260208201905092915050565b600081905092915050565b6000613343826134a7565b915061334e836134a7565b9250827fffffffffffffffffffffffffffffffffffffffffffffffffffffffffffffffff0382111561338357613382613591565b5b828201905092915050565b6000613399826134a7565b91506133a4836134a7565b9250826133b4576133b36135c0565b5b828204905092915050565b60006133ca826134a7565b91506133d5836134a7565b9250817fffffffffffffffffffffffffffffffffffffffffffffffffffffffffffffffff048311821515161561340e5761340d613591565b5b828202905092915050565b6000613424826134a7565b915061342f836134a7565b92508282101561344257613441613591565b5b828203905092915050565b600061345882613487565b9050919050565b60008115159050919050565b6000819050919050565b60006134808261344d565b9050919050565b600073ffffffffffffffffffffffffffffffffffffffff82169050919050565b6000819050919050565b600060ff82169050919050565b60006134c9826134d0565b9050919050565b60006134db82613487565b9050919050565b82818337600083830152505050565b60005b8381101561350f5780820151818401526020810190506134f4565b8381111561351e576000848401525b50505050565b6000600282049050600182168061353c57607f821691505b602082108114156135505761354f6135ef565b5b50919050565b61355f8261364d565b810181811067ffffffffffffffff8211171561357e5761357d61361e565b5b80604052505050565b6000819050919050565b7f4e487b7100000000000000000000000000000000000000000000000000000000600052601160045260246000fd5b7f4e487b7100000000000000000000000000000000000000000000000000000000600052601260045260246000fd5b7f4e487b7100000000000000000000000000000000000000000000000000000000600052602260045260246000fd5b7f4e487b7100000000000000000000000000000000000000000000000000000000600052604160045260246000fd5b6000601f19601f8301169050919050565b7f45434453413a20696e76616c6964207369676e61747572650000000000000000600082015250565b7f5452414e534645525f414d4f554e545f455843454544535f414c4c4f57414e4360008201527f4500000000000000000000000000000000000000000000000000000000000000602082015250565b7f45434453413a20696e76616c6964207369676e6174757265206c656e67746800600082015250565b7f5452414e534645525f46524f4d5f5448455f5a45524f5f414444524553530000600082015250565b7f4255524e5f46524f4d5f5448455f5a45524f5f41444452455353000000000000600082015250565b7f4f776e61626c653a206e6577206f776e657220697320746865207a65726f206160008201527f6464726573730000000000000000000000000000000000000000000000000000602082015250565b7f415050524f56455f544f5f5a45524f5f41444452455353000000000000000000600082015250565b7f1901000000000000000000000000000000000000000000000000000000000000600082015250565b7f45524332305065726d69743a206578706972656420646561646c696e65000000600082015250565b7f45434453413a20696e76616c6964207369676e6174757265202773272076616c60008201527f7565000000000000000000000000000000000000000000000000000000000000602082015250565b7f4445435245415345445f414c4c4f57414e43455f42454c4f575f5a45524f0000600082015250565b7f74656e6465722000000000000000000000000000000000000000000000000000600082015250565b7f496e697469616c697a61626c653a20636f6e747261637420697320616c72656160008201527f647920696e697469616c697a6564000000000000000000000000000000000000602082015250565b7f45434453413a20696e76616c6964207369676e6174757265202776272076616c60008201527f7565000000000000000000000000000000000000000000000000000000000000602082015250565b7f5452414e534645525f544f5f5448455f5a45524f5f4144445245535300000000600082015250565b7f4255524e5f414d4f554e545f455843454544535f42414c414e43450000000000600082015250565b7f45524332305065726d69743a20696e76616c6964207369676e61747572650000600082015250565b7f4f776e61626c653a2063616c6c6572206973206e6f7420746865206f776e6572600082015250565b7f5452414e534645525f414d4f554e545f455843454544535f42414c414e434500600082015250565b7f7400000000000000000000000000000000000000000000000000000000000000600082015250565b7f415050524f56455f46524f4d5f5a45524f5f4144445245535300000000000000600082015250565b7f4d494e545f544f5f5448455f5a45524f5f414444524553530000000000000000600082015250565b613aab8161344d565b8114613ab657600080fd5b50565b613ac28161346b565b8114613acd57600080fd5b50565b613ad981613475565b8114613ae457600080fd5b50565b613af0816134a7565b8114613afb57600080fd5b50565b613b07816134b1565b8114613b1257600080fd5b5056fea26469706673582212208ddc692d830446bc45ea3672b6cc369fa704f8ffad723c656f87d6d80358d94664736f6c63430008040033",
  "devdoc": {
    "author": "Tenderize <info@tenderize.me>",
    "details": "TenderToken balances are dynamic and are calculated based on the accounts' shares and the total amount of Tokens controlled by the protocol. Account shares aren't normalized, so the contract also stores the sum of all shares to calculate each account's token balance which equals to: shares[account] * _getTotalPooledTokens() / _getTotalShares()",
    "kind": "dev",
    "methods": {
      "DOMAIN_SEPARATOR()": {
        "details": "See {IERC20Permit-DOMAIN_SEPARATOR}."
      },
      "allowance(address,address)": {
        "details": "This value changes when `approve` or `transferFrom` is called.",
        "params": {
          "_owner": "address that approved the allowance",
          "_spender": "address that is allowed to spend the allowance"
        },
        "returns": {
          "_0": "allowance amount '_spender' is allowed to spend from '_owner'"
        }
      },
      "approve(address,uint256)": {
        "details": "Emits an `Approval` event.Requirements: - `_spender` cannot be the zero address.The `_amount` argument is the amount of tokens, not shares.",
        "params": {
          "_amount": "amount of tokens to allow '_spender' to spend",
          "_spender": "address of the spender allowed to approve tokens from caller"
        },
        "returns": {
          "_0": "success a boolean value indicating whether the operation succeeded."
        }
      },
      "balanceOf(address)": {
        "details": "Balances are dynamic and equal the `_account`'s share in the amount of the total Tokens controlled by the protocol. See `sharesOf`.",
        "params": {
          "_account": "address of the account to check the balance for"
        },
        "returns": {
          "_0": "balance token balance of `_account`"
        }
      },
      "burn(address,uint256)": {
        "details": "Only callable by contract ownerCalculates the amount of shares to destroy based on the specified '_amount' and destroy shares rather than burning tokens'_recipient' should also withdraw from Tenderizer atomically",
        "params": {
          "_account": "address to burn the tokens from",
          "_amount": "amount to burn"
        },
        "returns": {
          "_0": "success a boolean value indicating whether the operation succeeded."
        }
      },
      "decimals()": {
        "returns": {
          "_0": "decimals the number of decimals for getting user representation of a token amount."
        }
      },
      "decreaseAllowance(address,uint256)": {
        "details": "This is an alternative to `approve` that can be used as a mitigation for problems described in: https://github.com/OpenZeppelin/openzeppelin-contracts/blob/master/contracts/token/ERC20/IERC20.sol#L42Emits an `Approval` event indicating the updated allowance.Requirements: - `_spender` cannot be the zero address. - `_spender` must have allowance for the caller of at least `_subtractedValue`.",
        "params": {
          "_spender": "address of the spender allowed to approve tokens from caller",
          "_subtractedValue": "amount to subtract from current allowance"
        },
        "returns": {
          "_0": "success a boolean value indicating whether the operation succeeded."
        }
      },
      "getTotalPooledTokens()": {
        "details": "The sum of all Tokens balances in the protocol, equals to the total supply of TenderToken.",
        "returns": {
          "_0": "totalPooledTokens total amount of pooled tokens"
        }
      },
      "getTotalShares()": {
        "details": "The sum of all accounts' shares can be an arbitrary number, therefore it is necessary to store it in order to calculate each account's relative share.",
        "returns": {
          "_0": "totalShares total amount of shares"
        }
      },
      "increaseAllowance(address,uint256)": {
        "details": "This is an alternative to `approve` that can be used as a mitigation for problems described in: https://github.com/OpenZeppelin/openzeppelin-contracts/blob/master/contracts/token/ERC20/IERC20.sol#L42Emits an `Approval` event indicating the updated allowance.Requirements: - `_spender` cannot be the the zero address.",
        "params": {
          "_addedValue": "amount to add to allowance",
          "_spender": "address of the spender allowed to approve tokens from caller"
        },
        "returns": {
          "_0": "success a boolean value indicating whether the operation succeeded."
        }
      },
      "initialize(string,string,address)": {
        "params": {
          "_name": "name of the token (steak)",
          "_stakedReader": "contract address implementing the ITotalStakedReader interface",
          "_symbol": "symbol of the token (steak)"
        },
        "returns": {
          "_0": "a boolean value indicating whether the init succeeded."
        }
      },
      "mint(address,uint256)": {
        "details": "Only callable by contract ownerCalculates the amount of shares to create based on the specified '_amount' and creates new shares rather than minting actual tokens'_recipient' should also deposit into Tenderizer atomically to prevent diluation of existing particpants",
        "params": {
          "_amount": "amount to mint",
          "_recipient": "address to mint tokens for"
        },
        "returns": {
          "_0": "success a boolean value indicating whether the operation succeeded."
        }
      },
      "name()": {
        "details": "Returns the name of the token."
      },
      "nonces(address)": {
        "details": "See {IERC20Permit-nonces}."
      },
      "owner()": {
        "details": "Returns the address of the current owner."
      },
      "permit(address,address,uint256,uint256,uint8,bytes32,bytes32)": {
        "details": "See {IERC20Permit-permit}."
      },
      "renounceOwnership()": {
        "details": "Leaves the contract without owner. It will not be possible to call `onlyOwner` functions anymore. Can only be called by the current owner. NOTE: Renouncing ownership will leave the contract without an owner, thereby removing any functionality that is only available to the owner."
      },
      "setTotalStakedReader(address)": {
        "details": "Only callable by contract owner.Used to determine TenderToken total supply.",
        "params": {
          "_stakedReader": "contract address implementing the ITotalStakedReader interface"
        }
      },
      "sharesOf(address)": {
        "params": {
          "_account": "address of the account"
        },
        "returns": {
          "_0": "shares the amount of shares owned by `_account`."
        }
      },
      "sharesToTokens(uint256)": {
        "params": {
          "_shares": "the amount of shares to calculate the amount of tokens for"
        },
        "returns": {
          "_0": "tokens the amount of tokens represented by the shares"
        }
      },
      "symbol()": {
        "details": "Returns the symbol of the token, usually a shorter version of the name."
      },
      "tokensToShares(uint256)": {
        "params": {
          "_tokens": "amount of tokens to calculate shares for"
        },
        "returns": {
          "_0": "shares nominal amount of shares the tokens represent"
        }
      },
      "totalSupply()": {
        "details": "Always equals to `_getTotalPooledTokens()` since token amount is pegged to the total amount of Tokens controlled by the protocol.",
        "returns": {
          "_0": "totalSupply total supply"
        }
      },
      "transfer(address,uint256)": {
        "details": "Emits a `Transfer` event.Requirements: - `_recipient` cannot be the zero address. - the caller must have a balance of at least `_amount`.The `_amount` argument is the amount of tokens, not shares.",
        "params": {
          "_amount": "amount of tokens to transfer",
          "_recipient": "address of the recipient"
        },
        "returns": {
          "_0": "success a boolean value indicating whether the operation succeeded."
        }
      },
      "transferFrom(address,address,uint256)": {
        "details": "Emits a `Transfer` event.Emits an `Approval` event indicating the updated allowance.Requirements: - `_sender` and `_recipient` cannot be the zero addresses. - `_sender` must have a balance of at least `_amount`. - the caller must have allowance for `_sender`'s tokens of at least `_amount`.The `_amount` argument is the amount of tokens, not shares.",
        "params": {
          "_recipient": "address of the recipient",
          "_sender": "address of the account to transfer tokens from"
        },
        "returns": {
          "_0": "success a boolean value indicating whether the operation succeeded."
        }
      },
      "transferOwnership(address)": {
        "details": "Transfers ownership of the contract to a new account (`newOwner`). Can only be called by the current owner."
      }
    },
    "stateVariables": {
      "allowances": {
        "details": "Allowances nominated in tokens, not token shares."
      },
      "shares": {
        "details": "Nominal amount of shares held by each account"
      },
      "totalShares": {
        "details": "Total amount of outstanding shares"
      },
      "totalStakedReader": {
        "details": "Tenderizer address, to read total staked tokens"
      }
    },
    "title": "Interest-bearing ERC20-like token for Tenderize protocol.",
    "version": 1
  },
  "userdoc": {
    "kind": "user",
    "methods": {
      "allowance(address,address)": {
        "notice": "The remaining number of tokens that `_spender` is allowed to spend behalf of `_owner` through `transferFrom`. This is zero by default."
      },
      "approve(address,uint256)": {
        "notice": "Sets `_amount` as the allowance of `_spender` over the caller's tokens."
      },
      "balanceOf(address)": {
        "notice": "the amount of tokens owned by the `_account`."
      },
      "burn(address,uint256)": {
        "notice": "Burns '_amount' of tokens from '_recipient'"
      },
      "decimals()": {
        "notice": "The number of decimals the TenderToken uses."
      },
      "decreaseAllowance(address,uint256)": {
        "notice": "Atomically decreases the allowance granted to `_spender` by the caller by `_subtractedValue`."
      },
      "getTotalPooledTokens()": {
        "notice": "Total amount of underlying tokens controlled by the Tenderizer."
      },
      "getTotalShares()": {
        "notice": "The total amount of shares in existence."
      },
      "increaseAllowance(address,uint256)": {
        "notice": "Atomically increases the allowance granted to `_spender` by the caller by `_addedValue`."
      },
      "initialize(string,string,address)": {
        "notice": "Initilize the TenderToken Contract"
      },
      "mint(address,uint256)": {
        "notice": "Mints '_amount' of tokens for '_recipient'"
      },
      "setTotalStakedReader(address)": {
        "notice": "sets a TotalStakedReader to read the total staked tokens from"
      },
      "sharesOf(address)": {
        "notice": "The amount of shares owned by an account"
      },
      "sharesToTokens(uint256)": {
        "notice": "The amount of tokens that corresponds to `_shares` token shares."
      },
      "tokensToShares(uint256)": {
        "notice": "The amount of shares that corresponds to `_tokens` protocol-controlled Tokens."
      },
      "totalSupply()": {
        "notice": "The total supply of tender tokens in existence."
      },
      "transfer(address,uint256)": {
        "notice": "Transfers `_amount` tokens from the caller's account to the `_recipient` account."
      },
      "transferFrom(address,address,uint256)": {
        "notice": "Transfers `_amount` tokens from `_sender` to `_recipient` using the allowance mechanism. `_amount` is then deducted from the caller's allowance."
      }
    },
    "version": 1
  },
  "storageLayout": {
    "storage": [
      {
        "astId": 130,
        "contract": "contracts/token/TenderToken.sol:TenderToken",
        "label": "_initialized",
        "offset": 0,
        "slot": "0",
        "type": "t_bool"
      },
      {
        "astId": 133,
        "contract": "contracts/token/TenderToken.sol:TenderToken",
        "label": "_initializing",
        "offset": 1,
        "slot": "0",
        "type": "t_bool"
      },
      {
        "astId": 1267,
        "contract": "contracts/token/TenderToken.sol:TenderToken",
        "label": "__gap",
        "offset": 0,
        "slot": "1",
        "type": "t_array(t_uint256)50_storage"
      },
      {
        "astId": 10,
        "contract": "contracts/token/TenderToken.sol:TenderToken",
        "label": "_owner",
        "offset": 0,
        "slot": "51",
        "type": "t_address"
      },
      {
        "astId": 123,
        "contract": "contracts/token/TenderToken.sol:TenderToken",
        "label": "__gap",
        "offset": 0,
        "slot": "52",
        "type": "t_array(t_uint256)49_storage"
      },
      {
        "astId": 247,
        "contract": "contracts/token/TenderToken.sol:TenderToken",
        "label": "_balances",
        "offset": 0,
        "slot": "101",
        "type": "t_mapping(t_address,t_uint256)"
      },
      {
        "astId": 253,
        "contract": "contracts/token/TenderToken.sol:TenderToken",
        "label": "_allowances",
        "offset": 0,
        "slot": "102",
        "type": "t_mapping(t_address,t_mapping(t_address,t_uint256))"
      },
      {
        "astId": 255,
        "contract": "contracts/token/TenderToken.sol:TenderToken",
        "label": "_totalSupply",
        "offset": 0,
        "slot": "103",
        "type": "t_uint256"
      },
      {
        "astId": 257,
        "contract": "contracts/token/TenderToken.sol:TenderToken",
        "label": "_name",
        "offset": 0,
        "slot": "104",
        "type": "t_string_storage"
      },
      {
        "astId": 259,
        "contract": "contracts/token/TenderToken.sol:TenderToken",
        "label": "_symbol",
        "offset": 0,
        "slot": "105",
        "type": "t_string_storage"
      },
      {
        "astId": 800,
        "contract": "contracts/token/TenderToken.sol:TenderToken",
        "label": "__gap",
        "offset": 0,
        "slot": "106",
        "type": "t_array(t_uint256)45_storage"
      },
      {
        "astId": 1718,
        "contract": "contracts/token/TenderToken.sol:TenderToken",
        "label": "_HASHED_NAME",
        "offset": 0,
        "slot": "151",
        "type": "t_bytes32"
      },
      {
        "astId": 1720,
        "contract": "contracts/token/TenderToken.sol:TenderToken",
        "label": "_HASHED_VERSION",
        "offset": 0,
        "slot": "152",
        "type": "t_bytes32"
      },
      {
        "astId": 1857,
        "contract": "contracts/token/TenderToken.sol:TenderToken",
        "label": "__gap",
        "offset": 0,
        "slot": "153",
        "type": "t_array(t_uint256)50_storage"
      },
      {
        "astId": 1017,
        "contract": "contracts/token/TenderToken.sol:TenderToken",
        "label": "_nonces",
        "offset": 0,
        "slot": "203",
        "type": "t_mapping(t_address,t_struct(Counter)1274_storage)"
      },
      {
        "astId": 1019,
        "contract": "contracts/token/TenderToken.sol:TenderToken",
        "label": "_PERMIT_TYPEHASH",
        "offset": 0,
        "slot": "204",
        "type": "t_bytes32"
      },
      {
        "astId": 1187,
        "contract": "contracts/token/TenderToken.sol:TenderToken",
        "label": "__gap",
        "offset": 0,
        "slot": "205",
        "type": "t_array(t_uint256)49_storage"
      },
      {
        "astId": 15503,
        "contract": "contracts/token/TenderToken.sol:TenderToken",
        "label": "totalShares",
        "offset": 0,
        "slot": "254",
        "type": "t_uint256"
      },
      {
        "astId": 15508,
        "contract": "contracts/token/TenderToken.sol:TenderToken",
        "label": "shares",
        "offset": 0,
        "slot": "255",
        "type": "t_mapping(t_address,t_uint256)"
      },
      {
        "astId": 15515,
        "contract": "contracts/token/TenderToken.sol:TenderToken",
        "label": "allowances",
        "offset": 0,
        "slot": "256",
        "type": "t_mapping(t_address,t_mapping(t_address,t_uint256))"
      },
      {
        "astId": 15519,
        "contract": "contracts/token/TenderToken.sol:TenderToken",
        "label": "totalStakedReader",
        "offset": 0,
        "slot": "257",
        "type": "t_contract(ITotalStakedReader)5586"
      }
    ],
    "types": {
      "t_address": {
        "encoding": "inplace",
        "label": "address",
        "numberOfBytes": "20"
      },
      "t_array(t_uint256)45_storage": {
        "base": "t_uint256",
        "encoding": "inplace",
        "label": "uint256[45]",
        "numberOfBytes": "1440"
      },
      "t_array(t_uint256)49_storage": {
        "base": "t_uint256",
        "encoding": "inplace",
        "label": "uint256[49]",
        "numberOfBytes": "1568"
      },
      "t_array(t_uint256)50_storage": {
        "base": "t_uint256",
        "encoding": "inplace",
        "label": "uint256[50]",
        "numberOfBytes": "1600"
      },
      "t_bool": {
        "encoding": "inplace",
        "label": "bool",
        "numberOfBytes": "1"
      },
      "t_bytes32": {
        "encoding": "inplace",
        "label": "bytes32",
        "numberOfBytes": "32"
      },
      "t_contract(ITotalStakedReader)5586": {
        "encoding": "inplace",
        "label": "contract ITotalStakedReader",
        "numberOfBytes": "20"
      },
      "t_mapping(t_address,t_mapping(t_address,t_uint256))": {
        "encoding": "mapping",
        "key": "t_address",
        "label": "mapping(address => mapping(address => uint256))",
        "numberOfBytes": "32",
        "value": "t_mapping(t_address,t_uint256)"
      },
      "t_mapping(t_address,t_struct(Counter)1274_storage)": {
        "encoding": "mapping",
        "key": "t_address",
        "label": "mapping(address => struct CountersUpgradeable.Counter)",
        "numberOfBytes": "32",
        "value": "t_struct(Counter)1274_storage"
      },
      "t_mapping(t_address,t_uint256)": {
        "encoding": "mapping",
        "key": "t_address",
        "label": "mapping(address => uint256)",
        "numberOfBytes": "32",
        "value": "t_uint256"
      },
      "t_string_storage": {
        "encoding": "bytes",
        "label": "string",
        "numberOfBytes": "32"
      },
      "t_struct(Counter)1274_storage": {
        "encoding": "inplace",
        "label": "struct CountersUpgradeable.Counter",
        "members": [
          {
            "astId": 1273,
            "contract": "contracts/token/TenderToken.sol:TenderToken",
            "label": "_value",
            "offset": 0,
            "slot": "0",
            "type": "t_uint256"
          }
        ],
        "numberOfBytes": "32"
      },
      "t_uint256": {
        "encoding": "inplace",
        "label": "uint256",
        "numberOfBytes": "32"
      }
    }
  }
}