{
  "address": "0x7D84bcBAaf7a22f58103413fb5884b327D899449",
  "abi": [
    {
      "anonymous": false,
      "inputs": [
        {
          "indexed": true,
          "internalType": "address",
          "name": "from",
          "type": "address"
        },
        {
          "indexed": false,
          "internalType": "uint256",
          "name": "amount",
          "type": "uint256"
        }
      ],
      "name": "Deposit",
      "type": "event"
    },
    {
      "anonymous": false,
      "inputs": [
        {
          "indexed": false,
          "internalType": "string",
          "name": "param",
          "type": "string"
        },
        {
          "indexed": false,
          "internalType": "bytes",
          "name": "oldValue",
          "type": "bytes"
        },
        {
          "indexed": false,
          "internalType": "bytes",
          "name": "newValue",
          "type": "bytes"
        }
      ],
      "name": "GovernanceUpdate",
      "type": "event"
    },
    {
      "anonymous": false,
      "inputs": [
        {
          "indexed": false,
          "internalType": "uint256",
          "name": "amount",
          "type": "uint256"
        }
      ],
      "name": "LiquidityFeeCollected",
      "type": "event"
    },
    {
      "anonymous": false,
      "inputs": [
        {
          "indexed": false,
          "internalType": "uint256",
          "name": "amount",
          "type": "uint256"
        }
      ],
      "name": "ProtocolFeeCollected",
      "type": "event"
    },
    {
      "anonymous": false,
      "inputs": [
        {
          "indexed": false,
          "internalType": "int256",
          "name": "stakeDiff",
          "type": "int256"
        },
        {
          "indexed": false,
          "internalType": "uint256",
          "name": "currentPrincipal",
          "type": "uint256"
        },
        {
          "indexed": false,
          "internalType": "uint256",
          "name": "oldPrincipal",
          "type": "uint256"
        }
      ],
      "name": "RewardsClaimed",
      "type": "event"
    },
    {
      "anonymous": false,
      "inputs": [
        {
          "indexed": true,
          "internalType": "address",
          "name": "node",
          "type": "address"
        },
        {
          "indexed": false,
          "internalType": "uint256",
          "name": "amount",
          "type": "uint256"
        }
      ],
      "name": "Stake",
      "type": "event"
    },
    {
      "anonymous": false,
      "inputs": [
        {
          "indexed": true,
          "internalType": "address",
          "name": "from",
          "type": "address"
        },
        {
          "indexed": true,
          "internalType": "address",
          "name": "node",
          "type": "address"
        },
        {
          "indexed": false,
          "internalType": "uint256",
          "name": "amount",
          "type": "uint256"
        },
        {
          "indexed": false,
          "internalType": "uint256",
          "name": "unstakeLockID",
          "type": "uint256"
        }
      ],
      "name": "Unstake",
      "type": "event"
    },
    {
      "anonymous": false,
      "inputs": [
        {
          "indexed": true,
          "internalType": "address",
          "name": "from",
          "type": "address"
        },
        {
          "indexed": false,
          "internalType": "uint256",
          "name": "amount",
          "type": "uint256"
        },
        {
          "indexed": false,
          "internalType": "uint256",
          "name": "unstakeLockID",
          "type": "uint256"
        }
      ],
      "name": "Withdraw",
      "type": "event"
    },
    {
      "inputs": [
        {
          "internalType": "uint256",
          "name": "_amountIn",
          "type": "uint256"
        }
      ],
      "name": "calcDepositOut",
      "outputs": [
        {
          "internalType": "uint256",
          "name": "",
          "type": "uint256"
        }
      ],
      "stateMutability": "view",
      "type": "function"
    },
    {
      "inputs": [],
      "name": "claimRewards",
      "outputs": [],
      "stateMutability": "nonpayable",
      "type": "function"
    },
    {
      "inputs": [],
      "name": "currentPrincipal",
      "outputs": [
        {
          "internalType": "uint256",
          "name": "",
          "type": "uint256"
        }
      ],
      "stateMutability": "view",
      "type": "function"
    },
    {
      "inputs": [
        {
          "internalType": "uint256",
          "name": "_amount",
          "type": "uint256"
        }
      ],
      "name": "deposit",
      "outputs": [],
      "stateMutability": "nonpayable",
      "type": "function"
    },
    {
      "inputs": [
        {
          "internalType": "uint256",
          "name": "_amount",
          "type": "uint256"
        },
        {
          "internalType": "uint256",
          "name": "_deadline",
          "type": "uint256"
        },
        {
          "internalType": "uint8",
          "name": "_v",
          "type": "uint8"
        },
        {
          "internalType": "bytes32",
          "name": "_r",
          "type": "bytes32"
        },
        {
          "internalType": "bytes32",
          "name": "_s",
          "type": "bytes32"
        }
      ],
      "name": "depositWithPermit",
      "outputs": [],
      "stateMutability": "nonpayable",
      "type": "function"
    },
    {
      "inputs": [],
      "name": "gov",
      "outputs": [
        {
          "internalType": "address",
          "name": "",
          "type": "address"
        }
      ],
      "stateMutability": "view",
      "type": "function"
    },
    {
      "inputs": [
        {
          "internalType": "contract IERC20",
          "name": "_steak",
          "type": "address"
        },
        {
          "internalType": "string",
          "name": "_symbol",
          "type": "string"
        },
        {
          "internalType": "contract ILivepeer",
          "name": "_livepeer",
          "type": "address"
        },
        {
          "internalType": "address",
          "name": "_node",
          "type": "address"
        },
        {
          "internalType": "uint256",
          "name": "_protocolFee",
          "type": "uint256"
        },
        {
          "internalType": "uint256",
          "name": "_liquidityFee",
          "type": "uint256"
        },
        {
          "internalType": "contract ITenderToken",
          "name": "_tenderTokenTarget",
          "type": "address"
        },
        {
          "internalType": "contract TenderFarmFactory",
          "name": "_tenderFarmFactory",
          "type": "address"
        },
        {
          "internalType": "contract ITenderSwapFactory",
          "name": "_tenderSwapFactory",
          "type": "address"
        }
      ],
      "name": "initialize",
      "outputs": [],
      "stateMutability": "nonpayable",
      "type": "function"
    },
    {
      "inputs": [],
      "name": "liquidityFee",
      "outputs": [
        {
          "internalType": "uint256",
          "name": "",
          "type": "uint256"
        }
      ],
      "stateMutability": "view",
      "type": "function"
    },
    {
      "inputs": [],
      "name": "node",
      "outputs": [
        {
          "internalType": "address",
          "name": "",
          "type": "address"
        }
      ],
      "stateMutability": "view",
      "type": "function"
    },
    {
      "inputs": [],
      "name": "protocolFee",
      "outputs": [
        {
          "internalType": "uint256",
          "name": "",
          "type": "uint256"
        }
      ],
      "stateMutability": "view",
      "type": "function"
    },
    {
      "inputs": [],
      "name": "rescueUnlock",
      "outputs": [
        {
          "internalType": "uint256",
          "name": "",
          "type": "uint256"
        }
      ],
      "stateMutability": "nonpayable",
      "type": "function"
    },
    {
      "inputs": [
        {
          "internalType": "uint256",
          "name": "_unstakeLockID",
          "type": "uint256"
        }
      ],
      "name": "rescueWithdraw",
      "outputs": [],
      "stateMutability": "nonpayable",
      "type": "function"
    },
    {
      "inputs": [
        {
          "internalType": "address",
          "name": "_token",
          "type": "address"
        },
        {
          "internalType": "uint256",
          "name": "_value",
          "type": "uint256"
        },
        {
          "internalType": "uint256",
          "name": "_deadline",
          "type": "uint256"
        },
        {
          "internalType": "uint8",
          "name": "_v",
          "type": "uint8"
        },
        {
          "internalType": "bytes32",
          "name": "_r",
          "type": "bytes32"
        },
        {
          "internalType": "bytes32",
          "name": "_s",
          "type": "bytes32"
        }
      ],
      "name": "selfPermit",
      "outputs": [],
      "stateMutability": "payable",
      "type": "function"
    },
    {
      "inputs": [
        {
          "internalType": "address",
          "name": "_token",
          "type": "address"
        },
        {
          "internalType": "uint256",
          "name": "_value",
          "type": "uint256"
        },
        {
          "internalType": "uint256",
          "name": "_deadline",
          "type": "uint256"
        },
        {
          "internalType": "uint8",
          "name": "_v",
          "type": "uint8"
        },
        {
          "internalType": "bytes32",
          "name": "_r",
          "type": "bytes32"
        },
        {
          "internalType": "bytes32",
          "name": "_s",
          "type": "bytes32"
        }
      ],
      "name": "selfPermitIfNecessary",
      "outputs": [],
      "stateMutability": "payable",
      "type": "function"
    },
    {
      "inputs": [
        {
          "internalType": "address",
          "name": "_gov",
          "type": "address"
        }
      ],
      "name": "setGov",
      "outputs": [],
      "stateMutability": "nonpayable",
      "type": "function"
    },
    {
      "inputs": [
        {
          "internalType": "uint256",
          "name": "_liquidityFee",
          "type": "uint256"
        }
      ],
      "name": "setLiquidityFee",
      "outputs": [],
      "stateMutability": "nonpayable",
      "type": "function"
    },
    {
      "inputs": [
        {
          "internalType": "address",
          "name": "_node",
          "type": "address"
        }
      ],
      "name": "setNode",
      "outputs": [],
      "stateMutability": "nonpayable",
      "type": "function"
    },
    {
      "inputs": [
        {
          "internalType": "uint256",
          "name": "_protocolFee",
          "type": "uint256"
        }
      ],
      "name": "setProtocolFee",
      "outputs": [],
      "stateMutability": "nonpayable",
      "type": "function"
    },
    {
      "inputs": [
        {
          "internalType": "address",
          "name": "_stakingContract",
          "type": "address"
        }
      ],
      "name": "setStakingContract",
      "outputs": [],
      "stateMutability": "nonpayable",
      "type": "function"
    },
    {
      "inputs": [
        {
          "internalType": "contract IERC20",
          "name": "_steak",
          "type": "address"
        }
      ],
      "name": "setSteak",
      "outputs": [],
      "stateMutability": "nonpayable",
      "type": "function"
    },
    {
      "inputs": [
        {
          "internalType": "contract ITenderFarm",
          "name": "_tenderFarm",
          "type": "address"
        }
      ],
      "name": "setTenderFarm",
      "outputs": [],
      "stateMutability": "nonpayable",
      "type": "function"
    },
    {
      "inputs": [
        {
          "internalType": "address",
          "name": "_uniswapRouter",
          "type": "address"
        }
      ],
      "name": "setUniswapRouter",
      "outputs": [],
      "stateMutability": "nonpayable",
      "type": "function"
    },
    {
      "inputs": [
        {
          "internalType": "uint256",
          "name": "_amount",
          "type": "uint256"
        }
      ],
      "name": "stake",
      "outputs": [],
      "stateMutability": "nonpayable",
      "type": "function"
    },
    {
      "inputs": [],
      "name": "steak",
      "outputs": [
        {
          "internalType": "contract IERC20",
          "name": "",
          "type": "address"
        }
      ],
      "stateMutability": "view",
      "type": "function"
    },
    {
      "inputs": [],
      "name": "tenderFarm",
      "outputs": [
        {
          "internalType": "contract ITenderFarm",
          "name": "",
          "type": "address"
        }
      ],
      "stateMutability": "view",
      "type": "function"
    },
    {
      "inputs": [],
      "name": "tenderSwap",
      "outputs": [
        {
          "internalType": "contract ITenderSwap",
          "name": "",
          "type": "address"
        }
      ],
      "stateMutability": "view",
      "type": "function"
    },
    {
      "inputs": [],
      "name": "tenderToken",
      "outputs": [
        {
          "internalType": "contract ITenderToken",
          "name": "",
          "type": "address"
        }
      ],
      "stateMutability": "view",
      "type": "function"
    },
    {
      "inputs": [],
      "name": "totalStakedTokens",
      "outputs": [
        {
          "internalType": "uint256",
          "name": "",
          "type": "uint256"
        }
      ],
      "stateMutability": "view",
      "type": "function"
    },
    {
      "inputs": [],
      "name": "uniswapRouter",
      "outputs": [
        {
          "internalType": "contract ISwapRouterWithWETH",
          "name": "",
          "type": "address"
        }
      ],
      "stateMutability": "view",
      "type": "function"
    },
    {
      "inputs": [
        {
          "internalType": "uint256",
          "name": "_amount",
          "type": "uint256"
        }
      ],
      "name": "unstake",
      "outputs": [
        {
          "internalType": "uint256",
          "name": "",
          "type": "uint256"
        }
      ],
      "stateMutability": "nonpayable",
      "type": "function"
    },
    {
      "inputs": [
        {
          "internalType": "uint256",
          "name": "_unstakeLockID",
          "type": "uint256"
        }
      ],
      "name": "withdraw",
      "outputs": [],
      "stateMutability": "nonpayable",
      "type": "function"
    }
  ],
  "transactionHash": "0x5cb98ef9c3594616c9c3fd98fd0e8f6a89f6ac8409987f1ca6e85c60f83918d7",
  "args": [],
  "numDeployments": 1,
  "solcInputHash": "19276debf674c1c1df901d1bc8945ee1",
  "bytecode": "0x608060405234801561001057600080fd5b5061559380620000216000396000f3fe6080604052600436106101d85760003560e01c806398118cb411610102578063c21d5ab711610095578063ec6d80f611610064578063ec6d80f61461064f578063f3995c6714610678578063f4d95a7114610694578063fbdfc961146106bf576101d8565b8063c21d5ab7146105b6578063c2e3140a146105df578063cfad57a2146105fb578063d70754ec14610624576101d8565b8063afef75d2116100d1578063afef75d214610510578063b0e21e8a14610539578063b6b55f2514610564578063bea9849e1461058d576101d8565b806398118cb4146104685780639dd373b914610493578063a26a546b146104bc578063a694fc3a146104e7576101d8565b80633ae732591161017a5780636f190315116101495780636f190315146103ac578063735de9f7146103d7578063787dce3d146104025780637cb0c2751461042b576101d8565b80633ae73259146103045780634a970be71461032f57806351c669c0146103585780636991bc7714610383576101d8565b80632e1a7d4d116101b65780632e1a7d4d14610270578063357bf15c1461029957806336a30f44146102c2578063372500ab146102ed576101d8565b806312d43a51146101dd5780632d822160146102085780632e17de7814610233575b600080fd5b3480156101e957600080fd5b506101f26106e8565b6040516101ff9190614484565b60405180910390f35b34801561021457600080fd5b5061021d61070e565b60405161022a9190614655565b60405180910390f35b34801561023f57600080fd5b5061025a60048036038101906102559190613ce5565b610734565b6040516102679190614ab2565b60405180910390f35b34801561027c57600080fd5b5061029760048036038101906102929190613ce5565b6108b9565b005b3480156102a557600080fd5b506102c060048036038101906102bb9190613ce5565b6108c6565b005b3480156102ce57600080fd5b506102d76109ef565b6040516102e49190614ab2565b60405180910390f35b3480156102f957600080fd5b50610302610a7f565b005b34801561031057600080fd5b50610319610a89565b6040516103269190614ab2565b60405180910390f35b34801561033b57600080fd5b5061035660048036038101906103519190613d37565b610a98565b005b34801561036457600080fd5b5061036d610ad9565b60405161037a9190614ab2565b60405180910390f35b34801561038f57600080fd5b506103aa60048036038101906103a59190613ce5565b610adf565b005b3480156103b857600080fd5b506103c1610b46565b6040516103ce9190614597565b60405180910390f35b3480156103e357600080fd5b506103ec610b6c565b6040516103f99190614604565b60405180910390f35b34801561040e57600080fd5b5061042960048036038101906104249190613ce5565b610b92565b005b34801561043757600080fd5b50610452600480360381019061044d9190613ce5565b610cbb565b60405161045f9190614ab2565b60405180910390f35b34801561047457600080fd5b5061047d610ccd565b60405161048a9190614ab2565b60405180910390f35b34801561049f57600080fd5b506104ba60048036038101906104b59190613a31565b610cd3565b005b3480156104c857600080fd5b506104d1610d39565b6040516104de919061463a565b60405180910390f35b3480156104f357600080fd5b5061050e60048036038101906105099190613ce5565b610d5f565b005b34801561051c57600080fd5b5061053760048036038101906105329190613b35565b610dc5565b005b34801561054557600080fd5b5061054e610efc565b60405161055b9190614ab2565b60405180910390f35b34801561057057600080fd5b5061058b60048036038101906105869190613ce5565b610f02565b005b34801561059957600080fd5b506105b460048036038101906105af9190613a31565b610f0f565b005b3480156105c257600080fd5b506105dd60048036038101906105d89190613a31565b61108f565b005b6105f960048036038101906105f49190613a83565b6111c6565b005b34801561060757600080fd5b50610622600480360381019061061d9190613a31565b611280565b005b34801561063057600080fd5b506106396113b7565b6040516106469190614484565b60405180910390f35b34801561065b57600080fd5b5061067660048036038101906106719190613b5e565b6113dd565b005b610692600480360381019061068d9190613a83565b61147e565b005b3480156106a057600080fd5b506106a96114fd565b6040516106b6919061461f565b60405180910390f35b3480156106cb57600080fd5b506106e660048036038101906106e19190613c41565b611523565b005b600860009054906101000a900473ffffffffffffffffffffffffffffffffffffffff1681565b600160009054906101000a900473ffffffffffffffffffffffffffffffffffffffff1681565b6000808211610778576040517f08c379a000000000000000000000000000000000000000000000000000000000815260040161076f90614960565b60405180910390fd5b600160009054906101000a900473ffffffffffffffffffffffffffffffffffffffff1673ffffffffffffffffffffffffffffffffffffffff16639dc29fac33846040518363ffffffff1660e01b81526004016107d592919061456e565b602060405180830381600087803b1580156107ef57600080fd5b505af1158015610803573d6000803e3d6000fd5b505050506040513d601f19601f820116820180604052508101906108279190613b0c565b610866576040517f08c379a000000000000000000000000000000000000000000000000000000000815260040161085d9061470e565b60405180910390fd5b600061089533600460009054906101000a900473ffffffffffffffffffffffffffffffffffffffff168561165a565b905082600760008282546108a99190614cf3565b9250508190555080915050919050565b6108c33382611774565b50565b600860009054906101000a900473ffffffffffffffffffffffffffffffffffffffff1673ffffffffffffffffffffffffffffffffffffffff163373ffffffffffffffffffffffffffffffffffffffff161461092057600080fd5b681b1ae4d6e2ef50000081111561096c576040517f08c379a000000000000000000000000000000000000000000000000000000000815260040161096390614778565b60405180910390fd5b7f5555cb3612e5f2fc327f8394a162756a3cca8144f95b4dcfb4ee29320c7992d36006546040516020016109a09190614ab2565b604051602081830303815290604052826040516020016109c09190614ab2565b6040516020818303038152906040526040516109dd929190614a0a565b60405180910390a18060068190555050565b6000600860009054906101000a900473ffffffffffffffffffffffffffffffffffffffff1673ffffffffffffffffffffffffffffffffffffffff163373ffffffffffffffffffffffffffffffffffffffff1614610a4b57600080fd5b610a7a30600460009054906101000a900473ffffffffffffffffffffffffffffffffffffffff1660075461165a565b905090565b610a876118bd565b565b6000610a93611a31565b905090565b610ac8600060029054906101000a900473ffffffffffffffffffffffffffffffffffffffff16868686868661147e565b610ad23386611a3b565b5050505050565b60075481565b600860009054906101000a900473ffffffffffffffffffffffffffffffffffffffff1673ffffffffffffffffffffffffffffffffffffffff163373ffffffffffffffffffffffffffffffffffffffff1614610b3957600080fd5b610b433082611774565b50565b600060029054906101000a900473ffffffffffffffffffffffffffffffffffffffff1681565b600a60009054906101000a900473ffffffffffffffffffffffffffffffffffffffff1681565b600860009054906101000a900473ffffffffffffffffffffffffffffffffffffffff1673ffffffffffffffffffffffffffffffffffffffff163373ffffffffffffffffffffffffffffffffffffffff1614610bec57600080fd5b681b1ae4d6e2ef500000811115610c38576040517f08c379a0000000000000000000000000000000000000000000000000000000008152600401610c2f90614778565b60405180910390fd5b7f5555cb3612e5f2fc327f8394a162756a3cca8144f95b4dcfb4ee29320c7992d3600554604051602001610c6c9190614ab2565b60405160208183030381529060405282604051602001610c8c9190614ab2565b604051602081830303815290604052604051610ca9929190614916565b60405180910390a18060058190555050565b6000610cc682611bd7565b9050919050565b60065481565b600860009054906101000a900473ffffffffffffffffffffffffffffffffffffffff1673ffffffffffffffffffffffffffffffffffffffff163373ffffffffffffffffffffffffffffffffffffffff1614610d2d57600080fd5b610d3681611be1565b50565b600360009054906101000a900473ffffffffffffffffffffffffffffffffffffffff1681565b600860009054906101000a900473ffffffffffffffffffffffffffffffffffffffff1673ffffffffffffffffffffffffffffffffffffffff163373ffffffffffffffffffffffffffffffffffffffff1614610db957600080fd5b610dc281611cbe565b50565b600860009054906101000a900473ffffffffffffffffffffffffffffffffffffffff1673ffffffffffffffffffffffffffffffffffffffff163373ffffffffffffffffffffffffffffffffffffffff1614610e1f57600080fd5b7f5555cb3612e5f2fc327f8394a162756a3cca8144f95b4dcfb4ee29320c7992d3600060029054906101000a900473ffffffffffffffffffffffffffffffffffffffff16604051602001610e739190614597565b60405160208183030381529060405282604051602001610e939190614597565b604051602081830303815290604052604051610eb0929190614838565b60405180910390a180600060026101000a81548173ffffffffffffffffffffffffffffffffffffffff021916908373ffffffffffffffffffffffffffffffffffffffff16021790555050565b60055481565b610f0c3382611a3b565b50565b600860009054906101000a900473ffffffffffffffffffffffffffffffffffffffff1673ffffffffffffffffffffffffffffffffffffffff163373ffffffffffffffffffffffffffffffffffffffff1614610f6957600080fd5b80600a60006101000a81548173ffffffffffffffffffffffffffffffffffffffff021916908373ffffffffffffffffffffffffffffffffffffffff160217905550600a60009054906101000a900473ffffffffffffffffffffffffffffffffffffffff1673ffffffffffffffffffffffffffffffffffffffff16634aa4a4fc6040518163ffffffff1660e01b8152600401602060405180830381600087803b15801561101457600080fd5b505af1158015611028573d6000803e3d6000fd5b505050506040513d601f19601f8201168201806040525081019061104c9190613a5a565b600960006101000a81548173ffffffffffffffffffffffffffffffffffffffff021916908373ffffffffffffffffffffffffffffffffffffffff16021790555050565b600860009054906101000a900473ffffffffffffffffffffffffffffffffffffffff1673ffffffffffffffffffffffffffffffffffffffff163373ffffffffffffffffffffffffffffffffffffffff16146110e957600080fd5b7f5555cb3612e5f2fc327f8394a162756a3cca8144f95b4dcfb4ee29320c7992d3600460009054906101000a900473ffffffffffffffffffffffffffffffffffffffff1660405160200161113d9190614484565b6040516020818303038152906040528260405160200161115d9190614484565b60405160208183030381529060405260405161117a9291906148cc565b60405180910390a180600460006101000a81548173ffffffffffffffffffffffffffffffffffffffff021916908373ffffffffffffffffffffffffffffffffffffffff16021790555050565b60008673ffffffffffffffffffffffffffffffffffffffff1663dd62ed3e33306040518363ffffffff1660e01b815260040161120392919061449f565b60206040518083038186803b15801561121b57600080fd5b505afa15801561122f573d6000803e3d6000fd5b505050506040513d601f19601f820116820180604052508101906112539190613d0e565b9050858110156112775761127687828861126d9190614cf3565b8787878761147e565b5b50505050505050565b600860009054906101000a900473ffffffffffffffffffffffffffffffffffffffff1673ffffffffffffffffffffffffffffffffffffffff163373ffffffffffffffffffffffffffffffffffffffff16146112da57600080fd5b7f5555cb3612e5f2fc327f8394a162756a3cca8144f95b4dcfb4ee29320c7992d3600860009054906101000a900473ffffffffffffffffffffffffffffffffffffffff1660405160200161132e9190614484565b6040516020818303038152906040528260405160200161134e9190614484565b60405160208183030381529060405260405161136b929190614882565b60405180910390a180600860006101000a81548173ffffffffffffffffffffffffffffffffffffffff021916908373ffffffffffffffffffffffffffffffffffffffff16021790555050565b600460009054906101000a900473ffffffffffffffffffffffffffffffffffffffff1681565b6114318a8a8a8080601f016020809104026020016040519081016040528093929190818152602001838380828437600081840152601f19601f82011690508083019250505050505050888888888888611e67565b86600b60006101000a81548173ffffffffffffffffffffffffffffffffffffffff021916908373ffffffffffffffffffffffffffffffffffffffff16021790555050505050505050505050565b8573ffffffffffffffffffffffffffffffffffffffff1663d505accf333088888888886040518863ffffffff1660e01b81526004016114c397969594939291906144ff565b600060405180830381600087803b1580156114dd57600080fd5b505af11580156114f1573d6000803e3d6000fd5b50505050505050505050565b600260009054906101000a900473ffffffffffffffffffffffffffffffffffffffff1681565b600860009054906101000a900473ffffffffffffffffffffffffffffffffffffffff1673ffffffffffffffffffffffffffffffffffffffff163373ffffffffffffffffffffffffffffffffffffffff161461157d57600080fd5b7f5555cb3612e5f2fc327f8394a162756a3cca8144f95b4dcfb4ee29320c7992d3600260009054906101000a900473ffffffffffffffffffffffffffffffffffffffff166040516020016115d1919061461f565b604051602081830303815290604052826040516020016115f1919061461f565b60405160208183030381529060405260405161160e9291906149a0565b60405180910390a180600260006101000a81548173ffffffffffffffffffffffffffffffffffffffff021916908373ffffffffffffffffffffffffffffffffffffffff16021790555050565b600080829050600b60009054906101000a900473ffffffffffffffffffffffffffffffffffffffff1673ffffffffffffffffffffffffffffffffffffffff166327de9e32826040518263ffffffff1660e01b81526004016116bb9190614ab2565b600060405180830381600087803b1580156116d557600080fd5b505af11580156116e9573d6000803e3d6000fd5b505050506117038582600c6124af9092919063ffffffff16565b91508373ffffffffffffffffffffffffffffffffffffffff168573ffffffffffffffffffffffffffffffffffffffff167f18edd09e80386cd99df397e2e0d87d2bb259423eae08645e776321a36fe680ef8385604051611764929190614af6565b60405180910390a3509392505050565b600061178c8383600c6125689092919063ffffffff16565b9050600b60009054906101000a900473ffffffffffffffffffffffffffffffffffffffff1673ffffffffffffffffffffffffffffffffffffffff166325d5971f836040518263ffffffff1660e01b81526004016117e99190614ab2565b600060405180830381600087803b15801561180357600080fd5b505af1158015611817573d6000803e3d6000fd5b505050506118688382600060029054906101000a900473ffffffffffffffffffffffffffffffffffffffff1673ffffffffffffffffffffffffffffffffffffffff166126709092919063ffffffff16565b8273ffffffffffffffffffffffffffffffffffffffff167ff279e6a1f5e320cca91135676d9cb6e44ca8a08c0b88342bcdb1144f6511b56882846040516118b0929190614af6565b60405180910390a2505050565b6118c56126f6565b60006118cf612b70565b9050600081131561194857600081905060006118ed82600554612d5d565b905060006118fd83600654612d5d565b905080828461190c9190614cf3565b6119169190614cf3565b600760008282546119279190614b7e565b9250508190555061193782612d71565b61194081612e96565b50505061197b565b600081121561197a5760008161195d90614f82565b905080600760008282546119719190614cf3565b92505081905550505b5b611a2e600060029054906101000a900473ffffffffffffffffffffffffffffffffffffffff1673ffffffffffffffffffffffffffffffffffffffff166370a08231306040518263ffffffff1660e01b81526004016119d99190614484565b60206040518083038186803b1580156119f157600080fd5b505afa158015611a05573d6000803e3d6000fd5b505050506040513d601f19601f82011682018060405250810190611a299190613d0e565b611cbe565b50565b6000600754905090565b60008111611a7e576040517f08c379a0000000000000000000000000000000000000000000000000000000008152600401611a7590614960565b60405180910390fd5b6000611a8982611bd7565b9050600160009054906101000a900473ffffffffffffffffffffffffffffffffffffffff1673ffffffffffffffffffffffffffffffffffffffff166340c10f1984836040518363ffffffff1660e01b8152600401611ae892919061456e565b602060405180830381600087803b158015611b0257600080fd5b505af1158015611b16573d6000803e3d6000fd5b505050506040513d601f19601f82011682018060405250810190611b3a9190613b0c565b611b79576040517f08c379a0000000000000000000000000000000000000000000000000000000008152600401611b70906147b8565b60405180910390fd5b611bc8833084600060029054906101000a900473ffffffffffffffffffffffffffffffffffffffff1673ffffffffffffffffffffffffffffffffffffffff16613316909392919063ffffffff16565b611bd2838361339f565b505050565b6000819050919050565b7f5555cb3612e5f2fc327f8394a162756a3cca8144f95b4dcfb4ee29320c7992d3600b60009054906101000a900473ffffffffffffffffffffffffffffffffffffffff16604051602001611c3591906145e9565b60405160208183030381529060405282604051602001611c559190614484565b604051602081830303815290604052604051611c7292919061472e565b60405180910390a180600b60006101000a81548173ffffffffffffffffffffffffffffffffffffffff021916908373ffffffffffffffffffffffffffffffffffffffff16021790555050565b60008190506000811415611cd25750611e64565b611d41600b60009054906101000a900473ffffffffffffffffffffffffffffffffffffffff1682600060029054906101000a900473ffffffffffffffffffffffffffffffffffffffff1673ffffffffffffffffffffffffffffffffffffffff1661340a9092919063ffffffff16565b600b60009054906101000a900473ffffffffffffffffffffffffffffffffffffffff1673ffffffffffffffffffffffffffffffffffffffff1663b78d27dc82600460009054906101000a900473ffffffffffffffffffffffffffffffffffffffff166040518363ffffffff1660e01b8152600401611dc0929190614acd565b600060405180830381600087803b158015611dda57600080fd5b505af1158015611dee573d6000803e3d6000fd5b50505050600460009054906101000a900473ffffffffffffffffffffffffffffffffffffffff1673ffffffffffffffffffffffffffffffffffffffff167febedb8b3c678666e7f36970bc8f57abf6d8fa2e828c0da91ea5b75bf68ed101a82604051611e5a9190614ab2565b60405180910390a2505b50565b600060019054906101000a900460ff1680611e8d575060008054906101000a900460ff16155b611ecc576040517f08c379a0000000000000000000000000000000000000000000000000000000008152600401611ec390614818565b60405180910390fd5b60008060019054906101000a900460ff161590508015611f1c576001600060016101000a81548160ff02191690831515021790555060016000806101000a81548160ff0219169083151502179055505b88600060026101000a81548173ffffffffffffffffffffffffffffffffffffffff021916908373ffffffffffffffffffffffffffffffffffffffff16021790555086600460006101000a81548173ffffffffffffffffffffffffffffffffffffffff021916908373ffffffffffffffffffffffffffffffffffffffff160217905550856005819055508460068190555033600860006101000a81548173ffffffffffffffffffffffffffffffffffffffff021916908373ffffffffffffffffffffffffffffffffffffffff1602179055506000611ff88561352b565b905060008960405160200161200d9190614462565b60405160208183030381529060405290508173ffffffffffffffffffffffffffffffffffffffff1663077f224a8b8c306040518463ffffffff1660e01b815260040161205b939291906146c9565b602060405180830381600087803b15801561207557600080fd5b505af1158015612089573d6000803e3d6000fd5b505050506040513d601f19601f820116820180604052508101906120ad9190613b0c565b6120ec576040517f08c379a00000000000000000000000000000000000000000000000000000000081526004016120e390614a54565b60405180910390fd5b81600160006101000a81548173ffffffffffffffffffffffffffffffffffffffff021916908373ffffffffffffffffffffffffffffffffffffffff1602179055508373ffffffffffffffffffffffffffffffffffffffff1663a574175660405180608001604052808573ffffffffffffffffffffffffffffffffffffffff1681526020018e73ffffffffffffffffffffffffffffffffffffffff168152602001848e60405160200161219f9291906143ee565b6040516020818303038152906040528152602001848e6040516020016121c6929190614428565b6040516020818303038152906040528152506040518263ffffffff1660e01b81526004016121f49190614a74565b602060405180830381600087803b15801561220e57600080fd5b505af1158015612222573d6000803e3d6000fd5b505050506040513d601f19601f820116820180604052508101906122469190613c93565b600360006101000a81548173ffffffffffffffffffffffffffffffffffffffff021916908373ffffffffffffffffffffffffffffffffffffffff160217905550600360009054906101000a900473ffffffffffffffffffffffffffffffffffffffff1673ffffffffffffffffffffffffffffffffffffffff1663f2fde38b336040518263ffffffff1660e01b81526004016122e19190614484565b600060405180830381600087803b1580156122fb57600080fd5b505af115801561230f573d6000803e3d6000fd5b505050508473ffffffffffffffffffffffffffffffffffffffff1663d9181cd3600360009054906101000a900473ffffffffffffffffffffffffffffffffffffffff1673ffffffffffffffffffffffffffffffffffffffff16635fcbd2856040518163ffffffff1660e01b815260040160206040518083038186803b15801561239757600080fd5b505afa1580156123ab573d6000803e3d6000fd5b505050506040513d601f19601f820116820180604052508101906123cf9190613cbc565b84306040518463ffffffff1660e01b81526004016123ef939291906145b2565b602060405180830381600087803b15801561240957600080fd5b505af115801561241d573d6000803e3d6000fd5b505050506040513d601f19601f820116820180604052508101906124419190613c6a565b600260006101000a81548173ffffffffffffffffffffffffffffffffffffffff021916908373ffffffffffffffffffffffffffffffffffffffff160217905550505080156124a45760008060016101000a81548160ff0219169083151502179055505b505050505050505050565b6000836001015490506001816124c59190614b7e565b846001018190555060405180604001604052808381526020018473ffffffffffffffffffffffffffffffffffffffff168152508460000160008381526020019081526020016000206000820151816000015560208201518160010160006101000a81548173ffffffffffffffffffffffffffffffffffffffff021916908373ffffffffffffffffffffffffffffffffffffffff1602179055509050509392505050565b600080846000016000848152602001908152602001600020905060008160010160009054906101000a900473ffffffffffffffffffffffffffffffffffffffff169050816000015492508473ffffffffffffffffffffffffffffffffffffffff168173ffffffffffffffffffffffffffffffffffffffff1614612620576040517f08c379a0000000000000000000000000000000000000000000000000000000008152600401612617906147d8565b60405180910390fd5b8560000160008581526020019081526020016000206000808201600090556001820160006101000a81549073ffffffffffffffffffffffffffffffffffffffff0219169055505050509392505050565b6126f18363a9059cbb60e01b848460405160240161268f92919061456e565b604051602081830303815290604052907bffffffffffffffffffffffffffffffffffffffffffffffffffffffff19166020820180517bffffffffffffffffffffffffffffffffffffffffffffffffffffffff8381831617835250505050613600565b505050565b6000600b60009054906101000a900473ffffffffffffffffffffffffffffffffffffffff1673ffffffffffffffffffffffffffffffffffffffff1663f595f1cc307fffffffffffffffffffffffffffffffffffffffffffffffffffffffffffffffff6040518363ffffffff1660e01b815260040161277592919061456e565b60206040518083038186803b15801561278d57600080fd5b505afa1580156127a1573d6000803e3d6000fd5b505050506040513d601f19601f820116820180604052508101906127c59190613d0e565b905060018110612b6d57600b60009054906101000a900473ffffffffffffffffffffffffffffffffffffffff1673ffffffffffffffffffffffffffffffffffffffff1663476343ee6040518163ffffffff1660e01b8152600401600060405180830381600087803b15801561283957600080fd5b505af115801561284d573d6000803e3d6000fd5b505050506000479050600960009054906101000a900473ffffffffffffffffffffffffffffffffffffffff1673ffffffffffffffffffffffffffffffffffffffff1663d0e30db0826040518263ffffffff1660e01b81526004016000604051808303818588803b1580156128c057600080fd5b505af11580156128d4573d6000803e3d6000fd5b5050505050612948600a60009054906101000a900473ffffffffffffffffffffffffffffffffffffffff1682600960009054906101000a900473ffffffffffffffffffffffffffffffffffffffff1673ffffffffffffffffffffffffffffffffffffffff1661340a9092919063ffffffff16565b600073ffffffffffffffffffffffffffffffffffffffff16600a60009054906101000a900473ffffffffffffffffffffffffffffffffffffffff1673ffffffffffffffffffffffffffffffffffffffff1614612b6b57600080604051806101000160405280600960009054906101000a900473ffffffffffffffffffffffffffffffffffffffff1673ffffffffffffffffffffffffffffffffffffffff168152602001600060029054906101000a900473ffffffffffffffffffffffffffffffffffffffff1673ffffffffffffffffffffffffffffffffffffffff16815260200161271062ffffff1681526020013073ffffffffffffffffffffffffffffffffffffffff168152602001428152602001848152602001838152602001600073ffffffffffffffffffffffffffffffffffffffff168152509050600a60009054906101000a900473ffffffffffffffffffffffffffffffffffffffff1673ffffffffffffffffffffffffffffffffffffffff1663414bf389826040518263ffffffff1660e01b8152600401612adc9190614a96565b602060405180830381600087803b158015612af657600080fd5b505af1925050508015612b2757506040513d601f19601f82011682018060405250810190612b249190613d0e565b60015b612b3057612b68565b828111612b66577f4e487b7100000000000000000000000000000000000000000000000000000000600052600160045260246000fd5b505b50505b505b50565b600080600b60009054906101000a900473ffffffffffffffffffffffffffffffffffffffff1673ffffffffffffffffffffffffffffffffffffffff16639d0b2c7a307fffffffffffffffffffffffffffffffffffffffffffffffffffffffffffffffff6040518363ffffffff1660e01b8152600401612bf092919061456e565b60206040518083038186803b158015612c0857600080fd5b505afa158015612c1c573d6000803e3d6000fd5b505050506040513d601f19601f82011682018060405250810190612c409190613d0e565b9050600060075490506000612cfe600060029054906101000a900473ffffffffffffffffffffffffffffffffffffffff1673ffffffffffffffffffffffffffffffffffffffff166370a08231306040518263ffffffff1660e01b8152600401612ca99190614484565b60206040518083038186803b158015612cc157600080fd5b505afa158015612cd5573d6000803e3d6000fd5b505050506040513d601f19601f82011682018060405250810190612cf99190613d0e565b611bd7565b90508083612d0c9190614b7e565b92508183612d1a9190614c5f565b93507f78c13bf6a7fae25f1085d594e546d7a97cb66a55bc9733c7ea78236c452663ec848484604051612d4f93929190614670565b60405180910390a150505090565b6000612d6983836136c7565b905092915050565b600160009054906101000a900473ffffffffffffffffffffffffffffffffffffffff1673ffffffffffffffffffffffffffffffffffffffff166340c10f19600860009054906101000a900473ffffffffffffffffffffffffffffffffffffffff16836040518363ffffffff1660e01b8152600401612df092919061456e565b602060405180830381600087803b158015612e0a57600080fd5b505af1158015612e1e573d6000803e3d6000fd5b505050506040513d601f19601f82011682018060405250810190612e429190613b0c565b508060076000828254612e559190614b7e565b925050819055507f414d7d8eae12f648156e75499fc0a5a10aa84f2745c6f791b0453cb17f1e17fa81604051612e8b9190614ab2565b60405180910390a150565b6000600260009054906101000a900473ffffffffffffffffffffffffffffffffffffffff1673ffffffffffffffffffffffffffffffffffffffff166304d3b7c46040518163ffffffff1660e01b815260040160206040518083038186803b158015612f0057600080fd5b505afa158015612f14573d6000803e3d6000fd5b505050506040513d601f19601f82011682018060405250810190612f389190613d0e565b11612f4257613313565b6000600160009054906101000a900473ffffffffffffffffffffffffffffffffffffffff1673ffffffffffffffffffffffffffffffffffffffff166370a08231306040518263ffffffff1660e01b8152600401612f9f9190614484565b60206040518083038186803b158015612fb757600080fd5b505afa158015612fcb573d6000803e3d6000fd5b505050506040513d601f19601f82011682018060405250810190612fef9190613d0e565b9050600160009054906101000a900473ffffffffffffffffffffffffffffffffffffffff1673ffffffffffffffffffffffffffffffffffffffff166340c10f1930846040518363ffffffff1660e01b815260040161304e92919061456e565b602060405180830381600087803b15801561306857600080fd5b505af115801561307c573d6000803e3d6000fd5b505050506040513d601f19601f820116820180604052508101906130a09190613b0c565b5081600760008282546130b39190614b7e565b925050819055506000600160009054906101000a900473ffffffffffffffffffffffffffffffffffffffff1673ffffffffffffffffffffffffffffffffffffffff166370a08231306040518263ffffffff1660e01b81526004016131179190614484565b60206040518083038186803b15801561312f57600080fd5b505afa158015613143573d6000803e3d6000fd5b505050506040513d601f19601f820116820180604052508101906131679190613d0e565b9050600082826131779190614cf3565b9050600160009054906101000a900473ffffffffffffffffffffffffffffffffffffffff1673ffffffffffffffffffffffffffffffffffffffff1663095ea7b3600260009054906101000a900473ffffffffffffffffffffffffffffffffffffffff16836040518363ffffffff1660e01b81526004016131f892919061456e565b602060405180830381600087803b15801561321257600080fd5b505af1158015613226573d6000803e3d6000fd5b505050506040513d601f19601f8201168201806040525081019061324a9190613b0c565b50600260009054906101000a900473ffffffffffffffffffffffffffffffffffffffff1673ffffffffffffffffffffffffffffffffffffffff1663beceed39826040518263ffffffff1660e01b81526004016132a69190614ab2565b600060405180830381600087803b1580156132c057600080fd5b505af11580156132d4573d6000803e3d6000fd5b505050507f1d8f4bab53e84801fc35b88b53df72a998fa29c92e6fc65d412c4677d0d88c62816040516133079190614ab2565b60405180910390a15050505b50565b613399846323b872dd60e01b858585604051602401613337939291906144c8565b604051602081830303815290604052907bffffffffffffffffffffffffffffffffffffffffffffffffffffffff19166020820180517bffffffffffffffffffffffffffffffffffffffffffffffffffffffff8381831617835250505050613600565b50505050565b80600760008282546133b19190614b7e565b925050819055508173ffffffffffffffffffffffffffffffffffffffff167fe1fffcc4923d04b559f4d29a8bfc6cda04eb5b0d3c460751c2402c5c5cc9109c826040516133fe9190614ab2565b60405180910390a25050565b6000818473ffffffffffffffffffffffffffffffffffffffff1663dd62ed3e30866040518363ffffffff1660e01b815260040161344892919061449f565b60206040518083038186803b15801561346057600080fd5b505afa158015613474573d6000803e3d6000fd5b505050506040513d601f19601f820116820180604052508101906134989190613d0e565b6134a29190614b7e565b90506135258463095ea7b360e01b85846040516024016134c392919061456e565b604051602081830303815290604052907bffffffffffffffffffffffffffffffffffffffffffffffffffffffff19166020820180517bffffffffffffffffffffffffffffffffffffffffffffffffffffffff8381831617835250505050613600565b50505050565b60006040517f3d602d80600a3d3981f3363d3d373d3d3d363d7300000000000000000000000081528260601b60148201527f5af43d82803e903d91602b57fd5bf3000000000000000000000000000000000060288201526037816000f0915050600073ffffffffffffffffffffffffffffffffffffffff168173ffffffffffffffffffffffffffffffffffffffff1614156135fb576040517f08c379a00000000000000000000000000000000000000000000000000000000081526004016135f2906147f8565b60405180910390fd5b919050565b6000613662826040518060400160405280602081526020017f5361666545524332303a206c6f772d6c6576656c2063616c6c206661696c65648152508573ffffffffffffffffffffffffffffffffffffffff166136f19092919063ffffffff16565b90506000815111156136c257808060200190518101906136829190613b0c565b6136c1576040517f08c379a00000000000000000000000000000000000000000000000000000000081526004016136b8906149ea565b60405180910390fd5b5b505050565b6000683635c9adc5dea0000082846136df9190614c05565b6136e99190614bd4565b905092915050565b60606137008484600085613709565b90509392505050565b60608247101561374e576040517f08c379a000000000000000000000000000000000000000000000000000000000815260040161374590614798565b60405180910390fd5b6137578561381d565b613796576040517f08c379a000000000000000000000000000000000000000000000000000000000815260040161378d90614980565b60405180910390fd5b6000808673ffffffffffffffffffffffffffffffffffffffff1685876040516137bf91906143d7565b60006040518083038185875af1925050503d80600081146137fc576040519150601f19603f3d011682016040523d82523d6000602084013e613801565b606091505b5091509150613811828286613830565b92505050949350505050565b600080823b905060008111915050919050565b6060831561384057829050613890565b6000835111156138535782518084602001fd5b816040517f08c379a000000000000000000000000000000000000000000000000000000000815260040161388791906146a7565b60405180910390fd5b9392505050565b6000813590506138a681615432565b92915050565b6000815190506138bb81615432565b92915050565b6000815190506138d081615449565b92915050565b6000813590506138e581615460565b92915050565b6000813590506138fa81615477565b92915050565b60008135905061390f8161548e565b92915050565b600081359050613924816154a5565b92915050565b600081519050613939816154a5565b92915050565b60008135905061394e816154bc565b92915050565b600081519050613963816154d3565b92915050565b600081359050613978816154ea565b92915050565b60008151905061398d81615501565b92915050565b6000813590506139a281615518565b92915050565b60008083601f8401126139ba57600080fd5b8235905067ffffffffffffffff8111156139d357600080fd5b6020830191508360018202830111156139eb57600080fd5b9250929050565b600081359050613a018161552f565b92915050565b600081519050613a168161552f565b92915050565b600081359050613a2b81615546565b92915050565b600060208284031215613a4357600080fd5b6000613a5184828501613897565b91505092915050565b600060208284031215613a6c57600080fd5b6000613a7a848285016138ac565b91505092915050565b60008060008060008060c08789031215613a9c57600080fd5b6000613aaa89828a01613897565b9650506020613abb89828a016139f2565b9550506040613acc89828a016139f2565b9450506060613add89828a01613a1c565b9350506080613aee89828a016138d6565b92505060a0613aff89828a016138d6565b9150509295509295509295565b600060208284031215613b1e57600080fd5b6000613b2c848285016138c1565b91505092915050565b600060208284031215613b4757600080fd5b6000613b55848285016138eb565b91505092915050565b6000806000806000806000806000806101208b8d031215613b7e57600080fd5b6000613b8c8d828e016138eb565b9a505060208b013567ffffffffffffffff811115613ba957600080fd5b613bb58d828e016139a8565b99509950506040613bc88d828e01613900565b9750506060613bd98d828e01613897565b9650506080613bea8d828e016139f2565b95505060a0613bfb8d828e016139f2565b94505060c0613c0c8d828e01613969565b93505060e0613c1d8d828e01613993565b925050610100613c2f8d828e0161393f565b9150509295989b9194979a5092959850565b600060208284031215613c5357600080fd5b6000613c6184828501613915565b91505092915050565b600060208284031215613c7c57600080fd5b6000613c8a8482850161392a565b91505092915050565b600060208284031215613ca557600080fd5b6000613cb384828501613954565b91505092915050565b600060208284031215613cce57600080fd5b6000613cdc8482850161397e565b91505092915050565b600060208284031215613cf757600080fd5b6000613d05848285016139f2565b91505092915050565b600060208284031215613d2057600080fd5b6000613d2e84828501613a07565b91505092915050565b600080600080600060a08688031215613d4f57600080fd5b6000613d5d888289016139f2565b9550506020613d6e888289016139f2565b9450506040613d7f88828901613a1c565b9350506060613d90888289016138d6565b9250506080613da1888289016138d6565b9150509295509295909350565b613db781614d27565b82525050565b613dc681614d27565b82525050565b613dd581614d45565b82525050565b6000613de682614b1f565b613df08185614b35565b9350613e00818560208601614f4f565b613e0981615029565b840191505092915050565b6000613e1f82614b1f565b613e298185614b46565b9350613e39818560208601614f4f565b80840191505092915050565b613e4e81614e2f565b82525050565b613e5d81614e2f565b82525050565b613e6c81614e53565b82525050565b613e7b81614e77565b82525050565b613e8a81614e9b565b82525050565b613e9981614ebf565b82525050565b613ea881614ee3565b82525050565b613eb781614f07565b82525050565b613ec681614f2b565b82525050565b613ed581614ddf565b82525050565b6000613ee682614b2a565b613ef08185614b51565b9350613f00818560208601614f4f565b613f0981615029565b840191505092915050565b6000613f1f82614b2a565b613f298185614b62565b9350613f39818560208601614f4f565b613f4281615029565b840191505092915050565b6000613f5882614b2a565b613f628185614b73565b9350613f72818560208601614f4f565b80840191505092915050565b6000613f8b601283614b62565b9150613f968261503a565b602082019050919050565b6000613fae600b83614b73565b9150613fb982615063565b600b82019050919050565b6000613fd1601083614b62565b9150613fdc8261508c565b602082019050919050565b6000613ff4600f83614b62565b9150613fff826150b5565b602082019050919050565b6000614017602683614b62565b9150614022826150de565b604082019050919050565b600061403a601283614b62565b91506140458261512d565b602082019050919050565b600061405d601183614b62565b915061406882615156565b602082019050919050565b6000614080601683614b62565b915061408b8261517f565b602082019050919050565b60006140a3602e83614b62565b91506140ae826151a8565b604082019050919050565b60006140c6600583614b62565b91506140d1826151f7565b602082019050919050565b60006140e9600383614b62565b91506140f482615220565b602082019050919050565b600061410c600483614b62565b915061411782615249565b602082019050919050565b600061412f600c83614b62565b915061413a82615272565b602082019050919050565b6000614152600b83614b62565b915061415d8261529b565b602082019050919050565b6000614175600583614b73565b9150614180826152c4565b600582019050919050565b6000614198600183614b73565b91506141a3826152ed565b600182019050919050565b60006141bb601d83614b62565b91506141c682615316565b602082019050919050565b60006141de600183614b73565b91506141e98261533f565b600182019050919050565b6000614201600a83614b62565b915061420c82615368565b602082019050919050565b6000614224602a83614b62565b915061422f82615391565b604082019050919050565b6000614247600d83614b62565b9150614252826153e0565b602082019050919050565b600061426a601583614b62565b915061427582615409565b602082019050919050565b60006080830160008301516142986000860182613e45565b5060208301516142ab6020860182613e45565b50604083015184820360408601526142c38282613edb565b915050606083015184820360608601526142dd8282613edb565b9150508091505092915050565b610100820160008201516143016000850182613dae565b5060208201516143146020850182613dae565b506040820151614327604085018261439b565b50606082015161433a6060850182613dae565b50608082015161434d60808501826143aa565b5060a082015161436060a08501826143aa565b5060c082015161437360c08501826143aa565b5060e082015161438660e085018261438c565b50505050565b61439581614de9565b82525050565b6143a481614e09565b82525050565b6143b381614e18565b82525050565b6143c281614e18565b82525050565b6143d181614e22565b82525050565b60006143e38284613e14565b915081905092915050565b60006143fa8285613f4d565b9150614405826141d1565b91506144118284613f4d565b915061441c82613fa1565b91508190509392505050565b60006144348285613f4d565b915061443f826141d1565b915061444b8284613f4d565b915061445682614168565b91508190509392505050565b600061446d8261418b565b91506144798284613f4d565b915081905092915050565b60006020820190506144996000830184613dbd565b92915050565b60006040820190506144b46000830185613dbd565b6144c16020830184613dbd565b9392505050565b60006060820190506144dd6000830186613dbd565b6144ea6020830185613dbd565b6144f760408301846143b9565b949350505050565b600060e082019050614514600083018a613dbd565b6145216020830189613dbd565b61452e60408301886143b9565b61453b60608301876143b9565b61454860808301866143c8565b61455560a0830185613dcc565b61456260c0830184613dcc565b98975050505050505050565b60006040820190506145836000830185613dbd565b61459060208301846143b9565b9392505050565b60006020820190506145ac6000830184613e54565b92915050565b60006060820190506145c76000830186613e54565b6145d46020830185613e9f565b6145e16040830184613eae565b949350505050565b60006020820190506145fe6000830184613e63565b92915050565b60006020820190506146196000830184613e72565b92915050565b60006020820190506146346000830184613e81565b92915050565b600060208201905061464f6000830184613e90565b92915050565b600060208201905061466a6000830184613e9f565b92915050565b60006060820190506146856000830186613ecc565b61469260208301856143b9565b61469f60408301846143b9565b949350505050565b600060208201905081810360008301526146c18184613f14565b905092915050565b600060608201905081810360008301526146e38186613f14565b905081810360208301526146f78185613f14565b90506147066040830184613ebd565b949350505050565b6000602082019050818103600083015261472781613f7e565b9050919050565b6000606082019050818103600083015261474781613fc4565b9050818103602083015261475b8185613ddb565b9050818103604083015261476f8184613ddb565b90509392505050565b6000602082019050818103600083015261479181613fe7565b9050919050565b600060208201905081810360008301526147b18161400a565b9050919050565b600060208201905081810360008301526147d18161402d565b9050919050565b600060208201905081810360008301526147f181614050565b9050919050565b6000602082019050818103600083015261481181614073565b9050919050565b6000602082019050818103600083015261483181614096565b9050919050565b60006060820190508181036000830152614851816140b9565b905081810360208301526148658185613ddb565b905081810360408301526148798184613ddb565b90509392505050565b6000606082019050818103600083015261489b816140dc565b905081810360208301526148af8185613ddb565b905081810360408301526148c38184613ddb565b90509392505050565b600060608201905081810360008301526148e5816140ff565b905081810360208301526148f98185613ddb565b9050818103604083015261490d8184613ddb565b90509392505050565b6000606082019050818103600083015261492f81614122565b905081810360208301526149438185613ddb565b905081810360408301526149578184613ddb565b90509392505050565b6000602082019050818103600083015261497981614145565b9050919050565b60006020820190508181036000830152614999816141ae565b9050919050565b600060608201905081810360008301526149b9816141f4565b905081810360208301526149cd8185613ddb565b905081810360408301526149e18184613ddb565b90509392505050565b60006020820190508181036000830152614a0381614217565b9050919050565b60006060820190508181036000830152614a238161423a565b90508181036020830152614a378185613ddb565b90508181036040830152614a4b8184613ddb565b90509392505050565b60006020820190508181036000830152614a6d8161425d565b9050919050565b60006020820190508181036000830152614a8e8184614280565b905092915050565b600061010082019050614aac60008301846142ea565b92915050565b6000602082019050614ac760008301846143b9565b92915050565b6000604082019050614ae260008301856143b9565b614aef6020830184613dbd565b9392505050565b6000604082019050614b0b60008301856143b9565b614b1860208301846143b9565b9392505050565b600081519050919050565b600081519050919050565b600082825260208201905092915050565b600081905092915050565b600082825260208201905092915050565b600082825260208201905092915050565b600081905092915050565b6000614b8982614e18565b9150614b9483614e18565b9250827fffffffffffffffffffffffffffffffffffffffffffffffffffffffffffffffff03821115614bc957614bc8614fcb565b5b828201905092915050565b6000614bdf82614e18565b9150614bea83614e18565b925082614bfa57614bf9614ffa565b5b828204905092915050565b6000614c1082614e18565b9150614c1b83614e18565b9250817fffffffffffffffffffffffffffffffffffffffffffffffffffffffffffffffff0483118215151615614c5457614c53614fcb565b5b828202905092915050565b6000614c6a82614ddf565b9150614c7583614ddf565b9250827f800000000000000000000000000000000000000000000000000000000000000001821260008412151615614cb057614caf614fcb565b5b827f7fffffffffffffffffffffffffffffffffffffffffffffffffffffffffffffff018213600084121615614ce857614ce7614fcb565b5b828203905092915050565b6000614cfe82614e18565b9150614d0983614e18565b925082821015614d1c57614d1b614fcb565b5b828203905092915050565b6000614d3282614de9565b9050919050565b60008115159050919050565b6000819050919050565b6000614d5a82614d27565b9050919050565b6000614d6c82614d27565b9050919050565b6000614d7e82614d27565b9050919050565b6000614d9082614d27565b9050919050565b6000614da282614d27565b9050919050565b6000614db482614d27565b9050919050565b6000614dc682614d27565b9050919050565b6000614dd882614d27565b9050919050565b6000819050919050565b600073ffffffffffffffffffffffffffffffffffffffff82169050919050565b600062ffffff82169050919050565b6000819050919050565b600060ff82169050919050565b6000614e3a82614e41565b9050919050565b6000614e4c82614de9565b9050919050565b6000614e5e82614e65565b9050919050565b6000614e7082614de9565b9050919050565b6000614e8282614e89565b9050919050565b6000614e9482614de9565b9050919050565b6000614ea682614ead565b9050919050565b6000614eb882614de9565b9050919050565b6000614eca82614ed1565b9050919050565b6000614edc82614de9565b9050919050565b6000614eee82614ef5565b9050919050565b6000614f0082614de9565b9050919050565b6000614f1282614f19565b9050919050565b6000614f2482614de9565b9050919050565b6000614f3682614f3d565b9050919050565b6000614f4882614de9565b9050919050565b60005b83811015614f6d578082015181840152602081019050614f52565b83811115614f7c576000848401525b50505050565b6000614f8d82614ddf565b91507f8000000000000000000000000000000000000000000000000000000000000000821415614fc057614fbf614fcb565b5b816000039050919050565b7f4e487b7100000000000000000000000000000000000000000000000000000000600052601160045260246000fd5b7f4e487b7100000000000000000000000000000000000000000000000000000000600052601260045260246000fd5b6000601f19601f8301169050919050565b7f54454e4445525f4255524e5f4641494c45440000000000000000000000000000600082015250565b7f205377617020546f6b656e000000000000000000000000000000000000000000600082015250565b7f5354414b494e475f434f4e545241435400000000000000000000000000000000600082015250565b7f4645455f455843454544535f4d41580000000000000000000000000000000000600082015250565b7f416464726573733a20696e73756666696369656e742062616c616e636520666f60008201527f722063616c6c0000000000000000000000000000000000000000000000000000602082015250565b7f54454e4445525f4d494e545f4641494c45440000000000000000000000000000600082015250565b7f4143434f554e545f4d4953544d41544348000000000000000000000000000000600082015250565b7f455243313136373a20637265617465206661696c656400000000000000000000600082015250565b7f496e697469616c697a61626c653a20636f6e747261637420697320616c72656160008201527f647920696e697469616c697a6564000000000000000000000000000000000000602082015250565b7f535445414b000000000000000000000000000000000000000000000000000000600082015250565b7f474f560000000000000000000000000000000000000000000000000000000000600082015250565b7f4e4f444500000000000000000000000000000000000000000000000000000000600082015250565b7f50524f544f434f4c5f4645450000000000000000000000000000000000000000600082015250565b7f5a45524f5f414d4f554e54000000000000000000000000000000000000000000600082015250565b7f2d53574150000000000000000000000000000000000000000000000000000000600082015250565b7f7400000000000000000000000000000000000000000000000000000000000000600082015250565b7f416464726573733a2063616c6c20746f206e6f6e2d636f6e7472616374000000600082015250565b7f2d00000000000000000000000000000000000000000000000000000000000000600082015250565b7f54454e4445524641524d00000000000000000000000000000000000000000000600082015250565b7f5361666545524332303a204552433230206f7065726174696f6e20646964206e60008201527f6f74207375636365656400000000000000000000000000000000000000000000602082015250565b7f4c49515549444954595f46454500000000000000000000000000000000000000600082015250565b7f4641494c5f494e49545f54454e444552544f4b454e0000000000000000000000600082015250565b61543b81614d27565b811461544657600080fd5b50565b61545281614d39565b811461545d57600080fd5b50565b61546981614d45565b811461547457600080fd5b50565b61548081614d4f565b811461548b57600080fd5b50565b61549781614d61565b81146154a257600080fd5b50565b6154ae81614d73565b81146154b957600080fd5b50565b6154c581614d85565b81146154d057600080fd5b50565b6154dc81614d97565b81146154e757600080fd5b50565b6154f381614da9565b81146154fe57600080fd5b50565b61550a81614dbb565b811461551557600080fd5b50565b61552181614dcd565b811461552c57600080fd5b50565b61553881614e18565b811461554357600080fd5b50565b61554f81614e22565b811461555a57600080fd5b5056fea2646970667358221220c9b116778447ca31d24fbc1918a338328139718b90480dbcafc316cf183e44cd64736f6c63430008040033",
  "devdoc": {
    "kind": "dev",
    "methods": {
      "calcDepositOut(uint256)": {
        "details": "used by controller to calculate tokens to be minted before depositing.to be used when there a delegation tax is deducted, for eg. in Graph.",
        "returns": {
          "_0": "number of tokens staked for `amountIn`."
        }
      },
      "deposit(uint256)": {
        "details": "doesn't actually stakes the tokens but aggregates the balance in the tenderizer awaiting to be staked.requires '_amount' to be approved by '_from'.",
        "params": {
          "_amount": "amount deposited"
        }
      },
      "depositWithPermit(uint256,uint256,uint8,bytes32,bytes32)": {
        "details": "doesn't actually stakes the tokens but aggregates the balance in the tenderizer awaiting to be staked.requires '_amount' to be approved by '_from'.",
        "params": {
          "_amount": "amount deposited",
          "_deadline": "deadline for the permit",
          "_r": "from ECDSA signature",
          "_s": "from ECDSA signature",
          "_v": "from ECDSA signature"
        }
      },
      "rescueUnlock()": {
        "details": "Used to rescue all staked funds.",
        "returns": {
          "_0": "unstake lockID generated for unstake"
        }
      },
      "rescueWithdraw(uint256)": {
        "details": "To be called after rescueUnlock() with the unstakeLockID returned there.Process unlocks/withdrawals before rescueWithdraw for integrations with WithdrawPools."
      },
      "selfPermit(address,uint256,uint256,uint8,bytes32,bytes32)": {
        "details": "The `owner` is always msg.sender and the `spender` is always address(this).",
        "params": {
          "_deadline": "A timestamp, the current blocktime must be less than or equal to this timestamp",
          "_r": "Must produce valid secp256k1 signature from the holder along with `v` and `s`",
          "_s": "Must produce valid secp256k1 signature from the holder along with `r` and `v`",
          "_token": "The address of the token spent",
          "_v": "Must produce valid secp256k1 signature from the holder along with `r` and `s`",
          "_value": "The amount that can be spent of token"
        }
      },
      "selfPermitIfNecessary(address,uint256,uint256,uint8,bytes32,bytes32)": {
        "details": "The `owner` is always msg.sender and the `spender` is always address(this). Can be used instead of #selfPermit to prevent calls from failing due to a frontrun of a call to #selfPermit",
        "params": {
          "_deadline": "A timestamp, the current blocktime must be less than or equal to this timestamp",
          "_r": "Must produce valid secp256k1 signature from the holder along with `v` and `s`",
          "_s": "Must produce valid secp256k1 signature from the holder along with `r` and `v`",
          "_token": "The address of the token spent",
          "_v": "Must produce valid secp256k1 signature from the holder along with `r` and `s`",
          "_value": "The amount that can be spent of token"
        }
      },
      "stake(uint256)": {
        "details": "Only callable by Gov.",
        "params": {
          "_amount": "amount to stake"
        }
      },
      "totalStakedTokens()": {
        "returns": {
          "_0": "total amount staked by this Tenderizer"
        }
      },
      "unstake(uint256)": {
        "details": "unstake from the default address.If '_amount' is 0, unstake the entire amount staked towards _account.",
        "params": {
          "_amount": "amount to unstake"
        },
        "returns": {
          "_0": "unstake lockID generated for unstake"
        }
      },
      "withdraw(uint256)": {
        "details": "If '_amount' isn't specified all unstake tokens by '_account' will be withdrawn.Requires '_account' to have unstaked prior to calling withdraw.",
        "params": {
          "_unstakeLockID": "ID for the lock to request the withdraw for"
        }
      }
    },
    "version": 1
  },
  "userdoc": {
    "events": {
      "Deposit(address,uint256)": {
        "notice": "Deposit gets emitted when an accounts deposits underlying tokens."
      },
      "GovernanceUpdate(string,bytes,bytes)": {
        "notice": "GovernanceUpdate gets emitted when a parameter on the Tenderizer gets updated."
      },
      "LiquidityFeeCollected(uint256)": {
        "notice": "LiquidityFeeCollected gets emitted when liquidity provider fees are moved to the TenderFarm."
      },
      "ProtocolFeeCollected(uint256)": {
        "notice": "ProtocolFeeCollected gets emitted when the treasury claims its outstanding protocol fees."
      },
      "RewardsClaimed(int256,uint256,uint256)": {
        "notice": "RewardsClaimed gets emitted when the Tenderizer processes staking rewards (or slashing) from the underlying protocol."
      },
      "Stake(address,uint256)": {
        "notice": "Stake gets emitted when funds are staked/delegated from the Tenderizer contract into the underlying protocol."
      },
      "Unstake(address,address,uint256,uint256)": {
        "notice": "Unstake gets emitted when an account burns TenderTokens to unlock tokens staked through the Tenderizer"
      },
      "Withdraw(address,uint256,uint256)": {
        "notice": "Withdraw gets emitted when an account withdraws tokens that have been succesfully unstaked and thus unlocked for withdrawal."
      }
    },
    "kind": "user",
    "methods": {
      "calcDepositOut(uint256)": {
        "notice": "Returns the number of tenderTokens to be minted for amountIn deposit."
      },
      "claimRewards()": {
        "notice": "Compound all the rewards and new deposits. Claim staking rewards and earned fees for the underlying protocol and stake any leftover token balance. Process Tender protocol fees if revenue is positive."
      },
      "deposit(uint256)": {
        "notice": "Deposit tokens in Tenderizer."
      },
      "depositWithPermit(uint256,uint256,uint8,bytes32,bytes32)": {
        "notice": "Deposit tokens in Tenderizer with permit."
      },
      "rescueUnlock()": {
        "notice": "RescueUnstake unstakes all tokens from underlying protocol"
      },
      "rescueWithdraw(uint256)": {
        "notice": "RescueWithdraw withdraws all tokens into the Tenderizer from the underlying protocol  after the unlock period ends"
      },
      "selfPermit(address,uint256,uint256,uint8,bytes32,bytes32)": {
        "notice": "Permits this contract to spend a given token from `msg.sender`"
      },
      "selfPermitIfNecessary(address,uint256,uint256,uint8,bytes32,bytes32)": {
        "notice": "Permits this contract to spend a given token from `msg.sender`"
      },
      "stake(uint256)": {
        "notice": "Stake '_amount' of tokens."
      },
      "totalStakedTokens()": {
        "notice": "Total Staked Tokens returns the total amount of underlying tokens staked by this Tenderizer."
      },
      "unstake(uint256)": {
        "notice": "Unstake '_amount' of tokens from '_account'."
      },
      "withdraw(uint256)": {
        "notice": "Withdraw '_amount' of tokens previously unstaked by '_account'."
      }
    },
    "version": 1
  },
  "storageLayout": {
    "storage": [
      {
        "astId": 2048,
        "contract": "contracts/tenderizer/integrations/livepeer/Livepeer.sol:Livepeer",
        "label": "_initialized",
        "offset": 0,
        "slot": "0",
        "type": "t_bool"
      },
      {
        "astId": 2051,
        "contract": "contracts/tenderizer/integrations/livepeer/Livepeer.sol:Livepeer",
        "label": "_initializing",
        "offset": 1,
        "slot": "0",
        "type": "t_bool"
      },
      {
        "astId": 5620,
        "contract": "contracts/tenderizer/integrations/livepeer/Livepeer.sol:Livepeer",
        "label": "steak",
        "offset": 2,
        "slot": "0",
        "type": "t_contract(IERC20)2712"
      },
      {
        "astId": 5623,
        "contract": "contracts/tenderizer/integrations/livepeer/Livepeer.sol:Livepeer",
        "label": "tenderToken",
        "offset": 0,
        "slot": "1",
        "type": "t_contract(ITenderToken)15480"
      },
      {
        "astId": 5626,
        "contract": "contracts/tenderizer/integrations/livepeer/Livepeer.sol:Livepeer",
        "label": "tenderFarm",
        "offset": 0,
        "slot": "2",
        "type": "t_contract(ITenderFarm)4846"
      },
      {
        "astId": 5629,
        "contract": "contracts/tenderizer/integrations/livepeer/Livepeer.sol:Livepeer",
        "label": "tenderSwap",
        "offset": 0,
        "slot": "3",
        "type": "t_contract(ITenderSwap)9537"
      },
      {
        "astId": 5631,
        "contract": "contracts/tenderizer/integrations/livepeer/Livepeer.sol:Livepeer",
        "label": "node",
        "offset": 0,
        "slot": "4",
        "type": "t_address"
      },
      {
        "astId": 5633,
        "contract": "contracts/tenderizer/integrations/livepeer/Livepeer.sol:Livepeer",
        "label": "protocolFee",
        "offset": 0,
        "slot": "5",
        "type": "t_uint256"
      },
      {
        "astId": 5635,
        "contract": "contracts/tenderizer/integrations/livepeer/Livepeer.sol:Livepeer",
        "label": "liquidityFee",
        "offset": 0,
        "slot": "6",
        "type": "t_uint256"
      },
      {
        "astId": 5637,
        "contract": "contracts/tenderizer/integrations/livepeer/Livepeer.sol:Livepeer",
        "label": "currentPrincipal",
        "offset": 0,
        "slot": "7",
        "type": "t_uint256"
      },
      {
        "astId": 5639,
        "contract": "contracts/tenderizer/integrations/livepeer/Livepeer.sol:Livepeer",
        "label": "gov",
        "offset": 0,
        "slot": "8",
        "type": "t_address"
      },
      {
        "astId": 8259,
        "contract": "contracts/tenderizer/integrations/livepeer/Livepeer.sol:Livepeer",
        "label": "WETH",
        "offset": 0,
        "slot": "9",
        "type": "t_contract(IWETH)4597"
      },
      {
        "astId": 8262,
        "contract": "contracts/tenderizer/integrations/livepeer/Livepeer.sol:Livepeer",
        "label": "uniswapRouter",
        "offset": 0,
        "slot": "10",
        "type": "t_contract(ISwapRouterWithWETH)4588"
      },
      {
        "astId": 8268,
        "contract": "contracts/tenderizer/integrations/livepeer/Livepeer.sol:Livepeer",
        "label": "livepeer",
        "offset": 0,
        "slot": "11",
        "type": "t_contract(ILivepeer)8223"
      },
      {
        "astId": 8276,
        "contract": "contracts/tenderizer/integrations/livepeer/Livepeer.sol:Livepeer",
        "label": "withdrawLocks",
        "offset": 0,
        "slot": "12",
        "type": "t_struct(Locks)6489_storage"
      }
    ],
    "types": {
      "t_address": {
        "encoding": "inplace",
        "label": "address",
        "numberOfBytes": "20"
      },
      "t_bool": {
        "encoding": "inplace",
        "label": "bool",
        "numberOfBytes": "1"
      },
      "t_contract(IERC20)2712": {
        "encoding": "inplace",
        "label": "contract IERC20",
        "numberOfBytes": "20"
      },
      "t_contract(ILivepeer)8223": {
        "encoding": "inplace",
        "label": "contract ILivepeer",
        "numberOfBytes": "20"
      },
      "t_contract(ISwapRouterWithWETH)4588": {
        "encoding": "inplace",
        "label": "contract ISwapRouterWithWETH",
        "numberOfBytes": "20"
      },
      "t_contract(ITenderFarm)4846": {
        "encoding": "inplace",
        "label": "contract ITenderFarm",
        "numberOfBytes": "20"
      },
      "t_contract(ITenderSwap)9537": {
        "encoding": "inplace",
        "label": "contract ITenderSwap",
        "numberOfBytes": "20"
      },
      "t_contract(ITenderToken)15480": {
        "encoding": "inplace",
        "label": "contract ITenderToken",
        "numberOfBytes": "20"
      },
      "t_contract(IWETH)4597": {
        "encoding": "inplace",
        "label": "contract IWETH",
        "numberOfBytes": "20"
      },
      "t_mapping(t_uint256,t_struct(WithdrawLock)6481_storage)": {
        "encoding": "mapping",
        "key": "t_uint256",
        "label": "mapping(uint256 => struct WithdrawalLocks.WithdrawLock)",
        "numberOfBytes": "32",
        "value": "t_struct(WithdrawLock)6481_storage"
      },
      "t_struct(Locks)6489_storage": {
        "encoding": "inplace",
        "label": "struct WithdrawalLocks.Locks",
        "members": [
          {
            "astId": 6486,
            "contract": "contracts/tenderizer/integrations/livepeer/Livepeer.sol:Livepeer",
            "label": "withdrawals",
            "offset": 0,
            "slot": "0",
            "type": "t_mapping(t_uint256,t_struct(WithdrawLock)6481_storage)"
          },
          {
            "astId": 6488,
            "contract": "contracts/tenderizer/integrations/livepeer/Livepeer.sol:Livepeer",
            "label": "nextWithdrawLockID",
            "offset": 0,
            "slot": "1",
            "type": "t_uint256"
          }
        ],
        "numberOfBytes": "64"
      },
      "t_struct(WithdrawLock)6481_storage": {
        "encoding": "inplace",
        "label": "struct WithdrawalLocks.WithdrawLock",
        "members": [
          {
            "astId": 6478,
            "contract": "contracts/tenderizer/integrations/livepeer/Livepeer.sol:Livepeer",
            "label": "amount",
            "offset": 0,
            "slot": "0",
            "type": "t_uint256"
          },
          {
            "astId": 6480,
            "contract": "contracts/tenderizer/integrations/livepeer/Livepeer.sol:Livepeer",
            "label": "account",
            "offset": 0,
            "slot": "1",
            "type": "t_address"
          }
        ],
        "numberOfBytes": "64"
      },
      "t_uint256": {
        "encoding": "inplace",
        "label": "uint256",
        "numberOfBytes": "32"
      }
    }
  }
}