{
  "address": "0x5504D47505596a6fBcB8e8171C92b2E666c995fb",
  "abi": [
    {
      "anonymous": false,
      "inputs": [
        {
          "indexed": true,
          "internalType": "address",
          "name": "from",
          "type": "address"
        },
        {
          "indexed": false,
          "internalType": "uint256",
          "name": "amount",
          "type": "uint256"
        }
      ],
      "name": "Deposit",
      "type": "event"
    },
    {
      "anonymous": false,
      "inputs": [
        {
          "indexed": false,
          "internalType": "enum GovernanceParameter",
          "name": "param",
          "type": "uint8"
        },
        {
          "indexed": false,
          "internalType": "bytes",
          "name": "oldValue",
          "type": "bytes"
        },
        {
          "indexed": false,
          "internalType": "bytes",
          "name": "newValue",
          "type": "bytes"
        }
      ],
      "name": "GovernanceUpdate",
      "type": "event"
    },
    {
      "anonymous": false,
      "inputs": [
        {
          "indexed": false,
          "internalType": "uint256",
          "name": "amount",
          "type": "uint256"
        }
      ],
      "name": "LiquidityFeeCollected",
      "type": "event"
    },
    {
      "anonymous": false,
      "inputs": [
        {
          "indexed": false,
          "internalType": "uint256",
          "name": "amount",
          "type": "uint256"
        }
      ],
      "name": "ProtocolFeeCollected",
      "type": "event"
    },
    {
      "anonymous": false,
      "inputs": [
        {
          "indexed": false,
          "internalType": "int256",
          "name": "stakeDiff",
          "type": "int256"
        },
        {
          "indexed": false,
          "internalType": "uint256",
          "name": "currentPrincipal",
          "type": "uint256"
        },
        {
          "indexed": false,
          "internalType": "uint256",
          "name": "oldPrincipal",
          "type": "uint256"
        }
      ],
      "name": "RewardsClaimed",
      "type": "event"
    },
    {
      "anonymous": false,
      "inputs": [
        {
          "indexed": true,
          "internalType": "address",
          "name": "node",
          "type": "address"
        },
        {
          "indexed": false,
          "internalType": "uint256",
          "name": "amount",
          "type": "uint256"
        }
      ],
      "name": "Stake",
      "type": "event"
    },
    {
      "anonymous": false,
      "inputs": [
        {
          "indexed": true,
          "internalType": "address",
          "name": "from",
          "type": "address"
        },
        {
          "indexed": true,
          "internalType": "address",
          "name": "node",
          "type": "address"
        },
        {
          "indexed": false,
          "internalType": "uint256",
          "name": "amount",
          "type": "uint256"
        },
        {
          "indexed": false,
          "internalType": "uint256",
          "name": "unstakeLockID",
          "type": "uint256"
        }
      ],
      "name": "Unstake",
      "type": "event"
    },
    {
      "anonymous": false,
      "inputs": [
        {
          "indexed": true,
          "internalType": "address",
          "name": "from",
          "type": "address"
        },
        {
          "indexed": false,
          "internalType": "uint256",
          "name": "amount",
          "type": "uint256"
        },
        {
          "indexed": false,
          "internalType": "uint256",
          "name": "unstakeLockID",
          "type": "uint256"
        }
      ],
      "name": "Withdraw",
      "type": "event"
    },
    {
      "inputs": [
        {
          "internalType": "uint256",
          "name": "_amountIn",
          "type": "uint256"
        }
      ],
      "name": "calcDepositOut",
      "outputs": [
        {
          "internalType": "uint256",
          "name": "",
          "type": "uint256"
        }
      ],
      "stateMutability": "view",
      "type": "function"
    },
    {
      "inputs": [],
      "name": "claimRewards",
      "outputs": [],
      "stateMutability": "nonpayable",
      "type": "function"
    },
    {
      "inputs": [],
      "name": "currentPrincipal",
      "outputs": [
        {
          "internalType": "uint256",
          "name": "",
          "type": "uint256"
        }
      ],
      "stateMutability": "view",
      "type": "function"
    },
    {
      "inputs": [
        {
          "internalType": "uint256",
          "name": "_amount",
          "type": "uint256"
        }
      ],
      "name": "deposit",
      "outputs": [],
      "stateMutability": "nonpayable",
      "type": "function"
    },
    {
      "inputs": [
        {
          "internalType": "uint256",
          "name": "_amount",
          "type": "uint256"
        },
        {
          "internalType": "uint256",
          "name": "_deadline",
          "type": "uint256"
        },
        {
          "internalType": "uint8",
          "name": "_v",
          "type": "uint8"
        },
        {
          "internalType": "bytes32",
          "name": "_r",
          "type": "bytes32"
        },
        {
          "internalType": "bytes32",
          "name": "_s",
          "type": "bytes32"
        }
      ],
      "name": "depositWithPermit",
      "outputs": [],
      "stateMutability": "nonpayable",
      "type": "function"
    },
    {
      "inputs": [],
      "name": "gov",
      "outputs": [
        {
          "internalType": "address",
          "name": "",
          "type": "address"
        }
      ],
      "stateMutability": "view",
      "type": "function"
    },
    {
      "inputs": [
        {
          "internalType": "contract IERC20",
          "name": "_steak",
          "type": "address"
        },
        {
          "internalType": "string",
          "name": "_symbol",
          "type": "string"
        },
        {
          "internalType": "contract ILivepeer",
          "name": "_livepeer",
          "type": "address"
        },
        {
          "internalType": "address",
          "name": "_node",
          "type": "address"
        },
        {
          "internalType": "uint256",
          "name": "_protocolFee",
          "type": "uint256"
        },
        {
          "internalType": "uint256",
          "name": "_liquidityFee",
          "type": "uint256"
        },
        {
          "internalType": "contract ITenderToken",
          "name": "_tenderTokenTarget",
          "type": "address"
        },
        {
          "internalType": "contract TenderFarmFactory",
          "name": "_tenderFarmFactory",
          "type": "address"
        },
        {
          "internalType": "contract ITenderSwapFactory",
          "name": "_tenderSwapFactory",
          "type": "address"
        }
      ],
      "name": "initialize",
      "outputs": [],
      "stateMutability": "nonpayable",
      "type": "function"
    },
    {
      "inputs": [],
      "name": "liquidityFee",
      "outputs": [
        {
          "internalType": "uint256",
          "name": "",
          "type": "uint256"
        }
      ],
      "stateMutability": "view",
      "type": "function"
    },
    {
      "inputs": [
        {
          "internalType": "address",
          "name": "_newNode",
          "type": "address"
        }
      ],
      "name": "migrateStake",
      "outputs": [],
      "stateMutability": "nonpayable",
      "type": "function"
    },
    {
      "inputs": [],
      "name": "node",
      "outputs": [
        {
          "internalType": "address",
          "name": "",
          "type": "address"
        }
      ],
      "stateMutability": "view",
      "type": "function"
    },
    {
      "inputs": [],
      "name": "protocolFee",
      "outputs": [
        {
          "internalType": "uint256",
          "name": "",
          "type": "uint256"
        }
      ],
      "stateMutability": "view",
      "type": "function"
    },
    {
      "inputs": [],
      "name": "rescueUnlock",
      "outputs": [
        {
          "internalType": "uint256",
          "name": "",
          "type": "uint256"
        }
      ],
      "stateMutability": "nonpayable",
      "type": "function"
    },
    {
      "inputs": [
        {
          "internalType": "uint256",
          "name": "_unstakeLockID",
          "type": "uint256"
        }
      ],
      "name": "rescueWithdraw",
      "outputs": [],
      "stateMutability": "nonpayable",
      "type": "function"
    },
    {
      "inputs": [
        {
          "internalType": "address",
          "name": "_token",
          "type": "address"
        },
        {
          "internalType": "uint256",
          "name": "_value",
          "type": "uint256"
        },
        {
          "internalType": "uint256",
          "name": "_deadline",
          "type": "uint256"
        },
        {
          "internalType": "uint8",
          "name": "_v",
          "type": "uint8"
        },
        {
          "internalType": "bytes32",
          "name": "_r",
          "type": "bytes32"
        },
        {
          "internalType": "bytes32",
          "name": "_s",
          "type": "bytes32"
        }
      ],
      "name": "selfPermit",
      "outputs": [],
      "stateMutability": "payable",
      "type": "function"
    },
    {
      "inputs": [
        {
          "internalType": "address",
          "name": "_token",
          "type": "address"
        },
        {
          "internalType": "uint256",
          "name": "_value",
          "type": "uint256"
        },
        {
          "internalType": "uint256",
          "name": "_deadline",
          "type": "uint256"
        },
        {
          "internalType": "uint8",
          "name": "_v",
          "type": "uint8"
        },
        {
          "internalType": "bytes32",
          "name": "_r",
          "type": "bytes32"
        },
        {
          "internalType": "bytes32",
          "name": "_s",
          "type": "bytes32"
        }
      ],
      "name": "selfPermitIfNecessary",
      "outputs": [],
      "stateMutability": "payable",
      "type": "function"
    },
    {
      "inputs": [
        {
          "internalType": "address",
          "name": "_gov",
          "type": "address"
        }
      ],
      "name": "setGov",
      "outputs": [],
      "stateMutability": "nonpayable",
      "type": "function"
    },
    {
      "inputs": [
        {
          "internalType": "uint256",
          "name": "_liquidityFee",
          "type": "uint256"
        }
      ],
      "name": "setLiquidityFee",
      "outputs": [],
      "stateMutability": "nonpayable",
      "type": "function"
    },
    {
      "inputs": [
        {
          "internalType": "address",
          "name": "_node",
          "type": "address"
        }
      ],
      "name": "setNode",
      "outputs": [],
      "stateMutability": "nonpayable",
      "type": "function"
    },
    {
      "inputs": [
        {
          "internalType": "uint256",
          "name": "_protocolFee",
          "type": "uint256"
        }
      ],
      "name": "setProtocolFee",
      "outputs": [],
      "stateMutability": "nonpayable",
      "type": "function"
    },
    {
      "inputs": [
        {
          "internalType": "address",
          "name": "_stakingContract",
          "type": "address"
        }
      ],
      "name": "setStakingContract",
      "outputs": [],
      "stateMutability": "nonpayable",
      "type": "function"
    },
    {
      "inputs": [
        {
          "internalType": "contract IERC20",
          "name": "_steak",
          "type": "address"
        }
      ],
      "name": "setSteak",
      "outputs": [],
      "stateMutability": "nonpayable",
      "type": "function"
    },
    {
      "inputs": [
        {
          "internalType": "contract ITenderFarm",
          "name": "_tenderFarm",
          "type": "address"
        }
      ],
      "name": "setTenderFarm",
      "outputs": [],
      "stateMutability": "nonpayable",
      "type": "function"
    },
    {
      "inputs": [
        {
          "internalType": "address",
          "name": "_uniswapRouter",
          "type": "address"
        }
      ],
      "name": "setUniswapRouter",
      "outputs": [],
      "stateMutability": "nonpayable",
      "type": "function"
    },
    {
      "inputs": [
        {
          "internalType": "uint256",
          "name": "_amount",
          "type": "uint256"
        }
      ],
      "name": "stake",
      "outputs": [],
      "stateMutability": "nonpayable",
      "type": "function"
    },
    {
      "inputs": [],
      "name": "steak",
      "outputs": [
        {
          "internalType": "contract IERC20",
          "name": "",
          "type": "address"
        }
      ],
      "stateMutability": "view",
      "type": "function"
    },
    {
      "inputs": [],
      "name": "tenderFarm",
      "outputs": [
        {
          "internalType": "contract ITenderFarm",
          "name": "",
          "type": "address"
        }
      ],
      "stateMutability": "view",
      "type": "function"
    },
    {
      "inputs": [],
      "name": "tenderSwap",
      "outputs": [
        {
          "internalType": "contract ITenderSwap",
          "name": "",
          "type": "address"
        }
      ],
      "stateMutability": "view",
      "type": "function"
    },
    {
      "inputs": [],
      "name": "tenderToken",
      "outputs": [
        {
          "internalType": "contract ITenderToken",
          "name": "",
          "type": "address"
        }
      ],
      "stateMutability": "view",
      "type": "function"
    },
    {
      "inputs": [],
      "name": "totalStakedTokens",
      "outputs": [
        {
          "internalType": "uint256",
          "name": "",
          "type": "uint256"
        }
      ],
      "stateMutability": "view",
      "type": "function"
    },
    {
      "inputs": [],
      "name": "uniswapRouter",
      "outputs": [
        {
          "internalType": "contract ISwapRouterWithWETH",
          "name": "",
          "type": "address"
        }
      ],
      "stateMutability": "view",
      "type": "function"
    },
    {
      "inputs": [
        {
          "internalType": "uint256",
          "name": "_amount",
          "type": "uint256"
        }
      ],
      "name": "unstake",
      "outputs": [
        {
          "internalType": "uint256",
          "name": "",
          "type": "uint256"
        }
      ],
      "stateMutability": "nonpayable",
      "type": "function"
    },
    {
      "inputs": [
        {
          "internalType": "uint256",
          "name": "_unstakeLockID",
          "type": "uint256"
        }
      ],
      "name": "withdraw",
      "outputs": [],
      "stateMutability": "nonpayable",
      "type": "function"
    }
  ],
  "transactionHash": "0x4d5aabba722c5a7117d7d2d184a0e2eeea8e3dbc8af29201ad83024e550356ec",
  "args": [],
  "numDeployments": 4,
  "solcInputHash": "5d756e2629fc7dd83820c5e1c738fd6e",
  "bytecode": "0x608060405234801561001057600080fd5b50612cbf806100206000396000f3fe6080604052600436106101e35760003560e01c80639dd373b911610102578063c2e3140a11610095578063ec6d80f611610064578063ec6d80f61461054d578063f3995c671461056d578063f4d95a7114610580578063fbdfc961146105a057600080fd5b8063c2e3140a146104da578063cfad57a2146104ed578063d70754ec1461050d578063e7165f4e1461052d57600080fd5b8063b0e21e8a116100d1578063b0e21e8a14610464578063b6b55f251461047a578063bea9849e1461049a578063c21d5ab7146104ba57600080fd5b80639dd373b9146103e4578063a26a546b14610404578063a694fc3a14610424578063afef75d21461044457600080fd5b80634a970be71161017a578063735de9f711610149578063735de9f714610370578063787dce3d146103905780637cb0c275146103b057806398118cb4146103ce57600080fd5b80634a970be7146102f457806351c669c0146103145780636991bc771461032a5780636f1903151461034a57600080fd5b8063357bf15c116101b6578063357bf15c1461029557806336a30f44146102b5578063372500ab146102ca5780633ae73259146102df57600080fd5b806312d43a51146101e85780632d822160146102255780632e17de78146102455780632e1a7d4d14610273575b600080fd5b3480156101f457600080fd5b50600854610208906001600160a01b031681565b6040516001600160a01b0390911681526020015b60405180910390f35b34801561023157600080fd5b50600154610208906001600160a01b031681565b34801561025157600080fd5b506102656102603660046128a5565b6105c0565b60405190815260200161021c565b34801561027f57600080fd5b5061029361028e3660046128a5565b610704565b005b3480156102a157600080fd5b506102936102b03660046128a5565b610711565b3480156102c157600080fd5b506102656107cc565b3480156102d657600080fd5b506102936107f8565b3480156102eb57600080fd5b50610265610802565b34801561030057600080fd5b5061029361030f3660046128d5565b61080d565b34801561032057600080fd5b5061026560075481565b34801561033657600080fd5b506102936103453660046128a5565b61083e565b34801561035657600080fd5b50600054610208906201000090046001600160a01b031681565b34801561037c57600080fd5b50600a54610208906001600160a01b031681565b34801561039c57600080fd5b506102936103ab3660046128a5565b610850565b3480156103bc57600080fd5b506102656103cb3660046128a5565b90565b3480156103da57600080fd5b5061026560065481565b3480156103f057600080fd5b506102936103ff36600461270c565b61090b565b34801561041057600080fd5b50600354610208906001600160a01b031681565b34801561043057600080fd5b5061029361043f3660046128a5565b61091c565b34801561045057600080fd5b5061029361045f36600461270c565b61092d565b34801561047057600080fd5b5061026560055481565b34801561048657600080fd5b506102936104953660046128a5565b6109d4565b3480156104a657600080fd5b506102936104b536600461270c565b6109de565b3480156104c657600080fd5b506102936104d536600461270c565b610a97565b6102936104e8366004612744565b610b31565b3480156104f957600080fd5b5061029361050836600461270c565b610bdb565b34801561051957600080fd5b50600454610208906001600160a01b031681565b34801561053957600080fd5b5061029361054836600461270c565b610c75565b34801561055957600080fd5b506102936105683660046127bd565b610d01565b61029361057b366004612744565b610d75565b34801561058c57600080fd5b50600254610208906001600160a01b031681565b3480156105ac57600080fd5b506102936105bb36600461270c565b610e01565b60008082116106045760405162461bcd60e51b815260206004820152600b60248201526a16915493d7d05353d5539560aa1b60448201526064015b60405180910390fd5b600154604051632770a7eb60e21b81526001600160a01b0390911690639dc29fac906106369033908690600401612a2e565b602060405180830381600087803b15801561065057600080fd5b505af1158015610664573d6000803e3d6000fd5b505050506040513d601f19601f82011682018060405250810190610688919061279d565b6106c95760405162461bcd60e51b815260206004820152601260248201527115115391115497d095549397d1905253115160721b60448201526064016105fb565b6004546000906106e49033906001600160a01b031685610e9b565b905082600760008282546106f89190612be1565b90915550909392505050565b61070e3382610f6d565b50565b610719611041565b681b1ae4d6e2ef5000008111156107645760405162461bcd60e51b815260206004820152600f60248201526e08c8a8abe8ab0868a8a88a6be9a82b608b1b60448201526064016105fb565b600080516020612c6a833981519152600460065460405160200161078a91815260200190565b60408051601f1981840301815282825260208301869052910160408051601f19818403018152908290526107bf939291612a47565b60405180910390a1600655565b60006107d6611041565b6004546007546107f39130916001600160a01b0390911690610e9b565b905090565b610800611058565b565b60006107f360075490565b60005461082d906201000090046001600160a01b03168686868686610d75565b6108373386611197565b5050505050565b610846611041565b61070e3082610f6d565b610858611041565b681b1ae4d6e2ef5000008111156108a35760405162461bcd60e51b815260206004820152600f60248201526e08c8a8abe8ab0868a8a88a6be9a82b608b1b60448201526064016105fb565b600080516020612c6a83398151915260036005546040516020016108c991815260200190565b60408051601f1981840301815282825260208301869052910160408051601f19818403018152908290526108fe939291612a47565b60405180910390a1600555565b610913611041565b61070e816112c7565b610924611041565b61070e81611359565b610935611041565b60005460408051620100009092046001600160a01b03166020830152600080516020612c6a833981519152916002910160408051601f198184030181528282526001600160a01b0386166020840152910160408051601f19818403018152908290526109a2939291612a47565b60405180910390a1600080546001600160a01b03909216620100000262010000600160b01b0319909216919091179055565b61070e3382611197565b6109e6611041565b600a80546001600160a01b0319166001600160a01b038316908117909155604080516312a9293f60e21b81529051634aa4a4fc916004808201926020929091908290030181600087803b158015610a3c57600080fd5b505af1158015610a50573d6000803e3d6000fd5b505050506040513d601f19601f82011682018060405250810190610a749190612728565b600980546001600160a01b0319166001600160a01b039290921691909117905550565b610a9f611041565b600454604080516001600160a01b039092166020830152600080516020612c6a833981519152916001910160408051601f198184030181528282526001600160a01b0386166020840152910160408051601f1981840301815290829052610b07939291612a47565b60405180910390a1600480546001600160a01b0319166001600160a01b0392909216919091179055565b604051636eb1769f60e11b81523360048201523060248201526000906001600160a01b0388169063dd62ed3e9060440160206040518083038186803b158015610b7957600080fd5b505afa158015610b8d573d6000803e3d6000fd5b505050506040513d601f19601f82011682018060405250810190610bb191906128bd565b905085811015610bd257610bd287610bc98389612be1565b87878787610d75565b50505050505050565b610be3611041565b600854604080516001600160a01b039092166020830152600080516020612c6a833981519152916000910160408051601f198184030181528282526001600160a01b0386166020840152910160408051601f1981840301815290829052610c4b939291612a47565b60405180910390a1600880546001600160a01b0319166001600160a01b0392909216919091179055565b610c7d611041565b600480546001600160a01b0319166001600160a01b038381169182178355600b54604051632de349f760e21b81526000948101949094526024840192909252169063b78d27dc90604401600060405180830381600087803b158015610ce157600080fd5b505af1158015610cf5573d6000803e3d6000fd5b5050505061070e611058565b610d498a8a8a8080601f0160208091040260200160405190810160405280939291908181526020018383808284376000920191909152508b92508a9150899050888888611436565b5050600b80546001600160a01b0319166001600160a01b03969096169590951790945550505050505050565b60405163d505accf60e01b8152336004820152306024820152604481018690526064810185905260ff8416608482015260a4810183905260c481018290526001600160a01b0387169063d505accf9060e401600060405180830381600087803b158015610de157600080fd5b505af1158015610df5573d6000803e3d6000fd5b50505050505050505050565b610e09611041565b600254604080516001600160a01b039092166020830152600080516020612c6a833981519152916005910160408051601f198184030181528282526001600160a01b0386166020840152910160408051601f1981840301815290829052610e71939291612a47565b60405180910390a1600280546001600160a01b0319166001600160a01b0392909216919091179055565b600b546040516313ef4f1960e11b81526004810183905260009183916001600160a01b03909116906327de9e3290602401600060405180830381600087803b158015610ee657600080fd5b505af1158015610efa573d6000803e3d6000fd5b50610f0d9250600c9150879050836118fc565b9150836001600160a01b0316856001600160a01b03167f18edd09e80386cd99df397e2e0d87d2bb259423eae08645e776321a36fe680ef8385604051610f5d929190918252602082015260400190565b60405180910390a3509392505050565b6000610f7b600c8484611960565b600b546040516325d5971f60e01b8152600481018590529192506001600160a01b0316906325d5971f90602401600060405180830381600087803b158015610fc257600080fd5b505af1158015610fd6573d6000803e3d6000fd5b5050600054610ff892506201000090046001600160a01b0316905084836119f0565b60408051828152602081018490526001600160a01b038516917ff279e6a1f5e320cca91135676d9cb6e44ca8a08c0b88342bcdb1144f6511b568910160405180910390a2505050565b6008546001600160a01b0316331461080057600080fd5b611060611a46565b600061106a611cfd565b905060008113156110e0576000819050600061108882600554611e77565b9050600061109883600654611e77565b9050806110a58385612be1565b6110af9190612be1565b600760008282546110c09190612b4b565b909155506110cf905082611e8a565b6110d881611f60565b50505061110f565b600081121561110f5760006110f482612c24565b905080600760008282546111089190612be1565b9091555050505b6000546040516370a0823160e01b815230600482015261070e916201000090046001600160a01b0316906370a082319060240160206040518083038186803b15801561115a57600080fd5b505afa15801561116e573d6000803e3d6000fd5b505050506040513d601f19601f8201168201806040525081019061119291906128bd565b611359565b600081116111d55760405162461bcd60e51b815260206004820152600b60248201526a16915493d7d05353d5539560aa1b60448201526064016105fb565b6001546040516340c10f1960e01b815282916001600160a01b0316906340c10f19906112079086908590600401612a2e565b602060405180830381600087803b15801561122157600080fd5b505af1158015611235573d6000803e3d6000fd5b505050506040513d601f19601f82011682018060405250810190611259919061279d565b61129a5760405162461bcd60e51b815260206004820152601260248201527115115391115497d352539517d1905253115160721b60448201526064016105fb565b6000546112b8906201000090046001600160a01b03168430856122b0565b6112c283836122e8565b505050565b600b54604080516001600160a01b039092166020830152600080516020612c6a833981519152916006910160408051601f198184030181528282526001600160a01b0386166020840152910160408051601f198184030181529082905261132f939291612a47565b60405180910390a1600b80546001600160a01b0319166001600160a01b0392909216919091179055565b8080611363575050565b600b54600054611386916001600160a01b0362010000909204821691168361233a565b600b5460048054604051632de349f760e21b81529182018490526001600160a01b0390811660248301529091169063b78d27dc90604401600060405180830381600087803b1580156113d757600080fd5b505af11580156113eb573d6000803e3d6000fd5b50506004546040518481526001600160a01b0390911692507febedb8b3c678666e7f36970bc8f57abf6d8fa2e828c0da91ea5b75bf68ed101a91506020015b60405180910390a25050565b600054610100900460ff168061144f575060005460ff16155b6114b25760405162461bcd60e51b815260206004820152602e60248201527f496e697469616c697a61626c653a20636f6e747261637420697320616c72656160448201526d191e481a5b9a5d1a585b1a5e995960921b60648201526084016105fb565b600054610100900460ff161580156114d4576000805461ffff19166101011790555b600080546001600160a01b03808c16620100000262010000600160b01b031990921691909117825560048054918a166001600160a01b0319928316179055600588905560068790556008805490911633179055611530856123e9565b90506000896040516020016115459190612a05565b60408051601f19818403018152908290526303bf912560e11b825291506001600160a01b0383169063077f224a90611585908d9081903090600401612aab565b602060405180830381600087803b15801561159f57600080fd5b505af11580156115b3573d6000803e3d6000fd5b505050506040513d601f19601f820116820180604052508101906115d7919061279d565b61161b5760405162461bcd60e51b81526020600482015260156024820152742320a4a62fa4a724aa2faa22a72222a92a27a5a2a760591b60448201526064016105fb565b81600160006101000a8154816001600160a01b0302191690836001600160a01b03160217905550836001600160a01b031663a57417566040518060800160405280856001600160a01b031681526020018e6001600160a01b03168152602001848e60405160200161168d929190612963565b6040516020818303038152906040528152602001848e6040516020016116b49291906129b7565b6040516020818303038152906040528152506040518263ffffffff1660e01b81526004016116e29190612ae9565b602060405180830381600087803b1580156116fc57600080fd5b505af1158015611710573d6000803e3d6000fd5b505050506040513d601f19601f820116820180604052508101906117349190612728565b600380546001600160a01b0319166001600160a01b0392909216918217905560405163f2fde38b60e01b815233600482015263f2fde38b90602401600060405180830381600087803b15801561178957600080fd5b505af115801561179d573d6000803e3d6000fd5b50505050846001600160a01b031663d9181cd3600360009054906101000a90046001600160a01b03166001600160a01b0316635fcbd2856040518163ffffffff1660e01b815260040160206040518083038186803b1580156117fe57600080fd5b505afa158015611812573d6000803e3d6000fd5b505050506040513d601f19601f820116820180604052508101906118369190612728565b6040516001600160e01b031960e084901b1681526001600160a01b0391821660048201529085166024820152306044820152606401602060405180830381600087803b15801561188557600080fd5b505af1158015611899573d6000803e3d6000fd5b505050506040513d601f19601f820116820180604052508101906118bd9190612728565b600280546001600160a01b0319166001600160a01b0392909216919091179055505080156118f1576000805461ff00191690555b505050505050505050565b6001808401549061190e908290612b4b565b6001858101919091556040805180820182529384526001600160a01b039485166020808601918252600085815297905295209251835593519190930180546001600160a01b0319169190921617905590565b60008181526020849052604090206001810154815491906001600160a01b0390811690851681146119c75760405162461bcd60e51b815260206004820152601160248201527008286869eaa9ca8be9a92a6a89a82a8869607b1b60448201526064016105fb565b505060009182526020939093526040812090815560010180546001600160a01b03191690555090565b6112c28363a9059cbb60e01b8484604051602401611a0f929190612a2e565b60408051601f198184030181529190526020810180516001600160e01b03166001600160e01b031990931692909217909152612486565b600b54604051633d657c7360e21b81526000916001600160a01b03169063f595f1cc90611a7b90309060001990600401612a2e565b60206040518083038186803b158015611a9357600080fd5b505afa158015611aa7573d6000803e3d6000fd5b505050506040513d601f19601f82011682018060405250810190611acb91906128bd565b9050801561070e57600b5460405163ad3b1b4760e01b81526001600160a01b039091169063ad3b1b4790611b059030908590600401612a2e565b600060405180830381600087803b158015611b1f57600080fd5b505af1158015611b33573d6000803e3d6000fd5b505060095460408051630d0e30db60e41b815290514794506001600160a01b03909216925063d0e30db091849160048082019260009290919082900301818588803b158015611b8157600080fd5b505af1158015611b95573d6000803e3d6000fd5b5050600a54600954611bb894506001600160a01b0390811693501690508361233a565b600a546001600160a01b031615611cf95760408051610100810182526009546001600160a01b039081168252600080546201000090048216602084019081526127108486019081523060608601908152426080870190815260a0870189815260c0880186815260e08901878152600a549a5163414bf38960e01b81528a518a166004820152965189166024880152945162ffffff166044870152925187166064860152905160848501525160a48401525160c483015251831660e482015290939091169063414bf3899061010401602060405180830381600087803b158015611ca057600080fd5b505af1925050508015611cd0575060408051601f3d908101601f19168201909252611ccd918101906128bd565b60015b611cd957611cf6565b82811161083757634e487b7160e01b600052600160045260246000fd5b50505b5050565b600b54604051634e85963d60e11b815260009182916001600160a01b0390911690639d0b2c7a90611d3690309060001990600401612a2e565b60206040518083038186803b158015611d4e57600080fd5b505afa158015611d62573d6000803e3d6000fd5b505050506040513d601f19601f82011682018060405250810190611d8691906128bd565b600754600080546040516370a0823160e01b815230600482015293945091929091611e1591620100009091046001600160a01b0316906370a082319060240160206040518083038186803b158015611ddd57600080fd5b505afa158015611df1573d6000803e3d6000fd5b505050506040513d601f19601f820116820180604052508101906103cb91906128bd565b9050611e218184612b4b565b9250611e2d8284612ba2565b60408051828152602081018690529081018490529094507f78c13bf6a7fae25f1085d594e546d7a97cb66a55bc9733c7ea78236c452663ec9060600160405180910390a150505090565b6000611e838383612558565b9392505050565b6001546008546040516340c10f1960e01b81526001600160a01b03928316926340c10f1992611ec0929116908590600401612a2e565b602060405180830381600087803b158015611eda57600080fd5b505af1158015611eee573d6000803e3d6000fd5b505050506040513d601f19601f82011682018060405250810190611f12919061279d565b508060076000828254611f259190612b4b565b90915550506040518181527f414d7d8eae12f648156e75499fc0a5a10aa84f2745c6f791b0453cb17f1e17fa9060200160405180910390a150565b60025460408051630134edf160e21b815290516000926001600160a01b0316916304d3b7c4916004808301926020929190829003018186803b158015611fa557600080fd5b505afa158015611fb9573d6000803e3d6000fd5b505050506040513d601f19601f82011682018060405250810190611fdd91906128bd565b11611fe55750565b6001546040516370a0823160e01b81523060048201526000916001600160a01b0316906370a082319060240160206040518083038186803b15801561202957600080fd5b505afa15801561203d573d6000803e3d6000fd5b505050506040513d601f19601f8201168201806040525081019061206191906128bd565b6001546040516340c10f1960e01b81529192506001600160a01b0316906340c10f19906120949030908690600401612a2e565b602060405180830381600087803b1580156120ae57600080fd5b505af11580156120c2573d6000803e3d6000fd5b505050506040513d601f19601f820116820180604052508101906120e6919061279d565b5081600760008282546120f99190612b4b565b90915550506001546040516370a0823160e01b81523060048201526000916001600160a01b0316906370a082319060240160206040518083038186803b15801561214257600080fd5b505afa158015612156573d6000803e3d6000fd5b505050506040513d601f19601f8201168201806040525081019061217a91906128bd565b905060006121888383612be1565b60015460025460405163095ea7b360e01b81529293506001600160a01b039182169263095ea7b3926121c09216908590600401612a2e565b602060405180830381600087803b1580156121da57600080fd5b505af11580156121ee573d6000803e3d6000fd5b505050506040513d601f19601f82011682018060405250810190612212919061279d565b5060025460405163beceed3960e01b8152600481018390526001600160a01b039091169063beceed3990602401600060405180830381600087803b15801561225957600080fd5b505af115801561226d573d6000803e3d6000fd5b505050507f1d8f4bab53e84801fc35b88b53df72a998fa29c92e6fc65d412c4677d0d88c62816040516122a291815260200190565b60405180910390a150505050565b6040516001600160a01b0380851660248301528316604482015260648101829052611cf69085906323b872dd60e01b90608401611a0f565b80600760008282546122fa9190612b4b565b90915550506040518181526001600160a01b038316907fe1fffcc4923d04b559f4d29a8bfc6cda04eb5b0d3c460751c2402c5c5cc9109c9060200161142a565b604051636eb1769f60e11b81523060048201526001600160a01b038381166024830152600091839186169063dd62ed3e9060440160206040518083038186803b15801561238657600080fd5b505afa15801561239a573d6000803e3d6000fd5b505050506040513d601f19601f820116820180604052508101906123be91906128bd565b6123c89190612b4b565b9050611cf68463095ea7b360e01b8584604051602401611a0f929190612a2e565b6000604051733d602d80600a3d3981f3363d3d373d3d3d363d7360601b81528260601b60148201526e5af43d82803e903d91602b57fd5bf360881b60288201526037816000f09150506001600160a01b0381166124815760405162461bcd60e51b8152602060048201526016602482015275115490cc4c4d8dce8818dc99585d194819985a5b195960521b60448201526064016105fb565b919050565b60006124db826040518060400160405280602081526020017f5361666545524332303a206c6f772d6c6576656c2063616c6c206661696c6564815250856001600160a01b03166125789092919063ffffffff16565b8051909150156112c257808060200190518101906124f9919061279d565b6112c25760405162461bcd60e51b815260206004820152602a60248201527f5361666545524332303a204552433230206f7065726174696f6e20646964206e6044820152691bdd081cdd58d8d9595960b21b60648201526084016105fb565b6000683635c9adc5dea0000061256e8385612b83565b611e839190612b63565b6060612587848460008561258f565b949350505050565b6060824710156125f05760405162461bcd60e51b815260206004820152602660248201527f416464726573733a20696e73756666696369656e742062616c616e636520666f6044820152651c8818d85b1b60d21b60648201526084016105fb565b843b61263e5760405162461bcd60e51b815260206004820152601d60248201527f416464726573733a2063616c6c20746f206e6f6e2d636f6e747261637400000060448201526064016105fb565b600080866001600160a01b0316858760405161265a9190612947565b60006040518083038185875af1925050503d8060008114612697576040519150601f19603f3d011682016040523d82523d6000602084013e61269c565b606091505b50915091506126ac8282866126b7565b979650505050505050565b606083156126c6575081611e83565b8251156126d65782518084602001fd5b8160405162461bcd60e51b81526004016105fb9190612a98565b803561248181612c54565b803560ff8116811461248157600080fd5b60006020828403121561271d578081fd5b8135611e8381612c54565b600060208284031215612739578081fd5b8151611e8381612c54565b60008060008060008060c0878903121561275c578182fd5b863561276781612c54565b95506020870135945060408701359350612783606088016126fb565b92506080870135915060a087013590509295509295509295565b6000602082840312156127ae578081fd5b81518015158114611e83578182fd5b6000806000806000806000806000806101208b8d0312156127dc578384fd5b8a356127e781612c54565b995060208b013567ffffffffffffffff80821115612803578586fd5b818d0191508d601f830112612816578586fd5b813581811115612824578687fd5b8e6020828501011115612835578687fd5b602083019b50809a5050505061284d60408c016126f0565b965061285b60608c016126f0565b955060808b0135945060a08b0135935061287760c08c016126f0565b925061288560e08c016126f0565b91506128946101008c016126f0565b90509295989b9194979a5092959850565b6000602082840312156128b6578081fd5b5035919050565b6000602082840312156128ce578081fd5b5051919050565b600080600080600060a086880312156128ec578283fd5b8535945060208601359350612903604087016126fb565b94979396509394606081013594506080013592915050565b60008151808452612933816020860160208601612bf8565b601f01601f19169290920160200192915050565b60008251612959818460208701612bf8565b9190910192915050565b60008351612975818460208801612bf8565b602d60f81b9083019081528351612993816001840160208801612bf8565b6a1029bbb0b8102a37b5b2b760a91b60019290910191820152600c01949350505050565b600083516129c9818460208801612bf8565b602d60f81b90830190815283516129e7816001840160208801612bf8565b6402d535741560dc1b60019290910191820152600601949350505050565b601d60fa1b815260008251612a21816001850160208701612bf8565b9190910160010192915050565b6001600160a01b03929092168252602082015260400190565b600060078510612a6557634e487b7160e01b81526021600452602481fd5b84825260606020830152612a7c606083018561291b565b8281036040840152612a8e818561291b565b9695505050505050565b602081526000611e83602083018461291b565b606081526000612abe606083018661291b565b8281036020840152612ad0818661291b565b91505060018060a01b0383166040830152949350505050565b60208152600060018060a01b0380845116602084015280602085015116604084015250604083015160806060840152612b2560a084018261291b565b90506060840151601f19848303016080850152612b42828261291b565b95945050505050565b60008219821115612b5e57612b5e612c3e565b500190565b600082612b7e57634e487b7160e01b81526012600452602481fd5b500490565b6000816000190483118215151615612b9d57612b9d612c3e565b500290565b60008083128015600160ff1b850184121615612bc057612bc0612c3e565b6001600160ff1b0384018313811615612bdb57612bdb612c3e565b50500390565b600082821015612bf357612bf3612c3e565b500390565b60005b83811015612c13578181015183820152602001612bfb565b83811115611cf65750506000910152565b6000600160ff1b821415612c3a57612c3a612c3e565b0390565b634e487b7160e01b600052601160045260246000fd5b6001600160a01b038116811461070e57600080fdfeafa7d9056777a2bdba5995f58db63fa530201a4b7e5de460e945332d81a9b117a26469706673582212207f7a321c9d6e3e482c43f5f896cb38145f648b425715c5ffc7d2e0ed229707a464736f6c63430008040033",
  "devdoc": {
    "kind": "dev",
    "methods": {
      "calcDepositOut(uint256)": {
        "details": "used by controller to calculate tokens to be minted before depositing.to be used when there a delegation tax is deducted, for eg. in Graph.",
        "returns": {
          "_0": "number of tokens staked for `amountIn`."
        }
      },
      "deposit(uint256)": {
        "details": "doesn't actually stakes the tokens but aggregates the balance in the tenderizer awaiting to be staked.requires '_amount' to be approved by '_from'.",
        "params": {
          "_amount": "amount deposited"
        }
      },
      "depositWithPermit(uint256,uint256,uint8,bytes32,bytes32)": {
        "details": "doesn't actually stakes the tokens but aggregates the balance in the tenderizer awaiting to be staked.requires '_amount' to be approved by '_from'.",
        "params": {
          "_amount": "amount deposited",
          "_deadline": "deadline for the permit",
          "_r": "from ECDSA signature",
          "_s": "from ECDSA signature",
          "_v": "from ECDSA signature"
        }
      },
      "rescueUnlock()": {
        "details": "Used to rescue all staked funds.",
        "returns": {
          "_0": "unstake lockID generated for unstake"
        }
      },
      "rescueWithdraw(uint256)": {
        "details": "To be called after rescueUnlock() with the unstakeLockID returned there.Process unlocks/withdrawals before rescueWithdraw for integrations with WithdrawPools."
      },
      "selfPermit(address,uint256,uint256,uint8,bytes32,bytes32)": {
        "details": "The `owner` is always msg.sender and the `spender` is always address(this).",
        "params": {
          "_deadline": "A timestamp, the current blocktime must be less than or equal to this timestamp",
          "_r": "Must produce valid secp256k1 signature from the holder along with `v` and `s`",
          "_s": "Must produce valid secp256k1 signature from the holder along with `r` and `v`",
          "_token": "The address of the token spent",
          "_v": "Must produce valid secp256k1 signature from the holder along with `r` and `s`",
          "_value": "The amount that can be spent of token"
        }
      },
      "selfPermitIfNecessary(address,uint256,uint256,uint8,bytes32,bytes32)": {
        "details": "The `owner` is always msg.sender and the `spender` is always address(this). Can be used instead of #selfPermit to prevent calls from failing due to a frontrun of a call to #selfPermit",
        "params": {
          "_deadline": "A timestamp, the current blocktime must be less than or equal to this timestamp",
          "_r": "Must produce valid secp256k1 signature from the holder along with `v` and `s`",
          "_s": "Must produce valid secp256k1 signature from the holder along with `r` and `v`",
          "_token": "The address of the token spent",
          "_v": "Must produce valid secp256k1 signature from the holder along with `r` and `s`",
          "_value": "The amount that can be spent of token"
        }
      },
      "stake(uint256)": {
        "details": "Only callable by Gov.",
        "params": {
          "_amount": "amount to stake"
        }
      },
      "totalStakedTokens()": {
        "returns": {
          "_0": "total amount staked by this Tenderizer"
        }
      },
      "unstake(uint256)": {
        "details": "unstake from the default address.If '_amount' is 0, unstake the entire amount staked towards _account.",
        "params": {
          "_amount": "amount to unstake"
        },
        "returns": {
          "_0": "unstake lockID generated for unstake"
        }
      },
      "withdraw(uint256)": {
        "details": "If '_amount' isn't specified all unstake tokens by '_account' will be withdrawn.Requires '_account' to have unstaked prior to calling withdraw.",
        "params": {
          "_unstakeLockID": "ID for the lock to request the withdraw for"
        }
      }
    },
    "version": 1
  },
  "userdoc": {
    "events": {
      "Deposit(address,uint256)": {
        "notice": "Deposit gets emitted when an accounts deposits underlying tokens."
      },
      "GovernanceUpdate(uint8,bytes,bytes)": {
        "notice": "GovernanceUpdate gets emitted when a parameter on the Tenderizer gets updated."
      },
      "LiquidityFeeCollected(uint256)": {
        "notice": "LiquidityFeeCollected gets emitted when liquidity provider fees are moved to the TenderFarm."
      },
      "ProtocolFeeCollected(uint256)": {
        "notice": "ProtocolFeeCollected gets emitted when the treasury claims its outstanding protocol fees."
      },
      "RewardsClaimed(int256,uint256,uint256)": {
        "notice": "RewardsClaimed gets emitted when the Tenderizer processes staking rewards (or slashing) from the underlying protocol."
      },
      "Stake(address,uint256)": {
        "notice": "Stake gets emitted when funds are staked/delegated from the Tenderizer contract into the underlying protocol."
      },
      "Unstake(address,address,uint256,uint256)": {
        "notice": "Unstake gets emitted when an account burns TenderTokens to unlock tokens staked through the Tenderizer"
      },
      "Withdraw(address,uint256,uint256)": {
        "notice": "Withdraw gets emitted when an account withdraws tokens that have been succesfully unstaked and thus unlocked for withdrawal."
      }
    },
    "kind": "user",
    "methods": {
      "calcDepositOut(uint256)": {
        "notice": "Returns the number of tenderTokens to be minted for amountIn deposit."
      },
      "claimRewards()": {
        "notice": "Compound all the rewards and new deposits. Claim staking rewards and earned fees for the underlying protocol and stake any leftover token balance. Process Tender protocol fees if revenue is positive."
      },
      "deposit(uint256)": {
        "notice": "Deposit tokens in Tenderizer."
      },
      "depositWithPermit(uint256,uint256,uint8,bytes32,bytes32)": {
        "notice": "Deposit tokens in Tenderizer with permit."
      },
      "rescueUnlock()": {
        "notice": "RescueUnstake unstakes all tokens from underlying protocol"
      },
      "rescueWithdraw(uint256)": {
        "notice": "RescueWithdraw withdraws all tokens into the Tenderizer from the underlying protocol after the unlock period ends"
      },
      "selfPermit(address,uint256,uint256,uint8,bytes32,bytes32)": {
        "notice": "Permits this contract to spend a given token from `msg.sender`"
      },
      "selfPermitIfNecessary(address,uint256,uint256,uint8,bytes32,bytes32)": {
        "notice": "Permits this contract to spend a given token from `msg.sender`"
      },
      "stake(uint256)": {
        "notice": "Stake '_amount' of tokens."
      },
      "totalStakedTokens()": {
        "notice": "Total Staked Tokens returns the total amount of underlying tokens staked by this Tenderizer."
      },
      "unstake(uint256)": {
        "notice": "Unstake '_amount' of tokens from '_account'."
      },
      "withdraw(uint256)": {
        "notice": "Withdraw '_amount' of tokens previously unstaked by '_account'."
      }
    },
    "version": 1
  },
  "storageLayout": {
    "storage": [
      {
        "astId": 2048,
        "contract": "contracts/tenderizer/integrations/livepeer/Livepeer.sol:Livepeer",
        "label": "_initialized",
        "offset": 0,
        "slot": "0",
        "type": "t_bool"
      },
      {
        "astId": 2051,
        "contract": "contracts/tenderizer/integrations/livepeer/Livepeer.sol:Livepeer",
        "label": "_initializing",
        "offset": 1,
        "slot": "0",
        "type": "t_bool"
      },
      {
        "astId": 5631,
        "contract": "contracts/tenderizer/integrations/livepeer/Livepeer.sol:Livepeer",
        "label": "steak",
        "offset": 2,
        "slot": "0",
        "type": "t_contract(IERC20)2712"
      },
      {
        "astId": 5634,
        "contract": "contracts/tenderizer/integrations/livepeer/Livepeer.sol:Livepeer",
        "label": "tenderToken",
        "offset": 0,
        "slot": "1",
        "type": "t_contract(ITenderToken)15866"
      },
      {
        "astId": 5637,
        "contract": "contracts/tenderizer/integrations/livepeer/Livepeer.sol:Livepeer",
        "label": "tenderFarm",
        "offset": 0,
        "slot": "2",
        "type": "t_contract(ITenderFarm)4846"
      },
      {
        "astId": 5640,
        "contract": "contracts/tenderizer/integrations/livepeer/Livepeer.sol:Livepeer",
        "label": "tenderSwap",
        "offset": 0,
        "slot": "3",
        "type": "t_contract(ITenderSwap)9689"
      },
      {
        "astId": 5642,
        "contract": "contracts/tenderizer/integrations/livepeer/Livepeer.sol:Livepeer",
        "label": "node",
        "offset": 0,
        "slot": "4",
        "type": "t_address"
      },
      {
        "astId": 5644,
        "contract": "contracts/tenderizer/integrations/livepeer/Livepeer.sol:Livepeer",
        "label": "protocolFee",
        "offset": 0,
        "slot": "5",
        "type": "t_uint256"
      },
      {
        "astId": 5646,
        "contract": "contracts/tenderizer/integrations/livepeer/Livepeer.sol:Livepeer",
        "label": "liquidityFee",
        "offset": 0,
        "slot": "6",
        "type": "t_uint256"
      },
      {
        "astId": 5648,
        "contract": "contracts/tenderizer/integrations/livepeer/Livepeer.sol:Livepeer",
        "label": "currentPrincipal",
        "offset": 0,
        "slot": "7",
        "type": "t_uint256"
      },
      {
        "astId": 5650,
        "contract": "contracts/tenderizer/integrations/livepeer/Livepeer.sol:Livepeer",
        "label": "gov",
        "offset": 0,
        "slot": "8",
        "type": "t_address"
      },
      {
        "astId": 8328,
        "contract": "contracts/tenderizer/integrations/livepeer/Livepeer.sol:Livepeer",
        "label": "WETH",
        "offset": 0,
        "slot": "9",
        "type": "t_contract(IWETH)4597"
      },
      {
        "astId": 8331,
        "contract": "contracts/tenderizer/integrations/livepeer/Livepeer.sol:Livepeer",
        "label": "uniswapRouter",
        "offset": 0,
        "slot": "10",
        "type": "t_contract(ISwapRouterWithWETH)4588"
      },
      {
        "astId": 8337,
        "contract": "contracts/tenderizer/integrations/livepeer/Livepeer.sol:Livepeer",
        "label": "livepeer",
        "offset": 0,
        "slot": "11",
        "type": "t_contract(ILivepeer)8292"
      },
      {
        "astId": 8340,
        "contract": "contracts/tenderizer/integrations/livepeer/Livepeer.sol:Livepeer",
        "label": "withdrawLocks",
        "offset": 0,
        "slot": "12",
        "type": "t_struct(Locks)6513_storage"
      }
    ],
    "types": {
      "t_address": {
        "encoding": "inplace",
        "label": "address",
        "numberOfBytes": "20"
      },
      "t_bool": {
        "encoding": "inplace",
        "label": "bool",
        "numberOfBytes": "1"
      },
      "t_contract(IERC20)2712": {
        "encoding": "inplace",
        "label": "contract IERC20",
        "numberOfBytes": "20"
      },
      "t_contract(ILivepeer)8292": {
        "encoding": "inplace",
        "label": "contract ILivepeer",
        "numberOfBytes": "20"
      },
      "t_contract(ISwapRouterWithWETH)4588": {
        "encoding": "inplace",
        "label": "contract ISwapRouterWithWETH",
        "numberOfBytes": "20"
      },
      "t_contract(ITenderFarm)4846": {
        "encoding": "inplace",
        "label": "contract ITenderFarm",
        "numberOfBytes": "20"
      },
      "t_contract(ITenderSwap)9689": {
        "encoding": "inplace",
        "label": "contract ITenderSwap",
        "numberOfBytes": "20"
      },
      "t_contract(ITenderToken)15866": {
        "encoding": "inplace",
        "label": "contract ITenderToken",
        "numberOfBytes": "20"
      },
      "t_contract(IWETH)4597": {
        "encoding": "inplace",
        "label": "contract IWETH",
        "numberOfBytes": "20"
      },
      "t_mapping(t_uint256,t_struct(WithdrawLock)6505_storage)": {
        "encoding": "mapping",
        "key": "t_uint256",
        "label": "mapping(uint256 => struct WithdrawalLocks.WithdrawLock)",
        "numberOfBytes": "32",
        "value": "t_struct(WithdrawLock)6505_storage"
      },
      "t_struct(Locks)6513_storage": {
        "encoding": "inplace",
        "label": "struct WithdrawalLocks.Locks",
        "members": [
          {
            "astId": 6510,
            "contract": "contracts/tenderizer/integrations/livepeer/Livepeer.sol:Livepeer",
            "label": "withdrawals",
            "offset": 0,
            "slot": "0",
            "type": "t_mapping(t_uint256,t_struct(WithdrawLock)6505_storage)"
          },
          {
            "astId": 6512,
            "contract": "contracts/tenderizer/integrations/livepeer/Livepeer.sol:Livepeer",
            "label": "nextWithdrawLockID",
            "offset": 0,
            "slot": "1",
            "type": "t_uint256"
          }
        ],
        "numberOfBytes": "64"
      },
      "t_struct(WithdrawLock)6505_storage": {
        "encoding": "inplace",
        "label": "struct WithdrawalLocks.WithdrawLock",
        "members": [
          {
            "astId": 6502,
            "contract": "contracts/tenderizer/integrations/livepeer/Livepeer.sol:Livepeer",
            "label": "amount",
            "offset": 0,
            "slot": "0",
            "type": "t_uint256"
          },
          {
            "astId": 6504,
            "contract": "contracts/tenderizer/integrations/livepeer/Livepeer.sol:Livepeer",
            "label": "account",
            "offset": 0,
            "slot": "1",
            "type": "t_address"
          }
        ],
        "numberOfBytes": "64"
      },
      "t_uint256": {
        "encoding": "inplace",
        "label": "uint256",
        "numberOfBytes": "32"
      }
    }
  }
}