{
  "address": "0x12cDf2dE03c4DB4d0Bb59c73B9065CADc931Aba6",
  "abi": [
    {
      "inputs": [
        {
          "internalType": "contract ITenderFarm",
          "name": "_farm",
          "type": "address"
        }
      ],
      "stateMutability": "nonpayable",
      "type": "constructor"
    },
    {
      "anonymous": false,
      "inputs": [
        {
          "indexed": false,
          "internalType": "contract ITenderFarm",
          "name": "farm",
          "type": "address"
        },
        {
          "indexed": false,
          "internalType": "contract IERC20",
          "name": "stakeToken",
          "type": "address"
        },
        {
          "indexed": false,
          "internalType": "contract ITenderToken",
          "name": "rewardToken",
          "type": "address"
        },
        {
          "indexed": false,
          "internalType": "contract ITenderizer",
          "name": "tenderizer",
          "type": "address"
        }
      ],
      "name": "NewTenderFarm",
      "type": "event"
    },
    {
      "inputs": [
        {
          "internalType": "contract IERC20",
          "name": "_stakeToken",
          "type": "address"
        },
        {
          "internalType": "contract ITenderToken",
          "name": "_rewardToken",
          "type": "address"
        },
        {
          "internalType": "contract ITenderizer",
          "name": "_tenderizer",
          "type": "address"
        }
      ],
      "name": "deploy",
      "outputs": [
        {
          "internalType": "contract ITenderFarm",
          "name": "farm",
          "type": "address"
        }
      ],
      "stateMutability": "nonpayable",
      "type": "function"
    }
  ],
  "transactionHash": "0x3f1a2d2760e2efc03a48812f397f7a0c24d555056959b8b93686d4818d481d87",
  "args": [
    "0xBA0C2D94284ac15aAb78077aaA97b66125fD1b64"
  ],
  "solcInputHash": "ffb99252a5f70d94c995ad5bcc98e5d3",
  "bytecode": "0x60a060405234801561001057600080fd5b506040516107b73803806107b783398181016040528101906100329190610084565b8073ffffffffffffffffffffffffffffffffffffffff1660808173ffffffffffffffffffffffffffffffffffffffff1660601b8152505050610108565b60008151905061007e816100f1565b92915050565b60006020828403121561009657600080fd5b60006100a48482850161006f565b91505092915050565b60006100b8826100d1565b9050919050565b60006100ca826100ad565b9050919050565b600073ffffffffffffffffffffffffffffffffffffffff82169050919050565b6100fa816100bf565b811461010557600080fd5b50565b60805160601c6106926101256000396000606701526106926000f3fe608060405234801561001057600080fd5b506004361061002b5760003560e01c8063d9181cd314610030575b600080fd5b61004a600480360381019061004591906102f1565b610060565b60405161005791906103f9565b60405180910390f35b600061008b7f000000000000000000000000000000000000000000000000000000000000000061019f565b90508073ffffffffffffffffffffffffffffffffffffffff1663c0c53b8b8585856040518463ffffffff1660e01b81526004016100ca939291906103c2565b602060405180830381600087803b1580156100e457600080fd5b505af11580156100f8573d6000803e3d6000fd5b505050506040513d601f19601f8201168201806040525081019061011c91906102c8565b61015b576040517f08c379a000000000000000000000000000000000000000000000000000000000815260040161015290610459565b60405180910390fd5b7f87bed2435244734f391df4cbb2d9c251e944678d127f8978f85a760cde102eb2818585856040516101909493929190610414565b60405180910390a19392505050565b60006040517f3d602d80600a3d3981f3363d3d373d3d3d363d7300000000000000000000000081528260601b60148201527f5af43d82803e903d91602b57fd5bf3000000000000000000000000000000000060288201526037816000f0915050600073ffffffffffffffffffffffffffffffffffffffff168173ffffffffffffffffffffffffffffffffffffffff16141561026f576040517f08c379a000000000000000000000000000000000000000000000000000000000815260040161026690610479565b60405180910390fd5b919050565b60008151905061028381610600565b92915050565b60008135905061029881610617565b92915050565b6000813590506102ad8161062e565b92915050565b6000813590506102c281610645565b92915050565b6000602082840312156102da57600080fd5b60006102e884828501610274565b91505092915050565b60008060006060848603121561030657600080fd5b600061031486828701610289565b93505060206103258682870161029e565b9250506040610336868287016102b3565b9150509250925092565b6103498161051e565b82525050565b61035881610542565b82525050565b61036781610566565b82525050565b6103768161058a565b82525050565b6000610389601483610499565b9150610394826105ae565b602082019050919050565b60006103ac601683610499565b91506103b7826105d7565b602082019050919050565b60006060820190506103d76000830186610340565b6103e4602083018561035e565b6103f1604083018461036d565b949350505050565b600060208201905061040e600083018461034f565b92915050565b6000608082019050610429600083018761034f565b6104366020830186610340565b610443604083018561035e565b610450606083018461036d565b95945050505050565b600060208201905081810360008301526104728161037c565b9050919050565b600060208201905081810360008301526104928161039f565b9050919050565b600082825260208201905092915050565b60006104b5826104fe565b9050919050565b60008115159050919050565b60006104d3826104aa565b9050919050565b60006104e5826104aa565b9050919050565b60006104f7826104aa565b9050919050565b600073ffffffffffffffffffffffffffffffffffffffff82169050919050565b600061052982610530565b9050919050565b600061053b826104fe565b9050919050565b600061054d82610554565b9050919050565b600061055f826104fe565b9050919050565b600061057182610578565b9050919050565b6000610583826104fe565b9050919050565b60006105958261059c565b9050919050565b60006105a7826104fe565b9050919050565b7f4641494c5f494e49545f54454e4445524641524d000000000000000000000000600082015250565b7f455243313136373a20637265617465206661696c656400000000000000000000600082015250565b610609816104bc565b811461061457600080fd5b50565b610620816104c8565b811461062b57600080fd5b50565b610637816104da565b811461064257600080fd5b50565b61064e816104ec565b811461065957600080fd5b5056fea2646970667358221220cd713327c42304f813aedf935f0641117ea9b0592f869296843026a55d78e1c764736f6c63430008040033",
  "devdoc": {
    "kind": "dev",
    "methods": {},
    "version": 1
  },
  "userdoc": {
    "kind": "user",
    "methods": {},
    "version": 1
  },
  "storageLayout": {
    "storage": [],
    "types": null
  }
}