{
  "address": "0xac7E1D17C1591de440F2ce3FD8e72d28c0C179f3",
  "abi": [
    {
      "inputs": [
        {
          "internalType": "contract ITenderSwap",
          "name": "_tenderSwapTarget",
          "type": "address"
        },
        {
          "internalType": "contract LiquidityPoolToken",
          "name": "_lpTokenTarget",
          "type": "address"
        },
        {
          "internalType": "uint256",
          "name": "_amplifier",
          "type": "uint256"
        },
        {
          "internalType": "uint256",
          "name": "_fee",
          "type": "uint256"
        },
        {
          "internalType": "uint256",
          "name": "_adminFee",
          "type": "uint256"
        }
      ],
      "stateMutability": "nonpayable",
      "type": "constructor"
    },
    {
      "anonymous": false,
      "inputs": [
        {
          "indexed": false,
          "internalType": "contract ITenderSwap",
          "name": "tenderSwap",
          "type": "address"
        },
        {
          "indexed": false,
          "internalType": "string",
          "name": "lpTokenName",
          "type": "string"
        },
        {
          "indexed": false,
          "internalType": "string",
          "name": "lpTokenSymbol",
          "type": "string"
        },
        {
          "indexed": false,
          "internalType": "uint256",
          "name": "amplifier",
          "type": "uint256"
        },
        {
          "indexed": false,
          "internalType": "uint256",
          "name": "fee",
          "type": "uint256"
        },
        {
          "indexed": false,
          "internalType": "uint256",
          "name": "adminFee",
          "type": "uint256"
        }
      ],
      "name": "NewTenderSwap",
      "type": "event"
    },
    {
      "inputs": [
        {
          "components": [
            {
              "internalType": "contract IERC20",
              "name": "token0",
              "type": "address"
            },
            {
              "internalType": "contract IERC20",
              "name": "token1",
              "type": "address"
            },
            {
              "internalType": "string",
              "name": "lpTokenName",
              "type": "string"
            },
            {
              "internalType": "string",
              "name": "lpTokenSymbol",
              "type": "string"
            }
          ],
          "internalType": "struct ITenderSwapFactory.Config",
          "name": "_config",
          "type": "tuple"
        }
      ],
      "name": "deploy",
      "outputs": [
        {
          "internalType": "contract ITenderSwap",
          "name": "tenderSwap",
          "type": "address"
        }
      ],
      "stateMutability": "nonpayable",
      "type": "function"
    }
  ],
  "transactionHash": "0x0ecbba38aee11cc306e74faf390af67156587b32d6551ff30fba21a141e32483",
  "args": [
    "0x17014657B07F5359247Bd36518E0107918073F48",
    "0x4f64c10bDF211914CC6Df0C809ca225A121FF09A",
    "30",
    "50000000",
    "0"
  ],
  "solcInputHash": "ffb99252a5f70d94c995ad5bcc98e5d3",
  "bytecode": "0x6101206040523480156200001257600080fd5b5060405162000be538038062000be583398181016040528101906200003891906200010f565b8473ffffffffffffffffffffffffffffffffffffffff1660808173ffffffffffffffffffffffffffffffffffffffff1660601b815250508373ffffffffffffffffffffffffffffffffffffffff1660a08173ffffffffffffffffffffffffffffffffffffffff1660601b815250508260c081815250508160e08181525050806101008181525050505050505062000245565b600081519050620000db81620001f7565b92915050565b600081519050620000f28162000211565b92915050565b60008151905062000109816200022b565b92915050565b600080600080600060a086880312156200012857600080fd5b60006200013888828901620000ca565b95505060206200014b88828901620000e1565b94505060406200015e88828901620000f8565b93505060606200017188828901620000f8565b92505060806200018488828901620000f8565b9150509295509295909350565b60006200019e82620001cd565b9050919050565b6000620001b28262000191565b9050919050565b6000620001c68262000191565b9050919050565b600073ffffffffffffffffffffffffffffffffffffffff82169050919050565b6000819050919050565b6200020281620001a5565b81146200020e57600080fd5b50565b6200021c81620001b9565b81146200022857600080fd5b50565b6200023681620001ed565b81146200024257600080fd5b50565b60805160601c60a05160601c60c05160e05161010051610942620002a360003960008181610133015261031a01526000818161011201526102f901526000818160f101526102d80152600061015401526000606701526109426000f3fe608060405234801561001057600080fd5b506004361061002b5760003560e01c8063a574175614610030575b600080fd5b61004a600480360381019061004591906104c6565b610060565b6040516100579190610670565b60405180910390f35b600061008b7f000000000000000000000000000000000000000000000000000000000000000061035a565b90508073ffffffffffffffffffffffffffffffffffffffff1663afcd5f4b8360000160208101906100bc919061049d565b8460200160208101906100cf919061049d565b8580604001906100df919061073e565b8780606001906100ef919061073e565b7f00000000000000000000000000000000000000000000000000000000000000007f00000000000000000000000000000000000000000000000000000000000000007f00000000000000000000000000000000000000000000000000000000000000007f00000000000000000000000000000000000000000000000000000000000000006040518b63ffffffff1660e01b81526004016101989a999897969594939291906105e0565b602060405180830381600087803b1580156101b257600080fd5b505af11580156101c6573d6000803e3d6000fd5b505050506040513d601f19601f820116820180604052508101906101ea9190610474565b610229576040517f08c379a00000000000000000000000000000000000000000000000000000000081526004016102209061071e565b60405180910390fd5b8073ffffffffffffffffffffffffffffffffffffffff1663f2fde38b336040518263ffffffff1660e01b815260040161026291906105c5565b600060405180830381600087803b15801561027c57600080fd5b505af1158015610290573d6000803e3d6000fd5b505050507f1f6e1c6892ad8059138309b890052981e11db1d8b59bfb9a5cb61af5828de7c6818380604001906102c6919061073e565b8580606001906102d6919061073e565b7f00000000000000000000000000000000000000000000000000000000000000007f00000000000000000000000000000000000000000000000000000000000000007f000000000000000000000000000000000000000000000000000000000000000060405161034d98979695949392919061068b565b60405180910390a1919050565b60006040517f3d602d80600a3d3981f3363d3d373d3d3d363d7300000000000000000000000081528260601b60148201527f5af43d82803e903d91602b57fd5bf3000000000000000000000000000000000060288201526037816000f0915050600073ffffffffffffffffffffffffffffffffffffffff168173ffffffffffffffffffffffffffffffffffffffff16141561042a576040517f08c379a0000000000000000000000000000000000000000000000000000000008152600401610421906106fe565b60405180910390fd5b919050565b60008151905061043e816108de565b92915050565b600081359050610453816108f5565b92915050565b60006080828403121561046b57600080fd5b81905092915050565b60006020828403121561048657600080fd5b60006104948482850161042f565b91505092915050565b6000602082840312156104af57600080fd5b60006104bd84828501610444565b91505092915050565b6000602082840312156104d857600080fd5b600082013567ffffffffffffffff8111156104f257600080fd5b6104fe84828501610459565b91505092915050565b610510816107a6565b82525050565b61051f81610800565b82525050565b61052e81610824565b82525050565b61053d81610848565b82525050565b600061054f8385610795565b935061055c83858461086c565b6105658361087b565b840190509392505050565b600061057d601683610795565b91506105888261088c565b602082019050919050565b60006105a0601483610795565b91506105ab826108b5565b602082019050919050565b6105bf816107f6565b82525050565b60006020820190506105da6000830184610507565b92915050565b6000610100820190506105f6600083018d610516565b610603602083018c610516565b8181036040830152610616818a8c610543565b9050818103606083015261062b81888a610543565b905061063a60808301876105b6565b61064760a08301866105b6565b61065460c08301856105b6565b61066160e0830184610534565b9b9a5050505050505050505050565b60006020820190506106856000830184610525565b92915050565b600060c0820190506106a0600083018b610525565b81810360208301526106b381898b610543565b905081810360408301526106c8818789610543565b90506106d760608301866105b6565b6106e460808301856105b6565b6106f160a08301846105b6565b9998505050505050505050565b6000602082019050818103600083015261071781610570565b9050919050565b6000602082019050818103600083015261073781610593565b9050919050565b6000808335600160200384360303811261075757600080fd5b80840192508235915067ffffffffffffffff82111561077557600080fd5b60208301925060018202360383131561078d57600080fd5b509250929050565b600082825260208201905092915050565b60006107b1826107d6565b9050919050565b60008115159050919050565b60006107cf826107a6565b9050919050565b600073ffffffffffffffffffffffffffffffffffffffff82169050919050565b6000819050919050565b600061080b82610812565b9050919050565b600061081d826107d6565b9050919050565b600061082f82610836565b9050919050565b6000610841826107d6565b9050919050565b60006108538261085a565b9050919050565b6000610865826107d6565b9050919050565b82818337600083830152505050565b6000601f19601f8301169050919050565b7f455243313136373a20637265617465206661696c656400000000000000000000600082015250565b7f4641494c5f494e49545f54454e44455253574150000000000000000000000000600082015250565b6108e7816107b8565b81146108f257600080fd5b50565b6108fe816107c4565b811461090957600080fd5b5056fea2646970667358221220010e30c11e34e8a485dfd7635e18f5ed6bdc77804377b9879f5a009328f89b6864736f6c63430008040033",
  "devdoc": {
    "kind": "dev",
    "methods": {},
    "version": 1
  },
  "userdoc": {
    "kind": "user",
    "methods": {},
    "version": 1
  },
  "storageLayout": {
    "storage": [],
    "types": null
  }
}