{
  "address": "0x34b9f0db54de627845e83ed1C30729E1Bc7C7971",
  "abi": [
    {
      "anonymous": false,
      "inputs": [
        {
          "indexed": true,
          "internalType": "address",
          "name": "provider",
          "type": "address"
        },
        {
          "indexed": false,
          "internalType": "uint256[2]",
          "name": "tokenAmounts",
          "type": "uint256[2]"
        },
        {
          "indexed": false,
          "internalType": "uint256[2]",
          "name": "fees",
          "type": "uint256[2]"
        },
        {
          "indexed": false,
          "internalType": "uint256",
          "name": "invariant",
          "type": "uint256"
        },
        {
          "indexed": false,
          "internalType": "uint256",
          "name": "lpTokenSupply",
          "type": "uint256"
        }
      ],
      "name": "AddLiquidity",
      "type": "event"
    },
    {
      "anonymous": false,
      "inputs": [
        {
          "indexed": false,
          "internalType": "uint256",
          "name": "newAdminFee",
          "type": "uint256"
        }
      ],
      "name": "NewAdminFee",
      "type": "event"
    },
    {
      "anonymous": false,
      "inputs": [
        {
          "indexed": false,
          "internalType": "uint256",
          "name": "newSwapFee",
          "type": "uint256"
        }
      ],
      "name": "NewSwapFee",
      "type": "event"
    },
    {
      "anonymous": false,
      "inputs": [
        {
          "indexed": true,
          "internalType": "address",
          "name": "previousOwner",
          "type": "address"
        },
        {
          "indexed": true,
          "internalType": "address",
          "name": "newOwner",
          "type": "address"
        }
      ],
      "name": "OwnershipTransferred",
      "type": "event"
    },
    {
      "anonymous": false,
      "inputs": [
        {
          "indexed": false,
          "internalType": "uint256",
          "name": "oldA",
          "type": "uint256"
        },
        {
          "indexed": false,
          "internalType": "uint256",
          "name": "newA",
          "type": "uint256"
        },
        {
          "indexed": false,
          "internalType": "uint256",
          "name": "initialTime",
          "type": "uint256"
        },
        {
          "indexed": false,
          "internalType": "uint256",
          "name": "futureTime",
          "type": "uint256"
        }
      ],
      "name": "RampA",
      "type": "event"
    },
    {
      "anonymous": false,
      "inputs": [
        {
          "indexed": true,
          "internalType": "address",
          "name": "provider",
          "type": "address"
        },
        {
          "indexed": false,
          "internalType": "uint256[2]",
          "name": "tokenAmounts",
          "type": "uint256[2]"
        },
        {
          "indexed": false,
          "internalType": "uint256",
          "name": "lpTokenSupply",
          "type": "uint256"
        }
      ],
      "name": "RemoveLiquidity",
      "type": "event"
    },
    {
      "anonymous": false,
      "inputs": [
        {
          "indexed": true,
          "internalType": "address",
          "name": "provider",
          "type": "address"
        },
        {
          "indexed": false,
          "internalType": "uint256[2]",
          "name": "tokenAmounts",
          "type": "uint256[2]"
        },
        {
          "indexed": false,
          "internalType": "uint256[2]",
          "name": "fees",
          "type": "uint256[2]"
        },
        {
          "indexed": false,
          "internalType": "uint256",
          "name": "invariant",
          "type": "uint256"
        },
        {
          "indexed": false,
          "internalType": "uint256",
          "name": "lpTokenSupply",
          "type": "uint256"
        }
      ],
      "name": "RemoveLiquidityImbalance",
      "type": "event"
    },
    {
      "anonymous": false,
      "inputs": [
        {
          "indexed": true,
          "internalType": "address",
          "name": "provider",
          "type": "address"
        },
        {
          "indexed": false,
          "internalType": "uint256",
          "name": "lpTokenAmount",
          "type": "uint256"
        },
        {
          "indexed": false,
          "internalType": "uint256",
          "name": "lpTokenSupply",
          "type": "uint256"
        },
        {
          "indexed": false,
          "internalType": "contract IERC20",
          "name": "tokenReceived",
          "type": "address"
        },
        {
          "indexed": false,
          "internalType": "uint256",
          "name": "receivedAmount",
          "type": "uint256"
        }
      ],
      "name": "RemoveLiquidityOne",
      "type": "event"
    },
    {
      "anonymous": false,
      "inputs": [
        {
          "indexed": false,
          "internalType": "uint256",
          "name": "currentA",
          "type": "uint256"
        },
        {
          "indexed": false,
          "internalType": "uint256",
          "name": "time",
          "type": "uint256"
        }
      ],
      "name": "StopRampA",
      "type": "event"
    },
    {
      "anonymous": false,
      "inputs": [
        {
          "indexed": true,
          "internalType": "address",
          "name": "buyer",
          "type": "address"
        },
        {
          "indexed": false,
          "internalType": "contract IERC20",
          "name": "tokenSold",
          "type": "address"
        },
        {
          "indexed": false,
          "internalType": "uint256",
          "name": "amountSold",
          "type": "uint256"
        },
        {
          "indexed": false,
          "internalType": "uint256",
          "name": "amountReceived",
          "type": "uint256"
        }
      ],
      "name": "Swap",
      "type": "event"
    },
    {
      "inputs": [
        {
          "internalType": "uint256[2]",
          "name": "_amounts",
          "type": "uint256[2]"
        },
        {
          "internalType": "uint256",
          "name": "_minToMint",
          "type": "uint256"
        },
        {
          "internalType": "uint256",
          "name": "_deadline",
          "type": "uint256"
        }
      ],
      "name": "addLiquidity",
      "outputs": [
        {
          "internalType": "uint256",
          "name": "",
          "type": "uint256"
        }
      ],
      "stateMutability": "nonpayable",
      "type": "function"
    },
    {
      "inputs": [],
      "name": "amplificationParams",
      "outputs": [
        {
          "internalType": "uint256",
          "name": "initialA",
          "type": "uint256"
        },
        {
          "internalType": "uint256",
          "name": "futureA",
          "type": "uint256"
        },
        {
          "internalType": "uint256",
          "name": "initialATime",
          "type": "uint256"
        },
        {
          "internalType": "uint256",
          "name": "futureATime",
          "type": "uint256"
        }
      ],
      "stateMutability": "view",
      "type": "function"
    },
    {
      "inputs": [
        {
          "internalType": "uint256",
          "name": "amount",
          "type": "uint256"
        }
      ],
      "name": "calculateRemoveLiquidity",
      "outputs": [
        {
          "internalType": "uint256[2]",
          "name": "",
          "type": "uint256[2]"
        }
      ],
      "stateMutability": "view",
      "type": "function"
    },
    {
      "inputs": [
        {
          "internalType": "uint256",
          "name": "tokenAmount",
          "type": "uint256"
        },
        {
          "internalType": "contract IERC20",
          "name": "tokenReceive",
          "type": "address"
        }
      ],
      "name": "calculateRemoveLiquidityOneToken",
      "outputs": [
        {
          "internalType": "uint256",
          "name": "",
          "type": "uint256"
        }
      ],
      "stateMutability": "view",
      "type": "function"
    },
    {
      "inputs": [
        {
          "internalType": "contract IERC20",
          "name": "_tokenFrom",
          "type": "address"
        },
        {
          "internalType": "uint256",
          "name": "_dx",
          "type": "uint256"
        }
      ],
      "name": "calculateSwap",
      "outputs": [
        {
          "internalType": "uint256",
          "name": "",
          "type": "uint256"
        }
      ],
      "stateMutability": "view",
      "type": "function"
    },
    {
      "inputs": [
        {
          "internalType": "uint256[]",
          "name": "amounts",
          "type": "uint256[]"
        },
        {
          "internalType": "bool",
          "name": "deposit",
          "type": "bool"
        }
      ],
      "name": "calculateTokenAmount",
      "outputs": [
        {
          "internalType": "uint256",
          "name": "",
          "type": "uint256"
        }
      ],
      "stateMutability": "view",
      "type": "function"
    },
    {
      "inputs": [],
      "name": "feeParams",
      "outputs": [
        {
          "internalType": "uint256",
          "name": "swapFee",
          "type": "uint256"
        },
        {
          "internalType": "uint256",
          "name": "adminFee",
          "type": "uint256"
        }
      ],
      "stateMutability": "view",
      "type": "function"
    },
    {
      "inputs": [],
      "name": "getA",
      "outputs": [
        {
          "internalType": "uint256",
          "name": "",
          "type": "uint256"
        }
      ],
      "stateMutability": "view",
      "type": "function"
    },
    {
      "inputs": [],
      "name": "getAPrecise",
      "outputs": [
        {
          "internalType": "uint256",
          "name": "",
          "type": "uint256"
        }
      ],
      "stateMutability": "view",
      "type": "function"
    },
    {
      "inputs": [],
      "name": "getToken0",
      "outputs": [
        {
          "internalType": "contract IERC20",
          "name": "",
          "type": "address"
        }
      ],
      "stateMutability": "view",
      "type": "function"
    },
    {
      "inputs": [],
      "name": "getToken0Balance",
      "outputs": [
        {
          "internalType": "uint256",
          "name": "",
          "type": "uint256"
        }
      ],
      "stateMutability": "view",
      "type": "function"
    },
    {
      "inputs": [],
      "name": "getToken1",
      "outputs": [
        {
          "internalType": "contract IERC20",
          "name": "",
          "type": "address"
        }
      ],
      "stateMutability": "view",
      "type": "function"
    },
    {
      "inputs": [],
      "name": "getToken1Balance",
      "outputs": [
        {
          "internalType": "uint256",
          "name": "",
          "type": "uint256"
        }
      ],
      "stateMutability": "view",
      "type": "function"
    },
    {
      "inputs": [],
      "name": "getVirtualPrice",
      "outputs": [
        {
          "internalType": "uint256",
          "name": "",
          "type": "uint256"
        }
      ],
      "stateMutability": "view",
      "type": "function"
    },
    {
      "inputs": [
        {
          "internalType": "contract IERC20",
          "name": "_token0",
          "type": "address"
        },
        {
          "internalType": "contract IERC20",
          "name": "_token1",
          "type": "address"
        },
        {
          "internalType": "string",
          "name": "lpTokenName",
          "type": "string"
        },
        {
          "internalType": "string",
          "name": "lpTokenSymbol",
          "type": "string"
        },
        {
          "internalType": "uint256",
          "name": "_a",
          "type": "uint256"
        },
        {
          "internalType": "uint256",
          "name": "_fee",
          "type": "uint256"
        },
        {
          "internalType": "uint256",
          "name": "_adminFee",
          "type": "uint256"
        },
        {
          "internalType": "contract LiquidityPoolToken",
          "name": "lpTokenTargetAddress",
          "type": "address"
        }
      ],
      "name": "initialize",
      "outputs": [
        {
          "internalType": "bool",
          "name": "",
          "type": "bool"
        }
      ],
      "stateMutability": "nonpayable",
      "type": "function"
    },
    {
      "inputs": [],
      "name": "lpToken",
      "outputs": [
        {
          "internalType": "contract LiquidityPoolToken",
          "name": "",
          "type": "address"
        }
      ],
      "stateMutability": "view",
      "type": "function"
    },
    {
      "inputs": [
        {
          "internalType": "bytes[]",
          "name": "_data",
          "type": "bytes[]"
        }
      ],
      "name": "multicall",
      "outputs": [
        {
          "internalType": "bytes[]",
          "name": "results",
          "type": "bytes[]"
        }
      ],
      "stateMutability": "payable",
      "type": "function"
    },
    {
      "inputs": [],
      "name": "owner",
      "outputs": [
        {
          "internalType": "address",
          "name": "",
          "type": "address"
        }
      ],
      "stateMutability": "view",
      "type": "function"
    },
    {
      "inputs": [
        {
          "internalType": "uint256",
          "name": "futureA",
          "type": "uint256"
        },
        {
          "internalType": "uint256",
          "name": "futureTime",
          "type": "uint256"
        }
      ],
      "name": "rampA",
      "outputs": [],
      "stateMutability": "nonpayable",
      "type": "function"
    },
    {
      "inputs": [
        {
          "internalType": "uint256",
          "name": "amount",
          "type": "uint256"
        },
        {
          "internalType": "uint256[2]",
          "name": "minAmounts",
          "type": "uint256[2]"
        },
        {
          "internalType": "uint256",
          "name": "deadline",
          "type": "uint256"
        }
      ],
      "name": "removeLiquidity",
      "outputs": [
        {
          "internalType": "uint256[2]",
          "name": "",
          "type": "uint256[2]"
        }
      ],
      "stateMutability": "nonpayable",
      "type": "function"
    },
    {
      "inputs": [
        {
          "internalType": "uint256[2]",
          "name": "_amounts",
          "type": "uint256[2]"
        },
        {
          "internalType": "uint256",
          "name": "_maxBurnAmount",
          "type": "uint256"
        },
        {
          "internalType": "uint256",
          "name": "_deadline",
          "type": "uint256"
        }
      ],
      "name": "removeLiquidityImbalance",
      "outputs": [
        {
          "internalType": "uint256",
          "name": "",
          "type": "uint256"
        }
      ],
      "stateMutability": "nonpayable",
      "type": "function"
    },
    {
      "inputs": [
        {
          "internalType": "uint256",
          "name": "_tokenAmount",
          "type": "uint256"
        },
        {
          "internalType": "contract IERC20",
          "name": "_tokenReceive",
          "type": "address"
        },
        {
          "internalType": "uint256",
          "name": "_minAmount",
          "type": "uint256"
        },
        {
          "internalType": "uint256",
          "name": "_deadline",
          "type": "uint256"
        }
      ],
      "name": "removeLiquidityOneToken",
      "outputs": [
        {
          "internalType": "uint256",
          "name": "",
          "type": "uint256"
        }
      ],
      "stateMutability": "nonpayable",
      "type": "function"
    },
    {
      "inputs": [],
      "name": "renounceOwnership",
      "outputs": [],
      "stateMutability": "nonpayable",
      "type": "function"
    },
    {
      "inputs": [
        {
          "internalType": "address",
          "name": "_token",
          "type": "address"
        },
        {
          "internalType": "uint256",
          "name": "_value",
          "type": "uint256"
        },
        {
          "internalType": "uint256",
          "name": "_deadline",
          "type": "uint256"
        },
        {
          "internalType": "uint8",
          "name": "_v",
          "type": "uint8"
        },
        {
          "internalType": "bytes32",
          "name": "_r",
          "type": "bytes32"
        },
        {
          "internalType": "bytes32",
          "name": "_s",
          "type": "bytes32"
        }
      ],
      "name": "selfPermit",
      "outputs": [],
      "stateMutability": "payable",
      "type": "function"
    },
    {
      "inputs": [
        {
          "internalType": "address",
          "name": "_token",
          "type": "address"
        },
        {
          "internalType": "uint256",
          "name": "_value",
          "type": "uint256"
        },
        {
          "internalType": "uint256",
          "name": "_deadline",
          "type": "uint256"
        },
        {
          "internalType": "uint8",
          "name": "_v",
          "type": "uint8"
        },
        {
          "internalType": "bytes32",
          "name": "_r",
          "type": "bytes32"
        },
        {
          "internalType": "bytes32",
          "name": "_s",
          "type": "bytes32"
        }
      ],
      "name": "selfPermitIfNecessary",
      "outputs": [],
      "stateMutability": "payable",
      "type": "function"
    },
    {
      "inputs": [
        {
          "internalType": "uint256",
          "name": "newAdminFee",
          "type": "uint256"
        }
      ],
      "name": "setAdminFee",
      "outputs": [],
      "stateMutability": "nonpayable",
      "type": "function"
    },
    {
      "inputs": [
        {
          "internalType": "uint256",
          "name": "newSwapFee",
          "type": "uint256"
        }
      ],
      "name": "setSwapFee",
      "outputs": [],
      "stateMutability": "nonpayable",
      "type": "function"
    },
    {
      "inputs": [],
      "name": "stopRampA",
      "outputs": [],
      "stateMutability": "nonpayable",
      "type": "function"
    },
    {
      "inputs": [
        {
          "internalType": "contract IERC20",
          "name": "_tokenFrom",
          "type": "address"
        },
        {
          "internalType": "uint256",
          "name": "_dx",
          "type": "uint256"
        },
        {
          "internalType": "uint256",
          "name": "_minDy",
          "type": "uint256"
        },
        {
          "internalType": "uint256",
          "name": "_deadline",
          "type": "uint256"
        }
      ],
      "name": "swap",
      "outputs": [
        {
          "internalType": "uint256",
          "name": "",
          "type": "uint256"
        }
      ],
      "stateMutability": "nonpayable",
      "type": "function"
    },
    {
      "inputs": [
        {
          "internalType": "address",
          "name": "_newOwnner",
          "type": "address"
        }
      ],
      "name": "transferOwnership",
      "outputs": [],
      "stateMutability": "nonpayable",
      "type": "function"
    }
  ],
  "transactionHash": "0xd45eaab790dc68567036025aadbefdf5ebd1506a915795ae6877f44dea84a258",
  "args": [],
  "solcInputHash": "d04a65103b1e0a44d5faf5cbc3741042",
  "bytecode": "0x608060405234801561001057600080fd5b5061596e80620000216000396000f3fe6080604052600436106101cd5760003560e01c8063afcd5f4b116100f7578063ce1fdb8b11610095578063e6ab280611610064578063e6ab28061461068c578063f2fad2b6146106c9578063f2fde38b14610706578063f3995c671461072f576101cd565b8063ce1fdb8b146105bc578063d46300fd146105f9578063d6f0df6214610624578063e25aa5fa14610661576101cd565b8063c2d9ecfa116100d1578063c2d9ecfa14610521578063c2e3140a1461054c578063c4db7fa014610568578063c9ec92481461057f576101cd565b8063afcd5f4b1461047c578063ba94a315146104b9578063bfc65c9b146104e4576101cd565b80635fcbd2851161016f5780638beb60b61161013e5780638beb60b6146103cc5780638da5cb5b146103f55780639242164f14610420578063ac9650d81461044c576101cd565b80635fcbd285146103225780636f26a7101461034d578063715018a614610378578063805d27661461038f576101cd565b806334e19907116101ab57806334e199071461026857806346eda749146102915780635153786b146102ce578063593d132c146102f9576101cd565b80630ba81959146101d25780631de8d8cb146101fd578063256967ac1461023a575b600080fd5b3480156101de57600080fd5b506101e761074b565b6040516101f49190614d77565b60405180910390f35b34801561020957600080fd5b50610224600480360381019061021f9190613efa565b6107dc565b6040516102319190614d77565b60405180910390f35b34801561024657600080fd5b5061024f61096a565b60405161025f9493929190614ea7565b60405180910390f35b34801561027457600080fd5b5061028f600480360381019061028a9190613fda565b610988565b005b34801561029d57600080fd5b506102b860048036038101906102b39190613d1f565b610a73565b6040516102c59190614d77565b60405180910390f35b3480156102da57600080fd5b506102e3610c86565b6040516102f09190614d77565b60405180910390f35b34801561030557600080fd5b50610320600480360381019061031b919061411a565b610d17565b005b34801561032e57600080fd5b50610337610e05565b6040516103449190614954565b60405180910390f35b34801561035957600080fd5b50610362610e2b565b60405161036f9190614939565b60405180910390f35b34801561038457600080fd5b5061038d610e58565b005b34801561039b57600080fd5b506103b660048036038101906103b1919061407b565b610ee0565b6040516103c39190614d77565b60405180910390f35b3480156103d857600080fd5b506103f360048036038101906103ee9190613fda565b610fb0565b005b34801561040157600080fd5b5061040a61109b565b604051610417919061476d565b60405180910390f35b34801561042c57600080fd5b506104356110c5565b604051610443929190614e7e565b60405180910390f35b61046660048036038101906104619190613cda565b6110d7565b6040516104739190614820565b60405180910390f35b34801561048857600080fd5b506104a3600480360381019061049e9190613e18565b6112e3565b6040516104b0919061491e565b60405180910390f35b3480156104c557600080fd5b506104ce6119ed565b6040516104db9190614939565b60405180910390f35b3480156104f057600080fd5b5061050b60048036038101906105069190613d1f565b611a1a565b6040516105189190614d77565b60405180910390f35b34801561052d57600080fd5b50610536611c2d565b6040516105439190614d77565b60405180910390f35b61056660048036038101906105619190613c51565b611cbe565b005b34801561057457600080fd5b5061057d611d78565b005b34801561058b57600080fd5b506105a660048036038101906105a19190613f36565b611e60565b6040516105b39190614d77565b60405180910390f35b3480156105c857600080fd5b506105e360048036038101906105de91906140b7565b6120f0565b6040516105f09190614d77565b60405180910390f35b34801561060557600080fd5b5061060e612330565b60405161061b9190614d77565b60405180910390f35b34801561063057600080fd5b5061064b6004803603810190610646919061402c565b6123c1565b6040516106589190614903565b60405180910390f35b34801561066d57600080fd5b506106766125d3565b6040516106839190614d77565b60405180910390f35b34801561069857600080fd5b506106b360048036038101906106ae9190613d97565b61268c565b6040516106c09190614d77565b60405180910390f35b3480156106d557600080fd5b506106f060048036038101906106eb9190613fda565b61283c565b6040516106fd9190614903565b60405180910390f35b34801561071257600080fd5b5061072d60048036038101906107289190613c28565b6129e9565b005b61074960048036038101906107449190613c51565b612a71565b005b60006099736c883B82a0e2e6f69e4E51830Abe42692E2a3a7C635d5c4f9690916040518263ffffffff1660e01b81526004016107879190614be8565b60206040518083038186803b15801561079f57600080fd5b505af41580156107b3573d6000803e3d6000fd5b505050506040513d601f19601f820116820180604052508101906107d79190614003565b905090565b6000609d60000160009054906101000a900473ffffffffffffffffffffffffffffffffffffffff1673ffffffffffffffffffffffffffffffffffffffff168373ffffffffffffffffffffffffffffffffffffffff16146108ce57736c883B82a0e2e6f69e4E51830Abe42692E2a3a7C63e5537d20609f609d85609960976040518663ffffffff1660e01b8152600401610879959493929190614cc3565b60206040518083038186803b15801561089157600080fd5b505af41580156108a5573d6000803e3d6000fd5b505050506040513d601f19601f820116820180604052508101906108c99190614003565b610962565b736c883B82a0e2e6f69e4E51830Abe42692E2a3a7C63e5537d20609d609f85609960976040518663ffffffff1660e01b8152600401610911959493929190614cc3565b60206040518083038186803b15801561092957600080fd5b505af415801561093d573d6000803e3d6000fd5b505050506040513d601f19601f820116820180604052508101906109619190614003565b5b905092915050565b60998060000154908060010154908060020154908060030154905084565b610990612af0565b73ffffffffffffffffffffffffffffffffffffffff166109ae61109b565b73ffffffffffffffffffffffffffffffffffffffff1614610a04576040517f08c379a00000000000000000000000000000000000000000000000000000000081526004016109fb90614ae8565b60405180910390fd5b6097736c883B82a0e2e6f69e4E51830Abe42692E2a3a7C6344b4519c9091836040518363ffffffff1660e01b8152600401610a40929190614c3a565b60006040518083038186803b158015610a5857600080fd5b505af4158015610a6c573d6000803e3d6000fd5b5050505050565b600060026065541415610abb576040517f08c379a0000000000000000000000000000000000000000000000000000000008152600401610ab290614ba8565b60405180910390fd5b600260658190555081610acd81612af8565b60006040518060400160405280609d6040518060400160405290816000820160009054906101000a900473ffffffffffffffffffffffffffffffffffffffff1673ffffffffffffffffffffffffffffffffffffffff1673ffffffffffffffffffffffffffffffffffffffff1681526020016001820154815250508152602001609f6040518060400160405290816000820160009054906101000a900473ffffffffffffffffffffffffffffffffffffffff1673ffffffffffffffffffffffffffffffffffffffff1673ffffffffffffffffffffffffffffffffffffffff1681526020016001820154815250508152509050736c883B82a0e2e6f69e4E51830Abe42692E2a3a7C635aa533ee8288886099609760a160009054906101000a900473ffffffffffffffffffffffffffffffffffffffff166040518763ffffffff1660e01b8152600401610c2396959493929190614842565b60206040518083038186803b158015610c3b57600080fd5b505af4158015610c4f573d6000803e3d6000fd5b505050506040513d601f19601f82011682018060405250810190610c739190614003565b9250505060016065819055509392505050565b6000609f736c883B82a0e2e6f69e4E51830Abe42692E2a3a7C636cc631fa90916040518263ffffffff1660e01b8152600401610cc29190614c63565b60206040518083038186803b158015610cda57600080fd5b505af4158015610cee573d6000803e3d6000fd5b505050506040513d601f19601f82011682018060405250810190610d129190614003565b905090565b610d1f612af0565b73ffffffffffffffffffffffffffffffffffffffff16610d3d61109b565b73ffffffffffffffffffffffffffffffffffffffff1614610d93576040517f08c379a0000000000000000000000000000000000000000000000000000000008152600401610d8a90614ae8565b60405180910390fd5b6099736c883B82a0e2e6f69e4E51830Abe42692E2a3a7C6314f685c3909184846040518463ffffffff1660e01b8152600401610dd193929190614c03565b60006040518083038186803b158015610de957600080fd5b505af4158015610dfd573d6000803e3d6000fd5b505050505050565b60a160009054906101000a900473ffffffffffffffffffffffffffffffffffffffff1681565b6000609f60000160009054906101000a900473ffffffffffffffffffffffffffffffffffffffff16905090565b610e60612af0565b73ffffffffffffffffffffffffffffffffffffffff16610e7e61109b565b73ffffffffffffffffffffffffffffffffffffffff1614610ed4576040517f08c379a0000000000000000000000000000000000000000000000000000000008152600401610ecb90614ae8565b60405180910390fd5b610ede6000612b3e565b565b6000609d60000160009054906101000a900473ffffffffffffffffffffffffffffffffffffffff1673ffffffffffffffffffffffffffffffffffffffff168273ffffffffffffffffffffffffffffffffffffffff1614610f7357610f6e83609f609d6099609760a160009054906101000a900473ffffffffffffffffffffffffffffffffffffffff16612c04565b610fa8565b610fa783609d609f6099609760a160009054906101000a900473ffffffffffffffffffffffffffffffffffffffff16612c04565b5b905092915050565b610fb8612af0565b73ffffffffffffffffffffffffffffffffffffffff16610fd661109b565b73ffffffffffffffffffffffffffffffffffffffff161461102c576040517f08c379a000000000000000000000000000000000000000000000000000000000815260040161102390614ae8565b60405180910390fd5b6097736c883B82a0e2e6f69e4E51830Abe42692E2a3a7C6327d047759091836040518363ffffffff1660e01b8152600401611068929190614c3a565b60006040518083038186803b15801561108057600080fd5b505af4158015611094573d6000803e3d6000fd5b5050505050565b6000603360009054906101000a900473ffffffffffffffffffffffffffffffffffffffff16905090565b60978060000154908060010154905082565b60608282905067ffffffffffffffff81111561111c577f4e487b7100000000000000000000000000000000000000000000000000000000600052604160045260246000fd5b60405190808252806020026020018201604052801561114f57816020015b606081526020019060019003908161113a5790505b50905060005b838390508110156112dc576000803073ffffffffffffffffffffffffffffffffffffffff168686858181106111b3577f4e487b7100000000000000000000000000000000000000000000000000000000600052603260045260246000fd5b90506020028101906111c59190614eec565b6040516111d3929190614754565b600060405180830381855af49150503d806000811461120e576040519150601f19603f3d011682016040523d82523d6000602084013e611213565b606091505b5091509150816112825760448151101561122c57600080fd5b600481019050808060200190518101906112469190613f99565b6040517f08c379a0000000000000000000000000000000000000000000000000000000008152600401611279919061496f565b60405180910390fd5b808484815181106112bc577f4e487b7100000000000000000000000000000000000000000000000000000000600052603260045260246000fd5b6020026020010181905250505080806112d49061549e565b915050611155565b5092915050565b60008060019054906101000a900460ff168061130a575060008054906101000a900460ff16155b611349576040517f08c379a000000000000000000000000000000000000000000000000000000000815260040161134090614ac8565b60405180910390fd5b60008060019054906101000a900460ff161590508015611399576001600060016101000a81548160ff02191690831515021790555060016000806101000a81548160ff0219169083151502179055505b6113a1612ca3565b6113a9612d7c565b6113b1612e65565b8873ffffffffffffffffffffffffffffffffffffffff168a73ffffffffffffffffffffffffffffffffffffffff161415611420576040517f08c379a0000000000000000000000000000000000000000000000000000000008152600401611417906149e8565b60405180910390fd5b600073ffffffffffffffffffffffffffffffffffffffff168a73ffffffffffffffffffffffffffffffffffffffff161415611490576040517f08c379a000000000000000000000000000000000000000000000000000000000815260040161148790614a48565b60405180910390fd5b600073ffffffffffffffffffffffffffffffffffffffff168973ffffffffffffffffffffffffffffffffffffffff161415611500576040517f08c379a00000000000000000000000000000000000000000000000000000000081526004016114f790614b28565b60405180910390fd5b60008a73ffffffffffffffffffffffffffffffffffffffff1663313ce5676040518163ffffffff1660e01b815260040160206040518083038186803b15801561154857600080fd5b505afa15801561155c573d6000803e3d6000fd5b505050506040513d601f19601f820116820180604052508101906115809190614156565b905060008160ff161161159257600080fd5b60405180604001604052808c73ffffffffffffffffffffffffffffffffffffffff1681526020018260126115c6919061532c565b600a6115d29190615180565b815250609d60008201518160000160006101000a81548173ffffffffffffffffffffffffffffffffffffffff021916908373ffffffffffffffffffffffffffffffffffffffff1602179055506020820151816001015590505060008a73ffffffffffffffffffffffffffffffffffffffff1663313ce5676040518163ffffffff1660e01b815260040160206040518083038186803b15801561167357600080fd5b505afa158015611687573d6000803e3d6000fd5b505050506040513d601f19601f820116820180604052508101906116ab9190614156565b905060008160ff16116116bd57600080fd5b60405180604001604052808c73ffffffffffffffffffffffffffffffffffffffff1681526020018260126116f1919061532c565b600a6116fd9190615180565b815250609f60008201518160000160006101000a81548173ffffffffffffffffffffffffffffffffffffffff021916908373ffffffffffffffffffffffffffffffffffffffff16021790555060208201518160010155905050620f4240881061179b576040517f08c379a000000000000000000000000000000000000000000000000000000000815260040161179290614aa8565b60405180910390fd5b6064886117a8919061529e565b6099600001819055506064886117be919061529e565b6099600101819055506305f5e100871061180d576040517f08c379a000000000000000000000000000000000000000000000000000000000815260040161180490614b48565b60405180910390fd5b6402540be4008610611854576040517f08c379a000000000000000000000000000000000000000000000000000000000815260040161184b90614a28565b60405180910390fd5b6040518060400160405280888152602001878152506097600082015181600001556020820151816001015590505061188b85612f46565b60a160006101000a81548173ffffffffffffffffffffffffffffffffffffffff021916908373ffffffffffffffffffffffffffffffffffffffff16021790555060a160009054906101000a900473ffffffffffffffffffffffffffffffffffffffff1673ffffffffffffffffffffffffffffffffffffffff16634cd88b768b8b6040518363ffffffff1660e01b8152600401611928929190614991565b602060405180830381600087803b15801561194257600080fd5b505af1158015611956573d6000803e3d6000fd5b505050506040513d601f19601f8201168201806040525081019061197a9190613def565b6119b9576040517f08c379a00000000000000000000000000000000000000000000000000000000081526004016119b090614bc8565b60405180910390fd5b60019350505080156119e05760008060016101000a81548160ff0219169083151502179055505b5098975050505050505050565b6000609d60000160009054906101000a900473ffffffffffffffffffffffffffffffffffffffff16905090565b600060026065541415611a62576040517f08c379a0000000000000000000000000000000000000000000000000000000008152600401611a5990614ba8565b60405180910390fd5b600260658190555081611a7481612af8565b60006040518060400160405280609d6040518060400160405290816000820160009054906101000a900473ffffffffffffffffffffffffffffffffffffffff1673ffffffffffffffffffffffffffffffffffffffff1673ffffffffffffffffffffffffffffffffffffffff1681526020016001820154815250508152602001609f6040518060400160405290816000820160009054906101000a900473ffffffffffffffffffffffffffffffffffffffff1673ffffffffffffffffffffffffffffffffffffffff1673ffffffffffffffffffffffffffffffffffffffff1681526020016001820154815250508152509050736c883B82a0e2e6f69e4E51830Abe42692E2a3a7C6302eb2c228288886099609760a160009054906101000a900473ffffffffffffffffffffffffffffffffffffffff166040518763ffffffff1660e01b8152600401611bca96959493929190614842565b60206040518083038186803b158015611be257600080fd5b505af4158015611bf6573d6000803e3d6000fd5b505050506040513d601f19601f82011682018060405250810190611c1a9190614003565b9250505060016065819055509392505050565b6000609d736c883B82a0e2e6f69e4E51830Abe42692E2a3a7C636cc631fa90916040518263ffffffff1660e01b8152600401611c699190614c63565b60206040518083038186803b158015611c8157600080fd5b505af4158015611c95573d6000803e3d6000fd5b505050506040513d601f19601f82011682018060405250810190611cb99190614003565b905090565b60008673ffffffffffffffffffffffffffffffffffffffff1663dd62ed3e33306040518363ffffffff1660e01b8152600401611cfb929190614788565b60206040518083038186803b158015611d1357600080fd5b505afa158015611d27573d6000803e3d6000fd5b505050506040513d601f19601f82011682018060405250810190611d4b9190614003565b905085811015611d6f57611d6e878288611d6591906152f8565b87878787612a71565b5b50505050505050565b611d80612af0565b73ffffffffffffffffffffffffffffffffffffffff16611d9e61109b565b73ffffffffffffffffffffffffffffffffffffffff1614611df4576040517f08c379a0000000000000000000000000000000000000000000000000000000008152600401611deb90614ae8565b60405180910390fd5b6099736c883B82a0e2e6f69e4E51830Abe42692E2a3a7C63b0845bc590916040518263ffffffff1660e01b8152600401611e2e9190614be8565b60006040518083038186803b158015611e4657600080fd5b505af4158015611e5a573d6000803e3d6000fd5b50505050565b600060026065541415611ea8576040517f08c379a0000000000000000000000000000000000000000000000000000000008152600401611e9f90614ba8565b60405180910390fd5b600260658190555081611eba81612af8565b609d60000160009054906101000a900473ffffffffffffffffffffffffffffffffffffffff1673ffffffffffffffffffffffffffffffffffffffff168673ffffffffffffffffffffffffffffffffffffffff161415611faf57736c883B82a0e2e6f69e4E51830Abe42692E2a3a7C63cbab294f609d609f8888609960976040518763ffffffff1660e01b8152600401611f5896959493929190614d16565b60206040518083038186803b158015611f7057600080fd5b505af4158015611f84573d6000803e3d6000fd5b505050506040513d601f19601f82011682018060405250810190611fa89190614003565b91506120df565b609f60000160009054906101000a900473ffffffffffffffffffffffffffffffffffffffff1673ffffffffffffffffffffffffffffffffffffffff168673ffffffffffffffffffffffffffffffffffffffff1614156120a457736c883B82a0e2e6f69e4E51830Abe42692E2a3a7C63cbab294f609f609d8888609960976040518763ffffffff1660e01b815260040161204d96959493929190614d16565b60206040518083038186803b15801561206557600080fd5b505af4158015612079573d6000803e3d6000fd5b505050506040513d601f19601f8201168201806040525081019061209d9190614003565b91506120df565b6040517f08c379a00000000000000000000000000000000000000000000000000000000081526004016120d690614a68565b60405180910390fd5b506001606581905550949350505050565b600060026065541415612138576040517f08c379a000000000000000000000000000000000000000000000000000000000815260040161212f90614ba8565b60405180910390fd5b60026065819055508161214a81612af8565b609d60000160009054906101000a900473ffffffffffffffffffffffffffffffffffffffff1673ffffffffffffffffffffffffffffffffffffffff168573ffffffffffffffffffffffffffffffffffffffff16141561226357736c883B82a0e2e6f69e4E51830Abe42692E2a3a7C63a7abb39687609d609f886099609760a160009054906101000a900473ffffffffffffffffffffffffffffffffffffffff166040518863ffffffff1660e01b815260040161220c9796959493929190614e0f565b60206040518083038186803b15801561222457600080fd5b505af4158015612238573d6000803e3d6000fd5b505050506040513d601f19601f8201168201806040525081019061225c9190614003565b915061231f565b736c883B82a0e2e6f69e4E51830Abe42692E2a3a7C63a7abb39687609f609d886099609760a160009054906101000a900473ffffffffffffffffffffffffffffffffffffffff166040518863ffffffff1660e01b81526004016122cc9796959493929190614e0f565b60206040518083038186803b1580156122e457600080fd5b505af41580156122f8573d6000803e3d6000fd5b505050506040513d601f19601f8201168201806040525081019061231c9190614003565b91505b506001606581905550949350505050565b60006099736c883B82a0e2e6f69e4E51830Abe42692E2a3a7C63c15dc17c90916040518263ffffffff1660e01b815260040161236c9190614be8565b60206040518083038186803b15801561238457600080fd5b505af4158015612398573d6000803e3d6000fd5b505050506040513d601f19601f820116820180604052508101906123bc9190614003565b905090565b6123c9613928565b6002606554141561240f576040517f08c379a000000000000000000000000000000000000000000000000000000000815260040161240690614ba8565b60405180910390fd5b60026065819055508161242181612af8565b60006040518060400160405280609d6040518060400160405290816000820160009054906101000a900473ffffffffffffffffffffffffffffffffffffffff1673ffffffffffffffffffffffffffffffffffffffff1673ffffffffffffffffffffffffffffffffffffffff1681526020016001820154815250508152602001609f6040518060400160405290816000820160009054906101000a900473ffffffffffffffffffffffffffffffffffffffff1673ffffffffffffffffffffffffffffffffffffffff1673ffffffffffffffffffffffffffffffffffffffff1681526020016001820154815250508152509050736c883B82a0e2e6f69e4E51830Abe42692E2a3a7C632657942987838860a160009054906101000a900473ffffffffffffffffffffffffffffffffffffffff166040518563ffffffff1660e01b81526004016125719493929190614d92565b604080518083038186803b15801561258857600080fd5b505af415801561259c573d6000803e3d6000fd5b505050506040513d601f19601f820116820180604052508101906125c09190613d6e565b9250505060016065819055509392505050565b6000736c883B82a0e2e6f69e4E51830Abe42692E2a3a7C63809d0648609d609f609960a160009054906101000a900473ffffffffffffffffffffffffffffffffffffffff166040518563ffffffff1660e01b81526004016126379493929190614c7e565b60206040518083038186803b15801561264f57600080fd5b505af4158015612663573d6000803e3d6000fd5b505050506040513d601f19601f820116820180604052508101906126879190614003565b905090565b6000806040518060400160405280609d6040518060400160405290816000820160009054906101000a900473ffffffffffffffffffffffffffffffffffffffff1673ffffffffffffffffffffffffffffffffffffffff1673ffffffffffffffffffffffffffffffffffffffff1681526020016001820154815250508152602001609f6040518060400160405290816000820160009054906101000a900473ffffffffffffffffffffffffffffffffffffffff1673ffffffffffffffffffffffffffffffffffffffff1673ffffffffffffffffffffffffffffffffffffffff1681526020016001820154815250508152509050736c883B82a0e2e6f69e4E51830Abe42692E2a3a7C63cb6802c882878787609960a160009054906101000a900473ffffffffffffffffffffffffffffffffffffffff166040518763ffffffff1660e01b81526004016127e2969594939291906148a6565b60206040518083038186803b1580156127fa57600080fd5b505af415801561280e573d6000803e3d6000fd5b505050506040513d601f19601f820116820180604052508101906128329190614003565b9150509392505050565b612844613928565b60006040518060400160405280609d6040518060400160405290816000820160009054906101000a900473ffffffffffffffffffffffffffffffffffffffff1673ffffffffffffffffffffffffffffffffffffffff1673ffffffffffffffffffffffffffffffffffffffff1681526020016001820154815250508152602001609f6040518060400160405290816000820160009054906101000a900473ffffffffffffffffffffffffffffffffffffffff1673ffffffffffffffffffffffffffffffffffffffff1673ffffffffffffffffffffffffffffffffffffffff1681526020016001820154815250508152509050736c883B82a0e2e6f69e4E51830Abe42692E2a3a7C63296104cd848360a160009054906101000a900473ffffffffffffffffffffffffffffffffffffffff166040518463ffffffff1660e01b815260040161299293929190614dd8565b604080518083038186803b1580156129a957600080fd5b505af41580156129bd573d6000803e3d6000fd5b505050506040513d601f19601f820116820180604052508101906129e19190613d6e565b915050919050565b6129f1612af0565b73ffffffffffffffffffffffffffffffffffffffff16612a0f61109b565b73ffffffffffffffffffffffffffffffffffffffff1614612a65576040517f08c379a0000000000000000000000000000000000000000000000000000000008152600401612a5c90614ae8565b60405180910390fd5b612a6e8161301b565b50565b8573ffffffffffffffffffffffffffffffffffffffff1663d505accf333088888888886040518863ffffffff1660e01b8152600401612ab697969594939291906147b1565b600060405180830381600087803b158015612ad057600080fd5b505af1158015612ae4573d6000803e3d6000fd5b50505050505050505050565b600033905090565b80421115612b3b576040517f08c379a0000000000000000000000000000000000000000000000000000000008152600401612b3290614b08565b60405180910390fd5b50565b6000603360009054906101000a900473ffffffffffffffffffffffffffffffffffffffff16905081603360006101000a81548173ffffffffffffffffffffffffffffffffffffffff021916908373ffffffffffffffffffffffffffffffffffffffff1602179055508173ffffffffffffffffffffffffffffffffffffffff168173ffffffffffffffffffffffffffffffffffffffff167f8be0079c531659141344cd1fd0a4f28419497f9722a3daafe3b4186f6b6457e060405160405180910390a35050565b600080612c928888888673ffffffffffffffffffffffffffffffffffffffff166318160ddd6040518163ffffffff1660e01b815260040160206040518083038186803b158015612c5357600080fd5b505afa158015612c67573d6000803e3d6000fd5b505050506040513d601f19601f82011682018060405250810190612c8b9190614003565b8989613113565b509050809150509695505050505050565b600060019054906101000a900460ff1680612cc9575060008054906101000a900460ff16155b612d08576040517f08c379a0000000000000000000000000000000000000000000000000000000008152600401612cff90614ac8565b60405180910390fd5b60008060019054906101000a900460ff161590508015612d58576001600060016101000a81548160ff02191690831515021790555060016000806101000a81548160ff0219169083151502179055505b8015612d795760008060016101000a81548160ff0219169083151502179055505b50565b600060019054906101000a900460ff1680612da2575060008054906101000a900460ff16155b612de1576040517f08c379a0000000000000000000000000000000000000000000000000000000008152600401612dd890614ac8565b60405180910390fd5b60008060019054906101000a900460ff161590508015612e31576001600060016101000a81548160ff02191690831515021790555060016000806101000a81548160ff0219169083151502179055505b612e41612e3c612af0565b612b3e565b8015612e625760008060016101000a81548160ff0219169083151502179055505b50565b600060019054906101000a900460ff1680612e8b575060008054906101000a900460ff16155b612eca576040517f08c379a0000000000000000000000000000000000000000000000000000000008152600401612ec190614ac8565b60405180910390fd5b60008060019054906101000a900460ff161590508015612f1a576001600060016101000a81548160ff02191690831515021790555060016000806101000a81548160ff0219169083151502179055505b60016065819055508015612f435760008060016101000a81548160ff0219169083151502179055505b50565b60006040517f3d602d80600a3d3981f3363d3d373d3d3d363d7300000000000000000000000081528260601b60148201527f5af43d82803e903d91602b57fd5bf3000000000000000000000000000000000060288201526037816000f0915050600073ffffffffffffffffffffffffffffffffffffffff168173ffffffffffffffffffffffffffffffffffffffff161415613016576040517f08c379a000000000000000000000000000000000000000000000000000000000815260040161300d90614a88565b60405180910390fd5b919050565b613023612af0565b73ffffffffffffffffffffffffffffffffffffffff1661304161109b565b73ffffffffffffffffffffffffffffffffffffffff1614613097576040517f08c379a000000000000000000000000000000000000000000000000000000000815260040161308e90614ae8565b60405180910390fd5b600073ffffffffffffffffffffffffffffffffffffffff168173ffffffffffffffffffffffffffffffffffffffff161415613107576040517f08c379a00000000000000000000000000000000000000000000000000000000081526004016130fe906149c8565b60405180910390fd5b61311081612b3e565b50565b60008060008060006131358b8b8b8b61312b8c613180565b8b6000015461325c565b8093508194508295505050506000838b60010154848461315591906152f8565b61315f91906150fc565b61316991906152f8565b905083819550955050505050965096945050505050565b600080826003015490506000836001015490508142101561325157600084600201549050600085600001549050808311156132035781846131c191906152f8565b82426131cd91906152f8565b82856131d991906152f8565b6131e3919061529e565b6131ed91906150fc565b816131f891906150a6565b945050505050613257565b818461320f91906152f8565b824261321b91906152f8565b848361322791906152f8565b613231919061529e565b61323b91906150fc565b8161324691906152f8565b945050505050613257565b80925050505b919050565b60008060008061328f8960000160009054906101000a900473ffffffffffffffffffffffffffffffffffffffff166134f1565b905060006132a1828b60010154613583565b905060006132d28a60000160009054906101000a900473ffffffffffffffffffffffffffffffffffffffff166134f1565b905060006132e4828c60010154613583565b905060006040518060a0016040528060008152602001600081526020016000815260200160008152602001600081525090508981608001818152505061332f82858360800151613599565b8160000181815250508a81600001518f613349919061529e565b61335391906150fc565b816000015161336291906152f8565b816020018181525050838e11156133ae576040517f08c379a00000000000000000000000000000000000000000000000000000000081526004016133a590614a08565b60405180910390fd5b6133c1816080015183836020015161374b565b8160400181815250506133d3896138c8565b81606001818152505060006402540be400826060015183604001518460000151856020015189613403919061529e565b61340d91906150fc565b61341791906152f8565b613421919061529e565b61342b91906150fc565b8561343691906152f8565b905060006402540be4008360600151846000015185602001518761345a919061529e565b61346491906150fc565b8661346f91906152f8565b613479919061529e565b61348391906150fc565b8461348e91906152f8565b905060006134a5846080015183866020015161374b565b836134b091906152f8565b90508f600101546001826134c491906152f8565b6134ce91906150fc565b9050808460400151889a509a509a50505050505050505096509650969350505050565b60008173ffffffffffffffffffffffffffffffffffffffff166370a08231306040518263ffffffff1660e01b815260040161352c919061476d565b60206040518083038186803b15801561354457600080fd5b505afa158015613558573d6000803e3d6000fd5b505050506040513d601f19601f8201168201806040525081019061357c9190614003565b9050919050565b60008183613591919061529e565b905092915050565b60008083856135a891906150a6565b905060008114156135bd576000915050613744565b60008082905060006002866135d2919061529e565b905060005b61010081101561370857600083905060028a6135f3919061529e565b84826135ff919061529e565b61360991906150fc565b9050600289613618919061529e565b8482613624919061529e565b61362e91906150fc565b9050839450600084600283613643919061529e565b60648987613651919061529e565b61365b91906150fc565b61366591906150a6565b61366f919061529e565b90506000826001600261368291906150a6565b61368c919061529e565b60648760648861369c91906152f8565b6136a6919061529e565b6136b091906150fc565b6136ba91906150a6565b905080826136c891906150fc565b95506136dd87876138de90919063ffffffff16565b156136f2578598505050505050505050613744565b50505080806137009061549e565b9150506135d7565b506040517f08c379a000000000000000000000000000000000000000000000000000000000815260040161373b90614b88565b60405180910390fd5b9392505050565b60008060028461375b919061529e565b8384613767919061529e565b61377191906150fc565b905060008490506000600287613787919061529e565b9050600281613796919061529e565b606486856137a4919061529e565b6137ae919061529e565b6137b891906150fc565b92506000816064876137ca919061529e565b6137d491906150fc565b836137df91906150a6565b905060008087905060005b610100811015613885578192506000878384613806919061529e565b61381091906150a6565b905060008a86600286613823919061529e565b61382d91906150a6565b61383791906152f8565b9050808261384591906150fc565b935061385a85856138de90919063ffffffff16565b15613870578399505050505050505050506138c1565b5050808061387d9061549e565b9150506137ea565b506040517f08c379a00000000000000000000000000000000000000000000000000000000081526004016138b890614b68565b60405180910390fd5b9392505050565b60006002826138d791906150fc565b9050919050565b600060016138ec84846138f6565b1115905092915050565b60008183111561391357818361390c91906152f8565b9050613922565b828261391f91906152f8565b90505b92915050565b6040518060400160405280600290602082028036833780820191505090505090565b600061395d61395884614f68565b614f43565b9050808285602086028201111561397357600080fd5b60005b858110156139a357816139898882613be9565b845260208401935060208301925050600181019050613976565b5050509392505050565b60006139c06139bb84614f8e565b614f43565b9050828152602081018484840111156139d857600080fd5b6139e384828561542b565b509392505050565b60006139fe6139f984614f8e565b614f43565b905082815260208101848484011115613a1657600080fd5b613a2184828561543a565b509392505050565b600081359050613a3881615897565b92915050565b60008083601f840112613a5057600080fd5b8235905067ffffffffffffffff811115613a6957600080fd5b602083019150836020820283011115613a8157600080fd5b9250929050565b600081905082602060020282011115613aa057600080fd5b92915050565b600082601f830112613ab757600080fd5b6002613ac484828561394a565b91505092915050565b60008083601f840112613adf57600080fd5b8235905067ffffffffffffffff811115613af857600080fd5b602083019150836020820283011115613b1057600080fd5b9250929050565b600081359050613b26816158ae565b92915050565b600081519050613b3b816158ae565b92915050565b600081359050613b50816158c5565b92915050565b600081359050613b65816158dc565b92915050565b600081359050613b7a816158f3565b92915050565b600082601f830112613b9157600080fd5b8135613ba18482602086016139ad565b91505092915050565b600082601f830112613bbb57600080fd5b8151613bcb8482602086016139eb565b91505092915050565b600081359050613be38161590a565b92915050565b600081519050613bf88161590a565b92915050565b600081359050613c0d81615921565b92915050565b600081519050613c2281615921565b92915050565b600060208284031215613c3a57600080fd5b6000613c4884828501613a29565b91505092915050565b60008060008060008060c08789031215613c6a57600080fd5b6000613c7889828a01613a29565b9650506020613c8989828a01613bd4565b9550506040613c9a89828a01613bd4565b9450506060613cab89828a01613bfe565b9350506080613cbc89828a01613b41565b92505060a0613ccd89828a01613b41565b9150509295509295509295565b60008060208385031215613ced57600080fd5b600083013567ffffffffffffffff811115613d0757600080fd5b613d1385828601613a3e565b92509250509250929050565b600080600060808486031215613d3457600080fd5b6000613d4286828701613a88565b9350506040613d5386828701613bd4565b9250506060613d6486828701613bd4565b9150509250925092565b600060408284031215613d8057600080fd5b6000613d8e84828501613aa6565b91505092915050565b600080600060408486031215613dac57600080fd5b600084013567ffffffffffffffff811115613dc657600080fd5b613dd286828701613acd565b93509350506020613de586828701613b17565b9150509250925092565b600060208284031215613e0157600080fd5b6000613e0f84828501613b2c565b91505092915050565b600080600080600080600080610100898b031215613e3557600080fd5b6000613e438b828c01613b56565b9850506020613e548b828c01613b56565b975050604089013567ffffffffffffffff811115613e7157600080fd5b613e7d8b828c01613b80565b965050606089013567ffffffffffffffff811115613e9a57600080fd5b613ea68b828c01613b80565b9550506080613eb78b828c01613bd4565b94505060a0613ec88b828c01613bd4565b93505060c0613ed98b828c01613bd4565b92505060e0613eea8b828c01613b6b565b9150509295985092959890939650565b60008060408385031215613f0d57600080fd5b6000613f1b85828601613b56565b9250506020613f2c85828601613bd4565b9150509250929050565b60008060008060808587031215613f4c57600080fd5b6000613f5a87828801613b56565b9450506020613f6b87828801613bd4565b9350506040613f7c87828801613bd4565b9250506060613f8d87828801613bd4565b91505092959194509250565b600060208284031215613fab57600080fd5b600082015167ffffffffffffffff811115613fc557600080fd5b613fd184828501613baa565b91505092915050565b600060208284031215613fec57600080fd5b6000613ffa84828501613bd4565b91505092915050565b60006020828403121561401557600080fd5b600061402384828501613be9565b91505092915050565b60008060006080848603121561404157600080fd5b600061404f86828701613bd4565b935050602061406086828701613a88565b925050606061407186828701613bd4565b9150509250925092565b6000806040838503121561408e57600080fd5b600061409c85828601613bd4565b92505060206140ad85828601613b56565b9150509250929050565b600080600080608085870312156140cd57600080fd5b60006140db87828801613bd4565b94505060206140ec87828801613b56565b93505060406140fd87828801613bd4565b925050606061410e87828801613bd4565b91505092959194509250565b6000806040838503121561412d57600080fd5b600061413b85828601613bd4565b925050602061414c85828601613bd4565b9150509250929050565b60006020828403121561416857600080fd5b600061417684828501613c13565b91505092915050565b600061418b83836143af565b905092915050565b600061419f83836146cc565b60408301905092915050565b60006141b78383614709565b60208301905092915050565b6141cc81615360565b82525050565b60006141dd82614fe3565b6141e78185615041565b9350836020820285016141f985614fbf565b8060005b858110156142355784840389528151614216858261417f565b94506142218361501a565b925060208a019950506001810190506141fd565b50829750879550505050505092915050565b61425081614fee565b61425a8184615052565b925061426582614fcf565b8060005b8381101561429657815161427d8782614193565b965061428883615027565b925050600181019050614269565b505050505050565b6142aa6040838361542b565b5050565b6142b781614ff9565b6142c1818461505d565b92506142cc82614fd9565b8060005b838110156142fd5781516142e487826141ab565b96506142ef83615034565b9250506001810190506142d0565b505050505050565b60006143118385615068565b93507f07ffffffffffffffffffffffffffffffffffffffffffffffffffffffffffffff83111561434057600080fd5b60208302925061435183858461542b565b82840190509392505050565b61436681615372565b82525050565b61437581615372565b82525050565b6143848161537e565b82525050565b6000614396838561508a565b93506143a383858461542b565b82840190509392505050565b60006143ba82615004565b6143c48185615079565b93506143d481856020860161543a565b6143dd81615574565b840191505092915050565b6143f1816153e3565b82525050565b614400816153e3565b82525050565b61440f81615407565b82525050565b61441e81615407565b82525050565b600061442f8261500f565b6144398185615095565b935061444981856020860161543a565b61445281615574565b840191505092915050565b600061446a602683615095565b915061447582615592565b604082019050919050565b600061448d601083615095565b9150614498826155e1565b602082019050919050565b60006144b0601883615095565b91506144bb8261560a565b602082019050919050565b60006144d3601983615095565b91506144de82615633565b602082019050919050565b60006144f6601283615095565b91506145018261565c565b602082019050919050565b6000614519600e83615095565b915061452482615685565b602082019050919050565b600061453c601683615095565b9150614547826156ae565b602082019050919050565b600061455f601283615095565b915061456a826156d7565b602082019050919050565b6000614582602e83615095565b915061458d82615700565b604082019050919050565b60006145a5602083615095565b91506145b08261574f565b602082019050919050565b60006145c8601083615095565b91506145d382615778565b602082019050919050565b60006145eb601283615095565b91506145f6826157a1565b602082019050919050565b600061460e601483615095565b9150614619826157ca565b602082019050919050565b6000614631601e83615095565b915061463c826157f3565b602082019050919050565b6000614654601383615095565b915061465f8261581c565b602082019050919050565b6000614677601f83615095565b915061468282615845565b602082019050919050565b600061469a601c83615095565b91506146a58261586e565b602082019050919050565b8082525050565b8082525050565b8082525050565b8082525050565b6040820160008201516146e260008501826143f7565b5060208201516146f56020850182614736565b50505050565b8082525050565b8082525050565b614712816153cc565b82525050565b614721816153cc565b82525050565b614730816153cc565b82525050565b61473f816153cc565b82525050565b61474e816153d6565b82525050565b600061476182848661438a565b91508190509392505050565b600060208201905061478260008301846141c3565b92915050565b600060408201905061479d60008301856141c3565b6147aa60208301846141c3565b9392505050565b600060e0820190506147c6600083018a6141c3565b6147d360208301896141c3565b6147e06040830188614718565b6147ed6060830187614718565b6147fa6080830186614745565b61480760a083018561437b565b61481460c083018461437b565b98975050505050505050565b6000602082019050818103600083015261483a81846141d2565b905092915050565b6000610140820190506148586000830189614247565b614865608083018861429e565b61487260c0830187614727565b61487f60e08301866146b7565b61488d6101008301856146c5565b61489b610120830184614415565b979650505050505050565b6000610100820190506148bc6000830189614247565b81810360808301526148cf818789614305565b90506148de60a083018661436c565b6148eb60c08301856146b7565b6148f860e0830184614415565b979650505050505050565b600060408201905061491860008301846142ae565b92915050565b6000602082019050614933600083018461435d565b92915050565b600060208201905061494e60008301846143e8565b92915050565b60006020820190506149696000830184614406565b92915050565b600060208201905081810360008301526149898184614424565b905092915050565b600060408201905081810360008301526149ab8185614424565b905081810360208301526149bf8184614424565b90509392505050565b600060208201905081810360008301526149e18161445d565b9050919050565b60006020820190508181036000830152614a0181614480565b9050919050565b60006020820190508181036000830152614a21816144a3565b9050919050565b60006020820190508181036000830152614a41816144c6565b9050919050565b60006020820190508181036000830152614a61816144e9565b9050919050565b60006020820190508181036000830152614a818161450c565b9050919050565b60006020820190508181036000830152614aa18161452f565b9050919050565b60006020820190508181036000830152614ac181614552565b9050919050565b60006020820190508181036000830152614ae181614575565b9050919050565b60006020820190508181036000830152614b0181614598565b9050919050565b60006020820190508181036000830152614b21816145bb565b9050919050565b60006020820190508181036000830152614b41816145de565b9050919050565b60006020820190508181036000830152614b6181614601565b9050919050565b60006020820190508181036000830152614b8181614624565b9050919050565b60006020820190508181036000830152614ba181614647565b9050919050565b60006020820190508181036000830152614bc18161466a565b9050919050565b60006020820190508181036000830152614be18161468d565b9050919050565b6000602082019050614bfd60008301846146b0565b92915050565b6000606082019050614c1860008301866146b0565b614c256020830185614727565b614c326040830184614727565b949350505050565b6000604082019050614c4f60008301856146be565b614c5c6020830184614727565b9392505050565b6000602082019050614c7860008301846146fb565b92915050565b6000608082019050614c936000830187614702565b614ca06020830186614702565b614cad60408301856146b7565b614cba6060830184614415565b95945050505050565b600060a082019050614cd86000830188614702565b614ce56020830187614702565b614cf26040830186614727565b614cff60608301856146b7565b614d0c60808301846146c5565b9695505050505050565b600060c082019050614d2b6000830189614702565b614d386020830188614702565b614d456040830187614727565b614d526060830186614727565b614d5f60808301856146b7565b614d6c60a08301846146c5565b979650505050505050565b6000602082019050614d8c6000830184614718565b92915050565b600061010082019050614da86000830187614727565b614db56020830186614247565b614dc260a083018561429e565b614dcf60e0830184614415565b95945050505050565b600060c082019050614ded6000830186614727565b614dfa6020830185614247565b614e0760a0830184614415565b949350505050565b600060e082019050614e24600083018a614727565b614e316020830189614702565b614e3e6040830188614702565b614e4b6060830187614727565b614e5860808301866146b7565b614e6560a08301856146c5565b614e7260c0830184614415565b98975050505050505050565b6000604082019050614e936000830185614718565b614ea06020830184614718565b9392505050565b6000608082019050614ebc6000830187614718565b614ec96020830186614718565b614ed66040830185614718565b614ee36060830184614718565b95945050505050565b60008083356001602003843603038112614f0557600080fd5b80840192508235915067ffffffffffffffff821115614f2357600080fd5b602083019250600182023603831315614f3b57600080fd5b509250929050565b6000614f4d614f5e565b9050614f59828261546d565b919050565b6000604051905090565b600067ffffffffffffffff821115614f8357614f82615545565b5b602082029050919050565b600067ffffffffffffffff821115614fa957614fa8615545565b5b614fb282615574565b9050602081019050919050565b6000819050602082019050919050565b6000819050919050565b6000819050919050565b600081519050919050565b600060029050919050565b600060029050919050565b600081519050919050565b600081519050919050565b6000602082019050919050565b6000602082019050919050565b6000602082019050919050565b600082825260208201905092915050565b600081905092915050565b600081905092915050565b600082825260208201905092915050565b600082825260208201905092915050565b600081905092915050565b600082825260208201905092915050565b60006150b1826153cc565b91506150bc836153cc565b9250827fffffffffffffffffffffffffffffffffffffffffffffffffffffffffffffffff038211156150f1576150f06154e7565b5b828201905092915050565b6000615107826153cc565b9150615112836153cc565b92508261512257615121615516565b5b828204905092915050565b6000808291508390505b600185111561517757808604811115615153576151526154e7565b5b60018516156151625780820291505b808102905061517085615585565b9450615137565b94509492505050565b600061518b826153cc565b9150615196836153d6565b92506151c37fffffffffffffffffffffffffffffffffffffffffffffffffffffffffffffffff84846151cb565b905092915050565b6000826151db5760019050615297565b816151e95760009050615297565b81600181146151ff576002811461520957615238565b6001915050615297565b60ff84111561521b5761521a6154e7565b5b8360020a915084821115615232576152316154e7565b5b50615297565b5060208310610133831016604e8410600b841016171561526d5782820a905083811115615268576152676154e7565b5b615297565b61527a848484600161512d565b92509050818404811115615291576152906154e7565b5b81810290505b9392505050565b60006152a9826153cc565b91506152b4836153cc565b9250817fffffffffffffffffffffffffffffffffffffffffffffffffffffffffffffffff04831182151516156152ed576152ec6154e7565b5b828202905092915050565b6000615303826153cc565b915061530e836153cc565b925082821015615321576153206154e7565b5b828203905092915050565b6000615337826153d6565b9150615342836153d6565b925082821015615355576153546154e7565b5b828203905092915050565b600061536b826153ac565b9050919050565b60008115159050919050565b6000819050919050565b600061539382615360565b9050919050565b60006153a582615360565b9050919050565b600073ffffffffffffffffffffffffffffffffffffffff82169050919050565b6000819050919050565b600060ff82169050919050565b60006153ee826153f5565b9050919050565b6000615400826153ac565b9050919050565b600061541282615419565b9050919050565b6000615424826153ac565b9050919050565b82818337600083830152505050565b60005b8381101561545857808201518184015260208101905061543d565b83811115615467576000848401525b50505050565b61547682615574565b810181811067ffffffffffffffff8211171561549557615494615545565b5b80604052505050565b60006154a9826153cc565b91507fffffffffffffffffffffffffffffffffffffffffffffffffffffffffffffffff8214156154dc576154db6154e7565b5b600182019050919050565b7f4e487b7100000000000000000000000000000000000000000000000000000000600052601160045260246000fd5b7f4e487b7100000000000000000000000000000000000000000000000000000000600052601260045260246000fd5b7f4e487b7100000000000000000000000000000000000000000000000000000000600052604160045260246000fd5b6000601f19601f8301169050919050565b60008160011c9050919050565b7f4f776e61626c653a206e6577206f776e657220697320746865207a65726f206160008201527f6464726573730000000000000000000000000000000000000000000000000000602082015250565b7f4455504c49434154455f544f4b454e5300000000000000000000000000000000600082015250565b7f414d4f554e545f455843454544535f415641494c41424c450000000000000000600082015250565b7f5f61646d696e4665652065786365656473206d6178696d756d00000000000000600082015250565b7f544f4b454e305f5a45524f414444524553530000000000000000000000000000600082015250565b7f4241445f544f4b454e5f46524f4d000000000000000000000000000000000000600082015250565b7f455243313136373a20637265617465206661696c656400000000000000000000600082015250565b7f5f612065786365656473206d6178696d756d0000000000000000000000000000600082015250565b7f496e697469616c697a61626c653a20636f6e747261637420697320616c72656160008201527f647920696e697469616c697a6564000000000000000000000000000000000000602082015250565b7f4f776e61626c653a2063616c6c6572206973206e6f7420746865206f776e6572600082015250565b7f446561646c696e65206e6f74206d657400000000000000000000000000000000600082015250565b7f544f4b454e315f5a45524f414444524553530000000000000000000000000000600082015250565b7f5f6665652065786365656473206d6178696d756d000000000000000000000000600082015250565b7f417070726f78696d6174696f6e20646964206e6f7420636f6e76657267650000600082015250565b7f4420646f6573206e6f7420636f6e766572676500000000000000000000000000600082015250565b7f5265656e7472616e637947756172643a207265656e7472616e742063616c6c00600082015250565b7f636f756c64206e6f7420696e6974206c70546f6b656e20636c6f6e6500000000600082015250565b6158a081615360565b81146158ab57600080fd5b50565b6158b781615372565b81146158c257600080fd5b50565b6158ce8161537e565b81146158d957600080fd5b50565b6158e581615388565b81146158f057600080fd5b50565b6158fc8161539a565b811461590757600080fd5b50565b615913816153cc565b811461591e57600080fd5b50565b61592a816153d6565b811461593557600080fd5b5056fea2646970667358221220ffe195bae0de159871bd8a2a92b9b8284ae2cafbfecd64f56b6d77b7b032c32b64736f6c63430008040033",
  "deployedBytecode": "0x6080604052600436106101cd5760003560e01c8063afcd5f4b116100f7578063ce1fdb8b11610095578063e6ab280611610064578063e6ab28061461068c578063f2fad2b6146106c9578063f2fde38b14610706578063f3995c671461072f576101cd565b8063ce1fdb8b146105bc578063d46300fd146105f9578063d6f0df6214610624578063e25aa5fa14610661576101cd565b8063c2d9ecfa116100d1578063c2d9ecfa14610521578063c2e3140a1461054c578063c4db7fa014610568578063c9ec92481461057f576101cd565b8063afcd5f4b1461047c578063ba94a315146104b9578063bfc65c9b146104e4576101cd565b80635fcbd2851161016f5780638beb60b61161013e5780638beb60b6146103cc5780638da5cb5b146103f55780639242164f14610420578063ac9650d81461044c576101cd565b80635fcbd285146103225780636f26a7101461034d578063715018a614610378578063805d27661461038f576101cd565b806334e19907116101ab57806334e199071461026857806346eda749146102915780635153786b146102ce578063593d132c146102f9576101cd565b80630ba81959146101d25780631de8d8cb146101fd578063256967ac1461023a575b600080fd5b3480156101de57600080fd5b506101e761074b565b6040516101f49190614d77565b60405180910390f35b34801561020957600080fd5b50610224600480360381019061021f9190613efa565b6107dc565b6040516102319190614d77565b60405180910390f35b34801561024657600080fd5b5061024f61096a565b60405161025f9493929190614ea7565b60405180910390f35b34801561027457600080fd5b5061028f600480360381019061028a9190613fda565b610988565b005b34801561029d57600080fd5b506102b860048036038101906102b39190613d1f565b610a73565b6040516102c59190614d77565b60405180910390f35b3480156102da57600080fd5b506102e3610c86565b6040516102f09190614d77565b60405180910390f35b34801561030557600080fd5b50610320600480360381019061031b919061411a565b610d17565b005b34801561032e57600080fd5b50610337610e05565b6040516103449190614954565b60405180910390f35b34801561035957600080fd5b50610362610e2b565b60405161036f9190614939565b60405180910390f35b34801561038457600080fd5b5061038d610e58565b005b34801561039b57600080fd5b506103b660048036038101906103b1919061407b565b610ee0565b6040516103c39190614d77565b60405180910390f35b3480156103d857600080fd5b506103f360048036038101906103ee9190613fda565b610fb0565b005b34801561040157600080fd5b5061040a61109b565b604051610417919061476d565b60405180910390f35b34801561042c57600080fd5b506104356110c5565b604051610443929190614e7e565b60405180910390f35b61046660048036038101906104619190613cda565b6110d7565b6040516104739190614820565b60405180910390f35b34801561048857600080fd5b506104a3600480360381019061049e9190613e18565b6112e3565b6040516104b0919061491e565b60405180910390f35b3480156104c557600080fd5b506104ce6119ed565b6040516104db9190614939565b60405180910390f35b3480156104f057600080fd5b5061050b60048036038101906105069190613d1f565b611a1a565b6040516105189190614d77565b60405180910390f35b34801561052d57600080fd5b50610536611c2d565b6040516105439190614d77565b60405180910390f35b61056660048036038101906105619190613c51565b611cbe565b005b34801561057457600080fd5b5061057d611d78565b005b34801561058b57600080fd5b506105a660048036038101906105a19190613f36565b611e60565b6040516105b39190614d77565b60405180910390f35b3480156105c857600080fd5b506105e360048036038101906105de91906140b7565b6120f0565b6040516105f09190614d77565b60405180910390f35b34801561060557600080fd5b5061060e612330565b60405161061b9190614d77565b60405180910390f35b34801561063057600080fd5b5061064b6004803603810190610646919061402c565b6123c1565b6040516106589190614903565b60405180910390f35b34801561066d57600080fd5b506106766125d3565b6040516106839190614d77565b60405180910390f35b34801561069857600080fd5b506106b360048036038101906106ae9190613d97565b61268c565b6040516106c09190614d77565b60405180910390f35b3480156106d557600080fd5b506106f060048036038101906106eb9190613fda565b61283c565b6040516106fd9190614903565b60405180910390f35b34801561071257600080fd5b5061072d60048036038101906107289190613c28565b6129e9565b005b61074960048036038101906107449190613c51565b612a71565b005b6000609973__$134e00c0bcac37abc21e465e57a9b81eef$__635d5c4f9690916040518263ffffffff1660e01b81526004016107879190614be8565b60206040518083038186803b15801561079f57600080fd5b505af41580156107b3573d6000803e3d6000fd5b505050506040513d601f19601f820116820180604052508101906107d79190614003565b905090565b6000609d60000160009054906101000a900473ffffffffffffffffffffffffffffffffffffffff1673ffffffffffffffffffffffffffffffffffffffff168373ffffffffffffffffffffffffffffffffffffffff16146108ce5773__$134e00c0bcac37abc21e465e57a9b81eef$__63e5537d20609f609d85609960976040518663ffffffff1660e01b8152600401610879959493929190614cc3565b60206040518083038186803b15801561089157600080fd5b505af41580156108a5573d6000803e3d6000fd5b505050506040513d601f19601f820116820180604052508101906108c99190614003565b610962565b73__$134e00c0bcac37abc21e465e57a9b81eef$__63e5537d20609d609f85609960976040518663ffffffff1660e01b8152600401610911959493929190614cc3565b60206040518083038186803b15801561092957600080fd5b505af415801561093d573d6000803e3d6000fd5b505050506040513d601f19601f820116820180604052508101906109619190614003565b5b905092915050565b60998060000154908060010154908060020154908060030154905084565b610990612af0565b73ffffffffffffffffffffffffffffffffffffffff166109ae61109b565b73ffffffffffffffffffffffffffffffffffffffff1614610a04576040517f08c379a00000000000000000000000000000000000000000000000000000000081526004016109fb90614ae8565b60405180910390fd5b609773__$134e00c0bcac37abc21e465e57a9b81eef$__6344b4519c9091836040518363ffffffff1660e01b8152600401610a40929190614c3a565b60006040518083038186803b158015610a5857600080fd5b505af4158015610a6c573d6000803e3d6000fd5b5050505050565b600060026065541415610abb576040517f08c379a0000000000000000000000000000000000000000000000000000000008152600401610ab290614ba8565b60405180910390fd5b600260658190555081610acd81612af8565b60006040518060400160405280609d6040518060400160405290816000820160009054906101000a900473ffffffffffffffffffffffffffffffffffffffff1673ffffffffffffffffffffffffffffffffffffffff1673ffffffffffffffffffffffffffffffffffffffff1681526020016001820154815250508152602001609f6040518060400160405290816000820160009054906101000a900473ffffffffffffffffffffffffffffffffffffffff1673ffffffffffffffffffffffffffffffffffffffff1673ffffffffffffffffffffffffffffffffffffffff168152602001600182015481525050815250905073__$134e00c0bcac37abc21e465e57a9b81eef$__635aa533ee8288886099609760a160009054906101000a900473ffffffffffffffffffffffffffffffffffffffff166040518763ffffffff1660e01b8152600401610c2396959493929190614842565b60206040518083038186803b158015610c3b57600080fd5b505af4158015610c4f573d6000803e3d6000fd5b505050506040513d601f19601f82011682018060405250810190610c739190614003565b9250505060016065819055509392505050565b6000609f73__$134e00c0bcac37abc21e465e57a9b81eef$__636cc631fa90916040518263ffffffff1660e01b8152600401610cc29190614c63565b60206040518083038186803b158015610cda57600080fd5b505af4158015610cee573d6000803e3d6000fd5b505050506040513d601f19601f82011682018060405250810190610d129190614003565b905090565b610d1f612af0565b73ffffffffffffffffffffffffffffffffffffffff16610d3d61109b565b73ffffffffffffffffffffffffffffffffffffffff1614610d93576040517f08c379a0000000000000000000000000000000000000000000000000000000008152600401610d8a90614ae8565b60405180910390fd5b609973__$134e00c0bcac37abc21e465e57a9b81eef$__6314f685c3909184846040518463ffffffff1660e01b8152600401610dd193929190614c03565b60006040518083038186803b158015610de957600080fd5b505af4158015610dfd573d6000803e3d6000fd5b505050505050565b60a160009054906101000a900473ffffffffffffffffffffffffffffffffffffffff1681565b6000609f60000160009054906101000a900473ffffffffffffffffffffffffffffffffffffffff16905090565b610e60612af0565b73ffffffffffffffffffffffffffffffffffffffff16610e7e61109b565b73ffffffffffffffffffffffffffffffffffffffff1614610ed4576040517f08c379a0000000000000000000000000000000000000000000000000000000008152600401610ecb90614ae8565b60405180910390fd5b610ede6000612b3e565b565b6000609d60000160009054906101000a900473ffffffffffffffffffffffffffffffffffffffff1673ffffffffffffffffffffffffffffffffffffffff168273ffffffffffffffffffffffffffffffffffffffff1614610f7357610f6e83609f609d6099609760a160009054906101000a900473ffffffffffffffffffffffffffffffffffffffff16612c04565b610fa8565b610fa783609d609f6099609760a160009054906101000a900473ffffffffffffffffffffffffffffffffffffffff16612c04565b5b905092915050565b610fb8612af0565b73ffffffffffffffffffffffffffffffffffffffff16610fd661109b565b73ffffffffffffffffffffffffffffffffffffffff161461102c576040517f08c379a000000000000000000000000000000000000000000000000000000000815260040161102390614ae8565b60405180910390fd5b609773__$134e00c0bcac37abc21e465e57a9b81eef$__6327d047759091836040518363ffffffff1660e01b8152600401611068929190614c3a565b60006040518083038186803b15801561108057600080fd5b505af4158015611094573d6000803e3d6000fd5b5050505050565b6000603360009054906101000a900473ffffffffffffffffffffffffffffffffffffffff16905090565b60978060000154908060010154905082565b60608282905067ffffffffffffffff81111561111c577f4e487b7100000000000000000000000000000000000000000000000000000000600052604160045260246000fd5b60405190808252806020026020018201604052801561114f57816020015b606081526020019060019003908161113a5790505b50905060005b838390508110156112dc576000803073ffffffffffffffffffffffffffffffffffffffff168686858181106111b3577f4e487b7100000000000000000000000000000000000000000000000000000000600052603260045260246000fd5b90506020028101906111c59190614eec565b6040516111d3929190614754565b600060405180830381855af49150503d806000811461120e576040519150601f19603f3d011682016040523d82523d6000602084013e611213565b606091505b5091509150816112825760448151101561122c57600080fd5b600481019050808060200190518101906112469190613f99565b6040517f08c379a0000000000000000000000000000000000000000000000000000000008152600401611279919061496f565b60405180910390fd5b808484815181106112bc577f4e487b7100000000000000000000000000000000000000000000000000000000600052603260045260246000fd5b6020026020010181905250505080806112d49061549e565b915050611155565b5092915050565b60008060019054906101000a900460ff168061130a575060008054906101000a900460ff16155b611349576040517f08c379a000000000000000000000000000000000000000000000000000000000815260040161134090614ac8565b60405180910390fd5b60008060019054906101000a900460ff161590508015611399576001600060016101000a81548160ff02191690831515021790555060016000806101000a81548160ff0219169083151502179055505b6113a1612ca3565b6113a9612d7c565b6113b1612e65565b8873ffffffffffffffffffffffffffffffffffffffff168a73ffffffffffffffffffffffffffffffffffffffff161415611420576040517f08c379a0000000000000000000000000000000000000000000000000000000008152600401611417906149e8565b60405180910390fd5b600073ffffffffffffffffffffffffffffffffffffffff168a73ffffffffffffffffffffffffffffffffffffffff161415611490576040517f08c379a000000000000000000000000000000000000000000000000000000000815260040161148790614a48565b60405180910390fd5b600073ffffffffffffffffffffffffffffffffffffffff168973ffffffffffffffffffffffffffffffffffffffff161415611500576040517f08c379a00000000000000000000000000000000000000000000000000000000081526004016114f790614b28565b60405180910390fd5b60008a73ffffffffffffffffffffffffffffffffffffffff1663313ce5676040518163ffffffff1660e01b815260040160206040518083038186803b15801561154857600080fd5b505afa15801561155c573d6000803e3d6000fd5b505050506040513d601f19601f820116820180604052508101906115809190614156565b905060008160ff161161159257600080fd5b60405180604001604052808c73ffffffffffffffffffffffffffffffffffffffff1681526020018260126115c6919061532c565b600a6115d29190615180565b815250609d60008201518160000160006101000a81548173ffffffffffffffffffffffffffffffffffffffff021916908373ffffffffffffffffffffffffffffffffffffffff1602179055506020820151816001015590505060008a73ffffffffffffffffffffffffffffffffffffffff1663313ce5676040518163ffffffff1660e01b815260040160206040518083038186803b15801561167357600080fd5b505afa158015611687573d6000803e3d6000fd5b505050506040513d601f19601f820116820180604052508101906116ab9190614156565b905060008160ff16116116bd57600080fd5b60405180604001604052808c73ffffffffffffffffffffffffffffffffffffffff1681526020018260126116f1919061532c565b600a6116fd9190615180565b815250609f60008201518160000160006101000a81548173ffffffffffffffffffffffffffffffffffffffff021916908373ffffffffffffffffffffffffffffffffffffffff16021790555060208201518160010155905050620f4240881061179b576040517f08c379a000000000000000000000000000000000000000000000000000000000815260040161179290614aa8565b60405180910390fd5b6064886117a8919061529e565b6099600001819055506064886117be919061529e565b6099600101819055506305f5e100871061180d576040517f08c379a000000000000000000000000000000000000000000000000000000000815260040161180490614b48565b60405180910390fd5b6402540be4008610611854576040517f08c379a000000000000000000000000000000000000000000000000000000000815260040161184b90614a28565b60405180910390fd5b6040518060400160405280888152602001878152506097600082015181600001556020820151816001015590505061188b85612f46565b60a160006101000a81548173ffffffffffffffffffffffffffffffffffffffff021916908373ffffffffffffffffffffffffffffffffffffffff16021790555060a160009054906101000a900473ffffffffffffffffffffffffffffffffffffffff1673ffffffffffffffffffffffffffffffffffffffff16634cd88b768b8b6040518363ffffffff1660e01b8152600401611928929190614991565b602060405180830381600087803b15801561194257600080fd5b505af1158015611956573d6000803e3d6000fd5b505050506040513d601f19601f8201168201806040525081019061197a9190613def565b6119b9576040517f08c379a00000000000000000000000000000000000000000000000000000000081526004016119b090614bc8565b60405180910390fd5b60019350505080156119e05760008060016101000a81548160ff0219169083151502179055505b5098975050505050505050565b6000609d60000160009054906101000a900473ffffffffffffffffffffffffffffffffffffffff16905090565b600060026065541415611a62576040517f08c379a0000000000000000000000000000000000000000000000000000000008152600401611a5990614ba8565b60405180910390fd5b600260658190555081611a7481612af8565b60006040518060400160405280609d6040518060400160405290816000820160009054906101000a900473ffffffffffffffffffffffffffffffffffffffff1673ffffffffffffffffffffffffffffffffffffffff1673ffffffffffffffffffffffffffffffffffffffff1681526020016001820154815250508152602001609f6040518060400160405290816000820160009054906101000a900473ffffffffffffffffffffffffffffffffffffffff1673ffffffffffffffffffffffffffffffffffffffff1673ffffffffffffffffffffffffffffffffffffffff168152602001600182015481525050815250905073__$134e00c0bcac37abc21e465e57a9b81eef$__6302eb2c228288886099609760a160009054906101000a900473ffffffffffffffffffffffffffffffffffffffff166040518763ffffffff1660e01b8152600401611bca96959493929190614842565b60206040518083038186803b158015611be257600080fd5b505af4158015611bf6573d6000803e3d6000fd5b505050506040513d601f19601f82011682018060405250810190611c1a9190614003565b9250505060016065819055509392505050565b6000609d73__$134e00c0bcac37abc21e465e57a9b81eef$__636cc631fa90916040518263ffffffff1660e01b8152600401611c699190614c63565b60206040518083038186803b158015611c8157600080fd5b505af4158015611c95573d6000803e3d6000fd5b505050506040513d601f19601f82011682018060405250810190611cb99190614003565b905090565b60008673ffffffffffffffffffffffffffffffffffffffff1663dd62ed3e33306040518363ffffffff1660e01b8152600401611cfb929190614788565b60206040518083038186803b158015611d1357600080fd5b505afa158015611d27573d6000803e3d6000fd5b505050506040513d601f19601f82011682018060405250810190611d4b9190614003565b905085811015611d6f57611d6e878288611d6591906152f8565b87878787612a71565b5b50505050505050565b611d80612af0565b73ffffffffffffffffffffffffffffffffffffffff16611d9e61109b565b73ffffffffffffffffffffffffffffffffffffffff1614611df4576040517f08c379a0000000000000000000000000000000000000000000000000000000008152600401611deb90614ae8565b60405180910390fd5b609973__$134e00c0bcac37abc21e465e57a9b81eef$__63b0845bc590916040518263ffffffff1660e01b8152600401611e2e9190614be8565b60006040518083038186803b158015611e4657600080fd5b505af4158015611e5a573d6000803e3d6000fd5b50505050565b600060026065541415611ea8576040517f08c379a0000000000000000000000000000000000000000000000000000000008152600401611e9f90614ba8565b60405180910390fd5b600260658190555081611eba81612af8565b609d60000160009054906101000a900473ffffffffffffffffffffffffffffffffffffffff1673ffffffffffffffffffffffffffffffffffffffff168673ffffffffffffffffffffffffffffffffffffffff161415611faf5773__$134e00c0bcac37abc21e465e57a9b81eef$__63cbab294f609d609f8888609960976040518763ffffffff1660e01b8152600401611f5896959493929190614d16565b60206040518083038186803b158015611f7057600080fd5b505af4158015611f84573d6000803e3d6000fd5b505050506040513d601f19601f82011682018060405250810190611fa89190614003565b91506120df565b609f60000160009054906101000a900473ffffffffffffffffffffffffffffffffffffffff1673ffffffffffffffffffffffffffffffffffffffff168673ffffffffffffffffffffffffffffffffffffffff1614156120a45773__$134e00c0bcac37abc21e465e57a9b81eef$__63cbab294f609f609d8888609960976040518763ffffffff1660e01b815260040161204d96959493929190614d16565b60206040518083038186803b15801561206557600080fd5b505af4158015612079573d6000803e3d6000fd5b505050506040513d601f19601f8201168201806040525081019061209d9190614003565b91506120df565b6040517f08c379a00000000000000000000000000000000000000000000000000000000081526004016120d690614a68565b60405180910390fd5b506001606581905550949350505050565b600060026065541415612138576040517f08c379a000000000000000000000000000000000000000000000000000000000815260040161212f90614ba8565b60405180910390fd5b60026065819055508161214a81612af8565b609d60000160009054906101000a900473ffffffffffffffffffffffffffffffffffffffff1673ffffffffffffffffffffffffffffffffffffffff168573ffffffffffffffffffffffffffffffffffffffff1614156122635773__$134e00c0bcac37abc21e465e57a9b81eef$__63a7abb39687609d609f886099609760a160009054906101000a900473ffffffffffffffffffffffffffffffffffffffff166040518863ffffffff1660e01b815260040161220c9796959493929190614e0f565b60206040518083038186803b15801561222457600080fd5b505af4158015612238573d6000803e3d6000fd5b505050506040513d601f19601f8201168201806040525081019061225c9190614003565b915061231f565b73__$134e00c0bcac37abc21e465e57a9b81eef$__63a7abb39687609f609d886099609760a160009054906101000a900473ffffffffffffffffffffffffffffffffffffffff166040518863ffffffff1660e01b81526004016122cc9796959493929190614e0f565b60206040518083038186803b1580156122e457600080fd5b505af41580156122f8573d6000803e3d6000fd5b505050506040513d601f19601f8201168201806040525081019061231c9190614003565b91505b506001606581905550949350505050565b6000609973__$134e00c0bcac37abc21e465e57a9b81eef$__63c15dc17c90916040518263ffffffff1660e01b815260040161236c9190614be8565b60206040518083038186803b15801561238457600080fd5b505af4158015612398573d6000803e3d6000fd5b505050506040513d601f19601f820116820180604052508101906123bc9190614003565b905090565b6123c9613928565b6002606554141561240f576040517f08c379a000000000000000000000000000000000000000000000000000000000815260040161240690614ba8565b60405180910390fd5b60026065819055508161242181612af8565b60006040518060400160405280609d6040518060400160405290816000820160009054906101000a900473ffffffffffffffffffffffffffffffffffffffff1673ffffffffffffffffffffffffffffffffffffffff1673ffffffffffffffffffffffffffffffffffffffff1681526020016001820154815250508152602001609f6040518060400160405290816000820160009054906101000a900473ffffffffffffffffffffffffffffffffffffffff1673ffffffffffffffffffffffffffffffffffffffff1673ffffffffffffffffffffffffffffffffffffffff168152602001600182015481525050815250905073__$134e00c0bcac37abc21e465e57a9b81eef$__632657942987838860a160009054906101000a900473ffffffffffffffffffffffffffffffffffffffff166040518563ffffffff1660e01b81526004016125719493929190614d92565b604080518083038186803b15801561258857600080fd5b505af415801561259c573d6000803e3d6000fd5b505050506040513d601f19601f820116820180604052508101906125c09190613d6e565b9250505060016065819055509392505050565b600073__$134e00c0bcac37abc21e465e57a9b81eef$__63809d0648609d609f609960a160009054906101000a900473ffffffffffffffffffffffffffffffffffffffff166040518563ffffffff1660e01b81526004016126379493929190614c7e565b60206040518083038186803b15801561264f57600080fd5b505af4158015612663573d6000803e3d6000fd5b505050506040513d601f19601f820116820180604052508101906126879190614003565b905090565b6000806040518060400160405280609d6040518060400160405290816000820160009054906101000a900473ffffffffffffffffffffffffffffffffffffffff1673ffffffffffffffffffffffffffffffffffffffff1673ffffffffffffffffffffffffffffffffffffffff1681526020016001820154815250508152602001609f6040518060400160405290816000820160009054906101000a900473ffffffffffffffffffffffffffffffffffffffff1673ffffffffffffffffffffffffffffffffffffffff1673ffffffffffffffffffffffffffffffffffffffff168152602001600182015481525050815250905073__$134e00c0bcac37abc21e465e57a9b81eef$__63cb6802c882878787609960a160009054906101000a900473ffffffffffffffffffffffffffffffffffffffff166040518763ffffffff1660e01b81526004016127e2969594939291906148a6565b60206040518083038186803b1580156127fa57600080fd5b505af415801561280e573d6000803e3d6000fd5b505050506040513d601f19601f820116820180604052508101906128329190614003565b9150509392505050565b612844613928565b60006040518060400160405280609d6040518060400160405290816000820160009054906101000a900473ffffffffffffffffffffffffffffffffffffffff1673ffffffffffffffffffffffffffffffffffffffff1673ffffffffffffffffffffffffffffffffffffffff1681526020016001820154815250508152602001609f6040518060400160405290816000820160009054906101000a900473ffffffffffffffffffffffffffffffffffffffff1673ffffffffffffffffffffffffffffffffffffffff1673ffffffffffffffffffffffffffffffffffffffff168152602001600182015481525050815250905073__$134e00c0bcac37abc21e465e57a9b81eef$__63296104cd848360a160009054906101000a900473ffffffffffffffffffffffffffffffffffffffff166040518463ffffffff1660e01b815260040161299293929190614dd8565b604080518083038186803b1580156129a957600080fd5b505af41580156129bd573d6000803e3d6000fd5b505050506040513d601f19601f820116820180604052508101906129e19190613d6e565b915050919050565b6129f1612af0565b73ffffffffffffffffffffffffffffffffffffffff16612a0f61109b565b73ffffffffffffffffffffffffffffffffffffffff1614612a65576040517f08c379a0000000000000000000000000000000000000000000000000000000008152600401612a5c90614ae8565b60405180910390fd5b612a6e8161301b565b50565b8573ffffffffffffffffffffffffffffffffffffffff1663d505accf333088888888886040518863ffffffff1660e01b8152600401612ab697969594939291906147b1565b600060405180830381600087803b158015612ad057600080fd5b505af1158015612ae4573d6000803e3d6000fd5b50505050505050505050565b600033905090565b80421115612b3b576040517f08c379a0000000000000000000000000000000000000000000000000000000008152600401612b3290614b08565b60405180910390fd5b50565b6000603360009054906101000a900473ffffffffffffffffffffffffffffffffffffffff16905081603360006101000a81548173ffffffffffffffffffffffffffffffffffffffff021916908373ffffffffffffffffffffffffffffffffffffffff1602179055508173ffffffffffffffffffffffffffffffffffffffff168173ffffffffffffffffffffffffffffffffffffffff167f8be0079c531659141344cd1fd0a4f28419497f9722a3daafe3b4186f6b6457e060405160405180910390a35050565b600080612c928888888673ffffffffffffffffffffffffffffffffffffffff166318160ddd6040518163ffffffff1660e01b815260040160206040518083038186803b158015612c5357600080fd5b505afa158015612c67573d6000803e3d6000fd5b505050506040513d601f19601f82011682018060405250810190612c8b9190614003565b8989613113565b509050809150509695505050505050565b600060019054906101000a900460ff1680612cc9575060008054906101000a900460ff16155b612d08576040517f08c379a0000000000000000000000000000000000000000000000000000000008152600401612cff90614ac8565b60405180910390fd5b60008060019054906101000a900460ff161590508015612d58576001600060016101000a81548160ff02191690831515021790555060016000806101000a81548160ff0219169083151502179055505b8015612d795760008060016101000a81548160ff0219169083151502179055505b50565b600060019054906101000a900460ff1680612da2575060008054906101000a900460ff16155b612de1576040517f08c379a0000000000000000000000000000000000000000000000000000000008152600401612dd890614ac8565b60405180910390fd5b60008060019054906101000a900460ff161590508015612e31576001600060016101000a81548160ff02191690831515021790555060016000806101000a81548160ff0219169083151502179055505b612e41612e3c612af0565b612b3e565b8015612e625760008060016101000a81548160ff0219169083151502179055505b50565b600060019054906101000a900460ff1680612e8b575060008054906101000a900460ff16155b612eca576040517f08c379a0000000000000000000000000000000000000000000000000000000008152600401612ec190614ac8565b60405180910390fd5b60008060019054906101000a900460ff161590508015612f1a576001600060016101000a81548160ff02191690831515021790555060016000806101000a81548160ff0219169083151502179055505b60016065819055508015612f435760008060016101000a81548160ff0219169083151502179055505b50565b60006040517f3d602d80600a3d3981f3363d3d373d3d3d363d7300000000000000000000000081528260601b60148201527f5af43d82803e903d91602b57fd5bf3000000000000000000000000000000000060288201526037816000f0915050600073ffffffffffffffffffffffffffffffffffffffff168173ffffffffffffffffffffffffffffffffffffffff161415613016576040517f08c379a000000000000000000000000000000000000000000000000000000000815260040161300d90614a88565b60405180910390fd5b919050565b613023612af0565b73ffffffffffffffffffffffffffffffffffffffff1661304161109b565b73ffffffffffffffffffffffffffffffffffffffff1614613097576040517f08c379a000000000000000000000000000000000000000000000000000000000815260040161308e90614ae8565b60405180910390fd5b600073ffffffffffffffffffffffffffffffffffffffff168173ffffffffffffffffffffffffffffffffffffffff161415613107576040517f08c379a00000000000000000000000000000000000000000000000000000000081526004016130fe906149c8565b60405180910390fd5b61311081612b3e565b50565b60008060008060006131358b8b8b8b61312b8c613180565b8b6000015461325c565b8093508194508295505050506000838b60010154848461315591906152f8565b61315f91906150fc565b61316991906152f8565b905083819550955050505050965096945050505050565b600080826003015490506000836001015490508142101561325157600084600201549050600085600001549050808311156132035781846131c191906152f8565b82426131cd91906152f8565b82856131d991906152f8565b6131e3919061529e565b6131ed91906150fc565b816131f891906150a6565b945050505050613257565b818461320f91906152f8565b824261321b91906152f8565b848361322791906152f8565b613231919061529e565b61323b91906150fc565b8161324691906152f8565b945050505050613257565b80925050505b919050565b60008060008061328f8960000160009054906101000a900473ffffffffffffffffffffffffffffffffffffffff166134f1565b905060006132a1828b60010154613583565b905060006132d28a60000160009054906101000a900473ffffffffffffffffffffffffffffffffffffffff166134f1565b905060006132e4828c60010154613583565b905060006040518060a0016040528060008152602001600081526020016000815260200160008152602001600081525090508981608001818152505061332f82858360800151613599565b8160000181815250508a81600001518f613349919061529e565b61335391906150fc565b816000015161336291906152f8565b816020018181525050838e11156133ae576040517f08c379a00000000000000000000000000000000000000000000000000000000081526004016133a590614a08565b60405180910390fd5b6133c1816080015183836020015161374b565b8160400181815250506133d3896138c8565b81606001818152505060006402540be400826060015183604001518460000151856020015189613403919061529e565b61340d91906150fc565b61341791906152f8565b613421919061529e565b61342b91906150fc565b8561343691906152f8565b905060006402540be4008360600151846000015185602001518761345a919061529e565b61346491906150fc565b8661346f91906152f8565b613479919061529e565b61348391906150fc565b8461348e91906152f8565b905060006134a5846080015183866020015161374b565b836134b091906152f8565b90508f600101546001826134c491906152f8565b6134ce91906150fc565b9050808460400151889a509a509a50505050505050505096509650969350505050565b60008173ffffffffffffffffffffffffffffffffffffffff166370a08231306040518263ffffffff1660e01b815260040161352c919061476d565b60206040518083038186803b15801561354457600080fd5b505afa158015613558573d6000803e3d6000fd5b505050506040513d601f19601f8201168201806040525081019061357c9190614003565b9050919050565b60008183613591919061529e565b905092915050565b60008083856135a891906150a6565b905060008114156135bd576000915050613744565b60008082905060006002866135d2919061529e565b905060005b61010081101561370857600083905060028a6135f3919061529e565b84826135ff919061529e565b61360991906150fc565b9050600289613618919061529e565b8482613624919061529e565b61362e91906150fc565b9050839450600084600283613643919061529e565b60648987613651919061529e565b61365b91906150fc565b61366591906150a6565b61366f919061529e565b90506000826001600261368291906150a6565b61368c919061529e565b60648760648861369c91906152f8565b6136a6919061529e565b6136b091906150fc565b6136ba91906150a6565b905080826136c891906150fc565b95506136dd87876138de90919063ffffffff16565b156136f2578598505050505050505050613744565b50505080806137009061549e565b9150506135d7565b506040517f08c379a000000000000000000000000000000000000000000000000000000000815260040161373b90614b88565b60405180910390fd5b9392505050565b60008060028461375b919061529e565b8384613767919061529e565b61377191906150fc565b905060008490506000600287613787919061529e565b9050600281613796919061529e565b606486856137a4919061529e565b6137ae919061529e565b6137b891906150fc565b92506000816064876137ca919061529e565b6137d491906150fc565b836137df91906150a6565b905060008087905060005b610100811015613885578192506000878384613806919061529e565b61381091906150a6565b905060008a86600286613823919061529e565b61382d91906150a6565b61383791906152f8565b9050808261384591906150fc565b935061385a85856138de90919063ffffffff16565b15613870578399505050505050505050506138c1565b5050808061387d9061549e565b9150506137ea565b506040517f08c379a00000000000000000000000000000000000000000000000000000000081526004016138b890614b68565b60405180910390fd5b9392505050565b60006002826138d791906150fc565b9050919050565b600060016138ec84846138f6565b1115905092915050565b60008183111561391357818361390c91906152f8565b9050613922565b828261391f91906152f8565b90505b92915050565b6040518060400160405280600290602082028036833780820191505090505090565b600061395d61395884614f68565b614f43565b9050808285602086028201111561397357600080fd5b60005b858110156139a357816139898882613be9565b845260208401935060208301925050600181019050613976565b5050509392505050565b60006139c06139bb84614f8e565b614f43565b9050828152602081018484840111156139d857600080fd5b6139e384828561542b565b509392505050565b60006139fe6139f984614f8e565b614f43565b905082815260208101848484011115613a1657600080fd5b613a2184828561543a565b509392505050565b600081359050613a3881615897565b92915050565b60008083601f840112613a5057600080fd5b8235905067ffffffffffffffff811115613a6957600080fd5b602083019150836020820283011115613a8157600080fd5b9250929050565b600081905082602060020282011115613aa057600080fd5b92915050565b600082601f830112613ab757600080fd5b6002613ac484828561394a565b91505092915050565b60008083601f840112613adf57600080fd5b8235905067ffffffffffffffff811115613af857600080fd5b602083019150836020820283011115613b1057600080fd5b9250929050565b600081359050613b26816158ae565b92915050565b600081519050613b3b816158ae565b92915050565b600081359050613b50816158c5565b92915050565b600081359050613b65816158dc565b92915050565b600081359050613b7a816158f3565b92915050565b600082601f830112613b9157600080fd5b8135613ba18482602086016139ad565b91505092915050565b600082601f830112613bbb57600080fd5b8151613bcb8482602086016139eb565b91505092915050565b600081359050613be38161590a565b92915050565b600081519050613bf88161590a565b92915050565b600081359050613c0d81615921565b92915050565b600081519050613c2281615921565b92915050565b600060208284031215613c3a57600080fd5b6000613c4884828501613a29565b91505092915050565b60008060008060008060c08789031215613c6a57600080fd5b6000613c7889828a01613a29565b9650506020613c8989828a01613bd4565b9550506040613c9a89828a01613bd4565b9450506060613cab89828a01613bfe565b9350506080613cbc89828a01613b41565b92505060a0613ccd89828a01613b41565b9150509295509295509295565b60008060208385031215613ced57600080fd5b600083013567ffffffffffffffff811115613d0757600080fd5b613d1385828601613a3e565b92509250509250929050565b600080600060808486031215613d3457600080fd5b6000613d4286828701613a88565b9350506040613d5386828701613bd4565b9250506060613d6486828701613bd4565b9150509250925092565b600060408284031215613d8057600080fd5b6000613d8e84828501613aa6565b91505092915050565b600080600060408486031215613dac57600080fd5b600084013567ffffffffffffffff811115613dc657600080fd5b613dd286828701613acd565b93509350506020613de586828701613b17565b9150509250925092565b600060208284031215613e0157600080fd5b6000613e0f84828501613b2c565b91505092915050565b600080600080600080600080610100898b031215613e3557600080fd5b6000613e438b828c01613b56565b9850506020613e548b828c01613b56565b975050604089013567ffffffffffffffff811115613e7157600080fd5b613e7d8b828c01613b80565b965050606089013567ffffffffffffffff811115613e9a57600080fd5b613ea68b828c01613b80565b9550506080613eb78b828c01613bd4565b94505060a0613ec88b828c01613bd4565b93505060c0613ed98b828c01613bd4565b92505060e0613eea8b828c01613b6b565b9150509295985092959890939650565b60008060408385031215613f0d57600080fd5b6000613f1b85828601613b56565b9250506020613f2c85828601613bd4565b9150509250929050565b60008060008060808587031215613f4c57600080fd5b6000613f5a87828801613b56565b9450506020613f6b87828801613bd4565b9350506040613f7c87828801613bd4565b9250506060613f8d87828801613bd4565b91505092959194509250565b600060208284031215613fab57600080fd5b600082015167ffffffffffffffff811115613fc557600080fd5b613fd184828501613baa565b91505092915050565b600060208284031215613fec57600080fd5b6000613ffa84828501613bd4565b91505092915050565b60006020828403121561401557600080fd5b600061402384828501613be9565b91505092915050565b60008060006080848603121561404157600080fd5b600061404f86828701613bd4565b935050602061406086828701613a88565b925050606061407186828701613bd4565b9150509250925092565b6000806040838503121561408e57600080fd5b600061409c85828601613bd4565b92505060206140ad85828601613b56565b9150509250929050565b600080600080608085870312156140cd57600080fd5b60006140db87828801613bd4565b94505060206140ec87828801613b56565b93505060406140fd87828801613bd4565b925050606061410e87828801613bd4565b91505092959194509250565b6000806040838503121561412d57600080fd5b600061413b85828601613bd4565b925050602061414c85828601613bd4565b9150509250929050565b60006020828403121561416857600080fd5b600061417684828501613c13565b91505092915050565b600061418b83836143af565b905092915050565b600061419f83836146cc565b60408301905092915050565b60006141b78383614709565b60208301905092915050565b6141cc81615360565b82525050565b60006141dd82614fe3565b6141e78185615041565b9350836020820285016141f985614fbf565b8060005b858110156142355784840389528151614216858261417f565b94506142218361501a565b925060208a019950506001810190506141fd565b50829750879550505050505092915050565b61425081614fee565b61425a8184615052565b925061426582614fcf565b8060005b8381101561429657815161427d8782614193565b965061428883615027565b925050600181019050614269565b505050505050565b6142aa6040838361542b565b5050565b6142b781614ff9565b6142c1818461505d565b92506142cc82614fd9565b8060005b838110156142fd5781516142e487826141ab565b96506142ef83615034565b9250506001810190506142d0565b505050505050565b60006143118385615068565b93507f07ffffffffffffffffffffffffffffffffffffffffffffffffffffffffffffff83111561434057600080fd5b60208302925061435183858461542b565b82840190509392505050565b61436681615372565b82525050565b61437581615372565b82525050565b6143848161537e565b82525050565b6000614396838561508a565b93506143a383858461542b565b82840190509392505050565b60006143ba82615004565b6143c48185615079565b93506143d481856020860161543a565b6143dd81615574565b840191505092915050565b6143f1816153e3565b82525050565b614400816153e3565b82525050565b61440f81615407565b82525050565b61441e81615407565b82525050565b600061442f8261500f565b6144398185615095565b935061444981856020860161543a565b61445281615574565b840191505092915050565b600061446a602683615095565b915061447582615592565b604082019050919050565b600061448d601083615095565b9150614498826155e1565b602082019050919050565b60006144b0601883615095565b91506144bb8261560a565b602082019050919050565b60006144d3601983615095565b91506144de82615633565b602082019050919050565b60006144f6601283615095565b91506145018261565c565b602082019050919050565b6000614519600e83615095565b915061452482615685565b602082019050919050565b600061453c601683615095565b9150614547826156ae565b602082019050919050565b600061455f601283615095565b915061456a826156d7565b602082019050919050565b6000614582602e83615095565b915061458d82615700565b604082019050919050565b60006145a5602083615095565b91506145b08261574f565b602082019050919050565b60006145c8601083615095565b91506145d382615778565b602082019050919050565b60006145eb601283615095565b91506145f6826157a1565b602082019050919050565b600061460e601483615095565b9150614619826157ca565b602082019050919050565b6000614631601e83615095565b915061463c826157f3565b602082019050919050565b6000614654601383615095565b915061465f8261581c565b602082019050919050565b6000614677601f83615095565b915061468282615845565b602082019050919050565b600061469a601c83615095565b91506146a58261586e565b602082019050919050565b8082525050565b8082525050565b8082525050565b8082525050565b6040820160008201516146e260008501826143f7565b5060208201516146f56020850182614736565b50505050565b8082525050565b8082525050565b614712816153cc565b82525050565b614721816153cc565b82525050565b614730816153cc565b82525050565b61473f816153cc565b82525050565b61474e816153d6565b82525050565b600061476182848661438a565b91508190509392505050565b600060208201905061478260008301846141c3565b92915050565b600060408201905061479d60008301856141c3565b6147aa60208301846141c3565b9392505050565b600060e0820190506147c6600083018a6141c3565b6147d360208301896141c3565b6147e06040830188614718565b6147ed6060830187614718565b6147fa6080830186614745565b61480760a083018561437b565b61481460c083018461437b565b98975050505050505050565b6000602082019050818103600083015261483a81846141d2565b905092915050565b6000610140820190506148586000830189614247565b614865608083018861429e565b61487260c0830187614727565b61487f60e08301866146b7565b61488d6101008301856146c5565b61489b610120830184614415565b979650505050505050565b6000610100820190506148bc6000830189614247565b81810360808301526148cf818789614305565b90506148de60a083018661436c565b6148eb60c08301856146b7565b6148f860e0830184614415565b979650505050505050565b600060408201905061491860008301846142ae565b92915050565b6000602082019050614933600083018461435d565b92915050565b600060208201905061494e60008301846143e8565b92915050565b60006020820190506149696000830184614406565b92915050565b600060208201905081810360008301526149898184614424565b905092915050565b600060408201905081810360008301526149ab8185614424565b905081810360208301526149bf8184614424565b90509392505050565b600060208201905081810360008301526149e18161445d565b9050919050565b60006020820190508181036000830152614a0181614480565b9050919050565b60006020820190508181036000830152614a21816144a3565b9050919050565b60006020820190508181036000830152614a41816144c6565b9050919050565b60006020820190508181036000830152614a61816144e9565b9050919050565b60006020820190508181036000830152614a818161450c565b9050919050565b60006020820190508181036000830152614aa18161452f565b9050919050565b60006020820190508181036000830152614ac181614552565b9050919050565b60006020820190508181036000830152614ae181614575565b9050919050565b60006020820190508181036000830152614b0181614598565b9050919050565b60006020820190508181036000830152614b21816145bb565b9050919050565b60006020820190508181036000830152614b41816145de565b9050919050565b60006020820190508181036000830152614b6181614601565b9050919050565b60006020820190508181036000830152614b8181614624565b9050919050565b60006020820190508181036000830152614ba181614647565b9050919050565b60006020820190508181036000830152614bc18161466a565b9050919050565b60006020820190508181036000830152614be18161468d565b9050919050565b6000602082019050614bfd60008301846146b0565b92915050565b6000606082019050614c1860008301866146b0565b614c256020830185614727565b614c326040830184614727565b949350505050565b6000604082019050614c4f60008301856146be565b614c5c6020830184614727565b9392505050565b6000602082019050614c7860008301846146fb565b92915050565b6000608082019050614c936000830187614702565b614ca06020830186614702565b614cad60408301856146b7565b614cba6060830184614415565b95945050505050565b600060a082019050614cd86000830188614702565b614ce56020830187614702565b614cf26040830186614727565b614cff60608301856146b7565b614d0c60808301846146c5565b9695505050505050565b600060c082019050614d2b6000830189614702565b614d386020830188614702565b614d456040830187614727565b614d526060830186614727565b614d5f60808301856146b7565b614d6c60a08301846146c5565b979650505050505050565b6000602082019050614d8c6000830184614718565b92915050565b600061010082019050614da86000830187614727565b614db56020830186614247565b614dc260a083018561429e565b614dcf60e0830184614415565b95945050505050565b600060c082019050614ded6000830186614727565b614dfa6020830185614247565b614e0760a0830184614415565b949350505050565b600060e082019050614e24600083018a614727565b614e316020830189614702565b614e3e6040830188614702565b614e4b6060830187614727565b614e5860808301866146b7565b614e6560a08301856146c5565b614e7260c0830184614415565b98975050505050505050565b6000604082019050614e936000830185614718565b614ea06020830184614718565b9392505050565b6000608082019050614ebc6000830187614718565b614ec96020830186614718565b614ed66040830185614718565b614ee36060830184614718565b95945050505050565b60008083356001602003843603038112614f0557600080fd5b80840192508235915067ffffffffffffffff821115614f2357600080fd5b602083019250600182023603831315614f3b57600080fd5b509250929050565b6000614f4d614f5e565b9050614f59828261546d565b919050565b6000604051905090565b600067ffffffffffffffff821115614f8357614f82615545565b5b602082029050919050565b600067ffffffffffffffff821115614fa957614fa8615545565b5b614fb282615574565b9050602081019050919050565b6000819050602082019050919050565b6000819050919050565b6000819050919050565b600081519050919050565b600060029050919050565b600060029050919050565b600081519050919050565b600081519050919050565b6000602082019050919050565b6000602082019050919050565b6000602082019050919050565b600082825260208201905092915050565b600081905092915050565b600081905092915050565b600082825260208201905092915050565b600082825260208201905092915050565b600081905092915050565b600082825260208201905092915050565b60006150b1826153cc565b91506150bc836153cc565b9250827fffffffffffffffffffffffffffffffffffffffffffffffffffffffffffffffff038211156150f1576150f06154e7565b5b828201905092915050565b6000615107826153cc565b9150615112836153cc565b92508261512257615121615516565b5b828204905092915050565b6000808291508390505b600185111561517757808604811115615153576151526154e7565b5b60018516156151625780820291505b808102905061517085615585565b9450615137565b94509492505050565b600061518b826153cc565b9150615196836153d6565b92506151c37fffffffffffffffffffffffffffffffffffffffffffffffffffffffffffffffff84846151cb565b905092915050565b6000826151db5760019050615297565b816151e95760009050615297565b81600181146151ff576002811461520957615238565b6001915050615297565b60ff84111561521b5761521a6154e7565b5b8360020a915084821115615232576152316154e7565b5b50615297565b5060208310610133831016604e8410600b841016171561526d5782820a905083811115615268576152676154e7565b5b615297565b61527a848484600161512d565b92509050818404811115615291576152906154e7565b5b81810290505b9392505050565b60006152a9826153cc565b91506152b4836153cc565b9250817fffffffffffffffffffffffffffffffffffffffffffffffffffffffffffffffff04831182151516156152ed576152ec6154e7565b5b828202905092915050565b6000615303826153cc565b915061530e836153cc565b925082821015615321576153206154e7565b5b828203905092915050565b6000615337826153d6565b9150615342836153d6565b925082821015615355576153546154e7565b5b828203905092915050565b600061536b826153ac565b9050919050565b60008115159050919050565b6000819050919050565b600061539382615360565b9050919050565b60006153a582615360565b9050919050565b600073ffffffffffffffffffffffffffffffffffffffff82169050919050565b6000819050919050565b600060ff82169050919050565b60006153ee826153f5565b9050919050565b6000615400826153ac565b9050919050565b600061541282615419565b9050919050565b6000615424826153ac565b9050919050565b82818337600083830152505050565b60005b8381101561545857808201518184015260208101905061543d565b83811115615467576000848401525b50505050565b61547682615574565b810181811067ffffffffffffffff8211171561549557615494615545565b5b80604052505050565b60006154a9826153cc565b91507fffffffffffffffffffffffffffffffffffffffffffffffffffffffffffffffff8214156154dc576154db6154e7565b5b600182019050919050565b7f4e487b7100000000000000000000000000000000000000000000000000000000600052601160045260246000fd5b7f4e487b7100000000000000000000000000000000000000000000000000000000600052601260045260246000fd5b7f4e487b7100000000000000000000000000000000000000000000000000000000600052604160045260246000fd5b6000601f19601f8301169050919050565b60008160011c9050919050565b7f4f776e61626c653a206e6577206f776e657220697320746865207a65726f206160008201527f6464726573730000000000000000000000000000000000000000000000000000602082015250565b7f4455504c49434154455f544f4b454e5300000000000000000000000000000000600082015250565b7f414d4f554e545f455843454544535f415641494c41424c450000000000000000600082015250565b7f5f61646d696e4665652065786365656473206d6178696d756d00000000000000600082015250565b7f544f4b454e305f5a45524f414444524553530000000000000000000000000000600082015250565b7f4241445f544f4b454e5f46524f4d000000000000000000000000000000000000600082015250565b7f455243313136373a20637265617465206661696c656400000000000000000000600082015250565b7f5f612065786365656473206d6178696d756d0000000000000000000000000000600082015250565b7f496e697469616c697a61626c653a20636f6e747261637420697320616c72656160008201527f647920696e697469616c697a6564000000000000000000000000000000000000602082015250565b7f4f776e61626c653a2063616c6c6572206973206e6f7420746865206f776e6572600082015250565b7f446561646c696e65206e6f74206d657400000000000000000000000000000000600082015250565b7f544f4b454e315f5a45524f414444524553530000000000000000000000000000600082015250565b7f5f6665652065786365656473206d6178696d756d000000000000000000000000600082015250565b7f417070726f78696d6174696f6e20646964206e6f7420636f6e76657267650000600082015250565b7f4420646f6573206e6f7420636f6e766572676500000000000000000000000000600082015250565b7f5265656e7472616e637947756172643a207265656e7472616e742063616c6c00600082015250565b7f636f756c64206e6f7420696e6974206c70546f6b656e20636c6f6e6500000000600082015250565b6158a081615360565b81146158ab57600080fd5b50565b6158b781615372565b81146158c257600080fd5b50565b6158ce8161537e565b81146158d957600080fd5b50565b6158e581615388565b81146158f057600080fd5b50565b6158fc8161539a565b811461590757600080fd5b50565b615913816153cc565b811461591e57600080fd5b50565b61592a816153d6565b811461593557600080fd5b5056fea2646970667358221220ffe195bae0de159871bd8a2a92b9b8284ae2cafbfecd64f56b6d77b7b032c32b64736f6c63430008040033",
  "libraries": {
    "SwapUtils": "0x6c883B82a0e2e6f69e4E51830Abe42692E2a3a7C"
  },
  "devdoc": {
    "details": "TenderSwap is a light-weight StableSwap implementation for two assets. See the Curve StableSwap paper for more details (https://curve.fi/files/stableswap-paper.pdf). that trade 1:1 with eachother (e.g. USD stablecoins or tenderToken derivatives vs their underlying assets). It supports Elastic Supply ERC20 tokens, which are tokens of which the balances can change as the total supply of the token 'rebases'.",
    "kind": "dev",
    "methods": {
      "addLiquidity(uint256[2],uint256,uint256)": {
        "params": {
          "_amounts": "the amounts of each token to add, in their native precision          according to the cardinality of the pool [token0, token1]",
          "_deadline": "latest timestamp to accept this transaction",
          "_minToMint": "the minimum LP tokens adding this amount of liquidity should mint, otherwise revert. Handy for front-running mitigation"
        },
        "returns": {
          "_0": "amount of LP token user minted and received"
        }
      },
      "calculateRemoveLiquidity(uint256)": {
        "params": {
          "amount": "the amount of LP tokens that would be burned on withdrawal"
        },
        "returns": {
          "_0": "array of token balances that the user will receive"
        }
      },
      "calculateRemoveLiquidityOneToken(uint256,address)": {
        "params": {
          "tokenAmount": "the amount of LP token to burn",
          "tokenReceive": "the token to receive"
        },
        "returns": {
          "_0": "calculated amount of underlying token to be received. available to withdraw"
        }
      },
      "calculateSwap(address,uint256)": {
        "params": {
          "_dx": "the amount of tokens the user wants to sell. If the token charges a fee on transfers, use the amount that gets transferred after the fee.",
          "_tokenFrom": "the token the user wants to sell"
        },
        "returns": {
          "_0": "amount of tokens the user will receive"
        }
      },
      "calculateTokenAmount(uint256[],bool)": {
        "details": "This shouldn't be used outside frontends for user estimates.",
        "params": {
          "amounts": "an array of token amounts to deposit or withdrawal, corresponding to pool cardinality of [token0, token1]. The amount should be in each pooled token's native precision.",
          "deposit": "whether this is a deposit or a withdrawal"
        },
        "returns": {
          "_0": "token amount the user will receive"
        }
      },
      "getA()": {
        "details": "See the StableSwap paper for details",
        "returns": {
          "_0": "the amplifaction coefficient"
        }
      },
      "getAPrecise()": {
        "details": "See the StableSwap paper for details",
        "returns": {
          "_0": "A parameter in its raw precision form"
        }
      },
      "getToken0()": {
        "details": "EVM return type is IERC20",
        "returns": {
          "_0": "contract address"
        }
      },
      "getToken0Balance()": {
        "returns": {
          "_0": "current balance of the pooled tendertoken"
        }
      },
      "getToken1()": {
        "details": "EVM return type is IERC20",
        "returns": {
          "_0": "contract address"
        }
      },
      "getToken1Balance()": {
        "returns": {
          "_0": "current balance of the pooled underlying token"
        }
      },
      "getVirtualPrice()": {
        "returns": {
          "_0": "the override price, scaled to the POOL_PRECISION_DECIMALS"
        }
      },
      "initialize(address,address,string,string,uint256,uint256,uint256,address)": {
        "params": {
          "_a": "the amplification coefficient * n * (n - 1). See the StableSwap paper for details",
          "_adminFee": "default adminFee to be initialized with",
          "_fee": "default swap fee to be initialized with",
          "_token0": "First token in the pool",
          "_token1": "Second token in the pool",
          "lpTokenName": "the long-form name of the token to be deployed",
          "lpTokenSymbol": "the short symbol for the token to be deployed",
          "lpTokenTargetAddress": "the address of an existing LiquidityPoolToken contract to use as a target"
        },
        "returns": {
          "_0": "true is successfully initialized"
        }
      },
      "multicall(bytes[])": {
        "details": "The `msg.value` should not be trusted for any method callable from multicall.",
        "params": {
          "_data": "The encoded function data for each of the calls to make to this contract"
        },
        "returns": {
          "results": "The results from each of the calls passed in via data"
        }
      },
      "owner()": {
        "details": "Returns the address of the current owner."
      },
      "rampA(uint256,uint256)": {
        "params": {
          "futureA": "the new A to ramp towards",
          "futureTime": "timestamp when the new A should be reached"
        }
      },
      "removeLiquidity(uint256,uint256[2],uint256)": {
        "details": "Liquidity can always be removed, even when the pool is paused.",
        "params": {
          "amount": "the amount of LP tokens to burn",
          "deadline": "latest timestamp to accept this transaction",
          "minAmounts": "the minimum amounts of each token in the pool        acceptable for this burn. Useful as a front-running mitigation        according to the cardinality of the pool [token0, token1]"
        },
        "returns": {
          "_0": "is the amounts of tokens user received"
        }
      },
      "removeLiquidityImbalance(uint256[2],uint256,uint256)": {
        "params": {
          "_amounts": "how much of each token to withdraw",
          "_deadline": "latest timestamp to accept this transaction",
          "_maxBurnAmount": "the max LP token provider is willing to pay to remove liquidity. Useful as a front-running mitigation."
        },
        "returns": {
          "_0": "amount of LP tokens burned"
        }
      },
      "removeLiquidityOneToken(uint256,address,uint256,uint256)": {
        "params": {
          "_deadline": "latest timestamp to accept this transaction",
          "_minAmount": "the minimum amount to withdraw, otherwise revert",
          "_tokenAmount": "the amount of the token you want to receive",
          "_tokenReceive": "the  token you want to receive"
        },
        "returns": {
          "_0": "amount of chosen token user received"
        }
      },
      "renounceOwnership()": {
        "details": "Leaves the contract without owner. It will not be possible to call `onlyOwner` functions anymore. Can only be called by the current owner. NOTE: Renouncing ownership will leave the contract without an owner, thereby removing any functionality that is only available to the owner."
      },
      "selfPermit(address,uint256,uint256,uint8,bytes32,bytes32)": {
        "details": "The `owner` is always msg.sender and the `spender` is always address(this).",
        "params": {
          "_deadline": "A timestamp, the current blocktime must be less than or equal to this timestamp",
          "_r": "Must produce valid secp256k1 signature from the holder along with `v` and `s`",
          "_s": "Must produce valid secp256k1 signature from the holder along with `r` and `v`",
          "_token": "The address of the token spent",
          "_v": "Must produce valid secp256k1 signature from the holder along with `r` and `s`",
          "_value": "The amount that can be spent of token"
        }
      },
      "selfPermitIfNecessary(address,uint256,uint256,uint8,bytes32,bytes32)": {
        "details": "The `owner` is always msg.sender and the `spender` is always address(this). Can be used instead of #selfPermit to prevent calls from failing due to a frontrun of a call to #selfPermit",
        "params": {
          "_deadline": "A timestamp, the current blocktime must be less than or equal to this timestamp",
          "_r": "Must produce valid secp256k1 signature from the holder along with `v` and `s`",
          "_s": "Must produce valid secp256k1 signature from the holder along with `r` and `v`",
          "_token": "The address of the token spent",
          "_v": "Must produce valid secp256k1 signature from the holder along with `r` and `s`",
          "_value": "The amount that can be spent of token"
        }
      },
      "setAdminFee(uint256)": {
        "params": {
          "newAdminFee": "new admin fee to be applied on future transactions"
        }
      },
      "setSwapFee(uint256)": {
        "params": {
          "newSwapFee": "new swap fee to be applied on future transactions"
        }
      },
      "swap(address,uint256,uint256,uint256)": {
        "details": "revert is token being sold is not in the pool.",
        "params": {
          "_deadline": "latest timestamp to accept this transaction",
          "_dx": "the amount of tokens the user wants to swap from",
          "_minDy": "the min amount the user would like to receive, or revert",
          "_tokenFrom": "the token the user wants to sell"
        },
        "returns": {
          "_0": "amount of tokens received"
        }
      },
      "transferOwnership(address)": {
        "params": {
          "_newOwner": "address of the new owner"
        }
      }
    },
    "stateVariables": {
      "lpToken": {
        "return": "lpTokenContract Liquidity pool token contract.",
        "returns": {
          "_0": "lpTokenContract Liquidity pool token contract."
        }
      }
    },
    "title": "TenderSwap",
    "version": 1
  },
  "userdoc": {
    "events": {
      "AddLiquidity(address,uint256[2],uint256[2],uint256,uint256)": {
        "notice": "AddLiquidity gets emitted when liquidity is added to the pool."
      },
      "NewAdminFee(uint256)": {
        "notice": "NewAdminFee gets emitted when the admin fee is updated."
      },
      "NewSwapFee(uint256)": {
        "notice": "NewSwapFee gets emitted when the swap fee is updated."
      },
      "RampA(uint256,uint256,uint256,uint256)": {
        "notice": "RampA gets emitted when A has started ramping up."
      },
      "RemoveLiquidity(address,uint256[2],uint256)": {
        "notice": "RemoveLiquidity gets emitted when liquidity for both tokens  is removed from the pool."
      },
      "RemoveLiquidityImbalance(address,uint256[2],uint256[2],uint256,uint256)": {
        "notice": "RemoveLiquidityImbalance gets emitted when liquidity is removed weighted differently than the pool's current balances. with different weights than that of the pool."
      },
      "RemoveLiquidityOne(address,uint256,uint256,address,uint256)": {
        "notice": "RemoveLiquidityOne gets emitted when single-sided liquidity is removed "
      },
      "StopRampA(uint256,uint256)": {
        "notice": "StopRampA gets emitted when ramping A is stopped manually"
      },
      "Swap(address,address,uint256,uint256)": {
        "notice": "Swap gets emitted when an accounts exchanges tokens."
      }
    },
    "kind": "user",
    "methods": {
      "addLiquidity(uint256[2],uint256,uint256)": {
        "notice": "Add liquidity to the pool with the given amounts of tokens"
      },
      "calculateRemoveLiquidity(uint256)": {
        "notice": "A simple method to calculate amount of each underlying tokens that is returned upon burning given amount of LP tokens"
      },
      "calculateRemoveLiquidityOneToken(uint256,address)": {
        "notice": "Calculate the amount of underlying token available to withdraw when withdrawing via only single token"
      },
      "calculateSwap(address,uint256)": {
        "notice": "Calculate amount of tokens you receive on swap"
      },
      "calculateTokenAmount(uint256[],bool)": {
        "notice": "A simple method to calculate prices from deposits or withdrawals, excluding fees but including slippage. This is helpful as an input into the various \"min\" parameters on calls to fight front-running"
      },
      "getA()": {
        "notice": "Return A, the amplification coefficient * n * (n - 1)"
      },
      "getAPrecise()": {
        "notice": "Return A in its raw precision form"
      },
      "getToken0()": {
        "notice": "Returns the contract address for token0"
      },
      "getToken0Balance()": {
        "notice": "Return current balance of token0 (tender) in the pool"
      },
      "getToken1()": {
        "notice": "Returns the contract address for token1"
      },
      "getToken1Balance()": {
        "notice": "Return current balance of token1 (underlying) in the pool"
      },
      "getVirtualPrice()": {
        "notice": "Get the override price, to help calculate profit"
      },
      "initialize(address,address,string,string,uint256,uint256,uint256,address)": {
        "notice": "Initializes this Swap contract with the given parameters. This will also clone a LPToken contract that represents users' LP positions. The owner of LPToken will be this contract - which means only this contract is allowed to mint/burn tokens."
      },
      "lpToken()": {
        "notice": "Returns the liquidity pool token contract."
      },
      "multicall(bytes[])": {
        "notice": "Call multiple functions in the current contract and return the data from all of them if they all succeed"
      },
      "rampA(uint256,uint256)": {
        "notice": "Start ramping up or down A parameter towards given futureA and futureTime Checks if the change is too rapid, and commits the new A value only when it falls under the limit range."
      },
      "removeLiquidity(uint256,uint256[2],uint256)": {
        "notice": "Burn LP tokens to remove liquidity from the pool."
      },
      "removeLiquidityImbalance(uint256[2],uint256,uint256)": {
        "notice": "Remove liquidity from the pool, weighted differently than the pool's current balances."
      },
      "removeLiquidityOneToken(uint256,address,uint256,uint256)": {
        "notice": "Remove liquidity from the pool all in one token."
      },
      "selfPermit(address,uint256,uint256,uint8,bytes32,bytes32)": {
        "notice": "Permits this contract to spend a given token from `msg.sender`"
      },
      "selfPermitIfNecessary(address,uint256,uint256,uint8,bytes32,bytes32)": {
        "notice": "Permits this contract to spend a given token from `msg.sender`"
      },
      "setAdminFee(uint256)": {
        "notice": "Update the admin fee. Admin fee takes portion of the swap fee."
      },
      "setSwapFee(uint256)": {
        "notice": "Update the swap fee to be applied on swaps"
      },
      "stopRampA()": {
        "notice": "Stop ramping A immediately. Reverts if ramp A is already stopped."
      },
      "swap(address,uint256,uint256,uint256)": {
        "notice": "Swap two tokens using this pool"
      },
      "transferOwnership(address)": {
        "notice": "Changes the owner of the contract"
      }
    },
    "version": 1
  },
  "storageLayout": {
    "storage": [
      {
        "astId": 130,
        "contract": "contracts/tenderswap/TenderSwap.sol:TenderSwap",
        "label": "_initialized",
        "offset": 0,
        "slot": "0",
        "type": "t_bool"
      },
      {
        "astId": 133,
        "contract": "contracts/tenderswap/TenderSwap.sol:TenderSwap",
        "label": "_initializing",
        "offset": 1,
        "slot": "0",
        "type": "t_bool"
      },
      {
        "astId": 1267,
        "contract": "contracts/tenderswap/TenderSwap.sol:TenderSwap",
        "label": "__gap",
        "offset": 0,
        "slot": "1",
        "type": "t_array(t_uint256)50_storage"
      },
      {
        "astId": 10,
        "contract": "contracts/tenderswap/TenderSwap.sol:TenderSwap",
        "label": "_owner",
        "offset": 0,
        "slot": "51",
        "type": "t_address"
      },
      {
        "astId": 123,
        "contract": "contracts/tenderswap/TenderSwap.sol:TenderSwap",
        "label": "__gap",
        "offset": 0,
        "slot": "52",
        "type": "t_array(t_uint256)49_storage"
      },
      {
        "astId": 184,
        "contract": "contracts/tenderswap/TenderSwap.sol:TenderSwap",
        "label": "_status",
        "offset": 0,
        "slot": "101",
        "type": "t_uint256"
      },
      {
        "astId": 227,
        "contract": "contracts/tenderswap/TenderSwap.sol:TenderSwap",
        "label": "__gap",
        "offset": 0,
        "slot": "102",
        "type": "t_array(t_uint256)49_storage"
      },
      {
        "astId": 12609,
        "contract": "contracts/tenderswap/TenderSwap.sol:TenderSwap",
        "label": "feeParams",
        "offset": 0,
        "slot": "151",
        "type": "t_struct(FeeParams)9734_storage"
      },
      {
        "astId": 12612,
        "contract": "contracts/tenderswap/TenderSwap.sol:TenderSwap",
        "label": "amplificationParams",
        "offset": 0,
        "slot": "153",
        "type": "t_struct(Amplification)12179_storage"
      },
      {
        "astId": 12615,
        "contract": "contracts/tenderswap/TenderSwap.sol:TenderSwap",
        "label": "token0",
        "offset": 0,
        "slot": "157",
        "type": "t_struct(PooledToken)9740_storage"
      },
      {
        "astId": 12618,
        "contract": "contracts/tenderswap/TenderSwap.sol:TenderSwap",
        "label": "token1",
        "offset": 0,
        "slot": "159",
        "type": "t_struct(PooledToken)9740_storage"
      },
      {
        "astId": 12622,
        "contract": "contracts/tenderswap/TenderSwap.sol:TenderSwap",
        "label": "lpToken",
        "offset": 0,
        "slot": "161",
        "type": "t_contract(LiquidityPoolToken)9619"
      }
    ],
    "types": {
      "t_address": {
        "encoding": "inplace",
        "label": "address",
        "numberOfBytes": "20"
      },
      "t_array(t_uint256)49_storage": {
        "base": "t_uint256",
        "encoding": "inplace",
        "label": "uint256[49]",
        "numberOfBytes": "1568"
      },
      "t_array(t_uint256)50_storage": {
        "base": "t_uint256",
        "encoding": "inplace",
        "label": "uint256[50]",
        "numberOfBytes": "1600"
      },
      "t_bool": {
        "encoding": "inplace",
        "label": "bool",
        "numberOfBytes": "1"
      },
      "t_contract(IERC20)2728": {
        "encoding": "inplace",
        "label": "contract IERC20",
        "numberOfBytes": "20"
      },
      "t_contract(LiquidityPoolToken)9619": {
        "encoding": "inplace",
        "label": "contract LiquidityPoolToken",
        "numberOfBytes": "20"
      },
      "t_struct(Amplification)12179_storage": {
        "encoding": "inplace",
        "label": "struct SwapUtils.Amplification",
        "members": [
          {
            "astId": 12172,
            "contract": "contracts/tenderswap/TenderSwap.sol:TenderSwap",
            "label": "initialA",
            "offset": 0,
            "slot": "0",
            "type": "t_uint256"
          },
          {
            "astId": 12174,
            "contract": "contracts/tenderswap/TenderSwap.sol:TenderSwap",
            "label": "futureA",
            "offset": 0,
            "slot": "1",
            "type": "t_uint256"
          },
          {
            "astId": 12176,
            "contract": "contracts/tenderswap/TenderSwap.sol:TenderSwap",
            "label": "initialATime",
            "offset": 0,
            "slot": "2",
            "type": "t_uint256"
          },
          {
            "astId": 12178,
            "contract": "contracts/tenderswap/TenderSwap.sol:TenderSwap",
            "label": "futureATime",
            "offset": 0,
            "slot": "3",
            "type": "t_uint256"
          }
        ],
        "numberOfBytes": "128"
      },
      "t_struct(FeeParams)9734_storage": {
        "encoding": "inplace",
        "label": "struct SwapUtils.FeeParams",
        "members": [
          {
            "astId": 9731,
            "contract": "contracts/tenderswap/TenderSwap.sol:TenderSwap",
            "label": "swapFee",
            "offset": 0,
            "slot": "0",
            "type": "t_uint256"
          },
          {
            "astId": 9733,
            "contract": "contracts/tenderswap/TenderSwap.sol:TenderSwap",
            "label": "adminFee",
            "offset": 0,
            "slot": "1",
            "type": "t_uint256"
          }
        ],
        "numberOfBytes": "64"
      },
      "t_struct(PooledToken)9740_storage": {
        "encoding": "inplace",
        "label": "struct SwapUtils.PooledToken",
        "members": [
          {
            "astId": 9737,
            "contract": "contracts/tenderswap/TenderSwap.sol:TenderSwap",
            "label": "token",
            "offset": 0,
            "slot": "0",
            "type": "t_contract(IERC20)2728"
          },
          {
            "astId": 9739,
            "contract": "contracts/tenderswap/TenderSwap.sol:TenderSwap",
            "label": "precisionMultiplier",
            "offset": 0,
            "slot": "1",
            "type": "t_uint256"
          }
        ],
        "numberOfBytes": "64"
      },
      "t_uint256": {
        "encoding": "inplace",
        "label": "uint256",
        "numberOfBytes": "32"
      }
    }
  }
}