{
  "address": "0x31aDBc6E740e19A6C541deeF023F3b7cF809A553",
  "abi": [
    {
      "anonymous": false,
      "inputs": [
        {
          "indexed": true,
          "internalType": "address",
          "name": "owner",
          "type": "address"
        },
        {
          "indexed": true,
          "internalType": "address",
          "name": "spender",
          "type": "address"
        },
        {
          "indexed": false,
          "internalType": "uint256",
          "name": "value",
          "type": "uint256"
        }
      ],
      "name": "Approval",
      "type": "event"
    },
    {
      "anonymous": false,
      "inputs": [
        {
          "indexed": true,
          "internalType": "address",
          "name": "previousOwner",
          "type": "address"
        },
        {
          "indexed": true,
          "internalType": "address",
          "name": "newOwner",
          "type": "address"
        }
      ],
      "name": "OwnershipTransferred",
      "type": "event"
    },
    {
      "anonymous": false,
      "inputs": [
        {
          "indexed": true,
          "internalType": "address",
          "name": "from",
          "type": "address"
        },
        {
          "indexed": true,
          "internalType": "address",
          "name": "to",
          "type": "address"
        },
        {
          "indexed": false,
          "internalType": "uint256",
          "name": "value",
          "type": "uint256"
        }
      ],
      "name": "Transfer",
      "type": "event"
    },
    {
      "inputs": [],
      "name": "DOMAIN_SEPARATOR",
      "outputs": [
        {
          "internalType": "bytes32",
          "name": "",
          "type": "bytes32"
        }
      ],
      "stateMutability": "view",
      "type": "function"
    },
    {
      "inputs": [
        {
          "internalType": "address",
          "name": "owner",
          "type": "address"
        },
        {
          "internalType": "address",
          "name": "spender",
          "type": "address"
        }
      ],
      "name": "allowance",
      "outputs": [
        {
          "internalType": "uint256",
          "name": "",
          "type": "uint256"
        }
      ],
      "stateMutability": "view",
      "type": "function"
    },
    {
      "inputs": [
        {
          "internalType": "address",
          "name": "spender",
          "type": "address"
        },
        {
          "internalType": "uint256",
          "name": "amount",
          "type": "uint256"
        }
      ],
      "name": "approve",
      "outputs": [
        {
          "internalType": "bool",
          "name": "",
          "type": "bool"
        }
      ],
      "stateMutability": "nonpayable",
      "type": "function"
    },
    {
      "inputs": [
        {
          "internalType": "address",
          "name": "account",
          "type": "address"
        }
      ],
      "name": "balanceOf",
      "outputs": [
        {
          "internalType": "uint256",
          "name": "",
          "type": "uint256"
        }
      ],
      "stateMutability": "view",
      "type": "function"
    },
    {
      "inputs": [
        {
          "internalType": "uint256",
          "name": "amount",
          "type": "uint256"
        }
      ],
      "name": "burn",
      "outputs": [],
      "stateMutability": "nonpayable",
      "type": "function"
    },
    {
      "inputs": [
        {
          "internalType": "address",
          "name": "account",
          "type": "address"
        },
        {
          "internalType": "uint256",
          "name": "amount",
          "type": "uint256"
        }
      ],
      "name": "burnFrom",
      "outputs": [],
      "stateMutability": "nonpayable",
      "type": "function"
    },
    {
      "inputs": [],
      "name": "decimals",
      "outputs": [
        {
          "internalType": "uint8",
          "name": "",
          "type": "uint8"
        }
      ],
      "stateMutability": "view",
      "type": "function"
    },
    {
      "inputs": [
        {
          "internalType": "address",
          "name": "spender",
          "type": "address"
        },
        {
          "internalType": "uint256",
          "name": "subtractedValue",
          "type": "uint256"
        }
      ],
      "name": "decreaseAllowance",
      "outputs": [
        {
          "internalType": "bool",
          "name": "",
          "type": "bool"
        }
      ],
      "stateMutability": "nonpayable",
      "type": "function"
    },
    {
      "inputs": [
        {
          "internalType": "address",
          "name": "spender",
          "type": "address"
        },
        {
          "internalType": "uint256",
          "name": "addedValue",
          "type": "uint256"
        }
      ],
      "name": "increaseAllowance",
      "outputs": [
        {
          "internalType": "bool",
          "name": "",
          "type": "bool"
        }
      ],
      "stateMutability": "nonpayable",
      "type": "function"
    },
    {
      "inputs": [
        {
          "internalType": "string",
          "name": "name",
          "type": "string"
        },
        {
          "internalType": "string",
          "name": "symbol",
          "type": "string"
        }
      ],
      "name": "initialize",
      "outputs": [
        {
          "internalType": "bool",
          "name": "",
          "type": "bool"
        }
      ],
      "stateMutability": "nonpayable",
      "type": "function"
    },
    {
      "inputs": [
        {
          "internalType": "address",
          "name": "recipient",
          "type": "address"
        },
        {
          "internalType": "uint256",
          "name": "amount",
          "type": "uint256"
        }
      ],
      "name": "mint",
      "outputs": [],
      "stateMutability": "nonpayable",
      "type": "function"
    },
    {
      "inputs": [],
      "name": "name",
      "outputs": [
        {
          "internalType": "string",
          "name": "",
          "type": "string"
        }
      ],
      "stateMutability": "view",
      "type": "function"
    },
    {
      "inputs": [
        {
          "internalType": "address",
          "name": "owner",
          "type": "address"
        }
      ],
      "name": "nonces",
      "outputs": [
        {
          "internalType": "uint256",
          "name": "",
          "type": "uint256"
        }
      ],
      "stateMutability": "view",
      "type": "function"
    },
    {
      "inputs": [],
      "name": "owner",
      "outputs": [
        {
          "internalType": "address",
          "name": "",
          "type": "address"
        }
      ],
      "stateMutability": "view",
      "type": "function"
    },
    {
      "inputs": [
        {
          "internalType": "address",
          "name": "owner",
          "type": "address"
        },
        {
          "internalType": "address",
          "name": "spender",
          "type": "address"
        },
        {
          "internalType": "uint256",
          "name": "value",
          "type": "uint256"
        },
        {
          "internalType": "uint256",
          "name": "deadline",
          "type": "uint256"
        },
        {
          "internalType": "uint8",
          "name": "v",
          "type": "uint8"
        },
        {
          "internalType": "bytes32",
          "name": "r",
          "type": "bytes32"
        },
        {
          "internalType": "bytes32",
          "name": "s",
          "type": "bytes32"
        }
      ],
      "name": "permit",
      "outputs": [],
      "stateMutability": "nonpayable",
      "type": "function"
    },
    {
      "inputs": [],
      "name": "renounceOwnership",
      "outputs": [],
      "stateMutability": "nonpayable",
      "type": "function"
    },
    {
      "inputs": [],
      "name": "symbol",
      "outputs": [
        {
          "internalType": "string",
          "name": "",
          "type": "string"
        }
      ],
      "stateMutability": "view",
      "type": "function"
    },
    {
      "inputs": [],
      "name": "totalSupply",
      "outputs": [
        {
          "internalType": "uint256",
          "name": "",
          "type": "uint256"
        }
      ],
      "stateMutability": "view",
      "type": "function"
    },
    {
      "inputs": [
        {
          "internalType": "address",
          "name": "recipient",
          "type": "address"
        },
        {
          "internalType": "uint256",
          "name": "amount",
          "type": "uint256"
        }
      ],
      "name": "transfer",
      "outputs": [
        {
          "internalType": "bool",
          "name": "",
          "type": "bool"
        }
      ],
      "stateMutability": "nonpayable",
      "type": "function"
    },
    {
      "inputs": [
        {
          "internalType": "address",
          "name": "sender",
          "type": "address"
        },
        {
          "internalType": "address",
          "name": "recipient",
          "type": "address"
        },
        {
          "internalType": "uint256",
          "name": "amount",
          "type": "uint256"
        }
      ],
      "name": "transferFrom",
      "outputs": [
        {
          "internalType": "bool",
          "name": "",
          "type": "bool"
        }
      ],
      "stateMutability": "nonpayable",
      "type": "function"
    },
    {
      "inputs": [
        {
          "internalType": "address",
          "name": "newOwner",
          "type": "address"
        }
      ],
      "name": "transferOwnership",
      "outputs": [],
      "stateMutability": "nonpayable",
      "type": "function"
    }
  ],
  "transactionHash": "0x4191247e93a6dc59531aa5e132636b20342c6b833d862e494d718966721386f1",
  "args": [],
  "solcInputHash": "14b0e1ff9d2182625fa00645b9479363",
  "bytecode": "0x608060405234801561001057600080fd5b50613663806100206000396000f3fe608060405234801561001057600080fd5b50600436106101375760003560e01c806370a08231116100b857806395d89b411161007c57806395d89b4114610350578063a457c2d71461036e578063a9059cbb1461039e578063d505accf146103ce578063dd62ed3e146103ea578063f2fde38b1461041a57610137565b806370a08231146102ac578063715018a6146102dc57806379cc6790146102e65780637ecebe00146103025780638da5cb5b1461033257610137565b80633644e515116100ff5780633644e515146101f6578063395093511461021457806340c10f191461024457806342966c68146102605780634cd88b761461027c57610137565b806306fdde031461013c578063095ea7b31461015a57806318160ddd1461018a57806323b872dd146101a8578063313ce567146101d8575b600080fd5b610144610436565b6040516101519190612a8c565b60405180910390f35b610174600480360381019061016f919061249d565b6104c8565b604051610181919061295d565b60405180910390f35b6101926104e6565b60405161019f9190612d4e565b60405180910390f35b6101c260048036038101906101bd91906123b0565b6104f0565b6040516101cf919061295d565b60405180910390f35b6101e06105e8565b6040516101ed9190612d69565b60405180910390f35b6101fe6105f1565b60405161020b9190612978565b60405180910390f35b61022e6004803603810190610229919061249d565b610600565b60405161023b919061295d565b60405180910390f35b61025e6004803603810190610259919061249d565b6106ac565b005b61027a60048036038101906102759190612545565b61077a565b005b610296600480360381019061029191906124d9565b61078e565b6040516102a3919061295d565b60405180910390f35b6102c660048036038101906102c1919061234b565b6108d2565b6040516102d39190612d4e565b60405180910390f35b6102e461091b565b005b61030060048036038101906102fb919061249d565b6109a3565b005b61031c6004803603810190610317919061234b565b610a1e565b6040516103299190612d4e565b60405180910390f35b61033a610a6e565b6040516103479190612942565b60405180910390f35b610358610a98565b6040516103659190612a8c565b60405180910390f35b6103886004803603810190610383919061249d565b610b2a565b604051610395919061295d565b60405180910390f35b6103b860048036038101906103b3919061249d565b610c15565b6040516103c5919061295d565b60405180910390f35b6103e860048036038101906103e391906123ff565b610c33565b005b61040460048036038101906103ff9190612374565b610d57565b6040516104119190612d4e565b60405180910390f35b610434600480360381019061042f919061234b565b610dde565b005b60606068805461044590612f2c565b80601f016020809104026020016040519081016040528092919081815260200182805461047190612f2c565b80156104be5780601f10610493576101008083540402835291602001916104be565b820191906000526020600020905b8154815290600101906020018083116104a157829003601f168201915b5050505050905090565b60006104dc6104d5610ed6565b8484610ede565b6001905092915050565b6000606754905090565b60006104fd8484846110a9565b6000606660008673ffffffffffffffffffffffffffffffffffffffff1673ffffffffffffffffffffffffffffffffffffffff1681526020019081526020016000206000610548610ed6565b73ffffffffffffffffffffffffffffffffffffffff1673ffffffffffffffffffffffffffffffffffffffff168152602001908152602001600020549050828110156105c8576040517f08c379a00000000000000000000000000000000000000000000000000000000081526004016105bf90612c2e565b60405180910390fd5b6105dc856105d4610ed6565b858403610ede565b60019150509392505050565b60006012905090565b60006105fb61132d565b905090565b60006106a261060d610ed6565b84846066600061061b610ed6565b73ffffffffffffffffffffffffffffffffffffffff1673ffffffffffffffffffffffffffffffffffffffff16815260200190815260200160002060008873ffffffffffffffffffffffffffffffffffffffff1673ffffffffffffffffffffffffffffffffffffffff1681526020019081526020016000205461069d9190612e01565b610ede565b6001905092915050565b6106b4610ed6565b73ffffffffffffffffffffffffffffffffffffffff166106d2610a6e565b73ffffffffffffffffffffffffffffffffffffffff1614610728576040517f08c379a000000000000000000000000000000000000000000000000000000000815260040161071f90612c4e565b60405180910390fd5b600081141561076c576040517f08c379a000000000000000000000000000000000000000000000000000000000815260040161076390612cee565b60405180910390fd5b610776828261136d565b5050565b61078b610785610ed6565b826114ce565b50565b60008060019054906101000a900460ff16806107b5575060008054906101000a900460ff16155b6107f4576040517f08c379a00000000000000000000000000000000000000000000000000000000081526004016107eb90612bce565b60405180910390fd5b60008060019054906101000a900460ff161590508015610844576001600060016101000a81548160ff02191690831515021790555060016000806101000a81548160ff0219169083151502179055505b61084c6116a7565b6108568484611780565b610895846040518060400160405280600181526020017f3100000000000000000000000000000000000000000000000000000000000000815250611889565b61089e8461198c565b6108a6611a8d565b6001915080156108cb5760008060016101000a81548160ff0219169083151502179055505b5092915050565b6000606560008373ffffffffffffffffffffffffffffffffffffffff1673ffffffffffffffffffffffffffffffffffffffff168152602001908152602001600020549050919050565b610923610ed6565b73ffffffffffffffffffffffffffffffffffffffff16610941610a6e565b73ffffffffffffffffffffffffffffffffffffffff1614610997576040517f08c379a000000000000000000000000000000000000000000000000000000000815260040161098e90612c4e565b60405180910390fd5b6109a16000611b76565b565b60006109b6836109b1610ed6565b610d57565b9050818110156109fb576040517f08c379a00000000000000000000000000000000000000000000000000000000081526004016109f290612c6e565b60405180910390fd5b610a0f83610a07610ed6565b848403610ede565b610a1983836114ce565b505050565b6000610a6760fd60008473ffffffffffffffffffffffffffffffffffffffff1673ffffffffffffffffffffffffffffffffffffffff168152602001908152602001600020611c3c565b9050919050565b6000603360009054906101000a900473ffffffffffffffffffffffffffffffffffffffff16905090565b606060698054610aa790612f2c565b80601f0160208091040260200160405190810160405280929190818152602001828054610ad390612f2c565b8015610b205780601f10610af557610100808354040283529160200191610b20565b820191906000526020600020905b815481529060010190602001808311610b0357829003601f168201915b5050505050905090565b60008060666000610b39610ed6565b73ffffffffffffffffffffffffffffffffffffffff1673ffffffffffffffffffffffffffffffffffffffff16815260200190815260200160002060008573ffffffffffffffffffffffffffffffffffffffff1673ffffffffffffffffffffffffffffffffffffffff16815260200190815260200160002054905082811015610bf6576040517f08c379a0000000000000000000000000000000000000000000000000000000008152600401610bed90612d0e565b60405180910390fd5b610c0a610c01610ed6565b85858403610ede565b600191505092915050565b6000610c29610c22610ed6565b84846110a9565b6001905092915050565b83421115610c76576040517f08c379a0000000000000000000000000000000000000000000000000000000008152600401610c6d90612b6e565b60405180910390fd5b600060fe54888888610c878c611c4a565b89604051602001610c9d96959493929190612993565b6040516020818303038152906040528051906020012090506000610cc082611ca8565b90506000610cd082878787611cc2565b90508973ffffffffffffffffffffffffffffffffffffffff168173ffffffffffffffffffffffffffffffffffffffff1614610d40576040517f08c379a0000000000000000000000000000000000000000000000000000000008152600401610d3790612c0e565b60405180910390fd5b610d4b8a8a8a610ede565b50505050505050505050565b6000606660008473ffffffffffffffffffffffffffffffffffffffff1673ffffffffffffffffffffffffffffffffffffffff16815260200190815260200160002060008373ffffffffffffffffffffffffffffffffffffffff1673ffffffffffffffffffffffffffffffffffffffff16815260200190815260200160002054905092915050565b610de6610ed6565b73ffffffffffffffffffffffffffffffffffffffff16610e04610a6e565b73ffffffffffffffffffffffffffffffffffffffff1614610e5a576040517f08c379a0000000000000000000000000000000000000000000000000000000008152600401610e5190612c4e565b60405180910390fd5b600073ffffffffffffffffffffffffffffffffffffffff168173ffffffffffffffffffffffffffffffffffffffff161415610eca576040517f08c379a0000000000000000000000000000000000000000000000000000000008152600401610ec190612b2e565b60405180910390fd5b610ed381611b76565b50565b600033905090565b600073ffffffffffffffffffffffffffffffffffffffff168373ffffffffffffffffffffffffffffffffffffffff161415610f4e576040517f08c379a0000000000000000000000000000000000000000000000000000000008152600401610f4590612cce565b60405180910390fd5b600073ffffffffffffffffffffffffffffffffffffffff168273ffffffffffffffffffffffffffffffffffffffff161415610fbe576040517f08c379a0000000000000000000000000000000000000000000000000000000008152600401610fb590612b4e565b60405180910390fd5b80606660008573ffffffffffffffffffffffffffffffffffffffff1673ffffffffffffffffffffffffffffffffffffffff16815260200190815260200160002060008473ffffffffffffffffffffffffffffffffffffffff1673ffffffffffffffffffffffffffffffffffffffff168152602001908152602001600020819055508173ffffffffffffffffffffffffffffffffffffffff168373ffffffffffffffffffffffffffffffffffffffff167f8c5be1e5ebec7d5bd14f71427d1e84f3dd0314c0f7b2291e5b200ac8c7c3b9258360405161109c9190612d4e565b60405180910390a3505050565b600073ffffffffffffffffffffffffffffffffffffffff168373ffffffffffffffffffffffffffffffffffffffff161415611119576040517f08c379a000000000000000000000000000000000000000000000000000000000815260040161111090612cae565b60405180910390fd5b600073ffffffffffffffffffffffffffffffffffffffff168273ffffffffffffffffffffffffffffffffffffffff161415611189576040517f08c379a000000000000000000000000000000000000000000000000000000000815260040161118090612ace565b60405180910390fd5b611194838383611ced565b6000606560008573ffffffffffffffffffffffffffffffffffffffff1673ffffffffffffffffffffffffffffffffffffffff1681526020019081526020016000205490508181101561121b576040517f08c379a000000000000000000000000000000000000000000000000000000000815260040161121290612b8e565b60405180910390fd5b818103606560008673ffffffffffffffffffffffffffffffffffffffff1673ffffffffffffffffffffffffffffffffffffffff1681526020019081526020016000208190555081606560008573ffffffffffffffffffffffffffffffffffffffff1673ffffffffffffffffffffffffffffffffffffffff16815260200190815260200160002060008282546112b09190612e01565b925050819055508273ffffffffffffffffffffffffffffffffffffffff168473ffffffffffffffffffffffffffffffffffffffff167fddf252ad1be2c89b69c2b068fc378daa952ba7f163c4a11628f55a4df523b3ef846040516113149190612d4e565b60405180910390a3611327848484611cf2565b50505050565b60006113687f8b73c3c69bb8fe3d512ecc4cf759cc79239f7b179b0ffacaa9a75d522b39400f61135b611cf7565b611363611d01565b611d0b565b905090565b600073ffffffffffffffffffffffffffffffffffffffff168273ffffffffffffffffffffffffffffffffffffffff1614156113dd576040517f08c379a00000000000000000000000000000000000000000000000000000000081526004016113d490612d2e565b60405180910390fd5b6113e960008383611ced565b80606760008282546113fb9190612e01565b9250508190555080606560008473ffffffffffffffffffffffffffffffffffffffff1673ffffffffffffffffffffffffffffffffffffffff16815260200190815260200160002060008282546114519190612e01565b925050819055508173ffffffffffffffffffffffffffffffffffffffff16600073ffffffffffffffffffffffffffffffffffffffff167fddf252ad1be2c89b69c2b068fc378daa952ba7f163c4a11628f55a4df523b3ef836040516114b69190612d4e565b60405180910390a36114ca60008383611cf2565b5050565b600073ffffffffffffffffffffffffffffffffffffffff168273ffffffffffffffffffffffffffffffffffffffff16141561153e576040517f08c379a000000000000000000000000000000000000000000000000000000000815260040161153590612c8e565b60405180910390fd5b61154a82600083611ced565b6000606560008473ffffffffffffffffffffffffffffffffffffffff1673ffffffffffffffffffffffffffffffffffffffff168152602001908152602001600020549050818110156115d1576040517f08c379a00000000000000000000000000000000000000000000000000000000081526004016115c890612aee565b60405180910390fd5b818103606560008573ffffffffffffffffffffffffffffffffffffffff1673ffffffffffffffffffffffffffffffffffffffff1681526020019081526020016000208190555081606760008282546116299190612e57565b92505081905550600073ffffffffffffffffffffffffffffffffffffffff168373ffffffffffffffffffffffffffffffffffffffff167fddf252ad1be2c89b69c2b068fc378daa952ba7f163c4a11628f55a4df523b3ef8460405161168e9190612d4e565b60405180910390a36116a283600084611cf2565b505050565b600060019054906101000a900460ff16806116cd575060008054906101000a900460ff16155b61170c576040517f08c379a000000000000000000000000000000000000000000000000000000000815260040161170390612bce565b60405180910390fd5b60008060019054906101000a900460ff16159050801561175c576001600060016101000a81548160ff02191690831515021790555060016000806101000a81548160ff0219169083151502179055505b801561177d5760008060016101000a81548160ff0219169083151502179055505b50565b600060019054906101000a900460ff16806117a6575060008054906101000a900460ff16155b6117e5576040517f08c379a00000000000000000000000000000000000000000000000000000000081526004016117dc90612bce565b60405180910390fd5b60008060019054906101000a900460ff161590508015611835576001600060016101000a81548160ff02191690831515021790555060016000806101000a81548160ff0219169083151502179055505b826068908051906020019061184b9291906121ec565b5081606990805190602001906118629291906121ec565b5080156118845760008060016101000a81548160ff0219169083151502179055505b505050565b600060019054906101000a900460ff16806118af575060008054906101000a900460ff16155b6118ee576040517f08c379a00000000000000000000000000000000000000000000000000000000081526004016118e590612bce565b60405180910390fd5b60008060019054906101000a900460ff16159050801561193e576001600060016101000a81548160ff02191690831515021790555060016000806101000a81548160ff0219169083151502179055505b6000838051906020012090506000838051906020012090508160c9819055508060ca81905550505080156119875760008060016101000a81548160ff0219169083151502179055505b505050565b600060019054906101000a900460ff16806119b2575060008054906101000a900460ff16155b6119f1576040517f08c379a00000000000000000000000000000000000000000000000000000000081526004016119e890612bce565b60405180910390fd5b60008060019054906101000a900460ff161590508015611a41576001600060016101000a81548160ff02191690831515021790555060016000806101000a81548160ff0219169083151502179055505b7f6e71edae12b1b97f4d1f60370fef10105fa2faae0126114a169c64845d6126c960fe819055508015611a895760008060016101000a81548160ff0219169083151502179055505b5050565b600060019054906101000a900460ff1680611ab3575060008054906101000a900460ff16155b611af2576040517f08c379a0000000000000000000000000000000000000000000000000000000008152600401611ae990612bce565b60405180910390fd5b60008060019054906101000a900460ff161590508015611b42576001600060016101000a81548160ff02191690831515021790555060016000806101000a81548160ff0219169083151502179055505b611b52611b4d610ed6565b611b76565b8015611b735760008060016101000a81548160ff0219169083151502179055505b50565b6000603360009054906101000a900473ffffffffffffffffffffffffffffffffffffffff16905081603360006101000a81548173ffffffffffffffffffffffffffffffffffffffff021916908373ffffffffffffffffffffffffffffffffffffffff1602179055508173ffffffffffffffffffffffffffffffffffffffff168173ffffffffffffffffffffffffffffffffffffffff167f8be0079c531659141344cd1fd0a4f28419497f9722a3daafe3b4186f6b6457e060405160405180910390a35050565b600081600001549050919050565b60008060fd60008473ffffffffffffffffffffffffffffffffffffffff1673ffffffffffffffffffffffffffffffffffffffff1681526020019081526020016000209050611c9781611c3c565b9150611ca281611d45565b50919050565b6000611cbb611cb561132d565b83611d5b565b9050919050565b6000806000611cd387878787611d8e565b91509150611ce081611e9b565b8192505050949350505050565b505050565b505050565b600060c954905090565b600060ca54905090565b60008383834630604051602001611d269594939291906129f4565b6040516020818303038152906040528051906020012090509392505050565b6001816000016000828254019250508190555050565b60008282604051602001611d7092919061290b565b60405160208183030381529060405280519060200120905092915050565b6000807f7fffffffffffffffffffffffffffffff5d576e7357a4501ddfe92f46681b20a08360001c1115611dc9576000600391509150611e92565b601b8560ff1614158015611de15750601c8560ff1614155b15611df3576000600491509150611e92565b600060018787878760405160008152602001604052604051611e189493929190612a47565b6020604051602081039080840390855afa158015611e3a573d6000803e3d6000fd5b505050602060405103519050600073ffffffffffffffffffffffffffffffffffffffff168173ffffffffffffffffffffffffffffffffffffffff161415611e8957600060019250925050611e92565b80600092509250505b94509492505050565b60006004811115611ed5577f4e487b7100000000000000000000000000000000000000000000000000000000600052602160045260246000fd5b816004811115611f0e577f4e487b7100000000000000000000000000000000000000000000000000000000600052602160045260246000fd5b1415611f19576121e9565b60016004811115611f53577f4e487b7100000000000000000000000000000000000000000000000000000000600052602160045260246000fd5b816004811115611f8c577f4e487b7100000000000000000000000000000000000000000000000000000000600052602160045260246000fd5b1415611fcd576040517f08c379a0000000000000000000000000000000000000000000000000000000008152600401611fc490612aae565b60405180910390fd5b60026004811115612007577f4e487b7100000000000000000000000000000000000000000000000000000000600052602160045260246000fd5b816004811115612040577f4e487b7100000000000000000000000000000000000000000000000000000000600052602160045260246000fd5b1415612081576040517f08c379a000000000000000000000000000000000000000000000000000000000815260040161207890612b0e565b60405180910390fd5b600360048111156120bb577f4e487b7100000000000000000000000000000000000000000000000000000000600052602160045260246000fd5b8160048111156120f4577f4e487b7100000000000000000000000000000000000000000000000000000000600052602160045260246000fd5b1415612135576040517f08c379a000000000000000000000000000000000000000000000000000000000815260040161212c90612bae565b60405180910390fd5b60048081111561216e577f4e487b7100000000000000000000000000000000000000000000000000000000600052602160045260246000fd5b8160048111156121a7577f4e487b7100000000000000000000000000000000000000000000000000000000600052602160045260246000fd5b14156121e8576040517f08c379a00000000000000000000000000000000000000000000000000000000081526004016121df90612bee565b60405180910390fd5b5b50565b8280546121f890612f2c565b90600052602060002090601f01602090048101928261221a5760008555612261565b82601f1061223357805160ff1916838001178555612261565b82800160010185558215612261579182015b82811115612260578251825591602001919060010190612245565b5b50905061226e9190612272565b5090565b5b8082111561228b576000816000905550600101612273565b5090565b60006122a261229d84612da9565b612d84565b9050828152602081018484840111156122ba57600080fd5b6122c5848285612eea565b509392505050565b6000813590506122dc816135d1565b92915050565b6000813590506122f1816135e8565b92915050565b600082601f83011261230857600080fd5b813561231884826020860161228f565b91505092915050565b600081359050612330816135ff565b92915050565b60008135905061234581613616565b92915050565b60006020828403121561235d57600080fd5b600061236b848285016122cd565b91505092915050565b6000806040838503121561238757600080fd5b6000612395858286016122cd565b92505060206123a6858286016122cd565b9150509250929050565b6000806000606084860312156123c557600080fd5b60006123d3868287016122cd565b93505060206123e4868287016122cd565b92505060406123f586828701612321565b9150509250925092565b600080600080600080600060e0888a03121561241a57600080fd5b60006124288a828b016122cd565b97505060206124398a828b016122cd565b965050604061244a8a828b01612321565b955050606061245b8a828b01612321565b945050608061246c8a828b01612336565b93505060a061247d8a828b016122e2565b92505060c061248e8a828b016122e2565b91505092959891949750929550565b600080604083850312156124b057600080fd5b60006124be858286016122cd565b92505060206124cf85828601612321565b9150509250929050565b600080604083850312156124ec57600080fd5b600083013567ffffffffffffffff81111561250657600080fd5b612512858286016122f7565b925050602083013567ffffffffffffffff81111561252f57600080fd5b61253b858286016122f7565b9150509250929050565b60006020828403121561255757600080fd5b600061256584828501612321565b91505092915050565b61257781612e8b565b82525050565b61258681612e9d565b82525050565b61259581612ea9565b82525050565b6125ac6125a782612ea9565b612f8f565b82525050565b60006125bd82612dda565b6125c78185612de5565b93506125d7818560208601612ef9565b6125e081613026565b840191505092915050565b60006125f8601883612de5565b915061260382613037565b602082019050919050565b600061261b602383612de5565b915061262682613060565b604082019050919050565b600061263e602283612de5565b9150612649826130af565b604082019050919050565b6000612661601f83612de5565b915061266c826130fe565b602082019050919050565b6000612684602683612de5565b915061268f82613127565b604082019050919050565b60006126a7602283612de5565b91506126b282613176565b604082019050919050565b60006126ca600283612df6565b91506126d5826131c5565b600282019050919050565b60006126ed601d83612de5565b91506126f8826131ee565b602082019050919050565b6000612710602683612de5565b915061271b82613217565b604082019050919050565b6000612733602283612de5565b915061273e82613266565b604082019050919050565b6000612756602e83612de5565b9150612761826132b5565b604082019050919050565b6000612779602283612de5565b915061278482613304565b604082019050919050565b600061279c601e83612de5565b91506127a782613353565b602082019050919050565b60006127bf602883612de5565b91506127ca8261337c565b604082019050919050565b60006127e2602083612de5565b91506127ed826133cb565b602082019050919050565b6000612805602483612de5565b9150612810826133f4565b604082019050919050565b6000612828602183612de5565b915061283382613443565b604082019050919050565b600061284b602583612de5565b915061285682613492565b604082019050919050565b600061286e602483612de5565b9150612879826134e1565b604082019050919050565b6000612891601683612de5565b915061289c82613530565b602082019050919050565b60006128b4602583612de5565b91506128bf82613559565b604082019050919050565b60006128d7601f83612de5565b91506128e2826135a8565b602082019050919050565b6128f681612ed3565b82525050565b61290581612edd565b82525050565b6000612916826126bd565b9150612922828561259b565b602082019150612932828461259b565b6020820191508190509392505050565b6000602082019050612957600083018461256e565b92915050565b6000602082019050612972600083018461257d565b92915050565b600060208201905061298d600083018461258c565b92915050565b600060c0820190506129a8600083018961258c565b6129b5602083018861256e565b6129c2604083018761256e565b6129cf60608301866128ed565b6129dc60808301856128ed565b6129e960a08301846128ed565b979650505050505050565b600060a082019050612a09600083018861258c565b612a16602083018761258c565b612a23604083018661258c565b612a3060608301856128ed565b612a3d608083018461256e565b9695505050505050565b6000608082019050612a5c600083018761258c565b612a6960208301866128fc565b612a76604083018561258c565b612a83606083018461258c565b95945050505050565b60006020820190508181036000830152612aa681846125b2565b905092915050565b60006020820190508181036000830152612ac7816125eb565b9050919050565b60006020820190508181036000830152612ae78161260e565b9050919050565b60006020820190508181036000830152612b0781612631565b9050919050565b60006020820190508181036000830152612b2781612654565b9050919050565b60006020820190508181036000830152612b4781612677565b9050919050565b60006020820190508181036000830152612b678161269a565b9050919050565b60006020820190508181036000830152612b87816126e0565b9050919050565b60006020820190508181036000830152612ba781612703565b9050919050565b60006020820190508181036000830152612bc781612726565b9050919050565b60006020820190508181036000830152612be781612749565b9050919050565b60006020820190508181036000830152612c078161276c565b9050919050565b60006020820190508181036000830152612c278161278f565b9050919050565b60006020820190508181036000830152612c47816127b2565b9050919050565b60006020820190508181036000830152612c67816127d5565b9050919050565b60006020820190508181036000830152612c87816127f8565b9050919050565b60006020820190508181036000830152612ca78161281b565b9050919050565b60006020820190508181036000830152612cc78161283e565b9050919050565b60006020820190508181036000830152612ce781612861565b9050919050565b60006020820190508181036000830152612d0781612884565b9050919050565b60006020820190508181036000830152612d27816128a7565b9050919050565b60006020820190508181036000830152612d47816128ca565b9050919050565b6000602082019050612d6360008301846128ed565b92915050565b6000602082019050612d7e60008301846128fc565b92915050565b6000612d8e612d9f565b9050612d9a8282612f5e565b919050565b6000604051905090565b600067ffffffffffffffff821115612dc457612dc3612ff7565b5b612dcd82613026565b9050602081019050919050565b600081519050919050565b600082825260208201905092915050565b600081905092915050565b6000612e0c82612ed3565b9150612e1783612ed3565b9250827fffffffffffffffffffffffffffffffffffffffffffffffffffffffffffffffff03821115612e4c57612e4b612f99565b5b828201905092915050565b6000612e6282612ed3565b9150612e6d83612ed3565b925082821015612e8057612e7f612f99565b5b828203905092915050565b6000612e9682612eb3565b9050919050565b60008115159050919050565b6000819050919050565b600073ffffffffffffffffffffffffffffffffffffffff82169050919050565b6000819050919050565b600060ff82169050919050565b82818337600083830152505050565b60005b83811015612f17578082015181840152602081019050612efc565b83811115612f26576000848401525b50505050565b60006002820490506001821680612f4457607f821691505b60208210811415612f5857612f57612fc8565b5b50919050565b612f6782613026565b810181811067ffffffffffffffff82111715612f8657612f85612ff7565b5b80604052505050565b6000819050919050565b7f4e487b7100000000000000000000000000000000000000000000000000000000600052601160045260246000fd5b7f4e487b7100000000000000000000000000000000000000000000000000000000600052602260045260246000fd5b7f4e487b7100000000000000000000000000000000000000000000000000000000600052604160045260246000fd5b6000601f19601f8301169050919050565b7f45434453413a20696e76616c6964207369676e61747572650000000000000000600082015250565b7f45524332303a207472616e7366657220746f20746865207a65726f206164647260008201527f6573730000000000000000000000000000000000000000000000000000000000602082015250565b7f45524332303a206275726e20616d6f756e7420657863656564732062616c616e60008201527f6365000000000000000000000000000000000000000000000000000000000000602082015250565b7f45434453413a20696e76616c6964207369676e6174757265206c656e67746800600082015250565b7f4f776e61626c653a206e6577206f776e657220697320746865207a65726f206160008201527f6464726573730000000000000000000000000000000000000000000000000000602082015250565b7f45524332303a20617070726f766520746f20746865207a65726f20616464726560008201527f7373000000000000000000000000000000000000000000000000000000000000602082015250565b7f1901000000000000000000000000000000000000000000000000000000000000600082015250565b7f45524332305065726d69743a206578706972656420646561646c696e65000000600082015250565b7f45524332303a207472616e7366657220616d6f756e742065786365656473206260008201527f616c616e63650000000000000000000000000000000000000000000000000000602082015250565b7f45434453413a20696e76616c6964207369676e6174757265202773272076616c60008201527f7565000000000000000000000000000000000000000000000000000000000000602082015250565b7f496e697469616c697a61626c653a20636f6e747261637420697320616c72656160008201527f647920696e697469616c697a6564000000000000000000000000000000000000602082015250565b7f45434453413a20696e76616c6964207369676e6174757265202776272076616c60008201527f7565000000000000000000000000000000000000000000000000000000000000602082015250565b7f45524332305065726d69743a20696e76616c6964207369676e61747572650000600082015250565b7f45524332303a207472616e7366657220616d6f756e742065786365656473206160008201527f6c6c6f77616e6365000000000000000000000000000000000000000000000000602082015250565b7f4f776e61626c653a2063616c6c6572206973206e6f7420746865206f776e6572600082015250565b7f45524332303a206275726e20616d6f756e74206578636565647320616c6c6f7760008201527f616e636500000000000000000000000000000000000000000000000000000000602082015250565b7f45524332303a206275726e2066726f6d20746865207a65726f2061646472657360008201527f7300000000000000000000000000000000000000000000000000000000000000602082015250565b7f45524332303a207472616e736665722066726f6d20746865207a65726f20616460008201527f6472657373000000000000000000000000000000000000000000000000000000602082015250565b7f45524332303a20617070726f76652066726f6d20746865207a65726f2061646460008201527f7265737300000000000000000000000000000000000000000000000000000000602082015250565b7f4c50546f6b656e3a2063616e6e6f74206d696e74203000000000000000000000600082015250565b7f45524332303a2064656372656173656420616c6c6f77616e63652062656c6f7760008201527f207a65726f000000000000000000000000000000000000000000000000000000602082015250565b7f45524332303a206d696e7420746f20746865207a65726f206164647265737300600082015250565b6135da81612e8b565b81146135e557600080fd5b50565b6135f181612ea9565b81146135fc57600080fd5b50565b61360881612ed3565b811461361357600080fd5b50565b61361f81612edd565b811461362a57600080fd5b5056fea26469706673582212202dcdf968bcc857539405b2fa9a9bc765af78e3cb68a7761ed57f3bbeb83116e664736f6c63430008040033",
  "devdoc": {
    "kind": "dev",
    "methods": {
      "DOMAIN_SEPARATOR()": {
        "details": "See {IERC20Permit-DOMAIN_SEPARATOR}."
      },
      "allowance(address,address)": {
        "details": "See {IERC20-allowance}."
      },
      "approve(address,uint256)": {
        "details": "See {IERC20-approve}. Requirements: - `spender` cannot be the zero address."
      },
      "balanceOf(address)": {
        "details": "See {IERC20-balanceOf}."
      },
      "burn(uint256)": {
        "details": "Destroys `amount` tokens from the caller. See {ERC20-_burn}."
      },
      "burnFrom(address,uint256)": {
        "details": "Destroys `amount` tokens from `account`, deducting from the caller's allowance. See {ERC20-_burn} and {ERC20-allowance}. Requirements: - the caller must have allowance for ``accounts``'s tokens of at least `amount`."
      },
      "decimals()": {
        "details": "Returns the number of decimals used to get its user representation. For example, if `decimals` equals `2`, a balance of `505` tokens should be displayed to a user as `5.05` (`505 / 10 ** 2`). Tokens usually opt for a value of 18, imitating the relationship between Ether and Wei. This is the value {ERC20} uses, unless this function is overridden; NOTE: This information is only used for _display_ purposes: it in no way affects any of the arithmetic of the contract, including {IERC20-balanceOf} and {IERC20-transfer}."
      },
      "decreaseAllowance(address,uint256)": {
        "details": "Atomically decreases the allowance granted to `spender` by the caller. This is an alternative to {approve} that can be used as a mitigation for problems described in {IERC20-approve}. Emits an {Approval} event indicating the updated allowance. Requirements: - `spender` cannot be the zero address. - `spender` must have allowance for the caller of at least `subtractedValue`."
      },
      "increaseAllowance(address,uint256)": {
        "details": "Atomically increases the allowance granted to `spender` by the caller. This is an alternative to {approve} that can be used as a mitigation for problems described in {IERC20-approve}. Emits an {Approval} event indicating the updated allowance. Requirements: - `spender` cannot be the zero address."
      },
      "initialize(string,string)": {
        "details": "The caller of this function will become the owner. A Swap contract should call this in its initializer function.",
        "params": {
          "name": "name of this token",
          "symbol": "symbol of this token"
        }
      },
      "mint(address,uint256)": {
        "details": "only owner can call this mint function.",
        "params": {
          "amount": "amount of tokens to mint",
          "recipient": "address of account to receive the tokens"
        }
      },
      "name()": {
        "details": "Returns the name of the token."
      },
      "nonces(address)": {
        "details": "See {IERC20Permit-nonces}."
      },
      "owner()": {
        "details": "Returns the address of the current owner."
      },
      "permit(address,address,uint256,uint256,uint8,bytes32,bytes32)": {
        "details": "See {IERC20Permit-permit}."
      },
      "renounceOwnership()": {
        "details": "Leaves the contract without owner. It will not be possible to call `onlyOwner` functions anymore. Can only be called by the current owner. NOTE: Renouncing ownership will leave the contract without an owner, thereby removing any functionality that is only available to the owner."
      },
      "symbol()": {
        "details": "Returns the symbol of the token, usually a shorter version of the name."
      },
      "totalSupply()": {
        "details": "See {IERC20-totalSupply}."
      },
      "transfer(address,uint256)": {
        "details": "See {IERC20-transfer}. Requirements: - `recipient` cannot be the zero address. - the caller must have a balance of at least `amount`."
      },
      "transferFrom(address,address,uint256)": {
        "details": "See {IERC20-transferFrom}. Emits an {Approval} event indicating the updated allowance. This is not required by the EIP. See the note at the beginning of {ERC20}. Requirements: - `sender` and `recipient` cannot be the zero address. - `sender` must have a balance of at least `amount`. - the caller must have allowance for ``sender``'s tokens of at least `amount`."
      },
      "transferOwnership(address)": {
        "details": "Transfers ownership of the contract to a new account (`newOwner`). Can only be called by the current owner."
      }
    },
    "version": 1
  },
  "userdoc": {
    "kind": "user",
    "methods": {
      "initialize(string,string)": {
        "notice": "Initializes this LPToken contract with the given name and symbol"
      },
      "mint(address,uint256)": {
        "notice": "Mints the given amount of LPToken to the recipient."
      }
    },
    "version": 1
  },
  "storageLayout": {
    "storage": [
      {
        "astId": 130,
        "contract": "contracts/tenderswap/LiquidityPoolToken.sol:LiquidityPoolToken",
        "label": "_initialized",
        "offset": 0,
        "slot": "0",
        "type": "t_bool"
      },
      {
        "astId": 133,
        "contract": "contracts/tenderswap/LiquidityPoolToken.sol:LiquidityPoolToken",
        "label": "_initializing",
        "offset": 1,
        "slot": "0",
        "type": "t_bool"
      },
      {
        "astId": 1267,
        "contract": "contracts/tenderswap/LiquidityPoolToken.sol:LiquidityPoolToken",
        "label": "__gap",
        "offset": 0,
        "slot": "1",
        "type": "t_array(t_uint256)50_storage"
      },
      {
        "astId": 10,
        "contract": "contracts/tenderswap/LiquidityPoolToken.sol:LiquidityPoolToken",
        "label": "_owner",
        "offset": 0,
        "slot": "51",
        "type": "t_address"
      },
      {
        "astId": 123,
        "contract": "contracts/tenderswap/LiquidityPoolToken.sol:LiquidityPoolToken",
        "label": "__gap",
        "offset": 0,
        "slot": "52",
        "type": "t_array(t_uint256)49_storage"
      },
      {
        "astId": 247,
        "contract": "contracts/tenderswap/LiquidityPoolToken.sol:LiquidityPoolToken",
        "label": "_balances",
        "offset": 0,
        "slot": "101",
        "type": "t_mapping(t_address,t_uint256)"
      },
      {
        "astId": 253,
        "contract": "contracts/tenderswap/LiquidityPoolToken.sol:LiquidityPoolToken",
        "label": "_allowances",
        "offset": 0,
        "slot": "102",
        "type": "t_mapping(t_address,t_mapping(t_address,t_uint256))"
      },
      {
        "astId": 255,
        "contract": "contracts/tenderswap/LiquidityPoolToken.sol:LiquidityPoolToken",
        "label": "_totalSupply",
        "offset": 0,
        "slot": "103",
        "type": "t_uint256"
      },
      {
        "astId": 257,
        "contract": "contracts/tenderswap/LiquidityPoolToken.sol:LiquidityPoolToken",
        "label": "_name",
        "offset": 0,
        "slot": "104",
        "type": "t_string_storage"
      },
      {
        "astId": 259,
        "contract": "contracts/tenderswap/LiquidityPoolToken.sol:LiquidityPoolToken",
        "label": "_symbol",
        "offset": 0,
        "slot": "105",
        "type": "t_string_storage"
      },
      {
        "astId": 800,
        "contract": "contracts/tenderswap/LiquidityPoolToken.sol:LiquidityPoolToken",
        "label": "__gap",
        "offset": 0,
        "slot": "106",
        "type": "t_array(t_uint256)45_storage"
      },
      {
        "astId": 965,
        "contract": "contracts/tenderswap/LiquidityPoolToken.sol:LiquidityPoolToken",
        "label": "__gap",
        "offset": 0,
        "slot": "151",
        "type": "t_array(t_uint256)50_storage"
      },
      {
        "astId": 1718,
        "contract": "contracts/tenderswap/LiquidityPoolToken.sol:LiquidityPoolToken",
        "label": "_HASHED_NAME",
        "offset": 0,
        "slot": "201",
        "type": "t_bytes32"
      },
      {
        "astId": 1720,
        "contract": "contracts/tenderswap/LiquidityPoolToken.sol:LiquidityPoolToken",
        "label": "_HASHED_VERSION",
        "offset": 0,
        "slot": "202",
        "type": "t_bytes32"
      },
      {
        "astId": 1857,
        "contract": "contracts/tenderswap/LiquidityPoolToken.sol:LiquidityPoolToken",
        "label": "__gap",
        "offset": 0,
        "slot": "203",
        "type": "t_array(t_uint256)50_storage"
      },
      {
        "astId": 1017,
        "contract": "contracts/tenderswap/LiquidityPoolToken.sol:LiquidityPoolToken",
        "label": "_nonces",
        "offset": 0,
        "slot": "253",
        "type": "t_mapping(t_address,t_struct(Counter)1274_storage)"
      },
      {
        "astId": 1019,
        "contract": "contracts/tenderswap/LiquidityPoolToken.sol:LiquidityPoolToken",
        "label": "_PERMIT_TYPEHASH",
        "offset": 0,
        "slot": "254",
        "type": "t_bytes32"
      },
      {
        "astId": 1187,
        "contract": "contracts/tenderswap/LiquidityPoolToken.sol:LiquidityPoolToken",
        "label": "__gap",
        "offset": 0,
        "slot": "255",
        "type": "t_array(t_uint256)49_storage"
      }
    ],
    "types": {
      "t_address": {
        "encoding": "inplace",
        "label": "address",
        "numberOfBytes": "20"
      },
      "t_array(t_uint256)45_storage": {
        "base": "t_uint256",
        "encoding": "inplace",
        "label": "uint256[45]",
        "numberOfBytes": "1440"
      },
      "t_array(t_uint256)49_storage": {
        "base": "t_uint256",
        "encoding": "inplace",
        "label": "uint256[49]",
        "numberOfBytes": "1568"
      },
      "t_array(t_uint256)50_storage": {
        "base": "t_uint256",
        "encoding": "inplace",
        "label": "uint256[50]",
        "numberOfBytes": "1600"
      },
      "t_bool": {
        "encoding": "inplace",
        "label": "bool",
        "numberOfBytes": "1"
      },
      "t_bytes32": {
        "encoding": "inplace",
        "label": "bytes32",
        "numberOfBytes": "32"
      },
      "t_mapping(t_address,t_mapping(t_address,t_uint256))": {
        "encoding": "mapping",
        "key": "t_address",
        "label": "mapping(address => mapping(address => uint256))",
        "numberOfBytes": "32",
        "value": "t_mapping(t_address,t_uint256)"
      },
      "t_mapping(t_address,t_struct(Counter)1274_storage)": {
        "encoding": "mapping",
        "key": "t_address",
        "label": "mapping(address => struct CountersUpgradeable.Counter)",
        "numberOfBytes": "32",
        "value": "t_struct(Counter)1274_storage"
      },
      "t_mapping(t_address,t_uint256)": {
        "encoding": "mapping",
        "key": "t_address",
        "label": "mapping(address => uint256)",
        "numberOfBytes": "32",
        "value": "t_uint256"
      },
      "t_string_storage": {
        "encoding": "bytes",
        "label": "string",
        "numberOfBytes": "32"
      },
      "t_struct(Counter)1274_storage": {
        "encoding": "inplace",
        "label": "struct CountersUpgradeable.Counter",
        "members": [
          {
            "astId": 1273,
            "contract": "contracts/tenderswap/LiquidityPoolToken.sol:LiquidityPoolToken",
            "label": "_value",
            "offset": 0,
            "slot": "0",
            "type": "t_uint256"
          }
        ],
        "numberOfBytes": "32"
      },
      "t_uint256": {
        "encoding": "inplace",
        "label": "uint256",
        "numberOfBytes": "32"
      }
    }
  }
}