{
  "address": "0x672aEd061f20f2823E5f4BCA2A15187C3B3cbf31",
  "abi": [
    {
      "anonymous": false,
      "inputs": [
        {
          "indexed": true,
          "internalType": "address",
          "name": "from",
          "type": "address"
        },
        {
          "indexed": false,
          "internalType": "uint256",
          "name": "amount",
          "type": "uint256"
        }
      ],
      "name": "Deposit",
      "type": "event"
    },
    {
      "anonymous": false,
      "inputs": [
        {
          "indexed": false,
          "internalType": "string",
          "name": "param",
          "type": "string"
        }
      ],
      "name": "GovernanceUpdate",
      "type": "event"
    },
    {
      "anonymous": false,
      "inputs": [
        {
          "indexed": false,
          "internalType": "uint256",
          "name": "amount",
          "type": "uint256"
        }
      ],
      "name": "LiquidityFeeCollected",
      "type": "event"
    },
    {
      "anonymous": false,
      "inputs": [
        {
          "indexed": false,
          "internalType": "uint256",
          "name": "amount",
          "type": "uint256"
        }
      ],
      "name": "ProtocolFeeCollected",
      "type": "event"
    },
    {
      "anonymous": false,
      "inputs": [
        {
          "indexed": false,
          "internalType": "int256",
          "name": "stakeDiff",
          "type": "int256"
        },
        {
          "indexed": false,
          "internalType": "uint256",
          "name": "currentPrincipal",
          "type": "uint256"
        },
        {
          "indexed": false,
          "internalType": "uint256",
          "name": "oldPrincipal",
          "type": "uint256"
        }
      ],
      "name": "RewardsClaimed",
      "type": "event"
    },
    {
      "anonymous": false,
      "inputs": [
        {
          "indexed": true,
          "internalType": "address",
          "name": "node",
          "type": "address"
        },
        {
          "indexed": false,
          "internalType": "uint256",
          "name": "amount",
          "type": "uint256"
        }
      ],
      "name": "Stake",
      "type": "event"
    },
    {
      "anonymous": false,
      "inputs": [
        {
          "indexed": true,
          "internalType": "address",
          "name": "from",
          "type": "address"
        },
        {
          "indexed": true,
          "internalType": "address",
          "name": "node",
          "type": "address"
        },
        {
          "indexed": false,
          "internalType": "uint256",
          "name": "amount",
          "type": "uint256"
        },
        {
          "indexed": false,
          "internalType": "uint256",
          "name": "unstakeLockID",
          "type": "uint256"
        }
      ],
      "name": "Unstake",
      "type": "event"
    },
    {
      "anonymous": false,
      "inputs": [
        {
          "indexed": true,
          "internalType": "address",
          "name": "from",
          "type": "address"
        },
        {
          "indexed": false,
          "internalType": "uint256",
          "name": "amount",
          "type": "uint256"
        },
        {
          "indexed": false,
          "internalType": "uint256",
          "name": "unstakeLockID",
          "type": "uint256"
        }
      ],
      "name": "Withdraw",
      "type": "event"
    },
    {
      "inputs": [
        {
          "internalType": "address[]",
          "name": "_targets",
          "type": "address[]"
        },
        {
          "internalType": "uint256[]",
          "name": "_values",
          "type": "uint256[]"
        },
        {
          "internalType": "bytes[]",
          "name": "_datas",
          "type": "bytes[]"
        }
      ],
      "name": "batchExecute",
      "outputs": [],
      "stateMutability": "nonpayable",
      "type": "function"
    },
    {
      "inputs": [
        {
          "internalType": "uint256",
          "name": "_amountIn",
          "type": "uint256"
        }
      ],
      "name": "calcDepositOut",
      "outputs": [
        {
          "internalType": "uint256",
          "name": "",
          "type": "uint256"
        }
      ],
      "stateMutability": "view",
      "type": "function"
    },
    {
      "inputs": [],
      "name": "claimRewards",
      "outputs": [],
      "stateMutability": "nonpayable",
      "type": "function"
    },
    {
      "inputs": [],
      "name": "collectFees",
      "outputs": [
        {
          "internalType": "uint256",
          "name": "",
          "type": "uint256"
        }
      ],
      "stateMutability": "nonpayable",
      "type": "function"
    },
    {
      "inputs": [],
      "name": "collectLiquidityFees",
      "outputs": [
        {
          "internalType": "uint256",
          "name": "amount",
          "type": "uint256"
        }
      ],
      "stateMutability": "nonpayable",
      "type": "function"
    },
    {
      "inputs": [],
      "name": "currentPrincipal",
      "outputs": [
        {
          "internalType": "uint256",
          "name": "",
          "type": "uint256"
        }
      ],
      "stateMutability": "view",
      "type": "function"
    },
    {
      "inputs": [
        {
          "internalType": "uint256",
          "name": "_amount",
          "type": "uint256"
        }
      ],
      "name": "deposit",
      "outputs": [],
      "stateMutability": "nonpayable",
      "type": "function"
    },
    {
      "inputs": [
        {
          "internalType": "uint256",
          "name": "_amount",
          "type": "uint256"
        },
        {
          "internalType": "uint256",
          "name": "_deadline",
          "type": "uint256"
        },
        {
          "internalType": "uint8",
          "name": "_v",
          "type": "uint8"
        },
        {
          "internalType": "bytes32",
          "name": "_r",
          "type": "bytes32"
        },
        {
          "internalType": "bytes32",
          "name": "_s",
          "type": "bytes32"
        }
      ],
      "name": "depositWithPermit",
      "outputs": [],
      "stateMutability": "nonpayable",
      "type": "function"
    },
    {
      "inputs": [
        {
          "internalType": "address",
          "name": "_target",
          "type": "address"
        },
        {
          "internalType": "uint256",
          "name": "_value",
          "type": "uint256"
        },
        {
          "internalType": "bytes",
          "name": "_data",
          "type": "bytes"
        }
      ],
      "name": "execute",
      "outputs": [],
      "stateMutability": "nonpayable",
      "type": "function"
    },
    {
      "inputs": [],
      "name": "gov",
      "outputs": [
        {
          "internalType": "address",
          "name": "",
          "type": "address"
        }
      ],
      "stateMutability": "view",
      "type": "function"
    },
    {
      "inputs": [
        {
          "internalType": "contract IERC20",
          "name": "_steak",
          "type": "address"
        },
        {
          "internalType": "string",
          "name": "_symbol",
          "type": "string"
        },
        {
          "internalType": "contract ILivepeer",
          "name": "_livepeer",
          "type": "address"
        },
        {
          "internalType": "address",
          "name": "_node",
          "type": "address"
        },
        {
          "internalType": "uint256",
          "name": "_protocolFee",
          "type": "uint256"
        },
        {
          "internalType": "uint256",
          "name": "_liquidityFee",
          "type": "uint256"
        },
        {
          "internalType": "contract ITenderToken",
          "name": "_tenderTokenTarget",
          "type": "address"
        },
        {
          "internalType": "contract TenderFarmFactory",
          "name": "_tenderFarmFactory",
          "type": "address"
        },
        {
          "internalType": "contract ITenderSwapFactory",
          "name": "_tenderSwapFactory",
          "type": "address"
        }
      ],
      "name": "initialize",
      "outputs": [],
      "stateMutability": "nonpayable",
      "type": "function"
    },
    {
      "inputs": [],
      "name": "liquidityFee",
      "outputs": [
        {
          "internalType": "uint256",
          "name": "",
          "type": "uint256"
        }
      ],
      "stateMutability": "view",
      "type": "function"
    },
    {
      "inputs": [],
      "name": "node",
      "outputs": [
        {
          "internalType": "address",
          "name": "",
          "type": "address"
        }
      ],
      "stateMutability": "view",
      "type": "function"
    },
    {
      "inputs": [],
      "name": "pendingFees",
      "outputs": [
        {
          "internalType": "uint256",
          "name": "",
          "type": "uint256"
        }
      ],
      "stateMutability": "view",
      "type": "function"
    },
    {
      "inputs": [],
      "name": "pendingLiquidityFees",
      "outputs": [
        {
          "internalType": "uint256",
          "name": "",
          "type": "uint256"
        }
      ],
      "stateMutability": "view",
      "type": "function"
    },
    {
      "inputs": [],
      "name": "protocolFee",
      "outputs": [
        {
          "internalType": "uint256",
          "name": "",
          "type": "uint256"
        }
      ],
      "stateMutability": "view",
      "type": "function"
    },
    {
      "inputs": [
        {
          "internalType": "address",
          "name": "_token",
          "type": "address"
        },
        {
          "internalType": "uint256",
          "name": "_value",
          "type": "uint256"
        },
        {
          "internalType": "uint256",
          "name": "_deadline",
          "type": "uint256"
        },
        {
          "internalType": "uint8",
          "name": "_v",
          "type": "uint8"
        },
        {
          "internalType": "bytes32",
          "name": "_r",
          "type": "bytes32"
        },
        {
          "internalType": "bytes32",
          "name": "_s",
          "type": "bytes32"
        }
      ],
      "name": "selfPermit",
      "outputs": [],
      "stateMutability": "payable",
      "type": "function"
    },
    {
      "inputs": [
        {
          "internalType": "address",
          "name": "_token",
          "type": "address"
        },
        {
          "internalType": "uint256",
          "name": "_value",
          "type": "uint256"
        },
        {
          "internalType": "uint256",
          "name": "_deadline",
          "type": "uint256"
        },
        {
          "internalType": "uint8",
          "name": "_v",
          "type": "uint8"
        },
        {
          "internalType": "bytes32",
          "name": "_r",
          "type": "bytes32"
        },
        {
          "internalType": "bytes32",
          "name": "_s",
          "type": "bytes32"
        }
      ],
      "name": "selfPermitIfNecessary",
      "outputs": [],
      "stateMutability": "payable",
      "type": "function"
    },
    {
      "inputs": [
        {
          "internalType": "address",
          "name": "_gov",
          "type": "address"
        }
      ],
      "name": "setGov",
      "outputs": [],
      "stateMutability": "nonpayable",
      "type": "function"
    },
    {
      "inputs": [
        {
          "internalType": "uint256",
          "name": "_liquidityFee",
          "type": "uint256"
        }
      ],
      "name": "setLiquidityFee",
      "outputs": [],
      "stateMutability": "nonpayable",
      "type": "function"
    },
    {
      "inputs": [
        {
          "internalType": "address",
          "name": "_node",
          "type": "address"
        }
      ],
      "name": "setNode",
      "outputs": [],
      "stateMutability": "nonpayable",
      "type": "function"
    },
    {
      "inputs": [
        {
          "internalType": "uint256",
          "name": "_protocolFee",
          "type": "uint256"
        }
      ],
      "name": "setProtocolFee",
      "outputs": [],
      "stateMutability": "nonpayable",
      "type": "function"
    },
    {
      "inputs": [
        {
          "internalType": "address",
          "name": "_stakingContract",
          "type": "address"
        }
      ],
      "name": "setStakingContract",
      "outputs": [],
      "stateMutability": "nonpayable",
      "type": "function"
    },
    {
      "inputs": [
        {
          "internalType": "contract IERC20",
          "name": "_steak",
          "type": "address"
        }
      ],
      "name": "setSteak",
      "outputs": [],
      "stateMutability": "nonpayable",
      "type": "function"
    },
    {
      "inputs": [
        {
          "internalType": "contract ITenderFarm",
          "name": "_tenderFarm",
          "type": "address"
        }
      ],
      "name": "setTenderFarm",
      "outputs": [],
      "stateMutability": "nonpayable",
      "type": "function"
    },
    {
      "inputs": [
        {
          "internalType": "address",
          "name": "_uniswapRouter",
          "type": "address"
        }
      ],
      "name": "setUniswapRouter",
      "outputs": [],
      "stateMutability": "nonpayable",
      "type": "function"
    },
    {
      "inputs": [
        {
          "internalType": "address",
          "name": "_account",
          "type": "address"
        },
        {
          "internalType": "uint256",
          "name": "_amount",
          "type": "uint256"
        }
      ],
      "name": "stake",
      "outputs": [],
      "stateMutability": "nonpayable",
      "type": "function"
    },
    {
      "inputs": [],
      "name": "steak",
      "outputs": [
        {
          "internalType": "contract IERC20",
          "name": "",
          "type": "address"
        }
      ],
      "stateMutability": "view",
      "type": "function"
    },
    {
      "inputs": [],
      "name": "tenderFarm",
      "outputs": [
        {
          "internalType": "contract ITenderFarm",
          "name": "",
          "type": "address"
        }
      ],
      "stateMutability": "view",
      "type": "function"
    },
    {
      "inputs": [],
      "name": "tenderSwap",
      "outputs": [
        {
          "internalType": "contract ITenderSwap",
          "name": "",
          "type": "address"
        }
      ],
      "stateMutability": "view",
      "type": "function"
    },
    {
      "inputs": [],
      "name": "tenderToken",
      "outputs": [
        {
          "internalType": "contract ITenderToken",
          "name": "",
          "type": "address"
        }
      ],
      "stateMutability": "view",
      "type": "function"
    },
    {
      "inputs": [],
      "name": "totalStakedTokens",
      "outputs": [
        {
          "internalType": "uint256",
          "name": "",
          "type": "uint256"
        }
      ],
      "stateMutability": "view",
      "type": "function"
    },
    {
      "inputs": [],
      "name": "uniswapRouter",
      "outputs": [
        {
          "internalType": "contract ISwapRouterWithWETH",
          "name": "",
          "type": "address"
        }
      ],
      "stateMutability": "view",
      "type": "function"
    },
    {
      "inputs": [
        {
          "internalType": "uint256",
          "name": "_amount",
          "type": "uint256"
        }
      ],
      "name": "unstake",
      "outputs": [
        {
          "internalType": "uint256",
          "name": "",
          "type": "uint256"
        }
      ],
      "stateMutability": "nonpayable",
      "type": "function"
    },
    {
      "inputs": [
        {
          "internalType": "uint256",
          "name": "",
          "type": "uint256"
        }
      ],
      "name": "unstakeLocks",
      "outputs": [
        {
          "internalType": "uint256",
          "name": "amount",
          "type": "uint256"
        },
        {
          "internalType": "address",
          "name": "account",
          "type": "address"
        }
      ],
      "stateMutability": "view",
      "type": "function"
    },
    {
      "inputs": [
        {
          "internalType": "uint256",
          "name": "_unstakeLockID",
          "type": "uint256"
        }
      ],
      "name": "withdraw",
      "outputs": [],
      "stateMutability": "nonpayable",
      "type": "function"
    }
  ],
  "transactionHash": "0x602af72b4857338d526daa045b10ae8fc8f91d430c78a6cf815cdef9d4387caf",
  "args": [],
  "solcInputHash": "14b0e1ff9d2182625fa00645b9479363",
  "bytecode": "0x608060405234801561001057600080fd5b50615401806100206000396000f3fe60806040526004361061020f5760003560e01c8063a26a546b11610118578063c2e3140a116100a0578063ec6d80f61161006f578063ec6d80f614610730578063f3995c6714610759578063f4d95a7114610775578063f5492b95146107a0578063fbdfc961146107de5761020f565b8063c2e3140a14610695578063c8796572146106b1578063cfad57a2146106dc578063d70754ec146107055761020f565b8063b0e21e8a116100e7578063b0e21e8a146105c6578063b61d27f6146105f1578063b6b55f251461061a578063bea9849e14610643578063c21d5ab71461066c5761020f565b8063a26a546b1461051e578063adc9772e14610549578063afef75d214610572578063b089af311461059b5761020f565b80633ae732591161019b578063735de9f71161016a578063735de9f714610439578063787dce3d146104645780637cb0c2751461048d57806398118cb4146104ca5780639dd373b9146104f55761020f565b80633ae732591461038f5780634a970be7146103ba57806351c669c0146103e35780636f1903151461040e5761020f565b80632d822160116101e25780632d822160146102be5780632e17de78146102e95780632e1a7d4d14610326578063357bf15c1461034f578063372500ab146103785761020f565b8063077d97d71461021457806312d43a511461023d578063224438d1146102685780632a777db214610293575b600080fd5b34801561022057600080fd5b5061023b60048036038101906102369190613b46565b610807565b005b34801561024957600080fd5b506102526109c5565b60405161025f91906144ed565b60405180910390f35b34801561027457600080fd5b5061027d6109eb565b60405161028a91906149ba565b60405180910390f35b34801561029f57600080fd5b506102a86109f1565b6040516102b591906149ba565b60405180910390f35b3480156102ca57600080fd5b506102d36109f7565b6040516102e091906146a3565b60405180910390f35b3480156102f557600080fd5b50610310600480360381019061030b9190613dc3565b610a1d565b60405161031d91906149ba565b60405180910390f35b34801561033257600080fd5b5061034d60048036038101906103489190613dc3565b610b97565b005b34801561035b57600080fd5b5061037660048036038101906103719190613dc3565b610ba4565b005b34801561038457600080fd5b5061038d610c3d565b005b34801561039b57600080fd5b506103a4610d1d565b6040516103b191906149ba565b60405180910390f35b3480156103c657600080fd5b506103e160048036038101906103dc9190613e15565b610d2c565b005b3480156103ef57600080fd5b506103f8610d6c565b60405161040591906149ba565b60405180910390f35b34801561041a57600080fd5b50610423610d72565b6040516104309190614600565b60405180910390f35b34801561044557600080fd5b5061044e610d98565b60405161045b9190614652565b60405180910390f35b34801561047057600080fd5b5061048b60048036038101906104869190613dc3565b610dbe565b005b34801561049957600080fd5b506104b460048036038101906104af9190613dc3565b610e57565b6040516104c191906149ba565b60405180910390f35b3480156104d657600080fd5b506104df610e69565b6040516104ec91906149ba565b60405180910390f35b34801561050157600080fd5b5061051c600480360381019061051791906139c3565b610e6f565b005b34801561052a57600080fd5b50610533610ed5565b6040516105409190614688565b60405180910390f35b34801561055557600080fd5b50610570600480360381019061056b9190613a15565b610efb565b005b34801561057e57600080fd5b5061059960048036038101906105949190613c13565b610f63565b005b3480156105a757600080fd5b506105b0611036565b6040516105bd91906149ba565b60405180910390f35b3480156105d257600080fd5b506105db611364565b6040516105e891906149ba565b60405180910390f35b3480156105fd57600080fd5b5061061860048036038101906106139190613a51565b61136a565b005b34801561062657600080fd5b50610641600480360381019061063c9190613dc3565b6113d6565b005b34801561064f57600080fd5b5061066a600480360381019061066591906139c3565b611612565b005b34801561067857600080fd5b50610693600480360381019061068e91906139c3565b611792565b005b6106af60048036038101906106aa9190613abd565b611865565b005b3480156106bd57600080fd5b506106c661191f565b6040516106d391906149ba565b60405180910390f35b3480156106e857600080fd5b5061070360048036038101906106fe91906139c3565b611a5c565b005b34801561071157600080fd5b5061071a611b2f565b60405161072791906144ed565b60405180910390f35b34801561073c57600080fd5b5061075760048036038101906107529190613c3c565b611b55565b005b610773600480360381019061076e9190613abd565b611bf6565b005b34801561078157600080fd5b5061078a611c0c565b604051610797919061466d565b60405180910390f35b3480156107ac57600080fd5b506107c760048036038101906107c29190613dc3565b611c32565b6040516107d59291906149d5565b60405180910390f35b3480156107ea57600080fd5b5061080560048036038101906108009190613d1f565b611c76565b005b600c60009054906101000a900473ffffffffffffffffffffffffffffffffffffffff1673ffffffffffffffffffffffffffffffffffffffff163373ffffffffffffffffffffffffffffffffffffffff161461086157600080fd5b838390508686905014801561087b57508181905086869050145b6108ba576040517f08c379a00000000000000000000000000000000000000000000000000000000081526004016108b19061483c565b60405180910390fd5b60005b868690508110156109bc576109a9878783818110610904577f4e487b7100000000000000000000000000000000000000000000000000000000600052603260045260246000fd5b905060200201602081019061091991906139c3565b868684818110610952577f4e487b7100000000000000000000000000000000000000000000000000000000600052603260045260246000fd5b90506020020135858585818110610992577f4e487b7100000000000000000000000000000000000000000000000000000000600052603260045260246000fd5b90506020028101906109a49190614a27565b611d49565b80806109b490614e1c565b9150506108bd565b50505050505050565b600c60009054906101000a900473ffffffffffffffffffffffffffffffffffffffff1681565b60075481565b60085481565b600160009054906101000a900473ffffffffffffffffffffffffffffffffffffffff1681565b6000600c60009054906101000a900473ffffffffffffffffffffffffffffffffffffffff1673ffffffffffffffffffffffffffffffffffffffff163373ffffffffffffffffffffffffffffffffffffffff1614610b6357600160009054906101000a900473ffffffffffffffffffffffffffffffffffffffff1673ffffffffffffffffffffffffffffffffffffffff16639dc29fac33846040518363ffffffff1660e01b8152600401610ad19291906145d7565b602060405180830381600087803b158015610aeb57600080fd5b505af1158015610aff573d6000803e3d6000fd5b505050506040513d601f19601f82011682018060405250810190610b239190613bea565b610b62576040517f08c379a0000000000000000000000000000000000000000000000000000000008152600401610b599061475c565b60405180910390fd5b5b610b9033600460009054906101000a900473ffffffffffffffffffffffffffffffffffffffff1684611e07565b9050919050565b610ba13382612181565b50565b600c60009054906101000a900473ffffffffffffffffffffffffffffffffffffffff1673ffffffffffffffffffffffffffffffffffffffff163373ffffffffffffffffffffffffffffffffffffffff1614610bfe57600080fd5b806006819055507f6641a0d0a317e54d1b956ab0202883db13ef06b75584a6a017b1b3c796f990fa604051610c329061493c565b60405180910390a150565b610c45612454565b610d1b600460009054906101000a900473ffffffffffffffffffffffffffffffffffffffff16600060029054906101000a900473ffffffffffffffffffffffffffffffffffffffff1673ffffffffffffffffffffffffffffffffffffffff166370a08231306040518263ffffffff1660e01b8152600401610cc691906144ed565b60206040518083038186803b158015610cde57600080fd5b505afa158015610cf2573d6000803e3d6000fd5b505050506040513d601f19601f82011682018060405250810190610d169190613dec565b612539565b565b6000610d2761273d565b905090565b610d5c600060029054906101000a900473ffffffffffffffffffffffffffffffffffffffff168686868686612747565b610d65856113d6565b5050505050565b60095481565b600060029054906101000a900473ffffffffffffffffffffffffffffffffffffffff1681565b600e60009054906101000a900473ffffffffffffffffffffffffffffffffffffffff1681565b600c60009054906101000a900473ffffffffffffffffffffffffffffffffffffffff1673ffffffffffffffffffffffffffffffffffffffff163373ffffffffffffffffffffffffffffffffffffffff1614610e1857600080fd5b806005819055507f6641a0d0a317e54d1b956ab0202883db13ef06b75584a6a017b1b3c796f990fa604051610e4c906148dc565b60405180910390a150565b6000610e62826127c6565b9050919050565b60065481565b600c60009054906101000a900473ffffffffffffffffffffffffffffffffffffffff1673ffffffffffffffffffffffffffffffffffffffff163373ffffffffffffffffffffffffffffffffffffffff1614610ec957600080fd5b610ed2816127d0565b50565b600360009054906101000a900473ffffffffffffffffffffffffffffffffffffffff1681565b600c60009054906101000a900473ffffffffffffffffffffffffffffffffffffffff1673ffffffffffffffffffffffffffffffffffffffff163373ffffffffffffffffffffffffffffffffffffffff1614610f5557600080fd5b610f5f8282612539565b5050565b600c60009054906101000a900473ffffffffffffffffffffffffffffffffffffffff1673ffffffffffffffffffffffffffffffffffffffff163373ffffffffffffffffffffffffffffffffffffffff1614610fbd57600080fd5b80600060026101000a81548173ffffffffffffffffffffffffffffffffffffffff021916908373ffffffffffffffffffffffffffffffffffffffff1602179055507f6641a0d0a317e54d1b956ab0202883db13ef06b75584a6a017b1b3c796f990fa60405161102b9061487c565b60405180910390a150565b6000600c60009054906101000a900473ffffffffffffffffffffffffffffffffffffffff1673ffffffffffffffffffffffffffffffffffffffff163373ffffffffffffffffffffffffffffffffffffffff161461109257600080fd5b6000600260009054906101000a900473ffffffffffffffffffffffffffffffffffffffff1673ffffffffffffffffffffffffffffffffffffffff166304d3b7c46040518163ffffffff1660e01b815260040160206040518083038186803b1580156110fc57600080fd5b505afa158015611110573d6000803e3d6000fd5b505050506040513d601f19601f820116820180604052508101906111349190613dec565b14156111435760009050611361565b6008549050600160009054906101000a900473ffffffffffffffffffffffffffffffffffffffff1673ffffffffffffffffffffffffffffffffffffffff166340c10f1930836040518363ffffffff1660e01b81526004016111a59291906145d7565b602060405180830381600087803b1580156111bf57600080fd5b505af11580156111d3573d6000803e3d6000fd5b505050506040513d601f19601f820116820180604052508101906111f79190613bea565b50611200612849565b50600160009054906101000a900473ffffffffffffffffffffffffffffffffffffffff1673ffffffffffffffffffffffffffffffffffffffff1663095ea7b3600260009054906101000a900473ffffffffffffffffffffffffffffffffffffffff16836040518363ffffffff1660e01b81526004016112809291906145d7565b602060405180830381600087803b15801561129a57600080fd5b505af11580156112ae573d6000803e3d6000fd5b505050506040513d601f19601f820116820180604052508101906112d29190613bea565b50600260009054906101000a900473ffffffffffffffffffffffffffffffffffffffff1673ffffffffffffffffffffffffffffffffffffffff1663beceed39826040518263ffffffff1660e01b815260040161132e91906149ba565b600060405180830381600087803b15801561134857600080fd5b505af115801561135c573d6000803e3d6000fd5b505050505b90565b60055481565b600c60009054906101000a900473ffffffffffffffffffffffffffffffffffffffff1673ffffffffffffffffffffffffffffffffffffffff163373ffffffffffffffffffffffffffffffffffffffff16146113c457600080fd5b6113d084848484611d49565b50505050565b60008111611419576040517f08c379a0000000000000000000000000000000000000000000000000000000008152600401611410906148fc565b60405180910390fd5b6000611424826127c6565b9050600160009054906101000a900473ffffffffffffffffffffffffffffffffffffffff1673ffffffffffffffffffffffffffffffffffffffff166340c10f1933836040518363ffffffff1660e01b81526004016114839291906145d7565b602060405180830381600087803b15801561149d57600080fd5b505af11580156114b1573d6000803e3d6000fd5b505050506040513d601f19601f820116820180604052508101906114d59190613bea565b611514576040517f08c379a000000000000000000000000000000000000000000000000000000000815260040161150b906147dc565b60405180910390fd5b600060029054906101000a900473ffffffffffffffffffffffffffffffffffffffff1673ffffffffffffffffffffffffffffffffffffffff166323b872dd3330856040518463ffffffff1660e01b815260040161157393929190614531565b602060405180830381600087803b15801561158d57600080fd5b505af11580156115a1573d6000803e3d6000fd5b505050506040513d601f19601f820116820180604052508101906115c59190613bea565b611604576040517f08c379a00000000000000000000000000000000000000000000000000000000081526004016115fb9061479c565b60405180910390fd5b61160e33836128b0565b5050565b600c60009054906101000a900473ffffffffffffffffffffffffffffffffffffffff1673ffffffffffffffffffffffffffffffffffffffff163373ffffffffffffffffffffffffffffffffffffffff161461166c57600080fd5b80600e60006101000a81548173ffffffffffffffffffffffffffffffffffffffff021916908373ffffffffffffffffffffffffffffffffffffffff160217905550600e60009054906101000a900473ffffffffffffffffffffffffffffffffffffffff1673ffffffffffffffffffffffffffffffffffffffff16634aa4a4fc6040518163ffffffff1660e01b8152600401602060405180830381600087803b15801561171757600080fd5b505af115801561172b573d6000803e3d6000fd5b505050506040513d601f19601f8201168201806040525081019061174f91906139ec565b600d60006101000a81548173ffffffffffffffffffffffffffffffffffffffff021916908373ffffffffffffffffffffffffffffffffffffffff16021790555050565b600c60009054906101000a900473ffffffffffffffffffffffffffffffffffffffff1673ffffffffffffffffffffffffffffffffffffffff163373ffffffffffffffffffffffffffffffffffffffff16146117ec57600080fd5b80600460006101000a81548173ffffffffffffffffffffffffffffffffffffffff021916908373ffffffffffffffffffffffffffffffffffffffff1602179055507f6641a0d0a317e54d1b956ab0202883db13ef06b75584a6a017b1b3c796f990fa60405161185a906148bc565b60405180910390a150565b60008673ffffffffffffffffffffffffffffffffffffffff1663dd62ed3e33306040518363ffffffff1660e01b81526004016118a2929190614508565b60206040518083038186803b1580156118ba57600080fd5b505afa1580156118ce573d6000803e3d6000fd5b505050506040513d601f19601f820116820180604052508101906118f29190613dec565b9050858110156119165761191587828861190c9190614ba2565b87878787612747565b5b50505050505050565b6000600c60009054906101000a900473ffffffffffffffffffffffffffffffffffffffff1673ffffffffffffffffffffffffffffffffffffffff163373ffffffffffffffffffffffffffffffffffffffff161461197b57600080fd5b600160009054906101000a900473ffffffffffffffffffffffffffffffffffffffff1673ffffffffffffffffffffffffffffffffffffffff166340c10f19600c60009054906101000a900473ffffffffffffffffffffffffffffffffffffffff166007546040518363ffffffff1660e01b81526004016119fc9291906145d7565b602060405180830381600087803b158015611a1657600080fd5b505af1158015611a2a573d6000803e3d6000fd5b505050506040513d601f19601f82011682018060405250810190611a4e9190613bea565b50611a5761291b565b905090565b600c60009054906101000a900473ffffffffffffffffffffffffffffffffffffffff1673ffffffffffffffffffffffffffffffffffffffff163373ffffffffffffffffffffffffffffffffffffffff1614611ab657600080fd5b80600c60006101000a81548173ffffffffffffffffffffffffffffffffffffffff021916908373ffffffffffffffffffffffffffffffffffffffff1602179055507f6641a0d0a317e54d1b956ab0202883db13ef06b75584a6a017b1b3c796f990fa604051611b249061489c565b60405180910390a150565b600460009054906101000a900473ffffffffffffffffffffffffffffffffffffffff1681565b611ba98a8a8a8080601f016020809104026020016040519081016040528093929190818152602001838380828437600081840152601f19601f82011690508083019250505050505050888888888888612982565b86600f60006101000a81548173ffffffffffffffffffffffffffffffffffffffff021916908373ffffffffffffffffffffffffffffffffffffffff16021790555050505050505050505050565b611c04868686868686612747565b505050505050565b600260009054906101000a900473ffffffffffffffffffffffffffffffffffffffff1681565b600a6020528060005260406000206000915090508060000154908060010160009054906101000a900473ffffffffffffffffffffffffffffffffffffffff16905082565b600c60009054906101000a900473ffffffffffffffffffffffffffffffffffffffff1673ffffffffffffffffffffffffffffffffffffffff163373ffffffffffffffffffffffffffffffffffffffff1614611cd057600080fd5b80600260006101000a81548173ffffffffffffffffffffffffffffffffffffffff021916908373ffffffffffffffffffffffffffffffffffffffff1602179055507f6641a0d0a317e54d1b956ab0202883db13ef06b75584a6a017b1b3c796f990fa604051611d3e9061491c565b60405180910390a150565b6000808573ffffffffffffffffffffffffffffffffffffffff16858585604051611d7492919061443e565b60006040518083038185875af1925050503d8060008114611db1576040519150601f19603f3d011682016040523d82523d6000602084013e611db6565b606091505b5091509150818190611dfe576040517f08c379a0000000000000000000000000000000000000000000000000000000008152600401611df591906146f5565b60405180910390fd5b50505050505050565b600080829050600c60009054906101000a900473ffffffffffffffffffffffffffffffffffffffff1673ffffffffffffffffffffffffffffffffffffffff168573ffffffffffffffffffffffffffffffffffffffff1614611ea65760008111611ea5576040517f08c379a0000000000000000000000000000000000000000000000000000000008152600401611e9c906148fc565b60405180910390fd5b5b6000811415611fc257600f60009054906101000a900473ffffffffffffffffffffffffffffffffffffffff1673ffffffffffffffffffffffffffffffffffffffff16639d0b2c7a307fffffffffffffffffffffffffffffffffffffffffffffffffffffffffffffffff6040518363ffffffff1660e01b8152600401611f2c9291906145d7565b60206040518083038186803b158015611f4457600080fd5b505afa158015611f58573d6000803e3d6000fd5b505050506040513d601f19601f82011682018060405250810190611f7c9190613dec565b905060008111611fc1576040517f08c379a0000000000000000000000000000000000000000000000000000000008152600401611fb89061477c565b60405180910390fd5b5b8060096000828254611fd49190614ba2565b92505081905550600f60009054906101000a900473ffffffffffffffffffffffffffffffffffffffff1673ffffffffffffffffffffffffffffffffffffffff166327de9e32826040518263ffffffff1660e01b815260040161203691906149ba565b600060405180830381600087803b15801561205057600080fd5b505af1158015612064573d6000803e3d6000fd5b50505050600b54915060405180604001604052808281526020018673ffffffffffffffffffffffffffffffffffffffff16815250600a60008481526020019081526020016000206000820151816000015560208201518160010160006101000a81548173ffffffffffffffffffffffffffffffffffffffff021916908373ffffffffffffffffffffffffffffffffffffffff16021790555090505060018261210c9190614ac1565b600b819055508373ffffffffffffffffffffffffffffffffffffffff168573ffffffffffffffffffffffffffffffffffffffff167f18edd09e80386cd99df397e2e0d87d2bb259423eae08645e776321a36fe680ef83856040516121719291906149fe565b60405180910390a3509392505050565b6000600a6000838152602001908152602001600020905060008160010160009054906101000a900473ffffffffffffffffffffffffffffffffffffffff1690506000826000015490508473ffffffffffffffffffffffffffffffffffffffff168273ffffffffffffffffffffffffffffffffffffffff1614612238576040517f08c379a000000000000000000000000000000000000000000000000000000000815260040161222f906147fc565b60405180910390fd5b6000811161227b576040517f08c379a0000000000000000000000000000000000000000000000000000000008152600401612272906148fc565b60405180910390fd5b600a60008581526020019081526020016000206000808201600090556001820160006101000a81549073ffffffffffffffffffffffffffffffffffffffff02191690555050600f60009054906101000a900473ffffffffffffffffffffffffffffffffffffffff1673ffffffffffffffffffffffffffffffffffffffff166325d5971f856040518263ffffffff1660e01b815260040161231b91906149ba565b600060405180830381600087803b15801561233557600080fd5b505af1158015612349573d6000803e3d6000fd5b50505050600060029054906101000a900473ffffffffffffffffffffffffffffffffffffffff1673ffffffffffffffffffffffffffffffffffffffff1663a9059cbb83836040518363ffffffff1660e01b81526004016123aa9291906145d7565b602060405180830381600087803b1580156123c457600080fd5b505af11580156123d8573d6000803e3d6000fd5b505050506040513d601f19601f820116820180604052508101906123fc9190613bea565b508173ffffffffffffffffffffffffffffffffffffffff167ff279e6a1f5e320cca91135676d9cb6e44ca8a08c0b88342bcdb1144f6511b56882866040516124459291906149fe565b60405180910390a25050505050565b61245c612f3d565b6000600f60009054906101000a900473ffffffffffffffffffffffffffffffffffffffff1673ffffffffffffffffffffffffffffffffffffffff16639d0b2c7a307fffffffffffffffffffffffffffffffffffffffffffffffffffffffffffffffff6040518363ffffffff1660e01b81526004016124db9291906145d7565b60206040518083038186803b1580156124f357600080fd5b505afa158015612507573d6000803e3d6000fd5b505050506040513d601f19601f8201168201806040525081019061252b9190613dec565b9050612536816133e3565b50565b6000819050600081141561254d5750612739565b600073ffffffffffffffffffffffffffffffffffffffff168373ffffffffffffffffffffffffffffffffffffffff1614156125885750612739565b600060029054906101000a900473ffffffffffffffffffffffffffffffffffffffff1673ffffffffffffffffffffffffffffffffffffffff1663095ea7b3600f60009054906101000a900473ffffffffffffffffffffffffffffffffffffffff16836040518363ffffffff1660e01b81526004016126079291906145d7565b602060405180830381600087803b15801561262157600080fd5b505af1158015612635573d6000803e3d6000fd5b505050506040513d601f19601f820116820180604052508101906126599190613bea565b50600f60009054906101000a900473ffffffffffffffffffffffffffffffffffffffff1673ffffffffffffffffffffffffffffffffffffffff1663b78d27dc82856040518363ffffffff1660e01b81526004016126b79291906149d5565b600060405180830381600087803b1580156126d157600080fd5b505af11580156126e5573d6000803e3d6000fd5b505050508273ffffffffffffffffffffffffffffffffffffffff167febedb8b3c678666e7f36970bc8f57abf6d8fa2e828c0da91ea5b75bf68ed101a8260405161272f91906149ba565b60405180910390a2505b5050565b6000600954905090565b8573ffffffffffffffffffffffffffffffffffffffff1663d505accf333088888888886040518863ffffffff1660e01b815260040161278c9796959493929190614568565b600060405180830381600087803b1580156127a657600080fd5b505af11580156127ba573d6000803e3d6000fd5b50505050505050505050565b6000819050919050565b80600f60006101000a81548173ffffffffffffffffffffffffffffffffffffffff021916908373ffffffffffffffffffffffffffffffffffffffff1602179055507f6641a0d0a317e54d1b956ab0202883db13ef06b75584a6a017b1b3c796f990fa60405161283e906147bc565b60405180910390a150565b60008060085490506000600881905550806009600082825461286b9190614ac1565b925050819055507f1d8f4bab53e84801fc35b88b53df72a998fa29c92e6fc65d412c4677d0d88c62816040516128a191906149ba565b60405180910390a18091505090565b80600960008282546128c29190614ac1565b925050819055508173ffffffffffffffffffffffffffffffffffffffff167fe1fffcc4923d04b559f4d29a8bfc6cda04eb5b0d3c460751c2402c5c5cc9109c8260405161290f91906149ba565b60405180910390a25050565b60008060075490506000600781905550806009600082825461293d9190614ac1565b925050819055507f414d7d8eae12f648156e75499fc0a5a10aa84f2745c6f791b0453cb17f1e17fa8160405161297391906149ba565b60405180910390a18091505090565b600060019054906101000a900460ff16806129a8575060008054906101000a900460ff16155b6129e7576040517f08c379a00000000000000000000000000000000000000000000000000000000081526004016129de9061485c565b60405180910390fd5b60008060019054906101000a900460ff161590508015612a37576001600060016101000a81548160ff02191690831515021790555060016000806101000a81548160ff0219169083151502179055505b88600060026101000a81548173ffffffffffffffffffffffffffffffffffffffff021916908373ffffffffffffffffffffffffffffffffffffffff16021790555086600460006101000a81548173ffffffffffffffffffffffffffffffffffffffff021916908373ffffffffffffffffffffffffffffffffffffffff160217905550856005819055508460068190555033600c60006101000a81548173ffffffffffffffffffffffffffffffffffffffff021916908373ffffffffffffffffffffffffffffffffffffffff1602179055506000612b1385613602565b9050600089604051602001612b2891906144cb565b60405160208183030381529060405290508173ffffffffffffffffffffffffffffffffffffffff1663077f224a8b8c306040518463ffffffff1660e01b8152600401612b7693929190614717565b602060405180830381600087803b158015612b9057600080fd5b505af1158015612ba4573d6000803e3d6000fd5b505050506040513d601f19601f82011682018060405250810190612bc89190613bea565b612c07576040517f08c379a0000000000000000000000000000000000000000000000000000000008152600401612bfe9061495c565b60405180910390fd5b81600160006101000a81548173ffffffffffffffffffffffffffffffffffffffff021916908373ffffffffffffffffffffffffffffffffffffffff1602179055508373ffffffffffffffffffffffffffffffffffffffff1663a574175660405180608001604052808573ffffffffffffffffffffffffffffffffffffffff1681526020018e73ffffffffffffffffffffffffffffffffffffffff168152602001848e604051602001612cba929190614457565b6040516020818303038152906040528152602001848e604051602001612ce1929190614491565b6040516020818303038152906040528152506040518263ffffffff1660e01b8152600401612d0f919061497c565b602060405180830381600087803b158015612d2957600080fd5b505af1158015612d3d573d6000803e3d6000fd5b505050506040513d601f19601f82011682018060405250810190612d619190613d71565b600360006101000a81548173ffffffffffffffffffffffffffffffffffffffff021916908373ffffffffffffffffffffffffffffffffffffffff1602179055508473ffffffffffffffffffffffffffffffffffffffff1663d9181cd3600360009054906101000a900473ffffffffffffffffffffffffffffffffffffffff1673ffffffffffffffffffffffffffffffffffffffff16635fcbd2856040518163ffffffff1660e01b815260040160206040518083038186803b158015612e2557600080fd5b505afa158015612e39573d6000803e3d6000fd5b505050506040513d601f19601f82011682018060405250810190612e5d9190613d9a565b84306040518463ffffffff1660e01b8152600401612e7d9392919061461b565b602060405180830381600087803b158015612e9757600080fd5b505af1158015612eab573d6000803e3d6000fd5b505050506040513d601f19601f82011682018060405250810190612ecf9190613d48565b600260006101000a81548173ffffffffffffffffffffffffffffffffffffffff021916908373ffffffffffffffffffffffffffffffffffffffff16021790555050508015612f325760008060016101000a81548160ff0219169083151502179055505b505050505050505050565b6000600f60009054906101000a900473ffffffffffffffffffffffffffffffffffffffff1673ffffffffffffffffffffffffffffffffffffffff1663f595f1cc307fffffffffffffffffffffffffffffffffffffffffffffffffffffffffffffffff6040518363ffffffff1660e01b8152600401612fbc9291906145d7565b60206040518083038186803b158015612fd457600080fd5b505afa158015612fe8573d6000803e3d6000fd5b505050506040513d601f19601f8201168201806040525081019061300c9190613dec565b9050600181106133e057600f60009054906101000a900473ffffffffffffffffffffffffffffffffffffffff1673ffffffffffffffffffffffffffffffffffffffff1663476343ee6040518163ffffffff1660e01b8152600401600060405180830381600087803b15801561308057600080fd5b505af1158015613094573d6000803e3d6000fd5b505050506000479050600d60009054906101000a900473ffffffffffffffffffffffffffffffffffffffff1673ffffffffffffffffffffffffffffffffffffffff1663d0e30db0826040518263ffffffff1660e01b81526004016000604051808303818588803b15801561310757600080fd5b505af115801561311b573d6000803e3d6000fd5b5050505050600d60009054906101000a900473ffffffffffffffffffffffffffffffffffffffff1673ffffffffffffffffffffffffffffffffffffffff1663095ea7b3600e60009054906101000a900473ffffffffffffffffffffffffffffffffffffffff16836040518363ffffffff1660e01b815260040161319f9291906145d7565b602060405180830381600087803b1580156131b957600080fd5b505af11580156131cd573d6000803e3d6000fd5b505050506040513d601f19601f820116820180604052508101906131f19190613bea565b50600073ffffffffffffffffffffffffffffffffffffffff16600e60009054906101000a900473ffffffffffffffffffffffffffffffffffffffff1673ffffffffffffffffffffffffffffffffffffffff16146133de576000604051806101000160405280600d60009054906101000a900473ffffffffffffffffffffffffffffffffffffffff1673ffffffffffffffffffffffffffffffffffffffff168152602001600060029054906101000a900473ffffffffffffffffffffffffffffffffffffffff1673ffffffffffffffffffffffffffffffffffffffff16815260200161271062ffffff1681526020013073ffffffffffffffffffffffffffffffffffffffff16815260200142815260200183815260200160008152602001600073ffffffffffffffffffffffffffffffffffffffff168152509050600e60009054906101000a900473ffffffffffffffffffffffffffffffffffffffff1673ffffffffffffffffffffffffffffffffffffffff1663414bf389826040518263ffffffff1660e01b8152600401613386919061499e565b602060405180830381600087803b1580156133a057600080fd5b505af19250505080156133d157506040513d601f19601f820116820180604052508101906133ce9190613dec565b60015b6133da576133dc565b505b505b505b50565b60006009549050600061349f600060029054906101000a900473ffffffffffffffffffffffffffffffffffffffff1673ffffffffffffffffffffffffffffffffffffffff166370a08231306040518263ffffffff1660e01b815260040161344a91906144ed565b60206040518083038186803b15801561346257600080fd5b505afa158015613476573d6000803e3d6000fd5b505050506040513d601f19601f8201168201806040525081019061349a9190613dec565b6127c6565b9050600060085460075483866134b59190614ac1565b6134bf9190614ba2565b6134c99190614ba2565b905082811161353057806009819055507f78c13bf6a7fae25f1085d594e546d7a97cb66a55bc9733c7ea78236c452663ec81846135069190614ba2565b61350f90614e65565b8285604051613520939291906146be565b60405180910390a15050506135ff565b6000838261353e9190614ba2565b9050600061354e826005546136d7565b905080600760008282546135629190614ac1565b925050819055506000613577836006546136d7565b9050806008600082825461358b9190614ac1565b9250508190555080828561359f9190614ba2565b6135a99190614ba2565b9350836009819055507f78c13bf6a7fae25f1085d594e546d7a97cb66a55bc9733c7ea78236c452663ec86856135df9190614ba2565b85886040516135f0939291906146be565b60405180910390a15050505050505b50565b60006040517f3d602d80600a3d3981f3363d3d373d3d3d363d7300000000000000000000000081528260601b60148201527f5af43d82803e903d91602b57fd5bf3000000000000000000000000000000000060288201526037816000f0915050600073ffffffffffffffffffffffffffffffffffffffff168173ffffffffffffffffffffffffffffffffffffffff1614156136d2576040517f08c379a00000000000000000000000000000000000000000000000000000000081526004016136c99061481c565b60405180910390fd5b919050565b6000683635c9adc5dea0000082846136ef9190614b48565b6136f99190614b17565b905092915050565b600081359050613710816152a0565b92915050565b600081519050613725816152a0565b92915050565b60008083601f84011261373d57600080fd5b8235905067ffffffffffffffff81111561375657600080fd5b60208301915083602082028301111561376e57600080fd5b9250929050565b60008083601f84011261378757600080fd5b8235905067ffffffffffffffff8111156137a057600080fd5b6020830191508360208202830111156137b857600080fd5b9250929050565b60008083601f8401126137d157600080fd5b8235905067ffffffffffffffff8111156137ea57600080fd5b60208301915083602082028301111561380257600080fd5b9250929050565b600081519050613818816152b7565b92915050565b60008135905061382d816152ce565b92915050565b60008083601f84011261384557600080fd5b8235905067ffffffffffffffff81111561385e57600080fd5b60208301915083600182028301111561387657600080fd5b9250929050565b60008135905061388c816152e5565b92915050565b6000813590506138a1816152fc565b92915050565b6000813590506138b681615313565b92915050565b6000815190506138cb81615313565b92915050565b6000813590506138e08161532a565b92915050565b6000815190506138f581615341565b92915050565b60008135905061390a81615358565b92915050565b60008151905061391f8161536f565b92915050565b60008135905061393481615386565b92915050565b60008083601f84011261394c57600080fd5b8235905067ffffffffffffffff81111561396557600080fd5b60208301915083600182028301111561397d57600080fd5b9250929050565b6000813590506139938161539d565b92915050565b6000815190506139a88161539d565b92915050565b6000813590506139bd816153b4565b92915050565b6000602082840312156139d557600080fd5b60006139e384828501613701565b91505092915050565b6000602082840312156139fe57600080fd5b6000613a0c84828501613716565b91505092915050565b60008060408385031215613a2857600080fd5b6000613a3685828601613701565b9250506020613a4785828601613984565b9150509250929050565b60008060008060608587031215613a6757600080fd5b6000613a7587828801613701565b9450506020613a8687828801613984565b935050604085013567ffffffffffffffff811115613aa357600080fd5b613aaf87828801613833565b925092505092959194509250565b60008060008060008060c08789031215613ad657600080fd5b6000613ae489828a01613701565b9650506020613af589828a01613984565b9550506040613b0689828a01613984565b9450506060613b1789828a016139ae565b9350506080613b2889828a0161381e565b92505060a0613b3989828a0161381e565b9150509295509295509295565b60008060008060008060608789031215613b5f57600080fd5b600087013567ffffffffffffffff811115613b7957600080fd5b613b8589828a0161372b565b9650965050602087013567ffffffffffffffff811115613ba457600080fd5b613bb089828a016137bf565b9450945050604087013567ffffffffffffffff811115613bcf57600080fd5b613bdb89828a01613775565b92509250509295509295509295565b600060208284031215613bfc57600080fd5b6000613c0a84828501613809565b91505092915050565b600060208284031215613c2557600080fd5b6000613c338482850161387d565b91505092915050565b6000806000806000806000806000806101208b8d031215613c5c57600080fd5b6000613c6a8d828e0161387d565b9a505060208b013567ffffffffffffffff811115613c8757600080fd5b613c938d828e0161393a565b99509950506040613ca68d828e01613892565b9750506060613cb78d828e01613701565b9650506080613cc88d828e01613984565b95505060a0613cd98d828e01613984565b94505060c0613cea8d828e016138fb565b93505060e0613cfb8d828e01613925565b925050610100613d0d8d828e016138d1565b9150509295989b9194979a5092959850565b600060208284031215613d3157600080fd5b6000613d3f848285016138a7565b91505092915050565b600060208284031215613d5a57600080fd5b6000613d68848285016138bc565b91505092915050565b600060208284031215613d8357600080fd5b6000613d91848285016138e6565b91505092915050565b600060208284031215613dac57600080fd5b6000613dba84828501613910565b91505092915050565b600060208284031215613dd557600080fd5b6000613de384828501613984565b91505092915050565b600060208284031215613dfe57600080fd5b6000613e0c84828501613999565b91505092915050565b600080600080600060a08688031215613e2d57600080fd5b6000613e3b88828901613984565b9550506020613e4c88828901613984565b9450506040613e5d888289016139ae565b9350506060613e6e8882890161381e565b9250506080613e7f8882890161381e565b9150509295509295909350565b613e9581614bd6565b82525050565b613ea481614bd6565b82525050565b613eb381614bf4565b82525050565b6000613ec58385614a89565b9350613ed2838584614dda565b82840190509392505050565b613ee781614cde565b82525050565b613ef681614cde565b82525050565b613f0581614d02565b82525050565b613f1481614d26565b82525050565b613f2381614d4a565b82525050565b613f3281614d6e565b82525050565b613f4181614d92565b82525050565b613f5081614db6565b82525050565b613f5f81614c8e565b82525050565b6000613f7082614a7e565b613f7a8185614a94565b9350613f8a818560208601614de9565b613f9381614f0c565b840191505092915050565b6000613fa982614a7e565b613fb38185614aa5565b9350613fc3818560208601614de9565b613fcc81614f0c565b840191505092915050565b6000613fe282614a7e565b613fec8185614ab6565b9350613ffc818560208601614de9565b80840191505092915050565b6000614015601283614aa5565b915061402082614f1d565b602082019050919050565b6000614038600a83614aa5565b915061404382614f46565b602082019050919050565b600061405b600b83614ab6565b915061406682614f6f565b600b82019050919050565b600061407e601983614aa5565b915061408982614f98565b602082019050919050565b60006140a1601083614aa5565b91506140ac82614fc1565b602082019050919050565b60006140c4601283614aa5565b91506140cf82614fea565b602082019050919050565b60006140e7601183614aa5565b91506140f282615013565b602082019050919050565b600061410a601683614aa5565b91506141158261503c565b602082019050919050565b600061412d601183614aa5565b915061413882615065565b602082019050919050565b6000614150602e83614aa5565b915061415b8261508e565b604082019050919050565b6000614173600583614aa5565b915061417e826150dd565b602082019050919050565b6000614196600383614aa5565b91506141a182615106565b602082019050919050565b60006141b9600483614aa5565b91506141c48261512f565b602082019050919050565b60006141dc600c83614aa5565b91506141e782615158565b602082019050919050565b60006141ff600b83614aa5565b915061420a82615181565b602082019050919050565b6000614222600583614ab6565b915061422d826151aa565b600582019050919050565b6000614245600183614ab6565b9150614250826151d3565b600182019050919050565b6000614268600183614ab6565b9150614273826151fc565b600182019050919050565b600061428b600a83614aa5565b915061429682615225565b602082019050919050565b60006142ae600d83614aa5565b91506142b98261524e565b602082019050919050565b60006142d1601583614aa5565b91506142dc82615277565b602082019050919050565b60006080830160008301516142ff6000860182613ede565b5060208301516143126020860182613ede565b506040830151848203604086015261432a8282613f65565b915050606083015184820360608601526143448282613f65565b9150508091505092915050565b610100820160008201516143686000850182613e8c565b50602082015161437b6020850182613e8c565b50604082015161438e6040850182614402565b5060608201516143a16060850182613e8c565b5060808201516143b46080850182614411565b5060a08201516143c760a0850182614411565b5060c08201516143da60c0850182614411565b5060e08201516143ed60e08501826143f3565b50505050565b6143fc81614c98565b82525050565b61440b81614cb8565b82525050565b61441a81614cc7565b82525050565b61442981614cc7565b82525050565b61443881614cd1565b82525050565b600061444b828486613eb9565b91508190509392505050565b60006144638285613fd7565b915061446e8261425b565b915061447a8284613fd7565b91506144858261404e565b91508190509392505050565b600061449d8285613fd7565b91506144a88261425b565b91506144b48284613fd7565b91506144bf82614215565b91508190509392505050565b60006144d682614238565b91506144e28284613fd7565b915081905092915050565b60006020820190506145026000830184613e9b565b92915050565b600060408201905061451d6000830185613e9b565b61452a6020830184613e9b565b9392505050565b60006060820190506145466000830186613e9b565b6145536020830185613e9b565b6145606040830184614420565b949350505050565b600060e08201905061457d600083018a613e9b565b61458a6020830189613e9b565b6145976040830188614420565b6145a46060830187614420565b6145b1608083018661442f565b6145be60a0830185613eaa565b6145cb60c0830184613eaa565b98975050505050505050565b60006040820190506145ec6000830185613e9b565b6145f96020830184614420565b9392505050565b60006020820190506146156000830184613eed565b92915050565b60006060820190506146306000830186613eed565b61463d6020830185613f29565b61464a6040830184613f38565b949350505050565b60006020820190506146676000830184613efc565b92915050565b60006020820190506146826000830184613f0b565b92915050565b600060208201905061469d6000830184613f1a565b92915050565b60006020820190506146b86000830184613f29565b92915050565b60006060820190506146d36000830186613f56565b6146e06020830185614420565b6146ed6040830184614420565b949350505050565b6000602082019050818103600083015261470f8184613f9e565b905092915050565b600060608201905081810360008301526147318186613f9e565b905081810360208301526147458185613f9e565b90506147546040830184613f47565b949350505050565b6000602082019050818103600083015261477581614008565b9050919050565b600060208201905081810360008301526147958161402b565b9050919050565b600060208201905081810360008301526147b581614071565b9050919050565b600060208201905081810360008301526147d581614094565b9050919050565b600060208201905081810360008301526147f5816140b7565b9050919050565b60006020820190508181036000830152614815816140da565b9050919050565b60006020820190508181036000830152614835816140fd565b9050919050565b6000602082019050818103600083015261485581614120565b9050919050565b6000602082019050818103600083015261487581614143565b9050919050565b6000602082019050818103600083015261489581614166565b9050919050565b600060208201905081810360008301526148b581614189565b9050919050565b600060208201905081810360008301526148d5816141ac565b9050919050565b600060208201905081810360008301526148f5816141cf565b9050919050565b60006020820190508181036000830152614915816141f2565b9050919050565b600060208201905081810360008301526149358161427e565b9050919050565b60006020820190508181036000830152614955816142a1565b9050919050565b60006020820190508181036000830152614975816142c4565b9050919050565b6000602082019050818103600083015261499681846142e7565b905092915050565b6000610100820190506149b46000830184614351565b92915050565b60006020820190506149cf6000830184614420565b92915050565b60006040820190506149ea6000830185614420565b6149f76020830184613e9b565b9392505050565b6000604082019050614a136000830185614420565b614a206020830184614420565b9392505050565b60008083356001602003843603038112614a4057600080fd5b80840192508235915067ffffffffffffffff821115614a5e57600080fd5b602083019250600182023603831315614a7657600080fd5b509250929050565b600081519050919050565b600081905092915050565b600082825260208201905092915050565b600082825260208201905092915050565b600081905092915050565b6000614acc82614cc7565b9150614ad783614cc7565b9250827fffffffffffffffffffffffffffffffffffffffffffffffffffffffffffffffff03821115614b0c57614b0b614eae565b5b828201905092915050565b6000614b2282614cc7565b9150614b2d83614cc7565b925082614b3d57614b3c614edd565b5b828204905092915050565b6000614b5382614cc7565b9150614b5e83614cc7565b9250817fffffffffffffffffffffffffffffffffffffffffffffffffffffffffffffffff0483118215151615614b9757614b96614eae565b5b828202905092915050565b6000614bad82614cc7565b9150614bb883614cc7565b925082821015614bcb57614bca614eae565b5b828203905092915050565b6000614be182614c98565b9050919050565b60008115159050919050565b6000819050919050565b6000614c0982614bd6565b9050919050565b6000614c1b82614bd6565b9050919050565b6000614c2d82614bd6565b9050919050565b6000614c3f82614bd6565b9050919050565b6000614c5182614bd6565b9050919050565b6000614c6382614bd6565b9050919050565b6000614c7582614bd6565b9050919050565b6000614c8782614bd6565b9050919050565b6000819050919050565b600073ffffffffffffffffffffffffffffffffffffffff82169050919050565b600062ffffff82169050919050565b6000819050919050565b600060ff82169050919050565b6000614ce982614cf0565b9050919050565b6000614cfb82614c98565b9050919050565b6000614d0d82614d14565b9050919050565b6000614d1f82614c98565b9050919050565b6000614d3182614d38565b9050919050565b6000614d4382614c98565b9050919050565b6000614d5582614d5c565b9050919050565b6000614d6782614c98565b9050919050565b6000614d7982614d80565b9050919050565b6000614d8b82614c98565b9050919050565b6000614d9d82614da4565b9050919050565b6000614daf82614c98565b9050919050565b6000614dc182614dc8565b9050919050565b6000614dd382614c98565b9050919050565b82818337600083830152505050565b60005b83811015614e07578082015181840152602081019050614dec565b83811115614e16576000848401525b50505050565b6000614e2782614cc7565b91507fffffffffffffffffffffffffffffffffffffffffffffffffffffffffffffffff821415614e5a57614e59614eae565b5b600182019050919050565b6000614e7082614c8e565b91507f8000000000000000000000000000000000000000000000000000000000000000821415614ea357614ea2614eae565b5b816000039050919050565b7f4e487b7100000000000000000000000000000000000000000000000000000000600052601160045260246000fd5b7f4e487b7100000000000000000000000000000000000000000000000000000000600052601260045260246000fd5b6000601f19601f8301169050919050565b7f54454e4445525f4255524e5f4641494c45440000000000000000000000000000600082015250565b7f5a45524f5f5354414b4500000000000000000000000000000000000000000000600082015250565b7f205377617020546f6b656e000000000000000000000000000000000000000000600082015250565b7f535445414b5f5452414e5346455246524f4d5f4641494c454400000000000000600082015250565b7f5354414b494e475f434f4e545241435400000000000000000000000000000000600082015250565b7f54454e4445525f4d494e545f4641494c45440000000000000000000000000000600082015250565b7f4143434f554e545f4d4953544d41544348000000000000000000000000000000600082015250565b7f455243313136373a20637265617465206661696c656400000000000000000000600082015250565b7f494e56414c49445f415247554d454e5453000000000000000000000000000000600082015250565b7f496e697469616c697a61626c653a20636f6e747261637420697320616c72656160008201527f647920696e697469616c697a6564000000000000000000000000000000000000602082015250565b7f535445414b000000000000000000000000000000000000000000000000000000600082015250565b7f474f560000000000000000000000000000000000000000000000000000000000600082015250565b7f4e4f444500000000000000000000000000000000000000000000000000000000600082015250565b7f50524f544f434f4c5f4645450000000000000000000000000000000000000000600082015250565b7f5a45524f5f414d4f554e54000000000000000000000000000000000000000000600082015250565b7f2d53574150000000000000000000000000000000000000000000000000000000600082015250565b7f7400000000000000000000000000000000000000000000000000000000000000600082015250565b7f2d00000000000000000000000000000000000000000000000000000000000000600082015250565b7f54454e4445524641524d00000000000000000000000000000000000000000000600082015250565b7f4c49515549444954595f46454500000000000000000000000000000000000000600082015250565b7f4641494c5f494e49545f54454e444552544f4b454e0000000000000000000000600082015250565b6152a981614bd6565b81146152b457600080fd5b50565b6152c081614be8565b81146152cb57600080fd5b50565b6152d781614bf4565b81146152e257600080fd5b50565b6152ee81614bfe565b81146152f957600080fd5b50565b61530581614c10565b811461531057600080fd5b50565b61531c81614c22565b811461532757600080fd5b50565b61533381614c34565b811461533e57600080fd5b50565b61534a81614c46565b811461535557600080fd5b50565b61536181614c58565b811461536c57600080fd5b50565b61537881614c6a565b811461538357600080fd5b50565b61538f81614c7c565b811461539a57600080fd5b50565b6153a681614cc7565b81146153b157600080fd5b50565b6153bd81614cd1565b81146153c857600080fd5b5056fea2646970667358221220ead0b7d1c6abf1821d4eaf06af7e7f50c78cd61e2186430ae327a0f5720c1f0664736f6c63430008040033",
  "devdoc": {
    "kind": "dev",
    "methods": {
      "batchExecute(address[],uint256[],bytes[])": {
        "details": "Every target to its value, data via it's corresponding index.only callable by owner(gov).",
        "params": {
          "_datas": "array of call datas - check ethers.interface.encodeFunctionData()",
          "_targets": "array of target addresses for the contract call",
          "_values": "array of ether values to be transeffered with the transactions"
        }
      },
      "calcDepositOut(uint256)": {
        "details": "used by controller to calculate tokens to be minted before depositing.to be used when there a delegation tax is deducted, for eg. in Graph.",
        "returns": {
          "_0": "number of tokens staked for `amountIn`."
        }
      },
      "collectFees()": {
        "details": "Resets pendingFees.Fees claimed are added to total staked.",
        "returns": {
          "_0": "Amount of protocol fees collected"
        }
      },
      "collectLiquidityFees()": {
        "details": "Resets pendingFees.Fees claimed are added to total staked.",
        "returns": {
          "amount": "Amount of liquidity fees collected"
        }
      },
      "deposit(uint256)": {
        "details": "doesn't actually stakes the tokens but aggregates the balance in the tenderizer awaiting to be staked.requires '_amount' to be approved by '_from'.",
        "params": {
          "_amount": "amount deposited"
        }
      },
      "depositWithPermit(uint256,uint256,uint8,bytes32,bytes32)": {
        "details": "doesn't actually stakes the tokens but aggregates the balance in the tenderizer awaiting to be staked.requires '_amount' to be approved by '_from'.",
        "params": {
          "_amount": "amount deposited",
          "_deadline": "deadline for the permit",
          "_r": "from ECDSA signature",
          "_s": "from ECDSA signature",
          "_v": "from ECDSA signature"
        }
      },
      "execute(address,uint256,bytes)": {
        "details": "only callable by owner(gov).",
        "params": {
          "_data": "call data - check ethers.interface.encodeFunctionData()",
          "_target": "target address for the contract call",
          "_value": "ether value to be transeffered with the transaction"
        }
      },
      "selfPermit(address,uint256,uint256,uint8,bytes32,bytes32)": {
        "details": "The `owner` is always msg.sender and the `spender` is always address(this).",
        "params": {
          "_deadline": "A timestamp, the current blocktime must be less than or equal to this timestamp",
          "_r": "Must produce valid secp256k1 signature from the holder along with `v` and `s`",
          "_s": "Must produce valid secp256k1 signature from the holder along with `r` and `v`",
          "_token": "The address of the token spent",
          "_v": "Must produce valid secp256k1 signature from the holder along with `r` and `s`",
          "_value": "The amount that can be spent of token"
        }
      },
      "selfPermitIfNecessary(address,uint256,uint256,uint8,bytes32,bytes32)": {
        "details": "The `owner` is always msg.sender and the `spender` is always address(this). Can be used instead of #selfPermit to prevent calls from failing due to a frontrun of a call to #selfPermit",
        "params": {
          "_deadline": "A timestamp, the current blocktime must be less than or equal to this timestamp",
          "_r": "Must produce valid secp256k1 signature from the holder along with `v` and `s`",
          "_s": "Must produce valid secp256k1 signature from the holder along with `r` and `v`",
          "_token": "The address of the token spent",
          "_v": "Must produce valid secp256k1 signature from the holder along with `r` and `s`",
          "_value": "The amount that can be spent of token"
        }
      },
      "stake(address,uint256)": {
        "details": "If '_node' is not specified, stake towards the default address.If '_amount' is 0, stake the entire current token balance of the Tenderizer.Only callable by Gov.",
        "params": {
          "_amount": "amount to stake",
          "_node": "account to stake to in the underlying protocol"
        }
      },
      "totalStakedTokens()": {
        "returns": {
          "_0": "total amount staked by this Tenderizer"
        }
      },
      "unstake(uint256)": {
        "details": "unstake from the default address.If '_amount' is 0, unstake the entire amount staked towards _account.",
        "params": {
          "_amount": "amount to unstake"
        },
        "returns": {
          "_0": "unstake lockID generated for unstake"
        }
      },
      "withdraw(uint256)": {
        "details": "If '_amount' isn't specified all unstake tokens by '_account' will be withdrawn.Requires '_account' to have unstaked prior to calling withdraw.",
        "params": {
          "_unstakeLockID": "ID for the lock to request the withdraw for"
        }
      }
    },
    "version": 1
  },
  "userdoc": {
    "events": {
      "Deposit(address,uint256)": {
        "notice": "Deposit gets emitted when an accounts deposits underlying tokens."
      },
      "GovernanceUpdate(string)": {
        "notice": "GovernanceUpdate gets emitted when a parameter on the Tenderizer gets updated."
      },
      "LiquidityFeeCollected(uint256)": {
        "notice": "LiquidityFeeCollected gets emitted when liquidity provider fees are moved to the TenderFarm."
      },
      "ProtocolFeeCollected(uint256)": {
        "notice": "ProtocolFeeCollected gets emitted when the treasury claims its outstanding protocol fees."
      },
      "RewardsClaimed(int256,uint256,uint256)": {
        "notice": "RewardsClaimed gets emitted when the Tenderizer processes staking rewards (or slashing) from the underlying protocol."
      },
      "Stake(address,uint256)": {
        "notice": "Stake gets emitted when funds are staked/delegated from the Tenderizer contract into the underlying protocol."
      },
      "Unstake(address,address,uint256,uint256)": {
        "notice": "Unstake gets emitted when an account burns TenderTokens to unlock tokens staked through the Tenderizer"
      },
      "Withdraw(address,uint256,uint256)": {
        "notice": "Withdraw gets emitted when an account withdraws tokens that have been succesfully unstaked and thus unlocked for withdrawal."
      }
    },
    "kind": "user",
    "methods": {
      "batchExecute(address[],uint256[],bytes[])": {
        "notice": "Exectutes a batch of transaction on behalf of the controller."
      },
      "calcDepositOut(uint256)": {
        "notice": "Returns the number of tenderTokens to be minted for amountIn deposit."
      },
      "claimRewards()": {
        "notice": "Compound all the rewards and new deposits. Claim staking rewards and earned fees for the underlying protocol and stake any leftover token balance. Process Tender protocol fees if revenue is positive."
      },
      "collectFees()": {
        "notice": "Collect fees pulls any pending governance fees from the Tenderizer to the governance treasury."
      },
      "collectLiquidityFees()": {
        "notice": "Collect Liquidity fees pulls any pending LP fees from the Tenderizer to TenderFarm."
      },
      "deposit(uint256)": {
        "notice": "Deposit tokens in Tenderizer."
      },
      "depositWithPermit(uint256,uint256,uint8,bytes32,bytes32)": {
        "notice": "Deposit tokens in Tenderizer with permit."
      },
      "execute(address,uint256,bytes)": {
        "notice": "Exectutes a transaction on behalf of the controller."
      },
      "pendingFees()": {
        "notice": "Returns the amount of pending protocool fees since last claiming.."
      },
      "pendingLiquidityFees()": {
        "notice": "Returns the amount of pending liquidity provider fees since last claiming."
      },
      "selfPermit(address,uint256,uint256,uint8,bytes32,bytes32)": {
        "notice": "Permits this contract to spend a given token from `msg.sender`"
      },
      "selfPermitIfNecessary(address,uint256,uint256,uint8,bytes32,bytes32)": {
        "notice": "Permits this contract to spend a given token from `msg.sender`"
      },
      "stake(address,uint256)": {
        "notice": "Stake '_amount' of tokens to '_node'."
      },
      "totalStakedTokens()": {
        "notice": "Total Staked Tokens returns the total amount of underlying tokens staked by this Tenderizer."
      },
      "unstake(uint256)": {
        "notice": "Unstake '_amount' of tokens from '_account'."
      },
      "withdraw(uint256)": {
        "notice": "Withdraw '_amount' of tokens previously unstaked by '_account'."
      }
    },
    "version": 1
  },
  "storageLayout": {
    "storage": [
      {
        "astId": 2048,
        "contract": "contracts/tenderizer/integrations/livepeer/Livepeer.sol:Livepeer",
        "label": "_initialized",
        "offset": 0,
        "slot": "0",
        "type": "t_bool"
      },
      {
        "astId": 2051,
        "contract": "contracts/tenderizer/integrations/livepeer/Livepeer.sol:Livepeer",
        "label": "_initializing",
        "offset": 1,
        "slot": "0",
        "type": "t_bool"
      },
      {
        "astId": 5671,
        "contract": "contracts/tenderizer/integrations/livepeer/Livepeer.sol:Livepeer",
        "label": "steak",
        "offset": 2,
        "slot": "0",
        "type": "t_contract(IERC20)2712"
      },
      {
        "astId": 5674,
        "contract": "contracts/tenderizer/integrations/livepeer/Livepeer.sol:Livepeer",
        "label": "tenderToken",
        "offset": 0,
        "slot": "1",
        "type": "t_contract(ITenderToken)14430"
      },
      {
        "astId": 5677,
        "contract": "contracts/tenderizer/integrations/livepeer/Livepeer.sol:Livepeer",
        "label": "tenderFarm",
        "offset": 0,
        "slot": "2",
        "type": "t_contract(ITenderFarm)4871"
      },
      {
        "astId": 5680,
        "contract": "contracts/tenderizer/integrations/livepeer/Livepeer.sol:Livepeer",
        "label": "tenderSwap",
        "offset": 0,
        "slot": "3",
        "type": "t_contract(ITenderSwap)8938"
      },
      {
        "astId": 5682,
        "contract": "contracts/tenderizer/integrations/livepeer/Livepeer.sol:Livepeer",
        "label": "node",
        "offset": 0,
        "slot": "4",
        "type": "t_address"
      },
      {
        "astId": 5684,
        "contract": "contracts/tenderizer/integrations/livepeer/Livepeer.sol:Livepeer",
        "label": "protocolFee",
        "offset": 0,
        "slot": "5",
        "type": "t_uint256"
      },
      {
        "astId": 5686,
        "contract": "contracts/tenderizer/integrations/livepeer/Livepeer.sol:Livepeer",
        "label": "liquidityFee",
        "offset": 0,
        "slot": "6",
        "type": "t_uint256"
      },
      {
        "astId": 5689,
        "contract": "contracts/tenderizer/integrations/livepeer/Livepeer.sol:Livepeer",
        "label": "pendingFees",
        "offset": 0,
        "slot": "7",
        "type": "t_uint256"
      },
      {
        "astId": 5692,
        "contract": "contracts/tenderizer/integrations/livepeer/Livepeer.sol:Livepeer",
        "label": "pendingLiquidityFees",
        "offset": 0,
        "slot": "8",
        "type": "t_uint256"
      },
      {
        "astId": 5694,
        "contract": "contracts/tenderizer/integrations/livepeer/Livepeer.sol:Livepeer",
        "label": "currentPrincipal",
        "offset": 0,
        "slot": "9",
        "type": "t_uint256"
      },
      {
        "astId": 5699,
        "contract": "contracts/tenderizer/integrations/livepeer/Livepeer.sol:Livepeer",
        "label": "unstakeLocks",
        "offset": 0,
        "slot": "10",
        "type": "t_mapping(t_uint256,t_struct(UnstakeLock)5668_storage)"
      },
      {
        "astId": 5701,
        "contract": "contracts/tenderizer/integrations/livepeer/Livepeer.sol:Livepeer",
        "label": "nextUnstakeLockID",
        "offset": 0,
        "slot": "11",
        "type": "t_uint256"
      },
      {
        "astId": 5703,
        "contract": "contracts/tenderizer/integrations/livepeer/Livepeer.sol:Livepeer",
        "label": "gov",
        "offset": 0,
        "slot": "12",
        "type": "t_address"
      },
      {
        "astId": 7594,
        "contract": "contracts/tenderizer/integrations/livepeer/Livepeer.sol:Livepeer",
        "label": "WETH",
        "offset": 0,
        "slot": "13",
        "type": "t_contract(IWETH)4622"
      },
      {
        "astId": 7597,
        "contract": "contracts/tenderizer/integrations/livepeer/Livepeer.sol:Livepeer",
        "label": "uniswapRouter",
        "offset": 0,
        "slot": "14",
        "type": "t_contract(ISwapRouterWithWETH)4613"
      },
      {
        "astId": 7603,
        "contract": "contracts/tenderizer/integrations/livepeer/Livepeer.sol:Livepeer",
        "label": "livepeer",
        "offset": 0,
        "slot": "15",
        "type": "t_contract(ILivepeer)7572"
      }
    ],
    "types": {
      "t_address": {
        "encoding": "inplace",
        "label": "address",
        "numberOfBytes": "20"
      },
      "t_bool": {
        "encoding": "inplace",
        "label": "bool",
        "numberOfBytes": "1"
      },
      "t_contract(IERC20)2712": {
        "encoding": "inplace",
        "label": "contract IERC20",
        "numberOfBytes": "20"
      },
      "t_contract(ILivepeer)7572": {
        "encoding": "inplace",
        "label": "contract ILivepeer",
        "numberOfBytes": "20"
      },
      "t_contract(ISwapRouterWithWETH)4613": {
        "encoding": "inplace",
        "label": "contract ISwapRouterWithWETH",
        "numberOfBytes": "20"
      },
      "t_contract(ITenderFarm)4871": {
        "encoding": "inplace",
        "label": "contract ITenderFarm",
        "numberOfBytes": "20"
      },
      "t_contract(ITenderSwap)8938": {
        "encoding": "inplace",
        "label": "contract ITenderSwap",
        "numberOfBytes": "20"
      },
      "t_contract(ITenderToken)14430": {
        "encoding": "inplace",
        "label": "contract ITenderToken",
        "numberOfBytes": "20"
      },
      "t_contract(IWETH)4622": {
        "encoding": "inplace",
        "label": "contract IWETH",
        "numberOfBytes": "20"
      },
      "t_mapping(t_uint256,t_struct(UnstakeLock)5668_storage)": {
        "encoding": "mapping",
        "key": "t_uint256",
        "label": "mapping(uint256 => struct Tenderizer.UnstakeLock)",
        "numberOfBytes": "32",
        "value": "t_struct(UnstakeLock)5668_storage"
      },
      "t_struct(UnstakeLock)5668_storage": {
        "encoding": "inplace",
        "label": "struct Tenderizer.UnstakeLock",
        "members": [
          {
            "astId": 5665,
            "contract": "contracts/tenderizer/integrations/livepeer/Livepeer.sol:Livepeer",
            "label": "amount",
            "offset": 0,
            "slot": "0",
            "type": "t_uint256"
          },
          {
            "astId": 5667,
            "contract": "contracts/tenderizer/integrations/livepeer/Livepeer.sol:Livepeer",
            "label": "account",
            "offset": 0,
            "slot": "1",
            "type": "t_address"
          }
        ],
        "numberOfBytes": "64"
      },
      "t_uint256": {
        "encoding": "inplace",
        "label": "uint256",
        "numberOfBytes": "32"
      }
    }
  }
}