{
  "address": "0xD1a57460e999360ca37FD218cd4D1787a41CF814",
  "abi": [
    {
      "anonymous": false,
      "inputs": [
        {
          "indexed": true,
          "internalType": "address",
          "name": "from",
          "type": "address"
        },
        {
          "indexed": false,
          "internalType": "uint256",
          "name": "amount",
          "type": "uint256"
        }
      ],
      "name": "Deposit",
      "type": "event"
    },
    {
      "anonymous": false,
      "inputs": [
        {
          "indexed": false,
          "internalType": "string",
          "name": "param",
          "type": "string"
        }
      ],
      "name": "GovernanceUpdate",
      "type": "event"
    },
    {
      "anonymous": false,
      "inputs": [
        {
          "indexed": false,
          "internalType": "uint256",
          "name": "amount",
          "type": "uint256"
        }
      ],
      "name": "LiquidityFeeCollected",
      "type": "event"
    },
    {
      "anonymous": false,
      "inputs": [
        {
          "indexed": false,
          "internalType": "uint256",
          "name": "amount",
          "type": "uint256"
        }
      ],
      "name": "ProtocolFeeCollected",
      "type": "event"
    },
    {
      "anonymous": false,
      "inputs": [
        {
          "indexed": false,
          "internalType": "int256",
          "name": "stakeDiff",
          "type": "int256"
        },
        {
          "indexed": false,
          "internalType": "uint256",
          "name": "currentPrincipal",
          "type": "uint256"
        },
        {
          "indexed": false,
          "internalType": "uint256",
          "name": "oldPrincipal",
          "type": "uint256"
        }
      ],
      "name": "RewardsClaimed",
      "type": "event"
    },
    {
      "anonymous": false,
      "inputs": [
        {
          "indexed": true,
          "internalType": "address",
          "name": "node",
          "type": "address"
        },
        {
          "indexed": false,
          "internalType": "uint256",
          "name": "amount",
          "type": "uint256"
        }
      ],
      "name": "Stake",
      "type": "event"
    },
    {
      "anonymous": false,
      "inputs": [
        {
          "indexed": true,
          "internalType": "address",
          "name": "from",
          "type": "address"
        },
        {
          "indexed": true,
          "internalType": "address",
          "name": "node",
          "type": "address"
        },
        {
          "indexed": false,
          "internalType": "uint256",
          "name": "amount",
          "type": "uint256"
        },
        {
          "indexed": false,
          "internalType": "uint256",
          "name": "unstakeLockID",
          "type": "uint256"
        }
      ],
      "name": "Unstake",
      "type": "event"
    },
    {
      "anonymous": false,
      "inputs": [
        {
          "indexed": true,
          "internalType": "address",
          "name": "from",
          "type": "address"
        },
        {
          "indexed": false,
          "internalType": "uint256",
          "name": "amount",
          "type": "uint256"
        },
        {
          "indexed": false,
          "internalType": "uint256",
          "name": "unstakeLockID",
          "type": "uint256"
        }
      ],
      "name": "Withdraw",
      "type": "event"
    },
    {
      "inputs": [
        {
          "internalType": "address[]",
          "name": "_targets",
          "type": "address[]"
        },
        {
          "internalType": "uint256[]",
          "name": "_values",
          "type": "uint256[]"
        },
        {
          "internalType": "bytes[]",
          "name": "_datas",
          "type": "bytes[]"
        }
      ],
      "name": "batchExecute",
      "outputs": [],
      "stateMutability": "nonpayable",
      "type": "function"
    },
    {
      "inputs": [
        {
          "internalType": "uint256",
          "name": "_amountIn",
          "type": "uint256"
        }
      ],
      "name": "calcDepositOut",
      "outputs": [
        {
          "internalType": "uint256",
          "name": "",
          "type": "uint256"
        }
      ],
      "stateMutability": "view",
      "type": "function"
    },
    {
      "inputs": [],
      "name": "claimRewards",
      "outputs": [],
      "stateMutability": "nonpayable",
      "type": "function"
    },
    {
      "inputs": [],
      "name": "collectFees",
      "outputs": [
        {
          "internalType": "uint256",
          "name": "",
          "type": "uint256"
        }
      ],
      "stateMutability": "nonpayable",
      "type": "function"
    },
    {
      "inputs": [],
      "name": "collectLiquidityFees",
      "outputs": [
        {
          "internalType": "uint256",
          "name": "amount",
          "type": "uint256"
        }
      ],
      "stateMutability": "nonpayable",
      "type": "function"
    },
    {
      "inputs": [],
      "name": "currentPrincipal",
      "outputs": [
        {
          "internalType": "uint256",
          "name": "",
          "type": "uint256"
        }
      ],
      "stateMutability": "view",
      "type": "function"
    },
    {
      "inputs": [
        {
          "internalType": "uint256",
          "name": "_amount",
          "type": "uint256"
        }
      ],
      "name": "deposit",
      "outputs": [],
      "stateMutability": "nonpayable",
      "type": "function"
    },
    {
      "inputs": [
        {
          "internalType": "uint256",
          "name": "_amount",
          "type": "uint256"
        },
        {
          "internalType": "uint256",
          "name": "_deadline",
          "type": "uint256"
        },
        {
          "internalType": "uint8",
          "name": "_v",
          "type": "uint8"
        },
        {
          "internalType": "bytes32",
          "name": "_r",
          "type": "bytes32"
        },
        {
          "internalType": "bytes32",
          "name": "_s",
          "type": "bytes32"
        }
      ],
      "name": "depositWithPermit",
      "outputs": [],
      "stateMutability": "nonpayable",
      "type": "function"
    },
    {
      "inputs": [
        {
          "internalType": "address",
          "name": "_target",
          "type": "address"
        },
        {
          "internalType": "uint256",
          "name": "_value",
          "type": "uint256"
        },
        {
          "internalType": "bytes",
          "name": "_data",
          "type": "bytes"
        }
      ],
      "name": "execute",
      "outputs": [],
      "stateMutability": "nonpayable",
      "type": "function"
    },
    {
      "inputs": [],
      "name": "gov",
      "outputs": [
        {
          "internalType": "address",
          "name": "",
          "type": "address"
        }
      ],
      "stateMutability": "view",
      "type": "function"
    },
    {
      "inputs": [
        {
          "internalType": "contract IERC20",
          "name": "_steak",
          "type": "address"
        },
        {
          "internalType": "string",
          "name": "_symbol",
          "type": "string"
        },
        {
          "internalType": "contract ILivepeer",
          "name": "_livepeer",
          "type": "address"
        },
        {
          "internalType": "address",
          "name": "_node",
          "type": "address"
        },
        {
          "internalType": "uint256",
          "name": "_protocolFee",
          "type": "uint256"
        },
        {
          "internalType": "uint256",
          "name": "_liquidityFee",
          "type": "uint256"
        },
        {
          "internalType": "contract ITenderToken",
          "name": "_tenderTokenTarget",
          "type": "address"
        },
        {
          "internalType": "contract TenderFarmFactory",
          "name": "_tenderFarmFactory",
          "type": "address"
        },
        {
          "internalType": "contract ITenderSwapFactory",
          "name": "_tenderSwapFactory",
          "type": "address"
        }
      ],
      "name": "initialize",
      "outputs": [],
      "stateMutability": "nonpayable",
      "type": "function"
    },
    {
      "inputs": [],
      "name": "liquidityFee",
      "outputs": [
        {
          "internalType": "uint256",
          "name": "",
          "type": "uint256"
        }
      ],
      "stateMutability": "view",
      "type": "function"
    },
    {
      "inputs": [],
      "name": "node",
      "outputs": [
        {
          "internalType": "address",
          "name": "",
          "type": "address"
        }
      ],
      "stateMutability": "view",
      "type": "function"
    },
    {
      "inputs": [],
      "name": "pendingFees",
      "outputs": [
        {
          "internalType": "uint256",
          "name": "",
          "type": "uint256"
        }
      ],
      "stateMutability": "view",
      "type": "function"
    },
    {
      "inputs": [],
      "name": "pendingLiquidityFees",
      "outputs": [
        {
          "internalType": "uint256",
          "name": "",
          "type": "uint256"
        }
      ],
      "stateMutability": "view",
      "type": "function"
    },
    {
      "inputs": [],
      "name": "protocolFee",
      "outputs": [
        {
          "internalType": "uint256",
          "name": "",
          "type": "uint256"
        }
      ],
      "stateMutability": "view",
      "type": "function"
    },
    {
      "inputs": [
        {
          "internalType": "address",
          "name": "_token",
          "type": "address"
        },
        {
          "internalType": "uint256",
          "name": "_value",
          "type": "uint256"
        },
        {
          "internalType": "uint256",
          "name": "_deadline",
          "type": "uint256"
        },
        {
          "internalType": "uint8",
          "name": "_v",
          "type": "uint8"
        },
        {
          "internalType": "bytes32",
          "name": "_r",
          "type": "bytes32"
        },
        {
          "internalType": "bytes32",
          "name": "_s",
          "type": "bytes32"
        }
      ],
      "name": "selfPermit",
      "outputs": [],
      "stateMutability": "payable",
      "type": "function"
    },
    {
      "inputs": [
        {
          "internalType": "address",
          "name": "_token",
          "type": "address"
        },
        {
          "internalType": "uint256",
          "name": "_value",
          "type": "uint256"
        },
        {
          "internalType": "uint256",
          "name": "_deadline",
          "type": "uint256"
        },
        {
          "internalType": "uint8",
          "name": "_v",
          "type": "uint8"
        },
        {
          "internalType": "bytes32",
          "name": "_r",
          "type": "bytes32"
        },
        {
          "internalType": "bytes32",
          "name": "_s",
          "type": "bytes32"
        }
      ],
      "name": "selfPermitIfNecessary",
      "outputs": [],
      "stateMutability": "payable",
      "type": "function"
    },
    {
      "inputs": [
        {
          "internalType": "address",
          "name": "_gov",
          "type": "address"
        }
      ],
      "name": "setGov",
      "outputs": [],
      "stateMutability": "nonpayable",
      "type": "function"
    },
    {
      "inputs": [
        {
          "internalType": "uint256",
          "name": "_liquidityFee",
          "type": "uint256"
        }
      ],
      "name": "setLiquidityFee",
      "outputs": [],
      "stateMutability": "nonpayable",
      "type": "function"
    },
    {
      "inputs": [
        {
          "internalType": "address",
          "name": "_node",
          "type": "address"
        }
      ],
      "name": "setNode",
      "outputs": [],
      "stateMutability": "nonpayable",
      "type": "function"
    },
    {
      "inputs": [
        {
          "internalType": "uint256",
          "name": "_protocolFee",
          "type": "uint256"
        }
      ],
      "name": "setProtocolFee",
      "outputs": [],
      "stateMutability": "nonpayable",
      "type": "function"
    },
    {
      "inputs": [
        {
          "internalType": "address",
          "name": "_stakingContract",
          "type": "address"
        }
      ],
      "name": "setStakingContract",
      "outputs": [],
      "stateMutability": "nonpayable",
      "type": "function"
    },
    {
      "inputs": [
        {
          "internalType": "contract IERC20",
          "name": "_steak",
          "type": "address"
        }
      ],
      "name": "setSteak",
      "outputs": [],
      "stateMutability": "nonpayable",
      "type": "function"
    },
    {
      "inputs": [
        {
          "internalType": "contract ITenderFarm",
          "name": "_tenderFarm",
          "type": "address"
        }
      ],
      "name": "setTenderFarm",
      "outputs": [],
      "stateMutability": "nonpayable",
      "type": "function"
    },
    {
      "inputs": [
        {
          "internalType": "address",
          "name": "_uniswapRouter",
          "type": "address"
        }
      ],
      "name": "setUniswapRouter",
      "outputs": [],
      "stateMutability": "nonpayable",
      "type": "function"
    },
    {
      "inputs": [
        {
          "internalType": "address",
          "name": "_account",
          "type": "address"
        },
        {
          "internalType": "uint256",
          "name": "_amount",
          "type": "uint256"
        }
      ],
      "name": "stake",
      "outputs": [],
      "stateMutability": "nonpayable",
      "type": "function"
    },
    {
      "inputs": [],
      "name": "steak",
      "outputs": [
        {
          "internalType": "contract IERC20",
          "name": "",
          "type": "address"
        }
      ],
      "stateMutability": "view",
      "type": "function"
    },
    {
      "inputs": [],
      "name": "tenderFarm",
      "outputs": [
        {
          "internalType": "contract ITenderFarm",
          "name": "",
          "type": "address"
        }
      ],
      "stateMutability": "view",
      "type": "function"
    },
    {
      "inputs": [],
      "name": "tenderSwap",
      "outputs": [
        {
          "internalType": "contract ITenderSwap",
          "name": "",
          "type": "address"
        }
      ],
      "stateMutability": "view",
      "type": "function"
    },
    {
      "inputs": [],
      "name": "tenderToken",
      "outputs": [
        {
          "internalType": "contract ITenderToken",
          "name": "",
          "type": "address"
        }
      ],
      "stateMutability": "view",
      "type": "function"
    },
    {
      "inputs": [],
      "name": "totalStakedTokens",
      "outputs": [
        {
          "internalType": "uint256",
          "name": "",
          "type": "uint256"
        }
      ],
      "stateMutability": "view",
      "type": "function"
    },
    {
      "inputs": [],
      "name": "uniswapRouter",
      "outputs": [
        {
          "internalType": "contract ISwapRouterWithWETH",
          "name": "",
          "type": "address"
        }
      ],
      "stateMutability": "view",
      "type": "function"
    },
    {
      "inputs": [
        {
          "internalType": "uint256",
          "name": "_amount",
          "type": "uint256"
        }
      ],
      "name": "unstake",
      "outputs": [
        {
          "internalType": "uint256",
          "name": "",
          "type": "uint256"
        }
      ],
      "stateMutability": "nonpayable",
      "type": "function"
    },
    {
      "inputs": [
        {
          "internalType": "uint256",
          "name": "_unstakeLockID",
          "type": "uint256"
        }
      ],
      "name": "withdraw",
      "outputs": [],
      "stateMutability": "nonpayable",
      "type": "function"
    }
  ],
  "transactionHash": "0x13dd05e754c0f9809dc38eaeba3979063ff744bdecd4295b7a00589f98bf3be3",
  "args": [],
  "solcInputHash": "1677182534a0a4683dcf52379f10f0df",
  "bytecode": "0x608060405234801561001057600080fd5b5061537c806100206000396000f3fe6080604052600436106102045760003560e01c80639dd373b911610118578063c21d5ab7116100a0578063d70754ec1161006f578063d70754ec146106fa578063ec6d80f614610725578063f3995c671461074e578063f4d95a711461076a578063fbdfc9611461079557610204565b8063c21d5ab714610661578063c2e3140a1461068a578063c8796572146106a6578063cfad57a2146106d157610204565b8063b089af31116100e7578063b089af3114610590578063b0e21e8a146105bb578063b61d27f6146105e6578063b6b55f251461060f578063bea9849e1461063857610204565b80639dd373b9146104ea578063a26a546b14610513578063adc9772e1461053e578063afef75d21461056757610204565b8063372500ab1161019b5780636f1903151161016a5780636f19031514610403578063735de9f71461042e578063787dce3d146104595780637cb0c2751461048257806398118cb4146104bf57610204565b8063372500ab1461036d5780633ae73259146103845780634a970be7146103af57806351c669c0146103d857610204565b80632d822160116101d75780632d822160146102b35780632e17de78146102de5780632e1a7d4d1461031b578063357bf15c1461034457610204565b8063077d97d71461020957806312d43a5114610232578063224438d11461025d5780632a777db214610288575b600080fd5b34801561021557600080fd5b50610230600480360381019061022b9190613ac1565b6107be565b005b34801561023e57600080fd5b5061024761097c565b6040516102549190614468565b60405180910390f35b34801561026957600080fd5b506102726109a2565b60405161027f9190614935565b60405180910390f35b34801561029457600080fd5b5061029d6109a8565b6040516102aa9190614935565b60405180910390f35b3480156102bf57600080fd5b506102c86109ae565b6040516102d5919061461e565b60405180910390f35b3480156102ea57600080fd5b5061030560048036038101906103009190613d3e565b6109d4565b6040516103129190614935565b60405180910390f35b34801561032757600080fd5b50610342600480360381019061033d9190613d3e565b610b4e565b005b34801561035057600080fd5b5061036b60048036038101906103669190613d3e565b610b5b565b005b34801561037957600080fd5b50610382610bf4565b005b34801561039057600080fd5b50610399610cd4565b6040516103a69190614935565b60405180910390f35b3480156103bb57600080fd5b506103d660048036038101906103d19190613d90565b610ce3565b005b3480156103e457600080fd5b506103ed610d23565b6040516103fa9190614935565b60405180910390f35b34801561040f57600080fd5b50610418610d29565b604051610425919061457b565b60405180910390f35b34801561043a57600080fd5b50610443610d4f565b60405161045091906145cd565b60405180910390f35b34801561046557600080fd5b50610480600480360381019061047b9190613d3e565b610d75565b005b34801561048e57600080fd5b506104a960048036038101906104a49190613d3e565b610e0e565b6040516104b69190614935565b60405180910390f35b3480156104cb57600080fd5b506104d4610e20565b6040516104e19190614935565b60405180910390f35b3480156104f657600080fd5b50610511600480360381019061050c919061393e565b610e26565b005b34801561051f57600080fd5b50610528610e8c565b6040516105359190614603565b60405180910390f35b34801561054a57600080fd5b5061056560048036038101906105609190613990565b610eb2565b005b34801561057357600080fd5b5061058e60048036038101906105899190613b8e565b610f1a565b005b34801561059c57600080fd5b506105a5610fed565b6040516105b29190614935565b60405180910390f35b3480156105c757600080fd5b506105d061131b565b6040516105dd9190614935565b60405180910390f35b3480156105f257600080fd5b5061060d600480360381019061060891906139cc565b611321565b005b34801561061b57600080fd5b5061063660048036038101906106319190613d3e565b61138d565b005b34801561064457600080fd5b5061065f600480360381019061065a919061393e565b6115c9565b005b34801561066d57600080fd5b506106886004803603810190610683919061393e565b611749565b005b6106a4600480360381019061069f9190613a38565b61181c565b005b3480156106b257600080fd5b506106bb6118d6565b6040516106c89190614935565b60405180910390f35b3480156106dd57600080fd5b506106f860048036038101906106f3919061393e565b611a13565b005b34801561070657600080fd5b5061070f611ae6565b60405161071c9190614468565b60405180910390f35b34801561073157600080fd5b5061074c60048036038101906107479190613bb7565b611b0c565b005b61076860048036038101906107639190613a38565b611bad565b005b34801561077657600080fd5b5061077f611bc3565b60405161078c91906145e8565b60405180910390f35b3480156107a157600080fd5b506107bc60048036038101906107b79190613c9a565b611be9565b005b600a60009054906101000a900473ffffffffffffffffffffffffffffffffffffffff1673ffffffffffffffffffffffffffffffffffffffff163373ffffffffffffffffffffffffffffffffffffffff161461081857600080fd5b838390508686905014801561083257508181905086869050145b610871576040517f08c379a0000000000000000000000000000000000000000000000000000000008152600401610868906147b7565b60405180910390fd5b60005b86869050811015610973576109608787838181106108bb577f4e487b7100000000000000000000000000000000000000000000000000000000600052603260045260246000fd5b90506020020160208101906108d0919061393e565b868684818110610909577f4e487b7100000000000000000000000000000000000000000000000000000000600052603260045260246000fd5b90506020020135858585818110610949577f4e487b7100000000000000000000000000000000000000000000000000000000600052603260045260246000fd5b905060200281019061095b91906149a2565b611cbc565b808061096b90614d97565b915050610874565b50505050505050565b600a60009054906101000a900473ffffffffffffffffffffffffffffffffffffffff1681565b60075481565b60085481565b600160009054906101000a900473ffffffffffffffffffffffffffffffffffffffff1681565b6000600a60009054906101000a900473ffffffffffffffffffffffffffffffffffffffff1673ffffffffffffffffffffffffffffffffffffffff163373ffffffffffffffffffffffffffffffffffffffff1614610b1a57600160009054906101000a900473ffffffffffffffffffffffffffffffffffffffff1673ffffffffffffffffffffffffffffffffffffffff16639dc29fac33846040518363ffffffff1660e01b8152600401610a88929190614552565b602060405180830381600087803b158015610aa257600080fd5b505af1158015610ab6573d6000803e3d6000fd5b505050506040513d601f19601f82011682018060405250810190610ada9190613b65565b610b19576040517f08c379a0000000000000000000000000000000000000000000000000000000008152600401610b10906146d7565b60405180910390fd5b5b610b4733600460009054906101000a900473ffffffffffffffffffffffffffffffffffffffff1684611d7a565b9050919050565b610b583382612062565b50565b600a60009054906101000a900473ffffffffffffffffffffffffffffffffffffffff1673ffffffffffffffffffffffffffffffffffffffff163373ffffffffffffffffffffffffffffffffffffffff1614610bb557600080fd5b806006819055507f6641a0d0a317e54d1b956ab0202883db13ef06b75584a6a017b1b3c796f990fa604051610be9906148b7565b60405180910390a150565b610bfc61220e565b610cd2600460009054906101000a900473ffffffffffffffffffffffffffffffffffffffff16600060029054906101000a900473ffffffffffffffffffffffffffffffffffffffff1673ffffffffffffffffffffffffffffffffffffffff166370a08231306040518263ffffffff1660e01b8152600401610c7d9190614468565b60206040518083038186803b158015610c9557600080fd5b505afa158015610ca9573d6000803e3d6000fd5b505050506040513d601f19601f82011682018060405250810190610ccd9190613d67565b6122f3565b565b6000610cde6124f7565b905090565b610d13600060029054906101000a900473ffffffffffffffffffffffffffffffffffffffff168686868686612501565b610d1c8561138d565b5050505050565b60095481565b600060029054906101000a900473ffffffffffffffffffffffffffffffffffffffff1681565b600c60009054906101000a900473ffffffffffffffffffffffffffffffffffffffff1681565b600a60009054906101000a900473ffffffffffffffffffffffffffffffffffffffff1673ffffffffffffffffffffffffffffffffffffffff163373ffffffffffffffffffffffffffffffffffffffff1614610dcf57600080fd5b806005819055507f6641a0d0a317e54d1b956ab0202883db13ef06b75584a6a017b1b3c796f990fa604051610e0390614857565b60405180910390a150565b6000610e1982612580565b9050919050565b60065481565b600a60009054906101000a900473ffffffffffffffffffffffffffffffffffffffff1673ffffffffffffffffffffffffffffffffffffffff163373ffffffffffffffffffffffffffffffffffffffff1614610e8057600080fd5b610e898161258a565b50565b600360009054906101000a900473ffffffffffffffffffffffffffffffffffffffff1681565b600a60009054906101000a900473ffffffffffffffffffffffffffffffffffffffff1673ffffffffffffffffffffffffffffffffffffffff163373ffffffffffffffffffffffffffffffffffffffff1614610f0c57600080fd5b610f1682826122f3565b5050565b600a60009054906101000a900473ffffffffffffffffffffffffffffffffffffffff1673ffffffffffffffffffffffffffffffffffffffff163373ffffffffffffffffffffffffffffffffffffffff1614610f7457600080fd5b80600060026101000a81548173ffffffffffffffffffffffffffffffffffffffff021916908373ffffffffffffffffffffffffffffffffffffffff1602179055507f6641a0d0a317e54d1b956ab0202883db13ef06b75584a6a017b1b3c796f990fa604051610fe2906147f7565b60405180910390a150565b6000600a60009054906101000a900473ffffffffffffffffffffffffffffffffffffffff1673ffffffffffffffffffffffffffffffffffffffff163373ffffffffffffffffffffffffffffffffffffffff161461104957600080fd5b6000600260009054906101000a900473ffffffffffffffffffffffffffffffffffffffff1673ffffffffffffffffffffffffffffffffffffffff166304d3b7c46040518163ffffffff1660e01b815260040160206040518083038186803b1580156110b357600080fd5b505afa1580156110c7573d6000803e3d6000fd5b505050506040513d601f19601f820116820180604052508101906110eb9190613d67565b14156110fa5760009050611318565b6008549050600160009054906101000a900473ffffffffffffffffffffffffffffffffffffffff1673ffffffffffffffffffffffffffffffffffffffff166340c10f1930836040518363ffffffff1660e01b815260040161115c929190614552565b602060405180830381600087803b15801561117657600080fd5b505af115801561118a573d6000803e3d6000fd5b505050506040513d601f19601f820116820180604052508101906111ae9190613b65565b506111b7612603565b50600160009054906101000a900473ffffffffffffffffffffffffffffffffffffffff1673ffffffffffffffffffffffffffffffffffffffff1663095ea7b3600260009054906101000a900473ffffffffffffffffffffffffffffffffffffffff16836040518363ffffffff1660e01b8152600401611237929190614552565b602060405180830381600087803b15801561125157600080fd5b505af1158015611265573d6000803e3d6000fd5b505050506040513d601f19601f820116820180604052508101906112899190613b65565b50600260009054906101000a900473ffffffffffffffffffffffffffffffffffffffff1673ffffffffffffffffffffffffffffffffffffffff1663beceed39826040518263ffffffff1660e01b81526004016112e59190614935565b600060405180830381600087803b1580156112ff57600080fd5b505af1158015611313573d6000803e3d6000fd5b505050505b90565b60055481565b600a60009054906101000a900473ffffffffffffffffffffffffffffffffffffffff1673ffffffffffffffffffffffffffffffffffffffff163373ffffffffffffffffffffffffffffffffffffffff161461137b57600080fd5b61138784848484611cbc565b50505050565b600081116113d0576040517f08c379a00000000000000000000000000000000000000000000000000000000081526004016113c790614877565b60405180910390fd5b60006113db82612580565b9050600160009054906101000a900473ffffffffffffffffffffffffffffffffffffffff1673ffffffffffffffffffffffffffffffffffffffff166340c10f1933836040518363ffffffff1660e01b815260040161143a929190614552565b602060405180830381600087803b15801561145457600080fd5b505af1158015611468573d6000803e3d6000fd5b505050506040513d601f19601f8201168201806040525081019061148c9190613b65565b6114cb576040517f08c379a00000000000000000000000000000000000000000000000000000000081526004016114c290614757565b60405180910390fd5b600060029054906101000a900473ffffffffffffffffffffffffffffffffffffffff1673ffffffffffffffffffffffffffffffffffffffff166323b872dd3330856040518463ffffffff1660e01b815260040161152a939291906144ac565b602060405180830381600087803b15801561154457600080fd5b505af1158015611558573d6000803e3d6000fd5b505050506040513d601f19601f8201168201806040525081019061157c9190613b65565b6115bb576040517f08c379a00000000000000000000000000000000000000000000000000000000081526004016115b290614717565b60405180910390fd5b6115c5338361266a565b5050565b600a60009054906101000a900473ffffffffffffffffffffffffffffffffffffffff1673ffffffffffffffffffffffffffffffffffffffff163373ffffffffffffffffffffffffffffffffffffffff161461162357600080fd5b80600c60006101000a81548173ffffffffffffffffffffffffffffffffffffffff021916908373ffffffffffffffffffffffffffffffffffffffff160217905550600c60009054906101000a900473ffffffffffffffffffffffffffffffffffffffff1673ffffffffffffffffffffffffffffffffffffffff16634aa4a4fc6040518163ffffffff1660e01b8152600401602060405180830381600087803b1580156116ce57600080fd5b505af11580156116e2573d6000803e3d6000fd5b505050506040513d601f19601f820116820180604052508101906117069190613967565b600b60006101000a81548173ffffffffffffffffffffffffffffffffffffffff021916908373ffffffffffffffffffffffffffffffffffffffff16021790555050565b600a60009054906101000a900473ffffffffffffffffffffffffffffffffffffffff1673ffffffffffffffffffffffffffffffffffffffff163373ffffffffffffffffffffffffffffffffffffffff16146117a357600080fd5b80600460006101000a81548173ffffffffffffffffffffffffffffffffffffffff021916908373ffffffffffffffffffffffffffffffffffffffff1602179055507f6641a0d0a317e54d1b956ab0202883db13ef06b75584a6a017b1b3c796f990fa60405161181190614837565b60405180910390a150565b60008673ffffffffffffffffffffffffffffffffffffffff1663dd62ed3e33306040518363ffffffff1660e01b8152600401611859929190614483565b60206040518083038186803b15801561187157600080fd5b505afa158015611885573d6000803e3d6000fd5b505050506040513d601f19601f820116820180604052508101906118a99190613d67565b9050858110156118cd576118cc8782886118c39190614b1d565b87878787612501565b5b50505050505050565b6000600a60009054906101000a900473ffffffffffffffffffffffffffffffffffffffff1673ffffffffffffffffffffffffffffffffffffffff163373ffffffffffffffffffffffffffffffffffffffff161461193257600080fd5b600160009054906101000a900473ffffffffffffffffffffffffffffffffffffffff1673ffffffffffffffffffffffffffffffffffffffff166340c10f19600a60009054906101000a900473ffffffffffffffffffffffffffffffffffffffff166007546040518363ffffffff1660e01b81526004016119b3929190614552565b602060405180830381600087803b1580156119cd57600080fd5b505af11580156119e1573d6000803e3d6000fd5b505050506040513d601f19601f82011682018060405250810190611a059190613b65565b50611a0e6126d5565b905090565b600a60009054906101000a900473ffffffffffffffffffffffffffffffffffffffff1673ffffffffffffffffffffffffffffffffffffffff163373ffffffffffffffffffffffffffffffffffffffff1614611a6d57600080fd5b80600a60006101000a81548173ffffffffffffffffffffffffffffffffffffffff021916908373ffffffffffffffffffffffffffffffffffffffff1602179055507f6641a0d0a317e54d1b956ab0202883db13ef06b75584a6a017b1b3c796f990fa604051611adb90614817565b60405180910390a150565b600460009054906101000a900473ffffffffffffffffffffffffffffffffffffffff1681565b611b608a8a8a8080601f016020809104026020016040519081016040528093929190818152602001838380828437600081840152601f19601f8201169050808301925050505050505088888888888861273c565b86600d60006101000a81548173ffffffffffffffffffffffffffffffffffffffff021916908373ffffffffffffffffffffffffffffffffffffffff16021790555050505050505050505050565b611bbb868686868686612501565b505050505050565b600260009054906101000a900473ffffffffffffffffffffffffffffffffffffffff1681565b600a60009054906101000a900473ffffffffffffffffffffffffffffffffffffffff1673ffffffffffffffffffffffffffffffffffffffff163373ffffffffffffffffffffffffffffffffffffffff1614611c4357600080fd5b80600260006101000a81548173ffffffffffffffffffffffffffffffffffffffff021916908373ffffffffffffffffffffffffffffffffffffffff1602179055507f6641a0d0a317e54d1b956ab0202883db13ef06b75584a6a017b1b3c796f990fa604051611cb190614897565b60405180910390a150565b6000808573ffffffffffffffffffffffffffffffffffffffff16858585604051611ce79291906143b9565b60006040518083038185875af1925050503d8060008114611d24576040519150601f19603f3d011682016040523d82523d6000602084013e611d29565b606091505b5091509150818190611d71576040517f08c379a0000000000000000000000000000000000000000000000000000000008152600401611d689190614670565b60405180910390fd5b50505050505050565b600080829050600a60009054906101000a900473ffffffffffffffffffffffffffffffffffffffff1673ffffffffffffffffffffffffffffffffffffffff168573ffffffffffffffffffffffffffffffffffffffff1614611e195760008111611e18576040517f08c379a0000000000000000000000000000000000000000000000000000000008152600401611e0f90614877565b60405180910390fd5b5b6000811415611f3557600d60009054906101000a900473ffffffffffffffffffffffffffffffffffffffff1673ffffffffffffffffffffffffffffffffffffffff16639d0b2c7a307fffffffffffffffffffffffffffffffffffffffffffffffffffffffffffffffff6040518363ffffffff1660e01b8152600401611e9f929190614552565b60206040518083038186803b158015611eb757600080fd5b505afa158015611ecb573d6000803e3d6000fd5b505050506040513d601f19601f82011682018060405250810190611eef9190613d67565b905060008111611f34576040517f08c379a0000000000000000000000000000000000000000000000000000000008152600401611f2b906146f7565b60405180910390fd5b5b8060096000828254611f479190614b1d565b92505081905550600d60009054906101000a900473ffffffffffffffffffffffffffffffffffffffff1673ffffffffffffffffffffffffffffffffffffffff166327de9e32826040518263ffffffff1660e01b8152600401611fa99190614935565b600060405180830381600087803b158015611fc357600080fd5b505af1158015611fd7573d6000803e3d6000fd5b50505050611ff18582600e612cf79092919063ffffffff16565b91508373ffffffffffffffffffffffffffffffffffffffff168573ffffffffffffffffffffffffffffffffffffffff167f18edd09e80386cd99df397e2e0d87d2bb259423eae08645e776321a36fe680ef8385604051612052929190614979565b60405180910390a3509392505050565b600061207a8383600e612db09092919063ffffffff16565b9050600d60009054906101000a900473ffffffffffffffffffffffffffffffffffffffff1673ffffffffffffffffffffffffffffffffffffffff166325d5971f836040518263ffffffff1660e01b81526004016120d79190614935565b600060405180830381600087803b1580156120f157600080fd5b505af1158015612105573d6000803e3d6000fd5b50505050600060029054906101000a900473ffffffffffffffffffffffffffffffffffffffff1673ffffffffffffffffffffffffffffffffffffffff1663a9059cbb84836040518363ffffffff1660e01b8152600401612166929190614552565b602060405180830381600087803b15801561218057600080fd5b505af1158015612194573d6000803e3d6000fd5b505050506040513d601f19601f820116820180604052508101906121b89190613b65565b508273ffffffffffffffffffffffffffffffffffffffff167ff279e6a1f5e320cca91135676d9cb6e44ca8a08c0b88342bcdb1144f6511b5688284604051612201929190614979565b60405180910390a2505050565b612216612eb8565b6000600d60009054906101000a900473ffffffffffffffffffffffffffffffffffffffff1673ffffffffffffffffffffffffffffffffffffffff16639d0b2c7a307fffffffffffffffffffffffffffffffffffffffffffffffffffffffffffffffff6040518363ffffffff1660e01b8152600401612295929190614552565b60206040518083038186803b1580156122ad57600080fd5b505afa1580156122c1573d6000803e3d6000fd5b505050506040513d601f19601f820116820180604052508101906122e59190613d67565b90506122f08161335e565b50565b6000819050600081141561230757506124f3565b600073ffffffffffffffffffffffffffffffffffffffff168373ffffffffffffffffffffffffffffffffffffffff16141561234257506124f3565b600060029054906101000a900473ffffffffffffffffffffffffffffffffffffffff1673ffffffffffffffffffffffffffffffffffffffff1663095ea7b3600d60009054906101000a900473ffffffffffffffffffffffffffffffffffffffff16836040518363ffffffff1660e01b81526004016123c1929190614552565b602060405180830381600087803b1580156123db57600080fd5b505af11580156123ef573d6000803e3d6000fd5b505050506040513d601f19601f820116820180604052508101906124139190613b65565b50600d60009054906101000a900473ffffffffffffffffffffffffffffffffffffffff1673ffffffffffffffffffffffffffffffffffffffff1663b78d27dc82856040518363ffffffff1660e01b8152600401612471929190614950565b600060405180830381600087803b15801561248b57600080fd5b505af115801561249f573d6000803e3d6000fd5b505050508273ffffffffffffffffffffffffffffffffffffffff167febedb8b3c678666e7f36970bc8f57abf6d8fa2e828c0da91ea5b75bf68ed101a826040516124e99190614935565b60405180910390a2505b5050565b6000600954905090565b8573ffffffffffffffffffffffffffffffffffffffff1663d505accf333088888888886040518863ffffffff1660e01b815260040161254697969594939291906144e3565b600060405180830381600087803b15801561256057600080fd5b505af1158015612574573d6000803e3d6000fd5b50505050505050505050565b6000819050919050565b80600d60006101000a81548173ffffffffffffffffffffffffffffffffffffffff021916908373ffffffffffffffffffffffffffffffffffffffff1602179055507f6641a0d0a317e54d1b956ab0202883db13ef06b75584a6a017b1b3c796f990fa6040516125f890614737565b60405180910390a150565b6000806008549050600060088190555080600960008282546126259190614a3c565b925050819055507f1d8f4bab53e84801fc35b88b53df72a998fa29c92e6fc65d412c4677d0d88c628160405161265b9190614935565b60405180910390a18091505090565b806009600082825461267c9190614a3c565b925050819055508173ffffffffffffffffffffffffffffffffffffffff167fe1fffcc4923d04b559f4d29a8bfc6cda04eb5b0d3c460751c2402c5c5cc9109c826040516126c99190614935565b60405180910390a25050565b6000806007549050600060078190555080600960008282546126f79190614a3c565b925050819055507f414d7d8eae12f648156e75499fc0a5a10aa84f2745c6f791b0453cb17f1e17fa8160405161272d9190614935565b60405180910390a18091505090565b600060019054906101000a900460ff1680612762575060008054906101000a900460ff16155b6127a1576040517f08c379a0000000000000000000000000000000000000000000000000000000008152600401612798906147d7565b60405180910390fd5b60008060019054906101000a900460ff1615905080156127f1576001600060016101000a81548160ff02191690831515021790555060016000806101000a81548160ff0219169083151502179055505b88600060026101000a81548173ffffffffffffffffffffffffffffffffffffffff021916908373ffffffffffffffffffffffffffffffffffffffff16021790555086600460006101000a81548173ffffffffffffffffffffffffffffffffffffffff021916908373ffffffffffffffffffffffffffffffffffffffff160217905550856005819055508460068190555033600a60006101000a81548173ffffffffffffffffffffffffffffffffffffffff021916908373ffffffffffffffffffffffffffffffffffffffff16021790555060006128cd8561357d565b90506000896040516020016128e29190614446565b60405160208183030381529060405290508173ffffffffffffffffffffffffffffffffffffffff1663077f224a8b8c306040518463ffffffff1660e01b815260040161293093929190614692565b602060405180830381600087803b15801561294a57600080fd5b505af115801561295e573d6000803e3d6000fd5b505050506040513d601f19601f820116820180604052508101906129829190613b65565b6129c1576040517f08c379a00000000000000000000000000000000000000000000000000000000081526004016129b8906148d7565b60405180910390fd5b81600160006101000a81548173ffffffffffffffffffffffffffffffffffffffff021916908373ffffffffffffffffffffffffffffffffffffffff1602179055508373ffffffffffffffffffffffffffffffffffffffff1663a574175660405180608001604052808573ffffffffffffffffffffffffffffffffffffffff1681526020018e73ffffffffffffffffffffffffffffffffffffffff168152602001848e604051602001612a749291906143d2565b6040516020818303038152906040528152602001848e604051602001612a9b92919061440c565b6040516020818303038152906040528152506040518263ffffffff1660e01b8152600401612ac991906148f7565b602060405180830381600087803b158015612ae357600080fd5b505af1158015612af7573d6000803e3d6000fd5b505050506040513d601f19601f82011682018060405250810190612b1b9190613cec565b600360006101000a81548173ffffffffffffffffffffffffffffffffffffffff021916908373ffffffffffffffffffffffffffffffffffffffff1602179055508473ffffffffffffffffffffffffffffffffffffffff1663d9181cd3600360009054906101000a900473ffffffffffffffffffffffffffffffffffffffff1673ffffffffffffffffffffffffffffffffffffffff16635fcbd2856040518163ffffffff1660e01b815260040160206040518083038186803b158015612bdf57600080fd5b505afa158015612bf3573d6000803e3d6000fd5b505050506040513d601f19601f82011682018060405250810190612c179190613d15565b84306040518463ffffffff1660e01b8152600401612c3793929190614596565b602060405180830381600087803b158015612c5157600080fd5b505af1158015612c65573d6000803e3d6000fd5b505050506040513d601f19601f82011682018060405250810190612c899190613cc3565b600260006101000a81548173ffffffffffffffffffffffffffffffffffffffff021916908373ffffffffffffffffffffffffffffffffffffffff16021790555050508015612cec5760008060016101000a81548160ff0219169083151502179055505b505050505050505050565b600083600101549050600181612d0d9190614a3c565b846001018190555060405180604001604052808381526020018473ffffffffffffffffffffffffffffffffffffffff168152508460000160008381526020019081526020016000206000820151816000015560208201518160010160006101000a81548173ffffffffffffffffffffffffffffffffffffffff021916908373ffffffffffffffffffffffffffffffffffffffff1602179055509050509392505050565b600080846000016000848152602001908152602001600020905060008160010160009054906101000a900473ffffffffffffffffffffffffffffffffffffffff169050816000015492508473ffffffffffffffffffffffffffffffffffffffff168173ffffffffffffffffffffffffffffffffffffffff1614612e68576040517f08c379a0000000000000000000000000000000000000000000000000000000008152600401612e5f90614777565b60405180910390fd5b8560000160008581526020019081526020016000206000808201600090556001820160006101000a81549073ffffffffffffffffffffffffffffffffffffffff0219169055505050509392505050565b6000600d60009054906101000a900473ffffffffffffffffffffffffffffffffffffffff1673ffffffffffffffffffffffffffffffffffffffff1663f595f1cc307fffffffffffffffffffffffffffffffffffffffffffffffffffffffffffffffff6040518363ffffffff1660e01b8152600401612f37929190614552565b60206040518083038186803b158015612f4f57600080fd5b505afa158015612f63573d6000803e3d6000fd5b505050506040513d601f19601f82011682018060405250810190612f879190613d67565b90506001811061335b57600d60009054906101000a900473ffffffffffffffffffffffffffffffffffffffff1673ffffffffffffffffffffffffffffffffffffffff1663476343ee6040518163ffffffff1660e01b8152600401600060405180830381600087803b158015612ffb57600080fd5b505af115801561300f573d6000803e3d6000fd5b505050506000479050600b60009054906101000a900473ffffffffffffffffffffffffffffffffffffffff1673ffffffffffffffffffffffffffffffffffffffff1663d0e30db0826040518263ffffffff1660e01b81526004016000604051808303818588803b15801561308257600080fd5b505af1158015613096573d6000803e3d6000fd5b5050505050600b60009054906101000a900473ffffffffffffffffffffffffffffffffffffffff1673ffffffffffffffffffffffffffffffffffffffff1663095ea7b3600c60009054906101000a900473ffffffffffffffffffffffffffffffffffffffff16836040518363ffffffff1660e01b815260040161311a929190614552565b602060405180830381600087803b15801561313457600080fd5b505af1158015613148573d6000803e3d6000fd5b505050506040513d601f19601f8201168201806040525081019061316c9190613b65565b50600073ffffffffffffffffffffffffffffffffffffffff16600c60009054906101000a900473ffffffffffffffffffffffffffffffffffffffff1673ffffffffffffffffffffffffffffffffffffffff1614613359576000604051806101000160405280600b60009054906101000a900473ffffffffffffffffffffffffffffffffffffffff1673ffffffffffffffffffffffffffffffffffffffff168152602001600060029054906101000a900473ffffffffffffffffffffffffffffffffffffffff1673ffffffffffffffffffffffffffffffffffffffff16815260200161271062ffffff1681526020013073ffffffffffffffffffffffffffffffffffffffff16815260200142815260200183815260200160008152602001600073ffffffffffffffffffffffffffffffffffffffff168152509050600c60009054906101000a900473ffffffffffffffffffffffffffffffffffffffff1673ffffffffffffffffffffffffffffffffffffffff1663414bf389826040518263ffffffff1660e01b81526004016133019190614919565b602060405180830381600087803b15801561331b57600080fd5b505af192505050801561334c57506040513d601f19601f820116820180604052508101906133499190613d67565b60015b61335557613357565b505b505b505b50565b60006009549050600061341a600060029054906101000a900473ffffffffffffffffffffffffffffffffffffffff1673ffffffffffffffffffffffffffffffffffffffff166370a08231306040518263ffffffff1660e01b81526004016133c59190614468565b60206040518083038186803b1580156133dd57600080fd5b505afa1580156133f1573d6000803e3d6000fd5b505050506040513d601f19601f820116820180604052508101906134159190613d67565b612580565b9050600060085460075483866134309190614a3c565b61343a9190614b1d565b6134449190614b1d565b90508281116134ab57806009819055507f78c13bf6a7fae25f1085d594e546d7a97cb66a55bc9733c7ea78236c452663ec81846134819190614b1d565b61348a90614de0565b828560405161349b93929190614639565b60405180910390a150505061357a565b600083826134b99190614b1d565b905060006134c982600554613652565b905080600760008282546134dd9190614a3c565b9250508190555060006134f283600654613652565b905080600860008282546135069190614a3c565b9250508190555080828561351a9190614b1d565b6135249190614b1d565b9350836009819055507f78c13bf6a7fae25f1085d594e546d7a97cb66a55bc9733c7ea78236c452663ec868561355a9190614b1d565b858860405161356b93929190614639565b60405180910390a15050505050505b50565b60006040517f3d602d80600a3d3981f3363d3d373d3d3d363d7300000000000000000000000081528260601b60148201527f5af43d82803e903d91602b57fd5bf3000000000000000000000000000000000060288201526037816000f0915050600073ffffffffffffffffffffffffffffffffffffffff168173ffffffffffffffffffffffffffffffffffffffff16141561364d576040517f08c379a000000000000000000000000000000000000000000000000000000000815260040161364490614797565b60405180910390fd5b919050565b6000683635c9adc5dea00000828461366a9190614ac3565b6136749190614a92565b905092915050565b60008135905061368b8161521b565b92915050565b6000815190506136a08161521b565b92915050565b60008083601f8401126136b857600080fd5b8235905067ffffffffffffffff8111156136d157600080fd5b6020830191508360208202830111156136e957600080fd5b9250929050565b60008083601f84011261370257600080fd5b8235905067ffffffffffffffff81111561371b57600080fd5b60208301915083602082028301111561373357600080fd5b9250929050565b60008083601f84011261374c57600080fd5b8235905067ffffffffffffffff81111561376557600080fd5b60208301915083602082028301111561377d57600080fd5b9250929050565b60008151905061379381615232565b92915050565b6000813590506137a881615249565b92915050565b60008083601f8401126137c057600080fd5b8235905067ffffffffffffffff8111156137d957600080fd5b6020830191508360018202830111156137f157600080fd5b9250929050565b60008135905061380781615260565b92915050565b60008135905061381c81615277565b92915050565b6000813590506138318161528e565b92915050565b6000815190506138468161528e565b92915050565b60008135905061385b816152a5565b92915050565b600081519050613870816152bc565b92915050565b600081359050613885816152d3565b92915050565b60008151905061389a816152ea565b92915050565b6000813590506138af81615301565b92915050565b60008083601f8401126138c757600080fd5b8235905067ffffffffffffffff8111156138e057600080fd5b6020830191508360018202830111156138f857600080fd5b9250929050565b60008135905061390e81615318565b92915050565b60008151905061392381615318565b92915050565b6000813590506139388161532f565b92915050565b60006020828403121561395057600080fd5b600061395e8482850161367c565b91505092915050565b60006020828403121561397957600080fd5b600061398784828501613691565b91505092915050565b600080604083850312156139a357600080fd5b60006139b18582860161367c565b92505060206139c2858286016138ff565b9150509250929050565b600080600080606085870312156139e257600080fd5b60006139f08782880161367c565b9450506020613a01878288016138ff565b935050604085013567ffffffffffffffff811115613a1e57600080fd5b613a2a878288016137ae565b925092505092959194509250565b60008060008060008060c08789031215613a5157600080fd5b6000613a5f89828a0161367c565b9650506020613a7089828a016138ff565b9550506040613a8189828a016138ff565b9450506060613a9289828a01613929565b9350506080613aa389828a01613799565b92505060a0613ab489828a01613799565b9150509295509295509295565b60008060008060008060608789031215613ada57600080fd5b600087013567ffffffffffffffff811115613af457600080fd5b613b0089828a016136a6565b9650965050602087013567ffffffffffffffff811115613b1f57600080fd5b613b2b89828a0161373a565b9450945050604087013567ffffffffffffffff811115613b4a57600080fd5b613b5689828a016136f0565b92509250509295509295509295565b600060208284031215613b7757600080fd5b6000613b8584828501613784565b91505092915050565b600060208284031215613ba057600080fd5b6000613bae848285016137f8565b91505092915050565b6000806000806000806000806000806101208b8d031215613bd757600080fd5b6000613be58d828e016137f8565b9a505060208b013567ffffffffffffffff811115613c0257600080fd5b613c0e8d828e016138b5565b99509950506040613c218d828e0161380d565b9750506060613c328d828e0161367c565b9650506080613c438d828e016138ff565b95505060a0613c548d828e016138ff565b94505060c0613c658d828e01613876565b93505060e0613c768d828e016138a0565b925050610100613c888d828e0161384c565b9150509295989b9194979a5092959850565b600060208284031215613cac57600080fd5b6000613cba84828501613822565b91505092915050565b600060208284031215613cd557600080fd5b6000613ce384828501613837565b91505092915050565b600060208284031215613cfe57600080fd5b6000613d0c84828501613861565b91505092915050565b600060208284031215613d2757600080fd5b6000613d358482850161388b565b91505092915050565b600060208284031215613d5057600080fd5b6000613d5e848285016138ff565b91505092915050565b600060208284031215613d7957600080fd5b6000613d8784828501613914565b91505092915050565b600080600080600060a08688031215613da857600080fd5b6000613db6888289016138ff565b9550506020613dc7888289016138ff565b9450506040613dd888828901613929565b9350506060613de988828901613799565b9250506080613dfa88828901613799565b9150509295509295909350565b613e1081614b51565b82525050565b613e1f81614b51565b82525050565b613e2e81614b6f565b82525050565b6000613e408385614a04565b9350613e4d838584614d55565b82840190509392505050565b613e6281614c59565b82525050565b613e7181614c59565b82525050565b613e8081614c7d565b82525050565b613e8f81614ca1565b82525050565b613e9e81614cc5565b82525050565b613ead81614ce9565b82525050565b613ebc81614d0d565b82525050565b613ecb81614d31565b82525050565b613eda81614c09565b82525050565b6000613eeb826149f9565b613ef58185614a0f565b9350613f05818560208601614d64565b613f0e81614e87565b840191505092915050565b6000613f24826149f9565b613f2e8185614a20565b9350613f3e818560208601614d64565b613f4781614e87565b840191505092915050565b6000613f5d826149f9565b613f678185614a31565b9350613f77818560208601614d64565b80840191505092915050565b6000613f90601283614a20565b9150613f9b82614e98565b602082019050919050565b6000613fb3600a83614a20565b9150613fbe82614ec1565b602082019050919050565b6000613fd6600b83614a31565b9150613fe182614eea565b600b82019050919050565b6000613ff9601983614a20565b915061400482614f13565b602082019050919050565b600061401c601083614a20565b915061402782614f3c565b602082019050919050565b600061403f601283614a20565b915061404a82614f65565b602082019050919050565b6000614062601183614a20565b915061406d82614f8e565b602082019050919050565b6000614085601683614a20565b915061409082614fb7565b602082019050919050565b60006140a8601183614a20565b91506140b382614fe0565b602082019050919050565b60006140cb602e83614a20565b91506140d682615009565b604082019050919050565b60006140ee600583614a20565b91506140f982615058565b602082019050919050565b6000614111600383614a20565b915061411c82615081565b602082019050919050565b6000614134600483614a20565b915061413f826150aa565b602082019050919050565b6000614157600c83614a20565b9150614162826150d3565b602082019050919050565b600061417a600b83614a20565b9150614185826150fc565b602082019050919050565b600061419d600583614a31565b91506141a882615125565b600582019050919050565b60006141c0600183614a31565b91506141cb8261514e565b600182019050919050565b60006141e3600183614a31565b91506141ee82615177565b600182019050919050565b6000614206600a83614a20565b9150614211826151a0565b602082019050919050565b6000614229600d83614a20565b9150614234826151c9565b602082019050919050565b600061424c601583614a20565b9150614257826151f2565b602082019050919050565b600060808301600083015161427a6000860182613e59565b50602083015161428d6020860182613e59565b50604083015184820360408601526142a58282613ee0565b915050606083015184820360608601526142bf8282613ee0565b9150508091505092915050565b610100820160008201516142e36000850182613e07565b5060208201516142f66020850182613e07565b506040820151614309604085018261437d565b50606082015161431c6060850182613e07565b50608082015161432f608085018261438c565b5060a082015161434260a085018261438c565b5060c082015161435560c085018261438c565b5060e082015161436860e085018261436e565b50505050565b61437781614c13565b82525050565b61438681614c33565b82525050565b61439581614c42565b82525050565b6143a481614c42565b82525050565b6143b381614c4c565b82525050565b60006143c6828486613e34565b91508190509392505050565b60006143de8285613f52565b91506143e9826141d6565b91506143f58284613f52565b915061440082613fc9565b91508190509392505050565b60006144188285613f52565b9150614423826141d6565b915061442f8284613f52565b915061443a82614190565b91508190509392505050565b6000614451826141b3565b915061445d8284613f52565b915081905092915050565b600060208201905061447d6000830184613e16565b92915050565b60006040820190506144986000830185613e16565b6144a56020830184613e16565b9392505050565b60006060820190506144c16000830186613e16565b6144ce6020830185613e16565b6144db604083018461439b565b949350505050565b600060e0820190506144f8600083018a613e16565b6145056020830189613e16565b614512604083018861439b565b61451f606083018761439b565b61452c60808301866143aa565b61453960a0830185613e25565b61454660c0830184613e25565b98975050505050505050565b60006040820190506145676000830185613e16565b614574602083018461439b565b9392505050565b60006020820190506145906000830184613e68565b92915050565b60006060820190506145ab6000830186613e68565b6145b86020830185613ea4565b6145c56040830184613eb3565b949350505050565b60006020820190506145e26000830184613e77565b92915050565b60006020820190506145fd6000830184613e86565b92915050565b60006020820190506146186000830184613e95565b92915050565b60006020820190506146336000830184613ea4565b92915050565b600060608201905061464e6000830186613ed1565b61465b602083018561439b565b614668604083018461439b565b949350505050565b6000602082019050818103600083015261468a8184613f19565b905092915050565b600060608201905081810360008301526146ac8186613f19565b905081810360208301526146c08185613f19565b90506146cf6040830184613ec2565b949350505050565b600060208201905081810360008301526146f081613f83565b9050919050565b6000602082019050818103600083015261471081613fa6565b9050919050565b6000602082019050818103600083015261473081613fec565b9050919050565b600060208201905081810360008301526147508161400f565b9050919050565b6000602082019050818103600083015261477081614032565b9050919050565b6000602082019050818103600083015261479081614055565b9050919050565b600060208201905081810360008301526147b081614078565b9050919050565b600060208201905081810360008301526147d08161409b565b9050919050565b600060208201905081810360008301526147f0816140be565b9050919050565b60006020820190508181036000830152614810816140e1565b9050919050565b6000602082019050818103600083015261483081614104565b9050919050565b6000602082019050818103600083015261485081614127565b9050919050565b600060208201905081810360008301526148708161414a565b9050919050565b600060208201905081810360008301526148908161416d565b9050919050565b600060208201905081810360008301526148b0816141f9565b9050919050565b600060208201905081810360008301526148d08161421c565b9050919050565b600060208201905081810360008301526148f08161423f565b9050919050565b600060208201905081810360008301526149118184614262565b905092915050565b60006101008201905061492f60008301846142cc565b92915050565b600060208201905061494a600083018461439b565b92915050565b6000604082019050614965600083018561439b565b6149726020830184613e16565b9392505050565b600060408201905061498e600083018561439b565b61499b602083018461439b565b9392505050565b600080833560016020038436030381126149bb57600080fd5b80840192508235915067ffffffffffffffff8211156149d957600080fd5b6020830192506001820236038313156149f157600080fd5b509250929050565b600081519050919050565b600081905092915050565b600082825260208201905092915050565b600082825260208201905092915050565b600081905092915050565b6000614a4782614c42565b9150614a5283614c42565b9250827fffffffffffffffffffffffffffffffffffffffffffffffffffffffffffffffff03821115614a8757614a86614e29565b5b828201905092915050565b6000614a9d82614c42565b9150614aa883614c42565b925082614ab857614ab7614e58565b5b828204905092915050565b6000614ace82614c42565b9150614ad983614c42565b9250817fffffffffffffffffffffffffffffffffffffffffffffffffffffffffffffffff0483118215151615614b1257614b11614e29565b5b828202905092915050565b6000614b2882614c42565b9150614b3383614c42565b925082821015614b4657614b45614e29565b5b828203905092915050565b6000614b5c82614c13565b9050919050565b60008115159050919050565b6000819050919050565b6000614b8482614b51565b9050919050565b6000614b9682614b51565b9050919050565b6000614ba882614b51565b9050919050565b6000614bba82614b51565b9050919050565b6000614bcc82614b51565b9050919050565b6000614bde82614b51565b9050919050565b6000614bf082614b51565b9050919050565b6000614c0282614b51565b9050919050565b6000819050919050565b600073ffffffffffffffffffffffffffffffffffffffff82169050919050565b600062ffffff82169050919050565b6000819050919050565b600060ff82169050919050565b6000614c6482614c6b565b9050919050565b6000614c7682614c13565b9050919050565b6000614c8882614c8f565b9050919050565b6000614c9a82614c13565b9050919050565b6000614cac82614cb3565b9050919050565b6000614cbe82614c13565b9050919050565b6000614cd082614cd7565b9050919050565b6000614ce282614c13565b9050919050565b6000614cf482614cfb565b9050919050565b6000614d0682614c13565b9050919050565b6000614d1882614d1f565b9050919050565b6000614d2a82614c13565b9050919050565b6000614d3c82614d43565b9050919050565b6000614d4e82614c13565b9050919050565b82818337600083830152505050565b60005b83811015614d82578082015181840152602081019050614d67565b83811115614d91576000848401525b50505050565b6000614da282614c42565b91507fffffffffffffffffffffffffffffffffffffffffffffffffffffffffffffffff821415614dd557614dd4614e29565b5b600182019050919050565b6000614deb82614c09565b91507f8000000000000000000000000000000000000000000000000000000000000000821415614e1e57614e1d614e29565b5b816000039050919050565b7f4e487b7100000000000000000000000000000000000000000000000000000000600052601160045260246000fd5b7f4e487b7100000000000000000000000000000000000000000000000000000000600052601260045260246000fd5b6000601f19601f8301169050919050565b7f54454e4445525f4255524e5f4641494c45440000000000000000000000000000600082015250565b7f5a45524f5f5354414b4500000000000000000000000000000000000000000000600082015250565b7f205377617020546f6b656e000000000000000000000000000000000000000000600082015250565b7f535445414b5f5452414e5346455246524f4d5f4641494c454400000000000000600082015250565b7f5354414b494e475f434f4e545241435400000000000000000000000000000000600082015250565b7f54454e4445525f4d494e545f4641494c45440000000000000000000000000000600082015250565b7f4143434f554e545f4d4953544d41544348000000000000000000000000000000600082015250565b7f455243313136373a20637265617465206661696c656400000000000000000000600082015250565b7f494e56414c49445f415247554d454e5453000000000000000000000000000000600082015250565b7f496e697469616c697a61626c653a20636f6e747261637420697320616c72656160008201527f647920696e697469616c697a6564000000000000000000000000000000000000602082015250565b7f535445414b000000000000000000000000000000000000000000000000000000600082015250565b7f474f560000000000000000000000000000000000000000000000000000000000600082015250565b7f4e4f444500000000000000000000000000000000000000000000000000000000600082015250565b7f50524f544f434f4c5f4645450000000000000000000000000000000000000000600082015250565b7f5a45524f5f414d4f554e54000000000000000000000000000000000000000000600082015250565b7f2d53574150000000000000000000000000000000000000000000000000000000600082015250565b7f7400000000000000000000000000000000000000000000000000000000000000600082015250565b7f2d00000000000000000000000000000000000000000000000000000000000000600082015250565b7f54454e4445524641524d00000000000000000000000000000000000000000000600082015250565b7f4c49515549444954595f46454500000000000000000000000000000000000000600082015250565b7f4641494c5f494e49545f54454e444552544f4b454e0000000000000000000000600082015250565b61522481614b51565b811461522f57600080fd5b50565b61523b81614b63565b811461524657600080fd5b50565b61525281614b6f565b811461525d57600080fd5b50565b61526981614b79565b811461527457600080fd5b50565b61528081614b8b565b811461528b57600080fd5b50565b61529781614b9d565b81146152a257600080fd5b50565b6152ae81614baf565b81146152b957600080fd5b50565b6152c581614bc1565b81146152d057600080fd5b50565b6152dc81614bd3565b81146152e757600080fd5b50565b6152f381614be5565b81146152fe57600080fd5b50565b61530a81614bf7565b811461531557600080fd5b50565b61532181614c42565b811461532c57600080fd5b50565b61533881614c4c565b811461534357600080fd5b5056fea26469706673582212201a4c845467521114fdf9365bc42bbbff49992de126ba7ab6e71d61ad06e9f8f964736f6c63430008040033",
  "devdoc": {
    "kind": "dev",
    "methods": {
      "batchExecute(address[],uint256[],bytes[])": {
        "details": "Every target to its value, data via it's corresponding index.only callable by owner(gov).",
        "params": {
          "_datas": "array of call datas - check ethers.interface.encodeFunctionData()",
          "_targets": "array of target addresses for the contract call",
          "_values": "array of ether values to be transeffered with the transactions"
        }
      },
      "calcDepositOut(uint256)": {
        "details": "used by controller to calculate tokens to be minted before depositing.to be used when there a delegation tax is deducted, for eg. in Graph.",
        "returns": {
          "_0": "number of tokens staked for `amountIn`."
        }
      },
      "collectFees()": {
        "details": "Resets pendingFees.Fees claimed are added to total staked.",
        "returns": {
          "_0": "Amount of protocol fees collected"
        }
      },
      "collectLiquidityFees()": {
        "details": "Resets pendingFees.Fees claimed are added to total staked.",
        "returns": {
          "amount": "Amount of liquidity fees collected"
        }
      },
      "deposit(uint256)": {
        "details": "doesn't actually stakes the tokens but aggregates the balance in the tenderizer awaiting to be staked.requires '_amount' to be approved by '_from'.",
        "params": {
          "_amount": "amount deposited"
        }
      },
      "depositWithPermit(uint256,uint256,uint8,bytes32,bytes32)": {
        "details": "doesn't actually stakes the tokens but aggregates the balance in the tenderizer awaiting to be staked.requires '_amount' to be approved by '_from'.",
        "params": {
          "_amount": "amount deposited",
          "_deadline": "deadline for the permit",
          "_r": "from ECDSA signature",
          "_s": "from ECDSA signature",
          "_v": "from ECDSA signature"
        }
      },
      "execute(address,uint256,bytes)": {
        "details": "only callable by owner(gov).",
        "params": {
          "_data": "call data - check ethers.interface.encodeFunctionData()",
          "_target": "target address for the contract call",
          "_value": "ether value to be transeffered with the transaction"
        }
      },
      "selfPermit(address,uint256,uint256,uint8,bytes32,bytes32)": {
        "details": "The `owner` is always msg.sender and the `spender` is always address(this).",
        "params": {
          "_deadline": "A timestamp, the current blocktime must be less than or equal to this timestamp",
          "_r": "Must produce valid secp256k1 signature from the holder along with `v` and `s`",
          "_s": "Must produce valid secp256k1 signature from the holder along with `r` and `v`",
          "_token": "The address of the token spent",
          "_v": "Must produce valid secp256k1 signature from the holder along with `r` and `s`",
          "_value": "The amount that can be spent of token"
        }
      },
      "selfPermitIfNecessary(address,uint256,uint256,uint8,bytes32,bytes32)": {
        "details": "The `owner` is always msg.sender and the `spender` is always address(this). Can be used instead of #selfPermit to prevent calls from failing due to a frontrun of a call to #selfPermit",
        "params": {
          "_deadline": "A timestamp, the current blocktime must be less than or equal to this timestamp",
          "_r": "Must produce valid secp256k1 signature from the holder along with `v` and `s`",
          "_s": "Must produce valid secp256k1 signature from the holder along with `r` and `v`",
          "_token": "The address of the token spent",
          "_v": "Must produce valid secp256k1 signature from the holder along with `r` and `s`",
          "_value": "The amount that can be spent of token"
        }
      },
      "stake(address,uint256)": {
        "details": "If '_node' is not specified, stake towards the default address.If '_amount' is 0, stake the entire current token balance of the Tenderizer.Only callable by Gov.",
        "params": {
          "_amount": "amount to stake",
          "_node": "account to stake to in the underlying protocol"
        }
      },
      "totalStakedTokens()": {
        "returns": {
          "_0": "total amount staked by this Tenderizer"
        }
      },
      "unstake(uint256)": {
        "details": "unstake from the default address.If '_amount' is 0, unstake the entire amount staked towards _account.",
        "params": {
          "_amount": "amount to unstake"
        },
        "returns": {
          "_0": "unstake lockID generated for unstake"
        }
      },
      "withdraw(uint256)": {
        "details": "If '_amount' isn't specified all unstake tokens by '_account' will be withdrawn.Requires '_account' to have unstaked prior to calling withdraw.",
        "params": {
          "_unstakeLockID": "ID for the lock to request the withdraw for"
        }
      }
    },
    "version": 1
  },
  "userdoc": {
    "events": {
      "Deposit(address,uint256)": {
        "notice": "Deposit gets emitted when an accounts deposits underlying tokens."
      },
      "GovernanceUpdate(string)": {
        "notice": "GovernanceUpdate gets emitted when a parameter on the Tenderizer gets updated."
      },
      "LiquidityFeeCollected(uint256)": {
        "notice": "LiquidityFeeCollected gets emitted when liquidity provider fees are moved to the TenderFarm."
      },
      "ProtocolFeeCollected(uint256)": {
        "notice": "ProtocolFeeCollected gets emitted when the treasury claims its outstanding protocol fees."
      },
      "RewardsClaimed(int256,uint256,uint256)": {
        "notice": "RewardsClaimed gets emitted when the Tenderizer processes staking rewards (or slashing) from the underlying protocol."
      },
      "Stake(address,uint256)": {
        "notice": "Stake gets emitted when funds are staked/delegated from the Tenderizer contract into the underlying protocol."
      },
      "Unstake(address,address,uint256,uint256)": {
        "notice": "Unstake gets emitted when an account burns TenderTokens to unlock tokens staked through the Tenderizer"
      },
      "Withdraw(address,uint256,uint256)": {
        "notice": "Withdraw gets emitted when an account withdraws tokens that have been succesfully unstaked and thus unlocked for withdrawal."
      }
    },
    "kind": "user",
    "methods": {
      "batchExecute(address[],uint256[],bytes[])": {
        "notice": "Exectutes a batch of transaction on behalf of the controller."
      },
      "calcDepositOut(uint256)": {
        "notice": "Returns the number of tenderTokens to be minted for amountIn deposit."
      },
      "claimRewards()": {
        "notice": "Compound all the rewards and new deposits. Claim staking rewards and earned fees for the underlying protocol and stake any leftover token balance. Process Tender protocol fees if revenue is positive."
      },
      "collectFees()": {
        "notice": "Collect fees pulls any pending governance fees from the Tenderizer to the governance treasury."
      },
      "collectLiquidityFees()": {
        "notice": "Collect Liquidity fees pulls any pending LP fees from the Tenderizer to TenderFarm."
      },
      "deposit(uint256)": {
        "notice": "Deposit tokens in Tenderizer."
      },
      "depositWithPermit(uint256,uint256,uint8,bytes32,bytes32)": {
        "notice": "Deposit tokens in Tenderizer with permit."
      },
      "execute(address,uint256,bytes)": {
        "notice": "Exectutes a transaction on behalf of the controller."
      },
      "pendingFees()": {
        "notice": "Returns the amount of pending protocool fees since last claiming.."
      },
      "pendingLiquidityFees()": {
        "notice": "Returns the amount of pending liquidity provider fees since last claiming."
      },
      "selfPermit(address,uint256,uint256,uint8,bytes32,bytes32)": {
        "notice": "Permits this contract to spend a given token from `msg.sender`"
      },
      "selfPermitIfNecessary(address,uint256,uint256,uint8,bytes32,bytes32)": {
        "notice": "Permits this contract to spend a given token from `msg.sender`"
      },
      "stake(address,uint256)": {
        "notice": "Stake '_amount' of tokens to '_node'."
      },
      "totalStakedTokens()": {
        "notice": "Total Staked Tokens returns the total amount of underlying tokens staked by this Tenderizer."
      },
      "unstake(uint256)": {
        "notice": "Unstake '_amount' of tokens from '_account'."
      },
      "withdraw(uint256)": {
        "notice": "Withdraw '_amount' of tokens previously unstaked by '_account'."
      }
    },
    "version": 1
  },
  "storageLayout": {
    "storage": [
      {
        "astId": 1886,
        "contract": "contracts/tenderizer/integrations/livepeer/Livepeer.sol:Livepeer",
        "label": "_initialized",
        "offset": 0,
        "slot": "0",
        "type": "t_bool"
      },
      {
        "astId": 1889,
        "contract": "contracts/tenderizer/integrations/livepeer/Livepeer.sol:Livepeer",
        "label": "_initializing",
        "offset": 1,
        "slot": "0",
        "type": "t_bool"
      },
      {
        "astId": 2891,
        "contract": "contracts/tenderizer/integrations/livepeer/Livepeer.sol:Livepeer",
        "label": "steak",
        "offset": 2,
        "slot": "0",
        "type": "t_contract(IERC20)2004"
      },
      {
        "astId": 2894,
        "contract": "contracts/tenderizer/integrations/livepeer/Livepeer.sol:Livepeer",
        "label": "tenderToken",
        "offset": 0,
        "slot": "1",
        "type": "t_contract(ITenderToken)7388"
      },
      {
        "astId": 2897,
        "contract": "contracts/tenderizer/integrations/livepeer/Livepeer.sol:Livepeer",
        "label": "tenderFarm",
        "offset": 0,
        "slot": "2",
        "type": "t_contract(ITenderFarm)2571"
      },
      {
        "astId": 2900,
        "contract": "contracts/tenderizer/integrations/livepeer/Livepeer.sol:Livepeer",
        "label": "tenderSwap",
        "offset": 0,
        "slot": "3",
        "type": "t_contract(ITenderSwap)7003"
      },
      {
        "astId": 2902,
        "contract": "contracts/tenderizer/integrations/livepeer/Livepeer.sol:Livepeer",
        "label": "node",
        "offset": 0,
        "slot": "4",
        "type": "t_address"
      },
      {
        "astId": 2904,
        "contract": "contracts/tenderizer/integrations/livepeer/Livepeer.sol:Livepeer",
        "label": "protocolFee",
        "offset": 0,
        "slot": "5",
        "type": "t_uint256"
      },
      {
        "astId": 2906,
        "contract": "contracts/tenderizer/integrations/livepeer/Livepeer.sol:Livepeer",
        "label": "liquidityFee",
        "offset": 0,
        "slot": "6",
        "type": "t_uint256"
      },
      {
        "astId": 2909,
        "contract": "contracts/tenderizer/integrations/livepeer/Livepeer.sol:Livepeer",
        "label": "pendingFees",
        "offset": 0,
        "slot": "7",
        "type": "t_uint256"
      },
      {
        "astId": 2912,
        "contract": "contracts/tenderizer/integrations/livepeer/Livepeer.sol:Livepeer",
        "label": "pendingLiquidityFees",
        "offset": 0,
        "slot": "8",
        "type": "t_uint256"
      },
      {
        "astId": 2914,
        "contract": "contracts/tenderizer/integrations/livepeer/Livepeer.sol:Livepeer",
        "label": "currentPrincipal",
        "offset": 0,
        "slot": "9",
        "type": "t_uint256"
      },
      {
        "astId": 2916,
        "contract": "contracts/tenderizer/integrations/livepeer/Livepeer.sol:Livepeer",
        "label": "gov",
        "offset": 0,
        "slot": "10",
        "type": "t_address"
      },
      {
        "astId": 5715,
        "contract": "contracts/tenderizer/integrations/livepeer/Livepeer.sol:Livepeer",
        "label": "WETH",
        "offset": 0,
        "slot": "11",
        "type": "t_contract(IWETH)2322"
      },
      {
        "astId": 5718,
        "contract": "contracts/tenderizer/integrations/livepeer/Livepeer.sol:Livepeer",
        "label": "uniswapRouter",
        "offset": 0,
        "slot": "12",
        "type": "t_contract(ISwapRouterWithWETH)2313"
      },
      {
        "astId": 5724,
        "contract": "contracts/tenderizer/integrations/livepeer/Livepeer.sol:Livepeer",
        "label": "livepeer",
        "offset": 0,
        "slot": "13",
        "type": "t_contract(ILivepeer)5688"
      },
      {
        "astId": 5732,
        "contract": "contracts/tenderizer/integrations/livepeer/Livepeer.sol:Livepeer",
        "label": "withdrawLocks",
        "offset": 0,
        "slot": "14",
        "type": "t_struct(Locks)3791_storage"
      }
    ],
    "types": {
      "t_address": {
        "encoding": "inplace",
        "label": "address",
        "numberOfBytes": "20"
      },
      "t_bool": {
        "encoding": "inplace",
        "label": "bool",
        "numberOfBytes": "1"
      },
      "t_contract(IERC20)2004": {
        "encoding": "inplace",
        "label": "contract IERC20",
        "numberOfBytes": "20"
      },
      "t_contract(ILivepeer)5688": {
        "encoding": "inplace",
        "label": "contract ILivepeer",
        "numberOfBytes": "20"
      },
      "t_contract(ISwapRouterWithWETH)2313": {
        "encoding": "inplace",
        "label": "contract ISwapRouterWithWETH",
        "numberOfBytes": "20"
      },
      "t_contract(ITenderFarm)2571": {
        "encoding": "inplace",
        "label": "contract ITenderFarm",
        "numberOfBytes": "20"
      },
      "t_contract(ITenderSwap)7003": {
        "encoding": "inplace",
        "label": "contract ITenderSwap",
        "numberOfBytes": "20"
      },
      "t_contract(ITenderToken)7388": {
        "encoding": "inplace",
        "label": "contract ITenderToken",
        "numberOfBytes": "20"
      },
      "t_contract(IWETH)2322": {
        "encoding": "inplace",
        "label": "contract IWETH",
        "numberOfBytes": "20"
      },
      "t_mapping(t_uint256,t_struct(WithdrawLock)3783_storage)": {
        "encoding": "mapping",
        "key": "t_uint256",
        "label": "mapping(uint256 => struct WithdrawalLocks.WithdrawLock)",
        "numberOfBytes": "32",
        "value": "t_struct(WithdrawLock)3783_storage"
      },
      "t_struct(Locks)3791_storage": {
        "encoding": "inplace",
        "label": "struct WithdrawalLocks.Locks",
        "members": [
          {
            "astId": 3788,
            "contract": "contracts/tenderizer/integrations/livepeer/Livepeer.sol:Livepeer",
            "label": "withdrawals",
            "offset": 0,
            "slot": "0",
            "type": "t_mapping(t_uint256,t_struct(WithdrawLock)3783_storage)"
          },
          {
            "astId": 3790,
            "contract": "contracts/tenderizer/integrations/livepeer/Livepeer.sol:Livepeer",
            "label": "nextWithdrawLockID",
            "offset": 0,
            "slot": "1",
            "type": "t_uint256"
          }
        ],
        "numberOfBytes": "64"
      },
      "t_struct(WithdrawLock)3783_storage": {
        "encoding": "inplace",
        "label": "struct WithdrawalLocks.WithdrawLock",
        "members": [
          {
            "astId": 3780,
            "contract": "contracts/tenderizer/integrations/livepeer/Livepeer.sol:Livepeer",
            "label": "amount",
            "offset": 0,
            "slot": "0",
            "type": "t_uint256"
          },
          {
            "astId": 3782,
            "contract": "contracts/tenderizer/integrations/livepeer/Livepeer.sol:Livepeer",
            "label": "account",
            "offset": 0,
            "slot": "1",
            "type": "t_address"
          }
        ],
        "numberOfBytes": "64"
      },
      "t_uint256": {
        "encoding": "inplace",
        "label": "uint256",
        "numberOfBytes": "32"
      }
    }
  }
}