{
  "address": "0x63bdF8109F712dA3AF34F07C038C27b185d86Bb3",
  "abi": [
    {
      "anonymous": false,
      "inputs": [
        {
          "indexed": true,
          "internalType": "address",
          "name": "provider",
          "type": "address"
        },
        {
          "indexed": false,
          "internalType": "uint256[2]",
          "name": "tokenAmounts",
          "type": "uint256[2]"
        },
        {
          "indexed": false,
          "internalType": "uint256[2]",
          "name": "fees",
          "type": "uint256[2]"
        },
        {
          "indexed": false,
          "internalType": "uint256",
          "name": "invariant",
          "type": "uint256"
        },
        {
          "indexed": false,
          "internalType": "uint256",
          "name": "lpTokenSupply",
          "type": "uint256"
        }
      ],
      "name": "AddLiquidity",
      "type": "event"
    },
    {
      "anonymous": false,
      "inputs": [
        {
          "indexed": false,
          "internalType": "uint256",
          "name": "newAdminFee",
          "type": "uint256"
        }
      ],
      "name": "NewAdminFee",
      "type": "event"
    },
    {
      "anonymous": false,
      "inputs": [
        {
          "indexed": false,
          "internalType": "uint256",
          "name": "newSwapFee",
          "type": "uint256"
        }
      ],
      "name": "NewSwapFee",
      "type": "event"
    },
    {
      "anonymous": false,
      "inputs": [
        {
          "indexed": true,
          "internalType": "address",
          "name": "previousOwner",
          "type": "address"
        },
        {
          "indexed": true,
          "internalType": "address",
          "name": "newOwner",
          "type": "address"
        }
      ],
      "name": "OwnershipTransferred",
      "type": "event"
    },
    {
      "anonymous": false,
      "inputs": [
        {
          "indexed": false,
          "internalType": "uint256",
          "name": "oldA",
          "type": "uint256"
        },
        {
          "indexed": false,
          "internalType": "uint256",
          "name": "newA",
          "type": "uint256"
        },
        {
          "indexed": false,
          "internalType": "uint256",
          "name": "initialTime",
          "type": "uint256"
        },
        {
          "indexed": false,
          "internalType": "uint256",
          "name": "futureTime",
          "type": "uint256"
        }
      ],
      "name": "RampA",
      "type": "event"
    },
    {
      "anonymous": false,
      "inputs": [
        {
          "indexed": true,
          "internalType": "address",
          "name": "provider",
          "type": "address"
        },
        {
          "indexed": false,
          "internalType": "uint256[2]",
          "name": "tokenAmounts",
          "type": "uint256[2]"
        },
        {
          "indexed": false,
          "internalType": "uint256",
          "name": "lpTokenSupply",
          "type": "uint256"
        }
      ],
      "name": "RemoveLiquidity",
      "type": "event"
    },
    {
      "anonymous": false,
      "inputs": [
        {
          "indexed": true,
          "internalType": "address",
          "name": "provider",
          "type": "address"
        },
        {
          "indexed": false,
          "internalType": "uint256[2]",
          "name": "tokenAmounts",
          "type": "uint256[2]"
        },
        {
          "indexed": false,
          "internalType": "uint256[2]",
          "name": "fees",
          "type": "uint256[2]"
        },
        {
          "indexed": false,
          "internalType": "uint256",
          "name": "invariant",
          "type": "uint256"
        },
        {
          "indexed": false,
          "internalType": "uint256",
          "name": "lpTokenSupply",
          "type": "uint256"
        }
      ],
      "name": "RemoveLiquidityImbalance",
      "type": "event"
    },
    {
      "anonymous": false,
      "inputs": [
        {
          "indexed": true,
          "internalType": "address",
          "name": "provider",
          "type": "address"
        },
        {
          "indexed": false,
          "internalType": "uint256",
          "name": "lpTokenAmount",
          "type": "uint256"
        },
        {
          "indexed": false,
          "internalType": "uint256",
          "name": "lpTokenSupply",
          "type": "uint256"
        },
        {
          "indexed": false,
          "internalType": "contract IERC20",
          "name": "tokenReceived",
          "type": "address"
        },
        {
          "indexed": false,
          "internalType": "uint256",
          "name": "receivedAmount",
          "type": "uint256"
        }
      ],
      "name": "RemoveLiquidityOne",
      "type": "event"
    },
    {
      "anonymous": false,
      "inputs": [
        {
          "indexed": false,
          "internalType": "uint256",
          "name": "currentA",
          "type": "uint256"
        },
        {
          "indexed": false,
          "internalType": "uint256",
          "name": "time",
          "type": "uint256"
        }
      ],
      "name": "StopRampA",
      "type": "event"
    },
    {
      "anonymous": false,
      "inputs": [
        {
          "indexed": true,
          "internalType": "address",
          "name": "buyer",
          "type": "address"
        },
        {
          "indexed": false,
          "internalType": "contract IERC20",
          "name": "tokenSold",
          "type": "address"
        },
        {
          "indexed": false,
          "internalType": "uint256",
          "name": "amountSold",
          "type": "uint256"
        },
        {
          "indexed": false,
          "internalType": "uint256",
          "name": "amountReceived",
          "type": "uint256"
        }
      ],
      "name": "Swap",
      "type": "event"
    },
    {
      "inputs": [
        {
          "internalType": "uint256[2]",
          "name": "_amounts",
          "type": "uint256[2]"
        },
        {
          "internalType": "uint256",
          "name": "_minToMint",
          "type": "uint256"
        },
        {
          "internalType": "uint256",
          "name": "_deadline",
          "type": "uint256"
        }
      ],
      "name": "addLiquidity",
      "outputs": [
        {
          "internalType": "uint256",
          "name": "",
          "type": "uint256"
        }
      ],
      "stateMutability": "nonpayable",
      "type": "function"
    },
    {
      "inputs": [],
      "name": "amplificationParams",
      "outputs": [
        {
          "internalType": "uint256",
          "name": "initialA",
          "type": "uint256"
        },
        {
          "internalType": "uint256",
          "name": "futureA",
          "type": "uint256"
        },
        {
          "internalType": "uint256",
          "name": "initialATime",
          "type": "uint256"
        },
        {
          "internalType": "uint256",
          "name": "futureATime",
          "type": "uint256"
        }
      ],
      "stateMutability": "view",
      "type": "function"
    },
    {
      "inputs": [
        {
          "internalType": "uint256",
          "name": "amount",
          "type": "uint256"
        }
      ],
      "name": "calculateRemoveLiquidity",
      "outputs": [
        {
          "internalType": "uint256[2]",
          "name": "",
          "type": "uint256[2]"
        }
      ],
      "stateMutability": "view",
      "type": "function"
    },
    {
      "inputs": [
        {
          "internalType": "uint256",
          "name": "tokenAmount",
          "type": "uint256"
        },
        {
          "internalType": "contract IERC20",
          "name": "tokenReceive",
          "type": "address"
        }
      ],
      "name": "calculateRemoveLiquidityOneToken",
      "outputs": [
        {
          "internalType": "uint256",
          "name": "",
          "type": "uint256"
        }
      ],
      "stateMutability": "view",
      "type": "function"
    },
    {
      "inputs": [
        {
          "internalType": "contract IERC20",
          "name": "_tokenFrom",
          "type": "address"
        },
        {
          "internalType": "uint256",
          "name": "_dx",
          "type": "uint256"
        }
      ],
      "name": "calculateSwap",
      "outputs": [
        {
          "internalType": "uint256",
          "name": "",
          "type": "uint256"
        }
      ],
      "stateMutability": "view",
      "type": "function"
    },
    {
      "inputs": [
        {
          "internalType": "uint256[]",
          "name": "amounts",
          "type": "uint256[]"
        },
        {
          "internalType": "bool",
          "name": "deposit",
          "type": "bool"
        }
      ],
      "name": "calculateTokenAmount",
      "outputs": [
        {
          "internalType": "uint256",
          "name": "",
          "type": "uint256"
        }
      ],
      "stateMutability": "view",
      "type": "function"
    },
    {
      "inputs": [],
      "name": "feeParams",
      "outputs": [
        {
          "internalType": "uint256",
          "name": "swapFee",
          "type": "uint256"
        },
        {
          "internalType": "uint256",
          "name": "adminFee",
          "type": "uint256"
        }
      ],
      "stateMutability": "view",
      "type": "function"
    },
    {
      "inputs": [],
      "name": "getA",
      "outputs": [
        {
          "internalType": "uint256",
          "name": "",
          "type": "uint256"
        }
      ],
      "stateMutability": "view",
      "type": "function"
    },
    {
      "inputs": [],
      "name": "getAPrecise",
      "outputs": [
        {
          "internalType": "uint256",
          "name": "",
          "type": "uint256"
        }
      ],
      "stateMutability": "view",
      "type": "function"
    },
    {
      "inputs": [],
      "name": "getToken0",
      "outputs": [
        {
          "internalType": "contract IERC20",
          "name": "",
          "type": "address"
        }
      ],
      "stateMutability": "view",
      "type": "function"
    },
    {
      "inputs": [],
      "name": "getToken0Balance",
      "outputs": [
        {
          "internalType": "uint256",
          "name": "",
          "type": "uint256"
        }
      ],
      "stateMutability": "view",
      "type": "function"
    },
    {
      "inputs": [],
      "name": "getToken1",
      "outputs": [
        {
          "internalType": "contract IERC20",
          "name": "",
          "type": "address"
        }
      ],
      "stateMutability": "view",
      "type": "function"
    },
    {
      "inputs": [],
      "name": "getToken1Balance",
      "outputs": [
        {
          "internalType": "uint256",
          "name": "",
          "type": "uint256"
        }
      ],
      "stateMutability": "view",
      "type": "function"
    },
    {
      "inputs": [],
      "name": "getVirtualPrice",
      "outputs": [
        {
          "internalType": "uint256",
          "name": "",
          "type": "uint256"
        }
      ],
      "stateMutability": "view",
      "type": "function"
    },
    {
      "inputs": [
        {
          "internalType": "contract IERC20",
          "name": "_token0",
          "type": "address"
        },
        {
          "internalType": "contract IERC20",
          "name": "_token1",
          "type": "address"
        },
        {
          "internalType": "string",
          "name": "lpTokenName",
          "type": "string"
        },
        {
          "internalType": "string",
          "name": "lpTokenSymbol",
          "type": "string"
        },
        {
          "internalType": "uint256",
          "name": "_a",
          "type": "uint256"
        },
        {
          "internalType": "uint256",
          "name": "_fee",
          "type": "uint256"
        },
        {
          "internalType": "uint256",
          "name": "_adminFee",
          "type": "uint256"
        },
        {
          "internalType": "contract LiquidityPoolToken",
          "name": "lpTokenTargetAddress",
          "type": "address"
        }
      ],
      "name": "initialize",
      "outputs": [
        {
          "internalType": "bool",
          "name": "",
          "type": "bool"
        }
      ],
      "stateMutability": "nonpayable",
      "type": "function"
    },
    {
      "inputs": [],
      "name": "lpToken",
      "outputs": [
        {
          "internalType": "contract LiquidityPoolToken",
          "name": "",
          "type": "address"
        }
      ],
      "stateMutability": "view",
      "type": "function"
    },
    {
      "inputs": [
        {
          "internalType": "bytes[]",
          "name": "_data",
          "type": "bytes[]"
        }
      ],
      "name": "multicall",
      "outputs": [
        {
          "internalType": "bytes[]",
          "name": "results",
          "type": "bytes[]"
        }
      ],
      "stateMutability": "payable",
      "type": "function"
    },
    {
      "inputs": [],
      "name": "owner",
      "outputs": [
        {
          "internalType": "address",
          "name": "",
          "type": "address"
        }
      ],
      "stateMutability": "view",
      "type": "function"
    },
    {
      "inputs": [
        {
          "internalType": "uint256",
          "name": "futureA",
          "type": "uint256"
        },
        {
          "internalType": "uint256",
          "name": "futureTime",
          "type": "uint256"
        }
      ],
      "name": "rampA",
      "outputs": [],
      "stateMutability": "nonpayable",
      "type": "function"
    },
    {
      "inputs": [
        {
          "internalType": "uint256",
          "name": "amount",
          "type": "uint256"
        },
        {
          "internalType": "uint256[2]",
          "name": "minAmounts",
          "type": "uint256[2]"
        },
        {
          "internalType": "uint256",
          "name": "deadline",
          "type": "uint256"
        }
      ],
      "name": "removeLiquidity",
      "outputs": [
        {
          "internalType": "uint256[2]",
          "name": "",
          "type": "uint256[2]"
        }
      ],
      "stateMutability": "nonpayable",
      "type": "function"
    },
    {
      "inputs": [
        {
          "internalType": "uint256[2]",
          "name": "_amounts",
          "type": "uint256[2]"
        },
        {
          "internalType": "uint256",
          "name": "_maxBurnAmount",
          "type": "uint256"
        },
        {
          "internalType": "uint256",
          "name": "_deadline",
          "type": "uint256"
        }
      ],
      "name": "removeLiquidityImbalance",
      "outputs": [
        {
          "internalType": "uint256",
          "name": "",
          "type": "uint256"
        }
      ],
      "stateMutability": "nonpayable",
      "type": "function"
    },
    {
      "inputs": [
        {
          "internalType": "uint256",
          "name": "_tokenAmount",
          "type": "uint256"
        },
        {
          "internalType": "contract IERC20",
          "name": "_tokenReceive",
          "type": "address"
        },
        {
          "internalType": "uint256",
          "name": "_minAmount",
          "type": "uint256"
        },
        {
          "internalType": "uint256",
          "name": "_deadline",
          "type": "uint256"
        }
      ],
      "name": "removeLiquidityOneToken",
      "outputs": [
        {
          "internalType": "uint256",
          "name": "",
          "type": "uint256"
        }
      ],
      "stateMutability": "nonpayable",
      "type": "function"
    },
    {
      "inputs": [],
      "name": "renounceOwnership",
      "outputs": [],
      "stateMutability": "nonpayable",
      "type": "function"
    },
    {
      "inputs": [
        {
          "internalType": "address",
          "name": "_token",
          "type": "address"
        },
        {
          "internalType": "uint256",
          "name": "_value",
          "type": "uint256"
        },
        {
          "internalType": "uint256",
          "name": "_deadline",
          "type": "uint256"
        },
        {
          "internalType": "uint8",
          "name": "_v",
          "type": "uint8"
        },
        {
          "internalType": "bytes32",
          "name": "_r",
          "type": "bytes32"
        },
        {
          "internalType": "bytes32",
          "name": "_s",
          "type": "bytes32"
        }
      ],
      "name": "selfPermit",
      "outputs": [],
      "stateMutability": "payable",
      "type": "function"
    },
    {
      "inputs": [
        {
          "internalType": "address",
          "name": "_token",
          "type": "address"
        },
        {
          "internalType": "uint256",
          "name": "_value",
          "type": "uint256"
        },
        {
          "internalType": "uint256",
          "name": "_deadline",
          "type": "uint256"
        },
        {
          "internalType": "uint8",
          "name": "_v",
          "type": "uint8"
        },
        {
          "internalType": "bytes32",
          "name": "_r",
          "type": "bytes32"
        },
        {
          "internalType": "bytes32",
          "name": "_s",
          "type": "bytes32"
        }
      ],
      "name": "selfPermitIfNecessary",
      "outputs": [],
      "stateMutability": "payable",
      "type": "function"
    },
    {
      "inputs": [
        {
          "internalType": "uint256",
          "name": "newAdminFee",
          "type": "uint256"
        }
      ],
      "name": "setAdminFee",
      "outputs": [],
      "stateMutability": "nonpayable",
      "type": "function"
    },
    {
      "inputs": [
        {
          "internalType": "uint256",
          "name": "newSwapFee",
          "type": "uint256"
        }
      ],
      "name": "setSwapFee",
      "outputs": [],
      "stateMutability": "nonpayable",
      "type": "function"
    },
    {
      "inputs": [],
      "name": "stopRampA",
      "outputs": [],
      "stateMutability": "nonpayable",
      "type": "function"
    },
    {
      "inputs": [
        {
          "internalType": "contract IERC20",
          "name": "_tokenFrom",
          "type": "address"
        },
        {
          "internalType": "uint256",
          "name": "_dx",
          "type": "uint256"
        },
        {
          "internalType": "uint256",
          "name": "_minDy",
          "type": "uint256"
        },
        {
          "internalType": "uint256",
          "name": "_deadline",
          "type": "uint256"
        }
      ],
      "name": "swap",
      "outputs": [
        {
          "internalType": "uint256",
          "name": "",
          "type": "uint256"
        }
      ],
      "stateMutability": "nonpayable",
      "type": "function"
    },
    {
      "inputs": [
        {
          "internalType": "address",
          "name": "_newOwnner",
          "type": "address"
        }
      ],
      "name": "transferOwnership",
      "outputs": [],
      "stateMutability": "nonpayable",
      "type": "function"
    }
  ],
  "transactionHash": "0x9178d1d3b844e8ef9c479a798104a6d9dbd00e2aa124f22faa3439265abfa99c",
  "args": [],
  "solcInputHash": "14b0e1ff9d2182625fa00645b9479363",
  "bytecode": "0x608060405234801561001057600080fd5b5061598480620000216000396000f3fe6080604052600436106101cd5760003560e01c8063afcd5f4b116100f7578063ce1fdb8b11610095578063e6ab280611610064578063e6ab28061461068c578063f2fad2b6146106c9578063f2fde38b14610706578063f3995c671461072f576101cd565b8063ce1fdb8b146105bc578063d46300fd146105f9578063d6f0df6214610624578063e25aa5fa14610661576101cd565b8063c2d9ecfa116100d1578063c2d9ecfa14610521578063c2e3140a1461054c578063c4db7fa014610568578063c9ec92481461057f576101cd565b8063afcd5f4b1461047c578063ba94a315146104b9578063bfc65c9b146104e4576101cd565b80635fcbd2851161016f5780638beb60b61161013e5780638beb60b6146103cc5780638da5cb5b146103f55780639242164f14610420578063ac9650d81461044c576101cd565b80635fcbd285146103225780636f26a7101461034d578063715018a614610378578063805d27661461038f576101cd565b806334e19907116101ab57806334e199071461026857806346eda749146102915780635153786b146102ce578063593d132c146102f9576101cd565b80630ba81959146101d25780631de8d8cb146101fd578063256967ac1461023a575b600080fd5b3480156101de57600080fd5b506101e761074b565b6040516101f49190614d8d565b60405180910390f35b34801561020957600080fd5b50610224600480360381019061021f9190613f10565b6107dc565b6040516102319190614d8d565b60405180910390f35b34801561024657600080fd5b5061024f61096a565b60405161025f9493929190614ebd565b60405180910390f35b34801561027457600080fd5b5061028f600480360381019061028a9190613ff0565b610988565b005b34801561029d57600080fd5b506102b860048036038101906102b39190613d35565b610a73565b6040516102c59190614d8d565b60405180910390f35b3480156102da57600080fd5b506102e3610c86565b6040516102f09190614d8d565b60405180910390f35b34801561030557600080fd5b50610320600480360381019061031b9190614130565b610d17565b005b34801561032e57600080fd5b50610337610e05565b604051610344919061496a565b60405180910390f35b34801561035957600080fd5b50610362610e2b565b60405161036f919061494f565b60405180910390f35b34801561038457600080fd5b5061038d610e58565b005b34801561039b57600080fd5b506103b660048036038101906103b19190614091565b610ee0565b6040516103c39190614d8d565b60405180910390f35b3480156103d857600080fd5b506103f360048036038101906103ee9190613ff0565b610fb0565b005b34801561040157600080fd5b5061040a61109b565b6040516104179190614783565b60405180910390f35b34801561042c57600080fd5b506104356110c5565b604051610443929190614e94565b60405180910390f35b61046660048036038101906104619190613cf0565b6110d7565b6040516104739190614836565b60405180910390f35b34801561048857600080fd5b506104a3600480360381019061049e9190613e2e565b6112e3565b6040516104b09190614934565b60405180910390f35b3480156104c557600080fd5b506104ce6119ed565b6040516104db919061494f565b60405180910390f35b3480156104f057600080fd5b5061050b60048036038101906105069190613d35565b611a1a565b6040516105189190614d8d565b60405180910390f35b34801561052d57600080fd5b50610536611c2d565b6040516105439190614d8d565b60405180910390f35b61056660048036038101906105619190613c67565b611cbe565b005b34801561057457600080fd5b5061057d611d78565b005b34801561058b57600080fd5b506105a660048036038101906105a19190613f4c565b611e60565b6040516105b39190614d8d565b60405180910390f35b3480156105c857600080fd5b506105e360048036038101906105de91906140cd565b6120f0565b6040516105f09190614d8d565b60405180910390f35b34801561060557600080fd5b5061060e612330565b60405161061b9190614d8d565b60405180910390f35b34801561063057600080fd5b5061064b60048036038101906106469190614042565b6123c1565b6040516106589190614919565b60405180910390f35b34801561066d57600080fd5b506106766125d3565b6040516106839190614d8d565b60405180910390f35b34801561069857600080fd5b506106b360048036038101906106ae9190613dad565b61268c565b6040516106c09190614d8d565b60405180910390f35b3480156106d557600080fd5b506106f060048036038101906106eb9190613ff0565b61283c565b6040516106fd9190614919565b60405180910390f35b34801561071257600080fd5b5061072d60048036038101906107289190613c3e565b6129e9565b005b61074960048036038101906107449190613c67565b612a71565b005b6000609973da73ae74a09c70d27f76E15ad8F33D1D18589D87635d5c4f9690916040518263ffffffff1660e01b81526004016107879190614bfe565b60206040518083038186803b15801561079f57600080fd5b505af41580156107b3573d6000803e3d6000fd5b505050506040513d601f19601f820116820180604052508101906107d79190614019565b905090565b6000609d60000160009054906101000a900473ffffffffffffffffffffffffffffffffffffffff1673ffffffffffffffffffffffffffffffffffffffff168373ffffffffffffffffffffffffffffffffffffffff16146108ce5773da73ae74a09c70d27f76E15ad8F33D1D18589D8763e5537d20609f609d85609960976040518663ffffffff1660e01b8152600401610879959493929190614cd9565b60206040518083038186803b15801561089157600080fd5b505af41580156108a5573d6000803e3d6000fd5b505050506040513d601f19601f820116820180604052508101906108c99190614019565b610962565b73da73ae74a09c70d27f76E15ad8F33D1D18589D8763e5537d20609d609f85609960976040518663ffffffff1660e01b8152600401610911959493929190614cd9565b60206040518083038186803b15801561092957600080fd5b505af415801561093d573d6000803e3d6000fd5b505050506040513d601f19601f820116820180604052508101906109619190614019565b5b905092915050565b60998060000154908060010154908060020154908060030154905084565b610990612a87565b73ffffffffffffffffffffffffffffffffffffffff166109ae61109b565b73ffffffffffffffffffffffffffffffffffffffff1614610a04576040517f08c379a00000000000000000000000000000000000000000000000000000000081526004016109fb90614afe565b60405180910390fd5b609773da73ae74a09c70d27f76E15ad8F33D1D18589D876344b4519c9091836040518363ffffffff1660e01b8152600401610a40929190614c50565b60006040518083038186803b158015610a5857600080fd5b505af4158015610a6c573d6000803e3d6000fd5b5050505050565b600060026065541415610abb576040517f08c379a0000000000000000000000000000000000000000000000000000000008152600401610ab290614bbe565b60405180910390fd5b600260658190555081610acd81612a8f565b60006040518060400160405280609d6040518060400160405290816000820160009054906101000a900473ffffffffffffffffffffffffffffffffffffffff1673ffffffffffffffffffffffffffffffffffffffff1673ffffffffffffffffffffffffffffffffffffffff1681526020016001820154815250508152602001609f6040518060400160405290816000820160009054906101000a900473ffffffffffffffffffffffffffffffffffffffff1673ffffffffffffffffffffffffffffffffffffffff1673ffffffffffffffffffffffffffffffffffffffff168152602001600182015481525050815250905073da73ae74a09c70d27f76E15ad8F33D1D18589D87635aa533ee8288886099609760a160009054906101000a900473ffffffffffffffffffffffffffffffffffffffff166040518763ffffffff1660e01b8152600401610c2396959493929190614858565b60206040518083038186803b158015610c3b57600080fd5b505af4158015610c4f573d6000803e3d6000fd5b505050506040513d601f19601f82011682018060405250810190610c739190614019565b9250505060016065819055509392505050565b6000609f73da73ae74a09c70d27f76E15ad8F33D1D18589D87636cc631fa90916040518263ffffffff1660e01b8152600401610cc29190614c79565b60206040518083038186803b158015610cda57600080fd5b505af4158015610cee573d6000803e3d6000fd5b505050506040513d601f19601f82011682018060405250810190610d129190614019565b905090565b610d1f612a87565b73ffffffffffffffffffffffffffffffffffffffff16610d3d61109b565b73ffffffffffffffffffffffffffffffffffffffff1614610d93576040517f08c379a0000000000000000000000000000000000000000000000000000000008152600401610d8a90614afe565b60405180910390fd5b609973da73ae74a09c70d27f76E15ad8F33D1D18589D876314f685c3909184846040518463ffffffff1660e01b8152600401610dd193929190614c19565b60006040518083038186803b158015610de957600080fd5b505af4158015610dfd573d6000803e3d6000fd5b505050505050565b60a160009054906101000a900473ffffffffffffffffffffffffffffffffffffffff1681565b6000609f60000160009054906101000a900473ffffffffffffffffffffffffffffffffffffffff16905090565b610e60612a87565b73ffffffffffffffffffffffffffffffffffffffff16610e7e61109b565b73ffffffffffffffffffffffffffffffffffffffff1614610ed4576040517f08c379a0000000000000000000000000000000000000000000000000000000008152600401610ecb90614afe565b60405180910390fd5b610ede6000612ad5565b565b6000609d60000160009054906101000a900473ffffffffffffffffffffffffffffffffffffffff1673ffffffffffffffffffffffffffffffffffffffff168273ffffffffffffffffffffffffffffffffffffffff1614610f7357610f6e83609f609d6099609760a160009054906101000a900473ffffffffffffffffffffffffffffffffffffffff16612b9b565b610fa8565b610fa783609d609f6099609760a160009054906101000a900473ffffffffffffffffffffffffffffffffffffffff16612b9b565b5b905092915050565b610fb8612a87565b73ffffffffffffffffffffffffffffffffffffffff16610fd661109b565b73ffffffffffffffffffffffffffffffffffffffff161461102c576040517f08c379a000000000000000000000000000000000000000000000000000000000815260040161102390614afe565b60405180910390fd5b609773da73ae74a09c70d27f76E15ad8F33D1D18589D876327d047759091836040518363ffffffff1660e01b8152600401611068929190614c50565b60006040518083038186803b15801561108057600080fd5b505af4158015611094573d6000803e3d6000fd5b5050505050565b6000603360009054906101000a900473ffffffffffffffffffffffffffffffffffffffff16905090565b60978060000154908060010154905082565b60608282905067ffffffffffffffff81111561111c577f4e487b7100000000000000000000000000000000000000000000000000000000600052604160045260246000fd5b60405190808252806020026020018201604052801561114f57816020015b606081526020019060019003908161113a5790505b50905060005b838390508110156112dc576000803073ffffffffffffffffffffffffffffffffffffffff168686858181106111b3577f4e487b7100000000000000000000000000000000000000000000000000000000600052603260045260246000fd5b90506020028101906111c59190614f02565b6040516111d392919061476a565b600060405180830381855af49150503d806000811461120e576040519150601f19603f3d011682016040523d82523d6000602084013e611213565b606091505b5091509150816112825760448151101561122c57600080fd5b600481019050808060200190518101906112469190613faf565b6040517f08c379a00000000000000000000000000000000000000000000000000000000081526004016112799190614985565b60405180910390fd5b808484815181106112bc577f4e487b7100000000000000000000000000000000000000000000000000000000600052603260045260246000fd5b6020026020010181905250505080806112d4906154b4565b915050611155565b5092915050565b60008060019054906101000a900460ff168061130a575060008054906101000a900460ff16155b611349576040517f08c379a000000000000000000000000000000000000000000000000000000000815260040161134090614ade565b60405180910390fd5b60008060019054906101000a900460ff161590508015611399576001600060016101000a81548160ff02191690831515021790555060016000806101000a81548160ff0219169083151502179055505b6113a1612c3a565b6113a9612d13565b6113b1612dfc565b8873ffffffffffffffffffffffffffffffffffffffff168a73ffffffffffffffffffffffffffffffffffffffff161415611420576040517f08c379a0000000000000000000000000000000000000000000000000000000008152600401611417906149fe565b60405180910390fd5b600073ffffffffffffffffffffffffffffffffffffffff168a73ffffffffffffffffffffffffffffffffffffffff161415611490576040517f08c379a000000000000000000000000000000000000000000000000000000000815260040161148790614a5e565b60405180910390fd5b600073ffffffffffffffffffffffffffffffffffffffff168973ffffffffffffffffffffffffffffffffffffffff161415611500576040517f08c379a00000000000000000000000000000000000000000000000000000000081526004016114f790614b3e565b60405180910390fd5b60008a73ffffffffffffffffffffffffffffffffffffffff1663313ce5676040518163ffffffff1660e01b815260040160206040518083038186803b15801561154857600080fd5b505afa15801561155c573d6000803e3d6000fd5b505050506040513d601f19601f82011682018060405250810190611580919061416c565b905060008160ff161161159257600080fd5b60405180604001604052808c73ffffffffffffffffffffffffffffffffffffffff1681526020018260126115c69190615342565b600a6115d29190615196565b815250609d60008201518160000160006101000a81548173ffffffffffffffffffffffffffffffffffffffff021916908373ffffffffffffffffffffffffffffffffffffffff1602179055506020820151816001015590505060008a73ffffffffffffffffffffffffffffffffffffffff1663313ce5676040518163ffffffff1660e01b815260040160206040518083038186803b15801561167357600080fd5b505afa158015611687573d6000803e3d6000fd5b505050506040513d601f19601f820116820180604052508101906116ab919061416c565b905060008160ff16116116bd57600080fd5b60405180604001604052808c73ffffffffffffffffffffffffffffffffffffffff1681526020018260126116f19190615342565b600a6116fd9190615196565b815250609f60008201518160000160006101000a81548173ffffffffffffffffffffffffffffffffffffffff021916908373ffffffffffffffffffffffffffffffffffffffff16021790555060208201518160010155905050620f4240881061179b576040517f08c379a000000000000000000000000000000000000000000000000000000000815260040161179290614abe565b60405180910390fd5b6064886117a891906152b4565b6099600001819055506064886117be91906152b4565b6099600101819055506305f5e100871061180d576040517f08c379a000000000000000000000000000000000000000000000000000000000815260040161180490614b5e565b60405180910390fd5b6402540be4008610611854576040517f08c379a000000000000000000000000000000000000000000000000000000000815260040161184b90614a3e565b60405180910390fd5b6040518060400160405280888152602001878152506097600082015181600001556020820151816001015590505061188b85612edd565b60a160006101000a81548173ffffffffffffffffffffffffffffffffffffffff021916908373ffffffffffffffffffffffffffffffffffffffff16021790555060a160009054906101000a900473ffffffffffffffffffffffffffffffffffffffff1673ffffffffffffffffffffffffffffffffffffffff16634cd88b768b8b6040518363ffffffff1660e01b81526004016119289291906149a7565b602060405180830381600087803b15801561194257600080fd5b505af1158015611956573d6000803e3d6000fd5b505050506040513d601f19601f8201168201806040525081019061197a9190613e05565b6119b9576040517f08c379a00000000000000000000000000000000000000000000000000000000081526004016119b090614bde565b60405180910390fd5b60019350505080156119e05760008060016101000a81548160ff0219169083151502179055505b5098975050505050505050565b6000609d60000160009054906101000a900473ffffffffffffffffffffffffffffffffffffffff16905090565b600060026065541415611a62576040517f08c379a0000000000000000000000000000000000000000000000000000000008152600401611a5990614bbe565b60405180910390fd5b600260658190555081611a7481612a8f565b60006040518060400160405280609d6040518060400160405290816000820160009054906101000a900473ffffffffffffffffffffffffffffffffffffffff1673ffffffffffffffffffffffffffffffffffffffff1673ffffffffffffffffffffffffffffffffffffffff1681526020016001820154815250508152602001609f6040518060400160405290816000820160009054906101000a900473ffffffffffffffffffffffffffffffffffffffff1673ffffffffffffffffffffffffffffffffffffffff1673ffffffffffffffffffffffffffffffffffffffff168152602001600182015481525050815250905073da73ae74a09c70d27f76E15ad8F33D1D18589D876302eb2c228288886099609760a160009054906101000a900473ffffffffffffffffffffffffffffffffffffffff166040518763ffffffff1660e01b8152600401611bca96959493929190614858565b60206040518083038186803b158015611be257600080fd5b505af4158015611bf6573d6000803e3d6000fd5b505050506040513d601f19601f82011682018060405250810190611c1a9190614019565b9250505060016065819055509392505050565b6000609d73da73ae74a09c70d27f76E15ad8F33D1D18589D87636cc631fa90916040518263ffffffff1660e01b8152600401611c699190614c79565b60206040518083038186803b158015611c8157600080fd5b505af4158015611c95573d6000803e3d6000fd5b505050506040513d601f19601f82011682018060405250810190611cb99190614019565b905090565b60008673ffffffffffffffffffffffffffffffffffffffff1663dd62ed3e33306040518363ffffffff1660e01b8152600401611cfb92919061479e565b60206040518083038186803b158015611d1357600080fd5b505afa158015611d27573d6000803e3d6000fd5b505050506040513d601f19601f82011682018060405250810190611d4b9190614019565b905085811015611d6f57611d6e878288611d65919061530e565b87878787612fb2565b5b50505050505050565b611d80612a87565b73ffffffffffffffffffffffffffffffffffffffff16611d9e61109b565b73ffffffffffffffffffffffffffffffffffffffff1614611df4576040517f08c379a0000000000000000000000000000000000000000000000000000000008152600401611deb90614afe565b60405180910390fd5b609973da73ae74a09c70d27f76E15ad8F33D1D18589D8763b0845bc590916040518263ffffffff1660e01b8152600401611e2e9190614bfe565b60006040518083038186803b158015611e4657600080fd5b505af4158015611e5a573d6000803e3d6000fd5b50505050565b600060026065541415611ea8576040517f08c379a0000000000000000000000000000000000000000000000000000000008152600401611e9f90614bbe565b60405180910390fd5b600260658190555081611eba81612a8f565b609d60000160009054906101000a900473ffffffffffffffffffffffffffffffffffffffff1673ffffffffffffffffffffffffffffffffffffffff168673ffffffffffffffffffffffffffffffffffffffff161415611faf5773da73ae74a09c70d27f76E15ad8F33D1D18589D8763cbab294f609d609f8888609960976040518763ffffffff1660e01b8152600401611f5896959493929190614d2c565b60206040518083038186803b158015611f7057600080fd5b505af4158015611f84573d6000803e3d6000fd5b505050506040513d601f19601f82011682018060405250810190611fa89190614019565b91506120df565b609f60000160009054906101000a900473ffffffffffffffffffffffffffffffffffffffff1673ffffffffffffffffffffffffffffffffffffffff168673ffffffffffffffffffffffffffffffffffffffff1614156120a45773da73ae74a09c70d27f76E15ad8F33D1D18589D8763cbab294f609f609d8888609960976040518763ffffffff1660e01b815260040161204d96959493929190614d2c565b60206040518083038186803b15801561206557600080fd5b505af4158015612079573d6000803e3d6000fd5b505050506040513d601f19601f8201168201806040525081019061209d9190614019565b91506120df565b6040517f08c379a00000000000000000000000000000000000000000000000000000000081526004016120d690614a7e565b60405180910390fd5b506001606581905550949350505050565b600060026065541415612138576040517f08c379a000000000000000000000000000000000000000000000000000000000815260040161212f90614bbe565b60405180910390fd5b60026065819055508161214a81612a8f565b609d60000160009054906101000a900473ffffffffffffffffffffffffffffffffffffffff1673ffffffffffffffffffffffffffffffffffffffff168573ffffffffffffffffffffffffffffffffffffffff1614156122635773da73ae74a09c70d27f76E15ad8F33D1D18589D8763a7abb39687609d609f886099609760a160009054906101000a900473ffffffffffffffffffffffffffffffffffffffff166040518863ffffffff1660e01b815260040161220c9796959493929190614e25565b60206040518083038186803b15801561222457600080fd5b505af4158015612238573d6000803e3d6000fd5b505050506040513d601f19601f8201168201806040525081019061225c9190614019565b915061231f565b73da73ae74a09c70d27f76E15ad8F33D1D18589D8763a7abb39687609f609d886099609760a160009054906101000a900473ffffffffffffffffffffffffffffffffffffffff166040518863ffffffff1660e01b81526004016122cc9796959493929190614e25565b60206040518083038186803b1580156122e457600080fd5b505af41580156122f8573d6000803e3d6000fd5b505050506040513d601f19601f8201168201806040525081019061231c9190614019565b91505b506001606581905550949350505050565b6000609973da73ae74a09c70d27f76E15ad8F33D1D18589D8763c15dc17c90916040518263ffffffff1660e01b815260040161236c9190614bfe565b60206040518083038186803b15801561238457600080fd5b505af4158015612398573d6000803e3d6000fd5b505050506040513d601f19601f820116820180604052508101906123bc9190614019565b905090565b6123c961393e565b6002606554141561240f576040517f08c379a000000000000000000000000000000000000000000000000000000000815260040161240690614bbe565b60405180910390fd5b60026065819055508161242181612a8f565b60006040518060400160405280609d6040518060400160405290816000820160009054906101000a900473ffffffffffffffffffffffffffffffffffffffff1673ffffffffffffffffffffffffffffffffffffffff1673ffffffffffffffffffffffffffffffffffffffff1681526020016001820154815250508152602001609f6040518060400160405290816000820160009054906101000a900473ffffffffffffffffffffffffffffffffffffffff1673ffffffffffffffffffffffffffffffffffffffff1673ffffffffffffffffffffffffffffffffffffffff168152602001600182015481525050815250905073da73ae74a09c70d27f76E15ad8F33D1D18589D87632657942987838860a160009054906101000a900473ffffffffffffffffffffffffffffffffffffffff166040518563ffffffff1660e01b81526004016125719493929190614da8565b604080518083038186803b15801561258857600080fd5b505af415801561259c573d6000803e3d6000fd5b505050506040513d601f19601f820116820180604052508101906125c09190613d84565b9250505060016065819055509392505050565b600073da73ae74a09c70d27f76E15ad8F33D1D18589D8763809d0648609d609f609960a160009054906101000a900473ffffffffffffffffffffffffffffffffffffffff166040518563ffffffff1660e01b81526004016126379493929190614c94565b60206040518083038186803b15801561264f57600080fd5b505af4158015612663573d6000803e3d6000fd5b505050506040513d601f19601f820116820180604052508101906126879190614019565b905090565b6000806040518060400160405280609d6040518060400160405290816000820160009054906101000a900473ffffffffffffffffffffffffffffffffffffffff1673ffffffffffffffffffffffffffffffffffffffff1673ffffffffffffffffffffffffffffffffffffffff1681526020016001820154815250508152602001609f6040518060400160405290816000820160009054906101000a900473ffffffffffffffffffffffffffffffffffffffff1673ffffffffffffffffffffffffffffffffffffffff1673ffffffffffffffffffffffffffffffffffffffff168152602001600182015481525050815250905073da73ae74a09c70d27f76E15ad8F33D1D18589D8763cb6802c882878787609960a160009054906101000a900473ffffffffffffffffffffffffffffffffffffffff166040518763ffffffff1660e01b81526004016127e2969594939291906148bc565b60206040518083038186803b1580156127fa57600080fd5b505af415801561280e573d6000803e3d6000fd5b505050506040513d601f19601f820116820180604052508101906128329190614019565b9150509392505050565b61284461393e565b60006040518060400160405280609d6040518060400160405290816000820160009054906101000a900473ffffffffffffffffffffffffffffffffffffffff1673ffffffffffffffffffffffffffffffffffffffff1673ffffffffffffffffffffffffffffffffffffffff1681526020016001820154815250508152602001609f6040518060400160405290816000820160009054906101000a900473ffffffffffffffffffffffffffffffffffffffff1673ffffffffffffffffffffffffffffffffffffffff1673ffffffffffffffffffffffffffffffffffffffff168152602001600182015481525050815250905073da73ae74a09c70d27f76E15ad8F33D1D18589D8763296104cd848360a160009054906101000a900473ffffffffffffffffffffffffffffffffffffffff166040518463ffffffff1660e01b815260040161299293929190614dee565b604080518083038186803b1580156129a957600080fd5b505af41580156129bd573d6000803e3d6000fd5b505050506040513d601f19601f820116820180604052508101906129e19190613d84565b915050919050565b6129f1612a87565b73ffffffffffffffffffffffffffffffffffffffff16612a0f61109b565b73ffffffffffffffffffffffffffffffffffffffff1614612a65576040517f08c379a0000000000000000000000000000000000000000000000000000000008152600401612a5c90614afe565b60405180910390fd5b612a6e81613031565b50565b612a7f868686868686612fb2565b505050505050565b600033905090565b80421115612ad2576040517f08c379a0000000000000000000000000000000000000000000000000000000008152600401612ac990614b1e565b60405180910390fd5b50565b6000603360009054906101000a900473ffffffffffffffffffffffffffffffffffffffff16905081603360006101000a81548173ffffffffffffffffffffffffffffffffffffffff021916908373ffffffffffffffffffffffffffffffffffffffff1602179055508173ffffffffffffffffffffffffffffffffffffffff168173ffffffffffffffffffffffffffffffffffffffff167f8be0079c531659141344cd1fd0a4f28419497f9722a3daafe3b4186f6b6457e060405160405180910390a35050565b600080612c298888888673ffffffffffffffffffffffffffffffffffffffff166318160ddd6040518163ffffffff1660e01b815260040160206040518083038186803b158015612bea57600080fd5b505afa158015612bfe573d6000803e3d6000fd5b505050506040513d601f19601f82011682018060405250810190612c229190614019565b8989613129565b509050809150509695505050505050565b600060019054906101000a900460ff1680612c60575060008054906101000a900460ff16155b612c9f576040517f08c379a0000000000000000000000000000000000000000000000000000000008152600401612c9690614ade565b60405180910390fd5b60008060019054906101000a900460ff161590508015612cef576001600060016101000a81548160ff02191690831515021790555060016000806101000a81548160ff0219169083151502179055505b8015612d105760008060016101000a81548160ff0219169083151502179055505b50565b600060019054906101000a900460ff1680612d39575060008054906101000a900460ff16155b612d78576040517f08c379a0000000000000000000000000000000000000000000000000000000008152600401612d6f90614ade565b60405180910390fd5b60008060019054906101000a900460ff161590508015612dc8576001600060016101000a81548160ff02191690831515021790555060016000806101000a81548160ff0219169083151502179055505b612dd8612dd3612a87565b612ad5565b8015612df95760008060016101000a81548160ff0219169083151502179055505b50565b600060019054906101000a900460ff1680612e22575060008054906101000a900460ff16155b612e61576040517f08c379a0000000000000000000000000000000000000000000000000000000008152600401612e5890614ade565b60405180910390fd5b60008060019054906101000a900460ff161590508015612eb1576001600060016101000a81548160ff02191690831515021790555060016000806101000a81548160ff0219169083151502179055505b60016065819055508015612eda5760008060016101000a81548160ff0219169083151502179055505b50565b60006040517f3d602d80600a3d3981f3363d3d373d3d3d363d7300000000000000000000000081528260601b60148201527f5af43d82803e903d91602b57fd5bf3000000000000000000000000000000000060288201526037816000f0915050600073ffffffffffffffffffffffffffffffffffffffff168173ffffffffffffffffffffffffffffffffffffffff161415612fad576040517f08c379a0000000000000000000000000000000000000000000000000000000008152600401612fa490614a9e565b60405180910390fd5b919050565b8573ffffffffffffffffffffffffffffffffffffffff1663d505accf333088888888886040518863ffffffff1660e01b8152600401612ff797969594939291906147c7565b600060405180830381600087803b15801561301157600080fd5b505af1158015613025573d6000803e3d6000fd5b50505050505050505050565b613039612a87565b73ffffffffffffffffffffffffffffffffffffffff1661305761109b565b73ffffffffffffffffffffffffffffffffffffffff16146130ad576040517f08c379a00000000000000000000000000000000000000000000000000000000081526004016130a490614afe565b60405180910390fd5b600073ffffffffffffffffffffffffffffffffffffffff168173ffffffffffffffffffffffffffffffffffffffff16141561311d576040517f08c379a0000000000000000000000000000000000000000000000000000000008152600401613114906149de565b60405180910390fd5b61312681612ad5565b50565b600080600080600061314b8b8b8b8b6131418c613196565b8b60000154613272565b8093508194508295505050506000838b60010154848461316b919061530e565b6131759190615112565b61317f919061530e565b905083819550955050505050965096945050505050565b600080826003015490506000836001015490508142101561326757600084600201549050600085600001549050808311156132195781846131d7919061530e565b82426131e3919061530e565b82856131ef919061530e565b6131f991906152b4565b6132039190615112565b8161320e91906150bc565b94505050505061326d565b8184613225919061530e565b8242613231919061530e565b848361323d919061530e565b61324791906152b4565b6132519190615112565b8161325c919061530e565b94505050505061326d565b80925050505b919050565b6000806000806132a58960000160009054906101000a900473ffffffffffffffffffffffffffffffffffffffff16613507565b905060006132b7828b60010154613599565b905060006132e88a60000160009054906101000a900473ffffffffffffffffffffffffffffffffffffffff16613507565b905060006132fa828c60010154613599565b905060006040518060a00160405280600081526020016000815260200160008152602001600081526020016000815250905089816080018181525050613345828583608001516135af565b8160000181815250508a81600001518f61335f91906152b4565b6133699190615112565b8160000151613378919061530e565b816020018181525050838e11156133c4576040517f08c379a00000000000000000000000000000000000000000000000000000000081526004016133bb90614a1e565b60405180910390fd5b6133d78160800151838360200151613761565b8160400181815250506133e9896138de565b81606001818152505060006402540be40082606001518360400151846000015185602001518961341991906152b4565b6134239190615112565b61342d919061530e565b61343791906152b4565b6134419190615112565b8561344c919061530e565b905060006402540be4008360600151846000015185602001518761347091906152b4565b61347a9190615112565b86613485919061530e565b61348f91906152b4565b6134999190615112565b846134a4919061530e565b905060006134bb8460800151838660200151613761565b836134c6919061530e565b90508f600101546001826134da919061530e565b6134e49190615112565b9050808460400151889a509a509a50505050505050505096509650969350505050565b60008173ffffffffffffffffffffffffffffffffffffffff166370a08231306040518263ffffffff1660e01b81526004016135429190614783565b60206040518083038186803b15801561355a57600080fd5b505afa15801561356e573d6000803e3d6000fd5b505050506040513d601f19601f820116820180604052508101906135929190614019565b9050919050565b600081836135a791906152b4565b905092915050565b60008083856135be91906150bc565b905060008114156135d357600091505061375a565b60008082905060006002866135e891906152b4565b905060005b61010081101561371e57600083905060028a61360991906152b4565b848261361591906152b4565b61361f9190615112565b905060028961362e91906152b4565b848261363a91906152b4565b6136449190615112565b905083945060008460028361365991906152b4565b6064898761366791906152b4565b6136719190615112565b61367b91906150bc565b61368591906152b4565b90506000826001600261369891906150bc565b6136a291906152b4565b6064876064886136b2919061530e565b6136bc91906152b4565b6136c69190615112565b6136d091906150bc565b905080826136de9190615112565b95506136f387876138f490919063ffffffff16565b1561370857859850505050505050505061375a565b5050508080613716906154b4565b9150506135ed565b506040517f08c379a000000000000000000000000000000000000000000000000000000000815260040161375190614b9e565b60405180910390fd5b9392505050565b60008060028461377191906152b4565b838461377d91906152b4565b6137879190615112565b90506000849050600060028761379d91906152b4565b90506002816137ac91906152b4565b606486856137ba91906152b4565b6137c491906152b4565b6137ce9190615112565b92506000816064876137e091906152b4565b6137ea9190615112565b836137f591906150bc565b905060008087905060005b61010081101561389b57819250600087838461381c91906152b4565b61382691906150bc565b905060008a8660028661383991906152b4565b61384391906150bc565b61384d919061530e565b9050808261385b9190615112565b935061387085856138f490919063ffffffff16565b15613886578399505050505050505050506138d7565b50508080613893906154b4565b915050613800565b506040517f08c379a00000000000000000000000000000000000000000000000000000000081526004016138ce90614b7e565b60405180910390fd5b9392505050565b60006002826138ed9190615112565b9050919050565b60006001613902848461390c565b1115905092915050565b600081831115613929578183613922919061530e565b9050613938565b8282613935919061530e565b90505b92915050565b6040518060400160405280600290602082028036833780820191505090505090565b600061397361396e84614f7e565b614f59565b9050808285602086028201111561398957600080fd5b60005b858110156139b9578161399f8882613bff565b84526020840193506020830192505060018101905061398c565b5050509392505050565b60006139d66139d184614fa4565b614f59565b9050828152602081018484840111156139ee57600080fd5b6139f9848285615441565b509392505050565b6000613a14613a0f84614fa4565b614f59565b905082815260208101848484011115613a2c57600080fd5b613a37848285615450565b509392505050565b600081359050613a4e816158ad565b92915050565b60008083601f840112613a6657600080fd5b8235905067ffffffffffffffff811115613a7f57600080fd5b602083019150836020820283011115613a9757600080fd5b9250929050565b600081905082602060020282011115613ab657600080fd5b92915050565b600082601f830112613acd57600080fd5b6002613ada848285613960565b91505092915050565b60008083601f840112613af557600080fd5b8235905067ffffffffffffffff811115613b0e57600080fd5b602083019150836020820283011115613b2657600080fd5b9250929050565b600081359050613b3c816158c4565b92915050565b600081519050613b51816158c4565b92915050565b600081359050613b66816158db565b92915050565b600081359050613b7b816158f2565b92915050565b600081359050613b9081615909565b92915050565b600082601f830112613ba757600080fd5b8135613bb78482602086016139c3565b91505092915050565b600082601f830112613bd157600080fd5b8151613be1848260208601613a01565b91505092915050565b600081359050613bf981615920565b92915050565b600081519050613c0e81615920565b92915050565b600081359050613c2381615937565b92915050565b600081519050613c3881615937565b92915050565b600060208284031215613c5057600080fd5b6000613c5e84828501613a3f565b91505092915050565b60008060008060008060c08789031215613c8057600080fd5b6000613c8e89828a01613a3f565b9650506020613c9f89828a01613bea565b9550506040613cb089828a01613bea565b9450506060613cc189828a01613c14565b9350506080613cd289828a01613b57565b92505060a0613ce389828a01613b57565b9150509295509295509295565b60008060208385031215613d0357600080fd5b600083013567ffffffffffffffff811115613d1d57600080fd5b613d2985828601613a54565b92509250509250929050565b600080600060808486031215613d4a57600080fd5b6000613d5886828701613a9e565b9350506040613d6986828701613bea565b9250506060613d7a86828701613bea565b9150509250925092565b600060408284031215613d9657600080fd5b6000613da484828501613abc565b91505092915050565b600080600060408486031215613dc257600080fd5b600084013567ffffffffffffffff811115613ddc57600080fd5b613de886828701613ae3565b93509350506020613dfb86828701613b2d565b9150509250925092565b600060208284031215613e1757600080fd5b6000613e2584828501613b42565b91505092915050565b600080600080600080600080610100898b031215613e4b57600080fd5b6000613e598b828c01613b6c565b9850506020613e6a8b828c01613b6c565b975050604089013567ffffffffffffffff811115613e8757600080fd5b613e938b828c01613b96565b965050606089013567ffffffffffffffff811115613eb057600080fd5b613ebc8b828c01613b96565b9550506080613ecd8b828c01613bea565b94505060a0613ede8b828c01613bea565b93505060c0613eef8b828c01613bea565b92505060e0613f008b828c01613b81565b9150509295985092959890939650565b60008060408385031215613f2357600080fd5b6000613f3185828601613b6c565b9250506020613f4285828601613bea565b9150509250929050565b60008060008060808587031215613f6257600080fd5b6000613f7087828801613b6c565b9450506020613f8187828801613bea565b9350506040613f9287828801613bea565b9250506060613fa387828801613bea565b91505092959194509250565b600060208284031215613fc157600080fd5b600082015167ffffffffffffffff811115613fdb57600080fd5b613fe784828501613bc0565b91505092915050565b60006020828403121561400257600080fd5b600061401084828501613bea565b91505092915050565b60006020828403121561402b57600080fd5b600061403984828501613bff565b91505092915050565b60008060006080848603121561405757600080fd5b600061406586828701613bea565b935050602061407686828701613a9e565b925050606061408786828701613bea565b9150509250925092565b600080604083850312156140a457600080fd5b60006140b285828601613bea565b92505060206140c385828601613b6c565b9150509250929050565b600080600080608085870312156140e357600080fd5b60006140f187828801613bea565b945050602061410287828801613b6c565b935050604061411387828801613bea565b925050606061412487828801613bea565b91505092959194509250565b6000806040838503121561414357600080fd5b600061415185828601613bea565b925050602061416285828601613bea565b9150509250929050565b60006020828403121561417e57600080fd5b600061418c84828501613c29565b91505092915050565b60006141a183836143c5565b905092915050565b60006141b583836146e2565b60408301905092915050565b60006141cd838361471f565b60208301905092915050565b6141e281615376565b82525050565b60006141f382614ff9565b6141fd8185615057565b93508360208202850161420f85614fd5565b8060005b8581101561424b578484038952815161422c8582614195565b945061423783615030565b925060208a01995050600181019050614213565b50829750879550505050505092915050565b61426681615004565b6142708184615068565b925061427b82614fe5565b8060005b838110156142ac57815161429387826141a9565b965061429e8361503d565b92505060018101905061427f565b505050505050565b6142c060408383615441565b5050565b6142cd8161500f565b6142d78184615073565b92506142e282614fef565b8060005b838110156143135781516142fa87826141c1565b96506143058361504a565b9250506001810190506142e6565b505050505050565b6000614327838561507e565b93507f07ffffffffffffffffffffffffffffffffffffffffffffffffffffffffffffff83111561435657600080fd5b602083029250614367838584615441565b82840190509392505050565b61437c81615388565b82525050565b61438b81615388565b82525050565b61439a81615394565b82525050565b60006143ac83856150a0565b93506143b9838584615441565b82840190509392505050565b60006143d08261501a565b6143da818561508f565b93506143ea818560208601615450565b6143f38161558a565b840191505092915050565b614407816153f9565b82525050565b614416816153f9565b82525050565b6144258161541d565b82525050565b6144348161541d565b82525050565b600061444582615025565b61444f81856150ab565b935061445f818560208601615450565b6144688161558a565b840191505092915050565b60006144806026836150ab565b915061448b826155a8565b604082019050919050565b60006144a36010836150ab565b91506144ae826155f7565b602082019050919050565b60006144c66018836150ab565b91506144d182615620565b602082019050919050565b60006144e96019836150ab565b91506144f482615649565b602082019050919050565b600061450c6012836150ab565b915061451782615672565b602082019050919050565b600061452f600e836150ab565b915061453a8261569b565b602082019050919050565b60006145526016836150ab565b915061455d826156c4565b602082019050919050565b60006145756012836150ab565b9150614580826156ed565b602082019050919050565b6000614598602e836150ab565b91506145a382615716565b604082019050919050565b60006145bb6020836150ab565b91506145c682615765565b602082019050919050565b60006145de6010836150ab565b91506145e98261578e565b602082019050919050565b60006146016012836150ab565b915061460c826157b7565b602082019050919050565b60006146246014836150ab565b915061462f826157e0565b602082019050919050565b6000614647601e836150ab565b915061465282615809565b602082019050919050565b600061466a6013836150ab565b915061467582615832565b602082019050919050565b600061468d601f836150ab565b91506146988261585b565b602082019050919050565b60006146b0601c836150ab565b91506146bb82615884565b602082019050919050565b8082525050565b8082525050565b8082525050565b8082525050565b6040820160008201516146f8600085018261440d565b50602082015161470b602085018261474c565b50505050565b8082525050565b8082525050565b614728816153e2565b82525050565b614737816153e2565b82525050565b614746816153e2565b82525050565b614755816153e2565b82525050565b614764816153ec565b82525050565b60006147778284866143a0565b91508190509392505050565b600060208201905061479860008301846141d9565b92915050565b60006040820190506147b360008301856141d9565b6147c060208301846141d9565b9392505050565b600060e0820190506147dc600083018a6141d9565b6147e960208301896141d9565b6147f6604083018861472e565b614803606083018761472e565b614810608083018661475b565b61481d60a0830185614391565b61482a60c0830184614391565b98975050505050505050565b6000602082019050818103600083015261485081846141e8565b905092915050565b60006101408201905061486e600083018961425d565b61487b60808301886142b4565b61488860c083018761473d565b61489560e08301866146cd565b6148a36101008301856146db565b6148b161012083018461442b565b979650505050505050565b6000610100820190506148d2600083018961425d565b81810360808301526148e581878961431b565b90506148f460a0830186614382565b61490160c08301856146cd565b61490e60e083018461442b565b979650505050505050565b600060408201905061492e60008301846142c4565b92915050565b60006020820190506149496000830184614373565b92915050565b600060208201905061496460008301846143fe565b92915050565b600060208201905061497f600083018461441c565b92915050565b6000602082019050818103600083015261499f818461443a565b905092915050565b600060408201905081810360008301526149c1818561443a565b905081810360208301526149d5818461443a565b90509392505050565b600060208201905081810360008301526149f781614473565b9050919050565b60006020820190508181036000830152614a1781614496565b9050919050565b60006020820190508181036000830152614a37816144b9565b9050919050565b60006020820190508181036000830152614a57816144dc565b9050919050565b60006020820190508181036000830152614a77816144ff565b9050919050565b60006020820190508181036000830152614a9781614522565b9050919050565b60006020820190508181036000830152614ab781614545565b9050919050565b60006020820190508181036000830152614ad781614568565b9050919050565b60006020820190508181036000830152614af78161458b565b9050919050565b60006020820190508181036000830152614b17816145ae565b9050919050565b60006020820190508181036000830152614b37816145d1565b9050919050565b60006020820190508181036000830152614b57816145f4565b9050919050565b60006020820190508181036000830152614b7781614617565b9050919050565b60006020820190508181036000830152614b978161463a565b9050919050565b60006020820190508181036000830152614bb78161465d565b9050919050565b60006020820190508181036000830152614bd781614680565b9050919050565b60006020820190508181036000830152614bf7816146a3565b9050919050565b6000602082019050614c1360008301846146c6565b92915050565b6000606082019050614c2e60008301866146c6565b614c3b602083018561473d565b614c48604083018461473d565b949350505050565b6000604082019050614c6560008301856146d4565b614c72602083018461473d565b9392505050565b6000602082019050614c8e6000830184614711565b92915050565b6000608082019050614ca96000830187614718565b614cb66020830186614718565b614cc360408301856146cd565b614cd0606083018461442b565b95945050505050565b600060a082019050614cee6000830188614718565b614cfb6020830187614718565b614d08604083018661473d565b614d1560608301856146cd565b614d2260808301846146db565b9695505050505050565b600060c082019050614d416000830189614718565b614d4e6020830188614718565b614d5b604083018761473d565b614d68606083018661473d565b614d7560808301856146cd565b614d8260a08301846146db565b979650505050505050565b6000602082019050614da2600083018461472e565b92915050565b600061010082019050614dbe600083018761473d565b614dcb602083018661425d565b614dd860a08301856142b4565b614de560e083018461442b565b95945050505050565b600060c082019050614e03600083018661473d565b614e10602083018561425d565b614e1d60a083018461442b565b949350505050565b600060e082019050614e3a600083018a61473d565b614e476020830189614718565b614e546040830188614718565b614e61606083018761473d565b614e6e60808301866146cd565b614e7b60a08301856146db565b614e8860c083018461442b565b98975050505050505050565b6000604082019050614ea9600083018561472e565b614eb6602083018461472e565b9392505050565b6000608082019050614ed2600083018761472e565b614edf602083018661472e565b614eec604083018561472e565b614ef9606083018461472e565b95945050505050565b60008083356001602003843603038112614f1b57600080fd5b80840192508235915067ffffffffffffffff821115614f3957600080fd5b602083019250600182023603831315614f5157600080fd5b509250929050565b6000614f63614f74565b9050614f6f8282615483565b919050565b6000604051905090565b600067ffffffffffffffff821115614f9957614f9861555b565b5b602082029050919050565b600067ffffffffffffffff821115614fbf57614fbe61555b565b5b614fc88261558a565b9050602081019050919050565b6000819050602082019050919050565b6000819050919050565b6000819050919050565b600081519050919050565b600060029050919050565b600060029050919050565b600081519050919050565b600081519050919050565b6000602082019050919050565b6000602082019050919050565b6000602082019050919050565b600082825260208201905092915050565b600081905092915050565b600081905092915050565b600082825260208201905092915050565b600082825260208201905092915050565b600081905092915050565b600082825260208201905092915050565b60006150c7826153e2565b91506150d2836153e2565b9250827fffffffffffffffffffffffffffffffffffffffffffffffffffffffffffffffff03821115615107576151066154fd565b5b828201905092915050565b600061511d826153e2565b9150615128836153e2565b9250826151385761513761552c565b5b828204905092915050565b6000808291508390505b600185111561518d57808604811115615169576151686154fd565b5b60018516156151785780820291505b80810290506151868561559b565b945061514d565b94509492505050565b60006151a1826153e2565b91506151ac836153ec565b92506151d97fffffffffffffffffffffffffffffffffffffffffffffffffffffffffffffffff84846151e1565b905092915050565b6000826151f157600190506152ad565b816151ff57600090506152ad565b8160018114615215576002811461521f5761524e565b60019150506152ad565b60ff841115615231576152306154fd565b5b8360020a915084821115615248576152476154fd565b5b506152ad565b5060208310610133831016604e8410600b84101617156152835782820a90508381111561527e5761527d6154fd565b5b6152ad565b6152908484846001615143565b925090508184048111156152a7576152a66154fd565b5b81810290505b9392505050565b60006152bf826153e2565b91506152ca836153e2565b9250817fffffffffffffffffffffffffffffffffffffffffffffffffffffffffffffffff0483118215151615615303576153026154fd565b5b828202905092915050565b6000615319826153e2565b9150615324836153e2565b925082821015615337576153366154fd565b5b828203905092915050565b600061534d826153ec565b9150615358836153ec565b92508282101561536b5761536a6154fd565b5b828203905092915050565b6000615381826153c2565b9050919050565b60008115159050919050565b6000819050919050565b60006153a982615376565b9050919050565b60006153bb82615376565b9050919050565b600073ffffffffffffffffffffffffffffffffffffffff82169050919050565b6000819050919050565b600060ff82169050919050565b60006154048261540b565b9050919050565b6000615416826153c2565b9050919050565b60006154288261542f565b9050919050565b600061543a826153c2565b9050919050565b82818337600083830152505050565b60005b8381101561546e578082015181840152602081019050615453565b8381111561547d576000848401525b50505050565b61548c8261558a565b810181811067ffffffffffffffff821117156154ab576154aa61555b565b5b80604052505050565b60006154bf826153e2565b91507fffffffffffffffffffffffffffffffffffffffffffffffffffffffffffffffff8214156154f2576154f16154fd565b5b600182019050919050565b7f4e487b7100000000000000000000000000000000000000000000000000000000600052601160045260246000fd5b7f4e487b7100000000000000000000000000000000000000000000000000000000600052601260045260246000fd5b7f4e487b7100000000000000000000000000000000000000000000000000000000600052604160045260246000fd5b6000601f19601f8301169050919050565b60008160011c9050919050565b7f4f776e61626c653a206e6577206f776e657220697320746865207a65726f206160008201527f6464726573730000000000000000000000000000000000000000000000000000602082015250565b7f4455504c49434154455f544f4b454e5300000000000000000000000000000000600082015250565b7f414d4f554e545f455843454544535f415641494c41424c450000000000000000600082015250565b7f5f61646d696e4665652065786365656473206d6178696d756d00000000000000600082015250565b7f544f4b454e305f5a45524f414444524553530000000000000000000000000000600082015250565b7f4241445f544f4b454e5f46524f4d000000000000000000000000000000000000600082015250565b7f455243313136373a20637265617465206661696c656400000000000000000000600082015250565b7f5f612065786365656473206d6178696d756d0000000000000000000000000000600082015250565b7f496e697469616c697a61626c653a20636f6e747261637420697320616c72656160008201527f647920696e697469616c697a6564000000000000000000000000000000000000602082015250565b7f4f776e61626c653a2063616c6c6572206973206e6f7420746865206f776e6572600082015250565b7f446561646c696e65206e6f74206d657400000000000000000000000000000000600082015250565b7f544f4b454e315f5a45524f414444524553530000000000000000000000000000600082015250565b7f5f6665652065786365656473206d6178696d756d000000000000000000000000600082015250565b7f417070726f78696d6174696f6e20646964206e6f7420636f6e76657267650000600082015250565b7f4420646f6573206e6f7420636f6e766572676500000000000000000000000000600082015250565b7f5265656e7472616e637947756172643a207265656e7472616e742063616c6c00600082015250565b7f636f756c64206e6f7420696e6974206c70546f6b656e20636c6f6e6500000000600082015250565b6158b681615376565b81146158c157600080fd5b50565b6158cd81615388565b81146158d857600080fd5b50565b6158e481615394565b81146158ef57600080fd5b50565b6158fb8161539e565b811461590657600080fd5b50565b615912816153b0565b811461591d57600080fd5b50565b615929816153e2565b811461593457600080fd5b50565b615940816153ec565b811461594b57600080fd5b5056fea26469706673582212207bf461775c2cb6ac28fa4beba05cd1edf3499ec2126f768fbbeea85a249a728464736f6c63430008040033",
  "deployedBytecode": "0x6080604052600436106101cd5760003560e01c8063afcd5f4b116100f7578063ce1fdb8b11610095578063e6ab280611610064578063e6ab28061461068c578063f2fad2b6146106c9578063f2fde38b14610706578063f3995c671461072f576101cd565b8063ce1fdb8b146105bc578063d46300fd146105f9578063d6f0df6214610624578063e25aa5fa14610661576101cd565b8063c2d9ecfa116100d1578063c2d9ecfa14610521578063c2e3140a1461054c578063c4db7fa014610568578063c9ec92481461057f576101cd565b8063afcd5f4b1461047c578063ba94a315146104b9578063bfc65c9b146104e4576101cd565b80635fcbd2851161016f5780638beb60b61161013e5780638beb60b6146103cc5780638da5cb5b146103f55780639242164f14610420578063ac9650d81461044c576101cd565b80635fcbd285146103225780636f26a7101461034d578063715018a614610378578063805d27661461038f576101cd565b806334e19907116101ab57806334e199071461026857806346eda749146102915780635153786b146102ce578063593d132c146102f9576101cd565b80630ba81959146101d25780631de8d8cb146101fd578063256967ac1461023a575b600080fd5b3480156101de57600080fd5b506101e761074b565b6040516101f49190614d8d565b60405180910390f35b34801561020957600080fd5b50610224600480360381019061021f9190613f10565b6107dc565b6040516102319190614d8d565b60405180910390f35b34801561024657600080fd5b5061024f61096a565b60405161025f9493929190614ebd565b60405180910390f35b34801561027457600080fd5b5061028f600480360381019061028a9190613ff0565b610988565b005b34801561029d57600080fd5b506102b860048036038101906102b39190613d35565b610a73565b6040516102c59190614d8d565b60405180910390f35b3480156102da57600080fd5b506102e3610c86565b6040516102f09190614d8d565b60405180910390f35b34801561030557600080fd5b50610320600480360381019061031b9190614130565b610d17565b005b34801561032e57600080fd5b50610337610e05565b604051610344919061496a565b60405180910390f35b34801561035957600080fd5b50610362610e2b565b60405161036f919061494f565b60405180910390f35b34801561038457600080fd5b5061038d610e58565b005b34801561039b57600080fd5b506103b660048036038101906103b19190614091565b610ee0565b6040516103c39190614d8d565b60405180910390f35b3480156103d857600080fd5b506103f360048036038101906103ee9190613ff0565b610fb0565b005b34801561040157600080fd5b5061040a61109b565b6040516104179190614783565b60405180910390f35b34801561042c57600080fd5b506104356110c5565b604051610443929190614e94565b60405180910390f35b61046660048036038101906104619190613cf0565b6110d7565b6040516104739190614836565b60405180910390f35b34801561048857600080fd5b506104a3600480360381019061049e9190613e2e565b6112e3565b6040516104b09190614934565b60405180910390f35b3480156104c557600080fd5b506104ce6119ed565b6040516104db919061494f565b60405180910390f35b3480156104f057600080fd5b5061050b60048036038101906105069190613d35565b611a1a565b6040516105189190614d8d565b60405180910390f35b34801561052d57600080fd5b50610536611c2d565b6040516105439190614d8d565b60405180910390f35b61056660048036038101906105619190613c67565b611cbe565b005b34801561057457600080fd5b5061057d611d78565b005b34801561058b57600080fd5b506105a660048036038101906105a19190613f4c565b611e60565b6040516105b39190614d8d565b60405180910390f35b3480156105c857600080fd5b506105e360048036038101906105de91906140cd565b6120f0565b6040516105f09190614d8d565b60405180910390f35b34801561060557600080fd5b5061060e612330565b60405161061b9190614d8d565b60405180910390f35b34801561063057600080fd5b5061064b60048036038101906106469190614042565b6123c1565b6040516106589190614919565b60405180910390f35b34801561066d57600080fd5b506106766125d3565b6040516106839190614d8d565b60405180910390f35b34801561069857600080fd5b506106b360048036038101906106ae9190613dad565b61268c565b6040516106c09190614d8d565b60405180910390f35b3480156106d557600080fd5b506106f060048036038101906106eb9190613ff0565b61283c565b6040516106fd9190614919565b60405180910390f35b34801561071257600080fd5b5061072d60048036038101906107289190613c3e565b6129e9565b005b61074960048036038101906107449190613c67565b612a71565b005b6000609973__$134e00c0bcac37abc21e465e57a9b81eef$__635d5c4f9690916040518263ffffffff1660e01b81526004016107879190614bfe565b60206040518083038186803b15801561079f57600080fd5b505af41580156107b3573d6000803e3d6000fd5b505050506040513d601f19601f820116820180604052508101906107d79190614019565b905090565b6000609d60000160009054906101000a900473ffffffffffffffffffffffffffffffffffffffff1673ffffffffffffffffffffffffffffffffffffffff168373ffffffffffffffffffffffffffffffffffffffff16146108ce5773__$134e00c0bcac37abc21e465e57a9b81eef$__63e5537d20609f609d85609960976040518663ffffffff1660e01b8152600401610879959493929190614cd9565b60206040518083038186803b15801561089157600080fd5b505af41580156108a5573d6000803e3d6000fd5b505050506040513d601f19601f820116820180604052508101906108c99190614019565b610962565b73__$134e00c0bcac37abc21e465e57a9b81eef$__63e5537d20609d609f85609960976040518663ffffffff1660e01b8152600401610911959493929190614cd9565b60206040518083038186803b15801561092957600080fd5b505af415801561093d573d6000803e3d6000fd5b505050506040513d601f19601f820116820180604052508101906109619190614019565b5b905092915050565b60998060000154908060010154908060020154908060030154905084565b610990612a87565b73ffffffffffffffffffffffffffffffffffffffff166109ae61109b565b73ffffffffffffffffffffffffffffffffffffffff1614610a04576040517f08c379a00000000000000000000000000000000000000000000000000000000081526004016109fb90614afe565b60405180910390fd5b609773__$134e00c0bcac37abc21e465e57a9b81eef$__6344b4519c9091836040518363ffffffff1660e01b8152600401610a40929190614c50565b60006040518083038186803b158015610a5857600080fd5b505af4158015610a6c573d6000803e3d6000fd5b5050505050565b600060026065541415610abb576040517f08c379a0000000000000000000000000000000000000000000000000000000008152600401610ab290614bbe565b60405180910390fd5b600260658190555081610acd81612a8f565b60006040518060400160405280609d6040518060400160405290816000820160009054906101000a900473ffffffffffffffffffffffffffffffffffffffff1673ffffffffffffffffffffffffffffffffffffffff1673ffffffffffffffffffffffffffffffffffffffff1681526020016001820154815250508152602001609f6040518060400160405290816000820160009054906101000a900473ffffffffffffffffffffffffffffffffffffffff1673ffffffffffffffffffffffffffffffffffffffff1673ffffffffffffffffffffffffffffffffffffffff168152602001600182015481525050815250905073__$134e00c0bcac37abc21e465e57a9b81eef$__635aa533ee8288886099609760a160009054906101000a900473ffffffffffffffffffffffffffffffffffffffff166040518763ffffffff1660e01b8152600401610c2396959493929190614858565b60206040518083038186803b158015610c3b57600080fd5b505af4158015610c4f573d6000803e3d6000fd5b505050506040513d601f19601f82011682018060405250810190610c739190614019565b9250505060016065819055509392505050565b6000609f73__$134e00c0bcac37abc21e465e57a9b81eef$__636cc631fa90916040518263ffffffff1660e01b8152600401610cc29190614c79565b60206040518083038186803b158015610cda57600080fd5b505af4158015610cee573d6000803e3d6000fd5b505050506040513d601f19601f82011682018060405250810190610d129190614019565b905090565b610d1f612a87565b73ffffffffffffffffffffffffffffffffffffffff16610d3d61109b565b73ffffffffffffffffffffffffffffffffffffffff1614610d93576040517f08c379a0000000000000000000000000000000000000000000000000000000008152600401610d8a90614afe565b60405180910390fd5b609973__$134e00c0bcac37abc21e465e57a9b81eef$__6314f685c3909184846040518463ffffffff1660e01b8152600401610dd193929190614c19565b60006040518083038186803b158015610de957600080fd5b505af4158015610dfd573d6000803e3d6000fd5b505050505050565b60a160009054906101000a900473ffffffffffffffffffffffffffffffffffffffff1681565b6000609f60000160009054906101000a900473ffffffffffffffffffffffffffffffffffffffff16905090565b610e60612a87565b73ffffffffffffffffffffffffffffffffffffffff16610e7e61109b565b73ffffffffffffffffffffffffffffffffffffffff1614610ed4576040517f08c379a0000000000000000000000000000000000000000000000000000000008152600401610ecb90614afe565b60405180910390fd5b610ede6000612ad5565b565b6000609d60000160009054906101000a900473ffffffffffffffffffffffffffffffffffffffff1673ffffffffffffffffffffffffffffffffffffffff168273ffffffffffffffffffffffffffffffffffffffff1614610f7357610f6e83609f609d6099609760a160009054906101000a900473ffffffffffffffffffffffffffffffffffffffff16612b9b565b610fa8565b610fa783609d609f6099609760a160009054906101000a900473ffffffffffffffffffffffffffffffffffffffff16612b9b565b5b905092915050565b610fb8612a87565b73ffffffffffffffffffffffffffffffffffffffff16610fd661109b565b73ffffffffffffffffffffffffffffffffffffffff161461102c576040517f08c379a000000000000000000000000000000000000000000000000000000000815260040161102390614afe565b60405180910390fd5b609773__$134e00c0bcac37abc21e465e57a9b81eef$__6327d047759091836040518363ffffffff1660e01b8152600401611068929190614c50565b60006040518083038186803b15801561108057600080fd5b505af4158015611094573d6000803e3d6000fd5b5050505050565b6000603360009054906101000a900473ffffffffffffffffffffffffffffffffffffffff16905090565b60978060000154908060010154905082565b60608282905067ffffffffffffffff81111561111c577f4e487b7100000000000000000000000000000000000000000000000000000000600052604160045260246000fd5b60405190808252806020026020018201604052801561114f57816020015b606081526020019060019003908161113a5790505b50905060005b838390508110156112dc576000803073ffffffffffffffffffffffffffffffffffffffff168686858181106111b3577f4e487b7100000000000000000000000000000000000000000000000000000000600052603260045260246000fd5b90506020028101906111c59190614f02565b6040516111d392919061476a565b600060405180830381855af49150503d806000811461120e576040519150601f19603f3d011682016040523d82523d6000602084013e611213565b606091505b5091509150816112825760448151101561122c57600080fd5b600481019050808060200190518101906112469190613faf565b6040517f08c379a00000000000000000000000000000000000000000000000000000000081526004016112799190614985565b60405180910390fd5b808484815181106112bc577f4e487b7100000000000000000000000000000000000000000000000000000000600052603260045260246000fd5b6020026020010181905250505080806112d4906154b4565b915050611155565b5092915050565b60008060019054906101000a900460ff168061130a575060008054906101000a900460ff16155b611349576040517f08c379a000000000000000000000000000000000000000000000000000000000815260040161134090614ade565b60405180910390fd5b60008060019054906101000a900460ff161590508015611399576001600060016101000a81548160ff02191690831515021790555060016000806101000a81548160ff0219169083151502179055505b6113a1612c3a565b6113a9612d13565b6113b1612dfc565b8873ffffffffffffffffffffffffffffffffffffffff168a73ffffffffffffffffffffffffffffffffffffffff161415611420576040517f08c379a0000000000000000000000000000000000000000000000000000000008152600401611417906149fe565b60405180910390fd5b600073ffffffffffffffffffffffffffffffffffffffff168a73ffffffffffffffffffffffffffffffffffffffff161415611490576040517f08c379a000000000000000000000000000000000000000000000000000000000815260040161148790614a5e565b60405180910390fd5b600073ffffffffffffffffffffffffffffffffffffffff168973ffffffffffffffffffffffffffffffffffffffff161415611500576040517f08c379a00000000000000000000000000000000000000000000000000000000081526004016114f790614b3e565b60405180910390fd5b60008a73ffffffffffffffffffffffffffffffffffffffff1663313ce5676040518163ffffffff1660e01b815260040160206040518083038186803b15801561154857600080fd5b505afa15801561155c573d6000803e3d6000fd5b505050506040513d601f19601f82011682018060405250810190611580919061416c565b905060008160ff161161159257600080fd5b60405180604001604052808c73ffffffffffffffffffffffffffffffffffffffff1681526020018260126115c69190615342565b600a6115d29190615196565b815250609d60008201518160000160006101000a81548173ffffffffffffffffffffffffffffffffffffffff021916908373ffffffffffffffffffffffffffffffffffffffff1602179055506020820151816001015590505060008a73ffffffffffffffffffffffffffffffffffffffff1663313ce5676040518163ffffffff1660e01b815260040160206040518083038186803b15801561167357600080fd5b505afa158015611687573d6000803e3d6000fd5b505050506040513d601f19601f820116820180604052508101906116ab919061416c565b905060008160ff16116116bd57600080fd5b60405180604001604052808c73ffffffffffffffffffffffffffffffffffffffff1681526020018260126116f19190615342565b600a6116fd9190615196565b815250609f60008201518160000160006101000a81548173ffffffffffffffffffffffffffffffffffffffff021916908373ffffffffffffffffffffffffffffffffffffffff16021790555060208201518160010155905050620f4240881061179b576040517f08c379a000000000000000000000000000000000000000000000000000000000815260040161179290614abe565b60405180910390fd5b6064886117a891906152b4565b6099600001819055506064886117be91906152b4565b6099600101819055506305f5e100871061180d576040517f08c379a000000000000000000000000000000000000000000000000000000000815260040161180490614b5e565b60405180910390fd5b6402540be4008610611854576040517f08c379a000000000000000000000000000000000000000000000000000000000815260040161184b90614a3e565b60405180910390fd5b6040518060400160405280888152602001878152506097600082015181600001556020820151816001015590505061188b85612edd565b60a160006101000a81548173ffffffffffffffffffffffffffffffffffffffff021916908373ffffffffffffffffffffffffffffffffffffffff16021790555060a160009054906101000a900473ffffffffffffffffffffffffffffffffffffffff1673ffffffffffffffffffffffffffffffffffffffff16634cd88b768b8b6040518363ffffffff1660e01b81526004016119289291906149a7565b602060405180830381600087803b15801561194257600080fd5b505af1158015611956573d6000803e3d6000fd5b505050506040513d601f19601f8201168201806040525081019061197a9190613e05565b6119b9576040517f08c379a00000000000000000000000000000000000000000000000000000000081526004016119b090614bde565b60405180910390fd5b60019350505080156119e05760008060016101000a81548160ff0219169083151502179055505b5098975050505050505050565b6000609d60000160009054906101000a900473ffffffffffffffffffffffffffffffffffffffff16905090565b600060026065541415611a62576040517f08c379a0000000000000000000000000000000000000000000000000000000008152600401611a5990614bbe565b60405180910390fd5b600260658190555081611a7481612a8f565b60006040518060400160405280609d6040518060400160405290816000820160009054906101000a900473ffffffffffffffffffffffffffffffffffffffff1673ffffffffffffffffffffffffffffffffffffffff1673ffffffffffffffffffffffffffffffffffffffff1681526020016001820154815250508152602001609f6040518060400160405290816000820160009054906101000a900473ffffffffffffffffffffffffffffffffffffffff1673ffffffffffffffffffffffffffffffffffffffff1673ffffffffffffffffffffffffffffffffffffffff168152602001600182015481525050815250905073__$134e00c0bcac37abc21e465e57a9b81eef$__6302eb2c228288886099609760a160009054906101000a900473ffffffffffffffffffffffffffffffffffffffff166040518763ffffffff1660e01b8152600401611bca96959493929190614858565b60206040518083038186803b158015611be257600080fd5b505af4158015611bf6573d6000803e3d6000fd5b505050506040513d601f19601f82011682018060405250810190611c1a9190614019565b9250505060016065819055509392505050565b6000609d73__$134e00c0bcac37abc21e465e57a9b81eef$__636cc631fa90916040518263ffffffff1660e01b8152600401611c699190614c79565b60206040518083038186803b158015611c8157600080fd5b505af4158015611c95573d6000803e3d6000fd5b505050506040513d601f19601f82011682018060405250810190611cb99190614019565b905090565b60008673ffffffffffffffffffffffffffffffffffffffff1663dd62ed3e33306040518363ffffffff1660e01b8152600401611cfb92919061479e565b60206040518083038186803b158015611d1357600080fd5b505afa158015611d27573d6000803e3d6000fd5b505050506040513d601f19601f82011682018060405250810190611d4b9190614019565b905085811015611d6f57611d6e878288611d65919061530e565b87878787612fb2565b5b50505050505050565b611d80612a87565b73ffffffffffffffffffffffffffffffffffffffff16611d9e61109b565b73ffffffffffffffffffffffffffffffffffffffff1614611df4576040517f08c379a0000000000000000000000000000000000000000000000000000000008152600401611deb90614afe565b60405180910390fd5b609973__$134e00c0bcac37abc21e465e57a9b81eef$__63b0845bc590916040518263ffffffff1660e01b8152600401611e2e9190614bfe565b60006040518083038186803b158015611e4657600080fd5b505af4158015611e5a573d6000803e3d6000fd5b50505050565b600060026065541415611ea8576040517f08c379a0000000000000000000000000000000000000000000000000000000008152600401611e9f90614bbe565b60405180910390fd5b600260658190555081611eba81612a8f565b609d60000160009054906101000a900473ffffffffffffffffffffffffffffffffffffffff1673ffffffffffffffffffffffffffffffffffffffff168673ffffffffffffffffffffffffffffffffffffffff161415611faf5773__$134e00c0bcac37abc21e465e57a9b81eef$__63cbab294f609d609f8888609960976040518763ffffffff1660e01b8152600401611f5896959493929190614d2c565b60206040518083038186803b158015611f7057600080fd5b505af4158015611f84573d6000803e3d6000fd5b505050506040513d601f19601f82011682018060405250810190611fa89190614019565b91506120df565b609f60000160009054906101000a900473ffffffffffffffffffffffffffffffffffffffff1673ffffffffffffffffffffffffffffffffffffffff168673ffffffffffffffffffffffffffffffffffffffff1614156120a45773__$134e00c0bcac37abc21e465e57a9b81eef$__63cbab294f609f609d8888609960976040518763ffffffff1660e01b815260040161204d96959493929190614d2c565b60206040518083038186803b15801561206557600080fd5b505af4158015612079573d6000803e3d6000fd5b505050506040513d601f19601f8201168201806040525081019061209d9190614019565b91506120df565b6040517f08c379a00000000000000000000000000000000000000000000000000000000081526004016120d690614a7e565b60405180910390fd5b506001606581905550949350505050565b600060026065541415612138576040517f08c379a000000000000000000000000000000000000000000000000000000000815260040161212f90614bbe565b60405180910390fd5b60026065819055508161214a81612a8f565b609d60000160009054906101000a900473ffffffffffffffffffffffffffffffffffffffff1673ffffffffffffffffffffffffffffffffffffffff168573ffffffffffffffffffffffffffffffffffffffff1614156122635773__$134e00c0bcac37abc21e465e57a9b81eef$__63a7abb39687609d609f886099609760a160009054906101000a900473ffffffffffffffffffffffffffffffffffffffff166040518863ffffffff1660e01b815260040161220c9796959493929190614e25565b60206040518083038186803b15801561222457600080fd5b505af4158015612238573d6000803e3d6000fd5b505050506040513d601f19601f8201168201806040525081019061225c9190614019565b915061231f565b73__$134e00c0bcac37abc21e465e57a9b81eef$__63a7abb39687609f609d886099609760a160009054906101000a900473ffffffffffffffffffffffffffffffffffffffff166040518863ffffffff1660e01b81526004016122cc9796959493929190614e25565b60206040518083038186803b1580156122e457600080fd5b505af41580156122f8573d6000803e3d6000fd5b505050506040513d601f19601f8201168201806040525081019061231c9190614019565b91505b506001606581905550949350505050565b6000609973__$134e00c0bcac37abc21e465e57a9b81eef$__63c15dc17c90916040518263ffffffff1660e01b815260040161236c9190614bfe565b60206040518083038186803b15801561238457600080fd5b505af4158015612398573d6000803e3d6000fd5b505050506040513d601f19601f820116820180604052508101906123bc9190614019565b905090565b6123c961393e565b6002606554141561240f576040517f08c379a000000000000000000000000000000000000000000000000000000000815260040161240690614bbe565b60405180910390fd5b60026065819055508161242181612a8f565b60006040518060400160405280609d6040518060400160405290816000820160009054906101000a900473ffffffffffffffffffffffffffffffffffffffff1673ffffffffffffffffffffffffffffffffffffffff1673ffffffffffffffffffffffffffffffffffffffff1681526020016001820154815250508152602001609f6040518060400160405290816000820160009054906101000a900473ffffffffffffffffffffffffffffffffffffffff1673ffffffffffffffffffffffffffffffffffffffff1673ffffffffffffffffffffffffffffffffffffffff168152602001600182015481525050815250905073__$134e00c0bcac37abc21e465e57a9b81eef$__632657942987838860a160009054906101000a900473ffffffffffffffffffffffffffffffffffffffff166040518563ffffffff1660e01b81526004016125719493929190614da8565b604080518083038186803b15801561258857600080fd5b505af415801561259c573d6000803e3d6000fd5b505050506040513d601f19601f820116820180604052508101906125c09190613d84565b9250505060016065819055509392505050565b600073__$134e00c0bcac37abc21e465e57a9b81eef$__63809d0648609d609f609960a160009054906101000a900473ffffffffffffffffffffffffffffffffffffffff166040518563ffffffff1660e01b81526004016126379493929190614c94565b60206040518083038186803b15801561264f57600080fd5b505af4158015612663573d6000803e3d6000fd5b505050506040513d601f19601f820116820180604052508101906126879190614019565b905090565b6000806040518060400160405280609d6040518060400160405290816000820160009054906101000a900473ffffffffffffffffffffffffffffffffffffffff1673ffffffffffffffffffffffffffffffffffffffff1673ffffffffffffffffffffffffffffffffffffffff1681526020016001820154815250508152602001609f6040518060400160405290816000820160009054906101000a900473ffffffffffffffffffffffffffffffffffffffff1673ffffffffffffffffffffffffffffffffffffffff1673ffffffffffffffffffffffffffffffffffffffff168152602001600182015481525050815250905073__$134e00c0bcac37abc21e465e57a9b81eef$__63cb6802c882878787609960a160009054906101000a900473ffffffffffffffffffffffffffffffffffffffff166040518763ffffffff1660e01b81526004016127e2969594939291906148bc565b60206040518083038186803b1580156127fa57600080fd5b505af415801561280e573d6000803e3d6000fd5b505050506040513d601f19601f820116820180604052508101906128329190614019565b9150509392505050565b61284461393e565b60006040518060400160405280609d6040518060400160405290816000820160009054906101000a900473ffffffffffffffffffffffffffffffffffffffff1673ffffffffffffffffffffffffffffffffffffffff1673ffffffffffffffffffffffffffffffffffffffff1681526020016001820154815250508152602001609f6040518060400160405290816000820160009054906101000a900473ffffffffffffffffffffffffffffffffffffffff1673ffffffffffffffffffffffffffffffffffffffff1673ffffffffffffffffffffffffffffffffffffffff168152602001600182015481525050815250905073__$134e00c0bcac37abc21e465e57a9b81eef$__63296104cd848360a160009054906101000a900473ffffffffffffffffffffffffffffffffffffffff166040518463ffffffff1660e01b815260040161299293929190614dee565b604080518083038186803b1580156129a957600080fd5b505af41580156129bd573d6000803e3d6000fd5b505050506040513d601f19601f820116820180604052508101906129e19190613d84565b915050919050565b6129f1612a87565b73ffffffffffffffffffffffffffffffffffffffff16612a0f61109b565b73ffffffffffffffffffffffffffffffffffffffff1614612a65576040517f08c379a0000000000000000000000000000000000000000000000000000000008152600401612a5c90614afe565b60405180910390fd5b612a6e81613031565b50565b612a7f868686868686612fb2565b505050505050565b600033905090565b80421115612ad2576040517f08c379a0000000000000000000000000000000000000000000000000000000008152600401612ac990614b1e565b60405180910390fd5b50565b6000603360009054906101000a900473ffffffffffffffffffffffffffffffffffffffff16905081603360006101000a81548173ffffffffffffffffffffffffffffffffffffffff021916908373ffffffffffffffffffffffffffffffffffffffff1602179055508173ffffffffffffffffffffffffffffffffffffffff168173ffffffffffffffffffffffffffffffffffffffff167f8be0079c531659141344cd1fd0a4f28419497f9722a3daafe3b4186f6b6457e060405160405180910390a35050565b600080612c298888888673ffffffffffffffffffffffffffffffffffffffff166318160ddd6040518163ffffffff1660e01b815260040160206040518083038186803b158015612bea57600080fd5b505afa158015612bfe573d6000803e3d6000fd5b505050506040513d601f19601f82011682018060405250810190612c229190614019565b8989613129565b509050809150509695505050505050565b600060019054906101000a900460ff1680612c60575060008054906101000a900460ff16155b612c9f576040517f08c379a0000000000000000000000000000000000000000000000000000000008152600401612c9690614ade565b60405180910390fd5b60008060019054906101000a900460ff161590508015612cef576001600060016101000a81548160ff02191690831515021790555060016000806101000a81548160ff0219169083151502179055505b8015612d105760008060016101000a81548160ff0219169083151502179055505b50565b600060019054906101000a900460ff1680612d39575060008054906101000a900460ff16155b612d78576040517f08c379a0000000000000000000000000000000000000000000000000000000008152600401612d6f90614ade565b60405180910390fd5b60008060019054906101000a900460ff161590508015612dc8576001600060016101000a81548160ff02191690831515021790555060016000806101000a81548160ff0219169083151502179055505b612dd8612dd3612a87565b612ad5565b8015612df95760008060016101000a81548160ff0219169083151502179055505b50565b600060019054906101000a900460ff1680612e22575060008054906101000a900460ff16155b612e61576040517f08c379a0000000000000000000000000000000000000000000000000000000008152600401612e5890614ade565b60405180910390fd5b60008060019054906101000a900460ff161590508015612eb1576001600060016101000a81548160ff02191690831515021790555060016000806101000a81548160ff0219169083151502179055505b60016065819055508015612eda5760008060016101000a81548160ff0219169083151502179055505b50565b60006040517f3d602d80600a3d3981f3363d3d373d3d3d363d7300000000000000000000000081528260601b60148201527f5af43d82803e903d91602b57fd5bf3000000000000000000000000000000000060288201526037816000f0915050600073ffffffffffffffffffffffffffffffffffffffff168173ffffffffffffffffffffffffffffffffffffffff161415612fad576040517f08c379a0000000000000000000000000000000000000000000000000000000008152600401612fa490614a9e565b60405180910390fd5b919050565b8573ffffffffffffffffffffffffffffffffffffffff1663d505accf333088888888886040518863ffffffff1660e01b8152600401612ff797969594939291906147c7565b600060405180830381600087803b15801561301157600080fd5b505af1158015613025573d6000803e3d6000fd5b50505050505050505050565b613039612a87565b73ffffffffffffffffffffffffffffffffffffffff1661305761109b565b73ffffffffffffffffffffffffffffffffffffffff16146130ad576040517f08c379a00000000000000000000000000000000000000000000000000000000081526004016130a490614afe565b60405180910390fd5b600073ffffffffffffffffffffffffffffffffffffffff168173ffffffffffffffffffffffffffffffffffffffff16141561311d576040517f08c379a0000000000000000000000000000000000000000000000000000000008152600401613114906149de565b60405180910390fd5b61312681612ad5565b50565b600080600080600061314b8b8b8b8b6131418c613196565b8b60000154613272565b8093508194508295505050506000838b60010154848461316b919061530e565b6131759190615112565b61317f919061530e565b905083819550955050505050965096945050505050565b600080826003015490506000836001015490508142101561326757600084600201549050600085600001549050808311156132195781846131d7919061530e565b82426131e3919061530e565b82856131ef919061530e565b6131f991906152b4565b6132039190615112565b8161320e91906150bc565b94505050505061326d565b8184613225919061530e565b8242613231919061530e565b848361323d919061530e565b61324791906152b4565b6132519190615112565b8161325c919061530e565b94505050505061326d565b80925050505b919050565b6000806000806132a58960000160009054906101000a900473ffffffffffffffffffffffffffffffffffffffff16613507565b905060006132b7828b60010154613599565b905060006132e88a60000160009054906101000a900473ffffffffffffffffffffffffffffffffffffffff16613507565b905060006132fa828c60010154613599565b905060006040518060a00160405280600081526020016000815260200160008152602001600081526020016000815250905089816080018181525050613345828583608001516135af565b8160000181815250508a81600001518f61335f91906152b4565b6133699190615112565b8160000151613378919061530e565b816020018181525050838e11156133c4576040517f08c379a00000000000000000000000000000000000000000000000000000000081526004016133bb90614a1e565b60405180910390fd5b6133d78160800151838360200151613761565b8160400181815250506133e9896138de565b81606001818152505060006402540be40082606001518360400151846000015185602001518961341991906152b4565b6134239190615112565b61342d919061530e565b61343791906152b4565b6134419190615112565b8561344c919061530e565b905060006402540be4008360600151846000015185602001518761347091906152b4565b61347a9190615112565b86613485919061530e565b61348f91906152b4565b6134999190615112565b846134a4919061530e565b905060006134bb8460800151838660200151613761565b836134c6919061530e565b90508f600101546001826134da919061530e565b6134e49190615112565b9050808460400151889a509a509a50505050505050505096509650969350505050565b60008173ffffffffffffffffffffffffffffffffffffffff166370a08231306040518263ffffffff1660e01b81526004016135429190614783565b60206040518083038186803b15801561355a57600080fd5b505afa15801561356e573d6000803e3d6000fd5b505050506040513d601f19601f820116820180604052508101906135929190614019565b9050919050565b600081836135a791906152b4565b905092915050565b60008083856135be91906150bc565b905060008114156135d357600091505061375a565b60008082905060006002866135e891906152b4565b905060005b61010081101561371e57600083905060028a61360991906152b4565b848261361591906152b4565b61361f9190615112565b905060028961362e91906152b4565b848261363a91906152b4565b6136449190615112565b905083945060008460028361365991906152b4565b6064898761366791906152b4565b6136719190615112565b61367b91906150bc565b61368591906152b4565b90506000826001600261369891906150bc565b6136a291906152b4565b6064876064886136b2919061530e565b6136bc91906152b4565b6136c69190615112565b6136d091906150bc565b905080826136de9190615112565b95506136f387876138f490919063ffffffff16565b1561370857859850505050505050505061375a565b5050508080613716906154b4565b9150506135ed565b506040517f08c379a000000000000000000000000000000000000000000000000000000000815260040161375190614b9e565b60405180910390fd5b9392505050565b60008060028461377191906152b4565b838461377d91906152b4565b6137879190615112565b90506000849050600060028761379d91906152b4565b90506002816137ac91906152b4565b606486856137ba91906152b4565b6137c491906152b4565b6137ce9190615112565b92506000816064876137e091906152b4565b6137ea9190615112565b836137f591906150bc565b905060008087905060005b61010081101561389b57819250600087838461381c91906152b4565b61382691906150bc565b905060008a8660028661383991906152b4565b61384391906150bc565b61384d919061530e565b9050808261385b9190615112565b935061387085856138f490919063ffffffff16565b15613886578399505050505050505050506138d7565b50508080613893906154b4565b915050613800565b506040517f08c379a00000000000000000000000000000000000000000000000000000000081526004016138ce90614b7e565b60405180910390fd5b9392505050565b60006002826138ed9190615112565b9050919050565b60006001613902848461390c565b1115905092915050565b600081831115613929578183613922919061530e565b9050613938565b8282613935919061530e565b90505b92915050565b6040518060400160405280600290602082028036833780820191505090505090565b600061397361396e84614f7e565b614f59565b9050808285602086028201111561398957600080fd5b60005b858110156139b9578161399f8882613bff565b84526020840193506020830192505060018101905061398c565b5050509392505050565b60006139d66139d184614fa4565b614f59565b9050828152602081018484840111156139ee57600080fd5b6139f9848285615441565b509392505050565b6000613a14613a0f84614fa4565b614f59565b905082815260208101848484011115613a2c57600080fd5b613a37848285615450565b509392505050565b600081359050613a4e816158ad565b92915050565b60008083601f840112613a6657600080fd5b8235905067ffffffffffffffff811115613a7f57600080fd5b602083019150836020820283011115613a9757600080fd5b9250929050565b600081905082602060020282011115613ab657600080fd5b92915050565b600082601f830112613acd57600080fd5b6002613ada848285613960565b91505092915050565b60008083601f840112613af557600080fd5b8235905067ffffffffffffffff811115613b0e57600080fd5b602083019150836020820283011115613b2657600080fd5b9250929050565b600081359050613b3c816158c4565b92915050565b600081519050613b51816158c4565b92915050565b600081359050613b66816158db565b92915050565b600081359050613b7b816158f2565b92915050565b600081359050613b9081615909565b92915050565b600082601f830112613ba757600080fd5b8135613bb78482602086016139c3565b91505092915050565b600082601f830112613bd157600080fd5b8151613be1848260208601613a01565b91505092915050565b600081359050613bf981615920565b92915050565b600081519050613c0e81615920565b92915050565b600081359050613c2381615937565b92915050565b600081519050613c3881615937565b92915050565b600060208284031215613c5057600080fd5b6000613c5e84828501613a3f565b91505092915050565b60008060008060008060c08789031215613c8057600080fd5b6000613c8e89828a01613a3f565b9650506020613c9f89828a01613bea565b9550506040613cb089828a01613bea565b9450506060613cc189828a01613c14565b9350506080613cd289828a01613b57565b92505060a0613ce389828a01613b57565b9150509295509295509295565b60008060208385031215613d0357600080fd5b600083013567ffffffffffffffff811115613d1d57600080fd5b613d2985828601613a54565b92509250509250929050565b600080600060808486031215613d4a57600080fd5b6000613d5886828701613a9e565b9350506040613d6986828701613bea565b9250506060613d7a86828701613bea565b9150509250925092565b600060408284031215613d9657600080fd5b6000613da484828501613abc565b91505092915050565b600080600060408486031215613dc257600080fd5b600084013567ffffffffffffffff811115613ddc57600080fd5b613de886828701613ae3565b93509350506020613dfb86828701613b2d565b9150509250925092565b600060208284031215613e1757600080fd5b6000613e2584828501613b42565b91505092915050565b600080600080600080600080610100898b031215613e4b57600080fd5b6000613e598b828c01613b6c565b9850506020613e6a8b828c01613b6c565b975050604089013567ffffffffffffffff811115613e8757600080fd5b613e938b828c01613b96565b965050606089013567ffffffffffffffff811115613eb057600080fd5b613ebc8b828c01613b96565b9550506080613ecd8b828c01613bea565b94505060a0613ede8b828c01613bea565b93505060c0613eef8b828c01613bea565b92505060e0613f008b828c01613b81565b9150509295985092959890939650565b60008060408385031215613f2357600080fd5b6000613f3185828601613b6c565b9250506020613f4285828601613bea565b9150509250929050565b60008060008060808587031215613f6257600080fd5b6000613f7087828801613b6c565b9450506020613f8187828801613bea565b9350506040613f9287828801613bea565b9250506060613fa387828801613bea565b91505092959194509250565b600060208284031215613fc157600080fd5b600082015167ffffffffffffffff811115613fdb57600080fd5b613fe784828501613bc0565b91505092915050565b60006020828403121561400257600080fd5b600061401084828501613bea565b91505092915050565b60006020828403121561402b57600080fd5b600061403984828501613bff565b91505092915050565b60008060006080848603121561405757600080fd5b600061406586828701613bea565b935050602061407686828701613a9e565b925050606061408786828701613bea565b9150509250925092565b600080604083850312156140a457600080fd5b60006140b285828601613bea565b92505060206140c385828601613b6c565b9150509250929050565b600080600080608085870312156140e357600080fd5b60006140f187828801613bea565b945050602061410287828801613b6c565b935050604061411387828801613bea565b925050606061412487828801613bea565b91505092959194509250565b6000806040838503121561414357600080fd5b600061415185828601613bea565b925050602061416285828601613bea565b9150509250929050565b60006020828403121561417e57600080fd5b600061418c84828501613c29565b91505092915050565b60006141a183836143c5565b905092915050565b60006141b583836146e2565b60408301905092915050565b60006141cd838361471f565b60208301905092915050565b6141e281615376565b82525050565b60006141f382614ff9565b6141fd8185615057565b93508360208202850161420f85614fd5565b8060005b8581101561424b578484038952815161422c8582614195565b945061423783615030565b925060208a01995050600181019050614213565b50829750879550505050505092915050565b61426681615004565b6142708184615068565b925061427b82614fe5565b8060005b838110156142ac57815161429387826141a9565b965061429e8361503d565b92505060018101905061427f565b505050505050565b6142c060408383615441565b5050565b6142cd8161500f565b6142d78184615073565b92506142e282614fef565b8060005b838110156143135781516142fa87826141c1565b96506143058361504a565b9250506001810190506142e6565b505050505050565b6000614327838561507e565b93507f07ffffffffffffffffffffffffffffffffffffffffffffffffffffffffffffff83111561435657600080fd5b602083029250614367838584615441565b82840190509392505050565b61437c81615388565b82525050565b61438b81615388565b82525050565b61439a81615394565b82525050565b60006143ac83856150a0565b93506143b9838584615441565b82840190509392505050565b60006143d08261501a565b6143da818561508f565b93506143ea818560208601615450565b6143f38161558a565b840191505092915050565b614407816153f9565b82525050565b614416816153f9565b82525050565b6144258161541d565b82525050565b6144348161541d565b82525050565b600061444582615025565b61444f81856150ab565b935061445f818560208601615450565b6144688161558a565b840191505092915050565b60006144806026836150ab565b915061448b826155a8565b604082019050919050565b60006144a36010836150ab565b91506144ae826155f7565b602082019050919050565b60006144c66018836150ab565b91506144d182615620565b602082019050919050565b60006144e96019836150ab565b91506144f482615649565b602082019050919050565b600061450c6012836150ab565b915061451782615672565b602082019050919050565b600061452f600e836150ab565b915061453a8261569b565b602082019050919050565b60006145526016836150ab565b915061455d826156c4565b602082019050919050565b60006145756012836150ab565b9150614580826156ed565b602082019050919050565b6000614598602e836150ab565b91506145a382615716565b604082019050919050565b60006145bb6020836150ab565b91506145c682615765565b602082019050919050565b60006145de6010836150ab565b91506145e98261578e565b602082019050919050565b60006146016012836150ab565b915061460c826157b7565b602082019050919050565b60006146246014836150ab565b915061462f826157e0565b602082019050919050565b6000614647601e836150ab565b915061465282615809565b602082019050919050565b600061466a6013836150ab565b915061467582615832565b602082019050919050565b600061468d601f836150ab565b91506146988261585b565b602082019050919050565b60006146b0601c836150ab565b91506146bb82615884565b602082019050919050565b8082525050565b8082525050565b8082525050565b8082525050565b6040820160008201516146f8600085018261440d565b50602082015161470b602085018261474c565b50505050565b8082525050565b8082525050565b614728816153e2565b82525050565b614737816153e2565b82525050565b614746816153e2565b82525050565b614755816153e2565b82525050565b614764816153ec565b82525050565b60006147778284866143a0565b91508190509392505050565b600060208201905061479860008301846141d9565b92915050565b60006040820190506147b360008301856141d9565b6147c060208301846141d9565b9392505050565b600060e0820190506147dc600083018a6141d9565b6147e960208301896141d9565b6147f6604083018861472e565b614803606083018761472e565b614810608083018661475b565b61481d60a0830185614391565b61482a60c0830184614391565b98975050505050505050565b6000602082019050818103600083015261485081846141e8565b905092915050565b60006101408201905061486e600083018961425d565b61487b60808301886142b4565b61488860c083018761473d565b61489560e08301866146cd565b6148a36101008301856146db565b6148b161012083018461442b565b979650505050505050565b6000610100820190506148d2600083018961425d565b81810360808301526148e581878961431b565b90506148f460a0830186614382565b61490160c08301856146cd565b61490e60e083018461442b565b979650505050505050565b600060408201905061492e60008301846142c4565b92915050565b60006020820190506149496000830184614373565b92915050565b600060208201905061496460008301846143fe565b92915050565b600060208201905061497f600083018461441c565b92915050565b6000602082019050818103600083015261499f818461443a565b905092915050565b600060408201905081810360008301526149c1818561443a565b905081810360208301526149d5818461443a565b90509392505050565b600060208201905081810360008301526149f781614473565b9050919050565b60006020820190508181036000830152614a1781614496565b9050919050565b60006020820190508181036000830152614a37816144b9565b9050919050565b60006020820190508181036000830152614a57816144dc565b9050919050565b60006020820190508181036000830152614a77816144ff565b9050919050565b60006020820190508181036000830152614a9781614522565b9050919050565b60006020820190508181036000830152614ab781614545565b9050919050565b60006020820190508181036000830152614ad781614568565b9050919050565b60006020820190508181036000830152614af78161458b565b9050919050565b60006020820190508181036000830152614b17816145ae565b9050919050565b60006020820190508181036000830152614b37816145d1565b9050919050565b60006020820190508181036000830152614b57816145f4565b9050919050565b60006020820190508181036000830152614b7781614617565b9050919050565b60006020820190508181036000830152614b978161463a565b9050919050565b60006020820190508181036000830152614bb78161465d565b9050919050565b60006020820190508181036000830152614bd781614680565b9050919050565b60006020820190508181036000830152614bf7816146a3565b9050919050565b6000602082019050614c1360008301846146c6565b92915050565b6000606082019050614c2e60008301866146c6565b614c3b602083018561473d565b614c48604083018461473d565b949350505050565b6000604082019050614c6560008301856146d4565b614c72602083018461473d565b9392505050565b6000602082019050614c8e6000830184614711565b92915050565b6000608082019050614ca96000830187614718565b614cb66020830186614718565b614cc360408301856146cd565b614cd0606083018461442b565b95945050505050565b600060a082019050614cee6000830188614718565b614cfb6020830187614718565b614d08604083018661473d565b614d1560608301856146cd565b614d2260808301846146db565b9695505050505050565b600060c082019050614d416000830189614718565b614d4e6020830188614718565b614d5b604083018761473d565b614d68606083018661473d565b614d7560808301856146cd565b614d8260a08301846146db565b979650505050505050565b6000602082019050614da2600083018461472e565b92915050565b600061010082019050614dbe600083018761473d565b614dcb602083018661425d565b614dd860a08301856142b4565b614de560e083018461442b565b95945050505050565b600060c082019050614e03600083018661473d565b614e10602083018561425d565b614e1d60a083018461442b565b949350505050565b600060e082019050614e3a600083018a61473d565b614e476020830189614718565b614e546040830188614718565b614e61606083018761473d565b614e6e60808301866146cd565b614e7b60a08301856146db565b614e8860c083018461442b565b98975050505050505050565b6000604082019050614ea9600083018561472e565b614eb6602083018461472e565b9392505050565b6000608082019050614ed2600083018761472e565b614edf602083018661472e565b614eec604083018561472e565b614ef9606083018461472e565b95945050505050565b60008083356001602003843603038112614f1b57600080fd5b80840192508235915067ffffffffffffffff821115614f3957600080fd5b602083019250600182023603831315614f5157600080fd5b509250929050565b6000614f63614f74565b9050614f6f8282615483565b919050565b6000604051905090565b600067ffffffffffffffff821115614f9957614f9861555b565b5b602082029050919050565b600067ffffffffffffffff821115614fbf57614fbe61555b565b5b614fc88261558a565b9050602081019050919050565b6000819050602082019050919050565b6000819050919050565b6000819050919050565b600081519050919050565b600060029050919050565b600060029050919050565b600081519050919050565b600081519050919050565b6000602082019050919050565b6000602082019050919050565b6000602082019050919050565b600082825260208201905092915050565b600081905092915050565b600081905092915050565b600082825260208201905092915050565b600082825260208201905092915050565b600081905092915050565b600082825260208201905092915050565b60006150c7826153e2565b91506150d2836153e2565b9250827fffffffffffffffffffffffffffffffffffffffffffffffffffffffffffffffff03821115615107576151066154fd565b5b828201905092915050565b600061511d826153e2565b9150615128836153e2565b9250826151385761513761552c565b5b828204905092915050565b6000808291508390505b600185111561518d57808604811115615169576151686154fd565b5b60018516156151785780820291505b80810290506151868561559b565b945061514d565b94509492505050565b60006151a1826153e2565b91506151ac836153ec565b92506151d97fffffffffffffffffffffffffffffffffffffffffffffffffffffffffffffffff84846151e1565b905092915050565b6000826151f157600190506152ad565b816151ff57600090506152ad565b8160018114615215576002811461521f5761524e565b60019150506152ad565b60ff841115615231576152306154fd565b5b8360020a915084821115615248576152476154fd565b5b506152ad565b5060208310610133831016604e8410600b84101617156152835782820a90508381111561527e5761527d6154fd565b5b6152ad565b6152908484846001615143565b925090508184048111156152a7576152a66154fd565b5b81810290505b9392505050565b60006152bf826153e2565b91506152ca836153e2565b9250817fffffffffffffffffffffffffffffffffffffffffffffffffffffffffffffffff0483118215151615615303576153026154fd565b5b828202905092915050565b6000615319826153e2565b9150615324836153e2565b925082821015615337576153366154fd565b5b828203905092915050565b600061534d826153ec565b9150615358836153ec565b92508282101561536b5761536a6154fd565b5b828203905092915050565b6000615381826153c2565b9050919050565b60008115159050919050565b6000819050919050565b60006153a982615376565b9050919050565b60006153bb82615376565b9050919050565b600073ffffffffffffffffffffffffffffffffffffffff82169050919050565b6000819050919050565b600060ff82169050919050565b60006154048261540b565b9050919050565b6000615416826153c2565b9050919050565b60006154288261542f565b9050919050565b600061543a826153c2565b9050919050565b82818337600083830152505050565b60005b8381101561546e578082015181840152602081019050615453565b8381111561547d576000848401525b50505050565b61548c8261558a565b810181811067ffffffffffffffff821117156154ab576154aa61555b565b5b80604052505050565b60006154bf826153e2565b91507fffffffffffffffffffffffffffffffffffffffffffffffffffffffffffffffff8214156154f2576154f16154fd565b5b600182019050919050565b7f4e487b7100000000000000000000000000000000000000000000000000000000600052601160045260246000fd5b7f4e487b7100000000000000000000000000000000000000000000000000000000600052601260045260246000fd5b7f4e487b7100000000000000000000000000000000000000000000000000000000600052604160045260246000fd5b6000601f19601f8301169050919050565b60008160011c9050919050565b7f4f776e61626c653a206e6577206f776e657220697320746865207a65726f206160008201527f6464726573730000000000000000000000000000000000000000000000000000602082015250565b7f4455504c49434154455f544f4b454e5300000000000000000000000000000000600082015250565b7f414d4f554e545f455843454544535f415641494c41424c450000000000000000600082015250565b7f5f61646d696e4665652065786365656473206d6178696d756d00000000000000600082015250565b7f544f4b454e305f5a45524f414444524553530000000000000000000000000000600082015250565b7f4241445f544f4b454e5f46524f4d000000000000000000000000000000000000600082015250565b7f455243313136373a20637265617465206661696c656400000000000000000000600082015250565b7f5f612065786365656473206d6178696d756d0000000000000000000000000000600082015250565b7f496e697469616c697a61626c653a20636f6e747261637420697320616c72656160008201527f647920696e697469616c697a6564000000000000000000000000000000000000602082015250565b7f4f776e61626c653a2063616c6c6572206973206e6f7420746865206f776e6572600082015250565b7f446561646c696e65206e6f74206d657400000000000000000000000000000000600082015250565b7f544f4b454e315f5a45524f414444524553530000000000000000000000000000600082015250565b7f5f6665652065786365656473206d6178696d756d000000000000000000000000600082015250565b7f417070726f78696d6174696f6e20646964206e6f7420636f6e76657267650000600082015250565b7f4420646f6573206e6f7420636f6e766572676500000000000000000000000000600082015250565b7f5265656e7472616e637947756172643a207265656e7472616e742063616c6c00600082015250565b7f636f756c64206e6f7420696e6974206c70546f6b656e20636c6f6e6500000000600082015250565b6158b681615376565b81146158c157600080fd5b50565b6158cd81615388565b81146158d857600080fd5b50565b6158e481615394565b81146158ef57600080fd5b50565b6158fb8161539e565b811461590657600080fd5b50565b615912816153b0565b811461591d57600080fd5b50565b615929816153e2565b811461593457600080fd5b50565b615940816153ec565b811461594b57600080fd5b5056fea26469706673582212207bf461775c2cb6ac28fa4beba05cd1edf3499ec2126f768fbbeea85a249a728464736f6c63430008040033",
  "libraries": {
    "SwapUtils": "0xda73ae74a09c70d27f76E15ad8F33D1D18589D87"
  },
  "devdoc": {
    "details": "TenderSwap is a light-weight StableSwap implementation for two assets. See the Curve StableSwap paper for more details (https://curve.fi/files/stableswap-paper.pdf). that trade 1:1 with eachother (e.g. USD stablecoins or tenderToken derivatives vs their underlying assets). It supports Elastic Supply ERC20 tokens, which are tokens of which the balances can change as the total supply of the token 'rebases'.",
    "kind": "dev",
    "methods": {
      "addLiquidity(uint256[2],uint256,uint256)": {
        "params": {
          "_amounts": "the amounts of each token to add, in their native precision          according to the cardinality of the pool [token0, token1]",
          "_deadline": "latest timestamp to accept this transaction",
          "_minToMint": "the minimum LP tokens adding this amount of liquidity should mint, otherwise revert. Handy for front-running mitigation"
        },
        "returns": {
          "_0": "amount of LP token user minted and received"
        }
      },
      "calculateRemoveLiquidity(uint256)": {
        "params": {
          "amount": "the amount of LP tokens that would be burned on withdrawal"
        },
        "returns": {
          "_0": "array of token balances that the user will receive"
        }
      },
      "calculateRemoveLiquidityOneToken(uint256,address)": {
        "params": {
          "tokenAmount": "the amount of LP token to burn",
          "tokenReceive": "the token to receive"
        },
        "returns": {
          "_0": "calculated amount of underlying token to be received. available to withdraw"
        }
      },
      "calculateSwap(address,uint256)": {
        "params": {
          "_dx": "the amount of tokens the user wants to sell. If the token charges a fee on transfers, use the amount that gets transferred after the fee.",
          "_tokenFrom": "the token the user wants to sell"
        },
        "returns": {
          "_0": "amount of tokens the user will receive"
        }
      },
      "calculateTokenAmount(uint256[],bool)": {
        "details": "This shouldn't be used outside frontends for user estimates.",
        "params": {
          "amounts": "an array of token amounts to deposit or withdrawal, corresponding to pool cardinality of [token0, token1]. The amount should be in each pooled token's native precision.",
          "deposit": "whether this is a deposit or a withdrawal"
        },
        "returns": {
          "_0": "token amount the user will receive"
        }
      },
      "getA()": {
        "details": "See the StableSwap paper for details",
        "returns": {
          "_0": "the amplifaction coefficient"
        }
      },
      "getAPrecise()": {
        "details": "See the StableSwap paper for details",
        "returns": {
          "_0": "A parameter in its raw precision form"
        }
      },
      "getToken0()": {
        "details": "EVM return type is IERC20",
        "returns": {
          "_0": "contract address"
        }
      },
      "getToken0Balance()": {
        "returns": {
          "_0": "current balance of the pooled tendertoken"
        }
      },
      "getToken1()": {
        "details": "EVM return type is IERC20",
        "returns": {
          "_0": "contract address"
        }
      },
      "getToken1Balance()": {
        "returns": {
          "_0": "current balance of the pooled underlying token"
        }
      },
      "getVirtualPrice()": {
        "returns": {
          "_0": "the override price, scaled to the POOL_PRECISION_DECIMALS"
        }
      },
      "initialize(address,address,string,string,uint256,uint256,uint256,address)": {
        "params": {
          "_a": "the amplification coefficient * n * (n - 1). See the StableSwap paper for details",
          "_adminFee": "default adminFee to be initialized with",
          "_fee": "default swap fee to be initialized with",
          "_token0": "First token in the pool",
          "_token1": "Second token in the pool",
          "lpTokenName": "the long-form name of the token to be deployed",
          "lpTokenSymbol": "the short symbol for the token to be deployed",
          "lpTokenTargetAddress": "the address of an existing LiquidityPoolToken contract to use as a target"
        },
        "returns": {
          "_0": "true is successfully initialized"
        }
      },
      "multicall(bytes[])": {
        "details": "The `msg.value` should not be trusted for any method callable from multicall.",
        "params": {
          "_data": "The encoded function data for each of the calls to make to this contract"
        },
        "returns": {
          "results": "The results from each of the calls passed in via data"
        }
      },
      "owner()": {
        "details": "Returns the address of the current owner."
      },
      "rampA(uint256,uint256)": {
        "params": {
          "futureA": "the new A to ramp towards",
          "futureTime": "timestamp when the new A should be reached"
        }
      },
      "removeLiquidity(uint256,uint256[2],uint256)": {
        "details": "Liquidity can always be removed, even when the pool is paused.",
        "params": {
          "amount": "the amount of LP tokens to burn",
          "deadline": "latest timestamp to accept this transaction",
          "minAmounts": "the minimum amounts of each token in the pool        acceptable for this burn. Useful as a front-running mitigation        according to the cardinality of the pool [token0, token1]"
        },
        "returns": {
          "_0": "is the amounts of tokens user received"
        }
      },
      "removeLiquidityImbalance(uint256[2],uint256,uint256)": {
        "params": {
          "_amounts": "how much of each token to withdraw",
          "_deadline": "latest timestamp to accept this transaction",
          "_maxBurnAmount": "the max LP token provider is willing to pay to remove liquidity. Useful as a front-running mitigation."
        },
        "returns": {
          "_0": "amount of LP tokens burned"
        }
      },
      "removeLiquidityOneToken(uint256,address,uint256,uint256)": {
        "params": {
          "_deadline": "latest timestamp to accept this transaction",
          "_minAmount": "the minimum amount to withdraw, otherwise revert",
          "_tokenAmount": "the amount of the token you want to receive",
          "_tokenReceive": "the  token you want to receive"
        },
        "returns": {
          "_0": "amount of chosen token user received"
        }
      },
      "renounceOwnership()": {
        "details": "Leaves the contract without owner. It will not be possible to call `onlyOwner` functions anymore. Can only be called by the current owner. NOTE: Renouncing ownership will leave the contract without an owner, thereby removing any functionality that is only available to the owner."
      },
      "selfPermit(address,uint256,uint256,uint8,bytes32,bytes32)": {
        "details": "The `owner` is always msg.sender and the `spender` is always address(this).",
        "params": {
          "_deadline": "A timestamp, the current blocktime must be less than or equal to this timestamp",
          "_r": "Must produce valid secp256k1 signature from the holder along with `v` and `s`",
          "_s": "Must produce valid secp256k1 signature from the holder along with `r` and `v`",
          "_token": "The address of the token spent",
          "_v": "Must produce valid secp256k1 signature from the holder along with `r` and `s`",
          "_value": "The amount that can be spent of token"
        }
      },
      "selfPermitIfNecessary(address,uint256,uint256,uint8,bytes32,bytes32)": {
        "details": "The `owner` is always msg.sender and the `spender` is always address(this). Can be used instead of #selfPermit to prevent calls from failing due to a frontrun of a call to #selfPermit",
        "params": {
          "_deadline": "A timestamp, the current blocktime must be less than or equal to this timestamp",
          "_r": "Must produce valid secp256k1 signature from the holder along with `v` and `s`",
          "_s": "Must produce valid secp256k1 signature from the holder along with `r` and `v`",
          "_token": "The address of the token spent",
          "_v": "Must produce valid secp256k1 signature from the holder along with `r` and `s`",
          "_value": "The amount that can be spent of token"
        }
      },
      "setAdminFee(uint256)": {
        "params": {
          "newAdminFee": "new admin fee to be applied on future transactions"
        }
      },
      "setSwapFee(uint256)": {
        "params": {
          "newSwapFee": "new swap fee to be applied on future transactions"
        }
      },
      "swap(address,uint256,uint256,uint256)": {
        "details": "revert is token being sold is not in the pool.",
        "params": {
          "_deadline": "latest timestamp to accept this transaction",
          "_dx": "the amount of tokens the user wants to swap from",
          "_minDy": "the min amount the user would like to receive, or revert",
          "_tokenFrom": "the token the user wants to sell"
        },
        "returns": {
          "_0": "amount of tokens received"
        }
      },
      "transferOwnership(address)": {
        "params": {
          "_newOwner": "address of the new owner"
        }
      }
    },
    "stateVariables": {
      "lpToken": {
        "return": "lpTokenContract Liquidity pool token contract.",
        "returns": {
          "_0": "lpTokenContract Liquidity pool token contract."
        }
      }
    },
    "title": "TenderSwap",
    "version": 1
  },
  "userdoc": {
    "events": {
      "AddLiquidity(address,uint256[2],uint256[2],uint256,uint256)": {
        "notice": "AddLiquidity gets emitted when liquidity is added to the pool."
      },
      "NewAdminFee(uint256)": {
        "notice": "NewAdminFee gets emitted when the admin fee is updated."
      },
      "NewSwapFee(uint256)": {
        "notice": "NewSwapFee gets emitted when the swap fee is updated."
      },
      "RampA(uint256,uint256,uint256,uint256)": {
        "notice": "RampA gets emitted when A has started ramping up."
      },
      "RemoveLiquidity(address,uint256[2],uint256)": {
        "notice": "RemoveLiquidity gets emitted when liquidity for both tokens  is removed from the pool."
      },
      "RemoveLiquidityImbalance(address,uint256[2],uint256[2],uint256,uint256)": {
        "notice": "RemoveLiquidityImbalance gets emitted when liquidity is removed weighted differently than the pool's current balances. with different weights than that of the pool."
      },
      "RemoveLiquidityOne(address,uint256,uint256,address,uint256)": {
        "notice": "RemoveLiquidityOne gets emitted when single-sided liquidity is removed "
      },
      "StopRampA(uint256,uint256)": {
        "notice": "StopRampA gets emitted when ramping A is stopped manually"
      },
      "Swap(address,address,uint256,uint256)": {
        "notice": "Swap gets emitted when an accounts exchanges tokens."
      }
    },
    "kind": "user",
    "methods": {
      "addLiquidity(uint256[2],uint256,uint256)": {
        "notice": "Add liquidity to the pool with the given amounts of tokens"
      },
      "calculateRemoveLiquidity(uint256)": {
        "notice": "A simple method to calculate amount of each underlying tokens that is returned upon burning given amount of LP tokens"
      },
      "calculateRemoveLiquidityOneToken(uint256,address)": {
        "notice": "Calculate the amount of underlying token available to withdraw when withdrawing via only single token"
      },
      "calculateSwap(address,uint256)": {
        "notice": "Calculate amount of tokens you receive on swap"
      },
      "calculateTokenAmount(uint256[],bool)": {
        "notice": "A simple method to calculate prices from deposits or withdrawals, excluding fees but including slippage. This is helpful as an input into the various \"min\" parameters on calls to fight front-running"
      },
      "getA()": {
        "notice": "Return A, the amplification coefficient * n * (n - 1)"
      },
      "getAPrecise()": {
        "notice": "Return A in its raw precision form"
      },
      "getToken0()": {
        "notice": "Returns the contract address for token0"
      },
      "getToken0Balance()": {
        "notice": "Return current balance of token0 (tender) in the pool"
      },
      "getToken1()": {
        "notice": "Returns the contract address for token1"
      },
      "getToken1Balance()": {
        "notice": "Return current balance of token1 (underlying) in the pool"
      },
      "getVirtualPrice()": {
        "notice": "Get the override price, to help calculate profit"
      },
      "initialize(address,address,string,string,uint256,uint256,uint256,address)": {
        "notice": "Initializes this Swap contract with the given parameters. This will also clone a LPToken contract that represents users' LP positions. The owner of LPToken will be this contract - which means only this contract is allowed to mint/burn tokens."
      },
      "lpToken()": {
        "notice": "Returns the liquidity pool token contract."
      },
      "multicall(bytes[])": {
        "notice": "Call multiple functions in the current contract and return the data from all of them if they all succeed"
      },
      "rampA(uint256,uint256)": {
        "notice": "Start ramping up or down A parameter towards given futureA and futureTime Checks if the change is too rapid, and commits the new A value only when it falls under the limit range."
      },
      "removeLiquidity(uint256,uint256[2],uint256)": {
        "notice": "Burn LP tokens to remove liquidity from the pool."
      },
      "removeLiquidityImbalance(uint256[2],uint256,uint256)": {
        "notice": "Remove liquidity from the pool, weighted differently than the pool's current balances."
      },
      "removeLiquidityOneToken(uint256,address,uint256,uint256)": {
        "notice": "Remove liquidity from the pool all in one token."
      },
      "selfPermit(address,uint256,uint256,uint8,bytes32,bytes32)": {
        "notice": "Permits this contract to spend a given token from `msg.sender`"
      },
      "selfPermitIfNecessary(address,uint256,uint256,uint8,bytes32,bytes32)": {
        "notice": "Permits this contract to spend a given token from `msg.sender`"
      },
      "setAdminFee(uint256)": {
        "notice": "Update the admin fee. Admin fee takes portion of the swap fee."
      },
      "setSwapFee(uint256)": {
        "notice": "Update the swap fee to be applied on swaps"
      },
      "stopRampA()": {
        "notice": "Stop ramping A immediately. Reverts if ramp A is already stopped."
      },
      "swap(address,uint256,uint256,uint256)": {
        "notice": "Swap two tokens using this pool"
      },
      "transferOwnership(address)": {
        "notice": "Changes the owner of the contract"
      }
    },
    "version": 1
  },
  "storageLayout": {
    "storage": [
      {
        "astId": 130,
        "contract": "contracts/tenderswap/TenderSwap.sol:TenderSwap",
        "label": "_initialized",
        "offset": 0,
        "slot": "0",
        "type": "t_bool"
      },
      {
        "astId": 133,
        "contract": "contracts/tenderswap/TenderSwap.sol:TenderSwap",
        "label": "_initializing",
        "offset": 1,
        "slot": "0",
        "type": "t_bool"
      },
      {
        "astId": 1267,
        "contract": "contracts/tenderswap/TenderSwap.sol:TenderSwap",
        "label": "__gap",
        "offset": 0,
        "slot": "1",
        "type": "t_array(t_uint256)50_storage"
      },
      {
        "astId": 10,
        "contract": "contracts/tenderswap/TenderSwap.sol:TenderSwap",
        "label": "_owner",
        "offset": 0,
        "slot": "51",
        "type": "t_address"
      },
      {
        "astId": 123,
        "contract": "contracts/tenderswap/TenderSwap.sol:TenderSwap",
        "label": "__gap",
        "offset": 0,
        "slot": "52",
        "type": "t_array(t_uint256)49_storage"
      },
      {
        "astId": 184,
        "contract": "contracts/tenderswap/TenderSwap.sol:TenderSwap",
        "label": "_status",
        "offset": 0,
        "slot": "101",
        "type": "t_uint256"
      },
      {
        "astId": 227,
        "contract": "contracts/tenderswap/TenderSwap.sol:TenderSwap",
        "label": "__gap",
        "offset": 0,
        "slot": "102",
        "type": "t_array(t_uint256)49_storage"
      },
      {
        "astId": 11998,
        "contract": "contracts/tenderswap/TenderSwap.sol:TenderSwap",
        "label": "feeParams",
        "offset": 0,
        "slot": "151",
        "type": "t_struct(FeeParams)9123_storage"
      },
      {
        "astId": 12001,
        "contract": "contracts/tenderswap/TenderSwap.sol:TenderSwap",
        "label": "amplificationParams",
        "offset": 0,
        "slot": "153",
        "type": "t_struct(Amplification)11568_storage"
      },
      {
        "astId": 12004,
        "contract": "contracts/tenderswap/TenderSwap.sol:TenderSwap",
        "label": "token0",
        "offset": 0,
        "slot": "157",
        "type": "t_struct(PooledToken)9129_storage"
      },
      {
        "astId": 12007,
        "contract": "contracts/tenderswap/TenderSwap.sol:TenderSwap",
        "label": "token1",
        "offset": 0,
        "slot": "159",
        "type": "t_struct(PooledToken)9129_storage"
      },
      {
        "astId": 12011,
        "contract": "contracts/tenderswap/TenderSwap.sol:TenderSwap",
        "label": "lpToken",
        "offset": 0,
        "slot": "161",
        "type": "t_contract(LiquidityPoolToken)9008"
      }
    ],
    "types": {
      "t_address": {
        "encoding": "inplace",
        "label": "address",
        "numberOfBytes": "20"
      },
      "t_array(t_uint256)49_storage": {
        "base": "t_uint256",
        "encoding": "inplace",
        "label": "uint256[49]",
        "numberOfBytes": "1568"
      },
      "t_array(t_uint256)50_storage": {
        "base": "t_uint256",
        "encoding": "inplace",
        "label": "uint256[50]",
        "numberOfBytes": "1600"
      },
      "t_bool": {
        "encoding": "inplace",
        "label": "bool",
        "numberOfBytes": "1"
      },
      "t_contract(IERC20)2712": {
        "encoding": "inplace",
        "label": "contract IERC20",
        "numberOfBytes": "20"
      },
      "t_contract(LiquidityPoolToken)9008": {
        "encoding": "inplace",
        "label": "contract LiquidityPoolToken",
        "numberOfBytes": "20"
      },
      "t_struct(Amplification)11568_storage": {
        "encoding": "inplace",
        "label": "struct SwapUtils.Amplification",
        "members": [
          {
            "astId": 11561,
            "contract": "contracts/tenderswap/TenderSwap.sol:TenderSwap",
            "label": "initialA",
            "offset": 0,
            "slot": "0",
            "type": "t_uint256"
          },
          {
            "astId": 11563,
            "contract": "contracts/tenderswap/TenderSwap.sol:TenderSwap",
            "label": "futureA",
            "offset": 0,
            "slot": "1",
            "type": "t_uint256"
          },
          {
            "astId": 11565,
            "contract": "contracts/tenderswap/TenderSwap.sol:TenderSwap",
            "label": "initialATime",
            "offset": 0,
            "slot": "2",
            "type": "t_uint256"
          },
          {
            "astId": 11567,
            "contract": "contracts/tenderswap/TenderSwap.sol:TenderSwap",
            "label": "futureATime",
            "offset": 0,
            "slot": "3",
            "type": "t_uint256"
          }
        ],
        "numberOfBytes": "128"
      },
      "t_struct(FeeParams)9123_storage": {
        "encoding": "inplace",
        "label": "struct SwapUtils.FeeParams",
        "members": [
          {
            "astId": 9120,
            "contract": "contracts/tenderswap/TenderSwap.sol:TenderSwap",
            "label": "swapFee",
            "offset": 0,
            "slot": "0",
            "type": "t_uint256"
          },
          {
            "astId": 9122,
            "contract": "contracts/tenderswap/TenderSwap.sol:TenderSwap",
            "label": "adminFee",
            "offset": 0,
            "slot": "1",
            "type": "t_uint256"
          }
        ],
        "numberOfBytes": "64"
      },
      "t_struct(PooledToken)9129_storage": {
        "encoding": "inplace",
        "label": "struct SwapUtils.PooledToken",
        "members": [
          {
            "astId": 9126,
            "contract": "contracts/tenderswap/TenderSwap.sol:TenderSwap",
            "label": "token",
            "offset": 0,
            "slot": "0",
            "type": "t_contract(IERC20)2712"
          },
          {
            "astId": 9128,
            "contract": "contracts/tenderswap/TenderSwap.sol:TenderSwap",
            "label": "precisionMultiplier",
            "offset": 0,
            "slot": "1",
            "type": "t_uint256"
          }
        ],
        "numberOfBytes": "64"
      },
      "t_uint256": {
        "encoding": "inplace",
        "label": "uint256",
        "numberOfBytes": "32"
      }
    }
  }
}