{
  "address": "0x5ce5B48C0A1D6E01cAA44E5cee12Ac39eDb5d7FF",
  "abi": [
    {
      "anonymous": false,
      "inputs": [
        {
          "indexed": true,
          "internalType": "address",
          "name": "owner",
          "type": "address"
        },
        {
          "indexed": true,
          "internalType": "address",
          "name": "spender",
          "type": "address"
        },
        {
          "indexed": false,
          "internalType": "uint256",
          "name": "value",
          "type": "uint256"
        }
      ],
      "name": "Approval",
      "type": "event"
    },
    {
      "anonymous": false,
      "inputs": [
        {
          "indexed": true,
          "internalType": "address",
          "name": "previousOwner",
          "type": "address"
        },
        {
          "indexed": true,
          "internalType": "address",
          "name": "newOwner",
          "type": "address"
        }
      ],
      "name": "OwnershipTransferred",
      "type": "event"
    },
    {
      "anonymous": false,
      "inputs": [
        {
          "indexed": true,
          "internalType": "address",
          "name": "from",
          "type": "address"
        },
        {
          "indexed": true,
          "internalType": "address",
          "name": "to",
          "type": "address"
        },
        {
          "indexed": false,
          "internalType": "uint256",
          "name": "value",
          "type": "uint256"
        }
      ],
      "name": "Transfer",
      "type": "event"
    },
    {
      "inputs": [],
      "name": "DOMAIN_SEPARATOR",
      "outputs": [
        {
          "internalType": "bytes32",
          "name": "",
          "type": "bytes32"
        }
      ],
      "stateMutability": "view",
      "type": "function"
    },
    {
      "inputs": [
        {
          "internalType": "address",
          "name": "_owner",
          "type": "address"
        },
        {
          "internalType": "address",
          "name": "_spender",
          "type": "address"
        }
      ],
      "name": "allowance",
      "outputs": [
        {
          "internalType": "uint256",
          "name": "",
          "type": "uint256"
        }
      ],
      "stateMutability": "view",
      "type": "function"
    },
    {
      "inputs": [
        {
          "internalType": "address",
          "name": "_spender",
          "type": "address"
        },
        {
          "internalType": "uint256",
          "name": "_amount",
          "type": "uint256"
        }
      ],
      "name": "approve",
      "outputs": [
        {
          "internalType": "bool",
          "name": "",
          "type": "bool"
        }
      ],
      "stateMutability": "nonpayable",
      "type": "function"
    },
    {
      "inputs": [
        {
          "internalType": "address",
          "name": "_account",
          "type": "address"
        }
      ],
      "name": "balanceOf",
      "outputs": [
        {
          "internalType": "uint256",
          "name": "",
          "type": "uint256"
        }
      ],
      "stateMutability": "view",
      "type": "function"
    },
    {
      "inputs": [
        {
          "internalType": "address",
          "name": "_account",
          "type": "address"
        },
        {
          "internalType": "uint256",
          "name": "_amount",
          "type": "uint256"
        }
      ],
      "name": "burn",
      "outputs": [
        {
          "internalType": "bool",
          "name": "",
          "type": "bool"
        }
      ],
      "stateMutability": "nonpayable",
      "type": "function"
    },
    {
      "inputs": [],
      "name": "decimals",
      "outputs": [
        {
          "internalType": "uint8",
          "name": "",
          "type": "uint8"
        }
      ],
      "stateMutability": "pure",
      "type": "function"
    },
    {
      "inputs": [
        {
          "internalType": "address",
          "name": "_spender",
          "type": "address"
        },
        {
          "internalType": "uint256",
          "name": "_subtractedValue",
          "type": "uint256"
        }
      ],
      "name": "decreaseAllowance",
      "outputs": [
        {
          "internalType": "bool",
          "name": "",
          "type": "bool"
        }
      ],
      "stateMutability": "nonpayable",
      "type": "function"
    },
    {
      "inputs": [],
      "name": "getTotalPooledTokens",
      "outputs": [
        {
          "internalType": "uint256",
          "name": "",
          "type": "uint256"
        }
      ],
      "stateMutability": "view",
      "type": "function"
    },
    {
      "inputs": [],
      "name": "getTotalShares",
      "outputs": [
        {
          "internalType": "uint256",
          "name": "",
          "type": "uint256"
        }
      ],
      "stateMutability": "view",
      "type": "function"
    },
    {
      "inputs": [
        {
          "internalType": "address",
          "name": "_spender",
          "type": "address"
        },
        {
          "internalType": "uint256",
          "name": "_addedValue",
          "type": "uint256"
        }
      ],
      "name": "increaseAllowance",
      "outputs": [
        {
          "internalType": "bool",
          "name": "",
          "type": "bool"
        }
      ],
      "stateMutability": "nonpayable",
      "type": "function"
    },
    {
      "inputs": [
        {
          "internalType": "string",
          "name": "_name",
          "type": "string"
        },
        {
          "internalType": "string",
          "name": "_symbol",
          "type": "string"
        },
        {
          "internalType": "contract ITotalStakedReader",
          "name": "_totalStakedReader",
          "type": "address"
        }
      ],
      "name": "initialize",
      "outputs": [
        {
          "internalType": "bool",
          "name": "",
          "type": "bool"
        }
      ],
      "stateMutability": "nonpayable",
      "type": "function"
    },
    {
      "inputs": [
        {
          "internalType": "address",
          "name": "_recipient",
          "type": "address"
        },
        {
          "internalType": "uint256",
          "name": "_amount",
          "type": "uint256"
        }
      ],
      "name": "mint",
      "outputs": [
        {
          "internalType": "bool",
          "name": "",
          "type": "bool"
        }
      ],
      "stateMutability": "nonpayable",
      "type": "function"
    },
    {
      "inputs": [],
      "name": "name",
      "outputs": [
        {
          "internalType": "string",
          "name": "",
          "type": "string"
        }
      ],
      "stateMutability": "view",
      "type": "function"
    },
    {
      "inputs": [
        {
          "internalType": "address",
          "name": "owner",
          "type": "address"
        }
      ],
      "name": "nonces",
      "outputs": [
        {
          "internalType": "uint256",
          "name": "",
          "type": "uint256"
        }
      ],
      "stateMutability": "view",
      "type": "function"
    },
    {
      "inputs": [],
      "name": "owner",
      "outputs": [
        {
          "internalType": "address",
          "name": "",
          "type": "address"
        }
      ],
      "stateMutability": "view",
      "type": "function"
    },
    {
      "inputs": [
        {
          "internalType": "address",
          "name": "owner",
          "type": "address"
        },
        {
          "internalType": "address",
          "name": "spender",
          "type": "address"
        },
        {
          "internalType": "uint256",
          "name": "value",
          "type": "uint256"
        },
        {
          "internalType": "uint256",
          "name": "deadline",
          "type": "uint256"
        },
        {
          "internalType": "uint8",
          "name": "v",
          "type": "uint8"
        },
        {
          "internalType": "bytes32",
          "name": "r",
          "type": "bytes32"
        },
        {
          "internalType": "bytes32",
          "name": "s",
          "type": "bytes32"
        }
      ],
      "name": "permit",
      "outputs": [],
      "stateMutability": "nonpayable",
      "type": "function"
    },
    {
      "inputs": [],
      "name": "renounceOwnership",
      "outputs": [],
      "stateMutability": "nonpayable",
      "type": "function"
    },
    {
      "inputs": [
        {
          "internalType": "contract ITotalStakedReader",
          "name": "_totalStakedReader",
          "type": "address"
        }
      ],
      "name": "setTotalStakedReader",
      "outputs": [],
      "stateMutability": "nonpayable",
      "type": "function"
    },
    {
      "inputs": [
        {
          "internalType": "address",
          "name": "_account",
          "type": "address"
        }
      ],
      "name": "sharesOf",
      "outputs": [
        {
          "internalType": "uint256",
          "name": "",
          "type": "uint256"
        }
      ],
      "stateMutability": "view",
      "type": "function"
    },
    {
      "inputs": [
        {
          "internalType": "uint256",
          "name": "_shares",
          "type": "uint256"
        }
      ],
      "name": "sharesToTokens",
      "outputs": [
        {
          "internalType": "uint256",
          "name": "",
          "type": "uint256"
        }
      ],
      "stateMutability": "view",
      "type": "function"
    },
    {
      "inputs": [],
      "name": "symbol",
      "outputs": [
        {
          "internalType": "string",
          "name": "",
          "type": "string"
        }
      ],
      "stateMutability": "view",
      "type": "function"
    },
    {
      "inputs": [
        {
          "internalType": "uint256",
          "name": "_tokens",
          "type": "uint256"
        }
      ],
      "name": "tokensToShares",
      "outputs": [
        {
          "internalType": "uint256",
          "name": "",
          "type": "uint256"
        }
      ],
      "stateMutability": "view",
      "type": "function"
    },
    {
      "inputs": [],
      "name": "totalStakedReader",
      "outputs": [
        {
          "internalType": "contract ITotalStakedReader",
          "name": "",
          "type": "address"
        }
      ],
      "stateMutability": "view",
      "type": "function"
    },
    {
      "inputs": [],
      "name": "totalSupply",
      "outputs": [
        {
          "internalType": "uint256",
          "name": "",
          "type": "uint256"
        }
      ],
      "stateMutability": "view",
      "type": "function"
    },
    {
      "inputs": [
        {
          "internalType": "address",
          "name": "_recipient",
          "type": "address"
        },
        {
          "internalType": "uint256",
          "name": "_amount",
          "type": "uint256"
        }
      ],
      "name": "transfer",
      "outputs": [
        {
          "internalType": "bool",
          "name": "",
          "type": "bool"
        }
      ],
      "stateMutability": "nonpayable",
      "type": "function"
    },
    {
      "inputs": [
        {
          "internalType": "address",
          "name": "_sender",
          "type": "address"
        },
        {
          "internalType": "address",
          "name": "_recipient",
          "type": "address"
        },
        {
          "internalType": "uint256",
          "name": "_amount",
          "type": "uint256"
        }
      ],
      "name": "transferFrom",
      "outputs": [
        {
          "internalType": "bool",
          "name": "",
          "type": "bool"
        }
      ],
      "stateMutability": "nonpayable",
      "type": "function"
    },
    {
      "inputs": [
        {
          "internalType": "address",
          "name": "newOwner",
          "type": "address"
        }
      ],
      "name": "transferOwnership",
      "outputs": [],
      "stateMutability": "nonpayable",
      "type": "function"
    }
  ],
  "transactionHash": "0x2abbd1dbea9c2215f9f781e80b4e6565fab3756f781c56d3b7de122b1908174e",
  "args": [],
  "solcInputHash": "14b0e1ff9d2182625fa00645b9479363",
  "bytecode": "0x608060405234801561001057600080fd5b50613b5b806100206000396000f3fe608060405234801561001057600080fd5b50600436106101a95760003560e01c8063715018a6116100f9578063a9059cbb11610097578063dd62ed3e11610071578063dd62ed3e1461050e578063f2fde38b1461053e578063f3044ac71461055a578063f5eb42dc1461058a576101a9565b8063a9059cbb146104a4578063d5002f2e146104d4578063d505accf146104f2576101a9565b80638da5cb5b116100d35780638da5cb5b1461040857806395d89b41146104265780639dc29fac14610444578063a457c2d714610474576101a9565b8063715018a6146103b05780637ecebe00146103ba5780638d7a7164146103ea576101a9565b806323b872dd116101665780633644e515116101405780633644e51514610302578063395093511461032057806340c10f191461035057806370a0823114610380576101a9565b806323b872dd1461028457806327def4fd146102b4578063313ce567146102e4576101a9565b80630216b5ec146101ae57806306fdde03146101cc578063077f224a146101ea578063095ea7b31461021a57806310eae6b51461024a57806318160ddd14610266575b600080fd5b6101b66105ba565b6040516101c39190612ff8565b60405180910390f35b6101d46105e1565b6040516101e19190613013565b60405180910390f35b61020460048036038101906101ff9190612985565b610673565b6040516102119190612ec9565b60405180910390f35b610234600480360381019061022f9190612920565b610876565b6040516102419190612ec9565b60405180910390f35b610264600480360381019061025f919061295c565b61088d565b005b61026e610988565b60405161027b9190613295565b60405180910390f35b61029e60048036038101906102999190612833565b610997565b6040516102ab9190612ec9565b60405180910390f35b6102ce60048036038101906102c99190612a04565b610a8a565b6040516102db9190613295565b60405180910390f35b6102ec610a9c565b6040516102f991906132b0565b60405180910390f35b61030a610aa5565b6040516103179190612ee4565b60405180910390f35b61033a60048036038101906103359190612920565b610ab4565b6040516103479190612ec9565b60405180910390f35b61036a60048036038101906103659190612920565b610b53565b6040516103779190612ec9565b60405180910390f35b61039a600480360381019061039591906127ce565b610bee565b6040516103a79190613295565b60405180910390f35b6103b8610c08565b005b6103d460048036038101906103cf91906127ce565b610c90565b6040516103e19190613295565b60405180910390f35b6103f2610ce0565b6040516103ff9190613295565b60405180910390f35b610410610cef565b60405161041d9190612eae565b60405180910390f35b61042e610d19565b60405161043b9190613013565b60405180910390f35b61045e60048036038101906104599190612920565b610dab565b60405161046b9190612ec9565b60405180910390f35b61048e60048036038101906104899190612920565b610e4c565b60405161049b9190612ec9565b60405180910390f35b6104be60048036038101906104b99190612920565b610f33565b6040516104cb9190612ec9565b60405180910390f35b6104dc610f4a565b6040516104e99190613295565b60405180910390f35b61050c60048036038101906105079190612882565b610f59565b005b610528600480360381019061052391906127f7565b61107d565b6040516105359190613295565b60405180910390f35b610558600480360381019061055391906127ce565b611105565b005b610574600480360381019061056f9190612a04565b6111fd565b6040516105819190613295565b60405180910390f35b6105a4600480360381019061059f91906127ce565b61120f565b6040516105b19190613295565b60405180910390f35b61010160009054906101000a900473ffffffffffffffffffffffffffffffffffffffff1681565b6060606880546105f090613534565b80601f016020809104026020016040519081016040528092919081815260200182805461061c90613534565b80156106695780601f1061063e57610100808354040283529160200191610669565b820191906000526020600020905b81548152906001019060200180831161064c57829003601f168201915b5050505050905090565b60008060019054906101000a900460ff168061069a575060008054906101000a900460ff16155b6106d9576040517f08c379a00000000000000000000000000000000000000000000000000000000081526004016106d090613175565b60405180910390fd5b60008060019054906101000a900460ff161590508015610729576001600060016101000a81548160ff02191690831515021790555060016000806101000a81548160ff0219169083151502179055505b610731611221565b6107396112fa565b6107818560405160200161074d9190612e6a565b6040516020818303038152906040528560405160200161076d9190612e8c565b6040516020818303038152906040526113e3565b6107df856040516020016107959190612e6a565b6040516020818303038152906040526040518060400160405280600181526020017f31000000000000000000000000000000000000000000000000000000000000008152506114ec565b610807856040516020016107f39190612e6a565b6040516020818303038152906040526115ef565b8261010160006101000a81548173ffffffffffffffffffffffffffffffffffffffff021916908373ffffffffffffffffffffffffffffffffffffffff16021790555060019150801561086e5760008060016101000a81548160ff0219169083151502179055505b509392505050565b60006108833384846116f0565b6001905092915050565b6108956118bc565b73ffffffffffffffffffffffffffffffffffffffff166108b3610cef565b73ffffffffffffffffffffffffffffffffffffffff1614610909576040517f08c379a000000000000000000000000000000000000000000000000000000000815260040161090090613215565b60405180910390fd5b600073ffffffffffffffffffffffffffffffffffffffff168173ffffffffffffffffffffffffffffffffffffffff16141561094357600080fd5b8061010160006101000a81548173ffffffffffffffffffffffffffffffffffffffff021916908373ffffffffffffffffffffffffffffffffffffffff16021790555050565b60006109926118c4565b905090565b60008061010060008673ffffffffffffffffffffffffffffffffffffffff1673ffffffffffffffffffffffffffffffffffffffff16815260200190815260200160002060003373ffffffffffffffffffffffffffffffffffffffff1673ffffffffffffffffffffffffffffffffffffffff16815260200190815260200160002054905082811015610a5d576040517f08c379a0000000000000000000000000000000000000000000000000000000008152600401610a5490613055565b60405180910390fd5b610a6885858561196c565b610a7e85338584610a799190613429565b6116f0565b60019150509392505050565b6000610a95826119ef565b9050919050565b60006012905090565b6000610aaf611a2a565b905090565b6000610b4933848461010060003373ffffffffffffffffffffffffffffffffffffffff1673ffffffffffffffffffffffffffffffffffffffff16815260200190815260200160002060008873ffffffffffffffffffffffffffffffffffffffff1673ffffffffffffffffffffffffffffffffffffffff16815260200190815260200160002054610b449190613348565b6116f0565b6001905092915050565b6000610b5d6118bc565b73ffffffffffffffffffffffffffffffffffffffff16610b7b610cef565b73ffffffffffffffffffffffffffffffffffffffff1614610bd1576040517f08c379a0000000000000000000000000000000000000000000000000000000008152600401610bc890613215565b60405180910390fd5b610be383610bde84611a6a565b611abf565b506001905092915050565b6000610c01610bfc83611ba3565b6119ef565b9050919050565b610c106118bc565b73ffffffffffffffffffffffffffffffffffffffff16610c2e610cef565b73ffffffffffffffffffffffffffffffffffffffff1614610c84576040517f08c379a0000000000000000000000000000000000000000000000000000000008152600401610c7b90613215565b60405180910390fd5b610c8e6000611bec565b565b6000610cd960cb60008473ffffffffffffffffffffffffffffffffffffffff1673ffffffffffffffffffffffffffffffffffffffff168152602001908152602001600020611cb2565b9050919050565b6000610cea6118c4565b905090565b6000603360009054906101000a900473ffffffffffffffffffffffffffffffffffffffff16905090565b606060698054610d2890613534565b80601f0160208091040260200160405190810160405280929190818152602001828054610d5490613534565b8015610da15780601f10610d7657610100808354040283529160200191610da1565b820191906000526020600020905b815481529060010190602001808311610d8457829003601f168201915b5050505050905090565b6000610db56118bc565b73ffffffffffffffffffffffffffffffffffffffff16610dd3610cef565b73ffffffffffffffffffffffffffffffffffffffff1614610e29576040517f08c379a0000000000000000000000000000000000000000000000000000000008152600401610e2090613215565b60405180910390fd5b6000610e3483611a6a565b9050610e408482611cc0565b50600191505092915050565b60008061010060003373ffffffffffffffffffffffffffffffffffffffff1673ffffffffffffffffffffffffffffffffffffffff16815260200190815260200160002060008573ffffffffffffffffffffffffffffffffffffffff1673ffffffffffffffffffffffffffffffffffffffff16815260200190815260200160002054905082811015610f12576040517f08c379a0000000000000000000000000000000000000000000000000000000008152600401610f0990613155565b60405180910390fd5b610f2833858584610f239190613429565b6116f0565b600191505092915050565b6000610f4033848461196c565b6001905092915050565b6000610f54611e2c565b905090565b83421115610f9c576040517f08c379a0000000000000000000000000000000000000000000000000000000008152600401610f9390613115565b60405180910390fd5b600060cc54888888610fad8c611e36565b89604051602001610fc396959493929190612eff565b6040516020818303038152906040528051906020012090506000610fe682611e94565b90506000610ff682878787611eae565b90508973ffffffffffffffffffffffffffffffffffffffff168173ffffffffffffffffffffffffffffffffffffffff1614611066576040517f08c379a000000000000000000000000000000000000000000000000000000000815260040161105d906131f5565b60405180910390fd5b6110718a8a8a6116f0565b50505050505050505050565b600061010060008473ffffffffffffffffffffffffffffffffffffffff1673ffffffffffffffffffffffffffffffffffffffff16815260200190815260200160002060008373ffffffffffffffffffffffffffffffffffffffff1673ffffffffffffffffffffffffffffffffffffffff16815260200190815260200160002054905092915050565b61110d6118bc565b73ffffffffffffffffffffffffffffffffffffffff1661112b610cef565b73ffffffffffffffffffffffffffffffffffffffff1614611181576040517f08c379a000000000000000000000000000000000000000000000000000000000815260040161117890613215565b60405180910390fd5b600073ffffffffffffffffffffffffffffffffffffffff168173ffffffffffffffffffffffffffffffffffffffff1614156111f1576040517f08c379a00000000000000000000000000000000000000000000000000000000081526004016111e8906130d5565b60405180910390fd5b6111fa81611bec565b50565b600061120882611a6a565b9050919050565b600061121a82611ba3565b9050919050565b600060019054906101000a900460ff1680611247575060008054906101000a900460ff16155b611286576040517f08c379a000000000000000000000000000000000000000000000000000000000815260040161127d90613175565b60405180910390fd5b60008060019054906101000a900460ff1615905080156112d6576001600060016101000a81548160ff02191690831515021790555060016000806101000a81548160ff0219169083151502179055505b80156112f75760008060016101000a81548160ff0219169083151502179055505b50565b600060019054906101000a900460ff1680611320575060008054906101000a900460ff16155b61135f576040517f08c379a000000000000000000000000000000000000000000000000000000000815260040161135690613175565b60405180910390fd5b60008060019054906101000a900460ff1615905080156113af576001600060016101000a81548160ff02191690831515021790555060016000806101000a81548160ff0219169083151502179055505b6113bf6113ba6118bc565b611bec565b80156113e05760008060016101000a81548160ff0219169083151502179055505b50565b600060019054906101000a900460ff1680611409575060008054906101000a900460ff16155b611448576040517f08c379a000000000000000000000000000000000000000000000000000000000815260040161143f90613175565b60405180910390fd5b60008060019054906101000a900460ff161590508015611498576001600060016101000a81548160ff02191690831515021790555060016000806101000a81548160ff0219169083151502179055505b82606890805190602001906114ae929190612645565b5081606990805190602001906114c5929190612645565b5080156114e75760008060016101000a81548160ff0219169083151502179055505b505050565b600060019054906101000a900460ff1680611512575060008054906101000a900460ff16155b611551576040517f08c379a000000000000000000000000000000000000000000000000000000000815260040161154890613175565b60405180910390fd5b60008060019054906101000a900460ff1615905080156115a1576001600060016101000a81548160ff02191690831515021790555060016000806101000a81548160ff0219169083151502179055505b6000838051906020012090506000838051906020012090508160978190555080609881905550505080156115ea5760008060016101000a81548160ff0219169083151502179055505b505050565b600060019054906101000a900460ff1680611615575060008054906101000a900460ff16155b611654576040517f08c379a000000000000000000000000000000000000000000000000000000000815260040161164b90613175565b60405180910390fd5b60008060019054906101000a900460ff1615905080156116a4576001600060016101000a81548160ff02191690831515021790555060016000806101000a81548160ff0219169083151502179055505b7f6e71edae12b1b97f4d1f60370fef10105fa2faae0126114a169c64845d6126c960cc8190555080156116ec5760008060016101000a81548160ff0219169083151502179055505b5050565b600073ffffffffffffffffffffffffffffffffffffffff168373ffffffffffffffffffffffffffffffffffffffff161415611760576040517f08c379a000000000000000000000000000000000000000000000000000000000815260040161175790613255565b60405180910390fd5b600073ffffffffffffffffffffffffffffffffffffffff168273ffffffffffffffffffffffffffffffffffffffff1614156117d0576040517f08c379a00000000000000000000000000000000000000000000000000000000081526004016117c7906130f5565b60405180910390fd5b8061010060008573ffffffffffffffffffffffffffffffffffffffff1673ffffffffffffffffffffffffffffffffffffffff16815260200190815260200160002060008473ffffffffffffffffffffffffffffffffffffffff1673ffffffffffffffffffffffffffffffffffffffff168152602001908152602001600020819055508173ffffffffffffffffffffffffffffffffffffffff168373ffffffffffffffffffffffffffffffffffffffff167f8c5be1e5ebec7d5bd14f71427d1e84f3dd0314c0f7b2291e5b200ac8c7c3b925836040516118af9190613295565b60405180910390a3505050565b600033905090565b600061010160009054906101000a900473ffffffffffffffffffffffffffffffffffffffff1673ffffffffffffffffffffffffffffffffffffffff16633ae732596040518163ffffffff1660e01b815260040160206040518083038186803b15801561192f57600080fd5b505afa158015611943573d6000803e3d6000fd5b505050506040513d601f19601f820116820180604052508101906119679190612a2d565b905090565b600061197782611a6a565b9050611984848483611ed9565b8273ffffffffffffffffffffffffffffffffffffffff168473ffffffffffffffffffffffffffffffffffffffff167fddf252ad1be2c89b69c2b068fc378daa952ba7f163c4a11628f55a4df523b3ef846040516119e19190613295565b60405180910390a350505050565b6000806119fa611e2c565b90506000811415611a0f576000915050611a25565b611a2183611a1b6118c4565b836120f2565b9150505b919050565b6000611a657f8b73c3c69bb8fe3d512ecc4cf759cc79239f7b179b0ffacaa9a75d522b39400f611a58612126565b611a60612130565b61213a565b905090565b600080611a756118c4565b90506000611a81611e2c565b90506000811415611a96578392505050611aba565b6000821415611aaa57600092505050611aba565b611ab58482846120f2565b925050505b919050565b60008073ffffffffffffffffffffffffffffffffffffffff168373ffffffffffffffffffffffffffffffffffffffff161415611b30576040517f08c379a0000000000000000000000000000000000000000000000000000000008152600401611b2790613275565b60405180910390fd5b8160fe54611b3e9190613348565b90508160ff60008573ffffffffffffffffffffffffffffffffffffffff1673ffffffffffffffffffffffffffffffffffffffff1681526020019081526020016000206000828254611b8f9190613348565b925050819055508060fe8190555092915050565b600060ff60008373ffffffffffffffffffffffffffffffffffffffff1673ffffffffffffffffffffffffffffffffffffffff168152602001908152602001600020549050919050565b6000603360009054906101000a900473ffffffffffffffffffffffffffffffffffffffff16905081603360006101000a81548173ffffffffffffffffffffffffffffffffffffffff021916908373ffffffffffffffffffffffffffffffffffffffff1602179055508173ffffffffffffffffffffffffffffffffffffffff168173ffffffffffffffffffffffffffffffffffffffff167f8be0079c531659141344cd1fd0a4f28419497f9722a3daafe3b4186f6b6457e060405160405180910390a35050565b600081600001549050919050565b60008073ffffffffffffffffffffffffffffffffffffffff168373ffffffffffffffffffffffffffffffffffffffff161415611d31576040517f08c379a0000000000000000000000000000000000000000000000000000000008152600401611d28906130b5565b60405180910390fd5b600060ff60008573ffffffffffffffffffffffffffffffffffffffff1673ffffffffffffffffffffffffffffffffffffffff16815260200190815260200160002054905080831115611db8576040517f08c379a0000000000000000000000000000000000000000000000000000000008152600401611daf906131d5565b60405180910390fd5b8260fe54611dc69190613429565b91508260ff60008673ffffffffffffffffffffffffffffffffffffffff1673ffffffffffffffffffffffffffffffffffffffff1681526020019081526020016000206000828254611e179190613429565b925050819055508160fe819055505092915050565b600060fe54905090565b60008060cb60008473ffffffffffffffffffffffffffffffffffffffff1673ffffffffffffffffffffffffffffffffffffffff1681526020019081526020016000209050611e8381611cb2565b9150611e8e81612174565b50919050565b6000611ea7611ea1611a2a565b8361218a565b9050919050565b6000806000611ebf878787876121bd565b91509150611ecc816122ca565b8192505050949350505050565b600073ffffffffffffffffffffffffffffffffffffffff168373ffffffffffffffffffffffffffffffffffffffff161415611f49576040517f08c379a0000000000000000000000000000000000000000000000000000000008152600401611f4090613095565b60405180910390fd5b600073ffffffffffffffffffffffffffffffffffffffff168273ffffffffffffffffffffffffffffffffffffffff161415611fb9576040517f08c379a0000000000000000000000000000000000000000000000000000000008152600401611fb0906131b5565b60405180910390fd5b600060ff60008573ffffffffffffffffffffffffffffffffffffffff1673ffffffffffffffffffffffffffffffffffffffff16815260200190815260200160002054905080821115612040576040517f08c379a000000000000000000000000000000000000000000000000000000000815260040161203790613235565b60405180910390fd5b8160ff60008673ffffffffffffffffffffffffffffffffffffffff1673ffffffffffffffffffffffffffffffffffffffff168152602001908152602001600020600082825461208f9190613429565b925050819055508160ff60008573ffffffffffffffffffffffffffffffffffffffff1673ffffffffffffffffffffffffffffffffffffffff16815260200190815260200160002060008282546120e59190613348565b9250508190555050505050565b6000683635c9adc5dea00000612108848461261b565b8561211391906133cf565b61211d919061339e565b90509392505050565b6000609754905090565b6000609854905090565b60008383834630604051602001612155959493929190612f60565b6040516020818303038152906040528051906020012090509392505050565b6001816000016000828254019250508190555050565b6000828260405160200161219f929190612e33565b60405160208183030381529060405280519060200120905092915050565b6000807f7fffffffffffffffffffffffffffffff5d576e7357a4501ddfe92f46681b20a08360001c11156121f85760006003915091506122c1565b601b8560ff16141580156122105750601c8560ff1614155b156122225760006004915091506122c1565b6000600187878787604051600081526020016040526040516122479493929190612fb3565b6020604051602081039080840390855afa158015612269573d6000803e3d6000fd5b505050602060405103519050600073ffffffffffffffffffffffffffffffffffffffff168173ffffffffffffffffffffffffffffffffffffffff1614156122b8576000600192509250506122c1565b80600092509250505b94509492505050565b60006004811115612304577f4e487b7100000000000000000000000000000000000000000000000000000000600052602160045260246000fd5b81600481111561233d577f4e487b7100000000000000000000000000000000000000000000000000000000600052602160045260246000fd5b141561234857612618565b60016004811115612382577f4e487b7100000000000000000000000000000000000000000000000000000000600052602160045260246000fd5b8160048111156123bb577f4e487b7100000000000000000000000000000000000000000000000000000000600052602160045260246000fd5b14156123fc576040517f08c379a00000000000000000000000000000000000000000000000000000000081526004016123f390613035565b60405180910390fd5b60026004811115612436577f4e487b7100000000000000000000000000000000000000000000000000000000600052602160045260246000fd5b81600481111561246f577f4e487b7100000000000000000000000000000000000000000000000000000000600052602160045260246000fd5b14156124b0576040517f08c379a00000000000000000000000000000000000000000000000000000000081526004016124a790613075565b60405180910390fd5b600360048111156124ea577f4e487b7100000000000000000000000000000000000000000000000000000000600052602160045260246000fd5b816004811115612523577f4e487b7100000000000000000000000000000000000000000000000000000000600052602160045260246000fd5b1415612564576040517f08c379a000000000000000000000000000000000000000000000000000000000815260040161255b90613135565b60405180910390fd5b60048081111561259d577f4e487b7100000000000000000000000000000000000000000000000000000000600052602160045260246000fd5b8160048111156125d6577f4e487b7100000000000000000000000000000000000000000000000000000000600052602160045260246000fd5b1415612617576040517f08c379a000000000000000000000000000000000000000000000000000000000815260040161260e90613195565b60405180910390fd5b5b50565b600081683635c9adc5dea000008461263391906133cf565b61263d919061339e565b905092915050565b82805461265190613534565b90600052602060002090601f01602090048101928261267357600085556126ba565b82601f1061268c57805160ff19168380011785556126ba565b828001600101855582156126ba579182015b828111156126b957825182559160200191906001019061269e565b5b5090506126c791906126cb565b5090565b5b808211156126e45760008160009055506001016126cc565b5090565b60006126fb6126f6846132f0565b6132cb565b90508281526020810184848401111561271357600080fd5b61271e8482856134f2565b509392505050565b60008135905061273581613ab2565b92915050565b60008135905061274a81613ac9565b92915050565b60008135905061275f81613ae0565b92915050565b600082601f83011261277657600080fd5b81356127868482602086016126e8565b91505092915050565b60008135905061279e81613af7565b92915050565b6000815190506127b381613af7565b92915050565b6000813590506127c881613b0e565b92915050565b6000602082840312156127e057600080fd5b60006127ee84828501612726565b91505092915050565b6000806040838503121561280a57600080fd5b600061281885828601612726565b925050602061282985828601612726565b9150509250929050565b60008060006060848603121561284857600080fd5b600061285686828701612726565b935050602061286786828701612726565b92505060406128788682870161278f565b9150509250925092565b600080600080600080600060e0888a03121561289d57600080fd5b60006128ab8a828b01612726565b97505060206128bc8a828b01612726565b96505060406128cd8a828b0161278f565b95505060606128de8a828b0161278f565b94505060806128ef8a828b016127b9565b93505060a06129008a828b0161273b565b92505060c06129118a828b0161273b565b91505092959891949750929550565b6000806040838503121561293357600080fd5b600061294185828601612726565b92505060206129528582860161278f565b9150509250929050565b60006020828403121561296e57600080fd5b600061297c84828501612750565b91505092915050565b60008060006060848603121561299a57600080fd5b600084013567ffffffffffffffff8111156129b457600080fd5b6129c086828701612765565b935050602084013567ffffffffffffffff8111156129dd57600080fd5b6129e986828701612765565b92505060406129fa86828701612750565b9150509250925092565b600060208284031215612a1657600080fd5b6000612a248482850161278f565b91505092915050565b600060208284031215612a3f57600080fd5b6000612a4d848285016127a4565b91505092915050565b612a5f8161345d565b82525050565b612a6e8161346f565b82525050565b612a7d8161347b565b82525050565b612a94612a8f8261347b565b613597565b82525050565b612aa3816134ce565b82525050565b6000612ab482613321565b612abe818561332c565b9350612ace818560208601613501565b612ad78161365d565b840191505092915050565b6000612aed82613321565b612af7818561333d565b9350612b07818560208601613501565b80840191505092915050565b6000612b2060188361332c565b9150612b2b8261366e565b602082019050919050565b6000612b4360218361332c565b9150612b4e82613697565b604082019050919050565b6000612b66601f8361332c565b9150612b71826136e6565b602082019050919050565b6000612b89601e8361332c565b9150612b948261370f565b602082019050919050565b6000612bac601a8361332c565b9150612bb782613738565b602082019050919050565b6000612bcf60268361332c565b9150612bda82613761565b604082019050919050565b6000612bf260178361332c565b9150612bfd826137b0565b602082019050919050565b6000612c1560028361333d565b9150612c20826137d9565b600282019050919050565b6000612c38601d8361332c565b9150612c4382613802565b602082019050919050565b6000612c5b60228361332c565b9150612c668261382b565b604082019050919050565b6000612c7e601e8361332c565b9150612c898261387a565b602082019050919050565b6000612ca160078361333d565b9150612cac826138a3565b600782019050919050565b6000612cc4602e8361332c565b9150612ccf826138cc565b604082019050919050565b6000612ce760228361332c565b9150612cf28261391b565b604082019050919050565b6000612d0a601c8361332c565b9150612d158261396a565b602082019050919050565b6000612d2d601b8361332c565b9150612d3882613993565b602082019050919050565b6000612d50601e8361332c565b9150612d5b826139bc565b602082019050919050565b6000612d7360208361332c565b9150612d7e826139e5565b602082019050919050565b6000612d96601f8361332c565b9150612da182613a0e565b602082019050919050565b6000612db960018361333d565b9150612dc482613a37565b600182019050919050565b6000612ddc60198361332c565b9150612de782613a60565b602082019050919050565b6000612dff60188361332c565b9150612e0a82613a89565b602082019050919050565b612e1e816134b7565b82525050565b612e2d816134c1565b82525050565b6000612e3e82612c08565b9150612e4a8285612a83565b602082019150612e5a8284612a83565b6020820191508190509392505050565b6000612e7582612c94565b9150612e818284612ae2565b915081905092915050565b6000612e9782612dac565b9150612ea38284612ae2565b915081905092915050565b6000602082019050612ec36000830184612a56565b92915050565b6000602082019050612ede6000830184612a65565b92915050565b6000602082019050612ef96000830184612a74565b92915050565b600060c082019050612f146000830189612a74565b612f216020830188612a56565b612f2e6040830187612a56565b612f3b6060830186612e15565b612f486080830185612e15565b612f5560a0830184612e15565b979650505050505050565b600060a082019050612f756000830188612a74565b612f826020830187612a74565b612f8f6040830186612a74565b612f9c6060830185612e15565b612fa96080830184612a56565b9695505050505050565b6000608082019050612fc86000830187612a74565b612fd56020830186612e24565b612fe26040830185612a74565b612fef6060830184612a74565b95945050505050565b600060208201905061300d6000830184612a9a565b92915050565b6000602082019050818103600083015261302d8184612aa9565b905092915050565b6000602082019050818103600083015261304e81612b13565b9050919050565b6000602082019050818103600083015261306e81612b36565b9050919050565b6000602082019050818103600083015261308e81612b59565b9050919050565b600060208201905081810360008301526130ae81612b7c565b9050919050565b600060208201905081810360008301526130ce81612b9f565b9050919050565b600060208201905081810360008301526130ee81612bc2565b9050919050565b6000602082019050818103600083015261310e81612be5565b9050919050565b6000602082019050818103600083015261312e81612c2b565b9050919050565b6000602082019050818103600083015261314e81612c4e565b9050919050565b6000602082019050818103600083015261316e81612c71565b9050919050565b6000602082019050818103600083015261318e81612cb7565b9050919050565b600060208201905081810360008301526131ae81612cda565b9050919050565b600060208201905081810360008301526131ce81612cfd565b9050919050565b600060208201905081810360008301526131ee81612d20565b9050919050565b6000602082019050818103600083015261320e81612d43565b9050919050565b6000602082019050818103600083015261322e81612d66565b9050919050565b6000602082019050818103600083015261324e81612d89565b9050919050565b6000602082019050818103600083015261326e81612dcf565b9050919050565b6000602082019050818103600083015261328e81612df2565b9050919050565b60006020820190506132aa6000830184612e15565b92915050565b60006020820190506132c56000830184612e24565b92915050565b60006132d56132e6565b90506132e18282613566565b919050565b6000604051905090565b600067ffffffffffffffff82111561330b5761330a61362e565b5b6133148261365d565b9050602081019050919050565b600081519050919050565b600082825260208201905092915050565b600081905092915050565b6000613353826134b7565b915061335e836134b7565b9250827fffffffffffffffffffffffffffffffffffffffffffffffffffffffffffffffff03821115613393576133926135a1565b5b828201905092915050565b60006133a9826134b7565b91506133b4836134b7565b9250826133c4576133c36135d0565b5b828204905092915050565b60006133da826134b7565b91506133e5836134b7565b9250817fffffffffffffffffffffffffffffffffffffffffffffffffffffffffffffffff048311821515161561341e5761341d6135a1565b5b828202905092915050565b6000613434826134b7565b915061343f836134b7565b925082821015613452576134516135a1565b5b828203905092915050565b600061346882613497565b9050919050565b60008115159050919050565b6000819050919050565b60006134908261345d565b9050919050565b600073ffffffffffffffffffffffffffffffffffffffff82169050919050565b6000819050919050565b600060ff82169050919050565b60006134d9826134e0565b9050919050565b60006134eb82613497565b9050919050565b82818337600083830152505050565b60005b8381101561351f578082015181840152602081019050613504565b8381111561352e576000848401525b50505050565b6000600282049050600182168061354c57607f821691505b602082108114156135605761355f6135ff565b5b50919050565b61356f8261365d565b810181811067ffffffffffffffff8211171561358e5761358d61362e565b5b80604052505050565b6000819050919050565b7f4e487b7100000000000000000000000000000000000000000000000000000000600052601160045260246000fd5b7f4e487b7100000000000000000000000000000000000000000000000000000000600052601260045260246000fd5b7f4e487b7100000000000000000000000000000000000000000000000000000000600052602260045260246000fd5b7f4e487b7100000000000000000000000000000000000000000000000000000000600052604160045260246000fd5b6000601f19601f8301169050919050565b7f45434453413a20696e76616c6964207369676e61747572650000000000000000600082015250565b7f5452414e534645525f414d4f554e545f455843454544535f414c4c4f57414e4360008201527f4500000000000000000000000000000000000000000000000000000000000000602082015250565b7f45434453413a20696e76616c6964207369676e6174757265206c656e67746800600082015250565b7f5452414e534645525f46524f4d5f5448455f5a45524f5f414444524553530000600082015250565b7f4255524e5f46524f4d5f5448455f5a45524f5f41444452455353000000000000600082015250565b7f4f776e61626c653a206e6577206f776e657220697320746865207a65726f206160008201527f6464726573730000000000000000000000000000000000000000000000000000602082015250565b7f415050524f56455f544f5f5a45524f5f41444452455353000000000000000000600082015250565b7f1901000000000000000000000000000000000000000000000000000000000000600082015250565b7f45524332305065726d69743a206578706972656420646561646c696e65000000600082015250565b7f45434453413a20696e76616c6964207369676e6174757265202773272076616c60008201527f7565000000000000000000000000000000000000000000000000000000000000602082015250565b7f4445435245415345445f414c4c4f57414e43455f42454c4f575f5a45524f0000600082015250565b7f74656e6465722000000000000000000000000000000000000000000000000000600082015250565b7f496e697469616c697a61626c653a20636f6e747261637420697320616c72656160008201527f647920696e697469616c697a6564000000000000000000000000000000000000602082015250565b7f45434453413a20696e76616c6964207369676e6174757265202776272076616c60008201527f7565000000000000000000000000000000000000000000000000000000000000602082015250565b7f5452414e534645525f544f5f5448455f5a45524f5f4144445245535300000000600082015250565b7f4255524e5f414d4f554e545f455843454544535f42414c414e43450000000000600082015250565b7f45524332305065726d69743a20696e76616c6964207369676e61747572650000600082015250565b7f4f776e61626c653a2063616c6c6572206973206e6f7420746865206f776e6572600082015250565b7f5452414e534645525f414d4f554e545f455843454544535f42414c414e434500600082015250565b7f7400000000000000000000000000000000000000000000000000000000000000600082015250565b7f415050524f56455f46524f4d5f5a45524f5f4144445245535300000000000000600082015250565b7f4d494e545f544f5f5448455f5a45524f5f414444524553530000000000000000600082015250565b613abb8161345d565b8114613ac657600080fd5b50565b613ad28161347b565b8114613add57600080fd5b50565b613ae981613485565b8114613af457600080fd5b50565b613b00816134b7565b8114613b0b57600080fd5b50565b613b17816134c1565b8114613b2257600080fd5b5056fea2646970667358221220878c66378b0f3429fb3f0e8c5cdce13befb933462e7f1d0694c45e9d0a980c1e64736f6c63430008040033",
  "devdoc": {
    "author": "Tenderize <info@tenderize.me>",
    "details": "TenderToken balances are dynamic and are calculated based on the accounts' shares and the total amount of Tokens controlled by the protocol. Account shares aren't normalized, so the contract also stores the sum of all shares to calculate each account's token balance which equals to: shares[account] * _getTotalPooledTokens() / _getTotalShares()",
    "kind": "dev",
    "methods": {
      "DOMAIN_SEPARATOR()": {
        "details": "See {IERC20Permit-DOMAIN_SEPARATOR}."
      },
      "allowance(address,address)": {
        "details": "This value changes when `approve` or `transferFrom` is called.",
        "params": {
          "_owner": "address that approved the allowance",
          "_spender": "address that is allowed to spend the allowance"
        },
        "returns": {
          "_0": "allowance amount '_spender' is allowed to spend from '_owner'"
        }
      },
      "approve(address,uint256)": {
        "details": "Emits an `Approval` event.Requirements: - `_spender` cannot be the zero address.The `_amount` argument is the amount of tokens, not shares.",
        "params": {
          "_amount": "amount of tokens to allow '_spender' to spend",
          "_spender": "address of the spender allowed to approve tokens from caller"
        },
        "returns": {
          "_0": "success a boolean value indicating whether the operation succeeded."
        }
      },
      "balanceOf(address)": {
        "details": "Balances are dynamic and equal the `_account`'s share in the amount of the total Tokens controlled by the protocol. See `sharesOf`.",
        "params": {
          "_account": "address of the account to check the balance for"
        },
        "returns": {
          "_0": "balance token balance of `_account`"
        }
      },
      "burn(address,uint256)": {
        "details": "Only callable by contract ownerCalculates the amount of shares to destroy based on the specified '_amount' and destroy shares rather than burning tokens'_recipient' should also withdraw from Tenderizer atomically",
        "params": {
          "_account": "address to burn the tokens from",
          "_amount": "amount to burn"
        },
        "returns": {
          "_0": "success a boolean value indicating whether the operation succeeded."
        }
      },
      "decimals()": {
        "returns": {
          "_0": "decimals the number of decimals for getting user representation of a token amount."
        }
      },
      "decreaseAllowance(address,uint256)": {
        "details": "This is an alternative to `approve` that can be used as a mitigation for problems described in: https://github.com/OpenZeppelin/openzeppelin-contracts/blob/master/contracts/token/ERC20/IERC20.sol#L42Emits an `Approval` event indicating the updated allowance.Requirements: - `_spender` cannot be the zero address. - `_spender` must have allowance for the caller of at least `_subtractedValue`.",
        "params": {
          "_spender": "address of the spender allowed to approve tokens from caller",
          "_subtractedValue": "amount to subtract from current allowance"
        },
        "returns": {
          "_0": "success a boolean value indicating whether the operation succeeded."
        }
      },
      "getTotalPooledTokens()": {
        "details": "The sum of all Tokens balances in the protocol, equals to the total supply of TenderToken.",
        "returns": {
          "_0": "totalPooledTokens total amount of pooled tokens"
        }
      },
      "getTotalShares()": {
        "details": "The sum of all accounts' shares can be an arbitrary number, therefore it is necessary to store it in order to calculate each account's relative share.",
        "returns": {
          "_0": "totalShares total amount of shares"
        }
      },
      "increaseAllowance(address,uint256)": {
        "details": "This is an alternative to `approve` that can be used as a mitigation for problems described in: https://github.com/OpenZeppelin/openzeppelin-contracts/blob/master/contracts/token/ERC20/IERC20.sol#L42Emits an `Approval` event indicating the updated allowance.Requirements: - `_spender` cannot be the the zero address.",
        "params": {
          "_addedValue": "amount to add to allowance",
          "_spender": "address of the spender allowed to approve tokens from caller"
        },
        "returns": {
          "_0": "success a boolean value indicating whether the operation succeeded."
        }
      },
      "initialize(string,string,address)": {
        "params": {
          "_name": "name of the token (steak)",
          "_stakedReader": "contract address implementing the ITotalStakedReader interface",
          "_symbol": "symbol of the token (steak)"
        },
        "returns": {
          "_0": "a boolean value indicating whether the init succeeded."
        }
      },
      "mint(address,uint256)": {
        "details": "Only callable by contract ownerCalculates the amount of shares to create based on the specified '_amount' and creates new shares rather than minting actual tokens'_recipient' should also deposit into Tenderizer atomically to prevent diluation of existing particpants",
        "params": {
          "_amount": "amount to mint",
          "_recipient": "address to mint tokens for"
        },
        "returns": {
          "_0": "success a boolean value indicating whether the operation succeeded."
        }
      },
      "name()": {
        "details": "Returns the name of the token."
      },
      "nonces(address)": {
        "details": "See {IERC20Permit-nonces}."
      },
      "owner()": {
        "details": "Returns the address of the current owner."
      },
      "permit(address,address,uint256,uint256,uint8,bytes32,bytes32)": {
        "details": "See {IERC20Permit-permit}."
      },
      "renounceOwnership()": {
        "details": "Leaves the contract without owner. It will not be possible to call `onlyOwner` functions anymore. Can only be called by the current owner. NOTE: Renouncing ownership will leave the contract without an owner, thereby removing any functionality that is only available to the owner."
      },
      "setTotalStakedReader(address)": {
        "details": "Only callable by contract owner.Used to determine TenderToken total supply.",
        "params": {
          "_stakedReader": "contract address implementing the ITotalStakedReader interface"
        }
      },
      "sharesOf(address)": {
        "params": {
          "_account": "address of the account"
        },
        "returns": {
          "_0": "shares the amount of shares owned by `_account`."
        }
      },
      "sharesToTokens(uint256)": {
        "params": {
          "_shares": "the amount of shares to calculate the amount of tokens for"
        },
        "returns": {
          "_0": "tokens the amount of tokens represented by the shares"
        }
      },
      "symbol()": {
        "details": "Returns the symbol of the token, usually a shorter version of the name."
      },
      "tokensToShares(uint256)": {
        "params": {
          "_tokens": "amount of tokens to calculate shares for"
        },
        "returns": {
          "_0": "shares nominal amount of shares the tokens represent"
        }
      },
      "totalSupply()": {
        "details": "Always equals to `_getTotalPooledTokens()` since token amount is pegged to the total amount of Tokens controlled by the protocol.",
        "returns": {
          "_0": "totalSupply total supply"
        }
      },
      "transfer(address,uint256)": {
        "details": "Emits a `Transfer` event.Requirements: - `_recipient` cannot be the zero address. - the caller must have a balance of at least `_amount`.The `_amount` argument is the amount of tokens, not shares.",
        "params": {
          "_amount": "amount of tokens to transfer",
          "_recipient": "address of the recipient"
        },
        "returns": {
          "_0": "success a boolean value indicating whether the operation succeeded."
        }
      },
      "transferFrom(address,address,uint256)": {
        "details": "Emits a `Transfer` event.Emits an `Approval` event indicating the updated allowance.Requirements: - `_sender` and `_recipient` cannot be the zero addresses. - `_sender` must have a balance of at least `_amount`. - the caller must have allowance for `_sender`'s tokens of at least `_amount`.The `_amount` argument is the amount of tokens, not shares.",
        "params": {
          "_recipient": "address of the recipient",
          "_sender": "address of the account to transfer tokens from"
        },
        "returns": {
          "_0": "success a boolean value indicating whether the operation succeeded."
        }
      },
      "transferOwnership(address)": {
        "details": "Transfers ownership of the contract to a new account (`newOwner`). Can only be called by the current owner."
      }
    },
    "stateVariables": {
      "allowances": {
        "details": "Allowances nominated in tokens, not token shares."
      },
      "shares": {
        "details": "Nominal amount of shares held by each account"
      },
      "totalShares": {
        "details": "Total amount of outstanding shares"
      },
      "totalStakedReader": {
        "details": "Tenderizer address, to read total staked tokens"
      }
    },
    "title": "Interest-bearing ERC20-like token for Tenderize protocol.",
    "version": 1
  },
  "userdoc": {
    "kind": "user",
    "methods": {
      "allowance(address,address)": {
        "notice": "The remaining number of tokens that `_spender` is allowed to spend behalf of `_owner` through `transferFrom`. This is zero by default."
      },
      "approve(address,uint256)": {
        "notice": "Sets `_amount` as the allowance of `_spender` over the caller's tokens."
      },
      "balanceOf(address)": {
        "notice": "the amount of tokens owned by the `_account`."
      },
      "burn(address,uint256)": {
        "notice": "Burns '_amount' of tokens from '_recipient'"
      },
      "decimals()": {
        "notice": "The number of decimals the TenderToken uses."
      },
      "decreaseAllowance(address,uint256)": {
        "notice": "Atomically decreases the allowance granted to `_spender` by the caller by `_subtractedValue`."
      },
      "getTotalPooledTokens()": {
        "notice": "Total amount of underlying tokens controlled by the Tenderizer."
      },
      "getTotalShares()": {
        "notice": "The total amount of shares in existence."
      },
      "increaseAllowance(address,uint256)": {
        "notice": "Atomically increases the allowance granted to `_spender` by the caller by `_addedValue`."
      },
      "initialize(string,string,address)": {
        "notice": "Initilize the TenderToken Contract"
      },
      "mint(address,uint256)": {
        "notice": "Mints '_amount' of tokens for '_recipient'"
      },
      "setTotalStakedReader(address)": {
        "notice": "sets a TotalStakedReader to read the total staked tokens from"
      },
      "sharesOf(address)": {
        "notice": "The amount of shares owned by an account"
      },
      "sharesToTokens(uint256)": {
        "notice": "The amount of tokens that corresponds to `_shares` token shares."
      },
      "tokensToShares(uint256)": {
        "notice": "The amount of shares that corresponds to `_tokens` protocol-controlled Tokens."
      },
      "totalSupply()": {
        "notice": "The total supply of tender tokens in existence."
      },
      "transfer(address,uint256)": {
        "notice": "Transfers `_amount` tokens from the caller's account to the `_recipient` account."
      },
      "transferFrom(address,address,uint256)": {
        "notice": "Transfers `_amount` tokens from `_sender` to `_recipient` using the allowance mechanism. `_amount` is then deducted from the caller's allowance."
      }
    },
    "version": 1
  },
  "storageLayout": {
    "storage": [
      {
        "astId": 130,
        "contract": "contracts/token/TenderToken.sol:TenderToken",
        "label": "_initialized",
        "offset": 0,
        "slot": "0",
        "type": "t_bool"
      },
      {
        "astId": 133,
        "contract": "contracts/token/TenderToken.sol:TenderToken",
        "label": "_initializing",
        "offset": 1,
        "slot": "0",
        "type": "t_bool"
      },
      {
        "astId": 1267,
        "contract": "contracts/token/TenderToken.sol:TenderToken",
        "label": "__gap",
        "offset": 0,
        "slot": "1",
        "type": "t_array(t_uint256)50_storage"
      },
      {
        "astId": 10,
        "contract": "contracts/token/TenderToken.sol:TenderToken",
        "label": "_owner",
        "offset": 0,
        "slot": "51",
        "type": "t_address"
      },
      {
        "astId": 123,
        "contract": "contracts/token/TenderToken.sol:TenderToken",
        "label": "__gap",
        "offset": 0,
        "slot": "52",
        "type": "t_array(t_uint256)49_storage"
      },
      {
        "astId": 247,
        "contract": "contracts/token/TenderToken.sol:TenderToken",
        "label": "_balances",
        "offset": 0,
        "slot": "101",
        "type": "t_mapping(t_address,t_uint256)"
      },
      {
        "astId": 253,
        "contract": "contracts/token/TenderToken.sol:TenderToken",
        "label": "_allowances",
        "offset": 0,
        "slot": "102",
        "type": "t_mapping(t_address,t_mapping(t_address,t_uint256))"
      },
      {
        "astId": 255,
        "contract": "contracts/token/TenderToken.sol:TenderToken",
        "label": "_totalSupply",
        "offset": 0,
        "slot": "103",
        "type": "t_uint256"
      },
      {
        "astId": 257,
        "contract": "contracts/token/TenderToken.sol:TenderToken",
        "label": "_name",
        "offset": 0,
        "slot": "104",
        "type": "t_string_storage"
      },
      {
        "astId": 259,
        "contract": "contracts/token/TenderToken.sol:TenderToken",
        "label": "_symbol",
        "offset": 0,
        "slot": "105",
        "type": "t_string_storage"
      },
      {
        "astId": 800,
        "contract": "contracts/token/TenderToken.sol:TenderToken",
        "label": "__gap",
        "offset": 0,
        "slot": "106",
        "type": "t_array(t_uint256)45_storage"
      },
      {
        "astId": 1718,
        "contract": "contracts/token/TenderToken.sol:TenderToken",
        "label": "_HASHED_NAME",
        "offset": 0,
        "slot": "151",
        "type": "t_bytes32"
      },
      {
        "astId": 1720,
        "contract": "contracts/token/TenderToken.sol:TenderToken",
        "label": "_HASHED_VERSION",
        "offset": 0,
        "slot": "152",
        "type": "t_bytes32"
      },
      {
        "astId": 1857,
        "contract": "contracts/token/TenderToken.sol:TenderToken",
        "label": "__gap",
        "offset": 0,
        "slot": "153",
        "type": "t_array(t_uint256)50_storage"
      },
      {
        "astId": 1017,
        "contract": "contracts/token/TenderToken.sol:TenderToken",
        "label": "_nonces",
        "offset": 0,
        "slot": "203",
        "type": "t_mapping(t_address,t_struct(Counter)1274_storage)"
      },
      {
        "astId": 1019,
        "contract": "contracts/token/TenderToken.sol:TenderToken",
        "label": "_PERMIT_TYPEHASH",
        "offset": 0,
        "slot": "204",
        "type": "t_bytes32"
      },
      {
        "astId": 1187,
        "contract": "contracts/token/TenderToken.sol:TenderToken",
        "label": "__gap",
        "offset": 0,
        "slot": "205",
        "type": "t_array(t_uint256)49_storage"
      },
      {
        "astId": 14453,
        "contract": "contracts/token/TenderToken.sol:TenderToken",
        "label": "totalShares",
        "offset": 0,
        "slot": "254",
        "type": "t_uint256"
      },
      {
        "astId": 14458,
        "contract": "contracts/token/TenderToken.sol:TenderToken",
        "label": "shares",
        "offset": 0,
        "slot": "255",
        "type": "t_mapping(t_address,t_uint256)"
      },
      {
        "astId": 14465,
        "contract": "contracts/token/TenderToken.sol:TenderToken",
        "label": "allowances",
        "offset": 0,
        "slot": "256",
        "type": "t_mapping(t_address,t_mapping(t_address,t_uint256))"
      },
      {
        "astId": 14469,
        "contract": "contracts/token/TenderToken.sol:TenderToken",
        "label": "totalStakedReader",
        "offset": 0,
        "slot": "257",
        "type": "t_contract(ITotalStakedReader)5644"
      }
    ],
    "types": {
      "t_address": {
        "encoding": "inplace",
        "label": "address",
        "numberOfBytes": "20"
      },
      "t_array(t_uint256)45_storage": {
        "base": "t_uint256",
        "encoding": "inplace",
        "label": "uint256[45]",
        "numberOfBytes": "1440"
      },
      "t_array(t_uint256)49_storage": {
        "base": "t_uint256",
        "encoding": "inplace",
        "label": "uint256[49]",
        "numberOfBytes": "1568"
      },
      "t_array(t_uint256)50_storage": {
        "base": "t_uint256",
        "encoding": "inplace",
        "label": "uint256[50]",
        "numberOfBytes": "1600"
      },
      "t_bool": {
        "encoding": "inplace",
        "label": "bool",
        "numberOfBytes": "1"
      },
      "t_bytes32": {
        "encoding": "inplace",
        "label": "bytes32",
        "numberOfBytes": "32"
      },
      "t_contract(ITotalStakedReader)5644": {
        "encoding": "inplace",
        "label": "contract ITotalStakedReader",
        "numberOfBytes": "20"
      },
      "t_mapping(t_address,t_mapping(t_address,t_uint256))": {
        "encoding": "mapping",
        "key": "t_address",
        "label": "mapping(address => mapping(address => uint256))",
        "numberOfBytes": "32",
        "value": "t_mapping(t_address,t_uint256)"
      },
      "t_mapping(t_address,t_struct(Counter)1274_storage)": {
        "encoding": "mapping",
        "key": "t_address",
        "label": "mapping(address => struct CountersUpgradeable.Counter)",
        "numberOfBytes": "32",
        "value": "t_struct(Counter)1274_storage"
      },
      "t_mapping(t_address,t_uint256)": {
        "encoding": "mapping",
        "key": "t_address",
        "label": "mapping(address => uint256)",
        "numberOfBytes": "32",
        "value": "t_uint256"
      },
      "t_string_storage": {
        "encoding": "bytes",
        "label": "string",
        "numberOfBytes": "32"
      },
      "t_struct(Counter)1274_storage": {
        "encoding": "inplace",
        "label": "struct CountersUpgradeable.Counter",
        "members": [
          {
            "astId": 1273,
            "contract": "contracts/token/TenderToken.sol:TenderToken",
            "label": "_value",
            "offset": 0,
            "slot": "0",
            "type": "t_uint256"
          }
        ],
        "numberOfBytes": "32"
      },
      "t_uint256": {
        "encoding": "inplace",
        "label": "uint256",
        "numberOfBytes": "32"
      }
    }
  }
}