{
  "address": "0x25E83ea95f7d331FB0387f43c98eef3B0CCD807F",
  "abi": [
    {
      "anonymous": false,
      "inputs": [
        {
          "indexed": true,
          "internalType": "address",
          "name": "from",
          "type": "address"
        },
        {
          "indexed": false,
          "internalType": "uint256",
          "name": "amount",
          "type": "uint256"
        }
      ],
      "name": "Deposit",
      "type": "event"
    },
    {
      "anonymous": false,
      "inputs": [
        {
          "indexed": false,
          "internalType": "enum GovernanceParameter",
          "name": "param",
          "type": "uint8"
        },
        {
          "indexed": false,
          "internalType": "bytes",
          "name": "oldValue",
          "type": "bytes"
        },
        {
          "indexed": false,
          "internalType": "bytes",
          "name": "newValue",
          "type": "bytes"
        }
      ],
      "name": "GovernanceUpdate",
      "type": "event"
    },
    {
      "anonymous": false,
      "inputs": [
        {
          "indexed": false,
          "internalType": "uint256",
          "name": "amount",
          "type": "uint256"
        }
      ],
      "name": "LiquidityFeeCollected",
      "type": "event"
    },
    {
      "anonymous": false,
      "inputs": [
        {
          "indexed": true,
          "internalType": "address",
          "name": "from",
          "type": "address"
        },
        {
          "indexed": true,
          "internalType": "address",
          "name": "node",
          "type": "address"
        },
        {
          "indexed": false,
          "internalType": "uint256",
          "name": "amount",
          "type": "uint256"
        }
      ],
      "name": "ProcessUnstakes",
      "type": "event"
    },
    {
      "anonymous": false,
      "inputs": [
        {
          "indexed": true,
          "internalType": "address",
          "name": "from",
          "type": "address"
        },
        {
          "indexed": false,
          "internalType": "uint256",
          "name": "amount",
          "type": "uint256"
        }
      ],
      "name": "ProcessWithdraws",
      "type": "event"
    },
    {
      "anonymous": false,
      "inputs": [
        {
          "indexed": false,
          "internalType": "uint256",
          "name": "amount",
          "type": "uint256"
        }
      ],
      "name": "ProtocolFeeCollected",
      "type": "event"
    },
    {
      "anonymous": false,
      "inputs": [
        {
          "indexed": false,
          "internalType": "int256",
          "name": "stakeDiff",
          "type": "int256"
        },
        {
          "indexed": false,
          "internalType": "uint256",
          "name": "currentPrincipal",
          "type": "uint256"
        },
        {
          "indexed": false,
          "internalType": "uint256",
          "name": "oldPrincipal",
          "type": "uint256"
        }
      ],
      "name": "RewardsClaimed",
      "type": "event"
    },
    {
      "anonymous": false,
      "inputs": [
        {
          "indexed": true,
          "internalType": "address",
          "name": "node",
          "type": "address"
        },
        {
          "indexed": false,
          "internalType": "uint256",
          "name": "amount",
          "type": "uint256"
        }
      ],
      "name": "Stake",
      "type": "event"
    },
    {
      "anonymous": false,
      "inputs": [
        {
          "indexed": true,
          "internalType": "address",
          "name": "from",
          "type": "address"
        },
        {
          "indexed": true,
          "internalType": "address",
          "name": "node",
          "type": "address"
        },
        {
          "indexed": false,
          "internalType": "uint256",
          "name": "amount",
          "type": "uint256"
        },
        {
          "indexed": false,
          "internalType": "uint256",
          "name": "unstakeLockID",
          "type": "uint256"
        }
      ],
      "name": "Unstake",
      "type": "event"
    },
    {
      "anonymous": false,
      "inputs": [
        {
          "indexed": true,
          "internalType": "address",
          "name": "from",
          "type": "address"
        },
        {
          "indexed": false,
          "internalType": "uint256",
          "name": "amount",
          "type": "uint256"
        },
        {
          "indexed": false,
          "internalType": "uint256",
          "name": "unstakeLockID",
          "type": "uint256"
        }
      ],
      "name": "Withdraw",
      "type": "event"
    },
    {
      "inputs": [
        {
          "internalType": "uint256",
          "name": "_amountIn",
          "type": "uint256"
        }
      ],
      "name": "calcDepositOut",
      "outputs": [
        {
          "internalType": "uint256",
          "name": "",
          "type": "uint256"
        }
      ],
      "stateMutability": "view",
      "type": "function"
    },
    {
      "inputs": [],
      "name": "claimRewards",
      "outputs": [],
      "stateMutability": "nonpayable",
      "type": "function"
    },
    {
      "inputs": [],
      "name": "currentPrincipal",
      "outputs": [
        {
          "internalType": "uint256",
          "name": "",
          "type": "uint256"
        }
      ],
      "stateMutability": "view",
      "type": "function"
    },
    {
      "inputs": [
        {
          "internalType": "uint256",
          "name": "_amount",
          "type": "uint256"
        }
      ],
      "name": "deposit",
      "outputs": [],
      "stateMutability": "nonpayable",
      "type": "function"
    },
    {
      "inputs": [
        {
          "internalType": "uint256",
          "name": "_amount",
          "type": "uint256"
        },
        {
          "internalType": "uint256",
          "name": "_deadline",
          "type": "uint256"
        },
        {
          "internalType": "uint8",
          "name": "_v",
          "type": "uint8"
        },
        {
          "internalType": "bytes32",
          "name": "_r",
          "type": "bytes32"
        },
        {
          "internalType": "bytes32",
          "name": "_s",
          "type": "bytes32"
        }
      ],
      "name": "depositWithPermit",
      "outputs": [],
      "stateMutability": "nonpayable",
      "type": "function"
    },
    {
      "inputs": [],
      "name": "gov",
      "outputs": [
        {
          "internalType": "address",
          "name": "",
          "type": "address"
        }
      ],
      "stateMutability": "view",
      "type": "function"
    },
    {
      "inputs": [
        {
          "internalType": "contract IERC20",
          "name": "_steak",
          "type": "address"
        },
        {
          "internalType": "string",
          "name": "_symbol",
          "type": "string"
        },
        {
          "internalType": "contract IGraph",
          "name": "_graph",
          "type": "address"
        },
        {
          "internalType": "address",
          "name": "_node",
          "type": "address"
        },
        {
          "internalType": "uint256",
          "name": "_protocolFee",
          "type": "uint256"
        },
        {
          "internalType": "uint256",
          "name": "_liquidityFee",
          "type": "uint256"
        },
        {
          "internalType": "contract ITenderToken",
          "name": "_tenderTokenTarget",
          "type": "address"
        },
        {
          "internalType": "contract TenderFarmFactory",
          "name": "_tenderFarmFactory",
          "type": "address"
        },
        {
          "internalType": "contract ITenderSwapFactory",
          "name": "_tenderSwapFactory",
          "type": "address"
        }
      ],
      "name": "initialize",
      "outputs": [],
      "stateMutability": "nonpayable",
      "type": "function"
    },
    {
      "inputs": [],
      "name": "liquidityFee",
      "outputs": [
        {
          "internalType": "uint256",
          "name": "",
          "type": "uint256"
        }
      ],
      "stateMutability": "view",
      "type": "function"
    },
    {
      "inputs": [
        {
          "internalType": "address",
          "name": "_newNode",
          "type": "address"
        }
      ],
      "name": "migrateUnlock",
      "outputs": [
        {
          "internalType": "uint256",
          "name": "lockID",
          "type": "uint256"
        }
      ],
      "stateMutability": "nonpayable",
      "type": "function"
    },
    {
      "inputs": [
        {
          "internalType": "uint256",
          "name": "_unstakeLockID",
          "type": "uint256"
        }
      ],
      "name": "migrateWithdraw",
      "outputs": [],
      "stateMutability": "nonpayable",
      "type": "function"
    },
    {
      "inputs": [],
      "name": "node",
      "outputs": [
        {
          "internalType": "address",
          "name": "",
          "type": "address"
        }
      ],
      "stateMutability": "view",
      "type": "function"
    },
    {
      "inputs": [],
      "name": "processUnstake",
      "outputs": [],
      "stateMutability": "nonpayable",
      "type": "function"
    },
    {
      "inputs": [
        {
          "internalType": "address",
          "name": "_node",
          "type": "address"
        }
      ],
      "name": "processWithdraw",
      "outputs": [],
      "stateMutability": "nonpayable",
      "type": "function"
    },
    {
      "inputs": [],
      "name": "protocolFee",
      "outputs": [
        {
          "internalType": "uint256",
          "name": "",
          "type": "uint256"
        }
      ],
      "stateMutability": "view",
      "type": "function"
    },
    {
      "inputs": [],
      "name": "rescueUnlock",
      "outputs": [
        {
          "internalType": "uint256",
          "name": "",
          "type": "uint256"
        }
      ],
      "stateMutability": "nonpayable",
      "type": "function"
    },
    {
      "inputs": [
        {
          "internalType": "uint256",
          "name": "_unstakeLockID",
          "type": "uint256"
        }
      ],
      "name": "rescueWithdraw",
      "outputs": [],
      "stateMutability": "nonpayable",
      "type": "function"
    },
    {
      "inputs": [
        {
          "internalType": "address",
          "name": "_token",
          "type": "address"
        },
        {
          "internalType": "uint256",
          "name": "_value",
          "type": "uint256"
        },
        {
          "internalType": "uint256",
          "name": "_deadline",
          "type": "uint256"
        },
        {
          "internalType": "uint8",
          "name": "_v",
          "type": "uint8"
        },
        {
          "internalType": "bytes32",
          "name": "_r",
          "type": "bytes32"
        },
        {
          "internalType": "bytes32",
          "name": "_s",
          "type": "bytes32"
        }
      ],
      "name": "selfPermit",
      "outputs": [],
      "stateMutability": "payable",
      "type": "function"
    },
    {
      "inputs": [
        {
          "internalType": "address",
          "name": "_token",
          "type": "address"
        },
        {
          "internalType": "uint256",
          "name": "_value",
          "type": "uint256"
        },
        {
          "internalType": "uint256",
          "name": "_deadline",
          "type": "uint256"
        },
        {
          "internalType": "uint8",
          "name": "_v",
          "type": "uint8"
        },
        {
          "internalType": "bytes32",
          "name": "_r",
          "type": "bytes32"
        },
        {
          "internalType": "bytes32",
          "name": "_s",
          "type": "bytes32"
        }
      ],
      "name": "selfPermitIfNecessary",
      "outputs": [],
      "stateMutability": "payable",
      "type": "function"
    },
    {
      "inputs": [
        {
          "internalType": "address",
          "name": "_gov",
          "type": "address"
        }
      ],
      "name": "setGov",
      "outputs": [],
      "stateMutability": "nonpayable",
      "type": "function"
    },
    {
      "inputs": [
        {
          "internalType": "uint256",
          "name": "_liquidityFee",
          "type": "uint256"
        }
      ],
      "name": "setLiquidityFee",
      "outputs": [],
      "stateMutability": "nonpayable",
      "type": "function"
    },
    {
      "inputs": [
        {
          "internalType": "address",
          "name": "_node",
          "type": "address"
        }
      ],
      "name": "setNode",
      "outputs": [],
      "stateMutability": "nonpayable",
      "type": "function"
    },
    {
      "inputs": [
        {
          "internalType": "uint256",
          "name": "_protocolFee",
          "type": "uint256"
        }
      ],
      "name": "setProtocolFee",
      "outputs": [],
      "stateMutability": "nonpayable",
      "type": "function"
    },
    {
      "inputs": [
        {
          "internalType": "address",
          "name": "_stakingContract",
          "type": "address"
        }
      ],
      "name": "setStakingContract",
      "outputs": [],
      "stateMutability": "nonpayable",
      "type": "function"
    },
    {
      "inputs": [
        {
          "internalType": "contract IERC20",
          "name": "_steak",
          "type": "address"
        }
      ],
      "name": "setSteak",
      "outputs": [],
      "stateMutability": "nonpayable",
      "type": "function"
    },
    {
      "inputs": [
        {
          "internalType": "contract ITenderFarm",
          "name": "_tenderFarm",
          "type": "address"
        }
      ],
      "name": "setTenderFarm",
      "outputs": [],
      "stateMutability": "nonpayable",
      "type": "function"
    },
    {
      "inputs": [
        {
          "internalType": "uint256",
          "name": "_amount",
          "type": "uint256"
        }
      ],
      "name": "stake",
      "outputs": [],
      "stateMutability": "nonpayable",
      "type": "function"
    },
    {
      "inputs": [],
      "name": "steak",
      "outputs": [
        {
          "internalType": "contract IERC20",
          "name": "",
          "type": "address"
        }
      ],
      "stateMutability": "view",
      "type": "function"
    },
    {
      "inputs": [],
      "name": "tenderFarm",
      "outputs": [
        {
          "internalType": "contract ITenderFarm",
          "name": "",
          "type": "address"
        }
      ],
      "stateMutability": "view",
      "type": "function"
    },
    {
      "inputs": [],
      "name": "tenderSwap",
      "outputs": [
        {
          "internalType": "contract ITenderSwap",
          "name": "",
          "type": "address"
        }
      ],
      "stateMutability": "view",
      "type": "function"
    },
    {
      "inputs": [],
      "name": "tenderToken",
      "outputs": [
        {
          "internalType": "contract ITenderToken",
          "name": "",
          "type": "address"
        }
      ],
      "stateMutability": "view",
      "type": "function"
    },
    {
      "inputs": [],
      "name": "totalStakedTokens",
      "outputs": [
        {
          "internalType": "uint256",
          "name": "",
          "type": "uint256"
        }
      ],
      "stateMutability": "view",
      "type": "function"
    },
    {
      "inputs": [
        {
          "internalType": "uint256",
          "name": "_amount",
          "type": "uint256"
        }
      ],
      "name": "unstake",
      "outputs": [
        {
          "internalType": "uint256",
          "name": "",
          "type": "uint256"
        }
      ],
      "stateMutability": "nonpayable",
      "type": "function"
    },
    {
      "inputs": [
        {
          "internalType": "uint256",
          "name": "_unstakeLockID",
          "type": "uint256"
        }
      ],
      "name": "withdraw",
      "outputs": [],
      "stateMutability": "nonpayable",
      "type": "function"
    }
  ],
  "transactionHash": "0xf499a216980a9be90e3f8d460dc8301c8d54e45d72ada2f6fca6dc77afc372bb",
  "args": [],
  "numDeployments": 1,
  "solcInputHash": "530fe51250b8e7858a1f7ad51321523a",
  "bytecode": "0x608060405234801561001057600080fd5b5061354d806100206000396000f3fe6080604052600436106101ee5760003560e01c806398118cb41161010d578063c2e3140a116100a0578063edb000981161006f578063edb000981461055a578063f3995c671461057a578063f4d95a711461058d578063fbdfc961146105ad578063fdacf3d0146105cd57600080fd5b8063c2e3140a146104e7578063cfad57a2146104fa578063d70754ec1461051a578063ec6d80f61461053a57600080fd5b8063afef75d2116100dc578063afef75d214610471578063b0e21e8a14610491578063b6b55f25146104a7578063c21d5ab7146104c757600080fd5b806398118cb4146103fb5780639dd373b914610411578063a26a546b14610431578063a694fc3a1461045157600080fd5b80633ae73259116101855780636991bc77116101545780636991bc77146103755780636f19031514610395578063787dce3d146103bb5780637cb0c275146103db57600080fd5b80633ae732591461030a57806349f2e5441461031f5780634a970be71461033f57806351c669c01461035f57600080fd5b80632e1a7d4d116101c15780632e1a7d4d1461029e578063357bf15c146102c057806336a30f44146102e0578063372500ab146102f557600080fd5b806312d43a51146101f3578063170ad87d146102305780632d8221601461025e5780632e17de781461027e575b600080fd5b3480156101ff57600080fd5b50600854610213906001600160a01b031681565b6040516001600160a01b0390911681526020015b60405180910390f35b34801561023c57600080fd5b5061025061024b366004612e47565b6105e2565b604051908152602001610227565b34801561026a57600080fd5b50600154610213906001600160a01b031681565b34801561028a57600080fd5b506102506102993660046130df565b61068d565b3480156102aa57600080fd5b506102be6102b93660046130df565b6107cc565b005b3480156102cc57600080fd5b506102be6102db3660046130df565b6107d9565b3480156102ec57600080fd5b50610250610894565b34801561030157600080fd5b506102be6108c3565b34801561031657600080fd5b506102506108cd565b34801561032b57600080fd5b506102be61033a3660046130df565b6108d8565b34801561034b57600080fd5b506102be61035a36600461310f565b6108f7565b34801561036b57600080fd5b5061025060075481565b34801561038157600080fd5b506102be6103903660046130df565b610928565b3480156103a157600080fd5b50600054610213906201000090046001600160a01b031681565b3480156103c757600080fd5b506102be6103d63660046130df565b61093a565b3480156103e757600080fd5b506102506103f63660046130df565b6109f5565b34801561040757600080fd5b5061025060065481565b34801561041d57600080fd5b506102be61042c366004612e47565b610a06565b34801561043d57600080fd5b50600354610213906001600160a01b031681565b34801561045d57600080fd5b506102be61046c3660046130df565b610a17565b34801561047d57600080fd5b506102be61048c366004612e47565b610a28565b34801561049d57600080fd5b5061025060055481565b3480156104b357600080fd5b506102be6104c23660046130df565b610acf565b3480156104d357600080fd5b506102be6104e2366004612e47565b610ad9565b6102be6104f5366004612e63565b610b73565b34801561050657600080fd5b506102be610515366004612e47565b610c1d565b34801561052657600080fd5b50600454610213906001600160a01b031681565b34801561054657600080fd5b506102be610555366004612edc565b610cb7565b34801561056657600080fd5b506102be610575366004612e47565b610d2b565b6102be610588366004612e63565b610f15565b34801561059957600080fd5b50600254610213906001600160a01b031681565b3480156105b957600080fd5b506102be6105c8366004612e47565b610fa1565b3480156105d957600080fd5b506102be61103b565b60006105ec6112b4565b600454600090610604906001600160a01b03166112cb565b90506012546000146106515760405162461bcd60e51b81526020600482015260116024820152702822a72224a723afa6a4a3a920aa24a7a760791b60448201526064015b60405180910390fd5b6012819055601380546001600160a01b0319166001600160a01b038581169190911790915560045461068691309116836112e4565b9392505050565b60008082116106cc5760405162461bcd60e51b815260206004820152600b60248201526a16915493d7d05353d5539560aa1b6044820152606401610648565b600154604051632770a7eb60e21b81526001600160a01b0390911690639dc29fac906106fe9033908690600401613282565b602060405180830381600087803b15801561071857600080fd5b505af115801561072c573d6000803e3d6000fd5b505050506040513d601f19601f820116820180604052508101906107509190612ebc565b6107915760405162461bcd60e51b815260206004820152601260248201527115115391115497d095549397d1905253115160721b6044820152606401610648565b6004546000906107ac9033906001600160a01b0316856112e4565b905082600760008282546107c09190613454565b90915550909392505050565b6107d63382611353565b50565b6107e16112b4565b681b1ae4d6e2ef50000081111561082c5760405162461bcd60e51b815260206004820152600f60248201526e08c8a8abe8ab0868a8a88a6be9a82b608b1b6044820152606401610648565b6000805160206134f8833981519152600460065460405160200161085291815260200190565b60408051601f1981840301815282825260208301869052910160408051601f198184030181529082905261088793929161329b565b60405180910390a1600655565b600061089e6112b4565b6004546108be9030906001600160a01b03166108b9816112cb565b6112e4565b905090565b6108cb6114e1565b565b60006108be60075490565b6108e06112b4565b60006012556108ef3082611353565b6107d66114e1565b600054610917906201000090046001600160a01b03168686868686610f15565b6109213386611618565b5050505050565b6109306112b4565b6107d63082611353565b6109426112b4565b681b1ae4d6e2ef50000081111561098d5760405162461bcd60e51b815260206004820152600f60248201526e08c8a8abe8ab0868a8a88a6be9a82b608b1b6044820152606401610648565b6000805160206134f883398151915260036005546040516020016109b391815260200190565b60408051601f1981840301815282825260208301869052910160408051601f19818403018152908290526109e893929161329b565b60405180910390a1600555565b6000610a0082611754565b92915050565b610a0e6112b4565b6107d68161180b565b610a1f6112b4565b6107d68161189d565b610a306112b4565b60005460408051620100009092046001600160a01b031660208301526000805160206134f8833981519152916002910160408051601f198184030181528282526001600160a01b0386166020840152910160408051601f1981840301815290829052610a9d93929161329b565b60405180910390a1600080546001600160a01b03909216620100000262010000600160b01b0319909216919091179055565b6107d63382611618565b610ae16112b4565b600454604080516001600160a01b0390921660208301526000805160206134f8833981519152916001910160408051601f198184030181528282526001600160a01b0386166020840152910160408051601f1981840301815290829052610b4993929161329b565b60405180910390a1600480546001600160a01b0319166001600160a01b0392909216919091179055565b604051636eb1769f60e11b81523360048201523060248201526000906001600160a01b0388169063dd62ed3e9060440160206040518083038186803b158015610bbb57600080fd5b505afa158015610bcf573d6000803e3d6000fd5b505050506040513d601f19601f82011682018060405250810190610bf391906130f7565b905085811015610c1457610c1487610c0b8389613454565b87878787610f15565b50505050505050565b610c256112b4565b600854604080516001600160a01b0390921660208301526000805160206134f8833981519152916000910160408051601f198184030181528282526001600160a01b0386166020840152910160408051601f1981840301815290829052610c8d93929161329b565b60405180910390a1600880546001600160a01b0319166001600160a01b0392909216919091179055565b610cff8a8a8a8080601f0160208091040260200160405190810160405280939291908181526020018383808284376000920191909152508b92508a91508990508888886119c7565b5050600980546001600160a01b0319166001600160a01b03969096169590951790945550505050505050565b610d336112b4565b600080546040516370a0823160e01b8152306004820152620100009091046001600160a01b0316906370a082319060240160206040518083038186803b158015610d7c57600080fd5b505afa158015610d90573d6000803e3d6000fd5b505050506040513d601f19601f82011682018060405250810190610db491906130f7565b6009546040516328d3058160e11b81526001600160a01b038581166004830152600060248301529293509116906351a60b0290604401602060405180830381600087803b158015610e0457600080fd5b505af1158015610e18573d6000803e3d6000fd5b505050506040513d601f19601f82011682018060405250810190610e3c91906130f7565b50600080546040516370a0823160e01b8152306004820152620100009091046001600160a01b0316906370a082319060240160206040518083038186803b158015610e8657600080fd5b505afa158015610e9a573d6000803e3d6000fd5b505050506040513d601f19601f82011682018060405250810190610ebe91906130f7565b90506000610ecc8383613454565b9050610ed9600a82611e8d565b60405181815233907fcb9532430439237c8bdb19ae1bbb70b36989d22003981d3e7d06f1befd3fc4ad906020015b60405180910390a250505050565b60405163d505accf60e01b8152336004820152306024820152604481018690526064810185905260ff8416608482015260a4810183905260c481018290526001600160a01b0387169063d505accf9060e401600060405180830381600087803b158015610f8157600080fd5b505af1158015610f95573d6000803e3d6000fd5b50505050505050505050565b610fa96112b4565b600254604080516001600160a01b0390921660208301526000805160206134f8833981519152916005910160408051601f198184030181528282526001600160a01b0386166020840152910160408051601f198184030181529082905261101193929161329b565b60405180910390a1600280546001600160a01b0319166001600160a01b0392909216919091179055565b6110436112b4565b600061104f600a611ee2565b600954600480546040516392511c8f60e01b81526001600160a01b0391821692810192909252929350600092909116906392511c8f9060240160c06040518083038186803b1580156110a057600080fd5b505afa1580156110b4573d6000803e3d6000fd5b505050506040513d601f19601f820116820180604052508101906110d89190612fe0565b60a08101516080820151919250906000816110f384876133f6565b6110fd91906133d6565b60095460048054604051630a824d2d60e11b81526001600160a01b0391821692810192909252306024830152929350600092909116906315049a5a9060440160606040518083038186803b15801561115457600080fd5b505afa158015611168573d6000803e3d6000fd5b505050506040513d601f19601f8201168201806040525081019061118c9190613078565b805190915061119d90600190613454565b82106111a857805191505b600954600480546040516326ccee8b60e11b81526001600160a01b0393841693634d99dd16936111de9390911691879101613282565b602060405180830381600087803b1580156111f857600080fd5b505af115801561120c573d6000803e3d6000fd5b505050506040513d601f19601f8201168201806040525081019061123091906130f7565b506004546040518781526001600160a01b039091169033907f60ee6fa425658ca10bf59c88bdf8b45cfdea156d13d309740414613e66800a0d9060200160405180910390a36013546001600160a01b0316156112ac5760138054600480546001600160a01b03199081166001600160a01b038416179091551690555b505050505050565b6008546001600160a01b031633146108cb57600080fd5b600e546000906112da83611f41565b610a009190613454565b6000816112f3600a868361208e565b9150836001600160a01b0316856001600160a01b03167f18edd09e80386cd99df397e2e0d87d2bb259423eae08645e776321a36fe680ef8385604051611343929190918252602082015260400190565b60405180910390a3509392505050565b6000611361600a8385612154565b60005460405163a9059cbb60e01b81529192506201000090046001600160a01b03169063a9059cbb9061139a9086908590600401613282565b602060405180830381600087803b1580156113b457600080fd5b505af19250505080156113e4575060408051601f3d908101601f191682019092526113e191810190612ebc565b60015b61149657600080546040516370a0823160e01b8152306004820152620100009091046001600160a01b0316906370a082319060240160206040518083038186803b15801561143157600080fd5b505afa158015611445573d6000803e3d6000fd5b505050506040513d601f19601f8201168201806040525081019061146991906130f7565b90508082111561149057600054611490906201000090046001600160a01b0316858361227a565b50611498565b505b60408051828152602081018490526001600160a01b038516917ff279e6a1f5e320cca91135676d9cb6e44ca8a08c0b88342bcdb1144f6511b568910160405180910390a2505050565b60006114eb6122d0565b90506000811315611561576000819050600061150982600554612472565b9050600061151983600654612472565b9050806115268385613454565b6115309190613454565b6007600082825461154191906133be565b9091555061155090508261247e565b61155981612554565b505050611590565b6000811215611590576000611575826134b2565b905080600760008282546115899190613454565b9091555050505b6000546040516370a0823160e01b81523060048201526107d6916201000090046001600160a01b0316906370a082319060240160206040518083038186803b1580156115db57600080fd5b505afa1580156115ef573d6000803e3d6000fd5b505050506040513d601f19601f8201168201806040525081019061161391906130f7565b61189d565b600081116116565760405162461bcd60e51b815260206004820152600b60248201526a16915493d7d05353d5539560aa1b6044820152606401610648565b600061166182611754565b6001546040516340c10f1960e01b81529192506001600160a01b0316906340c10f19906116949086908590600401613282565b602060405180830381600087803b1580156116ae57600080fd5b505af11580156116c2573d6000803e3d6000fd5b505050506040513d601f19601f820116820180604052508101906116e69190612ebc565b6117275760405162461bcd60e51b815260206004820152601260248201527115115391115497d352539517d1905253115160721b6044820152606401610648565b600054611745906201000090046001600160a01b03168430856128a4565b61174f83836128e2565b505050565b6000620f424063ffffffff1682600960009054906101000a90046001600160a01b03166001600160a01b031663e6aeb7966040518163ffffffff1660e01b815260040160206040518083038186803b1580156117af57600080fd5b505afa1580156117c3573d6000803e3d6000fd5b505050506040513d601f19601f820116820180604052508101906117e79190613155565b63ffffffff166117f791906133f6565b61180191906133d6565b610a009083613454565b600954604080516001600160a01b0390921660208301526000805160206134f8833981519152916006910160408051601f198184030181528282526001600160a01b0386166020840152910160408051601f198184030181529082905261187393929161329b565b60405180910390a1600980546001600160a01b0319166001600160a01b0392909216919091179055565b600d5481908082116118ae57505050565b6118b88183613454565b6009546000549193506118de916201000090046001600160a01b03908116911684612943565b6009546004805460405163026e402b60e01b81526000936001600160a01b039081169363026e402b9361191693921691889101613282565b602060405180830381600087803b15801561193057600080fd5b505af1158015611944573d6000803e3d6000fd5b505050506040513d601f19601f8201168201806040525081019061196891906130f7565b90506000811161198857634e487b7160e01b600052600160045260246000fd5b6004546040518481526001600160a01b03909116907febedb8b3c678666e7f36970bc8f57abf6d8fa2e828c0da91ea5b75bf68ed101a90602001610f07565b600054610100900460ff16806119e0575060005460ff16155b611a435760405162461bcd60e51b815260206004820152602e60248201527f496e697469616c697a61626c653a20636f6e747261637420697320616c72656160448201526d191e481a5b9a5d1a585b1a5e995960921b6064820152608401610648565b600054610100900460ff16158015611a65576000805461ffff19166101011790555b600080546001600160a01b03808c16620100000262010000600160b01b031990921691909117825560048054918a166001600160a01b0319928316179055600588905560068790556008805490911633179055611ac1856129f2565b9050600089604051602001611ad69190613259565b60408051601f19818403018152908290526303bf912560e11b825291506001600160a01b0383169063077f224a90611b16908d90819030906004016132ff565b602060405180830381600087803b158015611b3057600080fd5b505af1158015611b44573d6000803e3d6000fd5b505050506040513d601f19601f82011682018060405250810190611b689190612ebc565b611bac5760405162461bcd60e51b81526020600482015260156024820152742320a4a62fa4a724aa2faa22a72222a92a27a5a2a760591b6044820152606401610648565b81600160006101000a8154816001600160a01b0302191690836001600160a01b03160217905550836001600160a01b031663a57417566040518060800160405280856001600160a01b031681526020018e6001600160a01b03168152602001848e604051602001611c1e9291906131b7565b6040516020818303038152906040528152602001848e604051602001611c4592919061320b565b6040516020818303038152906040528152506040518263ffffffff1660e01b8152600401611c739190613365565b602060405180830381600087803b158015611c8d57600080fd5b505af1158015611ca1573d6000803e3d6000fd5b505050506040513d601f19601f82011682018060405250810190611cc59190612fc4565b600380546001600160a01b0319166001600160a01b0392909216918217905560405163f2fde38b60e01b815233600482015263f2fde38b90602401600060405180830381600087803b158015611d1a57600080fd5b505af1158015611d2e573d6000803e3d6000fd5b50505050846001600160a01b031663d9181cd3600360009054906101000a90046001600160a01b03166001600160a01b0316635fcbd2856040518163ffffffff1660e01b815260040160206040518083038186803b158015611d8f57600080fd5b505afa158015611da3573d6000803e3d6000fd5b505050506040513d601f19601f82011682018060405250810190611dc79190612fc4565b6040516001600160e01b031960e084901b1681526001600160a01b0391821660048201529085166024820152306044820152606401602060405180830381600087803b158015611e1657600080fd5b505af1158015611e2a573d6000803e3d6000fd5b505050506040513d601f19601f82011682018060405250810190611e4e9190612fc4565b600280546001600160a01b0319166001600160a01b039290921691909117905550508015611e82576000805461ff00191690555b505050505050505050565b8160070154826006015411611eb45760405162461bcd60e51b81526004016106489061333d565b80826003016000828254611ec891906133be565b909155505060006005830155506006810154600790910155565b60008160070154826006015414611f0b5760405162461bcd60e51b81526004016106489061333d565b8160040154826005016000828254611f2391906133be565b90915550505060048101805460009091554360069092019190915590565b600954604051630a824d2d60e11b81526001600160a01b03838116600483015230602483015260009283929116906315049a5a9060440160606040518083038186803b158015611f9057600080fd5b505afa158015611fa4573d6000803e3d6000fd5b505050506040513d601f19601f82011682018060405250810190611fc89190613078565b6009546040516392511c8f60e01b81526001600160a01b038681166004830152929350600092909116906392511c8f9060240160c06040518083038186803b15801561201357600080fd5b505afa158015612027573d6000803e3d6000fd5b505050506040513d601f19601f8201168201806040525081019061204b9190612fe0565b825160a0820151608083015192935090918161206e575060009695505050505050565b8161207982856133f6565b61208391906133d6565b979650505050505050565b6001830154600061209f8584612a8f565b604080516060810182528281526001600160a01b03878116602080840191825260068b01548486019081526000898152918c90529481209351845590516001840180546001600160a01b0319169190931617909155915160029091015560048701805492935085929091906121159084906133be565b925050819055508085600201600082825461213091906133be565b909155505060018501805490600061214783613497565b9190505550509392505050565b60008281526020848152604080832081516060810183528154815260018201546001600160a01b031693810193909352600201549082018190526007860154116121b05760405162461bcd60e51b81526004016106489061333d565b80602001516001600160a01b0316836001600160a01b0316146122095760405162461bcd60e51b815260206004820152601160248201527008286869eaa9ca8be9a92a6a89a82a8869607b1b6044820152606401610648565b612217858260000151612ad5565b91508185600301600082825461222d9190613454565b90915550508051600286018054600090612248908490613454565b909155505050600092835260209390935250604081208181556001810180546001600160a01b03191690556002015590565b61174f8363a9059cbb60e01b8484604051602401612299929190613282565b60408051601f198184030181529190526020810180516001600160e01b03166001600160e01b031990931692909217909152612b07565b60045460009081906122ea906001600160a01b0316611f41565b600754600d54601254600080546040516370a0823160e01b81523060048201529596509394909361239a939291620100009091046001600160a01b0316906370a082319060240160206040518083038186803b15801561234957600080fd5b505afa15801561235d573d6000803e3d6000fd5b505050506040513d601f19601f8201168201806040525081019061238191906130f7565b61238b91906133be565b6123959190613454565b611754565b600e549091506123aa82856133be565b6123b49190613454565b92506123c08284613415565b9350600084121561242b5760006123d7600a612bd9565b905060006123e584836133be565b9050801561242857600081836123fb8888613454565b61240591906133f6565b61240f91906133d6565b905061242661241e8285613454565b600a90612bfe565b505b50505b60408051858152602081018590529081018390527f78c13bf6a7fae25f1085d594e546d7a97cb66a55bc9733c7ea78236c452663ec9060600160405180910390a150505090565b60006106868383612c57565b6001546008546040516340c10f1960e01b81526001600160a01b03928316926340c10f19926124b4929116908590600401613282565b602060405180830381600087803b1580156124ce57600080fd5b505af11580156124e2573d6000803e3d6000fd5b505050506040513d601f19601f820116820180604052508101906125069190612ebc565b50806007600082825461251991906133be565b90915550506040518181527f414d7d8eae12f648156e75499fc0a5a10aa84f2745c6f791b0453cb17f1e17fa9060200160405180910390a150565b60025460408051630134edf160e21b815290516000926001600160a01b0316916304d3b7c4916004808301926020929190829003018186803b15801561259957600080fd5b505afa1580156125ad573d6000803e3d6000fd5b505050506040513d601f19601f820116820180604052508101906125d191906130f7565b116125d95750565b6001546040516370a0823160e01b81523060048201526000916001600160a01b0316906370a082319060240160206040518083038186803b15801561261d57600080fd5b505afa158015612631573d6000803e3d6000fd5b505050506040513d601f19601f8201168201806040525081019061265591906130f7565b6001546040516340c10f1960e01b81529192506001600160a01b0316906340c10f19906126889030908690600401613282565b602060405180830381600087803b1580156126a257600080fd5b505af11580156126b6573d6000803e3d6000fd5b505050506040513d601f19601f820116820180604052508101906126da9190612ebc565b5081600760008282546126ed91906133be565b90915550506001546040516370a0823160e01b81523060048201526000916001600160a01b0316906370a082319060240160206040518083038186803b15801561273657600080fd5b505afa15801561274a573d6000803e3d6000fd5b505050506040513d601f19601f8201168201806040525081019061276e91906130f7565b9050600061277c8383613454565b60015460025460405163095ea7b360e01b81529293506001600160a01b039182169263095ea7b3926127b49216908590600401613282565b602060405180830381600087803b1580156127ce57600080fd5b505af11580156127e2573d6000803e3d6000fd5b505050506040513d601f19601f820116820180604052508101906128069190612ebc565b5060025460405163beceed3960e01b8152600481018390526001600160a01b039091169063beceed3990602401600060405180830381600087803b15801561284d57600080fd5b505af1158015612861573d6000803e3d6000fd5b505050507f1d8f4bab53e84801fc35b88b53df72a998fa29c92e6fc65d412c4677d0d88c628160405161289691815260200190565b60405180910390a150505050565b6040516001600160a01b03808516602483015283166044820152606481018290526128dc9085906323b872dd60e01b90608401612299565b50505050565b6128eb81611754565b600760008282546128fc91906133be565b90915550506040518181526001600160a01b038316907fe1fffcc4923d04b559f4d29a8bfc6cda04eb5b0d3c460751c2402c5c5cc9109c9060200160405180910390a25050565b604051636eb1769f60e11b81523060048201526001600160a01b038381166024830152600091839186169063dd62ed3e9060440160206040518083038186803b15801561298f57600080fd5b505afa1580156129a3573d6000803e3d6000fd5b505050506040513d601f19601f820116820180604052508101906129c791906130f7565b6129d191906133be565b90506128dc8463095ea7b360e01b8584604051602401612299929190613282565b6000604051733d602d80600a3d3981f3363d3d373d3d3d363d7360601b81528260601b60148201526e5af43d82803e903d91602b57fd5bf360881b60288201526037816000f09150506001600160a01b038116612a8a5760405162461bcd60e51b8152602060048201526016602482015275115490cc4c4d8dce8818dc99585d194819985a5b195960521b6044820152606401610648565b919050565b600080612a9b84612bd9565b600285015490915081612ab2578392505050610a00565b80612ac1578392505050610a00565b612acc848284612c77565b95945050505050565b600282015460009080612aec576000915050610a00565b612aff83612af986612bd9565b83612c77565b949350505050565b6000612b5c826040518060400160405280602081526020017f5361666545524332303a206c6f772d6c6576656c2063616c6c206661696c6564815250856001600160a01b0316612ca19092919063ffffffff16565b80519091501561174f5780806020019051810190612b7a9190612ebc565b61174f5760405162461bcd60e51b815260206004820152602a60248201527f5361666545524332303a204552433230206f7065726174696f6e20646964206e6044820152691bdd081cdd58d8d9595960b21b6064820152608401610648565b6000816005015482600401548360030154612bf491906133be565b610a0091906133be565b600382015460048301546000612c1482846133be565b905080156109215780612c2784866133f6565b612c3191906133d6565b600386015580612c4183866133f6565b612c4b91906133d6565b60048601555050505050565b6000683635c9adc5dea00000612c6d83856133f6565b61068691906133d6565b6000683635c9adc5dea00000612c8d8484612cb0565b612c9790866133f6565b612aff91906133d6565b6060612aff8484600085612cc6565b600081612c6d683635c9adc5dea00000856133f6565b606082471015612d275760405162461bcd60e51b815260206004820152602660248201527f416464726573733a20696e73756666696369656e742062616c616e636520666f6044820152651c8818d85b1b60d21b6064820152608401610648565b843b612d755760405162461bcd60e51b815260206004820152601d60248201527f416464726573733a2063616c6c20746f206e6f6e2d636f6e74726163740000006044820152606401610648565b600080866001600160a01b03168587604051612d91919061319b565b60006040518083038185875af1925050503d8060008114612dce576040519150601f19603f3d011682016040523d82523d6000602084013e612dd3565b606091505b509150915061208382828660608315612ded575081610686565b825115612dfd5782518084602001fd5b8160405162461bcd60e51b815260040161064891906132ec565b8035612a8a816134e2565b805163ffffffff81168114612a8a57600080fd5b803560ff81168114612a8a57600080fd5b600060208284031215612e58578081fd5b8135610686816134e2565b60008060008060008060c08789031215612e7b578182fd5b8635612e86816134e2565b95506020870135945060408701359350612ea260608801612e36565b92506080870135915060a087013590509295509295509295565b600060208284031215612ecd578081fd5b81518015158114610686578182fd5b6000806000806000806000806000806101208b8d031215612efb578384fd5b8a35612f06816134e2565b995060208b013567ffffffffffffffff80821115612f22578586fd5b818d0191508d601f830112612f35578586fd5b813581811115612f43578687fd5b8e6020828501011115612f54578687fd5b602083019b50809a50505050612f6c60408c01612e17565b9650612f7a60608c01612e17565b955060808b0135945060a08b01359350612f9660c08c01612e17565b9250612fa460e08c01612e17565b9150612fb36101008c01612e17565b90509295989b9194979a5092959850565b600060208284031215612fd5578081fd5b8151610686816134e2565b600060c08284031215612ff1578081fd5b60405160c0810181811067ffffffffffffffff8211171561302057634e487b7160e01b83526041600452602483fd5b60405261302c83612e22565b815261303a60208401612e22565b602082015261304b60408401612e22565b6040820152606083015160608201526080830151608082015260a083015160a08201528091505092915050565b600060608284031215613089578081fd5b6040516060810181811067ffffffffffffffff821117156130b857634e487b7160e01b83526041600452602483fd5b80604052508251815260208301516020820152604083015160408201528091505092915050565b6000602082840312156130f0578081fd5b5035919050565b600060208284031215613108578081fd5b5051919050565b600080600080600060a08688031215613126578283fd5b853594506020860135935061313d60408701612e36565b94979396509394606081013594506080013592915050565b600060208284031215613166578081fd5b61068682612e22565b6000815180845261318781602086016020860161346b565b601f01601f19169290920160200192915050565b600082516131ad81846020870161346b565b9190910192915050565b600083516131c981846020880161346b565b602d60f81b90830190815283516131e781600184016020880161346b565b6a1029bbb0b8102a37b5b2b760a91b60019290910191820152600c01949350505050565b6000835161321d81846020880161346b565b602d60f81b908301908152835161323b81600184016020880161346b565b6402d535741560dc1b60019290910191820152600601949350505050565b601d60fa1b81526000825161327581600185016020870161346b565b9190910160010192915050565b6001600160a01b03929092168252602082015260400190565b6000600785106132b957634e487b7160e01b81526021600452602481fd5b848252606060208301526132d0606083018561316f565b82810360408401526132e2818561316f565b9695505050505050565b602081526000610686602083018461316f565b606081526000613312606083018661316f565b8281036020840152613324818661316f565b91505060018060a01b0383166040830152949350505050565b6020808252600e908201526d4f4e474f494e475f554e4c4f434b60901b604082015260600190565b60208152600060018060a01b03808451166020840152806020850151166040840152506040830151608060608401526133a160a084018261316f565b90506060840151601f19848303016080850152612acc828261316f565b600082198211156133d1576133d16134cc565b500190565b6000826133f157634e487b7160e01b81526012600452602481fd5b500490565b6000816000190483118215151615613410576134106134cc565b500290565b60008083128015600160ff1b850184121615613433576134336134cc565b6001600160ff1b038401831381161561344e5761344e6134cc565b50500390565b600082821015613466576134666134cc565b500390565b60005b8381101561348657818101518382015260200161346e565b838111156128dc5750506000910152565b60006000198214156134ab576134ab6134cc565b5060010190565b6000600160ff1b8214156134c8576134c86134cc565b0390565b634e487b7160e01b600052601160045260246000fd5b6001600160a01b03811681146107d657600080fdfeafa7d9056777a2bdba5995f58db63fa530201a4b7e5de460e945332d81a9b117a2646970667358221220eabcf0f5a85964f5ed6ad12215d254dc972ea053fb22540262ae8c34e38df75a64736f6c63430008040033",
  "devdoc": {
    "kind": "dev",
    "methods": {
      "calcDepositOut(uint256)": {
        "details": "used by controller to calculate tokens to be minted before depositing.to be used when there a delegation tax is deducted, for eg. in Graph.",
        "returns": {
          "_0": "number of tokens staked for `amountIn`."
        }
      },
      "deposit(uint256)": {
        "details": "doesn't actually stakes the tokens but aggregates the balance in the tenderizer awaiting to be staked.requires '_amount' to be approved by '_from'.",
        "params": {
          "_amount": "amount deposited"
        }
      },
      "depositWithPermit(uint256,uint256,uint8,bytes32,bytes32)": {
        "details": "doesn't actually stakes the tokens but aggregates the balance in the tenderizer awaiting to be staked.requires '_amount' to be approved by '_from'.",
        "params": {
          "_amount": "amount deposited",
          "_deadline": "deadline for the permit",
          "_r": "from ECDSA signature",
          "_s": "from ECDSA signature",
          "_v": "from ECDSA signature"
        }
      },
      "rescueUnlock()": {
        "details": "Used to rescue all staked funds.",
        "returns": {
          "_0": "unstake lockID generated for unstake"
        }
      },
      "rescueWithdraw(uint256)": {
        "details": "To be called after rescueUnlock() with the unstakeLockID returned there.Process unlocks/withdrawals before rescueWithdraw for integrations with WithdrawPools."
      },
      "selfPermit(address,uint256,uint256,uint8,bytes32,bytes32)": {
        "details": "The `owner` is always msg.sender and the `spender` is always address(this).",
        "params": {
          "_deadline": "A timestamp, the current blocktime must be less than or equal to this timestamp",
          "_r": "Must produce valid secp256k1 signature from the holder along with `v` and `s`",
          "_s": "Must produce valid secp256k1 signature from the holder along with `r` and `v`",
          "_token": "The address of the token spent",
          "_v": "Must produce valid secp256k1 signature from the holder along with `r` and `s`",
          "_value": "The amount that can be spent of token"
        }
      },
      "selfPermitIfNecessary(address,uint256,uint256,uint8,bytes32,bytes32)": {
        "details": "The `owner` is always msg.sender and the `spender` is always address(this). Can be used instead of #selfPermit to prevent calls from failing due to a frontrun of a call to #selfPermit",
        "params": {
          "_deadline": "A timestamp, the current blocktime must be less than or equal to this timestamp",
          "_r": "Must produce valid secp256k1 signature from the holder along with `v` and `s`",
          "_s": "Must produce valid secp256k1 signature from the holder along with `r` and `v`",
          "_token": "The address of the token spent",
          "_v": "Must produce valid secp256k1 signature from the holder along with `r` and `s`",
          "_value": "The amount that can be spent of token"
        }
      },
      "stake(uint256)": {
        "details": "Only callable by Gov.",
        "params": {
          "_amount": "amount to stake"
        }
      },
      "totalStakedTokens()": {
        "returns": {
          "_0": "total amount staked by this Tenderizer"
        }
      },
      "unstake(uint256)": {
        "details": "unstake from the default address.If '_amount' is 0, unstake the entire amount staked towards _account.",
        "params": {
          "_amount": "amount to unstake"
        },
        "returns": {
          "_0": "unstake lockID generated for unstake"
        }
      },
      "withdraw(uint256)": {
        "details": "If '_amount' isn't specified all unstake tokens by '_account' will be withdrawn.Requires '_account' to have unstaked prior to calling withdraw.",
        "params": {
          "_unstakeLockID": "ID for the lock to request the withdraw for"
        }
      }
    },
    "version": 1
  },
  "userdoc": {
    "events": {
      "Deposit(address,uint256)": {
        "notice": "Deposit gets emitted when an accounts deposits underlying tokens."
      },
      "GovernanceUpdate(uint8,bytes,bytes)": {
        "notice": "GovernanceUpdate gets emitted when a parameter on the Tenderizer gets updated."
      },
      "LiquidityFeeCollected(uint256)": {
        "notice": "LiquidityFeeCollected gets emitted when liquidity provider fees are moved to the TenderFarm."
      },
      "ProtocolFeeCollected(uint256)": {
        "notice": "ProtocolFeeCollected gets emitted when the treasury claims its outstanding protocol fees."
      },
      "RewardsClaimed(int256,uint256,uint256)": {
        "notice": "RewardsClaimed gets emitted when the Tenderizer processes staking rewards (or slashing) from the underlying protocol."
      },
      "Stake(address,uint256)": {
        "notice": "Stake gets emitted when funds are staked/delegated from the Tenderizer contract into the underlying protocol."
      },
      "Unstake(address,address,uint256,uint256)": {
        "notice": "Unstake gets emitted when an account burns TenderTokens to unlock tokens staked through the Tenderizer"
      },
      "Withdraw(address,uint256,uint256)": {
        "notice": "Withdraw gets emitted when an account withdraws tokens that have been succesfully unstaked and thus unlocked for withdrawal."
      }
    },
    "kind": "user",
    "methods": {
      "calcDepositOut(uint256)": {
        "notice": "Returns the number of tenderTokens to be minted for amountIn deposit."
      },
      "claimRewards()": {
        "notice": "Compound all the rewards and new deposits. Claim staking rewards and earned fees for the underlying protocol and stake any leftover token balance. Process Tender protocol fees if revenue is positive."
      },
      "deposit(uint256)": {
        "notice": "Deposit tokens in Tenderizer."
      },
      "depositWithPermit(uint256,uint256,uint8,bytes32,bytes32)": {
        "notice": "Deposit tokens in Tenderizer with permit."
      },
      "rescueUnlock()": {
        "notice": "RescueUnstake unstakes all tokens from underlying protocol"
      },
      "rescueWithdraw(uint256)": {
        "notice": "RescueWithdraw withdraws all tokens into the Tenderizer from the underlying protocol after the unlock period ends"
      },
      "selfPermit(address,uint256,uint256,uint8,bytes32,bytes32)": {
        "notice": "Permits this contract to spend a given token from `msg.sender`"
      },
      "selfPermitIfNecessary(address,uint256,uint256,uint8,bytes32,bytes32)": {
        "notice": "Permits this contract to spend a given token from `msg.sender`"
      },
      "stake(uint256)": {
        "notice": "Stake '_amount' of tokens."
      },
      "totalStakedTokens()": {
        "notice": "Total Staked Tokens returns the total amount of underlying tokens staked by this Tenderizer."
      },
      "unstake(uint256)": {
        "notice": "Unstake '_amount' of tokens from '_account'."
      },
      "withdraw(uint256)": {
        "notice": "Withdraw '_amount' of tokens previously unstaked by '_account'."
      }
    },
    "version": 1
  },
  "storageLayout": {
    "storage": [
      {
        "astId": 1886,
        "contract": "contracts/tenderizer/integrations/graph/Graph.sol:Graph",
        "label": "_initialized",
        "offset": 0,
        "slot": "0",
        "type": "t_bool"
      },
      {
        "astId": 1889,
        "contract": "contracts/tenderizer/integrations/graph/Graph.sol:Graph",
        "label": "_initializing",
        "offset": 1,
        "slot": "0",
        "type": "t_bool"
      },
      {
        "astId": 3243,
        "contract": "contracts/tenderizer/integrations/graph/Graph.sol:Graph",
        "label": "steak",
        "offset": 2,
        "slot": "0",
        "type": "t_contract(IERC20)2004"
      },
      {
        "astId": 3246,
        "contract": "contracts/tenderizer/integrations/graph/Graph.sol:Graph",
        "label": "tenderToken",
        "offset": 0,
        "slot": "1",
        "type": "t_contract(ITenderToken)6056"
      },
      {
        "astId": 3249,
        "contract": "contracts/tenderizer/integrations/graph/Graph.sol:Graph",
        "label": "tenderFarm",
        "offset": 0,
        "slot": "2",
        "type": "t_contract(ITenderFarm)2933"
      },
      {
        "astId": 3252,
        "contract": "contracts/tenderizer/integrations/graph/Graph.sol:Graph",
        "label": "tenderSwap",
        "offset": 0,
        "slot": "3",
        "type": "t_contract(ITenderSwap)5672"
      },
      {
        "astId": 3254,
        "contract": "contracts/tenderizer/integrations/graph/Graph.sol:Graph",
        "label": "node",
        "offset": 0,
        "slot": "4",
        "type": "t_address"
      },
      {
        "astId": 3256,
        "contract": "contracts/tenderizer/integrations/graph/Graph.sol:Graph",
        "label": "protocolFee",
        "offset": 0,
        "slot": "5",
        "type": "t_uint256"
      },
      {
        "astId": 3258,
        "contract": "contracts/tenderizer/integrations/graph/Graph.sol:Graph",
        "label": "liquidityFee",
        "offset": 0,
        "slot": "6",
        "type": "t_uint256"
      },
      {
        "astId": 3260,
        "contract": "contracts/tenderizer/integrations/graph/Graph.sol:Graph",
        "label": "currentPrincipal",
        "offset": 0,
        "slot": "7",
        "type": "t_uint256"
      },
      {
        "astId": 3262,
        "contract": "contracts/tenderizer/integrations/graph/Graph.sol:Graph",
        "label": "gov",
        "offset": 0,
        "slot": "8",
        "type": "t_address"
      },
      {
        "astId": 4587,
        "contract": "contracts/tenderizer/integrations/graph/Graph.sol:Graph",
        "label": "graph",
        "offset": 0,
        "slot": "9",
        "type": "t_contract(IGraph)5344"
      },
      {
        "astId": 4590,
        "contract": "contracts/tenderizer/integrations/graph/Graph.sol:Graph",
        "label": "withdrawPool",
        "offset": 0,
        "slot": "10",
        "type": "t_struct(Pool)4151_storage"
      },
      {
        "astId": 4592,
        "contract": "contracts/tenderizer/integrations/graph/Graph.sol:Graph",
        "label": "pendingMigration",
        "offset": 0,
        "slot": "18",
        "type": "t_uint256"
      },
      {
        "astId": 4594,
        "contract": "contracts/tenderizer/integrations/graph/Graph.sol:Graph",
        "label": "newNode",
        "offset": 0,
        "slot": "19",
        "type": "t_address"
      }
    ],
    "types": {
      "t_address": {
        "encoding": "inplace",
        "label": "address",
        "numberOfBytes": "20"
      },
      "t_bool": {
        "encoding": "inplace",
        "label": "bool",
        "numberOfBytes": "1"
      },
      "t_contract(IERC20)2004": {
        "encoding": "inplace",
        "label": "contract IERC20",
        "numberOfBytes": "20"
      },
      "t_contract(IGraph)5344": {
        "encoding": "inplace",
        "label": "contract IGraph",
        "numberOfBytes": "20"
      },
      "t_contract(ITenderFarm)2933": {
        "encoding": "inplace",
        "label": "contract ITenderFarm",
        "numberOfBytes": "20"
      },
      "t_contract(ITenderSwap)5672": {
        "encoding": "inplace",
        "label": "contract ITenderSwap",
        "numberOfBytes": "20"
      },
      "t_contract(ITenderToken)6056": {
        "encoding": "inplace",
        "label": "contract ITenderToken",
        "numberOfBytes": "20"
      },
      "t_mapping(t_uint256,t_struct(Withdrawal)4131_storage)": {
        "encoding": "mapping",
        "key": "t_uint256",
        "label": "mapping(uint256 => struct WithdrawalPools.Withdrawal)",
        "numberOfBytes": "32",
        "value": "t_struct(Withdrawal)4131_storage"
      },
      "t_struct(Pool)4151_storage": {
        "encoding": "inplace",
        "label": "struct WithdrawalPools.Pool",
        "members": [
          {
            "astId": 4136,
            "contract": "contracts/tenderizer/integrations/graph/Graph.sol:Graph",
            "label": "withdrawals",
            "offset": 0,
            "slot": "0",
            "type": "t_mapping(t_uint256,t_struct(Withdrawal)4131_storage)"
          },
          {
            "astId": 4138,
            "contract": "contracts/tenderizer/integrations/graph/Graph.sol:Graph",
            "label": "withdrawalID",
            "offset": 0,
            "slot": "1",
            "type": "t_uint256"
          },
          {
            "astId": 4140,
            "contract": "contracts/tenderizer/integrations/graph/Graph.sol:Graph",
            "label": "shares",
            "offset": 0,
            "slot": "2",
            "type": "t_uint256"
          },
          {
            "astId": 4142,
            "contract": "contracts/tenderizer/integrations/graph/Graph.sol:Graph",
            "label": "amount",
            "offset": 0,
            "slot": "3",
            "type": "t_uint256"
          },
          {
            "astId": 4144,
            "contract": "contracts/tenderizer/integrations/graph/Graph.sol:Graph",
            "label": "pendingUnlock",
            "offset": 0,
            "slot": "4",
            "type": "t_uint256"
          },
          {
            "astId": 4146,
            "contract": "contracts/tenderizer/integrations/graph/Graph.sol:Graph",
            "label": "pendingWithdrawal",
            "offset": 0,
            "slot": "5",
            "type": "t_uint256"
          },
          {
            "astId": 4148,
            "contract": "contracts/tenderizer/integrations/graph/Graph.sol:Graph",
            "label": "epoch",
            "offset": 0,
            "slot": "6",
            "type": "t_uint256"
          },
          {
            "astId": 4150,
            "contract": "contracts/tenderizer/integrations/graph/Graph.sol:Graph",
            "label": "lastEpoch",
            "offset": 0,
            "slot": "7",
            "type": "t_uint256"
          }
        ],
        "numberOfBytes": "256"
      },
      "t_struct(Withdrawal)4131_storage": {
        "encoding": "inplace",
        "label": "struct WithdrawalPools.Withdrawal",
        "members": [
          {
            "astId": 4126,
            "contract": "contracts/tenderizer/integrations/graph/Graph.sol:Graph",
            "label": "shares",
            "offset": 0,
            "slot": "0",
            "type": "t_uint256"
          },
          {
            "astId": 4128,
            "contract": "contracts/tenderizer/integrations/graph/Graph.sol:Graph",
            "label": "receiver",
            "offset": 0,
            "slot": "1",
            "type": "t_address"
          },
          {
            "astId": 4130,
            "contract": "contracts/tenderizer/integrations/graph/Graph.sol:Graph",
            "label": "epoch",
            "offset": 0,
            "slot": "2",
            "type": "t_uint256"
          }
        ],
        "numberOfBytes": "96"
      },
      "t_uint256": {
        "encoding": "inplace",
        "label": "uint256",
        "numberOfBytes": "32"
      }
    }
  }
}