{
  "address": "0xA044cCaB6d68B5a8A9324C9A6cb51d924330A8E5",
  "abi": [
    {
      "anonymous": false,
      "inputs": [
        {
          "indexed": true,
          "internalType": "address",
          "name": "owner",
          "type": "address"
        },
        {
          "indexed": true,
          "internalType": "address",
          "name": "spender",
          "type": "address"
        },
        {
          "indexed": false,
          "internalType": "uint256",
          "name": "value",
          "type": "uint256"
        }
      ],
      "name": "Approval",
      "type": "event"
    },
    {
      "anonymous": false,
      "inputs": [
        {
          "indexed": true,
          "internalType": "address",
          "name": "previousOwner",
          "type": "address"
        },
        {
          "indexed": true,
          "internalType": "address",
          "name": "newOwner",
          "type": "address"
        }
      ],
      "name": "OwnershipTransferred",
      "type": "event"
    },
    {
      "anonymous": false,
      "inputs": [
        {
          "indexed": true,
          "internalType": "address",
          "name": "from",
          "type": "address"
        },
        {
          "indexed": true,
          "internalType": "address",
          "name": "to",
          "type": "address"
        },
        {
          "indexed": false,
          "internalType": "uint256",
          "name": "value",
          "type": "uint256"
        }
      ],
      "name": "Transfer",
      "type": "event"
    },
    {
      "inputs": [],
      "name": "DOMAIN_SEPARATOR",
      "outputs": [
        {
          "internalType": "bytes32",
          "name": "",
          "type": "bytes32"
        }
      ],
      "stateMutability": "view",
      "type": "function"
    },
    {
      "inputs": [
        {
          "internalType": "address",
          "name": "owner",
          "type": "address"
        },
        {
          "internalType": "address",
          "name": "spender",
          "type": "address"
        }
      ],
      "name": "allowance",
      "outputs": [
        {
          "internalType": "uint256",
          "name": "",
          "type": "uint256"
        }
      ],
      "stateMutability": "view",
      "type": "function"
    },
    {
      "inputs": [
        {
          "internalType": "address",
          "name": "spender",
          "type": "address"
        },
        {
          "internalType": "uint256",
          "name": "amount",
          "type": "uint256"
        }
      ],
      "name": "approve",
      "outputs": [
        {
          "internalType": "bool",
          "name": "",
          "type": "bool"
        }
      ],
      "stateMutability": "nonpayable",
      "type": "function"
    },
    {
      "inputs": [
        {
          "internalType": "address",
          "name": "account",
          "type": "address"
        }
      ],
      "name": "balanceOf",
      "outputs": [
        {
          "internalType": "uint256",
          "name": "",
          "type": "uint256"
        }
      ],
      "stateMutability": "view",
      "type": "function"
    },
    {
      "inputs": [
        {
          "internalType": "uint256",
          "name": "amount",
          "type": "uint256"
        }
      ],
      "name": "burn",
      "outputs": [],
      "stateMutability": "nonpayable",
      "type": "function"
    },
    {
      "inputs": [
        {
          "internalType": "address",
          "name": "account",
          "type": "address"
        },
        {
          "internalType": "uint256",
          "name": "amount",
          "type": "uint256"
        }
      ],
      "name": "burnFrom",
      "outputs": [],
      "stateMutability": "nonpayable",
      "type": "function"
    },
    {
      "inputs": [],
      "name": "decimals",
      "outputs": [
        {
          "internalType": "uint8",
          "name": "",
          "type": "uint8"
        }
      ],
      "stateMutability": "view",
      "type": "function"
    },
    {
      "inputs": [
        {
          "internalType": "address",
          "name": "spender",
          "type": "address"
        },
        {
          "internalType": "uint256",
          "name": "subtractedValue",
          "type": "uint256"
        }
      ],
      "name": "decreaseAllowance",
      "outputs": [
        {
          "internalType": "bool",
          "name": "",
          "type": "bool"
        }
      ],
      "stateMutability": "nonpayable",
      "type": "function"
    },
    {
      "inputs": [
        {
          "internalType": "address",
          "name": "spender",
          "type": "address"
        },
        {
          "internalType": "uint256",
          "name": "addedValue",
          "type": "uint256"
        }
      ],
      "name": "increaseAllowance",
      "outputs": [
        {
          "internalType": "bool",
          "name": "",
          "type": "bool"
        }
      ],
      "stateMutability": "nonpayable",
      "type": "function"
    },
    {
      "inputs": [
        {
          "internalType": "string",
          "name": "name",
          "type": "string"
        },
        {
          "internalType": "string",
          "name": "symbol",
          "type": "string"
        }
      ],
      "name": "initialize",
      "outputs": [
        {
          "internalType": "bool",
          "name": "",
          "type": "bool"
        }
      ],
      "stateMutability": "nonpayable",
      "type": "function"
    },
    {
      "inputs": [
        {
          "internalType": "address",
          "name": "recipient",
          "type": "address"
        },
        {
          "internalType": "uint256",
          "name": "amount",
          "type": "uint256"
        }
      ],
      "name": "mint",
      "outputs": [],
      "stateMutability": "nonpayable",
      "type": "function"
    },
    {
      "inputs": [],
      "name": "name",
      "outputs": [
        {
          "internalType": "string",
          "name": "",
          "type": "string"
        }
      ],
      "stateMutability": "view",
      "type": "function"
    },
    {
      "inputs": [
        {
          "internalType": "address",
          "name": "owner",
          "type": "address"
        }
      ],
      "name": "nonces",
      "outputs": [
        {
          "internalType": "uint256",
          "name": "",
          "type": "uint256"
        }
      ],
      "stateMutability": "view",
      "type": "function"
    },
    {
      "inputs": [],
      "name": "owner",
      "outputs": [
        {
          "internalType": "address",
          "name": "",
          "type": "address"
        }
      ],
      "stateMutability": "view",
      "type": "function"
    },
    {
      "inputs": [
        {
          "internalType": "address",
          "name": "owner",
          "type": "address"
        },
        {
          "internalType": "address",
          "name": "spender",
          "type": "address"
        },
        {
          "internalType": "uint256",
          "name": "value",
          "type": "uint256"
        },
        {
          "internalType": "uint256",
          "name": "deadline",
          "type": "uint256"
        },
        {
          "internalType": "uint8",
          "name": "v",
          "type": "uint8"
        },
        {
          "internalType": "bytes32",
          "name": "r",
          "type": "bytes32"
        },
        {
          "internalType": "bytes32",
          "name": "s",
          "type": "bytes32"
        }
      ],
      "name": "permit",
      "outputs": [],
      "stateMutability": "nonpayable",
      "type": "function"
    },
    {
      "inputs": [],
      "name": "renounceOwnership",
      "outputs": [],
      "stateMutability": "nonpayable",
      "type": "function"
    },
    {
      "inputs": [],
      "name": "symbol",
      "outputs": [
        {
          "internalType": "string",
          "name": "",
          "type": "string"
        }
      ],
      "stateMutability": "view",
      "type": "function"
    },
    {
      "inputs": [],
      "name": "totalSupply",
      "outputs": [
        {
          "internalType": "uint256",
          "name": "",
          "type": "uint256"
        }
      ],
      "stateMutability": "view",
      "type": "function"
    },
    {
      "inputs": [
        {
          "internalType": "address",
          "name": "recipient",
          "type": "address"
        },
        {
          "internalType": "uint256",
          "name": "amount",
          "type": "uint256"
        }
      ],
      "name": "transfer",
      "outputs": [
        {
          "internalType": "bool",
          "name": "",
          "type": "bool"
        }
      ],
      "stateMutability": "nonpayable",
      "type": "function"
    },
    {
      "inputs": [
        {
          "internalType": "address",
          "name": "sender",
          "type": "address"
        },
        {
          "internalType": "address",
          "name": "recipient",
          "type": "address"
        },
        {
          "internalType": "uint256",
          "name": "amount",
          "type": "uint256"
        }
      ],
      "name": "transferFrom",
      "outputs": [
        {
          "internalType": "bool",
          "name": "",
          "type": "bool"
        }
      ],
      "stateMutability": "nonpayable",
      "type": "function"
    },
    {
      "inputs": [
        {
          "internalType": "address",
          "name": "newOwner",
          "type": "address"
        }
      ],
      "name": "transferOwnership",
      "outputs": [],
      "stateMutability": "nonpayable",
      "type": "function"
    }
  ],
  "transactionHash": "0x9e74139d50ab8ae00de3cc6b67e2ef9b12ed29b9f19a9590dc388026c395aa59",
  "args": [],
  "numDeployments": 1,
  "solcInputHash": "6c1f2755591cb2b955548a717a368f8f",
  "bytecode": "0x608060405234801561001057600080fd5b506119c5806100206000396000f3fe608060405234801561001057600080fd5b50600436106101375760003560e01c806370a08231116100b857806395d89b411161007c57806395d89b4114610279578063a457c2d714610281578063a9059cbb14610294578063d505accf146102a7578063dd62ed3e146102ba578063f2fde38b146102f357600080fd5b806370a0823114610207578063715018a61461023057806379cc6790146102385780637ecebe001461024b5780638da5cb5b1461025e57600080fd5b80633644e515116100ff5780633644e515146101b157806339509351146101b957806340c10f19146101cc57806342966c68146101e15780634cd88b76146101f457600080fd5b806306fdde031461013c578063095ea7b31461015a57806318160ddd1461017d57806323b872dd1461018f578063313ce567146101a2575b600080fd5b610144610306565b6040516101519190611829565b60405180910390f35b61016d610168366004611787565b610398565b6040519015158152602001610151565b6067545b604051908152602001610151565b61016d61019d3660046116db565b6103ae565b60405160128152602001610151565b61018161045d565b61016d6101c7366004611787565b61046c565b6101df6101da366004611787565b6104a8565b005b6101df6101ef366004611811565b610526565b61016d6102023660046117b0565b610533565b610181610215366004611688565b6001600160a01b031660009081526065602052604090205490565b6101df6105ee565b6101df610246366004611787565b610624565b610181610259366004611688565b6106aa565b6033546040516001600160a01b039091168152602001610151565b6101446106ca565b61016d61028f366004611787565b6106d9565b61016d6102a2366004611787565b610772565b6101df6102b5366004611716565b61077f565b6101816102c83660046116a9565b6001600160a01b03918216600090815260666020908152604080832093909416825291909152205490565b6101df610301366004611688565b6108c5565b6060606880546103159061192e565b80601f01602080910402602001604051908101604052809291908181526020018280546103419061192e565b801561038e5780601f106103635761010080835404028352916020019161038e565b820191906000526020600020905b81548152906001019060200180831161037157829003601f168201915b5050505050905090565b60006103a533848461095d565b50600192915050565b60006103bb848484610a81565b6001600160a01b0384166000908152606660209081526040808320338452909152902054828110156104455760405162461bcd60e51b815260206004820152602860248201527f45524332303a207472616e7366657220616d6f756e74206578636565647320616044820152676c6c6f77616e636560c01b60648201526084015b60405180910390fd5b610452853385840361095d565b506001949350505050565b6000610467610c50565b905090565b3360008181526066602090815260408083206001600160a01b038716845290915281205490916103a59185906104a39086906118ff565b61095d565b6033546001600160a01b031633146104d25760405162461bcd60e51b815260040161043c906118ca565b806105185760405162461bcd60e51b815260206004820152601660248201527504c50546f6b656e3a2063616e6e6f74206d696e7420360541b604482015260640161043c565b6105228282610ccb565b5050565b6105303382610daa565b50565b60008054610100900460ff168061054d575060005460ff16155b6105695760405162461bcd60e51b815260040161043c9061187c565b600054610100900460ff1615801561058b576000805461ffff19166101011790555b610593610ef8565b61059d8484610f63565b6105c084604051806040016040528060018152602001603160f81b815250610ff8565b6105c984611082565b6105d1611112565b6001915080156105e7576000805461ff00191690555b5092915050565b6033546001600160a01b031633146106185760405162461bcd60e51b815260040161043c906118ca565b610622600061116e565b565b600061063083336102c8565b90508181101561068e5760405162461bcd60e51b8152602060048201526024808201527f45524332303a206275726e20616d6f756e74206578636565647320616c6c6f77604482015263616e636560e01b606482015260840161043c565b61069b833384840361095d565b6106a58383610daa565b505050565b6001600160a01b038116600090815260fd60205260408120545b92915050565b6060606980546103159061192e565b3360009081526066602090815260408083206001600160a01b03861684529091528120548281101561075b5760405162461bcd60e51b815260206004820152602560248201527f45524332303a2064656372656173656420616c6c6f77616e63652062656c6f77604482015264207a65726f60d81b606482015260840161043c565b610768338585840361095d565b5060019392505050565b60006103a5338484610a81565b834211156107cf5760405162461bcd60e51b815260206004820152601d60248201527f45524332305065726d69743a206578706972656420646561646c696e65000000604482015260640161043c565b600060fe548888886107e08c6111c0565b6040805160208101969096526001600160a01b0394851690860152929091166060840152608083015260a082015260c0810186905260e001604051602081830303815290604052805190602001209050600061083b826111e8565b9050600061084b82878787611236565b9050896001600160a01b0316816001600160a01b0316146108ae5760405162461bcd60e51b815260206004820152601e60248201527f45524332305065726d69743a20696e76616c6964207369676e61747572650000604482015260640161043c565b6108b98a8a8a61095d565b50505050505050505050565b6033546001600160a01b031633146108ef5760405162461bcd60e51b815260040161043c906118ca565b6001600160a01b0381166109545760405162461bcd60e51b815260206004820152602660248201527f4f776e61626c653a206e6577206f776e657220697320746865207a65726f206160448201526564647265737360d01b606482015260840161043c565b6105308161116e565b6001600160a01b0383166109bf5760405162461bcd60e51b8152602060048201526024808201527f45524332303a20617070726f76652066726f6d20746865207a65726f206164646044820152637265737360e01b606482015260840161043c565b6001600160a01b038216610a205760405162461bcd60e51b815260206004820152602260248201527f45524332303a20617070726f766520746f20746865207a65726f206164647265604482015261737360f01b606482015260840161043c565b6001600160a01b0383811660008181526066602090815260408083209487168084529482529182902085905590518481527f8c5be1e5ebec7d5bd14f71427d1e84f3dd0314c0f7b2291e5b200ac8c7c3b925910160405180910390a3505050565b6001600160a01b038316610ae55760405162461bcd60e51b815260206004820152602560248201527f45524332303a207472616e736665722066726f6d20746865207a65726f206164604482015264647265737360d81b606482015260840161043c565b6001600160a01b038216610b475760405162461bcd60e51b815260206004820152602360248201527f45524332303a207472616e7366657220746f20746865207a65726f206164647260448201526265737360e81b606482015260840161043c565b6001600160a01b03831660009081526065602052604090205481811015610bbf5760405162461bcd60e51b815260206004820152602660248201527f45524332303a207472616e7366657220616d6f756e7420657863656564732062604482015265616c616e636560d01b606482015260840161043c565b6001600160a01b03808516600090815260656020526040808220858503905591851681529081208054849290610bf69084906118ff565b92505081905550826001600160a01b0316846001600160a01b03167fddf252ad1be2c89b69c2b068fc378daa952ba7f163c4a11628f55a4df523b3ef84604051610c4291815260200190565b60405180910390a350505050565b60006104677f8b73c3c69bb8fe3d512ecc4cf759cc79239f7b179b0ffacaa9a75d522b39400f610c7f60c95490565b60ca546040805160208101859052908101839052606081018290524660808201523060a082015260009060c0016040516020818303038152906040528051906020012090509392505050565b6001600160a01b038216610d215760405162461bcd60e51b815260206004820152601f60248201527f45524332303a206d696e7420746f20746865207a65726f206164647265737300604482015260640161043c565b8060676000828254610d3391906118ff565b90915550506001600160a01b03821660009081526065602052604081208054839290610d609084906118ff565b90915550506040518181526001600160a01b038316906000907fddf252ad1be2c89b69c2b068fc378daa952ba7f163c4a11628f55a4df523b3ef9060200160405180910390a35050565b6001600160a01b038216610e0a5760405162461bcd60e51b815260206004820152602160248201527f45524332303a206275726e2066726f6d20746865207a65726f206164647265736044820152607360f81b606482015260840161043c565b6001600160a01b03821660009081526065602052604090205481811015610e7e5760405162461bcd60e51b815260206004820152602260248201527f45524332303a206275726e20616d6f756e7420657863656564732062616c616e604482015261636560f01b606482015260840161043c565b6001600160a01b0383166000908152606560205260408120838303905560678054849290610ead908490611917565b90915550506040518281526000906001600160a01b038516907fddf252ad1be2c89b69c2b068fc378daa952ba7f163c4a11628f55a4df523b3ef9060200160405180910390a3505050565b600054610100900460ff1680610f11575060005460ff16155b610f2d5760405162461bcd60e51b815260040161043c9061187c565b600054610100900460ff16158015610f4f576000805461ffff19166101011790555b8015610530576000805461ff001916905550565b600054610100900460ff1680610f7c575060005460ff16155b610f985760405162461bcd60e51b815260040161043c9061187c565b600054610100900460ff16158015610fba576000805461ffff19166101011790555b8251610fcd90606890602086019061154c565b508151610fe190606990602085019061154c565b5080156106a5576000805461ff0019169055505050565b600054610100900460ff1680611011575060005460ff16155b61102d5760405162461bcd60e51b815260040161043c9061187c565b600054610100900460ff1615801561104f576000805461ffff19166101011790555b825160208085019190912083519184019190912060c99190915560ca5580156106a5576000805461ff0019169055505050565b600054610100900460ff168061109b575060005460ff16155b6110b75760405162461bcd60e51b815260040161043c9061187c565b600054610100900460ff161580156110d9576000805461ffff19166101011790555b7f6e71edae12b1b97f4d1f60370fef10105fa2faae0126114a169c64845d6126c960fe558015610522576000805461ff00191690555050565b600054610100900460ff168061112b575060005460ff16155b6111475760405162461bcd60e51b815260040161043c9061187c565b600054610100900460ff16158015611169576000805461ffff19166101011790555b610f4f335b603380546001600160a01b038381166001600160a01b0319831681179093556040519116919082907f8be0079c531659141344cd1fd0a4f28419497f9722a3daafe3b4186f6b6457e090600090a35050565b6001600160a01b038116600090815260fd602052604090208054600181018255905b50919050565b60006106c46111f5610c50565b8360405161190160f01b6020820152602281018390526042810182905260009060620160405160208183030381529060405280519060200120905092915050565b60008060006112478787878761125e565b915091506112548161134b565b5095945050505050565b6000807f7fffffffffffffffffffffffffffffff5d576e7357a4501ddfe92f46681b20a08311156112955750600090506003611342565b8460ff16601b141580156112ad57508460ff16601c14155b156112be5750600090506004611342565b6040805160008082526020820180845289905260ff881692820192909252606081018690526080810185905260019060a0016020604051602081039080840390855afa158015611312573d6000803e3d6000fd5b5050604051601f1901519150506001600160a01b03811661133b57600060019250925050611342565b9150600090505b94509492505050565b600081600481111561136d57634e487b7160e01b600052602160045260246000fd5b14156113765750565b600181600481111561139857634e487b7160e01b600052602160045260246000fd5b14156113e65760405162461bcd60e51b815260206004820152601860248201527f45434453413a20696e76616c6964207369676e61747572650000000000000000604482015260640161043c565b600281600481111561140857634e487b7160e01b600052602160045260246000fd5b14156114565760405162461bcd60e51b815260206004820152601f60248201527f45434453413a20696e76616c6964207369676e6174757265206c656e67746800604482015260640161043c565b600381600481111561147857634e487b7160e01b600052602160045260246000fd5b14156114d15760405162461bcd60e51b815260206004820152602260248201527f45434453413a20696e76616c6964207369676e6174757265202773272076616c604482015261756560f01b606482015260840161043c565b60048160048111156114f357634e487b7160e01b600052602160045260246000fd5b14156105305760405162461bcd60e51b815260206004820152602260248201527f45434453413a20696e76616c6964207369676e6174757265202776272076616c604482015261756560f01b606482015260840161043c565b8280546115589061192e565b90600052602060002090601f01602090048101928261157a57600085556115c0565b82601f1061159357805160ff19168380011785556115c0565b828001600101855582156115c0579182015b828111156115c05782518255916020019190600101906115a5565b506115cc9291506115d0565b5090565b5b808211156115cc57600081556001016115d1565b80356001600160a01b03811681146115fc57600080fd5b919050565b600082601f830112611611578081fd5b813567ffffffffffffffff8082111561162c5761162c611979565b604051601f8301601f19908116603f0116810190828211818310171561165457611654611979565b8160405283815286602085880101111561166c578485fd5b8360208701602083013792830160200193909352509392505050565b600060208284031215611699578081fd5b6116a2826115e5565b9392505050565b600080604083850312156116bb578081fd5b6116c4836115e5565b91506116d2602084016115e5565b90509250929050565b6000806000606084860312156116ef578081fd5b6116f8846115e5565b9250611706602085016115e5565b9150604084013590509250925092565b600080600080600080600060e0888a031215611730578283fd5b611739886115e5565b9650611747602089016115e5565b95506040880135945060608801359350608088013560ff8116811461176a578384fd5b9699959850939692959460a0840135945060c09093013592915050565b60008060408385031215611799578182fd5b6117a2836115e5565b946020939093013593505050565b600080604083850312156117c2578182fd5b823567ffffffffffffffff808211156117d9578384fd5b6117e586838701611601565b935060208501359150808211156117fa578283fd5b5061180785828601611601565b9150509250929050565b600060208284031215611822578081fd5b5035919050565b6000602080835283518082850152825b8181101561185557858101830151858201604001528201611839565b818111156118665783604083870101525b50601f01601f1916929092016040019392505050565b6020808252602e908201527f496e697469616c697a61626c653a20636f6e747261637420697320616c72656160408201526d191e481a5b9a5d1a585b1a5e995960921b606082015260800190565b6020808252818101527f4f776e61626c653a2063616c6c6572206973206e6f7420746865206f776e6572604082015260600190565b6000821982111561191257611912611963565b500190565b60008282101561192957611929611963565b500390565b600181811c9082168061194257607f821691505b602082108114156111e257634e487b7160e01b600052602260045260246000fd5b634e487b7160e01b600052601160045260246000fd5b634e487b7160e01b600052604160045260246000fdfea2646970667358221220c8580f3e53fd592dd8215510c9ad8a77945c58092aad187dd49920a43446e55964736f6c63430008040033",
  "devdoc": {
    "kind": "dev",
    "methods": {
      "DOMAIN_SEPARATOR()": {
        "details": "See {IERC20Permit-DOMAIN_SEPARATOR}."
      },
      "allowance(address,address)": {
        "details": "See {IERC20-allowance}."
      },
      "approve(address,uint256)": {
        "details": "See {IERC20-approve}. Requirements: - `spender` cannot be the zero address."
      },
      "balanceOf(address)": {
        "details": "See {IERC20-balanceOf}."
      },
      "burn(uint256)": {
        "details": "Destroys `amount` tokens from the caller. See {ERC20-_burn}."
      },
      "burnFrom(address,uint256)": {
        "details": "Destroys `amount` tokens from `account`, deducting from the caller's allowance. See {ERC20-_burn} and {ERC20-allowance}. Requirements: - the caller must have allowance for ``accounts``'s tokens of at least `amount`."
      },
      "decimals()": {
        "details": "Returns the number of decimals used to get its user representation. For example, if `decimals` equals `2`, a balance of `505` tokens should be displayed to a user as `5.05` (`505 / 10 ** 2`). Tokens usually opt for a value of 18, imitating the relationship between Ether and Wei. This is the value {ERC20} uses, unless this function is overridden; NOTE: This information is only used for _display_ purposes: it in no way affects any of the arithmetic of the contract, including {IERC20-balanceOf} and {IERC20-transfer}."
      },
      "decreaseAllowance(address,uint256)": {
        "details": "Atomically decreases the allowance granted to `spender` by the caller. This is an alternative to {approve} that can be used as a mitigation for problems described in {IERC20-approve}. Emits an {Approval} event indicating the updated allowance. Requirements: - `spender` cannot be the zero address. - `spender` must have allowance for the caller of at least `subtractedValue`."
      },
      "increaseAllowance(address,uint256)": {
        "details": "Atomically increases the allowance granted to `spender` by the caller. This is an alternative to {approve} that can be used as a mitigation for problems described in {IERC20-approve}. Emits an {Approval} event indicating the updated allowance. Requirements: - `spender` cannot be the zero address."
      },
      "initialize(string,string)": {
        "details": "The caller of this function will become the owner. A Swap contract should call this in its initializer function.",
        "params": {
          "name": "name of this token",
          "symbol": "symbol of this token"
        }
      },
      "mint(address,uint256)": {
        "details": "only owner can call this mint function.",
        "params": {
          "amount": "amount of tokens to mint",
          "recipient": "address of account to receive the tokens"
        }
      },
      "name()": {
        "details": "Returns the name of the token."
      },
      "nonces(address)": {
        "details": "See {IERC20Permit-nonces}."
      },
      "owner()": {
        "details": "Returns the address of the current owner."
      },
      "permit(address,address,uint256,uint256,uint8,bytes32,bytes32)": {
        "details": "See {IERC20Permit-permit}."
      },
      "renounceOwnership()": {
        "details": "Leaves the contract without owner. It will not be possible to call `onlyOwner` functions anymore. Can only be called by the current owner. NOTE: Renouncing ownership will leave the contract without an owner, thereby removing any functionality that is only available to the owner."
      },
      "symbol()": {
        "details": "Returns the symbol of the token, usually a shorter version of the name."
      },
      "totalSupply()": {
        "details": "See {IERC20-totalSupply}."
      },
      "transfer(address,uint256)": {
        "details": "See {IERC20-transfer}. Requirements: - `recipient` cannot be the zero address. - the caller must have a balance of at least `amount`."
      },
      "transferFrom(address,address,uint256)": {
        "details": "See {IERC20-transferFrom}. Emits an {Approval} event indicating the updated allowance. This is not required by the EIP. See the note at the beginning of {ERC20}. Requirements: - `sender` and `recipient` cannot be the zero address. - `sender` must have a balance of at least `amount`. - the caller must have allowance for ``sender``'s tokens of at least `amount`."
      },
      "transferOwnership(address)": {
        "details": "Transfers ownership of the contract to a new account (`newOwner`). Can only be called by the current owner."
      }
    },
    "version": 1
  },
  "userdoc": {
    "kind": "user",
    "methods": {
      "initialize(string,string)": {
        "notice": "Initializes this LPToken contract with the given name and symbol"
      },
      "mint(address,uint256)": {
        "notice": "Mints the given amount of LPToken to the recipient."
      }
    },
    "version": 1
  },
  "storageLayout": {
    "storage": [
      {
        "astId": 130,
        "contract": "contracts/tenderswap/LiquidityPoolToken.sol:LiquidityPoolToken",
        "label": "_initialized",
        "offset": 0,
        "slot": "0",
        "type": "t_bool"
      },
      {
        "astId": 133,
        "contract": "contracts/tenderswap/LiquidityPoolToken.sol:LiquidityPoolToken",
        "label": "_initializing",
        "offset": 1,
        "slot": "0",
        "type": "t_bool"
      },
      {
        "astId": 1267,
        "contract": "contracts/tenderswap/LiquidityPoolToken.sol:LiquidityPoolToken",
        "label": "__gap",
        "offset": 0,
        "slot": "1",
        "type": "t_array(t_uint256)50_storage"
      },
      {
        "astId": 10,
        "contract": "contracts/tenderswap/LiquidityPoolToken.sol:LiquidityPoolToken",
        "label": "_owner",
        "offset": 0,
        "slot": "51",
        "type": "t_address"
      },
      {
        "astId": 123,
        "contract": "contracts/tenderswap/LiquidityPoolToken.sol:LiquidityPoolToken",
        "label": "__gap",
        "offset": 0,
        "slot": "52",
        "type": "t_array(t_uint256)49_storage"
      },
      {
        "astId": 247,
        "contract": "contracts/tenderswap/LiquidityPoolToken.sol:LiquidityPoolToken",
        "label": "_balances",
        "offset": 0,
        "slot": "101",
        "type": "t_mapping(t_address,t_uint256)"
      },
      {
        "astId": 253,
        "contract": "contracts/tenderswap/LiquidityPoolToken.sol:LiquidityPoolToken",
        "label": "_allowances",
        "offset": 0,
        "slot": "102",
        "type": "t_mapping(t_address,t_mapping(t_address,t_uint256))"
      },
      {
        "astId": 255,
        "contract": "contracts/tenderswap/LiquidityPoolToken.sol:LiquidityPoolToken",
        "label": "_totalSupply",
        "offset": 0,
        "slot": "103",
        "type": "t_uint256"
      },
      {
        "astId": 257,
        "contract": "contracts/tenderswap/LiquidityPoolToken.sol:LiquidityPoolToken",
        "label": "_name",
        "offset": 0,
        "slot": "104",
        "type": "t_string_storage"
      },
      {
        "astId": 259,
        "contract": "contracts/tenderswap/LiquidityPoolToken.sol:LiquidityPoolToken",
        "label": "_symbol",
        "offset": 0,
        "slot": "105",
        "type": "t_string_storage"
      },
      {
        "astId": 800,
        "contract": "contracts/tenderswap/LiquidityPoolToken.sol:LiquidityPoolToken",
        "label": "__gap",
        "offset": 0,
        "slot": "106",
        "type": "t_array(t_uint256)45_storage"
      },
      {
        "astId": 965,
        "contract": "contracts/tenderswap/LiquidityPoolToken.sol:LiquidityPoolToken",
        "label": "__gap",
        "offset": 0,
        "slot": "151",
        "type": "t_array(t_uint256)50_storage"
      },
      {
        "astId": 1718,
        "contract": "contracts/tenderswap/LiquidityPoolToken.sol:LiquidityPoolToken",
        "label": "_HASHED_NAME",
        "offset": 0,
        "slot": "201",
        "type": "t_bytes32"
      },
      {
        "astId": 1720,
        "contract": "contracts/tenderswap/LiquidityPoolToken.sol:LiquidityPoolToken",
        "label": "_HASHED_VERSION",
        "offset": 0,
        "slot": "202",
        "type": "t_bytes32"
      },
      {
        "astId": 1857,
        "contract": "contracts/tenderswap/LiquidityPoolToken.sol:LiquidityPoolToken",
        "label": "__gap",
        "offset": 0,
        "slot": "203",
        "type": "t_array(t_uint256)50_storage"
      },
      {
        "astId": 1017,
        "contract": "contracts/tenderswap/LiquidityPoolToken.sol:LiquidityPoolToken",
        "label": "_nonces",
        "offset": 0,
        "slot": "253",
        "type": "t_mapping(t_address,t_struct(Counter)1274_storage)"
      },
      {
        "astId": 1019,
        "contract": "contracts/tenderswap/LiquidityPoolToken.sol:LiquidityPoolToken",
        "label": "_PERMIT_TYPEHASH",
        "offset": 0,
        "slot": "254",
        "type": "t_bytes32"
      },
      {
        "astId": 1187,
        "contract": "contracts/tenderswap/LiquidityPoolToken.sol:LiquidityPoolToken",
        "label": "__gap",
        "offset": 0,
        "slot": "255",
        "type": "t_array(t_uint256)49_storage"
      }
    ],
    "types": {
      "t_address": {
        "encoding": "inplace",
        "label": "address",
        "numberOfBytes": "20"
      },
      "t_array(t_uint256)45_storage": {
        "base": "t_uint256",
        "encoding": "inplace",
        "label": "uint256[45]",
        "numberOfBytes": "1440"
      },
      "t_array(t_uint256)49_storage": {
        "base": "t_uint256",
        "encoding": "inplace",
        "label": "uint256[49]",
        "numberOfBytes": "1568"
      },
      "t_array(t_uint256)50_storage": {
        "base": "t_uint256",
        "encoding": "inplace",
        "label": "uint256[50]",
        "numberOfBytes": "1600"
      },
      "t_bool": {
        "encoding": "inplace",
        "label": "bool",
        "numberOfBytes": "1"
      },
      "t_bytes32": {
        "encoding": "inplace",
        "label": "bytes32",
        "numberOfBytes": "32"
      },
      "t_mapping(t_address,t_mapping(t_address,t_uint256))": {
        "encoding": "mapping",
        "key": "t_address",
        "label": "mapping(address => mapping(address => uint256))",
        "numberOfBytes": "32",
        "value": "t_mapping(t_address,t_uint256)"
      },
      "t_mapping(t_address,t_struct(Counter)1274_storage)": {
        "encoding": "mapping",
        "key": "t_address",
        "label": "mapping(address => struct CountersUpgradeable.Counter)",
        "numberOfBytes": "32",
        "value": "t_struct(Counter)1274_storage"
      },
      "t_mapping(t_address,t_uint256)": {
        "encoding": "mapping",
        "key": "t_address",
        "label": "mapping(address => uint256)",
        "numberOfBytes": "32",
        "value": "t_uint256"
      },
      "t_string_storage": {
        "encoding": "bytes",
        "label": "string",
        "numberOfBytes": "32"
      },
      "t_struct(Counter)1274_storage": {
        "encoding": "inplace",
        "label": "struct CountersUpgradeable.Counter",
        "members": [
          {
            "astId": 1273,
            "contract": "contracts/tenderswap/LiquidityPoolToken.sol:LiquidityPoolToken",
            "label": "_value",
            "offset": 0,
            "slot": "0",
            "type": "t_uint256"
          }
        ],
        "numberOfBytes": "32"
      },
      "t_uint256": {
        "encoding": "inplace",
        "label": "uint256",
        "numberOfBytes": "32"
      }
    }
  }
}