{
  "address": "0xd191b5ab188fAcB2c5E9092D7988d94729b15a85",
  "abi": [
    {
      "anonymous": false,
      "inputs": [
        {
          "indexed": true,
          "internalType": "address",
          "name": "account",
          "type": "address"
        },
        {
          "indexed": false,
          "internalType": "uint256",
          "name": "amount",
          "type": "uint256"
        }
      ],
      "name": "Farm",
      "type": "event"
    },
    {
      "anonymous": false,
      "inputs": [
        {
          "indexed": true,
          "internalType": "address",
          "name": "account",
          "type": "address"
        },
        {
          "indexed": false,
          "internalType": "uint256",
          "name": "amount",
          "type": "uint256"
        }
      ],
      "name": "Harvest",
      "type": "event"
    },
    {
      "anonymous": false,
      "inputs": [
        {
          "indexed": false,
          "internalType": "uint256",
          "name": "amount",
          "type": "uint256"
        }
      ],
      "name": "RewardsAdded",
      "type": "event"
    },
    {
      "anonymous": false,
      "inputs": [
        {
          "indexed": true,
          "internalType": "address",
          "name": "account",
          "type": "address"
        },
        {
          "indexed": false,
          "internalType": "uint256",
          "name": "amount",
          "type": "uint256"
        }
      ],
      "name": "Unfarm",
      "type": "event"
    },
    {
      "inputs": [],
      "name": "CRF",
      "outputs": [
        {
          "internalType": "uint256",
          "name": "",
          "type": "uint256"
        }
      ],
      "stateMutability": "view",
      "type": "function"
    },
    {
      "inputs": [
        {
          "internalType": "uint256",
          "name": "_amount",
          "type": "uint256"
        }
      ],
      "name": "addRewards",
      "outputs": [],
      "stateMutability": "nonpayable",
      "type": "function"
    },
    {
      "inputs": [
        {
          "internalType": "address",
          "name": "_for",
          "type": "address"
        }
      ],
      "name": "availableRewards",
      "outputs": [
        {
          "internalType": "uint256",
          "name": "",
          "type": "uint256"
        }
      ],
      "stateMutability": "view",
      "type": "function"
    },
    {
      "inputs": [
        {
          "internalType": "uint256",
          "name": "_amount",
          "type": "uint256"
        }
      ],
      "name": "farm",
      "outputs": [],
      "stateMutability": "nonpayable",
      "type": "function"
    },
    {
      "inputs": [
        {
          "internalType": "address",
          "name": "_for",
          "type": "address"
        },
        {
          "internalType": "uint256",
          "name": "_amount",
          "type": "uint256"
        }
      ],
      "name": "farmFor",
      "outputs": [],
      "stateMutability": "nonpayable",
      "type": "function"
    },
    {
      "inputs": [
        {
          "internalType": "uint256",
          "name": "_amount",
          "type": "uint256"
        },
        {
          "internalType": "uint256",
          "name": "_deadline",
          "type": "uint256"
        },
        {
          "internalType": "uint8",
          "name": "_v",
          "type": "uint8"
        },
        {
          "internalType": "bytes32",
          "name": "_r",
          "type": "bytes32"
        },
        {
          "internalType": "bytes32",
          "name": "_s",
          "type": "bytes32"
        }
      ],
      "name": "farmWithPermit",
      "outputs": [],
      "stateMutability": "nonpayable",
      "type": "function"
    },
    {
      "inputs": [],
      "name": "harvest",
      "outputs": [],
      "stateMutability": "nonpayable",
      "type": "function"
    },
    {
      "inputs": [
        {
          "internalType": "contract IERC20",
          "name": "_stakeToken",
          "type": "address"
        },
        {
          "internalType": "contract ITenderToken",
          "name": "_rewardToken",
          "type": "address"
        },
        {
          "internalType": "contract ITenderizer",
          "name": "_tenderizer",
          "type": "address"
        }
      ],
      "name": "initialize",
      "outputs": [
        {
          "internalType": "bool",
          "name": "",
          "type": "bool"
        }
      ],
      "stateMutability": "nonpayable",
      "type": "function"
    },
    {
      "inputs": [],
      "name": "nextTotalStake",
      "outputs": [
        {
          "internalType": "uint256",
          "name": "",
          "type": "uint256"
        }
      ],
      "stateMutability": "view",
      "type": "function"
    },
    {
      "inputs": [],
      "name": "rewardToken",
      "outputs": [
        {
          "internalType": "contract ITenderToken",
          "name": "",
          "type": "address"
        }
      ],
      "stateMutability": "view",
      "type": "function"
    },
    {
      "inputs": [
        {
          "internalType": "address",
          "name": "_token",
          "type": "address"
        },
        {
          "internalType": "uint256",
          "name": "_value",
          "type": "uint256"
        },
        {
          "internalType": "uint256",
          "name": "_deadline",
          "type": "uint256"
        },
        {
          "internalType": "uint8",
          "name": "_v",
          "type": "uint8"
        },
        {
          "internalType": "bytes32",
          "name": "_r",
          "type": "bytes32"
        },
        {
          "internalType": "bytes32",
          "name": "_s",
          "type": "bytes32"
        }
      ],
      "name": "selfPermit",
      "outputs": [],
      "stateMutability": "payable",
      "type": "function"
    },
    {
      "inputs": [
        {
          "internalType": "address",
          "name": "_token",
          "type": "address"
        },
        {
          "internalType": "uint256",
          "name": "_value",
          "type": "uint256"
        },
        {
          "internalType": "uint256",
          "name": "_deadline",
          "type": "uint256"
        },
        {
          "internalType": "uint8",
          "name": "_v",
          "type": "uint8"
        },
        {
          "internalType": "bytes32",
          "name": "_r",
          "type": "bytes32"
        },
        {
          "internalType": "bytes32",
          "name": "_s",
          "type": "bytes32"
        }
      ],
      "name": "selfPermitIfNecessary",
      "outputs": [],
      "stateMutability": "payable",
      "type": "function"
    },
    {
      "inputs": [
        {
          "internalType": "contract ITenderizer",
          "name": "_tenderizer",
          "type": "address"
        }
      ],
      "name": "setTenderizer",
      "outputs": [],
      "stateMutability": "nonpayable",
      "type": "function"
    },
    {
      "inputs": [
        {
          "internalType": "address",
          "name": "_of",
          "type": "address"
        }
      ],
      "name": "stakeOf",
      "outputs": [
        {
          "internalType": "uint256",
          "name": "",
          "type": "uint256"
        }
      ],
      "stateMutability": "view",
      "type": "function"
    },
    {
      "inputs": [
        {
          "internalType": "address",
          "name": "",
          "type": "address"
        }
      ],
      "name": "stakes",
      "outputs": [
        {
          "internalType": "uint256",
          "name": "stake",
          "type": "uint256"
        },
        {
          "internalType": "uint256",
          "name": "lastCRF",
          "type": "uint256"
        }
      ],
      "stateMutability": "view",
      "type": "function"
    },
    {
      "inputs": [],
      "name": "tenderizer",
      "outputs": [
        {
          "internalType": "contract ITenderizer",
          "name": "",
          "type": "address"
        }
      ],
      "stateMutability": "view",
      "type": "function"
    },
    {
      "inputs": [],
      "name": "token",
      "outputs": [
        {
          "internalType": "contract IERC20",
          "name": "",
          "type": "address"
        }
      ],
      "stateMutability": "view",
      "type": "function"
    },
    {
      "inputs": [],
      "name": "totalStake",
      "outputs": [
        {
          "internalType": "uint256",
          "name": "",
          "type": "uint256"
        }
      ],
      "stateMutability": "view",
      "type": "function"
    },
    {
      "inputs": [
        {
          "internalType": "uint256",
          "name": "_amount",
          "type": "uint256"
        }
      ],
      "name": "unfarm",
      "outputs": [],
      "stateMutability": "nonpayable",
      "type": "function"
    }
  ],
  "transactionHash": "0xd9ae6514b20b5c1e85c8ece2d0999b9ae56ace9e67223e66524c49bfba624672",
  "args": [],
  "numDeployments": 1,
  "solcInputHash": "6c1f2755591cb2b955548a717a368f8f",
  "bytecode": "0x608060405234801561001057600080fd5b506110d4806100206000396000f3fe6080604052600436106101145760003560e01c80638b0e9f3f116100a0578063f3995c6711610064578063f3995c6714610309578063f7c618c11461031c578063f854a27f1461033c578063fa827a841461035c578063fc0c546a1461037c57600080fd5b80638b0e9f3f1461027a5780638ebed61614610290578063beceed39146102a6578063c0c53b8b146102c6578063c2e3140a146102f657600080fd5b806342623360116100e757806342623360146101cd5780634641257d146101ed578063538a85a1146102025780635b3e2077146102225780635d1cf7b51461025a57600080fd5b806304c834271461011957806304d3b7c41461013b57806316934fc4146101645780631c885bae146101ad575b600080fd5b34801561012557600080fd5b50610139610134366004610e85565b6103a2565b005b34801561014757600080fd5b5061015160045481565b6040519081526020015b60405180910390f35b34801561017057600080fd5b5061019861017f366004610e85565b6006602052600090815260409020805460019091015482565b6040805192835260208301919091520161015b565b3480156101b957600080fd5b506101396101c8366004610f8f565b6103db565b3480156101d957600080fd5b506101516101e8366004610e85565b6103e8565b3480156101f957600080fd5b50610139610408565b34801561020e57600080fd5b5061013961021d366004610f8f565b610413565b34801561022e57600080fd5b50600254610242906001600160a01b031681565b6040516001600160a01b03909116815260200161015b565b34801561026657600080fd5b50610139610275366004610ea1565b61041d565b34801561028657600080fd5b5061015160035481565b34801561029c57600080fd5b5061015160055481565b3480156102b257600080fd5b506101396102c1366004610f8f565b61042b565b3480156102d257600080fd5b506102e66102e1366004610f45565b610626565b604051901515815260200161015b565b610139610304366004610ecc565b610732565b610139610317366004610ecc565b6107dc565b34801561032857600080fd5b50600154610242906001600160a01b031681565b34801561034857600080fd5b50610151610357366004610e85565b610868565b34801561036857600080fd5b50610139610377366004610fbf565b6108f3565b34801561038857600080fd5b50600054610242906201000090046001600160a01b031681565b6002546001600160a01b031633146103b957600080fd5b600280546001600160a01b0319166001600160a01b0392909216919091179055565b6103e53382610924565b50565b6001600160a01b0381166000908152600660205260408120545b92915050565b61041133610ad0565b565b6103e53382610c8d565b6104278282610c8d565b5050565b6002546001600160a01b0316331461044257600080fd5b600454806104825760405162461bcd60e51b81526020600482015260086024820152674e4f5f5354414b4560c01b60448201526064015b60405180910390fd5b600381905560015460405163f3044ac760e01b8152600481018490526000916001600160a01b03169063f3044ac79060240160206040518083038186803b1580156104cc57600080fd5b505afa1580156104e0573d6000803e3d6000fd5b505050506040513d601f19601f820116820180604052508101906105049190610fa7565b90506105108183610df2565b600560008282546105219190611005565b90915550506001546040516323b872dd60e01b8152336004820152306024820152604481018590526001600160a01b03909116906323b872dd90606401602060405180830381600087803b15801561057857600080fd5b505af115801561058c573d6000803e3d6000fd5b505050506040513d601f19601f820116820180604052508101906105b09190610f25565b6105ee5760405162461bcd60e51b815260206004820152600f60248201526e1514905394d1915497d19052531151608a1b6044820152606401610479565b6040518381527ff8fad42e780bfa5459be3fe691e8ba1aec70342250112139c5771c3fd155f3129060200160405180910390a1505050565b60008054610100900460ff1680610640575060005460ff16155b6106a35760405162461bcd60e51b815260206004820152602e60248201527f496e697469616c697a61626c653a20636f6e747261637420697320616c72656160448201526d191e481a5b9a5d1a585b1a5e995960921b6064820152608401610479565b600054610100900460ff161580156106c5576000805461ffff19166101011790555b600080546001600160a01b03808816620100000262010000600160b01b031990921691909117909155600180548683166001600160a01b03199182161782556002805493871693909116929092179091559150801561072a576000805461ff00191690555b509392505050565b604051636eb1769f60e11b81523360048201523060248201526000906001600160a01b0388169063dd62ed3e9060440160206040518083038186803b15801561077a57600080fd5b505afa15801561078e573d6000803e3d6000fd5b505050506040513d601f19601f820116820180604052508101906107b29190610fa7565b9050858110156107d3576107d3876107ca838961105c565b878787876107dc565b50505050505050565b60405163d505accf60e01b8152336004820152306024820152604481018690526064810185905260ff8416608482015260a4810183905260c481018290526001600160a01b0387169063d505accf9060e401600060405180830381600087803b15801561084857600080fd5b505af115801561085c573d6000803e3d6000fd5b50505050505050505050565b6001546000906001600160a01b03166327def4fd61088584610e19565b6040518263ffffffff1660e01b81526004016108a391815260200190565b60206040518083038186803b1580156108bb57600080fd5b505afa1580156108cf573d6000803e3d6000fd5b505050506040513d601f19601f820116820180604052508101906104029190610fa7565b600054610913906201000090046001600160a01b031686868686866107dc565b61091d3386610c8d565b5050505050565b6001600160a01b038216600090815260066020526040902080548211156109845760405162461bcd60e51b8152602060048201526014602482015273414d4f554e545f455843454544535f5354414b4560601b6044820152606401610479565b61098d83610ad0565b818160000160008282546109a1919061105c565b9250508190555081600460008282546109ba919061105c565b909155505060005460405163a9059cbb60e01b81526001600160a01b03858116600483015260248201859052620100009092049091169063a9059cbb90604401602060405180830381600087803b158015610a1457600080fd5b505af1158015610a28573d6000803e3d6000fd5b505050506040513d601f19601f82011682018060405250810190610a4c9190610f25565b610a885760405162461bcd60e51b815260206004820152600d60248201526c1514905394d1915497d1905253609a1b6044820152606401610479565b826001600160a01b03167f20257c99a1831ee05678eabb34e57a99bf067b4a5e2cb2d5559ea0a23f65518d83604051610ac391815260200190565b60405180910390a2505050565b6001600160a01b038116600090815260066020526040812090610af283610e19565b600554600184015590508015610c88576001546040516327def4fd60e01b8152600481018390526000916001600160a01b0316906327def4fd9060240160206040518083038186803b158015610b4757600080fd5b505afa158015610b5b573d6000803e3d6000fd5b505050506040513d601f19601f82011682018060405250810190610b7f9190610fa7565b60015460405163a9059cbb60e01b81526001600160a01b0387811660048301526024820184905292935091169063a9059cbb90604401602060405180830381600087803b158015610bcf57600080fd5b505af1158015610be3573d6000803e3d6000fd5b505050506040513d601f19601f82011682018060405250810190610c079190610f25565b610c435760405162461bcd60e51b815260206004820152600d60248201526c1514905394d1915497d1905253609a1b6044820152606401610479565b836001600160a01b03167fc9695243a805adb74c91f28311176c65b417e842d5699893cef56d18bfa48cba82604051610c7e91815260200190565b60405180910390a2505b505050565b610c9682610ad0565b6001600160a01b03821660009081526006602052604081208054839290610cbe908490611005565b925050819055508060046000828254610cd79190611005565b90915550506000546040516323b872dd60e01b815233600482015230602482015260448101839052620100009091046001600160a01b0316906323b872dd90606401602060405180830381600087803b158015610d3357600080fd5b505af1158015610d47573d6000803e3d6000fd5b505050506040513d601f19601f82011682018060405250810190610d6b9190610f25565b610dab5760405162461bcd60e51b81526020600482015260116024820152701514905394d19154919493d357d1905253607a1b6044820152606401610479565b816001600160a01b03167f1b359373bd6268b2ceac132cf22673d4f046a13deb2e7980f81baabf1b4d72f782604051610de691815260200190565b60405180910390a25050565b600081610e08683635c9adc5dea000008561103d565b610e12919061101d565b9392505050565b6001600160a01b0381166000908152600660205260408120600554610e415750600092915050565b80546001820154600554610e129291610e599161105c565b6000683635c9adc5dea00000610e08838561103d565b803560ff81168114610e8057600080fd5b919050565b600060208284031215610e96578081fd5b8135610e1281611089565b60008060408385031215610eb3578081fd5b8235610ebe81611089565b946020939093013593505050565b60008060008060008060c08789031215610ee4578182fd5b8635610eef81611089565b95506020870135945060408701359350610f0b60608801610e6f565b92506080870135915060a087013590509295509295509295565b600060208284031215610f36578081fd5b81518015158114610e12578182fd5b600080600060608486031215610f59578283fd5b8335610f6481611089565b92506020840135610f7481611089565b91506040840135610f8481611089565b809150509250925092565b600060208284031215610fa0578081fd5b5035919050565b600060208284031215610fb8578081fd5b5051919050565b600080600080600060a08688031215610fd6578081fd5b8535945060208601359350610fed60408701610e6f565b94979396509394606081013594506080013592915050565b6000821982111561101857611018611073565b500190565b60008261103857634e487b7160e01b81526012600452602481fd5b500490565b600081600019048311821515161561105757611057611073565b500290565b60008282101561106e5761106e611073565b500390565b634e487b7160e01b600052601160045260246000fd5b6001600160a01b03811681146103e557600080fdfea264697066735822122023550da00a7b6aca549c952cdfdcc1b97cac7ffe612af0f133c4629fab044bc764736f6c63430008040033",
  "devdoc": {
    "kind": "dev",
    "methods": {
      "addRewards(uint256)": {
        "details": "will 'start' a new 'epoch'.only callable by owner.",
        "params": {
          "_amount": "amount of reward tokens to add"
        }
      },
      "availableRewards(address)": {
        "params": {
          "_for": "address address of the account to check rewards for."
        },
        "returns": {
          "_0": "rewards for the provided account address."
        }
      },
      "farm(uint256)": {
        "details": "'_amount' needs to be approved for the 'TenderFarm' to transfer.harvests current rewards before accounting updates are made.",
        "params": {
          "_amount": "amount of liquidity pool tokens to stake"
        }
      },
      "farmFor(address,uint256)": {
        "details": "'_amount' needs to be approved for the 'TenderFarm' to transfer.staked tokens will belong to the account they are staked for.harvests current rewards before accounting updates are made.",
        "params": {
          "_amount": "amount of liquidity pool tokens to stake",
          "_for": "account to stake for"
        }
      },
      "farmWithPermit(uint256,uint256,uint8,bytes32,bytes32)": {
        "details": "'_amount' needs to be approved for the 'TenderFarm' to transfer.harvests current rewards before accounting updates are made.calls permit on LP Token.",
        "params": {
          "_amount": "amount of liquidity pool tokens to stake",
          "_deadline": "deadline of the permit",
          "_r": "r of signed Permit message",
          "_s": "s of signed Permit message",
          "_v": "v of signed Permit message"
        }
      },
      "harvest()": {
        "details": "reverts when trying to harvest multiple times if no new rewards have been added.emits an event with how many reward tokens have been harvested."
      },
      "selfPermit(address,uint256,uint256,uint8,bytes32,bytes32)": {
        "details": "The `owner` is always msg.sender and the `spender` is always address(this).",
        "params": {
          "_deadline": "A timestamp, the current blocktime must be less than or equal to this timestamp",
          "_r": "Must produce valid secp256k1 signature from the holder along with `v` and `s`",
          "_s": "Must produce valid secp256k1 signature from the holder along with `r` and `v`",
          "_token": "The address of the token spent",
          "_v": "Must produce valid secp256k1 signature from the holder along with `r` and `s`",
          "_value": "The amount that can be spent of token"
        }
      },
      "selfPermitIfNecessary(address,uint256,uint256,uint8,bytes32,bytes32)": {
        "details": "The `owner` is always msg.sender and the `spender` is always address(this). Can be used instead of #selfPermit to prevent calls from failing due to a frontrun of a call to #selfPermit",
        "params": {
          "_deadline": "A timestamp, the current blocktime must be less than or equal to this timestamp",
          "_r": "Must produce valid secp256k1 signature from the holder along with `v` and `s`",
          "_s": "Must produce valid secp256k1 signature from the holder along with `r` and `v`",
          "_token": "The address of the token spent",
          "_v": "Must produce valid secp256k1 signature from the holder along with `r` and `s`",
          "_value": "The amount that can be spent of token"
        }
      },
      "setTenderizer(address)": {
        "params": {
          "_tenderizer": "address of the new tenderizer"
        }
      },
      "stakeOf(address)": {
        "params": {
          "_of": "address address of the account to check stake for."
        },
        "returns": {
          "_0": "LP tokens deposited for address"
        }
      },
      "unfarm(uint256)": {
        "details": "'_amount' needs to be approved for the 'TenderFarm' to transfer.harvests current rewards before accounting updates are made.",
        "params": {
          "amount": "amount of liquidity pool tokens to stake"
        }
      }
    },
    "stateVariables": {
      "CRF": {
        "details": "Cumulative reward factor"
      },
      "nextTotalStake": {
        "return": "nextStake LP Tokens staked for next round",
        "returns": {
          "_0": "nextStake LP Tokens staked for next round"
        }
      },
      "rewardToken": {
        "details": "Tender token."
      },
      "stakes": {
        "details": "stake mapping of each address"
      },
      "tenderizer": {
        "details": "tenderizer."
      },
      "token": {
        "details": "LP token."
      },
      "totalStake": {
        "return": "stake total amount of LP tokens staked",
        "returns": {
          "_0": "stake total amount of LP tokens staked"
        }
      }
    },
    "title": "TenderFarm",
    "version": 1
  },
  "userdoc": {
    "events": {
      "Farm(address,uint256)": {
        "notice": "Farm gets emitted when an account stakes LP tokens."
      },
      "Harvest(address,uint256)": {
        "notice": "Harvest gets emitted when an accounts harvests outstanding rewards."
      },
      "RewardsAdded(uint256)": {
        "notice": "RewardsAdded gets emitted when new rewards are added and a new epoch begins"
      },
      "Unfarm(address,uint256)": {
        "notice": "Unfarm gets emitted when an account unstakes LP tokens."
      }
    },
    "kind": "user",
    "methods": {
      "addRewards(uint256)": {
        "notice": "add new rewards"
      },
      "availableRewards(address)": {
        "notice": "Check available rewards for an account."
      },
      "farm(uint256)": {
        "notice": "stake liquidity pool tokens to receive rewards"
      },
      "farmFor(address,uint256)": {
        "notice": "stake liquidity pool tokens for a specific account so that it receives rewards"
      },
      "farmWithPermit(uint256,uint256,uint8,bytes32,bytes32)": {
        "notice": "allow spending token and stake liquidity pool tokens to receive rewards"
      },
      "harvest()": {
        "notice": "harvest outstanding rewards"
      },
      "nextTotalStake()": {
        "notice": "Return the total amount of LP tokens staked for the next reward epoch."
      },
      "selfPermit(address,uint256,uint256,uint8,bytes32,bytes32)": {
        "notice": "Permits this contract to spend a given token from `msg.sender`"
      },
      "selfPermitIfNecessary(address,uint256,uint256,uint8,bytes32,bytes32)": {
        "notice": "Permits this contract to spend a given token from `msg.sender`"
      },
      "setTenderizer(address)": {
        "notice": "Changes the tenderizer of the contract"
      },
      "stakeOf(address)": {
        "notice": "Check stake for an account."
      },
      "totalStake()": {
        "notice": "Return the total amount of LP tokens staked in this farm."
      },
      "unfarm(uint256)": {
        "notice": "unstake liquidity pool tokens"
      }
    },
    "notice": "TenderFarm is responsible for incetivizing liquidity providers, by accepting LP Tokens and a proportionaly rewarding them with TenderTokens over time.",
    "version": 1
  },
  "storageLayout": {
    "storage": [
      {
        "astId": 2048,
        "contract": "contracts/tenderfarm/TenderFarm.sol:TenderFarm",
        "label": "_initialized",
        "offset": 0,
        "slot": "0",
        "type": "t_bool"
      },
      {
        "astId": 2051,
        "contract": "contracts/tenderfarm/TenderFarm.sol:TenderFarm",
        "label": "_initializing",
        "offset": 1,
        "slot": "0",
        "type": "t_bool"
      },
      {
        "astId": 4865,
        "contract": "contracts/tenderfarm/TenderFarm.sol:TenderFarm",
        "label": "token",
        "offset": 2,
        "slot": "0",
        "type": "t_contract(IERC20)2712"
      },
      {
        "astId": 4869,
        "contract": "contracts/tenderfarm/TenderFarm.sol:TenderFarm",
        "label": "rewardToken",
        "offset": 0,
        "slot": "1",
        "type": "t_contract(ITenderToken)16006"
      },
      {
        "astId": 4873,
        "contract": "contracts/tenderfarm/TenderFarm.sol:TenderFarm",
        "label": "tenderizer",
        "offset": 0,
        "slot": "2",
        "type": "t_contract(ITenderizer)5586"
      },
      {
        "astId": 4877,
        "contract": "contracts/tenderfarm/TenderFarm.sol:TenderFarm",
        "label": "totalStake",
        "offset": 0,
        "slot": "3",
        "type": "t_uint256"
      },
      {
        "astId": 4881,
        "contract": "contracts/tenderfarm/TenderFarm.sol:TenderFarm",
        "label": "nextTotalStake",
        "offset": 0,
        "slot": "4",
        "type": "t_uint256"
      },
      {
        "astId": 4884,
        "contract": "contracts/tenderfarm/TenderFarm.sol:TenderFarm",
        "label": "CRF",
        "offset": 0,
        "slot": "5",
        "type": "t_uint256"
      },
      {
        "astId": 4895,
        "contract": "contracts/tenderfarm/TenderFarm.sol:TenderFarm",
        "label": "stakes",
        "offset": 0,
        "slot": "6",
        "type": "t_mapping(t_address,t_struct(Stake)4889_storage)"
      }
    ],
    "types": {
      "t_address": {
        "encoding": "inplace",
        "label": "address",
        "numberOfBytes": "20"
      },
      "t_bool": {
        "encoding": "inplace",
        "label": "bool",
        "numberOfBytes": "1"
      },
      "t_contract(IERC20)2712": {
        "encoding": "inplace",
        "label": "contract IERC20",
        "numberOfBytes": "20"
      },
      "t_contract(ITenderToken)16006": {
        "encoding": "inplace",
        "label": "contract ITenderToken",
        "numberOfBytes": "20"
      },
      "t_contract(ITenderizer)5586": {
        "encoding": "inplace",
        "label": "contract ITenderizer",
        "numberOfBytes": "20"
      },
      "t_mapping(t_address,t_struct(Stake)4889_storage)": {
        "encoding": "mapping",
        "key": "t_address",
        "label": "mapping(address => struct TenderFarm.Stake)",
        "numberOfBytes": "32",
        "value": "t_struct(Stake)4889_storage"
      },
      "t_struct(Stake)4889_storage": {
        "encoding": "inplace",
        "label": "struct TenderFarm.Stake",
        "members": [
          {
            "astId": 4886,
            "contract": "contracts/tenderfarm/TenderFarm.sol:TenderFarm",
            "label": "stake",
            "offset": 0,
            "slot": "0",
            "type": "t_uint256"
          },
          {
            "astId": 4888,
            "contract": "contracts/tenderfarm/TenderFarm.sol:TenderFarm",
            "label": "lastCRF",
            "offset": 0,
            "slot": "1",
            "type": "t_uint256"
          }
        ],
        "numberOfBytes": "64"
      },
      "t_uint256": {
        "encoding": "inplace",
        "label": "uint256",
        "numberOfBytes": "32"
      }
    }
  }
}